{
  "address": "0xEcCD51D9422708d13921D146bA10CA9D6DAc3dFf",
  "abi": [
    {
      "inputs": [
        {
          "internalType": "address",
          "name": "_localVault",
          "type": "address"
        }
      ],
      "stateMutability": "nonpayable",
      "type": "constructor"
    },
    {
      "inputs": [
        {
          "internalType": "address",
          "name": "target",
          "type": "address"
        }
      ],
      "name": "AddressEmptyCode",
      "type": "error"
    },
    {
      "inputs": [
        {
          "internalType": "address",
          "name": "account",
          "type": "address"
        }
      ],
      "name": "AddressInsufficientBalance",
      "type": "error"
    },
    {
      "inputs": [],
      "name": "FailedInnerCall",
      "type": "error"
    },
    {
      "inputs": [
        {
          "internalType": "address",
          "name": "owner",
          "type": "address"
        }
      ],
      "name": "OwnableInvalidOwner",
      "type": "error"
    },
    {
      "inputs": [
        {
          "internalType": "address",
          "name": "account",
          "type": "address"
        }
      ],
      "name": "OwnableUnauthorizedAccount",
      "type": "error"
    },
    {
      "inputs": [],
      "name": "ReentrancyGuardReentrantCall",
      "type": "error"
    },
    {
      "inputs": [
        {
          "internalType": "address",
          "name": "token",
          "type": "address"
        }
      ],
      "name": "SafeERC20FailedOperation",
      "type": "error"
    },
    {
      "anonymous": false,
      "inputs": [
        {
          "indexed": false,
          "internalType": "uint8",
          "name": "_actionType",
          "type": "uint8"
        },
        {
          "indexed": false,
          "internalType": "bytes32",
          "name": "_key",
          "type": "bytes32"
        }
      ],
      "name": "CancelAction",
      "type": "event"
    },
    {
      "anonymous": false,
      "inputs": [
        {
          "indexed": false,
          "internalType": "enum IPlugin.ActionType",
          "name": "_actionType",
          "type": "uint8"
        },
        {
          "indexed": false,
          "internalType": "bytes",
          "name": "_payload",
          "type": "bytes"
        }
      ],
      "name": "Execute",
      "type": "event"
    },
    {
      "anonymous": false,
      "inputs": [
        {
          "indexed": true,
          "internalType": "address",
          "name": "previousOwner",
          "type": "address"
        },
        {
          "indexed": true,
          "internalType": "address",
          "name": "newOwner",
          "type": "address"
        }
      ],
      "name": "OwnershipTransferred",
      "type": "event"
    },
    {
      "anonymous": false,
      "inputs": [
        {
          "indexed": false,
          "internalType": "uint8",
          "name": "poolId",
          "type": "uint8"
        }
      ],
      "name": "PoolAdded",
      "type": "event"
    },
    {
      "anonymous": false,
      "inputs": [
        {
          "indexed": false,
          "internalType": "uint8",
          "name": "poolId",
          "type": "uint8"
        }
      ],
      "name": "PoolRemoved",
      "type": "event"
    },
    {
      "anonymous": false,
      "inputs": [
        {
          "indexed": false,
          "internalType": "address",
          "name": "_uiFeeReceiver",
          "type": "address"
        },
        {
          "indexed": false,
          "internalType": "address",
          "name": "_callbackContract",
          "type": "address"
        },
        {
          "indexed": false,
          "internalType": "uint256",
          "name": "_callbackGasLimit",
          "type": "uint256"
        },
        {
          "indexed": false,
          "internalType": "uint256",
          "name": "_executionFee",
          "type": "uint256"
        },
        {
          "indexed": false,
          "internalType": "bool",
          "name": "_shouldUnwrapNativeToken",
          "type": "bool"
        },
        {
          "indexed": false,
          "internalType": "bytes32",
          "name": "_pnlFactorType",
          "type": "bytes32"
        }
      ],
      "name": "SetGmxParams",
      "type": "event"
    },
    {
      "anonymous": false,
      "inputs": [
        {
          "indexed": false,
          "internalType": "address",
          "name": "master",
          "type": "address"
        }
      ],
      "name": "SetMaster",
      "type": "event"
    },
    {
      "anonymous": false,
      "inputs": [
        {
          "indexed": false,
          "internalType": "address[]",
          "name": "_rewardTokens",
          "type": "address[]"
        }
      ],
      "name": "SetRewardTokens",
      "type": "event"
    },
    {
      "anonymous": false,
      "inputs": [
        {
          "indexed": false,
          "internalType": "address",
          "name": "_exchangeRouter",
          "type": "address"
        },
        {
          "indexed": false,
          "internalType": "address",
          "name": "_router",
          "type": "address"
        },
        {
          "indexed": false,
          "internalType": "address",
          "name": "_depositVault",
          "type": "address"
        },
        {
          "indexed": false,
          "internalType": "address",
          "name": "_withdrawVault",
          "type": "address"
        },
        {
          "indexed": false,
          "internalType": "address",
          "name": "_orderVault",
          "type": "address"
        },
        {
          "indexed": false,
          "internalType": "address",
          "name": "_reader",
          "type": "address"
        }
      ],
      "name": "SetRouterConfig",
      "type": "event"
    },
    {
      "anonymous": false,
      "inputs": [
        {
          "indexed": false,
          "internalType": "address",
          "name": "_token",
          "type": "address"
        },
        {
          "indexed": false,
          "internalType": "uint8",
          "name": "_decimals",
          "type": "uint8"
        }
      ],
      "name": "SetTokenDecimals",
      "type": "event"
    },
    {
      "anonymous": false,
      "inputs": [
        {
          "indexed": false,
          "internalType": "address",
          "name": "_tokenPriceConsumer",
          "type": "address"
        }
      ],
      "name": "SetTokenPriceConsumer",
      "type": "event"
    },
    {
      "anonymous": false,
      "inputs": [
        {
          "indexed": false,
          "internalType": "address payable",
          "name": "treasury",
          "type": "address"
        }
      ],
      "name": "SetTreasury",
      "type": "event"
    },
    {
      "anonymous": false,
      "inputs": [],
      "name": "TransferAllTokensToVault",
      "type": "event"
    },
    {
      "stateMutability": "payable",
      "type": "fallback"
    },
    {
      "inputs": [],
      "name": "ASSET_DECIMALS",
      "outputs": [
        {
          "internalType": "uint256",
          "name": "",
          "type": "uint256"
        }
      ],
      "stateMutability": "view",
      "type": "function"
    },
    {
      "inputs": [],
      "name": "MARKET_TOKEN_PRICE_DECIMALS",
      "outputs": [
        {
          "internalType": "uint256",
          "name": "",
          "type": "uint256"
        }
      ],
      "stateMutability": "view",
      "type": "function"
    },
    {
      "inputs": [
        {
          "internalType": "uint8",
          "name": "_poolId",
          "type": "uint8"
        },
        {
          "internalType": "address",
          "name": "_indexToken",
          "type": "address"
        },
        {
          "internalType": "address",
          "name": "_longToken",
          "type": "address"
        },
        {
          "internalType": "address",
          "name": "_shortToken",
          "type": "address"
        },
        {
          "internalType": "address",
          "name": "_marketToken",
          "type": "address"
        }
      ],
      "name": "addPool",
      "outputs": [],
      "stateMutability": "nonpayable",
      "type": "function"
    },
    {
      "inputs": [
        {
          "internalType": "address",
          "name": "_tokenAddress",
          "type": "address"
        },
        {
          "internalType": "uint256",
          "name": "_tokenAmount",
          "type": "uint256"
        }
      ],
      "name": "calculateTokenValueInUsd",
      "outputs": [
        {
          "internalType": "uint256",
          "name": "",
          "type": "uint256"
        }
      ],
      "stateMutability": "view",
      "type": "function"
    },
    {
      "inputs": [
        {
          "internalType": "uint256",
          "name": "_amount",
          "type": "uint256"
        },
        {
          "internalType": "uint256",
          "name": "_from",
          "type": "uint256"
        },
        {
          "internalType": "uint256",
          "name": "_to",
          "type": "uint256"
        }
      ],
      "name": "convertDecimals",
      "outputs": [
        {
          "internalType": "uint256",
          "name": "",
          "type": "uint256"
        }
      ],
      "stateMutability": "pure",
      "type": "function"
    },
    {
      "inputs": [
        {
          "internalType": "enum IPlugin.ActionType",
          "name": "_actionType",
          "type": "uint8"
        },
        {
          "internalType": "bytes",
          "name": "_payload",
          "type": "bytes"
        }
      ],
      "name": "execute",
      "outputs": [],
      "stateMutability": "payable",
      "type": "function"
    },
    {
      "inputs": [
        {
          "internalType": "uint8",
          "name": "_poolId",
          "type": "uint8"
        }
      ],
      "name": "getAllowedTokens",
      "outputs": [
        {
          "internalType": "address[]",
          "name": "",
          "type": "address[]"
        }
      ],
      "stateMutability": "view",
      "type": "function"
    },
    {
      "inputs": [],
      "name": "getBalance",
      "outputs": [
        {
          "internalType": "uint256",
          "name": "",
          "type": "uint256"
        }
      ],
      "stateMutability": "view",
      "type": "function"
    },
    {
      "inputs": [
        {
          "internalType": "uint8",
          "name": "_poolId",
          "type": "uint8"
        }
      ],
      "name": "getPoolIndexById",
      "outputs": [
        {
          "internalType": "uint256",
          "name": "poolIndex",
          "type": "uint256"
        }
      ],
      "stateMutability": "view",
      "type": "function"
    },
    {
      "inputs": [],
      "name": "getPoolLength",
      "outputs": [
        {
          "internalType": "uint256",
          "name": "",
          "type": "uint256"
        }
      ],
      "stateMutability": "view",
      "type": "function"
    },
    {
      "inputs": [],
      "name": "getPoolNumber",
      "outputs": [
        {
          "internalType": "uint256",
          "name": "",
          "type": "uint256"
        }
      ],
      "stateMutability": "view",
      "type": "function"
    },
    {
      "inputs": [
        {
          "internalType": "uint8",
          "name": "_poolId",
          "type": "uint8"
        }
      ],
      "name": "getPoolTokenInfo",
      "outputs": [
        {
          "internalType": "address",
          "name": "",
          "type": "address"
        },
        {
          "internalType": "uint8",
          "name": "",
          "type": "uint8"
        },
        {
          "internalType": "uint256",
          "name": "",
          "type": "uint256"
        }
      ],
      "stateMutability": "view",
      "type": "function"
    },
    {
      "inputs": [
        {
          "internalType": "uint8",
          "name": "_poolId",
          "type": "uint8"
        },
        {
          "internalType": "bool",
          "name": "_maximize",
          "type": "bool"
        }
      ],
      "name": "getPoolTokenPrice",
      "outputs": [
        {
          "internalType": "int256",
          "name": "",
          "type": "int256"
        }
      ],
      "stateMutability": "view",
      "type": "function"
    },
    {
      "inputs": [],
      "name": "getPoolValues",
      "outputs": [
        {
          "components": [
            {
              "internalType": "uint8",
              "name": "poolId",
              "type": "uint8"
            },
            {
              "internalType": "uint256",
              "name": "poolValue",
              "type": "uint256"
            }
          ],
          "internalType": "struct GmxPlugin.PoolValue[]",
          "name": "",
          "type": "tuple[]"
        }
      ],
      "stateMutability": "view",
      "type": "function"
    },
    {
      "inputs": [],
      "name": "getPools",
      "outputs": [
        {
          "components": [
            {
              "internalType": "uint8",
              "name": "poolId",
              "type": "uint8"
            },
            {
              "internalType": "address",
              "name": "indexToken",
              "type": "address"
            },
            {
              "internalType": "address",
              "name": "longToken",
              "type": "address"
            },
            {
              "internalType": "address",
              "name": "shortToken",
              "type": "address"
            },
            {
              "internalType": "address",
              "name": "marketToken",
              "type": "address"
            }
          ],
          "internalType": "struct GmxPlugin.PoolConfig[]",
          "name": "",
          "type": "tuple[]"
        }
      ],
      "stateMutability": "view",
      "type": "function"
    },
    {
      "inputs": [
        {
          "internalType": "address",
          "name": "token",
          "type": "address"
        }
      ],
      "name": "getTokenPriceInfo",
      "outputs": [
        {
          "components": [
            {
              "internalType": "uint256",
              "name": "min",
              "type": "uint256"
            },
            {
              "internalType": "uint256",
              "name": "max",
              "type": "uint256"
            }
          ],
          "internalType": "struct IPrice.Props",
          "name": "",
          "type": "tuple"
        }
      ],
      "stateMutability": "view",
      "type": "function"
    },
    {
      "inputs": [],
      "name": "getTotalLiquidity",
      "outputs": [
        {
          "internalType": "uint256",
          "name": "totalAsset",
          "type": "uint256"
        }
      ],
      "stateMutability": "view",
      "type": "function"
    },
    {
      "inputs": [],
      "name": "getUniqueTokenLength",
      "outputs": [
        {
          "internalType": "uint256",
          "name": "",
          "type": "uint256"
        }
      ],
      "stateMutability": "view",
      "type": "function"
    },
    {
      "inputs": [],
      "name": "getUniqueTokens",
      "outputs": [
        {
          "internalType": "address[]",
          "name": "",
          "type": "address[]"
        }
      ],
      "stateMutability": "view",
      "type": "function"
    },
    {
      "inputs": [],
      "name": "gmxParams",
      "outputs": [
        {
          "internalType": "address",
          "name": "uiFeeReceiver",
          "type": "address"
        },
        {
          "internalType": "address",
          "name": "callbackContract",
          "type": "address"
        },
        {
          "internalType": "uint256",
          "name": "callbackGasLimit",
          "type": "uint256"
        },
        {
          "internalType": "uint256",
          "name": "executionFee",
          "type": "uint256"
        },
        {
          "internalType": "bool",
          "name": "shouldUnwrapNativeToken",
          "type": "bool"
        },
        {
          "internalType": "bytes32",
          "name": "pnlFactorType",
          "type": "bytes32"
        }
      ],
      "stateMutability": "view",
      "type": "function"
    },
    {
      "inputs": [
        {
          "internalType": "address",
          "name": "_addr",
          "type": "address"
        }
      ],
      "name": "isContract",
      "outputs": [
        {
          "internalType": "bool",
          "name": "",
          "type": "bool"
        }
      ],
      "stateMutability": "view",
      "type": "function"
    },
    {
      "inputs": [
        {
          "internalType": "address",
          "name": "_token",
          "type": "address"
        }
      ],
      "name": "isTokenAdded",
      "outputs": [
        {
          "internalType": "bool",
          "name": "",
          "type": "bool"
        }
      ],
      "stateMutability": "view",
      "type": "function"
    },
    {
      "inputs": [],
      "name": "localVault",
      "outputs": [
        {
          "internalType": "address",
          "name": "",
          "type": "address"
        }
      ],
      "stateMutability": "view",
      "type": "function"
    },
    {
      "inputs": [],
      "name": "owner",
      "outputs": [
        {
          "internalType": "address",
          "name": "",
          "type": "address"
        }
      ],
      "stateMutability": "view",
      "type": "function"
    },
    {
      "inputs": [
        {
          "internalType": "uint8",
          "name": "",
          "type": "uint8"
        }
      ],
      "name": "poolExistsMap",
      "outputs": [
        {
          "internalType": "bool",
          "name": "",
          "type": "bool"
        }
      ],
      "stateMutability": "view",
      "type": "function"
    },
    {
      "inputs": [
        {
          "internalType": "uint256",
          "name": "",
          "type": "uint256"
        }
      ],
      "name": "pools",
      "outputs": [
        {
          "internalType": "uint8",
          "name": "poolId",
          "type": "uint8"
        },
        {
          "internalType": "address",
          "name": "indexToken",
          "type": "address"
        },
        {
          "internalType": "address",
          "name": "longToken",
          "type": "address"
        },
        {
          "internalType": "address",
          "name": "shortToken",
          "type": "address"
        },
        {
          "internalType": "address",
          "name": "marketToken",
          "type": "address"
        }
      ],
      "stateMutability": "view",
      "type": "function"
    },
    {
      "inputs": [
        {
          "internalType": "uint8",
          "name": "_poolId",
          "type": "uint8"
        }
      ],
      "name": "removePool",
      "outputs": [],
      "stateMutability": "nonpayable",
      "type": "function"
    },
    {
      "inputs": [],
      "name": "renounceOwnership",
      "outputs": [],
      "stateMutability": "nonpayable",
      "type": "function"
    },
    {
      "inputs": [
        {
          "internalType": "uint256",
          "name": "",
          "type": "uint256"
        }
      ],
      "name": "rewardTokens",
      "outputs": [
        {
          "internalType": "address",
          "name": "",
          "type": "address"
        }
      ],
      "stateMutability": "view",
      "type": "function"
    },
    {
      "inputs": [],
      "name": "routerConfig",
      "outputs": [
        {
          "internalType": "address",
          "name": "exchangeRouter",
          "type": "address"
        },
        {
          "internalType": "address",
          "name": "router",
          "type": "address"
        },
        {
          "internalType": "address",
          "name": "depositVault",
          "type": "address"
        },
        {
          "internalType": "address",
          "name": "withdrawVault",
          "type": "address"
        },
        {
          "internalType": "address",
          "name": "orderVault",
          "type": "address"
        },
        {
          "internalType": "address",
          "name": "reader",
          "type": "address"
        }
      ],
      "stateMutability": "view",
      "type": "function"
    },
    {
      "inputs": [
        {
          "internalType": "address",
          "name": "_uiFeeReceiver",
          "type": "address"
        },
        {
          "internalType": "address",
          "name": "_callbackContract",
          "type": "address"
        },
        {
          "internalType": "uint256",
          "name": "_callbackGasLimit",
          "type": "uint256"
        },
        {
          "internalType": "uint256",
          "name": "_executionFee",
          "type": "uint256"
        },
        {
          "internalType": "bool",
          "name": "_shouldUnwrapNativeToken",
          "type": "bool"
        },
        {
          "internalType": "bytes32",
          "name": "_pnlFactorType",
          "type": "bytes32"
        }
      ],
      "name": "setGmxParams",
      "outputs": [],
      "stateMutability": "nonpayable",
      "type": "function"
    },
    {
      "inputs": [
        {
          "internalType": "address[]",
          "name": "_rewardTokens",
          "type": "address[]"
        }
      ],
      "name": "setRewardTokens",
      "outputs": [],
      "stateMutability": "nonpayable",
      "type": "function"
    },
    {
      "inputs": [
        {
          "internalType": "address",
          "name": "_exchangeRouter",
          "type": "address"
        },
        {
          "internalType": "address",
          "name": "_router",
          "type": "address"
        },
        {
          "internalType": "address",
          "name": "_depositVault",
          "type": "address"
        },
        {
          "internalType": "address",
          "name": "_withdrawVault",
          "type": "address"
        },
        {
          "internalType": "address",
          "name": "_orderVault",
          "type": "address"
        },
        {
          "internalType": "address",
          "name": "_reader",
          "type": "address"
        }
      ],
      "name": "setRouterConfig",
      "outputs": [],
      "stateMutability": "nonpayable",
      "type": "function"
    },
    {
      "inputs": [
        {
          "internalType": "address",
          "name": "_token",
          "type": "address"
        },
        {
          "internalType": "uint8",
          "name": "_decimals",
          "type": "uint8"
        }
      ],
      "name": "setTokenDecimals",
      "outputs": [],
      "stateMutability": "nonpayable",
      "type": "function"
    },
    {
      "inputs": [
        {
          "internalType": "address[]",
          "name": "_tokens",
          "type": "address[]"
        },
        {
          "internalType": "uint8[]",
          "name": "_newDecimals",
          "type": "uint8[]"
        }
      ],
      "name": "setTokenDecimalsBatch",
      "outputs": [],
      "stateMutability": "nonpayable",
      "type": "function"
    },
    {
      "inputs": [
        {
          "internalType": "address",
          "name": "_tokenPriceConsumer",
          "type": "address"
        }
      ],
      "name": "setTokenPriceConsumer",
      "outputs": [],
      "stateMutability": "nonpayable",
      "type": "function"
    },
    {
      "inputs": [
        {
          "internalType": "address payable",
          "name": "_treasury",
          "type": "address"
        }
      ],
      "name": "setTreasury",
      "outputs": [],
      "stateMutability": "nonpayable",
      "type": "function"
    },
    {
      "inputs": [
        {
          "internalType": "address",
          "name": "",
          "type": "address"
        }
      ],
      "name": "tokenDecimalList",
      "outputs": [
        {
          "internalType": "uint8",
          "name": "",
          "type": "uint8"
        }
      ],
      "stateMutability": "view",
      "type": "function"
    },
    {
      "inputs": [],
      "name": "tokenPriceConsumer",
      "outputs": [
        {
          "internalType": "address",
          "name": "",
          "type": "address"
        }
      ],
      "stateMutability": "view",
      "type": "function"
    },
    {
      "inputs": [],
      "name": "transferAllTokensToVault",
      "outputs": [],
      "stateMutability": "nonpayable",
      "type": "function"
    },
    {
      "inputs": [
        {
          "internalType": "address",
          "name": "newOwner",
          "type": "address"
        }
      ],
      "name": "transferOwnership",
      "outputs": [],
      "stateMutability": "nonpayable",
      "type": "function"
    },
    {
      "inputs": [],
      "name": "treasury",
      "outputs": [
        {
          "internalType": "address payable",
          "name": "",
          "type": "address"
        }
      ],
      "stateMutability": "view",
      "type": "function"
    },
    {
      "inputs": [
        {
          "internalType": "uint256",
          "name": "",
          "type": "uint256"
        }
      ],
      "name": "uniqueTokens",
      "outputs": [
        {
          "internalType": "address",
          "name": "",
          "type": "address"
        }
      ],
      "stateMutability": "view",
      "type": "function"
    },
    {
      "inputs": [
        {
          "internalType": "uint256",
          "name": "_amount",
          "type": "uint256"
        }
      ],
      "name": "withdrawFee",
      "outputs": [],
      "stateMutability": "nonpayable",
      "type": "function"
    },
    {
      "inputs": [
        {
          "internalType": "uint256",
          "name": "amount",
          "type": "uint256"
        }
      ],
      "name": "withdrawStuckEth",
      "outputs": [],
      "stateMutability": "nonpayable",
      "type": "function"
    },
    {
      "stateMutability": "payable",
      "type": "receive"
    }
  ],
  "transactionHash": "0x911312ff28ee90ab2109418cf671d2b4a12cb3ba73b72627c10d5c0fd8887aa7",
  "args": [
    "0x9A96b2d416dDf2F7A3fFD66D298606EE81C03363"
  ],
  "numDeployments": 1,
  "solcInputHash": "fa54d0ea97eb63cd90c0a76cd36d368e",
  "bytecode": "0x60806040523480156200001157600080fd5b506040516200572a3803806200572a83398101604081905262000034916200013a565b33806200005c57604051631e4fbdf760e01b8152600060048201526024015b60405180910390fd5b6200006781620000ea565b50600180556001600160a01b038116620000c45760405162461bcd60e51b815260206004820152601460248201527f474d583a20496e76616c69642041646472657373000000000000000000000000604482015260640162000053565b600280546001600160a01b0319166001600160a01b03929092169190911790556200016c565b600080546001600160a01b038381166001600160a01b0319831681178455604051919092169283917f8be0079c531659141344cd1fd0a4f28419497f9722a3daafe3b4186f6b6457e09190a35050565b6000602082840312156200014d57600080fd5b81516001600160a01b03811681146200016557600080fd5b9392505050565b6155ae806200017c6000396000f3fe60806040526004361061025e5760003560e01c80637d2ab8bf11610143578063beafdc24116100bb578063e48caf8d11610077578063e48caf8d1461074f578063f0f4426014610839578063f2fde38b14610859578063f4db898414610879578063f66fdcca1461088e578063fb4d364c146108b057005b8063beafdc2414610784578063c2ca3d0d146107a4578063c8af3807146107c4578063d064f7d0146107e4578063d5a5731a146107f9578063df77209b1461081957005b8063a36532b21161010a578063a36532b214610695578063a7888a34146106b5578063a9853b3a146106d5578063ac4afa38146106f5578063b3944d521461074f578063be3576161461076457005b80637d2ab8bf146105f2578063845b7924146106125780638da5cb5b1461064257806396c1865b14610660578063a0390b651461068057005b806335c7e925116101d657806361d027b31161019d57806361d027b31461052e578063673a2a1f1461054e5780636aaf6436146105705780636e862fdb1461059d578063715018a6146105bd5780637bb7bed1146105d257005b806335c7e9251461046d57806336a60503146104825780634952cade146104a25780634df227e4146104c25780635cdcd8bb1461050e57005b8063201e81a811610225578063201e81a81461036257806326a1809b1461038257806327824675146103a457806329c3fcef146103c45780632a7a524414610406578063313eb4061461042657005b8063050705bb1461026757806308447586146102c157806312065fe0146102f957806316279055146103165780631c31772f1461034d57005b3661026557005b005b34801561027357600080fd5b506004546005546006546007546008546009546102a6956001600160a01b03908116958116948116938116928116911686565b6040516102b8969594939291906140a9565b60405180910390f35b3480156102cd57600080fd5b506013546102e1906001600160a01b031681565b6040516001600160a01b0390911681526020016102b8565b34801561030557600080fd5b50475b6040519081526020016102b8565b34801561032257600080fd5b5061033d610331366004614108565b3b63ffffffff16151590565b60405190151581526020016102b8565b34801561035957600080fd5b50601254610308565b34801561036e57600080fd5b5061026561037d366004614251565b6108c3565b34801561038e57600080fd5b50610397610919565b6040516102b8919061428d565b3480156103b057600080fd5b506103086103bf3660046142da565b61097b565b3480156103d057600080fd5b506103f46103df366004614108565b60156020526000908152604090205460ff1681565b60405160ff90911681526020016102b8565b34801561041257600080fd5b50610397610421366004614315565b6109d0565b34801561043257600080fd5b50610446610441366004614315565b610b05565b604080516001600160a01b03909416845260ff9092166020840152908201526060016102b8565b34801561047957600080fd5b50610308610c9b565b34801561048e57600080fd5b5061030861049d366004614332565b610ef5565b3480156104ae57600080fd5b506103086104bd366004614315565b611078565b3480156104ce57600080fd5b50600a54600b54600c54600d54600e54600f546104fc956001600160a01b03908116951693929160ff169086565b6040516102b89695949392919061435e565b34801561051a57600080fd5b50610265610529366004614396565b611108565b34801561053a57600080fd5b506003546102e1906001600160a01b031681565b34801561055a57600080fd5b50610563611173565b6040516102b891906143cf565b34801561057c57600080fd5b5061059061058b366004614108565b611214565b6040516102b89190614450565b3480156105a957600080fd5b506102656105b8366004614467565b61142f565b3480156105c957600080fd5b506102656115cb565b3480156105de57600080fd5b506102e16105ed3660046144e9565b6115df565b3480156105fe57600080fd5b5061026561060d366004614315565b611609565b34801561061e57600080fd5b5061033d61062d366004614315565b60116020526000908152604090205460ff1681565b34801561064e57600080fd5b506000546001600160a01b03166102e1565b34801561066c57600080fd5b5061030861067b36600461451b565b6117f2565b34801561068c57600080fd5b50610265611a2a565b3480156106a157600080fd5b5061033d6106b0366004614108565b611b8c565b3480156106c157600080fd5b506102656106d0366004614108565b611beb565b3480156106e157600080fd5b506102656106f03660046144e9565b611c8e565b34801561070157600080fd5b506107156107103660046144e9565b611cfa565b6040805160ff90961686526001600160a01b039485166020870152928416928501929092528216606084015216608082015260a0016102b8565b34801561075b57600080fd5b50601054610308565b34801561077057600080fd5b5061026561077f3660046144e9565b611d4f565b34801561079057600080fd5b506102e161079f3660046144e9565b611ea8565b3480156107b057600080fd5b506102656107bf366004614594565b611eb8565b3480156107d057600080fd5b506102656107df3660046145ff565b611f7a565b3480156107f057600080fd5b50610308601e81565b34801561080557600080fd5b50610265610814366004614670565b61227c565b34801561082557600080fd5b506002546102e1906001600160a01b031681565b34801561084557600080fd5b50610265610854366004614108565b612338565b34801561086557600080fd5b50610265610874366004614108565b6123dd565b34801561088557600080fd5b50610308602481565b34801561089a57600080fd5b506108a361241b565b6040516102b891906146d7565b6102656108be36600461471c565b612653565b6108cb61279c565b80516108de906014906020840190614038565b507f69be44b81d4f8b6cf7825a37f020b264079658f3d72856eeb0a0efed09c7d3928160405161090e919061428d565b60405180910390a150565b6060601280548060200260200160405190810160405280929190818152602001828054801561097157602002820191906000526020600020905b81546001600160a01b03168152600190910190602001808311610953575b5050505050905090565b60008183106109aa5761098e82846147ba565b61099990600a6148b1565b6109a390856148bd565b90506109c9565b6109b483836147ba565b6109bf90600a6148b1565b6109a390856148df565b9392505050565b60ff8082166000908152601160205260409020546060918291166109f45792915050565b6040805160028082526060820183526000926020830190803683370190505090506000610a2085611078565b9050600060108281548110610a3757610a376148f6565b600091825260208083206040805160a0810182526004909402909101805460ff811685526001600160a01b03610100909104811693850193909352600181015483169184018290526002810154831660608501526003015490911660808301528551919350918591610aab57610aab6148f6565b60200260200101906001600160a01b031690816001600160a01b031681525050806060015183600181518110610ae357610ae36148f6565b6001600160a01b03909216602092830291909101909101525090949350505050565b60ff80821660009081526011602052604081205490918291829116610b3257506000915081905080610c94565b6000610b3d85611078565b9050600060108281548110610b5457610b546148f6565b600091825260208083206040805160a0810182526004948502909201805460ff811684526001600160a01b0361010090910481168486015260018201548116848401526002820154811660608501526003909101541660808301819052815163313ce56760e01b815291519296509363313ce567938282019390929091908290030181865afa158015610beb573d6000803e3d6000fd5b505050506040513d601f19601f82011682018060405250810190610c0f919061490c565b60808301516040516370a0823160e01b81523060048201529192506000916001600160a01b03909116906370a0823190602401602060405180830381865afa158015610c5f573d6000803e3d6000fd5b505050506040513d601f19601f82011682018060405250810190610c839190614929565b608090930151965090945090925050505b9193909250565b6000805b601254811015610d5a57600060128281548110610cbe57610cbe6148f6565b60009182526020822001546040516370a0823160e01b81523060048201526001600160a01b03909116925082906370a0823190602401602060405180830381865afa158015610d11573d6000803e3d6000fd5b505050506040513d601f19601f82011682018060405250810190610d359190614929565b9050610d418282610ef5565b610d4b9085614942565b93505050806001019050610c9f565b5060005b601054811015610ef157600060108281548110610d7d57610d7d6148f6565b600091825260208220600491820201600301546040516370a0823160e01b815230928101929092526001600160a01b0316925082906370a0823190602401602060405180830381865afa158015610dd8573d6000803e3d6000fd5b505050506040513d601f19601f82011682018060405250810190610dfc9190614929565b90506000610e3160108581548110610e1657610e166148f6565b600091825260209091206004909102015460ff1660016117f2565b905060008113610e4357505050610ee9565b6000610e4f82846148df565b90506000601e856001600160a01b031663313ce5676040518163ffffffff1660e01b8152600401602060405180830381865afa158015610e93573d6000803e3d6000fd5b505050506040513d601f19601f82011682018060405250810190610eb7919061490c565b60ff16610ec49190614942565b90506000610ed48383602461097b565b9050610ee08189614942565b97505050505050505b600101610d5e565b5090565b600080836001600160a01b031663313ce5676040518163ffffffff1660e01b8152600401602060405180830381865afa158015610f36573d6000803e3d6000fd5b505050506040513d601f19601f82011682018060405250810190610f5a919061490c565b601354604051636a24d41960e11b81526001600160a01b03878116600483015260ff9390931693506000929091169063d449a83290602401602060405180830381865afa158015610faf573d6000803e3d6000fd5b505050506040513d601f19601f82011682018060405250810190610fd3919061490c565b601354604051630681320d60e51b81526001600160a01b03888116600483015260ff9390931693506000929091169063d02641a090602401602060405180830381865afa158015611028573d6000803e3d6000fd5b505050506040513d601f19601f8201168201806040525081019061104c9190614929565b905061106c61105b82876148df565b6110658486614942565b602461097b565b93505050505b92915050565b6000805b6010548110156110c4578260ff166010828154811061109d5761109d6148f6565b600091825260209091206004909102015460ff16036110bc5792915050565b60010161107c565b5060405162461bcd60e51b815260206004820152601360248201527211d3560e88141bdbdb081b9bdd08199bdd5b99606a1b60448201526064015b60405180910390fd5b61111061279c565b6001600160a01b038216600081815260156020908152604091829020805460ff191660ff86169081179091558251938452908301527e97ef8921f7712fdab9d5637cfa3703fc8decec3c18f710a3c62a60f822cb06910160405180910390a15050565b60606010805480602002602001604051908101604052809291908181526020016000905b8282101561120b5760008481526020908190206040805160a08101825260048602909201805460ff811684526001600160a01b036101009091048116848601526001808301548216938501939093526002820154811660608501526003909101541660808301529083529092019101611197565b50505050905090565b60408051808201909152600080825260208201526001600160a01b03821661124f575050604080518082019091526000808252602082015290565b6013546001600160a01b03166000833b63ffffffff16156112d657836001600160a01b031663313ce5676040518163ffffffff1660e01b8152600401602060405180830381865afa1580156112a8573d6000803e3d6000fd5b505050506040513d601f19601f820116820180604052508101906112cc919061490c565b60ff1690506112f4565b506001600160a01b03831660009081526015602052604090205460ff165b6040805180820191829052630681320d60e51b9091526001600160a01b0385811660448301526000919081906113e990861663d02641a0606484015b602060405180830381865afa15801561134d573d6000803e3d6000fd5b505050506040513d601f19601f820116820180604052508101906113719190614929565b604051636a24d41960e11b81526001600160a01b038a8116600483015288169063d449a83290602401602060405180830381865afa1580156113b7573d6000803e3d6000fd5b505050506040513d601f19601f820116820180604052508101906113db919061490c565b60ff166103bf87601e6147ba565b8152604051630681320d60e51b81526001600160a01b038881166004830152602090920191611424919087169063d02641a090602401611330565b905295945050505050565b61143761279c565b6001600160a01b0386161580159061145757506001600160a01b03851615155b801561146b57506001600160a01b03841615155b801561147f57506001600160a01b03831615155b801561149357506001600160a01b03821615155b80156114a757506001600160a01b03811615155b6114ea5760405162461bcd60e51b8152602060048201526014602482015273474d583a20496e76616c6964204164647265737360601b60448201526064016110ff565b6040805160c0810182526001600160a01b0380891680835288821660208401819052888316848601819052888416606086018190528885166080870181905294881660a0909601869052600480546001600160a01b0319908116909517905560058054851690931790925560068054841690911790556007805483169091179055600880548216909217909155600980549091169091179055517f426776d3b733c4a7464cf1dd3d3c5d81199723dd1cec0de97ff4e053ce32cbf5906115bb908890889088908890889088906140a9565b60405180910390a1505050505050565b6115d361279c565b6115dd60006127c9565b565b601481815481106115ef57600080fd5b6000918252602090912001546001600160a01b0316905081565b61161161279c565b60ff808216600090815260116020526040902054166116425760405162461bcd60e51b81526004016110ff90614955565b600061164d82611078565b601054909150600090611662906001906147ba565b9050808214611735576010818154811061167e5761167e6148f6565b90600052602060002090600402016010838154811061169f5761169f6148f6565b600091825260209091208254600490920201805460ff90921660ff1983168117825583546001600160a81b031990931617610100928390046001600160a01b0390811690930217815560018084015490820180549184166001600160a01b031992831617905560028085015490830180549185169183169190911790556003938401549390910180549390921692169190911790555b60108054806117465761174661499e565b6000828152602080822060046000199094019384020180546001600160a81b03191681556001810180546001600160a01b0319908116909155600282018054821690556003909101805490911690559190925560ff851682526011905260409020805460ff191690556117b7612819565b60405160ff841681527f0f19bfba9b2e5adda8bcdbd5c0583080cf3871c58286275b1e90451cb0130aec9060200160405180910390a1505050565b60ff8083166000908152601160205260408120549091166118255760405162461bcd60e51b81526004016110ff90614955565b6000601061183285611078565b81548110611842576118426148f6565b600091825260208083206040805160a0810182526004948502909201805460ff811684526001600160a01b036101009091048116848601526001820154811684840152600282015481166060850152600390910154811660808401528454825163660d0d6760e01b81529251939750169493859363660d0d679383830193919290918290030181865afa1580156118dd573d6000803e3d6000fd5b505050506040513d601f19601f8201168201806040525081019061190191906149b4565b90506000604051806080016040528085608001516001600160a01b0316815260200185602001516001600160a01b0316815260200185604001516001600160a01b0316815260200185606001516001600160a01b03168152509050600061196b8560200151611214565b9050600061197c8660400151611214565b9050600061198d8760600151611214565b600f5460095460405163095ce6c560e01b815292935090918b916000916001600160a01b039091169063095ce6c5906119d6908b908b908b908b908b908b908b906004016149d1565b61018060405180830381865afa1580156119f4573d6000803e3d6000fd5b505050506040513d601f19601f82011682018060405250810190611a189190614a6c565b509d9c50505050505050505050505050565b600b546001600160a01b03163314611a755760405162461bcd60e51b815260206004820152600e60248201526d24b73b30b634b21031b0b63632b960911b60448201526064016110ff565b60005b601254811015611b6057600060128281548110611a9757611a976148f6565b6000918252602090912001546040516370a0823160e01b81523060048201526001600160a01b03909116906370a0823190602401602060405180830381865afa158015611ae8573d6000803e3d6000fd5b505050506040513d601f19601f82011682018060405250810190611b0c9190614929565b90508015611b575760025460128054611b57926001600160a01b031691849186908110611b3b57611b3b6148f6565b6000918252602090912001546001600160a01b03169190612927565b50600101611a78565b506040517f52095ed2fa7d7c4dd1c5e9a36b117c9a00bd764878e68f95da78cc6f4f54763590600090a1565b6000805b601254811015611be257826001600160a01b031660128281548110611bb757611bb76148f6565b6000918252602090912001546001600160a01b031603611bda5750600192915050565b600101611b90565b50600092915050565b611bf361279c565b6001600160a01b038116611c405760405162461bcd60e51b8152602060048201526014602482015273474d583a20496e76616c6964204164647265737360601b60448201526064016110ff565b601380546001600160a01b0319166001600160a01b0383169081179091556040519081527f31304382ad8ca8091d6b1faad35fded717d1771446c64094a9941158a525d2559060200161090e565b611c9661279c565b6003546040516000916001600160a01b03169083908381818185875af1925050503d8060008114611ce3576040519150601f19603f3d011682016040523d82523d6000602084013e611ce8565b606091505b5050905080611cf657600080fd5b5050565b60108181548110611d0a57600080fd5b6000918252602090912060049091020180546001820154600283015460039093015460ff831694506001600160a01b0361010090930483169391831692918216911685565b611d5761279c565b4781811015611da85760405162461bcd60e51b815260206004820152601f60248201527f5661756c743a20496e76616c696420776974686472617720616d6f756e742e0060448201526064016110ff565b6003546001600160a01b0316611e005760405162461bcd60e51b815260206004820152601760248201527f5661756c743a20496e76616c696420747265617375727900000000000000000060448201526064016110ff565b6003546040516000916001600160a01b03169084908381818185875af1925050503d8060008114611e4d576040519150601f19603f3d011682016040523d82523d6000602084013e611e52565b606091505b5050905080611ea35760405162461bcd60e51b815260206004820152601b60248201527f5661756c743a204661696c656420746f2073656e64204574686572000000000060448201526064016110ff565b505050565b601281815481106115ef57600080fd5b611ec061279c565b828114611f0f5760405162461bcd60e51b815260206004820181905260248201527f417272617973206d7573742068617665207468652073616d65206c656e67746860448201526064016110ff565b60005b83811015611f7357611f6b858583818110611f2f57611f2f6148f6565b9050602002016020810190611f449190614108565b848484818110611f5657611f566148f6565b90506020020160208101906105299190614315565b600101611f12565b5050505050565b611f8261279c565b8460ff16600003611fcc5760405162461bcd60e51b815260206004820152601460248201527311d3560e88125b9d985b1a5908141bdbdb08125960621b60448201526064016110ff565b60ff80861660009081526011602052604090205416156120405760405162461bcd60e51b815260206004820152602960248201527f474d583a20506f6f6c2077697468207468697320706f6f6c496420616c72656160448201526864792065786973747360b81b60648201526084016110ff565b6040805160a08101825260ff8088168083526001600160a01b0380891660208086019182528983168688019081528984166060880190815289851660808901908152601080546001818101835560009283528b5160049092027f1b6847dc741a1b0cd08d278845f9d819d87b734759afb55fe2de5cb82a9ae6728101805499518b16610100026001600160a81b0319909a1693909c16929092179790971790995592517f1b6847dc741a1b0cd08d278845f9d819d87b734759afb55fe2de5cb82a9ae673890180549188166001600160a01b031992831617905591517f1b6847dc741a1b0cd08d278845f9d819d87b734759afb55fe2de5cb82a9ae67489018054918816918416919091179055517f1b6847dc741a1b0cd08d278845f9d819d87b734759afb55fe2de5cb82a9ae67590970180549790951696169590951790925591835260119052929020805460ff19169092179091556121a084611b8c565b6121f057601280546001810182556000919091527fbb8a6a4669ba250d26cd7a459eca9d215f8307e33aebe50379bc5a3617ec34440180546001600160a01b0319166001600160a01b0386161790555b6121f983611b8c565b61224957601280546001810182556000919091527fbb8a6a4669ba250d26cd7a459eca9d215f8307e33aebe50379bc5a3617ec34440180546001600160a01b0319166001600160a01b0385161790555b60405160ff871681527f09cce9a1e4000121ddb6c53c0c6161a69a7fd0c028b5970acddf3350a9204891906020016115bb565b61228461279c565b6040805160c0810182526001600160a01b0380891680835290881660208301819052828401889052606083018790528515156080840181905260a0909301859052600a80546001600160a01b03199081169093179055600b8054909216179055600c869055600d859055600e805460ff19169091179055600f829055517f03d83cb733840674aae397a1ef6a2080fdfcd1f99bfa2efd1092d816f3239afa906115bb9088908890889088908890889061435e565b61234061279c565b6001600160a01b03811661238f5760405162461bcd60e51b81526020600482015260166024820152755661756c743a20496e76616c6964206164647265737360501b60448201526064016110ff565b600380546001600160a01b0319166001600160a01b0383169081179091556040519081527fcb7ef3e545f5cdb893f5c568ba710fe08f336375a2d9fd66e161033f8fc09ef39060200161090e565b6123e561279c565b6001600160a01b03811661240f57604051631e4fbdf760e01b8152600060048201526024016110ff565b612418816127c9565b50565b6010546060906000906001600160401b0381111561243b5761243b614125565b60405190808252806020026020018201604052801561248057816020015b60408051808201909152600080825260208201528152602001906001900390816124595790505b50905060005b60105481101561264d576000601082815481106124a5576124a56148f6565b600091825260208220600491820201600301546040516370a0823160e01b815230928101929092526001600160a01b0316925082906370a0823190602401602060405180830381865afa158015612500573d6000803e3d6000fd5b505050506040513d601f19601f820116820180604052508101906125249190614929565b9050600061253e60108581548110610e1657610e166148f6565b90506000808213156125de57600061255683856148df565b90506000601e866001600160a01b031663313ce5676040518163ffffffff1660e01b8152600401602060405180830381865afa15801561259a573d6000803e3d6000fd5b505050506040513d601f19601f820116820180604052508101906125be919061490c565b60ff166125cb9190614942565b90506125d98282602461097b565b925050505b60006040518060400160405280601088815481106125fe576125fe6148f6565b60009182526020918290206004909102015460ff1682520183905287519091508190889088908110612632576126326148f6565b60200260200101819052505050505050806001019050612486565b50919050565b6002546001600160a01b0316331461269e5760405162461bcd60e51b815260206004820152600e60248201526d24b73b30b634b21031b0b63632b960911b60448201526064016110ff565b6126a6612986565b60008360048111156126ba576126ba614b20565b036126ce576126c982826129b0565b612758565b60018360048111156126e2576126e2614b20565b036126f1576126c98282612d69565b600283600481111561270557612705614b20565b03612714576126c98282612dae565b600483600481111561272857612728614b20565b03612737576126c98282612dc7565b600383600481111561274b5761274b614b20565b0361275857612758612e5d565b7f7602f37cd960866e4a851b683e367e8794f21cddd908ce1d9fe92b978a59f10183838360405161278b93929190614b36565b60405180910390a1611ea360018055565b6000546001600160a01b031633146115dd5760405163118cdaa760e01b81523360048201526024016110ff565b600080546001600160a01b038381166001600160a01b0319831681178455604051919092169283917f8be0079c531659141344cd1fd0a4f28419497f9722a3daafe3b4186f6b6457e09190a35050565b6012545b80156124185761285d60126128336001846147ba565b81548110612843576128436148f6565b6000918252602090912001546001600160a01b0316612f2c565b6129155760128054612871906001906147ba565b81548110612881576128816148f6565b6000918252602090912001546001600160a01b031660126128a36001846147ba565b815481106128b3576128b36148f6565b9060005260206000200160006101000a8154816001600160a01b0302191690836001600160a01b0316021790555060128054806128f2576128f261499e565b600082815260209020810160001990810180546001600160a01b03191690550190555b8061291f81614b7f565b91505061281d565b6040516001600160a01b03838116602483015260448201839052611ea391859182169063a9059cbb906064015b604051602081830303815290604052915060e01b6020820180516001600160e01b038381831617835250505050612fcd565b6002600154036129a957604051633ee5aeb560e01b815260040160405180910390fd5b6002600155565b60008080806129c185870187614c0e565b93509350935093506000818060200190518101906129df9190614929565b60ff80871660009081526011602052604090205491925016612a135760405162461bcd60e51b81526004016110ff90614955565b83516002148015612a25575082516002145b612a715760405162461bcd60e51b815260206004820152601b60248201527f474d583a204172726179206c656e677468206d7573742062652032000000000060448201526064016110ff565b6000612a7c86611078565b9050600060108281548110612a9357612a936148f6565b600091825260208083206040805160a0810182526004909402909101805460ff811685526001600160a01b036101009091048116938501939093526001810154831691840191909152600281015482166060840152600301541660808201528751909250879190612b0657612b066148f6565b60200260200101516001600160a01b031681604001516001600160a01b0316148015612b61575085600181518110612b4057612b406148f6565b60200260200101516001600160a01b031681606001516001600160a01b0316145b612bad5760405162461bcd60e51b815260206004820152601860248201527f474d583a20496e76616c696420506f6f6c20746f6b656e73000000000000000060448201526064016110ff565b84600081518110612bc057612bc06148f6565b60200260200101516000141580612bf2575084600181518110612be557612be56148f6565b6020026020010151600014155b612c3e5760405162461bcd60e51b815260206004820152601960248201527f474d583a20496e76616c696420746f6b656e20616d6f756e740000000000000060448201526064016110ff565b600085600081518110612c5357612c536148f6565b60200260200101511115612cad576002548551612cad916001600160a01b03169030908890600090612c8757612c876148f6565b602002602001015184604001516001600160a01b0316613030909392919063ffffffff16565b600085600181518110612cc257612cc26148f6565b60200260200101511115612d1e576002548551612d1e916001600160a01b031690309088906001908110612cf857612cf86148f6565b602002602001015184606001516001600160a01b0316613030909392919063ffffffff16565b612d5e8786600081518110612d3557612d356148f6565b602002602001015187600181518110612d5057612d506148f6565b60200260200101518661305e565b505050505050505050565b600080808080612d7b86880188614cff565b9450945094509450945060008082806020019051810190612d9c9190614d74565b91509150612d5e87878785858961348b565b6000612dbc82840184614edf565b9050611ea38161398d565b600080612dd683850185614fb2565b915091508160ff16600003612df357612dee81613c81565b612e1b565b8160ff16600103612e0757612dee81613ce4565b8160ff16600203612e1b57612e1b81613d15565b6040805160ff84168152602081018390527f8f9edcb63f442052ba4d68bdd7cf50e8bb5f615f31ba22ecb1eab71fa256dddf910160405180910390a150505050565b60005b60145481101561241857600060148281548110612e7f57612e7f6148f6565b6000918252602090912001546040516370a0823160e01b81523060048201526001600160a01b03909116906370a0823190602401602060405180830381865afa158015612ed0573d6000803e3d6000fd5b505050506040513d601f19601f82011682018060405250810190612ef49190614929565b90508015612f235760025460148054612f23926001600160a01b031691849186908110611b3b57611b3b6148f6565b50600101612e60565b6000805b601054811015611be257826001600160a01b031660108281548110612f5757612f576148f6565b60009182526020909120600160049092020101546001600160a01b03161480612fb75750826001600160a01b031660108281548110612f9857612f986148f6565b60009182526020909120600260049092020101546001600160a01b0316145b15612fc55750600192915050565b600101612f30565b6000612fe26001600160a01b03841683613d46565b905080516000141580156130075750808060200190518101906130059190614fd0565b155b15611ea357604051635274afe760e01b81526001600160a01b03841660048201526024016110ff565b61305884856001600160a01b03166323b872dd86868660405160240161295493929190614fed565b50505050565b6000601061306b86611078565b8154811061307b5761307b6148f6565b60009182526020918290206040805160a080820183526004948502909301805460ff80821684526001600160a01b03610100928390048116858a015260018401548116858701819052600285015482166060808801829052600390960154831660808089018290529a54600d548a5161018081018c52308152600b5487169e81019e909e52600a5486169a8e019a909a528c88018290529a8c01839052988b0181905260c08b0186905260e08b01869052938a018c9052600e5490921615156101208a01526101408901869052600c546101608a0152939850959092169591939290918291908b1561318157600554613181906001600160a01b0389811691168e613d54565b8a156131a1576005546131a1906001600160a01b0388811691168d613d54565b60408051600480825260a08201909252600091816020015b60608152602001906001900390816131b9579050506006546040516001600160a01b0390911660248201526044810185905290915060640160408051601f198184030181529190526020810180516001600160e01b0316637d39aaf160e01b1790528151829060009061322e5761322e6148f6565b602002602001018190525087600460020160009054906101000a90046001600160a01b03168e60405160240161326693929190614fed565b60408051601f198184030181529190526020810180516001600160e01b0316631cdacd5960e31b1790528151829060019081106132a5576132a56148f6565b60209081029190910101526006546040516132d29189916001600160a01b03909116908f90602401614fed565b60408051601f198184030181529190526020810180516001600160e01b0316631cdacd5960e31b179052815182906002908110613311576133116148f6565b60200260200101819052508160405160240161332d9190615056565b60408051601f198184030181529190526020810180516001600160e01b0316635b4e956160e01b17905281518290600390811061336c5761336c6148f6565b60200260200101819052506000896001600160a01b031663ac9650d885846040518363ffffffff1660e01b81526004016133a69190615183565b60006040518083038185885af11580156133c4573d6000803e3d6000fd5b50505050506040513d6000823e601f3d908101601f191682016040526133ed91908101906151fd565b600b5481519192506001600160a01b031690632c99327a9083906003908110613418576134186148f6565b6020026020010151613429906152e9565b60006040518363ffffffff1660e01b815260040161344892919061531d565b600060405180830381600087803b15801561346257600080fd5b505af1158015613476573d6000803e3d6000fd5b50505050505050505050505050505050505050565b6000601061349888611078565b815481106134a8576134a86148f6565b600091825260208083206040805160a0810182526004948502909201805460ff8116845261010090046001600160a01b0390811694840194909452600181015484168383015260028101548416606080850191909152600390910154841660808401819052855492516370a0823160e01b815230968101969096529296509216939192839291906370a0823190602401602060405180830381865afa158015613555573d6000803e3d6000fd5b505050506040513d601f19601f820116820180604052508101906135799190614929565b905089811015801561358b575060008a115b6135e65760405162461bcd60e51b815260206004820152602660248201527f474d583a20496e73756666696369656e74206d61726b657420746f6b656e2062604482015265616c616e636560d01b60648201526084016110ff565b60408051610160810182526001600160a01b038089168252600b5481166020830152600a54811692820192909252608080880180518416606084015290820186905260a0820185905260c082018b905260e082018a9052600e5460ff161515610100830152600d54610120830152600c546101408301526005549051919261367292811691168d613d54565b60408051600380825260808201909252600091816020015b606081526020019060019003908161368a57905050600754600d546040516001600160a01b039092166024830152604482015290915060640160408051601f198184030181529190526020810180516001600160e01b0316637d39aaf160e01b17905281518290600090613700576137006148f6565b6020908102919091010152608087015160075460405161372f92916001600160a01b0316908f90602401614fed565b60408051601f198184030181529190526020810180516001600160e01b0316631cdacd5960e31b17905281518290600190811061376e5761376e6148f6565b60200260200101819052508160405160240161378a919061533a565b60408051601f198184030181529190526020810180516001600160e01b031663ad23c5a160e01b1790528151829060029081106137c9576137c96148f6565b6020908102919091010152600d54604051631592ca1b60e31b81526000916001600160a01b0389169163ac9650d89190613807908690600401615183565b60006040518083038185885af1158015613825573d6000803e3d6000fd5b50505050506040513d6000823e601f3d908101601f1916820160405261384e91908101906151fd565b600b5481519192506001600160a01b031690632c99327a9083906002908110613879576138796148f6565b602002602001015161388a906152e9565b60016040518363ffffffff1660e01b81526004016138a992919061531d565b600060405180830381600087803b1580156138c357600080fd5b505af11580156138d7573d6000803e3d6000fd5b5050600b5483516001600160a01b03909116925063c9cbe54e915083906002908110613905576139056148f6565b6020026020010151613916906152e9565b6040516001600160e01b031960e084901b1681526004810191909152602481018f90526001600160a01b038c166044820152606401600060405180830381600087803b15801561396557600080fd5b505af1158015613979573d6000803e3d6000fd5b505050505050505050505050505050505050565b6002548151516001600160a01b039081169116146139e05760405162461bcd60e51b815260206004820152601060248201526f24b73b30b634b2103932b1b2b4bb32b960811b60448201526064016110ff565b600b5481516001600160a01b03918216602091820152600c54818401805160a001919091526004548451608090810151925193840151930151931692909190600085604001516007811115613a3757613a37614b20565b1480613a585750600185604001516007811115613a5657613a56614b20565b145b80613a785750600285604001516007811115613a7657613a76614b20565b145b80613a985750600385604001516007811115613a9657613a96614b20565b145b15613b3957600254613ab8906001600160a01b0385811691163085613030565b600554613ad2906001600160a01b03858116911684613d54565b600854604051631cdacd5960e31b81526001600160a01b038087169263e6d66ac892613b0692889216908790600401614fed565b600060405180830381600087803b158015613b2057600080fd5b505af1158015613b34573d6000803e3d6000fd5b505050505b600854604051637d39aaf160e01b81526001600160a01b0391821660048201526024810183905290851690637d39aaf19083906044016000604051808303818588803b158015613b8857600080fd5b505af1158015613b9c573d6000803e3d6000fd5b5050604051634a393a4160e01b8152600093506001600160a01b0388169250634a393a419150613bd090899060040161543f565b6020604051808303816000875af1158015613bef573d6000803e3d6000fd5b505050506040513d601f19601f82011682018060405250810190613c139190614929565b600b5460405163164c993d60e11b81529192506001600160a01b031690632c99327a90613c4790849060029060040161531d565b600060405180830381600087803b158015613c6157600080fd5b505af1158015613c75573d6000803e3d6000fd5b50505050505050505050565b60048054604051630c50112160e21b81529182018390526001600160a01b03169081906331404484906024015b600060405180830381600087803b158015613cc857600080fd5b505af1158015613cdc573d6000803e3d6000fd5b505050505050565b600480546040516303909e2d60e51b81529182018390526001600160a01b0316908190637213c5a090602401613cae565b60048054604051637489ec2360e01b81529182018390526001600160a01b0316908190637489ec2390602401613cae565b60606109c983836000613dde565b604051636eb1769f60e11b81523060048201526001600160a01b0383811660248301526000919085169063dd62ed3e90604401602060405180830381865afa158015613da4573d6000803e3d6000fd5b505050506040513d601f19601f82011682018060405250810190613dc89190614929565b90506130588484613dd98585614942565b613e7b565b606081471015613e035760405163cd78605960e01b81523060048201526024016110ff565b600080856001600160a01b03168486604051613e1f919061555c565b60006040518083038185875af1925050503d8060008114613e5c576040519150601f19603f3d011682016040523d82523d6000602084013e613e61565b606091505b5091509150613e71868383613f0b565b9695505050505050565b604080516001600160a01b038416602482015260448082018490528251808303909101815260649091019091526020810180516001600160e01b031663095ea7b360e01b179052613ecc8482613f67565b613058576040516001600160a01b03848116602483015260006044830152613f0191869182169063095ea7b390606401612954565b6130588482612fcd565b606082613f2057613f1b8261400f565b6109c9565b8151158015613f3757506001600160a01b0384163b155b15613f6057604051639996b31560e01b81526001600160a01b03851660048201526024016110ff565b50806109c9565b6000806000846001600160a01b031684604051613f84919061555c565b6000604051808303816000865af19150503d8060008114613fc1576040519150601f19603f3d011682016040523d82523d6000602084013e613fc6565b606091505b5091509150818015613ff0575080511580613ff0575080806020019051810190613ff09190614fd0565b801561400657506000856001600160a01b03163b115b95945050505050565b80511561401f5780518082602001fd5b604051630a12f52160e11b815260040160405180910390fd5b82805482825590600052602060002090810192821561408d579160200282015b8281111561408d57825182546001600160a01b0319166001600160a01b03909116178255602090920191600190910190614058565b50610ef19291505b80821115610ef15760008155600101614095565b6001600160a01b0396871681529486166020860152928516604085015290841660608401528316608083015290911660a082015260c00190565b6001600160a01b038116811461241857600080fd5b8035614103816140e3565b919050565b60006020828403121561411a57600080fd5b81356109c9816140e3565b634e487b7160e01b600052604160045260246000fd5b60405161016081016001600160401b038111828210171561415e5761415e614125565b60405290565b60405160e081016001600160401b038111828210171561415e5761415e614125565b604051601f8201601f191681016001600160401b03811182821017156141ae576141ae614125565b604052919050565b60006001600160401b038211156141cf576141cf614125565b5060051b60200190565b600082601f8301126141ea57600080fd5b813560206141ff6141fa836141b6565b614186565b8083825260208201915060208460051b87010193508684111561422157600080fd5b602086015b84811015614246578035614239816140e3565b8352918301918301614226565b509695505050505050565b60006020828403121561426357600080fd5b81356001600160401b0381111561427957600080fd5b614285848285016141d9565b949350505050565b6020808252825182820181905260009190848201906040850190845b818110156142ce5783516001600160a01b0316835292840192918401916001016142a9565b50909695505050505050565b6000806000606084860312156142ef57600080fd5b505081359360208301359350604090920135919050565b60ff8116811461241857600080fd5b60006020828403121561432757600080fd5b81356109c981614306565b6000806040838503121561434557600080fd5b8235614350816140e3565b946020939093013593505050565b6001600160a01b039687168152949095166020850152604084019290925260608301521515608082015260a081019190915260c00190565b600080604083850312156143a957600080fd5b82356143b4816140e3565b915060208301356143c481614306565b809150509250929050565b602080825282518282018190526000919060409081850190868401855b82811015614443578151805160ff168552868101516001600160a01b039081168887015286820151811687870152606080830151821690870152608091820151169085015260a090930192908501906001016143ec565b5091979650505050505050565b815181526020808301519082015260408101611072565b60008060008060008060c0878903121561448057600080fd5b863561448b816140e3565b9550602087013561449b816140e3565b945060408701356144ab816140e3565b935060608701356144bb816140e3565b925060808701356144cb816140e3565b915060a08701356144db816140e3565b809150509295509295509295565b6000602082840312156144fb57600080fd5b5035919050565b801515811461241857600080fd5b803561410381614502565b6000806040838503121561452e57600080fd5b823561453981614306565b915060208301356143c481614502565b60008083601f84011261455b57600080fd5b5081356001600160401b0381111561457257600080fd5b6020830191508360208260051b850101111561458d57600080fd5b9250929050565b600080600080604085870312156145aa57600080fd5b84356001600160401b03808211156145c157600080fd5b6145cd88838901614549565b909650945060208701359150808211156145e657600080fd5b506145f387828801614549565b95989497509550505050565b600080600080600060a0868803121561461757600080fd5b853561462281614306565b94506020860135614632816140e3565b93506040860135614642816140e3565b92506060860135614652816140e3565b91506080860135614662816140e3565b809150509295509295909350565b60008060008060008060c0878903121561468957600080fd5b8635614694816140e3565b955060208701356146a4816140e3565b9450604087013593506060870135925060808701356146c281614502565b8092505060a087013590509295509295509295565b602080825282518282018190526000919060409081850190868401855b82811015614443578151805160ff1685528601518685015292840192908501906001016146f4565b60008060006040848603121561473157600080fd5b83356005811061474057600080fd5b925060208401356001600160401b038082111561475c57600080fd5b818601915086601f83011261477057600080fd5b81358181111561477f57600080fd5b87602082850101111561479157600080fd5b6020830194508093505050509250925092565b634e487b7160e01b600052601160045260246000fd5b81810381811115611072576110726147a4565b600181815b808511156148085781600019048211156147ee576147ee6147a4565b808516156147fb57918102915b93841c93908002906147d2565b509250929050565b60008261481f57506001611072565b8161482c57506000611072565b8160018114614842576002811461484c57614868565b6001915050611072565b60ff84111561485d5761485d6147a4565b50506001821b611072565b5060208310610133831016604e8410600b841016171561488b575081810a611072565b61489583836147cd565b80600019048211156148a9576148a96147a4565b029392505050565b60006109c98383614810565b6000826148da57634e487b7160e01b600052601260045260246000fd5b500490565b8082028115828204841417611072576110726147a4565b634e487b7160e01b600052603260045260246000fd5b60006020828403121561491e57600080fd5b81516109c981614306565b60006020828403121561493b57600080fd5b5051919050565b80820180821115611072576110726147a4565b60208082526029908201527f474d583a20506f6f6c2077697468207468697320706f6f6c496420646f6573206040820152681b9bdd08195e1a5cdd60ba1b606082015260800190565b634e487b7160e01b600052603160045260246000fd5b6000602082840312156149c657600080fd5b81516109c9816140e3565b60006101a08201905060018060a01b03808a1683528089511660208401528060208a01511660408401528060408a01511660608401528060608a015116608084015250614a2b60a083018880518252602090810151910152565b855160e08301526020860151610100830152845161012083015260208501516101408301528361016083015282151561018083015298975050505050505050565b600080828403610180811215614a8157600080fd5b8351925061016080601f1983011215614a9957600080fd5b614aa161413b565b91506020850151825260408501516020830152606085015160408301526080850151606083015260a0850151608083015260c085015160a083015260e085015160c08301526101008086015160e08401526101208087015182850152610140915081870151818501525081860151818401525050809150509250929050565b634e487b7160e01b600052602160045260246000fd5b600060058510614b4857614b48614b20565b84825260406020830152826040830152828460608401376000606084840101526060601f19601f8501168301019050949350505050565b600081614b8e57614b8e6147a4565b506000190190565b60006001600160401b03821115614baf57614baf614125565b50601f01601f191660200190565b600082601f830112614bce57600080fd5b8135614bdc6141fa82614b96565b818152846020838601011115614bf157600080fd5b816020850160208301376000918101602001919091529392505050565b60008060008060808587031215614c2457600080fd5b8435614c2f81614306565b93506020858101356001600160401b0380821115614c4c57600080fd5b614c5889838a016141d9565b95506040880135915080821115614c6e57600080fd5b818801915088601f830112614c8257600080fd5b8135614c906141fa826141b6565b81815260059190911b8301840190848101908b831115614caf57600080fd5b938501935b82851015614ccd57843582529385019390850190614cb4565b965050506060880135925080831115614ce557600080fd5b5050614cf387828801614bbd565b91505092959194509250565b600080600080600060a08688031215614d1757600080fd5b8535614d2281614306565b945060208601359350604086013592506060860135614d40816140e3565b915060808601356001600160401b03811115614d5b57600080fd5b614d6788828901614bbd565b9150509295509295909350565b60008060408385031215614d8757600080fd5b505080516020909101519092909150565b600060c08284031215614daa57600080fd5b60405160c081016001600160401b038282108183111715614dcd57614dcd614125565b8160405282935084359150614de1826140e3565b908252602084013590614df3826140e3565b81602084015260408501359150614e09826140e3565b816040840152614e1b606086016140f8565b6060840152614e2c608086016140f8565b608084015260a0850135915080821115614e4557600080fd5b50614e52858286016141d9565b60a0830152505092915050565b600060e08284031215614e7157600080fd5b614e79614164565b9050813581526020820135602082015260408201356040820152606082013560608201526080820135608082015260a082013560a082015260c082013560c082015292915050565b80356008811061410357600080fd5b80356003811061410357600080fd5b600060208284031215614ef157600080fd5b81356001600160401b0380821115614f0857600080fd5b908301906101a08286031215614f1d57600080fd5b614f25614164565b823582811115614f3457600080fd5b614f4087828601614d98565b825250614f508660208501614e5f565b6020820152614f626101008401614ec1565b6040820152614f746101208401614ed0565b6060820152614f866101408401614510565b6080820152614f986101608401614510565b60a0820152610180929092013560c0830152509392505050565b60008060408385031215614fc557600080fd5b823561435081614306565b600060208284031215614fe257600080fd5b81516109c981614502565b6001600160a01b039384168152919092166020820152604081019190915260600190565b60008151808452602080850194506020840160005b8381101561504b5781516001600160a01b031687529582019590820190600101615026565b509495945050505050565b602081526150706020820183516001600160a01b03169052565b6000602083015161508c60408401826001600160a01b03169052565b5060408301516001600160a01b03811660608401525060608301516001600160a01b03811660808401525060808301516001600160a01b03811660a08401525060a08301516001600160a01b03811660c08401525060c08301516101808060e08501526150fd6101a0850183615011565b915060e0850151610100601f19868503018187015261511c8483615011565b908701516101208781019190915287015190935090506101406151428187018315159052565b860151610160868101919091529095015193019290925250919050565b60005b8381101561517a578181015183820152602001615162565b50506000910152565b6000602080830181845280855180835260408601915060408160051b870101925083870160005b828110156151f057878503603f19018452815180518087526151d1818989018a850161515f565b601f01601f1916959095018601945092850192908501906001016151aa565b5092979650505050505050565b6000602080838503121561521057600080fd5b82516001600160401b038082111561522757600080fd5b818501915085601f83011261523b57600080fd5b81516152496141fa826141b6565b81815260059190911b8301840190848101908883111561526857600080fd5b8585015b838110156152dc578051858111156152845760008081fd5b8601603f81018b136152965760008081fd5b8781015160406152a86141fa83614b96565b8281528d828486010111156152bd5760008081fd5b6152cc838c830184870161515f565b865250505091860191860161526c565b5098975050505050505050565b8051602080830151919081101561264d5760001960209190910360031b1b16919050565b6003811061241857612418614b20565b8281526040810161532d8361530d565b8260208301529392505050565b602081526153546020820183516001600160a01b03169052565b6000602083015161537060408401826001600160a01b03169052565b5060408301516001600160a01b03811660608401525060608301516001600160a01b03811660808401525060808301516101608060a08501526153b7610180850183615011565b915060a0850151601f198584030160c08601526153d48382615011565b92505060c085015160e085015260e08501516101008181870152808701519150506101206154058187018315159052565b860151610140868101919091529095015193019290925250919050565b6008811061543257615432614b20565b9052565b6154328161530d565b602080825282516101a083830181905281516001600160a01b039081166101c08601529282015183166101e08501526040820151831661020085015260608201518316610220850152608082015190921661024084015260a0015160c06102608401526000916154b3610280850183615011565b915060208501516155066040860182805182526020810151602083015260408101516040830152606081015160608301526080810151608083015260a081015160a083015260c081015160c08301525050565b50604085015161551a610120860182615422565b50606085015161552e610140860182615436565b506080850151151561016085015260a0850151151561018085015260c0909401519390920192909252919050565b6000825161556e81846020870161515f565b919091019291505056fea2646970667358221220ca29da9ebcd0d9ca7fec03e5896d02daf38e7d29c22dca58805c17d0a7bfa55f64736f6c63430008180033",
  "devdoc": {
    "errors": {
      "AddressEmptyCode(address)": [
        {
          "details": "There's no code at `target` (it is not a contract)."
        }
      ],
      "AddressInsufficientBalance(address)": [
        {
          "details": "The ETH balance of the account is not enough to perform the operation."
        }
      ],
      "FailedInnerCall()": [
        {
          "details": "A call to an address target failed. The target may have reverted."
        }
      ],
      "OwnableInvalidOwner(address)": [
        {
          "details": "The owner is not a valid owner account. (eg. `address(0)`)"
        }
      ],
      "OwnableUnauthorizedAccount(address)": [
        {
          "details": "The caller account is not authorized to perform an operation."
        }
      ],
      "ReentrancyGuardReentrantCall()": [
        {
          "details": "Unauthorized reentrant call."
        }
      ],
      "SafeERC20FailedOperation(address)": [
        {
          "details": "An operation with an ERC20 token failed."
        }
      ]
    },
    "kind": "dev",
    "methods": {
      "owner()": {
        "details": "Returns the address of the current owner."
      },
      "renounceOwnership()": {
        "details": "Leaves the contract without owner. It will not be possible to call `onlyOwner` functions. Can only be called by the current owner. NOTE: Renouncing ownership will leave the contract without an owner, thereby disabling any functionality that is only available to the owner."
      },
      "transferOwnership(address)": {
        "details": "Transfers ownership of the contract to a new account (`newOwner`). Can only be called by the current owner."
      }
    },
    "version": 1
  },
  "userdoc": {
    "kind": "user",
    "methods": {},
    "version": 1
  },
  "storageLayout": {
    "storage": [
      {
        "astId": 3938,
        "contract": "contracts/vaults/theseus/GmxPlugin.sol:GmxPlugin",
        "label": "_owner",
        "offset": 0,
        "slot": "0",
        "type": "t_address"
      },
      {
        "astId": 5453,
        "contract": "contracts/vaults/theseus/GmxPlugin.sol:GmxPlugin",
        "label": "_status",
        "offset": 0,
        "slot": "1",
        "type": "t_uint256"
      },
      {
        "astId": 12573,
        "contract": "contracts/vaults/theseus/GmxPlugin.sol:GmxPlugin",
        "label": "localVault",
        "offset": 0,
        "slot": "2",
        "type": "t_address"
      },
      {
        "astId": 12575,
        "contract": "contracts/vaults/theseus/GmxPlugin.sol:GmxPlugin",
        "label": "treasury",
        "offset": 0,
        "slot": "3",
        "type": "t_address_payable"
      },
      {
        "astId": 12578,
        "contract": "contracts/vaults/theseus/GmxPlugin.sol:GmxPlugin",
        "label": "routerConfig",
        "offset": 0,
        "slot": "4",
        "type": "t_struct(RouterConfig)12542_storage"
      },
      {
        "astId": 12581,
        "contract": "contracts/vaults/theseus/GmxPlugin.sol:GmxPlugin",
        "label": "gmxParams",
        "offset": 0,
        "slot": "10",
        "type": "t_struct(GmxParams)12566_storage"
      },
      {
        "astId": 12585,
        "contract": "contracts/vaults/theseus/GmxPlugin.sol:GmxPlugin",
        "label": "pools",
        "offset": 0,
        "slot": "16",
        "type": "t_array(t_struct(PoolConfig)12553_storage)dyn_storage"
      },
      {
        "astId": 12589,
        "contract": "contracts/vaults/theseus/GmxPlugin.sol:GmxPlugin",
        "label": "poolExistsMap",
        "offset": 0,
        "slot": "17",
        "type": "t_mapping(t_uint8,t_bool)"
      },
      {
        "astId": 12592,
        "contract": "contracts/vaults/theseus/GmxPlugin.sol:GmxPlugin",
        "label": "uniqueTokens",
        "offset": 0,
        "slot": "18",
        "type": "t_array(t_address)dyn_storage"
      },
      {
        "astId": 12594,
        "contract": "contracts/vaults/theseus/GmxPlugin.sol:GmxPlugin",
        "label": "tokenPriceConsumer",
        "offset": 0,
        "slot": "19",
        "type": "t_address"
      },
      {
        "astId": 12597,
        "contract": "contracts/vaults/theseus/GmxPlugin.sol:GmxPlugin",
        "label": "rewardTokens",
        "offset": 0,
        "slot": "20",
        "type": "t_array(t_address)dyn_storage"
      },
      {
        "astId": 12601,
        "contract": "contracts/vaults/theseus/GmxPlugin.sol:GmxPlugin",
        "label": "tokenDecimalList",
        "offset": 0,
        "slot": "21",
        "type": "t_mapping(t_address,t_uint8)"
      }
    ],
    "types": {
      "t_address": {
        "encoding": "inplace",
        "label": "address",
        "numberOfBytes": "20"
      },
      "t_address_payable": {
        "encoding": "inplace",
        "label": "address payable",
        "numberOfBytes": "20"
      },
      "t_array(t_address)dyn_storage": {
        "base": "t_address",
        "encoding": "dynamic_array",
        "label": "address[]",
        "numberOfBytes": "32"
      },
      "t_array(t_struct(PoolConfig)12553_storage)dyn_storage": {
        "base": "t_struct(PoolConfig)12553_storage",
        "encoding": "dynamic_array",
        "label": "struct GmxPlugin.PoolConfig[]",
        "numberOfBytes": "32"
      },
      "t_bool": {
        "encoding": "inplace",
        "label": "bool",
        "numberOfBytes": "1"
      },
      "t_bytes32": {
        "encoding": "inplace",
        "label": "bytes32",
        "numberOfBytes": "32"
      },
      "t_mapping(t_address,t_uint8)": {
        "encoding": "mapping",
        "key": "t_address",
        "label": "mapping(address => uint8)",
        "numberOfBytes": "32",
        "value": "t_uint8"
      },
      "t_mapping(t_uint8,t_bool)": {
        "encoding": "mapping",
        "key": "t_uint8",
        "label": "mapping(uint8 => bool)",
        "numberOfBytes": "32",
        "value": "t_bool"
      },
      "t_struct(GmxParams)12566_storage": {
        "encoding": "inplace",
        "label": "struct GmxPlugin.GmxParams",
        "members": [
          {
            "astId": 12555,
            "contract": "contracts/vaults/theseus/GmxPlugin.sol:GmxPlugin",
            "label": "uiFeeReceiver",
            "offset": 0,
            "slot": "0",
            "type": "t_address"
          },
          {
            "astId": 12557,
            "contract": "contracts/vaults/theseus/GmxPlugin.sol:GmxPlugin",
            "label": "callbackContract",
            "offset": 0,
            "slot": "1",
            "type": "t_address"
          },
          {
            "astId": 12559,
            "contract": "contracts/vaults/theseus/GmxPlugin.sol:GmxPlugin",
            "label": "callbackGasLimit",
            "offset": 0,
            "slot": "2",
            "type": "t_uint256"
          },
          {
            "astId": 12561,
            "contract": "contracts/vaults/theseus/GmxPlugin.sol:GmxPlugin",
            "label": "executionFee",
            "offset": 0,
            "slot": "3",
            "type": "t_uint256"
          },
          {
            "astId": 12563,
            "contract": "contracts/vaults/theseus/GmxPlugin.sol:GmxPlugin",
            "label": "shouldUnwrapNativeToken",
            "offset": 0,
            "slot": "4",
            "type": "t_bool"
          },
          {
            "astId": 12565,
            "contract": "contracts/vaults/theseus/GmxPlugin.sol:GmxPlugin",
            "label": "pnlFactorType",
            "offset": 0,
            "slot": "5",
            "type": "t_bytes32"
          }
        ],
        "numberOfBytes": "192"
      },
      "t_struct(PoolConfig)12553_storage": {
        "encoding": "inplace",
        "label": "struct GmxPlugin.PoolConfig",
        "members": [
          {
            "astId": 12544,
            "contract": "contracts/vaults/theseus/GmxPlugin.sol:GmxPlugin",
            "label": "poolId",
            "offset": 0,
            "slot": "0",
            "type": "t_uint8"
          },
          {
            "astId": 12546,
            "contract": "contracts/vaults/theseus/GmxPlugin.sol:GmxPlugin",
            "label": "indexToken",
            "offset": 1,
            "slot": "0",
            "type": "t_address"
          },
          {
            "astId": 12548,
            "contract": "contracts/vaults/theseus/GmxPlugin.sol:GmxPlugin",
            "label": "longToken",
            "offset": 0,
            "slot": "1",
            "type": "t_address"
          },
          {
            "astId": 12550,
            "contract": "contracts/vaults/theseus/GmxPlugin.sol:GmxPlugin",
            "label": "shortToken",
            "offset": 0,
            "slot": "2",
            "type": "t_address"
          },
          {
            "astId": 12552,
            "contract": "contracts/vaults/theseus/GmxPlugin.sol:GmxPlugin",
            "label": "marketToken",
            "offset": 0,
            "slot": "3",
            "type": "t_address"
          }
        ],
        "numberOfBytes": "128"
      },
      "t_struct(RouterConfig)12542_storage": {
        "encoding": "inplace",
        "label": "struct GmxPlugin.RouterConfig",
        "members": [
          {
            "astId": 12531,
            "contract": "contracts/vaults/theseus/GmxPlugin.sol:GmxPlugin",
            "label": "exchangeRouter",
            "offset": 0,
            "slot": "0",
            "type": "t_address"
          },
          {
            "astId": 12533,
            "contract": "contracts/vaults/theseus/GmxPlugin.sol:GmxPlugin",
            "label": "router",
            "offset": 0,
            "slot": "1",
            "type": "t_address"
          },
          {
            "astId": 12535,
            "contract": "contracts/vaults/theseus/GmxPlugin.sol:GmxPlugin",
            "label": "depositVault",
            "offset": 0,
            "slot": "2",
            "type": "t_address"
          },
          {
            "astId": 12537,
            "contract": "contracts/vaults/theseus/GmxPlugin.sol:GmxPlugin",
            "label": "withdrawVault",
            "offset": 0,
            "slot": "3",
            "type": "t_address"
          },
          {
            "astId": 12539,
            "contract": "contracts/vaults/theseus/GmxPlugin.sol:GmxPlugin",
            "label": "orderVault",
            "offset": 0,
            "slot": "4",
            "type": "t_address"
          },
          {
            "astId": 12541,
            "contract": "contracts/vaults/theseus/GmxPlugin.sol:GmxPlugin",
            "label": "reader",
            "offset": 0,
            "slot": "5",
            "type": "t_address"
          }
        ],
        "numberOfBytes": "192"
      },
      "t_uint256": {
        "encoding": "inplace",
        "label": "uint256",
        "numberOfBytes": "32"
      },
      "t_uint8": {
        "encoding": "inplace",
        "label": "uint8",
        "numberOfBytes": "1"
      }
    }
  }
}