{
  "address": "0xF0550a0aC17307E99a3c0daed794735A7710568B",
  "abi": [
    {
      "inputs": [
        {
          "internalType": "address",
          "name": "daoTreasury_",
          "type": "address"
        }
      ],
      "stateMutability": "nonpayable",
      "type": "constructor"
    },
    {
      "inputs": [
        {
          "internalType": "address",
          "name": "owner",
          "type": "address"
        }
      ],
      "name": "OwnableInvalidOwner",
      "type": "error"
    },
    {
      "inputs": [
        {
          "internalType": "address",
          "name": "account",
          "type": "address"
        }
      ],
      "name": "OwnableUnauthorizedAccount",
      "type": "error"
    },
    {
      "anonymous": false,
      "inputs": [
        {
          "indexed": true,
          "internalType": "address",
          "name": "userAddress",
          "type": "address"
        },
        {
          "indexed": false,
          "internalType": "uint256",
          "name": "xMozAmount",
          "type": "uint256"
        }
      ],
      "name": "CancelRedeem",
      "type": "event"
    },
    {
      "anonymous": false,
      "inputs": [
        {
          "indexed": true,
          "internalType": "address",
          "name": "from",
          "type": "address"
        },
        {
          "indexed": false,
          "internalType": "address",
          "name": "to",
          "type": "address"
        },
        {
          "indexed": false,
          "internalType": "uint256",
          "name": "amount",
          "type": "uint256"
        }
      ],
      "name": "Convert",
      "type": "event"
    },
    {
      "anonymous": false,
      "inputs": [
        {
          "indexed": true,
          "internalType": "address",
          "name": "userAddress",
          "type": "address"
        },
        {
          "indexed": false,
          "internalType": "uint256",
          "name": "xMozAmount",
          "type": "uint256"
        },
        {
          "indexed": false,
          "internalType": "uint256",
          "name": "mozAmount",
          "type": "uint256"
        }
      ],
      "name": "FinalizeRedeem",
      "type": "event"
    },
    {
      "anonymous": false,
      "inputs": [
        {
          "indexed": true,
          "internalType": "address",
          "name": "previousOwner",
          "type": "address"
        },
        {
          "indexed": true,
          "internalType": "address",
          "name": "newOwner",
          "type": "address"
        }
      ],
      "name": "OwnershipTransferred",
      "type": "event"
    },
    {
      "anonymous": false,
      "inputs": [
        {
          "indexed": true,
          "internalType": "address",
          "name": "userAddress",
          "type": "address"
        },
        {
          "indexed": false,
          "internalType": "uint256",
          "name": "xMozAmount",
          "type": "uint256"
        },
        {
          "indexed": false,
          "internalType": "uint256",
          "name": "mozAmount",
          "type": "uint256"
        },
        {
          "indexed": false,
          "internalType": "uint256",
          "name": "duration",
          "type": "uint256"
        }
      ],
      "name": "Redeem",
      "type": "event"
    },
    {
      "anonymous": false,
      "inputs": [
        {
          "indexed": false,
          "internalType": "uint256",
          "name": "minRedeemRatio",
          "type": "uint256"
        },
        {
          "indexed": false,
          "internalType": "uint256",
          "name": "mediumRedeemRatio",
          "type": "uint256"
        },
        {
          "indexed": false,
          "internalType": "uint256",
          "name": "maxRedeemRatio",
          "type": "uint256"
        },
        {
          "indexed": false,
          "internalType": "uint256",
          "name": "minRedeemDuration",
          "type": "uint256"
        },
        {
          "indexed": false,
          "internalType": "uint256",
          "name": "mediumRedeemDuration",
          "type": "uint256"
        },
        {
          "indexed": false,
          "internalType": "uint256",
          "name": "maxRedeemDuration",
          "type": "uint256"
        }
      ],
      "name": "UpdateRedeemSettings",
      "type": "event"
    },
    {
      "inputs": [],
      "name": "MAX_FIXED_RATIO",
      "outputs": [
        {
          "internalType": "uint256",
          "name": "",
          "type": "uint256"
        }
      ],
      "stateMutability": "view",
      "type": "function"
    },
    {
      "inputs": [
        {
          "internalType": "uint256",
          "name": "redeemIndex",
          "type": "uint256"
        }
      ],
      "name": "cancelRedeem",
      "outputs": [],
      "stateMutability": "nonpayable",
      "type": "function"
    },
    {
      "inputs": [
        {
          "internalType": "uint256",
          "name": "amount",
          "type": "uint256"
        }
      ],
      "name": "convert",
      "outputs": [],
      "stateMutability": "nonpayable",
      "type": "function"
    },
    {
      "inputs": [],
      "name": "daoTreasury",
      "outputs": [
        {
          "internalType": "address",
          "name": "",
          "type": "address"
        }
      ],
      "stateMutability": "view",
      "type": "function"
    },
    {
      "inputs": [
        {
          "internalType": "uint256",
          "name": "redeemIndex",
          "type": "uint256"
        }
      ],
      "name": "finalizeRedeem",
      "outputs": [],
      "stateMutability": "nonpayable",
      "type": "function"
    },
    {
      "inputs": [
        {
          "internalType": "uint256",
          "name": "amount",
          "type": "uint256"
        },
        {
          "internalType": "uint256",
          "name": "duration",
          "type": "uint256"
        }
      ],
      "name": "getMozByVestingDuration",
      "outputs": [
        {
          "internalType": "uint256",
          "name": "",
          "type": "uint256"
        }
      ],
      "stateMutability": "view",
      "type": "function"
    },
    {
      "inputs": [
        {
          "internalType": "address",
          "name": "userAddress",
          "type": "address"
        }
      ],
      "name": "getRedeemingXMozBalance",
      "outputs": [
        {
          "internalType": "uint256",
          "name": "redeemingAmount",
          "type": "uint256"
        }
      ],
      "stateMutability": "view",
      "type": "function"
    },
    {
      "inputs": [
        {
          "internalType": "address",
          "name": "userAddress",
          "type": "address"
        },
        {
          "internalType": "uint256",
          "name": "redeemIndex",
          "type": "uint256"
        }
      ],
      "name": "getUserRedeem",
      "outputs": [
        {
          "internalType": "uint256",
          "name": "mozAmount",
          "type": "uint256"
        },
        {
          "internalType": "uint256",
          "name": "xMozAmount",
          "type": "uint256"
        },
        {
          "internalType": "uint256",
          "name": "endTime",
          "type": "uint256"
        }
      ],
      "stateMutability": "view",
      "type": "function"
    },
    {
      "inputs": [
        {
          "internalType": "address",
          "name": "userAddress",
          "type": "address"
        }
      ],
      "name": "getUserRedeemsLength",
      "outputs": [
        {
          "internalType": "uint256",
          "name": "",
          "type": "uint256"
        }
      ],
      "stateMutability": "view",
      "type": "function"
    },
    {
      "inputs": [
        {
          "internalType": "address",
          "name": "mozaicToken_",
          "type": "address"
        },
        {
          "internalType": "address",
          "name": "xMoztoken_",
          "type": "address"
        }
      ],
      "name": "initialize",
      "outputs": [],
      "stateMutability": "nonpayable",
      "type": "function"
    },
    {
      "inputs": [],
      "name": "maxRedeemDuration",
      "outputs": [
        {
          "internalType": "uint256",
          "name": "",
          "type": "uint256"
        }
      ],
      "stateMutability": "view",
      "type": "function"
    },
    {
      "inputs": [],
      "name": "maxRedeemRatio",
      "outputs": [
        {
          "internalType": "uint256",
          "name": "",
          "type": "uint256"
        }
      ],
      "stateMutability": "view",
      "type": "function"
    },
    {
      "inputs": [],
      "name": "mediumRedeemDuration",
      "outputs": [
        {
          "internalType": "uint256",
          "name": "",
          "type": "uint256"
        }
      ],
      "stateMutability": "view",
      "type": "function"
    },
    {
      "inputs": [],
      "name": "mediumRedeemRatio",
      "outputs": [
        {
          "internalType": "uint256",
          "name": "",
          "type": "uint256"
        }
      ],
      "stateMutability": "view",
      "type": "function"
    },
    {
      "inputs": [],
      "name": "minRedeemDuration",
      "outputs": [
        {
          "internalType": "uint256",
          "name": "",
          "type": "uint256"
        }
      ],
      "stateMutability": "view",
      "type": "function"
    },
    {
      "inputs": [],
      "name": "minRedeemRatio",
      "outputs": [
        {
          "internalType": "uint256",
          "name": "",
          "type": "uint256"
        }
      ],
      "stateMutability": "view",
      "type": "function"
    },
    {
      "inputs": [],
      "name": "mozaicToken",
      "outputs": [
        {
          "internalType": "contract IMozToken",
          "name": "",
          "type": "address"
        }
      ],
      "stateMutability": "view",
      "type": "function"
    },
    {
      "inputs": [],
      "name": "owner",
      "outputs": [
        {
          "internalType": "address",
          "name": "",
          "type": "address"
        }
      ],
      "stateMutability": "view",
      "type": "function"
    },
    {
      "inputs": [
        {
          "internalType": "uint256",
          "name": "xMozAmount",
          "type": "uint256"
        },
        {
          "internalType": "uint256",
          "name": "duration",
          "type": "uint256"
        }
      ],
      "name": "redeem",
      "outputs": [],
      "stateMutability": "nonpayable",
      "type": "function"
    },
    {
      "inputs": [],
      "name": "renounceOwnership",
      "outputs": [],
      "stateMutability": "nonpayable",
      "type": "function"
    },
    {
      "inputs": [
        {
          "internalType": "address",
          "name": "newOwner",
          "type": "address"
        }
      ],
      "name": "transferOwnership",
      "outputs": [],
      "stateMutability": "nonpayable",
      "type": "function"
    },
    {
      "inputs": [
        {
          "internalType": "uint256",
          "name": "minRedeemRatio_",
          "type": "uint256"
        },
        {
          "internalType": "uint256",
          "name": "mediumRedeemRatio_",
          "type": "uint256"
        },
        {
          "internalType": "uint256",
          "name": "maxRedeemRatio_",
          "type": "uint256"
        },
        {
          "internalType": "uint256",
          "name": "minRedeemDuration_",
          "type": "uint256"
        },
        {
          "internalType": "uint256",
          "name": "mediumRedeemDuration_",
          "type": "uint256"
        },
        {
          "internalType": "uint256",
          "name": "maxRedeemDuration_",
          "type": "uint256"
        }
      ],
      "name": "updateRedeemSettings",
      "outputs": [],
      "stateMutability": "nonpayable",
      "type": "function"
    },
    {
      "inputs": [
        {
          "internalType": "address",
          "name": "",
          "type": "address"
        },
        {
          "internalType": "uint256",
          "name": "",
          "type": "uint256"
        }
      ],
      "name": "userRedeems",
      "outputs": [
        {
          "internalType": "uint256",
          "name": "mozAmount",
          "type": "uint256"
        },
        {
          "internalType": "uint256",
          "name": "xMozAmount",
          "type": "uint256"
        },
        {
          "internalType": "uint256",
          "name": "endTime",
          "type": "uint256"
        }
      ],
      "stateMutability": "view",
      "type": "function"
    },
    {
      "inputs": [
        {
          "internalType": "address",
          "name": "",
          "type": "address"
        }
      ],
      "name": "xMozRedeemingBalances",
      "outputs": [
        {
          "internalType": "uint256",
          "name": "",
          "type": "uint256"
        }
      ],
      "stateMutability": "view",
      "type": "function"
    },
    {
      "inputs": [],
      "name": "xMozToken",
      "outputs": [
        {
          "internalType": "contract IXMozToken",
          "name": "",
          "type": "address"
        }
      ],
      "stateMutability": "view",
      "type": "function"
    }
  ],
  "transactionHash": "0xe7a46bdda127745ff81691792361751cd6a6579881cac1fa89d449787873b64a",
  "args": [
    "0x7E9BA79614FeC2C52e85842502df66A6dB107fde"
  ],
  "numDeployments": 1,
  "solcInputHash": "65cfd0c0b4d5f7bdb3aa76776507f32b",
  "bytecode": "0x60806040526032600455604b60055560646006556213c68060075562278d00600855623b538060095534801561003457600080fd5b5060405161144e38038061144e8339810160408190526100539161013e565b338061007a57604051631e4fbdf760e01b8152600060048201526024015b60405180910390fd5b610083816100ee565b506001600160a01b0381166100c95760405162461bcd60e51b815260206004820152600c60248201526b24b73b30b634b21030b2323960a11b6044820152606401610071565b600380546001600160a01b0319166001600160a01b039290921691909117905561016e565b600080546001600160a01b038381166001600160a01b0319831681178455604051919092169283917f8be0079c531659141344cd1fd0a4f28419497f9722a3daafe3b4186f6b6457e09190a35050565b60006020828403121561015057600080fd5b81516001600160a01b038116811461016757600080fd5b9392505050565b6112d18061017d6000396000f3fe608060405234801561001057600080fd5b50600436106101735760003560e01c80638da5cb5b116100de578063c4b1076611610097578063e07c9e1711610071578063e07c9e1714610348578063e3a2950b1461035b578063e9ed87f814610364578063f2fde38b1461036d57600080fd5b8063c4b1076614610323578063cc6c54231461032c578063ccda6af71461033f57600080fd5b80638da5cb5b1461029a5780639226d836146102ab578063a3908e1b146102b4578063a59c1606146102c7578063aff6cbf1146102e7578063b90c2b52146102fa57600080fd5b8063619ac95b11610130578063619ac95b1461023e57806370d74c9514610246578063715018a61461025957806379022a9f146102615780637cbc23731461027457806386a146ac1461028757600080fd5b806315e3473d146101785780631c352679146101b4578063390f7eee146101bd578063485cc955146101e85780634f62b7ec146101fd578063539ffb771461022b575b600080fd5b6101a161018636600461106a565b6001600160a01b03166000908152600a602052604090205490565b6040519081526020015b60405180910390f35b6101a160045481565b6001546101d0906001600160a01b031681565b6040516001600160a01b0390911681526020016101ab565b6101fb6101f636600461108c565b610380565b005b61021061020b3660046110bf565b610478565b604080519384526020840192909252908201526060016101ab565b6101fb6102393660046110e9565b6104ba565b6101a1606481565b6002546101d0906001600160a01b031681565b6101fb610601565b6003546101d0906001600160a01b031681565b6101fb610282366004611102565b610615565b6101a1610295366004611102565b61080f565b6000546001600160a01b03166101d0565b6101a160085481565b6101fb6102c23660046110e9565b61091e565b6101a16102d536600461106a565b600a6020526000908152604090205481565b6101fb6102f53660046110e9565b61092b565b6101a161030836600461106a565b6001600160a01b03166000908152600b602052604090205490565b6101a160075481565b61021061033a3660046110bf565b610a4c565b6101a160055481565b6101fb610356366004611124565b610ae4565b6101a160065481565b6101a160095481565b6101fb61037b36600461106a565b610c23565b610388610c5e565b6001600160a01b0382161515806103a757506001600160a01b03811615155b6103e75760405162461bcd60e51b815260206004820152600c60248201526b24b73b30b634b21030b2323960a11b60448201526064015b60405180910390fd5b600354600160a01b900460ff16156104375760405162461bcd60e51b8152602060048201526013602482015272105b1c9958591e481a5b9a5d1a585b1a5e9959606a1b60448201526064016103de565b600180546001600160a01b039384166001600160a01b031991821617909155600280549290931691161790556003805460ff60a01b1916600160a01b179055565b600b602052816000526040600020818154811061049457600080fd5b600091825260209091206003909102018054600182015460029092015490935090915083565b336000818152600b6020526040902054829081106104ea5760405162461bcd60e51b81526004016103de90611167565b336000908152600a6020908152604080832054600b9092528220805491929186908110610519576105196111b2565b9060005260206000209060030201905080600101548261053991906111de565b336000818152600a60205260409081902092909255600254600184015492516394bf804d60e01b8152600481019390935260248301919091526001600160a01b0316906394bf804d90604401600060405180830381600087803b15801561059f57600080fd5b505af11580156105b3573d6000803e3d6000fd5b50505050600181015460405190815233907f56d7520e387607a8daa892e3fed116badc2a636307bdc794b1c1aed97ae203f49060200160405180910390a26105fa85610c8b565b5050505050565b610609610c5e565b6106136000610d6c565b565b6000821161066f5760405162461bcd60e51b815260206004820152602160248201527f72656465656d3a20784d6f7a416d6f756e742063616e6e6f74206265207a65726044820152606f60f81b60648201526084016103de565b6007548110156106c15760405162461bcd60e51b815260206004820152601860248201527f72656465656d3a20496e76616c6964206475726174696f6e000000000000000060448201526064016103de565b60006106cd838361080f565b600254604051633f34d4cf60e21b8152600481018690523360248201529192506001600160a01b03169063fcd3533c90604401600060405180830381600087803b15801561071a57600080fd5b505af115801561072e573d6000803e3d6000fd5b5050336000908152600a6020526040902054915050811561080957604080518581526020810184905290810184905233907fbd5034ffbd47e4e72a94baa2cdb74c6fad73cb3bcdc13036b72ec8306f5a76469060600160405180910390a261079684826111f1565b336000908152600a6020908152604080832093909355600b81529082902082516060810184528581529182018790529181016107d286426111f1565b9052815460018181018455600093845260209384902083516003909302019182559282015192810192909255604001516002909101555b50505050565b600080600754831015610826576000915050610918565b6007548310158015610839575060085483105b156108935760075460085461084e91906111de565b60075461085b90856111de565b60045460055461086b91906111de565b6108759190611204565b61087f919061121b565b60045461088c91906111f1565b90506108fe565b60085483101580156108a6575060095483105b156108f9576008546009546108bb91906111de565b6008546108c890856111de565b6005546006546108d891906111de565b6108e29190611204565b6108ec919061121b565b60055461088c91906111f1565b506006545b606461090a8286611204565b610914919061121b565b9150505b92915050565b6109288133610dbc565b50565b336000818152600b60205260409020548290811061095b5760405162461bcd60e51b81526004016103de90611167565b336000908152600a6020908152604080832054600b909252822080549192918690811061098a5761098a6111b2565b9060005260206000209060030201905080600201546109a64290565b1015610a0f5760405162461bcd60e51b815260206004820152603260248201527f66696e616c697a6552656465656d3a2076657374696e67206475726174696f6e604482015271081a185cc81b9bdd08195b991959081e595d60721b60648201526084016103de565b6001810154610a1e90836111de565b336000818152600a602052604090209190915560018201548254610a43929190610f1e565b6105fa85610c8b565b6001600160a01b0382166000908152600b602052604081205481908190859085908110610a8b5760405162461bcd60e51b81526004016103de90611167565b6001600160a01b0387166000908152600b60205260408120805488908110610ab557610ab56111b2565b906000526020600020906003020190508060000154816001015482600201549550955095505050509250925092565b610aec610c5e565b848611158015610afc5750838511155b610b185760405162461bcd60e51b81526004016103de9061123d565b8183108015610b2657508082105b610b865760405162461bcd60e51b815260206004820152602b60248201527f75706461746552656465656d53657474696e67733a2077726f6e67206475726160448201526a74696f6e2076616c75657360a81b60648201526084016103de565b6064841115610ba75760405162461bcd60e51b81526004016103de9061123d565b6004869055600585905560068490556007839055600882905560098190556040805187815260208101879052908101859052606081018490526080810183905260a081018290527f3e4d06270c5626e5435a80d53329136371e0df74a6762eb79aa22d800d2cc6c29060c00160405180910390a1505050505050565b610c2b610c5e565b6001600160a01b038116610c5557604051631e4fbdf760e01b8152600060048201526024016103de565b61092881610d6c565b6000546001600160a01b031633146106135760405163118cdaa760e01b81523360048201526024016103de565b336000908152600b602052604090208054610ca8906001906111de565b81548110610cb857610cb86111b2565b9060005260206000209060030201600b6000336001600160a01b03166001600160a01b031681526020019081526020016000208281548110610cfc57610cfc6111b2565b600091825260208083208454600390930201918255600180850154908301556002938401549390910192909255338152600b90915260409020805480610d4457610d44611285565b6000828152602081206003600019909301928302018181556001810182905560020155905550565b600080546001600160a01b038381166001600160a01b0319831681178455604051919092169283917f8be0079c531659141344cd1fd0a4f28419497f9722a3daafe3b4186f6b6457e09190a35050565b81600003610e0c5760405162461bcd60e51b815260206004820152601e60248201527f636f6e766572743a20616d6f756e742063616e6e6f74206265206e756c6c000060448201526064016103de565b600154604051633f34d4cf60e21b8152600481018490523360248201526001600160a01b039091169063fcd3533c90604401600060405180830381600087803b158015610e5857600080fd5b505af1158015610e6c573d6000803e3d6000fd5b50506002546040516394bf804d60e01b8152600481018690526001600160a01b03858116602483015290911692506394bf804d9150604401600060405180830381600087803b158015610ebe57600080fd5b505af1158015610ed2573d6000803e3d6000fd5b5050604080516001600160a01b0385168152602081018690523393507fccfaeb3043a96a967dc036ab72e078a9632af809671bc2a1ac30a8043645f89e92500160405180910390a25050565b6000610f2a82846111de565b6001546040516394bf804d60e01b8152600481018590526001600160a01b0387811660248301529293509116906394bf804d90604401600060405180830381600087803b158015610f7a57600080fd5b505af1158015610f8e573d6000803e3d6000fd5b505050506000811115611004576001546003546040516394bf804d60e01b8152600481018490526001600160a01b0391821660248201529116906394bf804d90604401600060405180830381600087803b158015610feb57600080fd5b505af1158015610fff573d6000803e3d6000fd5b505050505b60408051848152602081018490526001600160a01b038616917f0da072ebd7a5649099f43a3776eb0cda17aca79426ee9f28aae203f5dfa04eda910160405180910390a250505050565b80356001600160a01b038116811461106557600080fd5b919050565b60006020828403121561107c57600080fd5b6110858261104e565b9392505050565b6000806040838503121561109f57600080fd5b6110a88361104e565b91506110b66020840161104e565b90509250929050565b600080604083850312156110d257600080fd5b6110db8361104e565b946020939093013593505050565b6000602082840312156110fb57600080fd5b5035919050565b6000806040838503121561111557600080fd5b50508035926020909101359150565b60008060008060008060c0878903121561113d57600080fd5b505084359660208601359650604086013595606081013595506080810135945060a0013592509050565b6020808252602b908201527f76616c696461746552656465656d3a2072656465656d20656e74727920646f6560408201526a1cc81b9bdd08195e1a5cdd60aa1b606082015260800190565b634e487b7160e01b600052603260045260246000fd5b634e487b7160e01b600052601160045260246000fd5b81810381811115610918576109186111c8565b80820180821115610918576109186111c8565b8082028115828204841417610918576109186111c8565b60008261123857634e487b7160e01b600052601260045260246000fd5b500490565b60208082526028908201527f75706461746552656465656d53657474696e67733a2077726f6e6720726174696040820152676f2076616c75657360c01b606082015260800190565b634e487b7160e01b600052603160045260246000fdfea2646970667358221220944a1f71bccc4c9210fab0dffafc91b1a14da593594d6604e2ad535092e871b564736f6c63430008180033",
  "devdoc": {
    "errors": {
      "OwnableInvalidOwner(address)": [
        {
          "details": "The owner is not a valid owner account. (eg. `address(0)`)"
        }
      ],
      "OwnableUnauthorizedAccount(address)": [
        {
          "details": "The caller account is not authorized to perform an operation."
        }
      ]
    },
    "kind": "dev",
    "methods": {
      "cancelRedeem(uint256)": {
        "details": "Cancels an ongoing redeem entry Can only be called by its owner"
      },
      "constructor": {
        "custom:security-contact": "mailto:security@mozaic.finance"
      },
      "convert(uint256)": {
        "details": "Convert caller's \"amount\" of MOZ to xMOZ"
      },
      "finalizeRedeem(uint256)": {
        "details": "Finalizes redeem process when vesting duration has been reached Can only be called by the redeem entry owner"
      },
      "getMozByVestingDuration(uint256,uint256)": {
        "details": "returns redeemable MOZ for \"amount\" of xMOZ vested for \"duration\" seconds"
      },
      "getRedeemingXMozBalance(address)": {
        "details": "Returns user's xMOZ balances"
      },
      "getUserRedeem(address,uint256)": {
        "details": "returns \"userAddress\" info for a pending redeem identified by \"redeemIndex\""
      },
      "getUserRedeemsLength(address)": {
        "details": "returns quantity of \"userAddress\" pending redeems"
      },
      "initialize(address,address)": {
        "details": "Initialize contract parameters"
      },
      "owner()": {
        "details": "Returns the address of the current owner."
      },
      "redeem(uint256,uint256)": {
        "details": "Initiates redeem process (xMOZ to MOZ)"
      },
      "renounceOwnership()": {
        "details": "Leaves the contract without owner. It will not be possible to call `onlyOwner` functions. Can only be called by the current owner. NOTE: Renouncing ownership will leave the contract without an owner, thereby disabling any functionality that is only available to the owner."
      },
      "transferOwnership(address)": {
        "details": "Transfers ownership of the contract to a new account (`newOwner`). Can only be called by the current owner."
      },
      "updateRedeemSettings(uint256,uint256,uint256,uint256,uint256,uint256)": {
        "details": "Updates all redeem ratios and durations Must only be called by owner"
      }
    },
    "version": 1
  },
  "userdoc": {
    "kind": "user",
    "methods": {},
    "version": 1
  },
  "storageLayout": {
    "storage": [
      {
        "astId": 3938,
        "contract": "contracts/tokens/MozStaking.sol:MozStaking",
        "label": "_owner",
        "offset": 0,
        "slot": "0",
        "type": "t_address"
      },
      {
        "astId": 6158,
        "contract": "contracts/tokens/MozStaking.sol:MozStaking",
        "label": "mozaicToken",
        "offset": 0,
        "slot": "1",
        "type": "t_contract(IMozToken)6088"
      },
      {
        "astId": 6161,
        "contract": "contracts/tokens/MozStaking.sol:MozStaking",
        "label": "xMozToken",
        "offset": 0,
        "slot": "2",
        "type": "t_contract(IXMozToken)6123"
      },
      {
        "astId": 6163,
        "contract": "contracts/tokens/MozStaking.sol:MozStaking",
        "label": "daoTreasury",
        "offset": 0,
        "slot": "3",
        "type": "t_address"
      },
      {
        "astId": 6165,
        "contract": "contracts/tokens/MozStaking.sol:MozStaking",
        "label": "flag",
        "offset": 20,
        "slot": "3",
        "type": "t_bool"
      },
      {
        "astId": 6171,
        "contract": "contracts/tokens/MozStaking.sol:MozStaking",
        "label": "minRedeemRatio",
        "offset": 0,
        "slot": "4",
        "type": "t_uint256"
      },
      {
        "astId": 6174,
        "contract": "contracts/tokens/MozStaking.sol:MozStaking",
        "label": "mediumRedeemRatio",
        "offset": 0,
        "slot": "5",
        "type": "t_uint256"
      },
      {
        "astId": 6177,
        "contract": "contracts/tokens/MozStaking.sol:MozStaking",
        "label": "maxRedeemRatio",
        "offset": 0,
        "slot": "6",
        "type": "t_uint256"
      },
      {
        "astId": 6180,
        "contract": "contracts/tokens/MozStaking.sol:MozStaking",
        "label": "minRedeemDuration",
        "offset": 0,
        "slot": "7",
        "type": "t_uint256"
      },
      {
        "astId": 6183,
        "contract": "contracts/tokens/MozStaking.sol:MozStaking",
        "label": "mediumRedeemDuration",
        "offset": 0,
        "slot": "8",
        "type": "t_uint256"
      },
      {
        "astId": 6186,
        "contract": "contracts/tokens/MozStaking.sol:MozStaking",
        "label": "maxRedeemDuration",
        "offset": 0,
        "slot": "9",
        "type": "t_uint256"
      },
      {
        "astId": 6190,
        "contract": "contracts/tokens/MozStaking.sol:MozStaking",
        "label": "xMozRedeemingBalances",
        "offset": 0,
        "slot": "10",
        "type": "t_mapping(t_address,t_uint256)"
      },
      {
        "astId": 6196,
        "contract": "contracts/tokens/MozStaking.sol:MozStaking",
        "label": "userRedeems",
        "offset": 0,
        "slot": "11",
        "type": "t_mapping(t_address,t_array(t_struct(RedeemInfo)6155_storage)dyn_storage)"
      }
    ],
    "types": {
      "t_address": {
        "encoding": "inplace",
        "label": "address",
        "numberOfBytes": "20"
      },
      "t_array(t_struct(RedeemInfo)6155_storage)dyn_storage": {
        "base": "t_struct(RedeemInfo)6155_storage",
        "encoding": "dynamic_array",
        "label": "struct MozStaking.RedeemInfo[]",
        "numberOfBytes": "32"
      },
      "t_bool": {
        "encoding": "inplace",
        "label": "bool",
        "numberOfBytes": "1"
      },
      "t_contract(IMozToken)6088": {
        "encoding": "inplace",
        "label": "contract IMozToken",
        "numberOfBytes": "20"
      },
      "t_contract(IXMozToken)6123": {
        "encoding": "inplace",
        "label": "contract IXMozToken",
        "numberOfBytes": "20"
      },
      "t_mapping(t_address,t_array(t_struct(RedeemInfo)6155_storage)dyn_storage)": {
        "encoding": "mapping",
        "key": "t_address",
        "label": "mapping(address => struct MozStaking.RedeemInfo[])",
        "numberOfBytes": "32",
        "value": "t_array(t_struct(RedeemInfo)6155_storage)dyn_storage"
      },
      "t_mapping(t_address,t_uint256)": {
        "encoding": "mapping",
        "key": "t_address",
        "label": "mapping(address => uint256)",
        "numberOfBytes": "32",
        "value": "t_uint256"
      },
      "t_struct(RedeemInfo)6155_storage": {
        "encoding": "inplace",
        "label": "struct MozStaking.RedeemInfo",
        "members": [
          {
            "astId": 6150,
            "contract": "contracts/tokens/MozStaking.sol:MozStaking",
            "label": "mozAmount",
            "offset": 0,
            "slot": "0",
            "type": "t_uint256"
          },
          {
            "astId": 6152,
            "contract": "contracts/tokens/MozStaking.sol:MozStaking",
            "label": "xMozAmount",
            "offset": 0,
            "slot": "1",
            "type": "t_uint256"
          },
          {
            "astId": 6154,
            "contract": "contracts/tokens/MozStaking.sol:MozStaking",
            "label": "endTime",
            "offset": 0,
            "slot": "2",
            "type": "t_uint256"
          }
        ],
        "numberOfBytes": "96"
      },
      "t_uint256": {
        "encoding": "inplace",
        "label": "uint256",
        "numberOfBytes": "32"
      }
    }
  }
}