{
  "address": "0x96bEfA0845633d36d8078d56432d418145100590",
  "abi": [
    {
      "inputs": [
        {
          "internalType": "address",
          "name": "_mozStaking",
          "type": "address"
        }
      ],
      "stateMutability": "nonpayable",
      "type": "constructor"
    },
    {
      "inputs": [
        {
          "internalType": "address",
          "name": "spender",
          "type": "address"
        },
        {
          "internalType": "uint256",
          "name": "allowance",
          "type": "uint256"
        },
        {
          "internalType": "uint256",
          "name": "needed",
          "type": "uint256"
        }
      ],
      "name": "ERC20InsufficientAllowance",
      "type": "error"
    },
    {
      "inputs": [
        {
          "internalType": "address",
          "name": "sender",
          "type": "address"
        },
        {
          "internalType": "uint256",
          "name": "balance",
          "type": "uint256"
        },
        {
          "internalType": "uint256",
          "name": "needed",
          "type": "uint256"
        }
      ],
      "name": "ERC20InsufficientBalance",
      "type": "error"
    },
    {
      "inputs": [
        {
          "internalType": "address",
          "name": "approver",
          "type": "address"
        }
      ],
      "name": "ERC20InvalidApprover",
      "type": "error"
    },
    {
      "inputs": [
        {
          "internalType": "address",
          "name": "receiver",
          "type": "address"
        }
      ],
      "name": "ERC20InvalidReceiver",
      "type": "error"
    },
    {
      "inputs": [
        {
          "internalType": "address",
          "name": "sender",
          "type": "address"
        }
      ],
      "name": "ERC20InvalidSender",
      "type": "error"
    },
    {
      "inputs": [
        {
          "internalType": "address",
          "name": "spender",
          "type": "address"
        }
      ],
      "name": "ERC20InvalidSpender",
      "type": "error"
    },
    {
      "inputs": [
        {
          "internalType": "address",
          "name": "owner",
          "type": "address"
        }
      ],
      "name": "OwnableInvalidOwner",
      "type": "error"
    },
    {
      "inputs": [
        {
          "internalType": "address",
          "name": "account",
          "type": "address"
        }
      ],
      "name": "OwnableUnauthorizedAccount",
      "type": "error"
    },
    {
      "anonymous": false,
      "inputs": [
        {
          "indexed": true,
          "internalType": "address",
          "name": "owner",
          "type": "address"
        },
        {
          "indexed": true,
          "internalType": "address",
          "name": "spender",
          "type": "address"
        },
        {
          "indexed": false,
          "internalType": "uint256",
          "name": "value",
          "type": "uint256"
        }
      ],
      "name": "Approval",
      "type": "event"
    },
    {
      "anonymous": false,
      "inputs": [
        {
          "indexed": true,
          "internalType": "address",
          "name": "previousOwner",
          "type": "address"
        },
        {
          "indexed": true,
          "internalType": "address",
          "name": "newOwner",
          "type": "address"
        }
      ],
      "name": "OwnershipTransferred",
      "type": "event"
    },
    {
      "anonymous": false,
      "inputs": [
        {
          "indexed": false,
          "internalType": "address",
          "name": "account",
          "type": "address"
        },
        {
          "indexed": false,
          "internalType": "bool",
          "name": "add",
          "type": "bool"
        }
      ],
      "name": "SetTransferWhitelist",
      "type": "event"
    },
    {
      "anonymous": false,
      "inputs": [
        {
          "indexed": true,
          "internalType": "address",
          "name": "from",
          "type": "address"
        },
        {
          "indexed": true,
          "internalType": "address",
          "name": "to",
          "type": "address"
        },
        {
          "indexed": false,
          "internalType": "uint256",
          "name": "value",
          "type": "uint256"
        }
      ],
      "name": "Transfer",
      "type": "event"
    },
    {
      "inputs": [
        {
          "internalType": "address",
          "name": "owner",
          "type": "address"
        },
        {
          "internalType": "address",
          "name": "spender",
          "type": "address"
        }
      ],
      "name": "allowance",
      "outputs": [
        {
          "internalType": "uint256",
          "name": "",
          "type": "uint256"
        }
      ],
      "stateMutability": "view",
      "type": "function"
    },
    {
      "inputs": [
        {
          "internalType": "address",
          "name": "spender",
          "type": "address"
        },
        {
          "internalType": "uint256",
          "name": "value",
          "type": "uint256"
        }
      ],
      "name": "approve",
      "outputs": [
        {
          "internalType": "bool",
          "name": "",
          "type": "bool"
        }
      ],
      "stateMutability": "nonpayable",
      "type": "function"
    },
    {
      "inputs": [
        {
          "internalType": "address",
          "name": "account",
          "type": "address"
        }
      ],
      "name": "balanceOf",
      "outputs": [
        {
          "internalType": "uint256",
          "name": "",
          "type": "uint256"
        }
      ],
      "stateMutability": "view",
      "type": "function"
    },
    {
      "inputs": [
        {
          "internalType": "uint256",
          "name": "_amount",
          "type": "uint256"
        },
        {
          "internalType": "address",
          "name": "_from",
          "type": "address"
        }
      ],
      "name": "burn",
      "outputs": [],
      "stateMutability": "nonpayable",
      "type": "function"
    },
    {
      "inputs": [],
      "name": "decimals",
      "outputs": [
        {
          "internalType": "uint8",
          "name": "",
          "type": "uint8"
        }
      ],
      "stateMutability": "view",
      "type": "function"
    },
    {
      "inputs": [
        {
          "internalType": "address",
          "name": "account",
          "type": "address"
        }
      ],
      "name": "isTransferWhitelisted",
      "outputs": [
        {
          "internalType": "bool",
          "name": "",
          "type": "bool"
        }
      ],
      "stateMutability": "view",
      "type": "function"
    },
    {
      "inputs": [
        {
          "internalType": "uint256",
          "name": "_amount",
          "type": "uint256"
        },
        {
          "internalType": "address",
          "name": "_to",
          "type": "address"
        }
      ],
      "name": "mint",
      "outputs": [],
      "stateMutability": "nonpayable",
      "type": "function"
    },
    {
      "inputs": [],
      "name": "mozStaking",
      "outputs": [
        {
          "internalType": "address",
          "name": "",
          "type": "address"
        }
      ],
      "stateMutability": "view",
      "type": "function"
    },
    {
      "inputs": [],
      "name": "name",
      "outputs": [
        {
          "internalType": "string",
          "name": "",
          "type": "string"
        }
      ],
      "stateMutability": "view",
      "type": "function"
    },
    {
      "inputs": [],
      "name": "owner",
      "outputs": [
        {
          "internalType": "address",
          "name": "",
          "type": "address"
        }
      ],
      "stateMutability": "view",
      "type": "function"
    },
    {
      "inputs": [],
      "name": "renounceOwnership",
      "outputs": [],
      "stateMutability": "nonpayable",
      "type": "function"
    },
    {
      "inputs": [],
      "name": "symbol",
      "outputs": [
        {
          "internalType": "string",
          "name": "",
          "type": "string"
        }
      ],
      "stateMutability": "view",
      "type": "function"
    },
    {
      "inputs": [],
      "name": "totalSupply",
      "outputs": [
        {
          "internalType": "uint256",
          "name": "",
          "type": "uint256"
        }
      ],
      "stateMutability": "view",
      "type": "function"
    },
    {
      "inputs": [
        {
          "internalType": "address",
          "name": "to",
          "type": "address"
        },
        {
          "internalType": "uint256",
          "name": "value",
          "type": "uint256"
        }
      ],
      "name": "transfer",
      "outputs": [
        {
          "internalType": "bool",
          "name": "",
          "type": "bool"
        }
      ],
      "stateMutability": "nonpayable",
      "type": "function"
    },
    {
      "inputs": [
        {
          "internalType": "address",
          "name": "from",
          "type": "address"
        },
        {
          "internalType": "address",
          "name": "to",
          "type": "address"
        },
        {
          "internalType": "uint256",
          "name": "value",
          "type": "uint256"
        }
      ],
      "name": "transferFrom",
      "outputs": [
        {
          "internalType": "bool",
          "name": "",
          "type": "bool"
        }
      ],
      "stateMutability": "nonpayable",
      "type": "function"
    },
    {
      "inputs": [
        {
          "internalType": "address",
          "name": "newOwner",
          "type": "address"
        }
      ],
      "name": "transferOwnership",
      "outputs": [],
      "stateMutability": "nonpayable",
      "type": "function"
    },
    {
      "inputs": [
        {
          "internalType": "uint256",
          "name": "index",
          "type": "uint256"
        }
      ],
      "name": "transferWhitelist",
      "outputs": [
        {
          "internalType": "address",
          "name": "",
          "type": "address"
        }
      ],
      "stateMutability": "view",
      "type": "function"
    },
    {
      "inputs": [],
      "name": "transferWhitelistLength",
      "outputs": [
        {
          "internalType": "uint256",
          "name": "",
          "type": "uint256"
        }
      ],
      "stateMutability": "view",
      "type": "function"
    },
    {
      "inputs": [
        {
          "internalType": "address",
          "name": "account",
          "type": "address"
        },
        {
          "internalType": "bool",
          "name": "add",
          "type": "bool"
        }
      ],
      "name": "updateTransferWhitelist",
      "outputs": [],
      "stateMutability": "nonpayable",
      "type": "function"
    }
  ],
  "transactionHash": "0x85c24460562da365db45866e8ee6281ad91b6135cc5643a12566805812a97b55",
  "args": [
    "0xF0550a0aC17307E99a3c0daed794735A7710568B"
  ],
  "numDeployments": 1,
  "solcInputHash": "65cfd0c0b4d5f7bdb3aa76776507f32b",
  "bytecode": "0x60806040523480156200001157600080fd5b506040516200128638038062001286833981016040819052620000349162000226565b336040518060400160405280601581526020017f4d6f7a61696320657363726f77656420746f6b656e0000000000000000000000815250604051806040016040528060048152602001633c26a7ad60e11b8152508160039081620000999190620002ff565b506004620000a88282620002ff565b5050506001600160a01b038116620000db57604051631e4fbdf760e01b8152600060048201526024015b60405180910390fd5b620000e68162000162565b506001600160a01b0381166200012e5760405162461bcd60e51b815260206004820152600c60248201526b24b73b30b634b21030b2323960a11b6044820152606401620000d2565b6200013b600730620001b4565b50600680546001600160a01b0319166001600160a01b0392909216919091179055620003cb565b600580546001600160a01b038381166001600160a01b0319831681179093556040519116919082907f8be0079c531659141344cd1fd0a4f28419497f9722a3daafe3b4186f6b6457e090600090a35050565b6000620001cb836001600160a01b038416620001d4565b90505b92915050565b60008181526001830160205260408120546200021d57508154600181810184556000848152602080822090930184905584548482528286019093526040902091909155620001ce565b506000620001ce565b6000602082840312156200023957600080fd5b81516001600160a01b03811681146200025157600080fd5b9392505050565b634e487b7160e01b600052604160045260246000fd5b600181811c908216806200028357607f821691505b602082108103620002a457634e487b7160e01b600052602260045260246000fd5b50919050565b601f821115620002fa576000816000526020600020601f850160051c81016020861015620002d55750805b601f850160051c820191505b81811015620002f657828155600101620002e1565b5050505b505050565b81516001600160401b038111156200031b576200031b62000258565b62000333816200032c84546200026e565b84620002aa565b602080601f8311600181146200036b5760008415620003525750858301515b600019600386901b1c1916600185901b178555620002f6565b600085815260208120601f198616915b828110156200039c578886015182559484019460019091019084016200037b565b5085821015620003bb5787850151600019600388901b60f8161c191681555b5050505050600190811b01905550565b610eab80620003db6000396000f3fe608060405234801561001057600080fd5b50600436106101215760003560e01c8063715018a6116100ad578063a9059cbb11610071578063a9059cbb14610257578063dd62ed3e1461026a578063e767ee2f146102a3578063f2fde38b146102b6578063fcd3533c146102c957600080fd5b8063715018a61461020e57806389083654146102185780638da5cb5b1461022b57806394bf804d1461023c57806395d89b411461024f57600080fd5b80631eee7e60116100f45780631eee7e601461018557806323b872dd14610198578063313ce567146101ab5780634b359d38146101ba57806370a08231146101e557600080fd5b806306fdde0314610126578063095ea7b314610144578063161aab431461016757806318160ddd1461017d575b600080fd5b61012e6102dc565b60405161013b9190610c3c565b60405180910390f35b610157610152366004610ca7565b61036e565b604051901515815260200161013b565b61016f610388565b60405190815260200161013b565b60025461016f565b610157610193366004610cd1565b610399565b6101576101a6366004610cec565b6103a6565b6040516012815260200161013b565b6101cd6101c8366004610d28565b6103ca565b6040516001600160a01b03909116815260200161013b565b61016f6101f3366004610cd1565b6001600160a01b031660009081526020819052604090205490565b6102166103d7565b005b610216610226366004610d41565b6103eb565b6005546001600160a01b03166101cd565b61021661024a366004610d7d565b6104e1565b61012e61053a565b610157610265366004610ca7565b610549565b61016f610278366004610da9565b6001600160a01b03918216600090815260016020908152604080832093909416825291909152205490565b6006546101cd906001600160a01b031681565b6102166102c4366004610cd1565b610557565b6102166102d7366004610d7d565b610595565b6060600380546102eb90610dd3565b80601f016020809104026020016040519081016040528092919081815260200182805461031790610dd3565b80156103645780601f1061033957610100808354040283529160200191610364565b820191906000526020600020905b81548152906001019060200180831161034757829003601f168201915b5050505050905090565b60003361037c8185856105ea565b60019150505b92915050565b600061039460076105fc565b905090565b6000610382600783610606565b6000336103b485828561062b565b6103bf8585856106a9565b506001949350505050565b6000610382600783610708565b6103df610714565b6103e96000610741565b565b6103f3610714565b306001600160a01b038316036104765760405162461bcd60e51b815260206004820152603a60248201527f7570646174655472616e7366657257686974656c6973743a2043616e6e6f742060448201527f72656d6f766520784d6f7a2066726f6d2077686974656c69737400000000000060648201526084015b60405180910390fd5b801561048d57610487600783610793565b5061049a565b6104986007836107a8565b505b604080516001600160a01b038416815282151560208201527f3a34209cb941a5d23a56dea730a13738454bc7daefd4bb32e8d7df58c1bd920d910160405180910390a15050565b6006546001600160a01b0316331461052c5760405162461bcd60e51b815260206004820152600e60248201526d24b73b30b634b21031b0b63632b960911b604482015260640161046d565b61053681836107bd565b5050565b6060600480546102eb90610dd3565b60003361037c8185856106a9565b61055f610714565b6001600160a01b03811661058957604051631e4fbdf760e01b81526000600482015260240161046d565b61059281610741565b50565b6006546001600160a01b031633146105e05760405162461bcd60e51b815260206004820152600e60248201526d24b73b30b634b21031b0b63632b960911b604482015260640161046d565b61053681836107f3565b6105f78383836001610829565b505050565b6000610382825490565b6001600160a01b038116600090815260018301602052604081205415155b9392505050565b6001600160a01b0383811660009081526001602090815260408083209386168352929052205460001981146106a3578181101561069457604051637dc7a0d960e11b81526001600160a01b0384166004820152602481018290526044810183905260640161046d565b6106a384848484036000610829565b50505050565b6001600160a01b0383166106d357604051634b637e8f60e11b81526000600482015260240161046d565b6001600160a01b0382166106fd5760405163ec442f0560e01b81526000600482015260240161046d565b6105f78383836108fe565b600061062483836109a6565b6005546001600160a01b031633146103e95760405163118cdaa760e01b815233600482015260240161046d565b600580546001600160a01b038381166001600160a01b0319831681179093556040519116919082907f8be0079c531659141344cd1fd0a4f28419497f9722a3daafe3b4186f6b6457e090600090a35050565b6000610624836001600160a01b0384166109d0565b6000610624836001600160a01b038416610a1f565b6001600160a01b0382166107e75760405163ec442f0560e01b81526000600482015260240161046d565b610536600083836108fe565b6001600160a01b03821661081d57604051634b637e8f60e11b81526000600482015260240161046d565b610536826000836108fe565b6001600160a01b0384166108535760405163e602df0560e01b81526000600482015260240161046d565b6001600160a01b03831661087d57604051634a1406b160e11b81526000600482015260240161046d565b6001600160a01b03808516600090815260016020908152604080832093871683529290522082905580156106a357826001600160a01b0316846001600160a01b03167f8c5be1e5ebec7d5bd14f71427d1e84f3dd0314c0f7b2291e5b200ac8c7c3b925846040516108f091815260200190565b60405180910390a350505050565b6001600160a01b038316158061093057506001600160a01b03821615801561093057506006546001600160a01b031633145b8061094857506005546001600160a01b038481169116145b80610957575061095783610399565b61099b5760405162461bcd60e51b81526020600482015260156024820152741d1c985b9cd9995c8e881b9bdd08185b1b1bddd959605a1b604482015260640161046d565b6105f7838383610b12565b60008260000182815481106109bd576109bd610e0d565b9060005260206000200154905092915050565b6000818152600183016020526040812054610a1757508154600181810184556000848152602080822090930184905584548482528286019093526040902091909155610382565b506000610382565b60008181526001830160205260408120548015610b08576000610a43600183610e39565b8554909150600090610a5790600190610e39565b9050808214610abc576000866000018281548110610a7757610a77610e0d565b9060005260206000200154905080876000018481548110610a9a57610a9a610e0d565b6000918252602080832090910192909255918252600188019052604090208390555b8554869080610acd57610acd610e4c565b600190038181906000526020600020016000905590558560010160008681526020019081526020016000206000905560019350505050610382565b6000915050610382565b6001600160a01b038316610b3d578060026000828254610b329190610e62565b90915550610baf9050565b6001600160a01b03831660009081526020819052604090205481811015610b905760405163391434e360e21b81526001600160a01b0385166004820152602481018290526044810183905260640161046d565b6001600160a01b03841660009081526020819052604090209082900390555b6001600160a01b038216610bcb57600280548290039055610bea565b6001600160a01b03821660009081526020819052604090208054820190555b816001600160a01b0316836001600160a01b03167fddf252ad1be2c89b69c2b068fc378daa952ba7f163c4a11628f55a4df523b3ef83604051610c2f91815260200190565b60405180910390a3505050565b60006020808352835180602085015260005b81811015610c6a57858101830151858201604001528201610c4e565b506000604082860101526040601f19601f8301168501019250505092915050565b80356001600160a01b0381168114610ca257600080fd5b919050565b60008060408385031215610cba57600080fd5b610cc383610c8b565b946020939093013593505050565b600060208284031215610ce357600080fd5b61062482610c8b565b600080600060608486031215610d0157600080fd5b610d0a84610c8b565b9250610d1860208501610c8b565b9150604084013590509250925092565b600060208284031215610d3a57600080fd5b5035919050565b60008060408385031215610d5457600080fd5b610d5d83610c8b565b915060208301358015158114610d7257600080fd5b809150509250929050565b60008060408385031215610d9057600080fd5b82359150610da060208401610c8b565b90509250929050565b60008060408385031215610dbc57600080fd5b610dc583610c8b565b9150610da060208401610c8b565b600181811c90821680610de757607f821691505b602082108103610e0757634e487b7160e01b600052602260045260246000fd5b50919050565b634e487b7160e01b600052603260045260246000fd5b634e487b7160e01b600052601160045260246000fd5b8181038181111561038257610382610e23565b634e487b7160e01b600052603160045260246000fd5b8082018082111561038257610382610e2356fea2646970667358221220d7a63938f367257631b55c7bc63e19688548fc3c406d22c79b96226c0b1ea1f764736f6c63430008180033",
  "devdoc": {
    "errors": {
      "ERC20InsufficientAllowance(address,uint256,uint256)": [
        {
          "details": "Indicates a failure with the `spender`s `allowance`. Used in transfers.",
          "params": {
            "allowance": "Amount of tokens a `spender` is allowed to operate with.",
            "needed": "Minimum amount required to perform a transfer.",
            "spender": "Address that may be allowed to operate on tokens without being their owner."
          }
        }
      ],
      "ERC20InsufficientBalance(address,uint256,uint256)": [
        {
          "details": "Indicates an error related to the current `balance` of a `sender`. Used in transfers.",
          "params": {
            "balance": "Current balance for the interacting account.",
            "needed": "Minimum amount required to perform a transfer.",
            "sender": "Address whose tokens are being transferred."
          }
        }
      ],
      "ERC20InvalidApprover(address)": [
        {
          "details": "Indicates a failure with the `approver` of a token to be approved. Used in approvals.",
          "params": {
            "approver": "Address initiating an approval operation."
          }
        }
      ],
      "ERC20InvalidReceiver(address)": [
        {
          "details": "Indicates a failure with the token `receiver`. Used in transfers.",
          "params": {
            "receiver": "Address to which tokens are being transferred."
          }
        }
      ],
      "ERC20InvalidSender(address)": [
        {
          "details": "Indicates a failure with the token `sender`. Used in transfers.",
          "params": {
            "sender": "Address whose tokens are being transferred."
          }
        }
      ],
      "ERC20InvalidSpender(address)": [
        {
          "details": "Indicates a failure with the `spender` to be approved. Used in approvals.",
          "params": {
            "spender": "Address that may be allowed to operate on tokens without being their owner."
          }
        }
      ],
      "OwnableInvalidOwner(address)": [
        {
          "details": "The owner is not a valid owner account. (eg. `address(0)`)"
        }
      ],
      "OwnableUnauthorizedAccount(address)": [
        {
          "details": "The caller account is not authorized to perform an operation."
        }
      ]
    },
    "events": {
      "Approval(address,address,uint256)": {
        "details": "Emitted when the allowance of a `spender` for an `owner` is set by a call to {approve}. `value` is the new allowance."
      },
      "Transfer(address,address,uint256)": {
        "details": "Emitted when `value` tokens are moved from one account (`from`) to another (`to`). Note that `value` may be zero."
      }
    },
    "kind": "dev",
    "methods": {
      "allowance(address,address)": {
        "details": "See {IERC20-allowance}."
      },
      "approve(address,uint256)": {
        "details": "See {IERC20-approve}. NOTE: If `value` is the maximum `uint256`, the allowance is not updated on `transferFrom`. This is semantically equivalent to an infinite approval. Requirements: - `spender` cannot be the zero address."
      },
      "balanceOf(address)": {
        "details": "See {IERC20-balanceOf}."
      },
      "constructor": {
        "custom:security-contact": "mailto:security@mozaic.finance"
      },
      "decimals()": {
        "details": "Returns the number of decimals used to get its user representation. For example, if `decimals` equals `2`, a balance of `505` tokens should be displayed to a user as `5.05` (`505 / 10 ** 2`). Tokens usually opt for a value of 18, imitating the relationship between Ether and Wei. This is the default value returned by this function, unless it's overridden. NOTE: This information is only used for _display_ purposes: it in no way affects any of the arithmetic of the contract, including {IERC20-balanceOf} and {IERC20-transfer}."
      },
      "isTransferWhitelisted(address)": {
        "details": "returns if \"account\" is allowed to send/receive xMOZ"
      },
      "name()": {
        "details": "Returns the name of the token."
      },
      "owner()": {
        "details": "Returns the address of the current owner."
      },
      "renounceOwnership()": {
        "details": "Leaves the contract without owner. It will not be possible to call `onlyOwner` functions. Can only be called by the current owner. NOTE: Renouncing ownership will leave the contract without an owner, thereby disabling any functionality that is only available to the owner."
      },
      "symbol()": {
        "details": "Returns the symbol of the token, usually a shorter version of the name."
      },
      "totalSupply()": {
        "details": "See {IERC20-totalSupply}."
      },
      "transfer(address,uint256)": {
        "details": "See {IERC20-transfer}. Requirements: - `to` cannot be the zero address. - the caller must have a balance of at least `value`."
      },
      "transferFrom(address,address,uint256)": {
        "details": "See {IERC20-transferFrom}. Emits an {Approval} event indicating the updated allowance. This is not required by the EIP. See the note at the beginning of {ERC20}. NOTE: Does not update the allowance if the current allowance is the maximum `uint256`. Requirements: - `from` and `to` cannot be the zero address. - `from` must have a balance of at least `value`. - the caller must have allowance for ``from``'s tokens of at least `value`."
      },
      "transferOwnership(address)": {
        "details": "Transfers ownership of the contract to a new account (`newOwner`). Can only be called by the current owner."
      },
      "transferWhitelist(uint256)": {
        "details": "returns transferWhitelist array item's address for \"index\""
      },
      "transferWhitelistLength()": {
        "details": "returns length of transferWhitelist array"
      },
      "updateTransferWhitelist(address,bool)": {
        "details": "Adds or removes addresses from the transferWhitelist"
      }
    },
    "version": 1
  },
  "userdoc": {
    "kind": "user",
    "methods": {},
    "version": 1
  },
  "storageLayout": {
    "storage": [
      {
        "astId": 4237,
        "contract": "contracts/tokens/XMOZToken.sol:XMozToken",
        "label": "_balances",
        "offset": 0,
        "slot": "0",
        "type": "t_mapping(t_address,t_uint256)"
      },
      {
        "astId": 4243,
        "contract": "contracts/tokens/XMOZToken.sol:XMozToken",
        "label": "_allowances",
        "offset": 0,
        "slot": "1",
        "type": "t_mapping(t_address,t_mapping(t_address,t_uint256))"
      },
      {
        "astId": 4245,
        "contract": "contracts/tokens/XMOZToken.sol:XMozToken",
        "label": "_totalSupply",
        "offset": 0,
        "slot": "2",
        "type": "t_uint256"
      },
      {
        "astId": 4247,
        "contract": "contracts/tokens/XMOZToken.sol:XMozToken",
        "label": "_name",
        "offset": 0,
        "slot": "3",
        "type": "t_string_storage"
      },
      {
        "astId": 4249,
        "contract": "contracts/tokens/XMOZToken.sol:XMozToken",
        "label": "_symbol",
        "offset": 0,
        "slot": "4",
        "type": "t_string_storage"
      },
      {
        "astId": 3938,
        "contract": "contracts/tokens/XMOZToken.sol:XMozToken",
        "label": "_owner",
        "offset": 0,
        "slot": "5",
        "type": "t_address"
      },
      {
        "astId": 7151,
        "contract": "contracts/tokens/XMOZToken.sol:XMozToken",
        "label": "mozStaking",
        "offset": 0,
        "slot": "6",
        "type": "t_address"
      },
      {
        "astId": 7154,
        "contract": "contracts/tokens/XMOZToken.sol:XMozToken",
        "label": "_transferWhitelist",
        "offset": 0,
        "slot": "7",
        "type": "t_struct(AddressSet)5780_storage"
      }
    ],
    "types": {
      "t_address": {
        "encoding": "inplace",
        "label": "address",
        "numberOfBytes": "20"
      },
      "t_array(t_bytes32)dyn_storage": {
        "base": "t_bytes32",
        "encoding": "dynamic_array",
        "label": "bytes32[]",
        "numberOfBytes": "32"
      },
      "t_bytes32": {
        "encoding": "inplace",
        "label": "bytes32",
        "numberOfBytes": "32"
      },
      "t_mapping(t_address,t_mapping(t_address,t_uint256))": {
        "encoding": "mapping",
        "key": "t_address",
        "label": "mapping(address => mapping(address => uint256))",
        "numberOfBytes": "32",
        "value": "t_mapping(t_address,t_uint256)"
      },
      "t_mapping(t_address,t_uint256)": {
        "encoding": "mapping",
        "key": "t_address",
        "label": "mapping(address => uint256)",
        "numberOfBytes": "32",
        "value": "t_uint256"
      },
      "t_mapping(t_bytes32,t_uint256)": {
        "encoding": "mapping",
        "key": "t_bytes32",
        "label": "mapping(bytes32 => uint256)",
        "numberOfBytes": "32",
        "value": "t_uint256"
      },
      "t_string_storage": {
        "encoding": "bytes",
        "label": "string",
        "numberOfBytes": "32"
      },
      "t_struct(AddressSet)5780_storage": {
        "encoding": "inplace",
        "label": "struct EnumerableSet.AddressSet",
        "members": [
          {
            "astId": 5779,
            "contract": "contracts/tokens/XMOZToken.sol:XMozToken",
            "label": "_inner",
            "offset": 0,
            "slot": "0",
            "type": "t_struct(Set)5465_storage"
          }
        ],
        "numberOfBytes": "64"
      },
      "t_struct(Set)5465_storage": {
        "encoding": "inplace",
        "label": "struct EnumerableSet.Set",
        "members": [
          {
            "astId": 5460,
            "contract": "contracts/tokens/XMOZToken.sol:XMozToken",
            "label": "_values",
            "offset": 0,
            "slot": "0",
            "type": "t_array(t_bytes32)dyn_storage"
          },
          {
            "astId": 5464,
            "contract": "contracts/tokens/XMOZToken.sol:XMozToken",
            "label": "_positions",
            "offset": 0,
            "slot": "1",
            "type": "t_mapping(t_bytes32,t_uint256)"
          }
        ],
        "numberOfBytes": "64"
      },
      "t_uint256": {
        "encoding": "inplace",
        "label": "uint256",
        "numberOfBytes": "32"
      }
    }
  }
}