{
  "address": "0x545000f19fE5C323f5187dDb651B4e51914b0001",
  "abi": [
    {
      "inputs": [
        {
          "internalType": "address",
          "name": "_vault",
          "type": "address"
        },
        {
          "internalType": "address",
          "name": "_gmxPlugin",
          "type": "address"
        },
        {
          "internalType": "address",
          "name": "_roleStore",
          "type": "address"
        }
      ],
      "stateMutability": "nonpayable",
      "type": "constructor"
    },
    {
      "inputs": [
        {
          "internalType": "address",
          "name": "target",
          "type": "address"
        }
      ],
      "name": "AddressEmptyCode",
      "type": "error"
    },
    {
      "inputs": [
        {
          "internalType": "address",
          "name": "account",
          "type": "address"
        }
      ],
      "name": "AddressInsufficientBalance",
      "type": "error"
    },
    {
      "inputs": [],
      "name": "FailedInnerCall",
      "type": "error"
    },
    {
      "inputs": [
        {
          "internalType": "address",
          "name": "owner",
          "type": "address"
        }
      ],
      "name": "OwnableInvalidOwner",
      "type": "error"
    },
    {
      "inputs": [
        {
          "internalType": "address",
          "name": "account",
          "type": "address"
        }
      ],
      "name": "OwnableUnauthorizedAccount",
      "type": "error"
    },
    {
      "inputs": [
        {
          "internalType": "address",
          "name": "token",
          "type": "address"
        }
      ],
      "name": "SafeERC20FailedOperation",
      "type": "error"
    },
    {
      "anonymous": false,
      "inputs": [
        {
          "indexed": false,
          "internalType": "bytes32",
          "name": "_key",
          "type": "bytes32"
        },
        {
          "indexed": false,
          "internalType": "enum ICallbackContract.State",
          "name": "stateOption",
          "type": "uint8"
        }
      ],
      "name": "AddKey",
      "type": "event"
    },
    {
      "anonymous": false,
      "inputs": [
        {
          "indexed": false,
          "internalType": "bytes32",
          "name": "_withdrawalKey",
          "type": "bytes32"
        },
        {
          "indexed": false,
          "internalType": "uint256",
          "name": "_lpAmount",
          "type": "uint256"
        },
        {
          "indexed": false,
          "internalType": "address",
          "name": "_receiver",
          "type": "address"
        }
      ],
      "name": "AddWithdrawalData",
      "type": "event"
    },
    {
      "anonymous": false,
      "inputs": [
        {
          "indexed": false,
          "internalType": "bytes32",
          "name": "_key",
          "type": "bytes32"
        }
      ],
      "name": "AfterDepositCancellation",
      "type": "event"
    },
    {
      "anonymous": false,
      "inputs": [
        {
          "indexed": false,
          "internalType": "bytes32",
          "name": "_key",
          "type": "bytes32"
        }
      ],
      "name": "AfterDepositExecution",
      "type": "event"
    },
    {
      "anonymous": false,
      "inputs": [
        {
          "indexed": false,
          "internalType": "bytes32",
          "name": "_key",
          "type": "bytes32"
        }
      ],
      "name": "AfterOrderCancellation",
      "type": "event"
    },
    {
      "anonymous": false,
      "inputs": [
        {
          "indexed": false,
          "internalType": "bytes32",
          "name": "_key",
          "type": "bytes32"
        }
      ],
      "name": "AfterOrderExecution",
      "type": "event"
    },
    {
      "anonymous": false,
      "inputs": [
        {
          "indexed": false,
          "internalType": "bytes32",
          "name": "_key",
          "type": "bytes32"
        }
      ],
      "name": "AfterOrderFrozen",
      "type": "event"
    },
    {
      "anonymous": false,
      "inputs": [
        {
          "indexed": false,
          "internalType": "bytes32",
          "name": "_key",
          "type": "bytes32"
        }
      ],
      "name": "AfterWithdrawalCancellation",
      "type": "event"
    },
    {
      "anonymous": false,
      "inputs": [
        {
          "indexed": false,
          "internalType": "bytes32",
          "name": "_key",
          "type": "bytes32"
        }
      ],
      "name": "AfterWithdrawalExecution",
      "type": "event"
    },
    {
      "anonymous": false,
      "inputs": [
        {
          "indexed": true,
          "internalType": "address",
          "name": "previousOwner",
          "type": "address"
        },
        {
          "indexed": true,
          "internalType": "address",
          "name": "newOwner",
          "type": "address"
        }
      ],
      "name": "OwnershipTransferred",
      "type": "event"
    },
    {
      "anonymous": false,
      "inputs": [
        {
          "indexed": false,
          "internalType": "bytes32",
          "name": "_key",
          "type": "bytes32"
        }
      ],
      "name": "RefundExecutionFee",
      "type": "event"
    },
    {
      "anonymous": false,
      "inputs": [
        {
          "indexed": false,
          "internalType": "bytes32",
          "name": "_key",
          "type": "bytes32"
        },
        {
          "indexed": false,
          "internalType": "enum ICallbackContract.State",
          "name": "_stateOption",
          "type": "uint8"
        }
      ],
      "name": "RemoveKey",
      "type": "event"
    },
    {
      "anonymous": false,
      "inputs": [
        {
          "indexed": false,
          "internalType": "address",
          "name": "_vault",
          "type": "address"
        },
        {
          "indexed": false,
          "internalType": "address",
          "name": "_gmxPlugin",
          "type": "address"
        }
      ],
      "name": "SetConfig",
      "type": "event"
    },
    {
      "anonymous": false,
      "inputs": [
        {
          "indexed": false,
          "internalType": "address",
          "name": "_depositHandler",
          "type": "address"
        },
        {
          "indexed": false,
          "internalType": "address",
          "name": "_withdrawalHandler",
          "type": "address"
        },
        {
          "indexed": false,
          "internalType": "address",
          "name": "_orderHandler",
          "type": "address"
        }
      ],
      "name": "SetHandler",
      "type": "event"
    },
    {
      "inputs": [
        {
          "internalType": "bytes32",
          "name": "_key",
          "type": "bytes32"
        },
        {
          "internalType": "enum ICallbackContract.State",
          "name": "_stateOption",
          "type": "uint8"
        }
      ],
      "name": "addKey",
      "outputs": [],
      "stateMutability": "nonpayable",
      "type": "function"
    },
    {
      "inputs": [
        {
          "internalType": "bytes32",
          "name": "_withdrawalKey",
          "type": "bytes32"
        },
        {
          "internalType": "uint256",
          "name": "_lpAmount",
          "type": "uint256"
        },
        {
          "internalType": "address",
          "name": "_receiver",
          "type": "address"
        }
      ],
      "name": "addWithdrawalData",
      "outputs": [],
      "stateMutability": "nonpayable",
      "type": "function"
    },
    {
      "inputs": [
        {
          "internalType": "bytes32",
          "name": "key",
          "type": "bytes32"
        },
        {
          "components": [
            {
              "components": [
                {
                  "internalType": "address",
                  "name": "account",
                  "type": "address"
                },
                {
                  "internalType": "address",
                  "name": "receiver",
                  "type": "address"
                },
                {
                  "internalType": "address",
                  "name": "callbackContract",
                  "type": "address"
                },
                {
                  "internalType": "address",
                  "name": "uiFeeReceiver",
                  "type": "address"
                },
                {
                  "internalType": "address",
                  "name": "market",
                  "type": "address"
                },
                {
                  "internalType": "address",
                  "name": "initialLongToken",
                  "type": "address"
                },
                {
                  "internalType": "address",
                  "name": "initialShortToken",
                  "type": "address"
                },
                {
                  "internalType": "address[]",
                  "name": "longTokenSwapPath",
                  "type": "address[]"
                },
                {
                  "internalType": "address[]",
                  "name": "shortTokenSwapPath",
                  "type": "address[]"
                }
              ],
              "internalType": "struct Deposit.Addresses",
              "name": "addresses",
              "type": "tuple"
            },
            {
              "components": [
                {
                  "internalType": "uint256",
                  "name": "initialLongTokenAmount",
                  "type": "uint256"
                },
                {
                  "internalType": "uint256",
                  "name": "initialShortTokenAmount",
                  "type": "uint256"
                },
                {
                  "internalType": "uint256",
                  "name": "minMarketTokens",
                  "type": "uint256"
                },
                {
                  "internalType": "uint256",
                  "name": "updatedAtBlock",
                  "type": "uint256"
                },
                {
                  "internalType": "uint256",
                  "name": "updatedAtTime",
                  "type": "uint256"
                },
                {
                  "internalType": "uint256",
                  "name": "executionFee",
                  "type": "uint256"
                },
                {
                  "internalType": "uint256",
                  "name": "callbackGasLimit",
                  "type": "uint256"
                }
              ],
              "internalType": "struct Deposit.Numbers",
              "name": "numbers",
              "type": "tuple"
            },
            {
              "components": [
                {
                  "internalType": "bool",
                  "name": "shouldUnwrapNativeToken",
                  "type": "bool"
                }
              ],
              "internalType": "struct Deposit.Flags",
              "name": "flags",
              "type": "tuple"
            }
          ],
          "internalType": "struct Deposit.Props",
          "name": "deposit",
          "type": "tuple"
        },
        {
          "components": [
            {
              "components": [
                {
                  "components": [
                    {
                      "internalType": "string",
                      "name": "key",
                      "type": "string"
                    },
                    {
                      "internalType": "address",
                      "name": "value",
                      "type": "address"
                    }
                  ],
                  "internalType": "struct EventUtils.AddressKeyValue[]",
                  "name": "items",
                  "type": "tuple[]"
                },
                {
                  "components": [
                    {
                      "internalType": "string",
                      "name": "key",
                      "type": "string"
                    },
                    {
                      "internalType": "address[]",
                      "name": "value",
                      "type": "address[]"
                    }
                  ],
                  "internalType": "struct EventUtils.AddressArrayKeyValue[]",
                  "name": "arrayItems",
                  "type": "tuple[]"
                }
              ],
              "internalType": "struct EventUtils.AddressItems",
              "name": "addressItems",
              "type": "tuple"
            },
            {
              "components": [
                {
                  "components": [
                    {
                      "internalType": "string",
                      "name": "key",
                      "type": "string"
                    },
                    {
                      "internalType": "uint256",
                      "name": "value",
                      "type": "uint256"
                    }
                  ],
                  "internalType": "struct EventUtils.UintKeyValue[]",
                  "name": "items",
                  "type": "tuple[]"
                },
                {
                  "components": [
                    {
                      "internalType": "string",
                      "name": "key",
                      "type": "string"
                    },
                    {
                      "internalType": "uint256[]",
                      "name": "value",
                      "type": "uint256[]"
                    }
                  ],
                  "internalType": "struct EventUtils.UintArrayKeyValue[]",
                  "name": "arrayItems",
                  "type": "tuple[]"
                }
              ],
              "internalType": "struct EventUtils.UintItems",
              "name": "uintItems",
              "type": "tuple"
            },
            {
              "components": [
                {
                  "components": [
                    {
                      "internalType": "string",
                      "name": "key",
                      "type": "string"
                    },
                    {
                      "internalType": "int256",
                      "name": "value",
                      "type": "int256"
                    }
                  ],
                  "internalType": "struct EventUtils.IntKeyValue[]",
                  "name": "items",
                  "type": "tuple[]"
                },
                {
                  "components": [
                    {
                      "internalType": "string",
                      "name": "key",
                      "type": "string"
                    },
                    {
                      "internalType": "int256[]",
                      "name": "value",
                      "type": "int256[]"
                    }
                  ],
                  "internalType": "struct EventUtils.IntArrayKeyValue[]",
                  "name": "arrayItems",
                  "type": "tuple[]"
                }
              ],
              "internalType": "struct EventUtils.IntItems",
              "name": "intItems",
              "type": "tuple"
            },
            {
              "components": [
                {
                  "components": [
                    {
                      "internalType": "string",
                      "name": "key",
                      "type": "string"
                    },
                    {
                      "internalType": "bool",
                      "name": "value",
                      "type": "bool"
                    }
                  ],
                  "internalType": "struct EventUtils.BoolKeyValue[]",
                  "name": "items",
                  "type": "tuple[]"
                },
                {
                  "components": [
                    {
                      "internalType": "string",
                      "name": "key",
                      "type": "string"
                    },
                    {
                      "internalType": "bool[]",
                      "name": "value",
                      "type": "bool[]"
                    }
                  ],
                  "internalType": "struct EventUtils.BoolArrayKeyValue[]",
                  "name": "arrayItems",
                  "type": "tuple[]"
                }
              ],
              "internalType": "struct EventUtils.BoolItems",
              "name": "boolItems",
              "type": "tuple"
            },
            {
              "components": [
                {
                  "components": [
                    {
                      "internalType": "string",
                      "name": "key",
                      "type": "string"
                    },
                    {
                      "internalType": "bytes32",
                      "name": "value",
                      "type": "bytes32"
                    }
                  ],
                  "internalType": "struct EventUtils.Bytes32KeyValue[]",
                  "name": "items",
                  "type": "tuple[]"
                },
                {
                  "components": [
                    {
                      "internalType": "string",
                      "name": "key",
                      "type": "string"
                    },
                    {
                      "internalType": "bytes32[]",
                      "name": "value",
                      "type": "bytes32[]"
                    }
                  ],
                  "internalType": "struct EventUtils.Bytes32ArrayKeyValue[]",
                  "name": "arrayItems",
                  "type": "tuple[]"
                }
              ],
              "internalType": "struct EventUtils.Bytes32Items",
              "name": "bytes32Items",
              "type": "tuple"
            },
            {
              "components": [
                {
                  "components": [
                    {
                      "internalType": "string",
                      "name": "key",
                      "type": "string"
                    },
                    {
                      "internalType": "bytes",
                      "name": "value",
                      "type": "bytes"
                    }
                  ],
                  "internalType": "struct EventUtils.BytesKeyValue[]",
                  "name": "items",
                  "type": "tuple[]"
                },
                {
                  "components": [
                    {
                      "internalType": "string",
                      "name": "key",
                      "type": "string"
                    },
                    {
                      "internalType": "bytes[]",
                      "name": "value",
                      "type": "bytes[]"
                    }
                  ],
                  "internalType": "struct EventUtils.BytesArrayKeyValue[]",
                  "name": "arrayItems",
                  "type": "tuple[]"
                }
              ],
              "internalType": "struct EventUtils.BytesItems",
              "name": "bytesItems",
              "type": "tuple"
            },
            {
              "components": [
                {
                  "components": [
                    {
                      "internalType": "string",
                      "name": "key",
                      "type": "string"
                    },
                    {
                      "internalType": "string",
                      "name": "value",
                      "type": "string"
                    }
                  ],
                  "internalType": "struct EventUtils.StringKeyValue[]",
                  "name": "items",
                  "type": "tuple[]"
                },
                {
                  "components": [
                    {
                      "internalType": "string",
                      "name": "key",
                      "type": "string"
                    },
                    {
                      "internalType": "string[]",
                      "name": "value",
                      "type": "string[]"
                    }
                  ],
                  "internalType": "struct EventUtils.StringArrayKeyValue[]",
                  "name": "arrayItems",
                  "type": "tuple[]"
                }
              ],
              "internalType": "struct EventUtils.StringItems",
              "name": "stringItems",
              "type": "tuple"
            }
          ],
          "internalType": "struct EventUtils.EventLogData",
          "name": "eventData",
          "type": "tuple"
        }
      ],
      "name": "afterDepositCancellation",
      "outputs": [],
      "stateMutability": "nonpayable",
      "type": "function"
    },
    {
      "inputs": [
        {
          "internalType": "bytes32",
          "name": "key",
          "type": "bytes32"
        },
        {
          "components": [
            {
              "components": [
                {
                  "internalType": "address",
                  "name": "account",
                  "type": "address"
                },
                {
                  "internalType": "address",
                  "name": "receiver",
                  "type": "address"
                },
                {
                  "internalType": "address",
                  "name": "callbackContract",
                  "type": "address"
                },
                {
                  "internalType": "address",
                  "name": "uiFeeReceiver",
                  "type": "address"
                },
                {
                  "internalType": "address",
                  "name": "market",
                  "type": "address"
                },
                {
                  "internalType": "address",
                  "name": "initialLongToken",
                  "type": "address"
                },
                {
                  "internalType": "address",
                  "name": "initialShortToken",
                  "type": "address"
                },
                {
                  "internalType": "address[]",
                  "name": "longTokenSwapPath",
                  "type": "address[]"
                },
                {
                  "internalType": "address[]",
                  "name": "shortTokenSwapPath",
                  "type": "address[]"
                }
              ],
              "internalType": "struct Deposit.Addresses",
              "name": "addresses",
              "type": "tuple"
            },
            {
              "components": [
                {
                  "internalType": "uint256",
                  "name": "initialLongTokenAmount",
                  "type": "uint256"
                },
                {
                  "internalType": "uint256",
                  "name": "initialShortTokenAmount",
                  "type": "uint256"
                },
                {
                  "internalType": "uint256",
                  "name": "minMarketTokens",
                  "type": "uint256"
                },
                {
                  "internalType": "uint256",
                  "name": "updatedAtBlock",
                  "type": "uint256"
                },
                {
                  "internalType": "uint256",
                  "name": "updatedAtTime",
                  "type": "uint256"
                },
                {
                  "internalType": "uint256",
                  "name": "executionFee",
                  "type": "uint256"
                },
                {
                  "internalType": "uint256",
                  "name": "callbackGasLimit",
                  "type": "uint256"
                }
              ],
              "internalType": "struct Deposit.Numbers",
              "name": "numbers",
              "type": "tuple"
            },
            {
              "components": [
                {
                  "internalType": "bool",
                  "name": "shouldUnwrapNativeToken",
                  "type": "bool"
                }
              ],
              "internalType": "struct Deposit.Flags",
              "name": "flags",
              "type": "tuple"
            }
          ],
          "internalType": "struct Deposit.Props",
          "name": "deposit",
          "type": "tuple"
        },
        {
          "components": [
            {
              "components": [
                {
                  "components": [
                    {
                      "internalType": "string",
                      "name": "key",
                      "type": "string"
                    },
                    {
                      "internalType": "address",
                      "name": "value",
                      "type": "address"
                    }
                  ],
                  "internalType": "struct EventUtils.AddressKeyValue[]",
                  "name": "items",
                  "type": "tuple[]"
                },
                {
                  "components": [
                    {
                      "internalType": "string",
                      "name": "key",
                      "type": "string"
                    },
                    {
                      "internalType": "address[]",
                      "name": "value",
                      "type": "address[]"
                    }
                  ],
                  "internalType": "struct EventUtils.AddressArrayKeyValue[]",
                  "name": "arrayItems",
                  "type": "tuple[]"
                }
              ],
              "internalType": "struct EventUtils.AddressItems",
              "name": "addressItems",
              "type": "tuple"
            },
            {
              "components": [
                {
                  "components": [
                    {
                      "internalType": "string",
                      "name": "key",
                      "type": "string"
                    },
                    {
                      "internalType": "uint256",
                      "name": "value",
                      "type": "uint256"
                    }
                  ],
                  "internalType": "struct EventUtils.UintKeyValue[]",
                  "name": "items",
                  "type": "tuple[]"
                },
                {
                  "components": [
                    {
                      "internalType": "string",
                      "name": "key",
                      "type": "string"
                    },
                    {
                      "internalType": "uint256[]",
                      "name": "value",
                      "type": "uint256[]"
                    }
                  ],
                  "internalType": "struct EventUtils.UintArrayKeyValue[]",
                  "name": "arrayItems",
                  "type": "tuple[]"
                }
              ],
              "internalType": "struct EventUtils.UintItems",
              "name": "uintItems",
              "type": "tuple"
            },
            {
              "components": [
                {
                  "components": [
                    {
                      "internalType": "string",
                      "name": "key",
                      "type": "string"
                    },
                    {
                      "internalType": "int256",
                      "name": "value",
                      "type": "int256"
                    }
                  ],
                  "internalType": "struct EventUtils.IntKeyValue[]",
                  "name": "items",
                  "type": "tuple[]"
                },
                {
                  "components": [
                    {
                      "internalType": "string",
                      "name": "key",
                      "type": "string"
                    },
                    {
                      "internalType": "int256[]",
                      "name": "value",
                      "type": "int256[]"
                    }
                  ],
                  "internalType": "struct EventUtils.IntArrayKeyValue[]",
                  "name": "arrayItems",
                  "type": "tuple[]"
                }
              ],
              "internalType": "struct EventUtils.IntItems",
              "name": "intItems",
              "type": "tuple"
            },
            {
              "components": [
                {
                  "components": [
                    {
                      "internalType": "string",
                      "name": "key",
                      "type": "string"
                    },
                    {
                      "internalType": "bool",
                      "name": "value",
                      "type": "bool"
                    }
                  ],
                  "internalType": "struct EventUtils.BoolKeyValue[]",
                  "name": "items",
                  "type": "tuple[]"
                },
                {
                  "components": [
                    {
                      "internalType": "string",
                      "name": "key",
                      "type": "string"
                    },
                    {
                      "internalType": "bool[]",
                      "name": "value",
                      "type": "bool[]"
                    }
                  ],
                  "internalType": "struct EventUtils.BoolArrayKeyValue[]",
                  "name": "arrayItems",
                  "type": "tuple[]"
                }
              ],
              "internalType": "struct EventUtils.BoolItems",
              "name": "boolItems",
              "type": "tuple"
            },
            {
              "components": [
                {
                  "components": [
                    {
                      "internalType": "string",
                      "name": "key",
                      "type": "string"
                    },
                    {
                      "internalType": "bytes32",
                      "name": "value",
                      "type": "bytes32"
                    }
                  ],
                  "internalType": "struct EventUtils.Bytes32KeyValue[]",
                  "name": "items",
                  "type": "tuple[]"
                },
                {
                  "components": [
                    {
                      "internalType": "string",
                      "name": "key",
                      "type": "string"
                    },
                    {
                      "internalType": "bytes32[]",
                      "name": "value",
                      "type": "bytes32[]"
                    }
                  ],
                  "internalType": "struct EventUtils.Bytes32ArrayKeyValue[]",
                  "name": "arrayItems",
                  "type": "tuple[]"
                }
              ],
              "internalType": "struct EventUtils.Bytes32Items",
              "name": "bytes32Items",
              "type": "tuple"
            },
            {
              "components": [
                {
                  "components": [
                    {
                      "internalType": "string",
                      "name": "key",
                      "type": "string"
                    },
                    {
                      "internalType": "bytes",
                      "name": "value",
                      "type": "bytes"
                    }
                  ],
                  "internalType": "struct EventUtils.BytesKeyValue[]",
                  "name": "items",
                  "type": "tuple[]"
                },
                {
                  "components": [
                    {
                      "internalType": "string",
                      "name": "key",
                      "type": "string"
                    },
                    {
                      "internalType": "bytes[]",
                      "name": "value",
                      "type": "bytes[]"
                    }
                  ],
                  "internalType": "struct EventUtils.BytesArrayKeyValue[]",
                  "name": "arrayItems",
                  "type": "tuple[]"
                }
              ],
              "internalType": "struct EventUtils.BytesItems",
              "name": "bytesItems",
              "type": "tuple"
            },
            {
              "components": [
                {
                  "components": [
                    {
                      "internalType": "string",
                      "name": "key",
                      "type": "string"
                    },
                    {
                      "internalType": "string",
                      "name": "value",
                      "type": "string"
                    }
                  ],
                  "internalType": "struct EventUtils.StringKeyValue[]",
                  "name": "items",
                  "type": "tuple[]"
                },
                {
                  "components": [
                    {
                      "internalType": "string",
                      "name": "key",
                      "type": "string"
                    },
                    {
                      "internalType": "string[]",
                      "name": "value",
                      "type": "string[]"
                    }
                  ],
                  "internalType": "struct EventUtils.StringArrayKeyValue[]",
                  "name": "arrayItems",
                  "type": "tuple[]"
                }
              ],
              "internalType": "struct EventUtils.StringItems",
              "name": "stringItems",
              "type": "tuple"
            }
          ],
          "internalType": "struct EventUtils.EventLogData",
          "name": "eventData",
          "type": "tuple"
        }
      ],
      "name": "afterDepositExecution",
      "outputs": [],
      "stateMutability": "nonpayable",
      "type": "function"
    },
    {
      "inputs": [
        {
          "internalType": "bytes32",
          "name": "key",
          "type": "bytes32"
        },
        {
          "components": [
            {
              "components": [
                {
                  "internalType": "address",
                  "name": "account",
                  "type": "address"
                },
                {
                  "internalType": "address",
                  "name": "receiver",
                  "type": "address"
                },
                {
                  "internalType": "address",
                  "name": "cancellationReceiver",
                  "type": "address"
                },
                {
                  "internalType": "address",
                  "name": "callbackContract",
                  "type": "address"
                },
                {
                  "internalType": "address",
                  "name": "uiFeeReceiver",
                  "type": "address"
                },
                {
                  "internalType": "address",
                  "name": "market",
                  "type": "address"
                },
                {
                  "internalType": "address",
                  "name": "initialCollateralToken",
                  "type": "address"
                },
                {
                  "internalType": "address[]",
                  "name": "swapPath",
                  "type": "address[]"
                }
              ],
              "internalType": "struct Order.Addresses",
              "name": "addresses",
              "type": "tuple"
            },
            {
              "components": [
                {
                  "internalType": "enum Order.OrderType",
                  "name": "orderType",
                  "type": "uint8"
                },
                {
                  "internalType": "enum Order.DecreasePositionSwapType",
                  "name": "decreasePositionSwapType",
                  "type": "uint8"
                },
                {
                  "internalType": "uint256",
                  "name": "sizeDeltaUsd",
                  "type": "uint256"
                },
                {
                  "internalType": "uint256",
                  "name": "initialCollateralDeltaAmount",
                  "type": "uint256"
                },
                {
                  "internalType": "uint256",
                  "name": "triggerPrice",
                  "type": "uint256"
                },
                {
                  "internalType": "uint256",
                  "name": "acceptablePrice",
                  "type": "uint256"
                },
                {
                  "internalType": "uint256",
                  "name": "executionFee",
                  "type": "uint256"
                },
                {
                  "internalType": "uint256",
                  "name": "callbackGasLimit",
                  "type": "uint256"
                },
                {
                  "internalType": "uint256",
                  "name": "minOutputAmount",
                  "type": "uint256"
                },
                {
                  "internalType": "uint256",
                  "name": "updatedAtBlock",
                  "type": "uint256"
                },
                {
                  "internalType": "uint256",
                  "name": "updatedAtTime",
                  "type": "uint256"
                }
              ],
              "internalType": "struct Order.Numbers",
              "name": "numbers",
              "type": "tuple"
            },
            {
              "components": [
                {
                  "internalType": "bool",
                  "name": "isLong",
                  "type": "bool"
                },
                {
                  "internalType": "bool",
                  "name": "shouldUnwrapNativeToken",
                  "type": "bool"
                },
                {
                  "internalType": "bool",
                  "name": "isFrozen",
                  "type": "bool"
                },
                {
                  "internalType": "bool",
                  "name": "autoCancel",
                  "type": "bool"
                }
              ],
              "internalType": "struct Order.Flags",
              "name": "flags",
              "type": "tuple"
            }
          ],
          "internalType": "struct Order.Props",
          "name": "order",
          "type": "tuple"
        },
        {
          "components": [
            {
              "components": [
                {
                  "components": [
                    {
                      "internalType": "string",
                      "name": "key",
                      "type": "string"
                    },
                    {
                      "internalType": "address",
                      "name": "value",
                      "type": "address"
                    }
                  ],
                  "internalType": "struct EventUtils.AddressKeyValue[]",
                  "name": "items",
                  "type": "tuple[]"
                },
                {
                  "components": [
                    {
                      "internalType": "string",
                      "name": "key",
                      "type": "string"
                    },
                    {
                      "internalType": "address[]",
                      "name": "value",
                      "type": "address[]"
                    }
                  ],
                  "internalType": "struct EventUtils.AddressArrayKeyValue[]",
                  "name": "arrayItems",
                  "type": "tuple[]"
                }
              ],
              "internalType": "struct EventUtils.AddressItems",
              "name": "addressItems",
              "type": "tuple"
            },
            {
              "components": [
                {
                  "components": [
                    {
                      "internalType": "string",
                      "name": "key",
                      "type": "string"
                    },
                    {
                      "internalType": "uint256",
                      "name": "value",
                      "type": "uint256"
                    }
                  ],
                  "internalType": "struct EventUtils.UintKeyValue[]",
                  "name": "items",
                  "type": "tuple[]"
                },
                {
                  "components": [
                    {
                      "internalType": "string",
                      "name": "key",
                      "type": "string"
                    },
                    {
                      "internalType": "uint256[]",
                      "name": "value",
                      "type": "uint256[]"
                    }
                  ],
                  "internalType": "struct EventUtils.UintArrayKeyValue[]",
                  "name": "arrayItems",
                  "type": "tuple[]"
                }
              ],
              "internalType": "struct EventUtils.UintItems",
              "name": "uintItems",
              "type": "tuple"
            },
            {
              "components": [
                {
                  "components": [
                    {
                      "internalType": "string",
                      "name": "key",
                      "type": "string"
                    },
                    {
                      "internalType": "int256",
                      "name": "value",
                      "type": "int256"
                    }
                  ],
                  "internalType": "struct EventUtils.IntKeyValue[]",
                  "name": "items",
                  "type": "tuple[]"
                },
                {
                  "components": [
                    {
                      "internalType": "string",
                      "name": "key",
                      "type": "string"
                    },
                    {
                      "internalType": "int256[]",
                      "name": "value",
                      "type": "int256[]"
                    }
                  ],
                  "internalType": "struct EventUtils.IntArrayKeyValue[]",
                  "name": "arrayItems",
                  "type": "tuple[]"
                }
              ],
              "internalType": "struct EventUtils.IntItems",
              "name": "intItems",
              "type": "tuple"
            },
            {
              "components": [
                {
                  "components": [
                    {
                      "internalType": "string",
                      "name": "key",
                      "type": "string"
                    },
                    {
                      "internalType": "bool",
                      "name": "value",
                      "type": "bool"
                    }
                  ],
                  "internalType": "struct EventUtils.BoolKeyValue[]",
                  "name": "items",
                  "type": "tuple[]"
                },
                {
                  "components": [
                    {
                      "internalType": "string",
                      "name": "key",
                      "type": "string"
                    },
                    {
                      "internalType": "bool[]",
                      "name": "value",
                      "type": "bool[]"
                    }
                  ],
                  "internalType": "struct EventUtils.BoolArrayKeyValue[]",
                  "name": "arrayItems",
                  "type": "tuple[]"
                }
              ],
              "internalType": "struct EventUtils.BoolItems",
              "name": "boolItems",
              "type": "tuple"
            },
            {
              "components": [
                {
                  "components": [
                    {
                      "internalType": "string",
                      "name": "key",
                      "type": "string"
                    },
                    {
                      "internalType": "bytes32",
                      "name": "value",
                      "type": "bytes32"
                    }
                  ],
                  "internalType": "struct EventUtils.Bytes32KeyValue[]",
                  "name": "items",
                  "type": "tuple[]"
                },
                {
                  "components": [
                    {
                      "internalType": "string",
                      "name": "key",
                      "type": "string"
                    },
                    {
                      "internalType": "bytes32[]",
                      "name": "value",
                      "type": "bytes32[]"
                    }
                  ],
                  "internalType": "struct EventUtils.Bytes32ArrayKeyValue[]",
                  "name": "arrayItems",
                  "type": "tuple[]"
                }
              ],
              "internalType": "struct EventUtils.Bytes32Items",
              "name": "bytes32Items",
              "type": "tuple"
            },
            {
              "components": [
                {
                  "components": [
                    {
                      "internalType": "string",
                      "name": "key",
                      "type": "string"
                    },
                    {
                      "internalType": "bytes",
                      "name": "value",
                      "type": "bytes"
                    }
                  ],
                  "internalType": "struct EventUtils.BytesKeyValue[]",
                  "name": "items",
                  "type": "tuple[]"
                },
                {
                  "components": [
                    {
                      "internalType": "string",
                      "name": "key",
                      "type": "string"
                    },
                    {
                      "internalType": "bytes[]",
                      "name": "value",
                      "type": "bytes[]"
                    }
                  ],
                  "internalType": "struct EventUtils.BytesArrayKeyValue[]",
                  "name": "arrayItems",
                  "type": "tuple[]"
                }
              ],
              "internalType": "struct EventUtils.BytesItems",
              "name": "bytesItems",
              "type": "tuple"
            },
            {
              "components": [
                {
                  "components": [
                    {
                      "internalType": "string",
                      "name": "key",
                      "type": "string"
                    },
                    {
                      "internalType": "string",
                      "name": "value",
                      "type": "string"
                    }
                  ],
                  "internalType": "struct EventUtils.StringKeyValue[]",
                  "name": "items",
                  "type": "tuple[]"
                },
                {
                  "components": [
                    {
                      "internalType": "string",
                      "name": "key",
                      "type": "string"
                    },
                    {
                      "internalType": "string[]",
                      "name": "value",
                      "type": "string[]"
                    }
                  ],
                  "internalType": "struct EventUtils.StringArrayKeyValue[]",
                  "name": "arrayItems",
                  "type": "tuple[]"
                }
              ],
              "internalType": "struct EventUtils.StringItems",
              "name": "stringItems",
              "type": "tuple"
            }
          ],
          "internalType": "struct EventUtils.EventLogData",
          "name": "eventData",
          "type": "tuple"
        }
      ],
      "name": "afterOrderCancellation",
      "outputs": [],
      "stateMutability": "nonpayable",
      "type": "function"
    },
    {
      "inputs": [
        {
          "internalType": "bytes32",
          "name": "key",
          "type": "bytes32"
        },
        {
          "components": [
            {
              "components": [
                {
                  "internalType": "address",
                  "name": "account",
                  "type": "address"
                },
                {
                  "internalType": "address",
                  "name": "receiver",
                  "type": "address"
                },
                {
                  "internalType": "address",
                  "name": "cancellationReceiver",
                  "type": "address"
                },
                {
                  "internalType": "address",
                  "name": "callbackContract",
                  "type": "address"
                },
                {
                  "internalType": "address",
                  "name": "uiFeeReceiver",
                  "type": "address"
                },
                {
                  "internalType": "address",
                  "name": "market",
                  "type": "address"
                },
                {
                  "internalType": "address",
                  "name": "initialCollateralToken",
                  "type": "address"
                },
                {
                  "internalType": "address[]",
                  "name": "swapPath",
                  "type": "address[]"
                }
              ],
              "internalType": "struct Order.Addresses",
              "name": "addresses",
              "type": "tuple"
            },
            {
              "components": [
                {
                  "internalType": "enum Order.OrderType",
                  "name": "orderType",
                  "type": "uint8"
                },
                {
                  "internalType": "enum Order.DecreasePositionSwapType",
                  "name": "decreasePositionSwapType",
                  "type": "uint8"
                },
                {
                  "internalType": "uint256",
                  "name": "sizeDeltaUsd",
                  "type": "uint256"
                },
                {
                  "internalType": "uint256",
                  "name": "initialCollateralDeltaAmount",
                  "type": "uint256"
                },
                {
                  "internalType": "uint256",
                  "name": "triggerPrice",
                  "type": "uint256"
                },
                {
                  "internalType": "uint256",
                  "name": "acceptablePrice",
                  "type": "uint256"
                },
                {
                  "internalType": "uint256",
                  "name": "executionFee",
                  "type": "uint256"
                },
                {
                  "internalType": "uint256",
                  "name": "callbackGasLimit",
                  "type": "uint256"
                },
                {
                  "internalType": "uint256",
                  "name": "minOutputAmount",
                  "type": "uint256"
                },
                {
                  "internalType": "uint256",
                  "name": "updatedAtBlock",
                  "type": "uint256"
                },
                {
                  "internalType": "uint256",
                  "name": "updatedAtTime",
                  "type": "uint256"
                }
              ],
              "internalType": "struct Order.Numbers",
              "name": "numbers",
              "type": "tuple"
            },
            {
              "components": [
                {
                  "internalType": "bool",
                  "name": "isLong",
                  "type": "bool"
                },
                {
                  "internalType": "bool",
                  "name": "shouldUnwrapNativeToken",
                  "type": "bool"
                },
                {
                  "internalType": "bool",
                  "name": "isFrozen",
                  "type": "bool"
                },
                {
                  "internalType": "bool",
                  "name": "autoCancel",
                  "type": "bool"
                }
              ],
              "internalType": "struct Order.Flags",
              "name": "flags",
              "type": "tuple"
            }
          ],
          "internalType": "struct Order.Props",
          "name": "order",
          "type": "tuple"
        },
        {
          "components": [
            {
              "components": [
                {
                  "components": [
                    {
                      "internalType": "string",
                      "name": "key",
                      "type": "string"
                    },
                    {
                      "internalType": "address",
                      "name": "value",
                      "type": "address"
                    }
                  ],
                  "internalType": "struct EventUtils.AddressKeyValue[]",
                  "name": "items",
                  "type": "tuple[]"
                },
                {
                  "components": [
                    {
                      "internalType": "string",
                      "name": "key",
                      "type": "string"
                    },
                    {
                      "internalType": "address[]",
                      "name": "value",
                      "type": "address[]"
                    }
                  ],
                  "internalType": "struct EventUtils.AddressArrayKeyValue[]",
                  "name": "arrayItems",
                  "type": "tuple[]"
                }
              ],
              "internalType": "struct EventUtils.AddressItems",
              "name": "addressItems",
              "type": "tuple"
            },
            {
              "components": [
                {
                  "components": [
                    {
                      "internalType": "string",
                      "name": "key",
                      "type": "string"
                    },
                    {
                      "internalType": "uint256",
                      "name": "value",
                      "type": "uint256"
                    }
                  ],
                  "internalType": "struct EventUtils.UintKeyValue[]",
                  "name": "items",
                  "type": "tuple[]"
                },
                {
                  "components": [
                    {
                      "internalType": "string",
                      "name": "key",
                      "type": "string"
                    },
                    {
                      "internalType": "uint256[]",
                      "name": "value",
                      "type": "uint256[]"
                    }
                  ],
                  "internalType": "struct EventUtils.UintArrayKeyValue[]",
                  "name": "arrayItems",
                  "type": "tuple[]"
                }
              ],
              "internalType": "struct EventUtils.UintItems",
              "name": "uintItems",
              "type": "tuple"
            },
            {
              "components": [
                {
                  "components": [
                    {
                      "internalType": "string",
                      "name": "key",
                      "type": "string"
                    },
                    {
                      "internalType": "int256",
                      "name": "value",
                      "type": "int256"
                    }
                  ],
                  "internalType": "struct EventUtils.IntKeyValue[]",
                  "name": "items",
                  "type": "tuple[]"
                },
                {
                  "components": [
                    {
                      "internalType": "string",
                      "name": "key",
                      "type": "string"
                    },
                    {
                      "internalType": "int256[]",
                      "name": "value",
                      "type": "int256[]"
                    }
                  ],
                  "internalType": "struct EventUtils.IntArrayKeyValue[]",
                  "name": "arrayItems",
                  "type": "tuple[]"
                }
              ],
              "internalType": "struct EventUtils.IntItems",
              "name": "intItems",
              "type": "tuple"
            },
            {
              "components": [
                {
                  "components": [
                    {
                      "internalType": "string",
                      "name": "key",
                      "type": "string"
                    },
                    {
                      "internalType": "bool",
                      "name": "value",
                      "type": "bool"
                    }
                  ],
                  "internalType": "struct EventUtils.BoolKeyValue[]",
                  "name": "items",
                  "type": "tuple[]"
                },
                {
                  "components": [
                    {
                      "internalType": "string",
                      "name": "key",
                      "type": "string"
                    },
                    {
                      "internalType": "bool[]",
                      "name": "value",
                      "type": "bool[]"
                    }
                  ],
                  "internalType": "struct EventUtils.BoolArrayKeyValue[]",
                  "name": "arrayItems",
                  "type": "tuple[]"
                }
              ],
              "internalType": "struct EventUtils.BoolItems",
              "name": "boolItems",
              "type": "tuple"
            },
            {
              "components": [
                {
                  "components": [
                    {
                      "internalType": "string",
                      "name": "key",
                      "type": "string"
                    },
                    {
                      "internalType": "bytes32",
                      "name": "value",
                      "type": "bytes32"
                    }
                  ],
                  "internalType": "struct EventUtils.Bytes32KeyValue[]",
                  "name": "items",
                  "type": "tuple[]"
                },
                {
                  "components": [
                    {
                      "internalType": "string",
                      "name": "key",
                      "type": "string"
                    },
                    {
                      "internalType": "bytes32[]",
                      "name": "value",
                      "type": "bytes32[]"
                    }
                  ],
                  "internalType": "struct EventUtils.Bytes32ArrayKeyValue[]",
                  "name": "arrayItems",
                  "type": "tuple[]"
                }
              ],
              "internalType": "struct EventUtils.Bytes32Items",
              "name": "bytes32Items",
              "type": "tuple"
            },
            {
              "components": [
                {
                  "components": [
                    {
                      "internalType": "string",
                      "name": "key",
                      "type": "string"
                    },
                    {
                      "internalType": "bytes",
                      "name": "value",
                      "type": "bytes"
                    }
                  ],
                  "internalType": "struct EventUtils.BytesKeyValue[]",
                  "name": "items",
                  "type": "tuple[]"
                },
                {
                  "components": [
                    {
                      "internalType": "string",
                      "name": "key",
                      "type": "string"
                    },
                    {
                      "internalType": "bytes[]",
                      "name": "value",
                      "type": "bytes[]"
                    }
                  ],
                  "internalType": "struct EventUtils.BytesArrayKeyValue[]",
                  "name": "arrayItems",
                  "type": "tuple[]"
                }
              ],
              "internalType": "struct EventUtils.BytesItems",
              "name": "bytesItems",
              "type": "tuple"
            },
            {
              "components": [
                {
                  "components": [
                    {
                      "internalType": "string",
                      "name": "key",
                      "type": "string"
                    },
                    {
                      "internalType": "string",
                      "name": "value",
                      "type": "string"
                    }
                  ],
                  "internalType": "struct EventUtils.StringKeyValue[]",
                  "name": "items",
                  "type": "tuple[]"
                },
                {
                  "components": [
                    {
                      "internalType": "string",
                      "name": "key",
                      "type": "string"
                    },
                    {
                      "internalType": "string[]",
                      "name": "value",
                      "type": "string[]"
                    }
                  ],
                  "internalType": "struct EventUtils.StringArrayKeyValue[]",
                  "name": "arrayItems",
                  "type": "tuple[]"
                }
              ],
              "internalType": "struct EventUtils.StringItems",
              "name": "stringItems",
              "type": "tuple"
            }
          ],
          "internalType": "struct EventUtils.EventLogData",
          "name": "eventData",
          "type": "tuple"
        }
      ],
      "name": "afterOrderExecution",
      "outputs": [],
      "stateMutability": "nonpayable",
      "type": "function"
    },
    {
      "inputs": [
        {
          "internalType": "bytes32",
          "name": "key",
          "type": "bytes32"
        },
        {
          "components": [
            {
              "components": [
                {
                  "internalType": "address",
                  "name": "account",
                  "type": "address"
                },
                {
                  "internalType": "address",
                  "name": "receiver",
                  "type": "address"
                },
                {
                  "internalType": "address",
                  "name": "cancellationReceiver",
                  "type": "address"
                },
                {
                  "internalType": "address",
                  "name": "callbackContract",
                  "type": "address"
                },
                {
                  "internalType": "address",
                  "name": "uiFeeReceiver",
                  "type": "address"
                },
                {
                  "internalType": "address",
                  "name": "market",
                  "type": "address"
                },
                {
                  "internalType": "address",
                  "name": "initialCollateralToken",
                  "type": "address"
                },
                {
                  "internalType": "address[]",
                  "name": "swapPath",
                  "type": "address[]"
                }
              ],
              "internalType": "struct Order.Addresses",
              "name": "addresses",
              "type": "tuple"
            },
            {
              "components": [
                {
                  "internalType": "enum Order.OrderType",
                  "name": "orderType",
                  "type": "uint8"
                },
                {
                  "internalType": "enum Order.DecreasePositionSwapType",
                  "name": "decreasePositionSwapType",
                  "type": "uint8"
                },
                {
                  "internalType": "uint256",
                  "name": "sizeDeltaUsd",
                  "type": "uint256"
                },
                {
                  "internalType": "uint256",
                  "name": "initialCollateralDeltaAmount",
                  "type": "uint256"
                },
                {
                  "internalType": "uint256",
                  "name": "triggerPrice",
                  "type": "uint256"
                },
                {
                  "internalType": "uint256",
                  "name": "acceptablePrice",
                  "type": "uint256"
                },
                {
                  "internalType": "uint256",
                  "name": "executionFee",
                  "type": "uint256"
                },
                {
                  "internalType": "uint256",
                  "name": "callbackGasLimit",
                  "type": "uint256"
                },
                {
                  "internalType": "uint256",
                  "name": "minOutputAmount",
                  "type": "uint256"
                },
                {
                  "internalType": "uint256",
                  "name": "updatedAtBlock",
                  "type": "uint256"
                },
                {
                  "internalType": "uint256",
                  "name": "updatedAtTime",
                  "type": "uint256"
                }
              ],
              "internalType": "struct Order.Numbers",
              "name": "numbers",
              "type": "tuple"
            },
            {
              "components": [
                {
                  "internalType": "bool",
                  "name": "isLong",
                  "type": "bool"
                },
                {
                  "internalType": "bool",
                  "name": "shouldUnwrapNativeToken",
                  "type": "bool"
                },
                {
                  "internalType": "bool",
                  "name": "isFrozen",
                  "type": "bool"
                },
                {
                  "internalType": "bool",
                  "name": "autoCancel",
                  "type": "bool"
                }
              ],
              "internalType": "struct Order.Flags",
              "name": "flags",
              "type": "tuple"
            }
          ],
          "internalType": "struct Order.Props",
          "name": "order",
          "type": "tuple"
        },
        {
          "components": [
            {
              "components": [
                {
                  "components": [
                    {
                      "internalType": "string",
                      "name": "key",
                      "type": "string"
                    },
                    {
                      "internalType": "address",
                      "name": "value",
                      "type": "address"
                    }
                  ],
                  "internalType": "struct EventUtils.AddressKeyValue[]",
                  "name": "items",
                  "type": "tuple[]"
                },
                {
                  "components": [
                    {
                      "internalType": "string",
                      "name": "key",
                      "type": "string"
                    },
                    {
                      "internalType": "address[]",
                      "name": "value",
                      "type": "address[]"
                    }
                  ],
                  "internalType": "struct EventUtils.AddressArrayKeyValue[]",
                  "name": "arrayItems",
                  "type": "tuple[]"
                }
              ],
              "internalType": "struct EventUtils.AddressItems",
              "name": "addressItems",
              "type": "tuple"
            },
            {
              "components": [
                {
                  "components": [
                    {
                      "internalType": "string",
                      "name": "key",
                      "type": "string"
                    },
                    {
                      "internalType": "uint256",
                      "name": "value",
                      "type": "uint256"
                    }
                  ],
                  "internalType": "struct EventUtils.UintKeyValue[]",
                  "name": "items",
                  "type": "tuple[]"
                },
                {
                  "components": [
                    {
                      "internalType": "string",
                      "name": "key",
                      "type": "string"
                    },
                    {
                      "internalType": "uint256[]",
                      "name": "value",
                      "type": "uint256[]"
                    }
                  ],
                  "internalType": "struct EventUtils.UintArrayKeyValue[]",
                  "name": "arrayItems",
                  "type": "tuple[]"
                }
              ],
              "internalType": "struct EventUtils.UintItems",
              "name": "uintItems",
              "type": "tuple"
            },
            {
              "components": [
                {
                  "components": [
                    {
                      "internalType": "string",
                      "name": "key",
                      "type": "string"
                    },
                    {
                      "internalType": "int256",
                      "name": "value",
                      "type": "int256"
                    }
                  ],
                  "internalType": "struct EventUtils.IntKeyValue[]",
                  "name": "items",
                  "type": "tuple[]"
                },
                {
                  "components": [
                    {
                      "internalType": "string",
                      "name": "key",
                      "type": "string"
                    },
                    {
                      "internalType": "int256[]",
                      "name": "value",
                      "type": "int256[]"
                    }
                  ],
                  "internalType": "struct EventUtils.IntArrayKeyValue[]",
                  "name": "arrayItems",
                  "type": "tuple[]"
                }
              ],
              "internalType": "struct EventUtils.IntItems",
              "name": "intItems",
              "type": "tuple"
            },
            {
              "components": [
                {
                  "components": [
                    {
                      "internalType": "string",
                      "name": "key",
                      "type": "string"
                    },
                    {
                      "internalType": "bool",
                      "name": "value",
                      "type": "bool"
                    }
                  ],
                  "internalType": "struct EventUtils.BoolKeyValue[]",
                  "name": "items",
                  "type": "tuple[]"
                },
                {
                  "components": [
                    {
                      "internalType": "string",
                      "name": "key",
                      "type": "string"
                    },
                    {
                      "internalType": "bool[]",
                      "name": "value",
                      "type": "bool[]"
                    }
                  ],
                  "internalType": "struct EventUtils.BoolArrayKeyValue[]",
                  "name": "arrayItems",
                  "type": "tuple[]"
                }
              ],
              "internalType": "struct EventUtils.BoolItems",
              "name": "boolItems",
              "type": "tuple"
            },
            {
              "components": [
                {
                  "components": [
                    {
                      "internalType": "string",
                      "name": "key",
                      "type": "string"
                    },
                    {
                      "internalType": "bytes32",
                      "name": "value",
                      "type": "bytes32"
                    }
                  ],
                  "internalType": "struct EventUtils.Bytes32KeyValue[]",
                  "name": "items",
                  "type": "tuple[]"
                },
                {
                  "components": [
                    {
                      "internalType": "string",
                      "name": "key",
                      "type": "string"
                    },
                    {
                      "internalType": "bytes32[]",
                      "name": "value",
                      "type": "bytes32[]"
                    }
                  ],
                  "internalType": "struct EventUtils.Bytes32ArrayKeyValue[]",
                  "name": "arrayItems",
                  "type": "tuple[]"
                }
              ],
              "internalType": "struct EventUtils.Bytes32Items",
              "name": "bytes32Items",
              "type": "tuple"
            },
            {
              "components": [
                {
                  "components": [
                    {
                      "internalType": "string",
                      "name": "key",
                      "type": "string"
                    },
                    {
                      "internalType": "bytes",
                      "name": "value",
                      "type": "bytes"
                    }
                  ],
                  "internalType": "struct EventUtils.BytesKeyValue[]",
                  "name": "items",
                  "type": "tuple[]"
                },
                {
                  "components": [
                    {
                      "internalType": "string",
                      "name": "key",
                      "type": "string"
                    },
                    {
                      "internalType": "bytes[]",
                      "name": "value",
                      "type": "bytes[]"
                    }
                  ],
                  "internalType": "struct EventUtils.BytesArrayKeyValue[]",
                  "name": "arrayItems",
                  "type": "tuple[]"
                }
              ],
              "internalType": "struct EventUtils.BytesItems",
              "name": "bytesItems",
              "type": "tuple"
            },
            {
              "components": [
                {
                  "components": [
                    {
                      "internalType": "string",
                      "name": "key",
                      "type": "string"
                    },
                    {
                      "internalType": "string",
                      "name": "value",
                      "type": "string"
                    }
                  ],
                  "internalType": "struct EventUtils.StringKeyValue[]",
                  "name": "items",
                  "type": "tuple[]"
                },
                {
                  "components": [
                    {
                      "internalType": "string",
                      "name": "key",
                      "type": "string"
                    },
                    {
                      "internalType": "string[]",
                      "name": "value",
                      "type": "string[]"
                    }
                  ],
                  "internalType": "struct EventUtils.StringArrayKeyValue[]",
                  "name": "arrayItems",
                  "type": "tuple[]"
                }
              ],
              "internalType": "struct EventUtils.StringItems",
              "name": "stringItems",
              "type": "tuple"
            }
          ],
          "internalType": "struct EventUtils.EventLogData",
          "name": "eventData",
          "type": "tuple"
        }
      ],
      "name": "afterOrderFrozen",
      "outputs": [],
      "stateMutability": "nonpayable",
      "type": "function"
    },
    {
      "inputs": [
        {
          "internalType": "bytes32",
          "name": "key",
          "type": "bytes32"
        },
        {
          "components": [
            {
              "components": [
                {
                  "internalType": "address",
                  "name": "account",
                  "type": "address"
                },
                {
                  "internalType": "address",
                  "name": "receiver",
                  "type": "address"
                },
                {
                  "internalType": "address",
                  "name": "callbackContract",
                  "type": "address"
                },
                {
                  "internalType": "address",
                  "name": "uiFeeReceiver",
                  "type": "address"
                },
                {
                  "internalType": "address",
                  "name": "market",
                  "type": "address"
                },
                {
                  "internalType": "address[]",
                  "name": "longTokenSwapPath",
                  "type": "address[]"
                },
                {
                  "internalType": "address[]",
                  "name": "shortTokenSwapPath",
                  "type": "address[]"
                }
              ],
              "internalType": "struct Withdrawal.Addresses",
              "name": "addresses",
              "type": "tuple"
            },
            {
              "components": [
                {
                  "internalType": "uint256",
                  "name": "marketTokenAmount",
                  "type": "uint256"
                },
                {
                  "internalType": "uint256",
                  "name": "minLongTokenAmount",
                  "type": "uint256"
                },
                {
                  "internalType": "uint256",
                  "name": "minShortTokenAmount",
                  "type": "uint256"
                },
                {
                  "internalType": "uint256",
                  "name": "updatedAtBlock",
                  "type": "uint256"
                },
                {
                  "internalType": "uint256",
                  "name": "updatedAtTime",
                  "type": "uint256"
                },
                {
                  "internalType": "uint256",
                  "name": "executionFee",
                  "type": "uint256"
                },
                {
                  "internalType": "uint256",
                  "name": "callbackGasLimit",
                  "type": "uint256"
                }
              ],
              "internalType": "struct Withdrawal.Numbers",
              "name": "numbers",
              "type": "tuple"
            },
            {
              "components": [
                {
                  "internalType": "bool",
                  "name": "shouldUnwrapNativeToken",
                  "type": "bool"
                }
              ],
              "internalType": "struct Withdrawal.Flags",
              "name": "flags",
              "type": "tuple"
            }
          ],
          "internalType": "struct Withdrawal.Props",
          "name": "withdrawal",
          "type": "tuple"
        },
        {
          "components": [
            {
              "components": [
                {
                  "components": [
                    {
                      "internalType": "string",
                      "name": "key",
                      "type": "string"
                    },
                    {
                      "internalType": "address",
                      "name": "value",
                      "type": "address"
                    }
                  ],
                  "internalType": "struct EventUtils.AddressKeyValue[]",
                  "name": "items",
                  "type": "tuple[]"
                },
                {
                  "components": [
                    {
                      "internalType": "string",
                      "name": "key",
                      "type": "string"
                    },
                    {
                      "internalType": "address[]",
                      "name": "value",
                      "type": "address[]"
                    }
                  ],
                  "internalType": "struct EventUtils.AddressArrayKeyValue[]",
                  "name": "arrayItems",
                  "type": "tuple[]"
                }
              ],
              "internalType": "struct EventUtils.AddressItems",
              "name": "addressItems",
              "type": "tuple"
            },
            {
              "components": [
                {
                  "components": [
                    {
                      "internalType": "string",
                      "name": "key",
                      "type": "string"
                    },
                    {
                      "internalType": "uint256",
                      "name": "value",
                      "type": "uint256"
                    }
                  ],
                  "internalType": "struct EventUtils.UintKeyValue[]",
                  "name": "items",
                  "type": "tuple[]"
                },
                {
                  "components": [
                    {
                      "internalType": "string",
                      "name": "key",
                      "type": "string"
                    },
                    {
                      "internalType": "uint256[]",
                      "name": "value",
                      "type": "uint256[]"
                    }
                  ],
                  "internalType": "struct EventUtils.UintArrayKeyValue[]",
                  "name": "arrayItems",
                  "type": "tuple[]"
                }
              ],
              "internalType": "struct EventUtils.UintItems",
              "name": "uintItems",
              "type": "tuple"
            },
            {
              "components": [
                {
                  "components": [
                    {
                      "internalType": "string",
                      "name": "key",
                      "type": "string"
                    },
                    {
                      "internalType": "int256",
                      "name": "value",
                      "type": "int256"
                    }
                  ],
                  "internalType": "struct EventUtils.IntKeyValue[]",
                  "name": "items",
                  "type": "tuple[]"
                },
                {
                  "components": [
                    {
                      "internalType": "string",
                      "name": "key",
                      "type": "string"
                    },
                    {
                      "internalType": "int256[]",
                      "name": "value",
                      "type": "int256[]"
                    }
                  ],
                  "internalType": "struct EventUtils.IntArrayKeyValue[]",
                  "name": "arrayItems",
                  "type": "tuple[]"
                }
              ],
              "internalType": "struct EventUtils.IntItems",
              "name": "intItems",
              "type": "tuple"
            },
            {
              "components": [
                {
                  "components": [
                    {
                      "internalType": "string",
                      "name": "key",
                      "type": "string"
                    },
                    {
                      "internalType": "bool",
                      "name": "value",
                      "type": "bool"
                    }
                  ],
                  "internalType": "struct EventUtils.BoolKeyValue[]",
                  "name": "items",
                  "type": "tuple[]"
                },
                {
                  "components": [
                    {
                      "internalType": "string",
                      "name": "key",
                      "type": "string"
                    },
                    {
                      "internalType": "bool[]",
                      "name": "value",
                      "type": "bool[]"
                    }
                  ],
                  "internalType": "struct EventUtils.BoolArrayKeyValue[]",
                  "name": "arrayItems",
                  "type": "tuple[]"
                }
              ],
              "internalType": "struct EventUtils.BoolItems",
              "name": "boolItems",
              "type": "tuple"
            },
            {
              "components": [
                {
                  "components": [
                    {
                      "internalType": "string",
                      "name": "key",
                      "type": "string"
                    },
                    {
                      "internalType": "bytes32",
                      "name": "value",
                      "type": "bytes32"
                    }
                  ],
                  "internalType": "struct EventUtils.Bytes32KeyValue[]",
                  "name": "items",
                  "type": "tuple[]"
                },
                {
                  "components": [
                    {
                      "internalType": "string",
                      "name": "key",
                      "type": "string"
                    },
                    {
                      "internalType": "bytes32[]",
                      "name": "value",
                      "type": "bytes32[]"
                    }
                  ],
                  "internalType": "struct EventUtils.Bytes32ArrayKeyValue[]",
                  "name": "arrayItems",
                  "type": "tuple[]"
                }
              ],
              "internalType": "struct EventUtils.Bytes32Items",
              "name": "bytes32Items",
              "type": "tuple"
            },
            {
              "components": [
                {
                  "components": [
                    {
                      "internalType": "string",
                      "name": "key",
                      "type": "string"
                    },
                    {
                      "internalType": "bytes",
                      "name": "value",
                      "type": "bytes"
                    }
                  ],
                  "internalType": "struct EventUtils.BytesKeyValue[]",
                  "name": "items",
                  "type": "tuple[]"
                },
                {
                  "components": [
                    {
                      "internalType": "string",
                      "name": "key",
                      "type": "string"
                    },
                    {
                      "internalType": "bytes[]",
                      "name": "value",
                      "type": "bytes[]"
                    }
                  ],
                  "internalType": "struct EventUtils.BytesArrayKeyValue[]",
                  "name": "arrayItems",
                  "type": "tuple[]"
                }
              ],
              "internalType": "struct EventUtils.BytesItems",
              "name": "bytesItems",
              "type": "tuple"
            },
            {
              "components": [
                {
                  "components": [
                    {
                      "internalType": "string",
                      "name": "key",
                      "type": "string"
                    },
                    {
                      "internalType": "string",
                      "name": "value",
                      "type": "string"
                    }
                  ],
                  "internalType": "struct EventUtils.StringKeyValue[]",
                  "name": "items",
                  "type": "tuple[]"
                },
                {
                  "components": [
                    {
                      "internalType": "string",
                      "name": "key",
                      "type": "string"
                    },
                    {
                      "internalType": "string[]",
                      "name": "value",
                      "type": "string[]"
                    }
                  ],
                  "internalType": "struct EventUtils.StringArrayKeyValue[]",
                  "name": "arrayItems",
                  "type": "tuple[]"
                }
              ],
              "internalType": "struct EventUtils.StringItems",
              "name": "stringItems",
              "type": "tuple"
            }
          ],
          "internalType": "struct EventUtils.EventLogData",
          "name": "eventData",
          "type": "tuple"
        }
      ],
      "name": "afterWithdrawalCancellation",
      "outputs": [],
      "stateMutability": "nonpayable",
      "type": "function"
    },
    {
      "inputs": [
        {
          "internalType": "bytes32",
          "name": "key",
          "type": "bytes32"
        },
        {
          "components": [
            {
              "components": [
                {
                  "internalType": "address",
                  "name": "account",
                  "type": "address"
                },
                {
                  "internalType": "address",
                  "name": "receiver",
                  "type": "address"
                },
                {
                  "internalType": "address",
                  "name": "callbackContract",
                  "type": "address"
                },
                {
                  "internalType": "address",
                  "name": "uiFeeReceiver",
                  "type": "address"
                },
                {
                  "internalType": "address",
                  "name": "market",
                  "type": "address"
                },
                {
                  "internalType": "address[]",
                  "name": "longTokenSwapPath",
                  "type": "address[]"
                },
                {
                  "internalType": "address[]",
                  "name": "shortTokenSwapPath",
                  "type": "address[]"
                }
              ],
              "internalType": "struct Withdrawal.Addresses",
              "name": "addresses",
              "type": "tuple"
            },
            {
              "components": [
                {
                  "internalType": "uint256",
                  "name": "marketTokenAmount",
                  "type": "uint256"
                },
                {
                  "internalType": "uint256",
                  "name": "minLongTokenAmount",
                  "type": "uint256"
                },
                {
                  "internalType": "uint256",
                  "name": "minShortTokenAmount",
                  "type": "uint256"
                },
                {
                  "internalType": "uint256",
                  "name": "updatedAtBlock",
                  "type": "uint256"
                },
                {
                  "internalType": "uint256",
                  "name": "updatedAtTime",
                  "type": "uint256"
                },
                {
                  "internalType": "uint256",
                  "name": "executionFee",
                  "type": "uint256"
                },
                {
                  "internalType": "uint256",
                  "name": "callbackGasLimit",
                  "type": "uint256"
                }
              ],
              "internalType": "struct Withdrawal.Numbers",
              "name": "numbers",
              "type": "tuple"
            },
            {
              "components": [
                {
                  "internalType": "bool",
                  "name": "shouldUnwrapNativeToken",
                  "type": "bool"
                }
              ],
              "internalType": "struct Withdrawal.Flags",
              "name": "flags",
              "type": "tuple"
            }
          ],
          "internalType": "struct Withdrawal.Props",
          "name": "withdrawal",
          "type": "tuple"
        },
        {
          "components": [
            {
              "components": [
                {
                  "components": [
                    {
                      "internalType": "string",
                      "name": "key",
                      "type": "string"
                    },
                    {
                      "internalType": "address",
                      "name": "value",
                      "type": "address"
                    }
                  ],
                  "internalType": "struct EventUtils.AddressKeyValue[]",
                  "name": "items",
                  "type": "tuple[]"
                },
                {
                  "components": [
                    {
                      "internalType": "string",
                      "name": "key",
                      "type": "string"
                    },
                    {
                      "internalType": "address[]",
                      "name": "value",
                      "type": "address[]"
                    }
                  ],
                  "internalType": "struct EventUtils.AddressArrayKeyValue[]",
                  "name": "arrayItems",
                  "type": "tuple[]"
                }
              ],
              "internalType": "struct EventUtils.AddressItems",
              "name": "addressItems",
              "type": "tuple"
            },
            {
              "components": [
                {
                  "components": [
                    {
                      "internalType": "string",
                      "name": "key",
                      "type": "string"
                    },
                    {
                      "internalType": "uint256",
                      "name": "value",
                      "type": "uint256"
                    }
                  ],
                  "internalType": "struct EventUtils.UintKeyValue[]",
                  "name": "items",
                  "type": "tuple[]"
                },
                {
                  "components": [
                    {
                      "internalType": "string",
                      "name": "key",
                      "type": "string"
                    },
                    {
                      "internalType": "uint256[]",
                      "name": "value",
                      "type": "uint256[]"
                    }
                  ],
                  "internalType": "struct EventUtils.UintArrayKeyValue[]",
                  "name": "arrayItems",
                  "type": "tuple[]"
                }
              ],
              "internalType": "struct EventUtils.UintItems",
              "name": "uintItems",
              "type": "tuple"
            },
            {
              "components": [
                {
                  "components": [
                    {
                      "internalType": "string",
                      "name": "key",
                      "type": "string"
                    },
                    {
                      "internalType": "int256",
                      "name": "value",
                      "type": "int256"
                    }
                  ],
                  "internalType": "struct EventUtils.IntKeyValue[]",
                  "name": "items",
                  "type": "tuple[]"
                },
                {
                  "components": [
                    {
                      "internalType": "string",
                      "name": "key",
                      "type": "string"
                    },
                    {
                      "internalType": "int256[]",
                      "name": "value",
                      "type": "int256[]"
                    }
                  ],
                  "internalType": "struct EventUtils.IntArrayKeyValue[]",
                  "name": "arrayItems",
                  "type": "tuple[]"
                }
              ],
              "internalType": "struct EventUtils.IntItems",
              "name": "intItems",
              "type": "tuple"
            },
            {
              "components": [
                {
                  "components": [
                    {
                      "internalType": "string",
                      "name": "key",
                      "type": "string"
                    },
                    {
                      "internalType": "bool",
                      "name": "value",
                      "type": "bool"
                    }
                  ],
                  "internalType": "struct EventUtils.BoolKeyValue[]",
                  "name": "items",
                  "type": "tuple[]"
                },
                {
                  "components": [
                    {
                      "internalType": "string",
                      "name": "key",
                      "type": "string"
                    },
                    {
                      "internalType": "bool[]",
                      "name": "value",
                      "type": "bool[]"
                    }
                  ],
                  "internalType": "struct EventUtils.BoolArrayKeyValue[]",
                  "name": "arrayItems",
                  "type": "tuple[]"
                }
              ],
              "internalType": "struct EventUtils.BoolItems",
              "name": "boolItems",
              "type": "tuple"
            },
            {
              "components": [
                {
                  "components": [
                    {
                      "internalType": "string",
                      "name": "key",
                      "type": "string"
                    },
                    {
                      "internalType": "bytes32",
                      "name": "value",
                      "type": "bytes32"
                    }
                  ],
                  "internalType": "struct EventUtils.Bytes32KeyValue[]",
                  "name": "items",
                  "type": "tuple[]"
                },
                {
                  "components": [
                    {
                      "internalType": "string",
                      "name": "key",
                      "type": "string"
                    },
                    {
                      "internalType": "bytes32[]",
                      "name": "value",
                      "type": "bytes32[]"
                    }
                  ],
                  "internalType": "struct EventUtils.Bytes32ArrayKeyValue[]",
                  "name": "arrayItems",
                  "type": "tuple[]"
                }
              ],
              "internalType": "struct EventUtils.Bytes32Items",
              "name": "bytes32Items",
              "type": "tuple"
            },
            {
              "components": [
                {
                  "components": [
                    {
                      "internalType": "string",
                      "name": "key",
                      "type": "string"
                    },
                    {
                      "internalType": "bytes",
                      "name": "value",
                      "type": "bytes"
                    }
                  ],
                  "internalType": "struct EventUtils.BytesKeyValue[]",
                  "name": "items",
                  "type": "tuple[]"
                },
                {
                  "components": [
                    {
                      "internalType": "string",
                      "name": "key",
                      "type": "string"
                    },
                    {
                      "internalType": "bytes[]",
                      "name": "value",
                      "type": "bytes[]"
                    }
                  ],
                  "internalType": "struct EventUtils.BytesArrayKeyValue[]",
                  "name": "arrayItems",
                  "type": "tuple[]"
                }
              ],
              "internalType": "struct EventUtils.BytesItems",
              "name": "bytesItems",
              "type": "tuple"
            },
            {
              "components": [
                {
                  "components": [
                    {
                      "internalType": "string",
                      "name": "key",
                      "type": "string"
                    },
                    {
                      "internalType": "string",
                      "name": "value",
                      "type": "string"
                    }
                  ],
                  "internalType": "struct EventUtils.StringKeyValue[]",
                  "name": "items",
                  "type": "tuple[]"
                },
                {
                  "components": [
                    {
                      "internalType": "string",
                      "name": "key",
                      "type": "string"
                    },
                    {
                      "internalType": "string[]",
                      "name": "value",
                      "type": "string[]"
                    }
                  ],
                  "internalType": "struct EventUtils.StringArrayKeyValue[]",
                  "name": "arrayItems",
                  "type": "tuple[]"
                }
              ],
              "internalType": "struct EventUtils.StringItems",
              "name": "stringItems",
              "type": "tuple"
            }
          ],
          "internalType": "struct EventUtils.EventLogData",
          "name": "eventData",
          "type": "tuple"
        }
      ],
      "name": "afterWithdrawalExecution",
      "outputs": [],
      "stateMutability": "nonpayable",
      "type": "function"
    },
    {
      "inputs": [],
      "name": "config",
      "outputs": [
        {
          "internalType": "address",
          "name": "vault",
          "type": "address"
        },
        {
          "internalType": "address",
          "name": "gmxPlugin",
          "type": "address"
        }
      ],
      "stateMutability": "view",
      "type": "function"
    },
    {
      "inputs": [
        {
          "internalType": "uint256",
          "name": "",
          "type": "uint256"
        }
      ],
      "name": "depositKeys",
      "outputs": [
        {
          "internalType": "bytes32",
          "name": "",
          "type": "bytes32"
        }
      ],
      "stateMutability": "view",
      "type": "function"
    },
    {
      "inputs": [
        {
          "internalType": "enum ICallbackContract.State",
          "name": "stateOption",
          "type": "uint8"
        }
      ],
      "name": "getKeys",
      "outputs": [
        {
          "internalType": "bytes32[]",
          "name": "",
          "type": "bytes32[]"
        }
      ],
      "stateMutability": "view",
      "type": "function"
    },
    {
      "inputs": [],
      "name": "getLockerStatus",
      "outputs": [
        {
          "internalType": "bool",
          "name": "",
          "type": "bool"
        }
      ],
      "stateMutability": "view",
      "type": "function"
    },
    {
      "inputs": [],
      "name": "getWithdrawalDatas",
      "outputs": [
        {
          "components": [
            {
              "internalType": "uint256",
              "name": "lpAmount",
              "type": "uint256"
            },
            {
              "internalType": "address",
              "name": "receiver",
              "type": "address"
            }
          ],
          "internalType": "struct GmxCallback.WithdrawalInfo[]",
          "name": "",
          "type": "tuple[]"
        }
      ],
      "stateMutability": "view",
      "type": "function"
    },
    {
      "inputs": [
        {
          "internalType": "uint256",
          "name": "",
          "type": "uint256"
        }
      ],
      "name": "orderKeys",
      "outputs": [
        {
          "internalType": "bytes32",
          "name": "",
          "type": "bytes32"
        }
      ],
      "stateMutability": "view",
      "type": "function"
    },
    {
      "inputs": [],
      "name": "owner",
      "outputs": [
        {
          "internalType": "address",
          "name": "",
          "type": "address"
        }
      ],
      "stateMutability": "view",
      "type": "function"
    },
    {
      "inputs": [
        {
          "internalType": "bytes32",
          "name": "key",
          "type": "bytes32"
        },
        {
          "components": [
            {
              "components": [
                {
                  "components": [
                    {
                      "internalType": "string",
                      "name": "key",
                      "type": "string"
                    },
                    {
                      "internalType": "address",
                      "name": "value",
                      "type": "address"
                    }
                  ],
                  "internalType": "struct EventUtils.AddressKeyValue[]",
                  "name": "items",
                  "type": "tuple[]"
                },
                {
                  "components": [
                    {
                      "internalType": "string",
                      "name": "key",
                      "type": "string"
                    },
                    {
                      "internalType": "address[]",
                      "name": "value",
                      "type": "address[]"
                    }
                  ],
                  "internalType": "struct EventUtils.AddressArrayKeyValue[]",
                  "name": "arrayItems",
                  "type": "tuple[]"
                }
              ],
              "internalType": "struct EventUtils.AddressItems",
              "name": "addressItems",
              "type": "tuple"
            },
            {
              "components": [
                {
                  "components": [
                    {
                      "internalType": "string",
                      "name": "key",
                      "type": "string"
                    },
                    {
                      "internalType": "uint256",
                      "name": "value",
                      "type": "uint256"
                    }
                  ],
                  "internalType": "struct EventUtils.UintKeyValue[]",
                  "name": "items",
                  "type": "tuple[]"
                },
                {
                  "components": [
                    {
                      "internalType": "string",
                      "name": "key",
                      "type": "string"
                    },
                    {
                      "internalType": "uint256[]",
                      "name": "value",
                      "type": "uint256[]"
                    }
                  ],
                  "internalType": "struct EventUtils.UintArrayKeyValue[]",
                  "name": "arrayItems",
                  "type": "tuple[]"
                }
              ],
              "internalType": "struct EventUtils.UintItems",
              "name": "uintItems",
              "type": "tuple"
            },
            {
              "components": [
                {
                  "components": [
                    {
                      "internalType": "string",
                      "name": "key",
                      "type": "string"
                    },
                    {
                      "internalType": "int256",
                      "name": "value",
                      "type": "int256"
                    }
                  ],
                  "internalType": "struct EventUtils.IntKeyValue[]",
                  "name": "items",
                  "type": "tuple[]"
                },
                {
                  "components": [
                    {
                      "internalType": "string",
                      "name": "key",
                      "type": "string"
                    },
                    {
                      "internalType": "int256[]",
                      "name": "value",
                      "type": "int256[]"
                    }
                  ],
                  "internalType": "struct EventUtils.IntArrayKeyValue[]",
                  "name": "arrayItems",
                  "type": "tuple[]"
                }
              ],
              "internalType": "struct EventUtils.IntItems",
              "name": "intItems",
              "type": "tuple"
            },
            {
              "components": [
                {
                  "components": [
                    {
                      "internalType": "string",
                      "name": "key",
                      "type": "string"
                    },
                    {
                      "internalType": "bool",
                      "name": "value",
                      "type": "bool"
                    }
                  ],
                  "internalType": "struct EventUtils.BoolKeyValue[]",
                  "name": "items",
                  "type": "tuple[]"
                },
                {
                  "components": [
                    {
                      "internalType": "string",
                      "name": "key",
                      "type": "string"
                    },
                    {
                      "internalType": "bool[]",
                      "name": "value",
                      "type": "bool[]"
                    }
                  ],
                  "internalType": "struct EventUtils.BoolArrayKeyValue[]",
                  "name": "arrayItems",
                  "type": "tuple[]"
                }
              ],
              "internalType": "struct EventUtils.BoolItems",
              "name": "boolItems",
              "type": "tuple"
            },
            {
              "components": [
                {
                  "components": [
                    {
                      "internalType": "string",
                      "name": "key",
                      "type": "string"
                    },
                    {
                      "internalType": "bytes32",
                      "name": "value",
                      "type": "bytes32"
                    }
                  ],
                  "internalType": "struct EventUtils.Bytes32KeyValue[]",
                  "name": "items",
                  "type": "tuple[]"
                },
                {
                  "components": [
                    {
                      "internalType": "string",
                      "name": "key",
                      "type": "string"
                    },
                    {
                      "internalType": "bytes32[]",
                      "name": "value",
                      "type": "bytes32[]"
                    }
                  ],
                  "internalType": "struct EventUtils.Bytes32ArrayKeyValue[]",
                  "name": "arrayItems",
                  "type": "tuple[]"
                }
              ],
              "internalType": "struct EventUtils.Bytes32Items",
              "name": "bytes32Items",
              "type": "tuple"
            },
            {
              "components": [
                {
                  "components": [
                    {
                      "internalType": "string",
                      "name": "key",
                      "type": "string"
                    },
                    {
                      "internalType": "bytes",
                      "name": "value",
                      "type": "bytes"
                    }
                  ],
                  "internalType": "struct EventUtils.BytesKeyValue[]",
                  "name": "items",
                  "type": "tuple[]"
                },
                {
                  "components": [
                    {
                      "internalType": "string",
                      "name": "key",
                      "type": "string"
                    },
                    {
                      "internalType": "bytes[]",
                      "name": "value",
                      "type": "bytes[]"
                    }
                  ],
                  "internalType": "struct EventUtils.BytesArrayKeyValue[]",
                  "name": "arrayItems",
                  "type": "tuple[]"
                }
              ],
              "internalType": "struct EventUtils.BytesItems",
              "name": "bytesItems",
              "type": "tuple"
            },
            {
              "components": [
                {
                  "components": [
                    {
                      "internalType": "string",
                      "name": "key",
                      "type": "string"
                    },
                    {
                      "internalType": "string",
                      "name": "value",
                      "type": "string"
                    }
                  ],
                  "internalType": "struct EventUtils.StringKeyValue[]",
                  "name": "items",
                  "type": "tuple[]"
                },
                {
                  "components": [
                    {
                      "internalType": "string",
                      "name": "key",
                      "type": "string"
                    },
                    {
                      "internalType": "string[]",
                      "name": "value",
                      "type": "string[]"
                    }
                  ],
                  "internalType": "struct EventUtils.StringArrayKeyValue[]",
                  "name": "arrayItems",
                  "type": "tuple[]"
                }
              ],
              "internalType": "struct EventUtils.StringItems",
              "name": "stringItems",
              "type": "tuple"
            }
          ],
          "internalType": "struct EventUtils.EventLogData",
          "name": "eventData",
          "type": "tuple"
        }
      ],
      "name": "refundExecutionFee",
      "outputs": [],
      "stateMutability": "payable",
      "type": "function"
    },
    {
      "inputs": [],
      "name": "renounceOwnership",
      "outputs": [],
      "stateMutability": "nonpayable",
      "type": "function"
    },
    {
      "inputs": [],
      "name": "roleStore",
      "outputs": [
        {
          "internalType": "contract IRoleStore",
          "name": "",
          "type": "address"
        }
      ],
      "stateMutability": "view",
      "type": "function"
    },
    {
      "inputs": [
        {
          "internalType": "address",
          "name": "_vault",
          "type": "address"
        },
        {
          "internalType": "address",
          "name": "_gmxPlugin",
          "type": "address"
        }
      ],
      "name": "setConfig",
      "outputs": [],
      "stateMutability": "nonpayable",
      "type": "function"
    },
    {
      "inputs": [
        {
          "internalType": "address",
          "name": "newOwner",
          "type": "address"
        }
      ],
      "name": "transferOwnership",
      "outputs": [],
      "stateMutability": "nonpayable",
      "type": "function"
    },
    {
      "inputs": [
        {
          "internalType": "address",
          "name": "token",
          "type": "address"
        },
        {
          "internalType": "address",
          "name": "_to",
          "type": "address"
        }
      ],
      "name": "withdrawStuckToken",
      "outputs": [],
      "stateMutability": "nonpayable",
      "type": "function"
    },
    {
      "inputs": [
        {
          "internalType": "bytes32",
          "name": "",
          "type": "bytes32"
        }
      ],
      "name": "withdrawalData",
      "outputs": [
        {
          "internalType": "uint256",
          "name": "lpAmount",
          "type": "uint256"
        },
        {
          "internalType": "address",
          "name": "receiver",
          "type": "address"
        }
      ],
      "stateMutability": "view",
      "type": "function"
    },
    {
      "inputs": [
        {
          "internalType": "uint256",
          "name": "",
          "type": "uint256"
        }
      ],
      "name": "withdrawalKeys",
      "outputs": [
        {
          "internalType": "bytes32",
          "name": "",
          "type": "bytes32"
        }
      ],
      "stateMutability": "view",
      "type": "function"
    },
    {
      "stateMutability": "payable",
      "type": "receive"
    }
  ],
  "transactionHash": "0x1972ab6e05f28b3f27e17fe2b950c15ebbe52e16d38e7980490c4867bba377f7",
  "args": [
    "0xd67Bb7Ae7a1e60Da8C732498C40a5aFC9d9E8331",
    "0x356d201Ea0657EC0216eCB2fE1bf16EaD8a1C000",
    "0x3c3d99FD298f679DBC2CEcd132b4eC4d0F5e6e72"
  ],
  "numDeployments": 1,
  "solcInputHash": "0ef295114f265618a9c049425a8fbb66",
  "bytecode": "0x60806040523480156200001157600080fd5b5060405162003a0838038062003a0883398101604081905262000034916200012a565b33806200005b57604051631e4fbdf760e01b81526000600482015260240160405180910390fd5b6200006681620000bd565b50604080518082019091526001600160a01b039384168082529284166020909101819052600280546001600160a01b0319908116909417905560038054841690911790556007805491909316911617905562000174565b600080546001600160a01b038381166001600160a01b0319831681178455604051919092169283917f8be0079c531659141344cd1fd0a4f28419497f9722a3daafe3b4186f6b6457e09190a35050565b80516001600160a01b03811681146200012557600080fd5b919050565b6000806000606084860312156200014057600080fd5b6200014b846200010d565b92506200015b602085016200010d565b91506200016b604085016200010d565b90509250925092565b61388480620001846000396000f3fe60806040526004361061014f5760003560e01c8063b602024b116100b6578063d72626a01161006f578063d72626a0146104b5578063ea9d9eba146104e2578063ef563ba514610504578063f0c0897514610529578063f2fde38b14610549578063fd77d1751461056957600080fd5b8063b602024b146103f5578063bc205ad314610415578063c4b2b98014610435578063c9ac221a14610455578063c9cbe54e14610475578063d3d3206d1461049557600080fd5b806372ccfa601161010857806372ccfa60146102d657806379502c55146102f65780638b9e55dc1461033d5780638da5cb5b1461035d5780639425ebd71461037b5780639883455a146103d557600080fd5b80632c99327a146102035780633c372240146102235780634a4a7b04146102365780634bdfb4a7146102735780636e325d5a146102a1578063715018a6146102c157600080fd5b366101fe576003546040516000916001600160a01b03169034908381818185875af1925050503d80600081146101a1576040519150601f19603f3d011682016040523d82523d6000602084013e6101a6565b606091505b50509050806101fc5760405162461bcd60e51b815260206004820152601b60248201527f5661756c743a204661696c656420746f2073656e64204574686572000000000060448201526064015b60405180910390fd5b005b600080fd5b34801561020f57600080fd5b506101fc61021e366004611d20565b610589565b6101fc610231366004612f78565b610721565b34801561024257600080fd5b50600754610256906001600160a01b031681565b6040516001600160a01b0390911681526020015b60405180910390f35b34801561027f57600080fd5b5061029361028e366004612fbe565b6107fd565b60405190815260200161026a565b3480156102ad57600080fd5b506102936102bc366004612fbe565b61081e565b3480156102cd57600080fd5b506101fc61082e565b3480156102e257600080fd5b506101fc6102f1366004613086565b610842565b34801561030257600080fd5b5060025460035461031d916001600160a01b03908116911682565b604080516001600160a01b0393841681529290911660208301520161026a565b34801561034957600080fd5b506101fc610358366004613323565b610aac565b34801561036957600080fd5b506000546001600160a01b0316610256565b34801561038757600080fd5b506103b8610396366004612fbe565b600160208190526000918252604090912080549101546001600160a01b031682565b604080519283526001600160a01b0390911660208301520161026a565b3480156103e157600080fd5b506102936103f0366004612fbe565b610c10565b34801561040157600080fd5b506101fc610410366004613455565b610c20565b34801561042157600080fd5b506101fc610430366004613455565b610cfc565b34801561044157600080fd5b506101fc610450366004613488565b610dcf565b34801561046157600080fd5b506101fc610470366004613086565b610f33565b34801561048157600080fd5b506101fc6104903660046135ff565b611150565b3480156104a157600080fd5b506101fc6104b0366004613323565b611288565b3480156104c157600080fd5b506104d56104d0366004613634565b6113e1565b60405161026a9190613651565b3480156104ee57600080fd5b506104f7611537565b60405161026a9190613695565b34801561051057600080fd5b5061051961162d565b604051901515815260200161026a565b34801561053557600080fd5b506101fc610544366004613323565b611651565b34801561055557600080fd5b506101fc6105643660046136ed565b6117b5565b34801561057557600080fd5b506101fc610584366004613488565b6117f3565b6003546001600160a01b031633146105b35760405162461bcd60e51b81526004016101f390613708565b60008160028111156105c7576105c7613730565b0361060657600480546001810182556000919091527f8a35acfbc15ff81a39ae7d344fd709f28e8600b4aa8c65c6b64bfe7fe36bd19b018290556106e4565b600181600281111561061a5761061a613730565b0361065957600580546001810182556000919091527f036b6384b5eca791c62761152d0c79bb0604c104a5fb6f4eb0703f3154bb3db0018290556106e4565b600281600281111561066d5761066d613730565b036106ac57600680546001810182556000919091527ff652222313e28459528d920b65115c16c04f3efc82aaedc97be59f3f377c0d3f018290556106e4565b60405162461bcd60e51b815260206004820152600d60248201526c496e76616c696420737461746560981b60448201526064016101f3565b7ffa9e2ad32f10f9e5cda0a77da71acc789402000c2f814bb86d20eb22f3262efa8282604051610715929190613746565b60405180910390a15050565b6003546040516000916001600160a01b03169034908381818185875af1925050503d806000811461076e576040519150601f19603f3d011682016040523d82523d6000602084013e610773565b606091505b50509050806107c45760405162461bcd60e51b815260206004820152601b60248201527f5661756c743a204661696c656420746f2073656e64204574686572000000000060448201526064016101f3565b6040518381527fad08d38067d1521fefe9857ce4ed71952a5713757dec322fd226fdbad7cc498b906020015b60405180910390a1505050565b6005818154811061080d57600080fd5b600091825260209091200154905081565b6006818154811061080d57600080fd5b610836611957565b6108406000611984565b565b6007546040516001600160a01b039091169063ac4ab3fb90339061086890602001613778565b604051602081830303815290604052805190602001206040518363ffffffff1660e01b81526004016108af9291906001600160a01b03929092168252602082015260400190565b602060405180830381865afa1580156108cc573d6000803e3d6000fd5b505050506040513d601f19601f820116820180604052508101906108f0919061379c565b61090c5760405162461bcd60e51b81526004016101f390613708565b6109178360016119d4565b600083815260016020818152604092839020835180850190945280548085529201546001600160a01b03169083015215801590610960575060208101516001600160a01b031615155b801561097f575060035460208201516001600160a01b03908116911614155b156109f1576002546020820151825160405162ac092b60e31b81526001600160a01b0392831660048201526024810191909152911690630560495890604401600060405180830381600087803b1580156109d857600080fd5b505af11580156109ec573d6000803e3d6000fd5b505050505b600084815260016020819052604080832083815590910180546001600160a01b0319169055600354815163a0390b6560e01b815291516001600160a01b039091169263a0390b65926004808201939182900301818387803b158015610a5557600080fd5b505af1158015610a69573d6000803e3d6000fd5b505050507f647b7f8e56f2fde1fb34c2c7d4554485630e35110aed67776a68373a88ddcfaf84604051610a9e91815260200190565b60405180910390a150505050565b6007546040516001600160a01b039091169063ac4ab3fb903390610ad290602001613778565b604051602081830303815290604052805190602001206040518363ffffffff1660e01b8152600401610b199291906001600160a01b03929092168252602082015260400190565b602060405180830381865afa158015610b36573d6000803e3d6000fd5b505050506040513d601f19601f82011682018060405250810190610b5a919061379c565b610b765760405162461bcd60e51b81526004016101f390613708565b610b818360026119d4565b6003546040805163a0390b6560e01b815290516001600160a01b039092169163a0390b659160048082019260009290919082900301818387803b158015610bc757600080fd5b505af1158015610bdb573d6000803e3d6000fd5b505050507f867ffda0e5bb2ebb3e1e5a3c36b1bf151e4a81bdcba0ff212c925676c9d539b0836040516107f091815260200190565b6004818154811061080d57600080fd5b610c28611957565b6001600160a01b03821615801590610c4857506001600160a01b03811615155b610c865760405162461bcd60e51b815260206004820152600f60248201526e496e76616c6964206164647265737360881b60448201526064016101f3565b6040805180820182526001600160a01b038481168083529084166020928301819052600280546001600160a01b0319908116841790915560038054909116821790558351918252918101919091527fbd7986d31c086d8cc2901a1c41d1edc0af6e8a7a5c6fc1b8283919c1b2122c389101610715565b610d04611957565b6001600160a01b038116610d495760405162461bcd60e51b815260206004820152600c60248201526b5a65726f206164647265737360a01b60448201526064016101f3565b6040516370a0823160e01b81523060048201526000906001600160a01b038416906370a0823190602401602060405180830381865afa158015610d90573d6000803e3d6000fd5b505050506040513d601f19601f82011682018060405250810190610db491906137b9565b9050610dca6001600160a01b0384168383611b21565b505050565b6007546040516001600160a01b039091169063ac4ab3fb903390610df590602001613778565b604051602081830303815290604052805190602001206040518363ffffffff1660e01b8152600401610e3c9291906001600160a01b03929092168252602082015260400190565b602060405180830381865afa158015610e59573d6000803e3d6000fd5b505050506040513d601f19601f82011682018060405250810190610e7d919061379c565b610e995760405162461bcd60e51b81526004016101f390613708565b610ea48360006119d4565b6003546040805163a0390b6560e01b815290516001600160a01b039092169163a0390b659160048082019260009290919082900301818387803b158015610eea57600080fd5b505af1158015610efe573d6000803e3d6000fd5b505050507f534f2e1de65a7ed10f06a08d2d9506ec9ea0028947f8468c9dd917d9afc59009836040516107f091815260200190565b6007546040516001600160a01b039091169063ac4ab3fb903390610f5990602001613778565b604051602081830303815290604052805190602001206040518363ffffffff1660e01b8152600401610fa09291906001600160a01b03929092168252602082015260400190565b602060405180830381865afa158015610fbd573d6000803e3d6000fd5b505050506040513d601f19601f82011682018060405250810190610fe1919061379c565b610ffd5760405162461bcd60e51b81526004016101f390613708565b6110088360016119d4565b600083815260016020818152604092839020835180850190945280548085529201546001600160a01b031690830152156110a357600254815160405163c6ef206160e01b81526001600160a01b039092169163c6ef2061916110709160040190815260200190565b600060405180830381600087803b15801561108a57600080fd5b505af115801561109e573d6000803e3d6000fd5b505050505b600084815260016020819052604080832083815590910180546001600160a01b0319169055600354815163a0390b6560e01b815291516001600160a01b039091169263a0390b65926004808201939182900301818387803b15801561110757600080fd5b505af115801561111b573d6000803e3d6000fd5b505050507f4cfcfdd4116883fe372a785a39365143ba97c05632799533e808c68c1b28830084604051610a9e91815260200190565b6003546001600160a01b0316331461117a5760405162461bcd60e51b81526004016101f390613708565b6000805b6005548110156111b957846005828154811061119c5761119c6137d2565b9060005260206000200154036111b157600191505b60010161117e565b50806112005760405162461bcd60e51b8152602060048201526016602482015275496e76616c6964207769746864726177616c206b657960501b60448201526064016101f3565b6040805180820182528481526001600160a01b03848116602080840182815260008a8152600180845290879020955186559051940180546001600160a01b03191694909316939093179091558251878152918201869052918101919091527fadf5e79ddb4270d747ffaaa4b83082f5f9aa8b086a74035da4971d89df13183c90606001610a9e565b6007546040516001600160a01b039091169063ac4ab3fb9033906112ae90602001613778565b604051602081830303815290604052805190602001206040518363ffffffff1660e01b81526004016112f59291906001600160a01b03929092168252602082015260400190565b602060405180830381865afa158015611312573d6000803e3d6000fd5b505050506040513d601f19601f82011682018060405250810190611336919061379c565b6113525760405162461bcd60e51b81526004016101f390613708565b6003546040805163a0390b6560e01b815290516001600160a01b039092169163a0390b659160048082019260009290919082900301818387803b15801561139857600080fd5b505af11580156113ac573d6000803e3d6000fd5b505050507f520cfa6e598812f1ed974c1c708f052107e417074d2a0669a32cd94d5fc009d0836040516107f091815260200190565b606060008260028111156113f7576113f7613730565b0361145457600480548060200260200160405190810160405280929190818152602001828054801561144857602002820191906000526020600020905b815481526020019060010190808311611434575b50505050509050919050565b600182600281111561146857611468613730565b036114c357600580548060200260200160405190810160405280929190818152602001828054801561144857602002820191906000526020600020908154815260200190600101908083116114345750505050509050919050565b60028260028111156114d7576114d7613730565b036106ac57600680548060200260200160405190810160405280929190818152602001828054801561144857602002820191906000526020600020908154815260200190600101908083116114345750505050509050919050565b919050565b6005546060906000816001600160401b0381111561155757611557611d50565b60405190808252806020026020018201604052801561159c57816020015b60408051808201909152600080825260208201528152602001906001900390816115755790505b50905060005b828110156116265760016000600583815481106115c1576115c16137d2565b600091825260208083209091015483528281019390935260409182019020815180830190925280548252600101546001600160a01b0316918101919091528251839083908110611613576116136137d2565b60209081029190910101526001016115a2565b5092915050565b6004546000901580156116405750600554155b801561164c5750600654155b905090565b6007546040516001600160a01b039091169063ac4ab3fb90339061167790602001613778565b604051602081830303815290604052805190602001206040518363ffffffff1660e01b81526004016116be9291906001600160a01b03929092168252602082015260400190565b602060405180830381865afa1580156116db573d6000803e3d6000fd5b505050506040513d601f19601f820116820180604052508101906116ff919061379c565b61171b5760405162461bcd60e51b81526004016101f390613708565b6117268360026119d4565b6003546040805163a0390b6560e01b815290516001600160a01b039092169163a0390b659160048082019260009290919082900301818387803b15801561176c57600080fd5b505af1158015611780573d6000803e3d6000fd5b505050507f1148d35dd3e6f9a7c7fc80cce18aaaade3fe8a73cfbf12680542bb1d4ae87e44836040516107f091815260200190565b6117bd611957565b6001600160a01b0381166117e757604051631e4fbdf760e01b8152600060048201526024016101f3565b6117f081611984565b50565b6007546040516001600160a01b039091169063ac4ab3fb90339061181990602001613778565b604051602081830303815290604052805190602001206040518363ffffffff1660e01b81526004016118609291906001600160a01b03929092168252602082015260400190565b602060405180830381865afa15801561187d573d6000803e3d6000fd5b505050506040513d601f19601f820116820180604052508101906118a1919061379c565b6118bd5760405162461bcd60e51b81526004016101f390613708565b6118c88360006119d4565b6003546040805163a0390b6560e01b815290516001600160a01b039092169163a0390b659160048082019260009290919082900301818387803b15801561190e57600080fd5b505af1158015611922573d6000803e3d6000fd5b505050507f74f1db4b2293888c98ccf92593c236bb7ccf14df68c1afc6ca91cf30f1ff4c72836040516107f091815260200190565b6000546001600160a01b031633146108405760405163118cdaa760e01b81523360048201526024016101f3565b600080546001600160a01b038381166001600160a01b0319831681178455604051919092169283917f8be0079c531659141344cd1fd0a4f28419497f9722a3daafe3b4186f6b6457e09190a35050565b6000808260028111156119e9576119e9613730565b036119f657506004611a34565b6001826002811115611a0a57611a0a613730565b03611a1757506005611a34565b6002826002811115611a2b57611a2b613730565b036106ac575060065b805460005b81811015611aef5784838281548110611a5457611a546137d2565b906000526020600020015403611ae757611a6f6001836137e8565b811015611abc5782611a826001846137e8565b81548110611a9257611a926137d2565b9060005260206000200154838281548110611aaf57611aaf6137d2565b6000918252602090912001555b82805480611acc57611acc613809565b60019003818190600052602060002001600090559055611aef565b600101611a39565b507feeba383458006e9011e8d73c3d28de67dcd557f07b3441ae6e8d059d91ac242e8484604051610a9e929190613746565b604080516001600160a01b03848116602483015260448083018590528351808403909101815260649092019092526020810180516001600160e01b031663a9059cbb60e01b179052610dca91859190600090611b7f90841683611bcd565b90508051600014158015611ba4575080806020019051810190611ba2919061379c565b155b15610dca57604051635274afe760e01b81526001600160a01b03841660048201526024016101f3565b6060611bdb83836000611be4565b90505b92915050565b606081471015611c095760405163cd78605960e01b81523060048201526024016101f3565b600080856001600160a01b03168486604051611c25919061381f565b60006040518083038185875af1925050503d8060008114611c62576040519150601f19603f3d011682016040523d82523d6000602084013e611c67565b606091505b5091509150611c77868383611c83565b925050505b9392505050565b606082611c9857611c9382611cdf565b611c7c565b8151158015611caf57506001600160a01b0384163b155b15611cd857604051639996b31560e01b81526001600160a01b03851660048201526024016101f3565b5080611c7c565b805115611cef5780518082602001fd5b604051630a12f52160e11b815260040160405180910390fd5b600381106117f057600080fd5b803561153281611d08565b60008060408385031215611d3357600080fd5b823591506020830135611d4581611d08565b809150509250929050565b634e487b7160e01b600052604160045260246000fd5b604080519081016001600160401b0381118282101715611d8857611d88611d50565b60405290565b60405160e081016001600160401b0381118282101715611d8857611d88611d50565b604051606081016001600160401b0381118282101715611d8857611d88611d50565b60405161016081016001600160401b0381118282101715611d8857611d88611d50565b60405161010081016001600160401b0381118282101715611d8857611d88611d50565b60405161012081016001600160401b0381118282101715611d8857611d88611d50565b604051601f8201601f191681016001600160401b0381118282101715611e6357611e63611d50565b604052919050565b60006001600160401b03821115611e8457611e84611d50565b5060051b60200190565b600082601f830112611e9f57600080fd5b81356001600160401b03811115611eb857611eb8611d50565b611ecb601f8201601f1916602001611e3b565b818152846020838601011115611ee057600080fd5b816020850160208301376000918101602001919091529392505050565b80356001600160a01b038116811461153257600080fd5b600082601f830112611f2557600080fd5b81356020611f3a611f3583611e6b565b611e3b565b8083825260208201915060208460051b870101935086841115611f5c57600080fd5b602086015b84811015611f7f57611f7281611efd565b8352918301918301611f61565b509695505050505050565b600082601f830112611f9b57600080fd5b81356020611fab611f3583611e6b565b82815260059290921b84018101918181019086841115611fca57600080fd5b8286015b84811015611f7f5780356001600160401b0380821115611fee5760008081fd5b908801906040828b03601f19018113156120085760008081fd5b612010611d66565b87840135838111156120225760008081fd5b6120308d8a83880101611e8e565b8252509083013590828211156120465760008081fd5b6120548c8984870101611f14565b818901528652505050918301918301611fce565b6000604080838503121561207b57600080fd5b612083611d66565b915082356001600160401b038082111561209c57600080fd5b818501915085601f8301126120b057600080fd5b813560206120c0611f3583611e6b565b82815260059290921b840181019181810190898411156120df57600080fd5b8286015b84811015612159578035868111156120fb5760008081fd5b8701808c03601f19018913156121115760008081fd5b612119611d66565b858201358881111561212b5760008081fd5b6121398e8883860101611e8e565b8252506121478a8301611efd565b818701528452509183019183016120e3565b508752508681013594508285111561217057600080fd5b61217c88868901611f8a565b81870152505050505092915050565b600082601f83011261219c57600080fd5b813560206121ac611f3583611e6b565b828152600592831b85018201928282019190878511156121cb57600080fd5b8387015b858110156122c05780356001600160401b03808211156121ef5760008081fd5b908901906040828c03601f19018113156122095760008081fd5b612211611d66565b88840135838111156122235760008081fd5b6122318e8b83880101611e8e565b82525081840135838111156122465760008081fd5b8085019450508c603f85011261225e57600092508283fd5b888401359250612270611f3584611e6b565b83815292861b8401820192898101908e85111561228d5760008081fd5b948301945b848610156122ab5785358252948a0194908a0190612292565b828b01525087525050509284019284016121cf565b5090979650505050505050565b600060408083850312156122e057600080fd5b6122e8611d66565b915082356001600160401b038082111561230157600080fd5b818501915085601f83011261231557600080fd5b81356020612325611f3583611e6b565b82815260059290921b8401810191818101908984111561234457600080fd5b8286015b848110156123b6578035868111156123605760008081fd5b8701808c03601f19018913156123765760008081fd5b61237e611d66565b85820135888111156123905760008081fd5b61239e8e8883860101611e8e565b82525090890135858201528352918301918301612348565b50875250868101359450828511156123cd57600080fd5b61217c8886890161218b565b600060408083850312156123ec57600080fd5b6123f4611d66565b915082356001600160401b038082111561240d57600080fd5b818501915085601f83011261242157600080fd5b81356020612431611f3583611e6b565b82815260059290921b8401810191818101908984111561245057600080fd5b8286015b848110156123b65780358681111561246c5760008081fd5b8701808c03601f19018913156124825760008081fd5b61248a611d66565b858201358881111561249c5760008081fd5b6124aa8e8883860101611e8e565b82525090890135858201528352918301918301612454565b80151581146117f057600080fd5b600082601f8301126124e157600080fd5b813560206124f1611f3583611e6b565b828152600592831b850182019282820191908785111561251057600080fd5b8387015b858110156122c05780356001600160401b03808211156125345760008081fd5b908901906040828c03601f190181131561254e5760008081fd5b612556611d66565b88840135838111156125685760008081fd5b6125768e8b83880101611e8e565b825250818401358381111561258b5760008081fd5b8085019450508c603f8501126125a357600092508283fd5b8884013592506125b5611f3584611e6b565b83815292861b8401820192898101908e8511156125d25760008081fd5b948301945b848610156125fc57853593506125ec846124c2565b838252948a0194908a01906125d7565b828b0152508752505050928401928401612514565b6000604080838503121561262457600080fd5b61262c611d66565b915082356001600160401b038082111561264557600080fd5b818501915085601f83011261265957600080fd5b81356020612669611f3583611e6b565b82815260059290921b8401810191818101908984111561268857600080fd5b8286015b84811015612707578035868111156126a45760008081fd5b8701808c03601f19018913156126ba5760008081fd5b6126c2611d66565b85820135888111156126d45760008081fd5b6126e28e8883860101611e8e565b82525090890135906126f3826124c2565b80860191909152835291830191830161268c565b508752508681013594508285111561271e57600080fd5b61217c888689016124d0565b600082601f83011261273b57600080fd5b8135602061274b611f3583611e6b565b828152600592831b850182019282820191908785111561276a57600080fd5b8387015b858110156122c05780356001600160401b038082111561278e5760008081fd5b908901906040828c03601f19018113156127a85760008081fd5b6127b0611d66565b88840135838111156127c25760008081fd5b6127d08e8b83880101611e8e565b82525081840135838111156127e55760008081fd5b8085019450508c603f8501126127fd57600092508283fd5b88840135925061280f611f3584611e6b565b83815292861b8401820192898101908e85111561282c5760008081fd5b948301945b8486101561284a5785358252948a0194908a0190612831565b828b015250875250505092840192840161276e565b6000604080838503121561287257600080fd5b61287a611d66565b915082356001600160401b038082111561289357600080fd5b818501915085601f8301126128a757600080fd5b813560206128b7611f3583611e6b565b82815260059290921b840181019181810190898411156128d657600080fd5b8286015b84811015612948578035868111156128f25760008081fd5b8701808c03601f19018913156129085760008081fd5b612910611d66565b85820135888111156129225760008081fd5b6129308e8883860101611e8e565b825250908901358582015283529183019183016128da565b508752508681013594508285111561295f57600080fd5b61217c8886890161272a565b600082601f83011261297c57600080fd5b8135602061298c611f3583611e6b565b82815260059290921b840181019181810190868411156129ab57600080fd5b8286015b84811015611f7f576001600160401b0380823511156129cd57600080fd5b813588016040818b03601f190112156129e557600080fd5b6129ed611d66565b86820135838111156129fe57600080fd5b612a0c8c8983860101611e8e565b825250604082013583811115612a2157600080fd5b8083019250508a603f830112612a3657600080fd5b86820135612a46611f3582611e6b565b81815260059190911b830160400190888101908d831115612a6657600080fd5b604085015b83811015612a9e578681351115612a8157600080fd5b612a918f60408335890101611e8e565b8352918a01918a01612a6b565b50838a01525050855250509183019183016129af565b60006040808385031215612ac757600080fd5b612acf611d66565b915082356001600160401b0380821115612ae857600080fd5b818501915085601f830112612afc57600080fd5b81356020612b0c611f3583611e6b565b82815260059290921b84018101918181019089841115612b2b57600080fd5b8286015b84811015612bbb57803586811115612b475760008081fd5b8701808c03601f1901891315612b5d5760008081fd5b612b65611d66565b8582013588811115612b775760008081fd5b612b858e8883860101611e8e565b8252508982013588811115612b9a5760008081fd5b612ba88e8883860101611e8e565b8288015250845250918301918301612b2f565b5087525086810135945082851115612bd257600080fd5b61217c8886890161296b565b600082601f830112612bef57600080fd5b81356020612bff611f3583611e6b565b82815260059290921b84018101918181019086841115612c1e57600080fd5b8286015b84811015611f7f576001600160401b038082351115612c4057600080fd5b813588016040818b03601f19011215612c5857600080fd5b612c60611d66565b8682013583811115612c7157600080fd5b612c7f8c8983860101611e8e565b825250604082013583811115612c9457600080fd5b8083019250508a603f830112612ca957600080fd5b86820135612cb9611f3582611e6b565b81815260059190911b830160400190888101908d831115612cd957600080fd5b604085015b83811015612d11578681351115612cf457600080fd5b612d048f60408335890101611e8e565b8352918a01918a01612cde565b50838a0152505085525050918301918301612c22565b60006040808385031215612d3a57600080fd5b612d42611d66565b915082356001600160401b0380821115612d5b57600080fd5b818501915085601f830112612d6f57600080fd5b81356020612d7f611f3583611e6b565b82815260059290921b84018101918181019089841115612d9e57600080fd5b8286015b84811015612e2e57803586811115612dba5760008081fd5b8701808c03601f1901891315612dd05760008081fd5b612dd8611d66565b8582013588811115612dea5760008081fd5b612df88e8883860101611e8e565b8252508982013588811115612e0d5760008081fd5b612e1b8e8883860101611e8e565b8288015250845250918301918301612da2565b5087525086810135945082851115612e4557600080fd5b61217c88868901612bde565b600060e08284031215612e6357600080fd5b612e6b611d8e565b905081356001600160401b0380821115612e8457600080fd5b612e9085838601612068565b83526020840135915080821115612ea657600080fd5b612eb2858386016122cd565b60208401526040840135915080821115612ecb57600080fd5b612ed7858386016123d9565b60408401526060840135915080821115612ef057600080fd5b612efc85838601612611565b60608401526080840135915080821115612f1557600080fd5b612f218583860161285f565b608084015260a0840135915080821115612f3a57600080fd5b612f4685838601612ab4565b60a084015260c0840135915080821115612f5f57600080fd5b50612f6c84828501612d27565b60c08301525092915050565b60008060408385031215612f8b57600080fd5b8235915060208301356001600160401b03811115612fa857600080fd5b612fb485828601612e51565b9150509250929050565b600060208284031215612fd057600080fd5b5035919050565b600060e08284031215612fe957600080fd5b612ff1611d8e565b9050813581526020820135602082015260408201356040820152606082013560608201526080820135608082015260a082013560a082015260c082013560c082015292915050565b60006020828403121561304b57600080fd5b604051602081018181106001600160401b038211171561306d5761306d611d50565b604052905080823561307e816124c2565b905292915050565b60008060006060848603121561309b57600080fd5b8335925060208401356001600160401b03808211156130b957600080fd5b9085019061012082880312156130ce57600080fd5b6130d6611db0565b8235828111156130e557600080fd5b830160e0818a0312156130f757600080fd5b6130ff611d8e565b61310882611efd565b815261311660208301611efd565b602082015261312760408301611efd565b604082015261313860608301611efd565b606082015261314960808301611efd565b608082015260a08201358481111561316057600080fd5b61316c8b828501611f14565b60a08301525060c08201358481111561318457600080fd5b6131908b828501611f14565b60c0830152508252506131a68860208501612fd7565b60208201526131b9886101008501613039565b60408201528094505060408601359150808211156131d657600080fd5b506131e386828701612e51565b9150509250925092565b80356008811061153257600080fd5b6000610160828403121561320f57600080fd5b613217611dd2565b9050613222826131ed565b815261323060208301611d15565b602082015260408201356040820152606082013560608201526080820135608082015260a082013560a082015260c082013560c082015260e082013560e082015261010080830135818301525061012080830135818301525061014080830135818301525092915050565b6000608082840312156132ad57600080fd5b604051608081018181106001600160401b03821117156132cf576132cf611d50565b60405290508082356132e0816124c2565b815260208301356132f0816124c2565b60208201526040830135613303816124c2565b60408201526060830135613316816124c2565b6060919091015292915050565b60008060006060848603121561333857600080fd5b8335925060208401356001600160401b038082111561335657600080fd5b90850190610200828803121561336b57600080fd5b613373611db0565b82358281111561338257600080fd5b8301610100818a03121561339557600080fd5b61339d611df5565b6133a682611efd565b81526133b460208301611efd565b60208201526133c560408301611efd565b60408201526133d660608301611efd565b60608201526133e760808301611efd565b60808201526133f860a08301611efd565b60a082015261340960c08301611efd565b60c082015260e08201358481111561342057600080fd5b61342c8b828501611f14565b60e08301525082525061344288602085016131fc565b60208201526131b988610180850161329b565b6000806040838503121561346857600080fd5b61347183611efd565b915061347f60208401611efd565b90509250929050565b60008060006060848603121561349d57600080fd5b8335925060208401356001600160401b03808211156134bb57600080fd5b81860191506101208083890312156134d257600080fd5b6134da611db0565b8335838111156134e957600080fd5b8401808a038313156134fa57600080fd5b613502611e18565b925061350d81611efd565b835261351b60208201611efd565b602084015261352c60408201611efd565b604084015261353d60608201611efd565b606084015261354e60808201611efd565b608084015261355f60a08201611efd565b60a084015261357060c08201611efd565b60c084015260e08101358481111561358757600080fd5b6135938b828401611f14565b60e08501525061010080820135858111156135ad57600080fd5b6135b98c828501611f14565b82860152508383526135ce8b60208801612fd7565b60208401526135df8b828801613039565b60408401525050809550505060408601359150808211156131d657600080fd5b60008060006060848603121561361457600080fd5b833592506020840135915061362b60408501611efd565b90509250925092565b60006020828403121561364657600080fd5b8135611c7c81611d08565b6020808252825182820181905260009190848201906040850190845b818110156136895783518352928401929184019160010161366d565b50909695505050505050565b602080825282518282018190526000919060409081850190868401855b828110156136e0578151805185528601516001600160a01b03168685015292840192908501906001016136b2565b5091979650505050505050565b6000602082840312156136ff57600080fd5b611bdb82611efd565b6020808252600e908201526d24b73b30b634b21031b0b63632b960911b604082015260600190565b634e487b7160e01b600052602160045260246000fd5b828152604081016003831061376b57634e487b7160e01b600052602160045260246000fd5b8260208301529392505050565b6020808252600a908201526921a7a72a2927a62622a960b11b604082015260600190565b6000602082840312156137ae57600080fd5b8151611c7c816124c2565b6000602082840312156137cb57600080fd5b5051919050565b634e487b7160e01b600052603260045260246000fd5b81810381811115611bde57634e487b7160e01b600052601160045260246000fd5b634e487b7160e01b600052603160045260246000fd5b6000825160005b818110156138405760208186018101518583015201613826565b50600092019182525091905056fea2646970667358221220f4da60bdc5b3c015785dce5e32f7670ff0fb5104cb28782a99ec961b9304b22864736f6c63430008180033",
  "devdoc": {
    "details": "Contract handling callbacks for deposit, withdrawal, and order execution/cancellation.",
    "errors": {
      "AddressEmptyCode(address)": [
        {
          "details": "There's no code at `target` (it is not a contract)."
        }
      ],
      "AddressInsufficientBalance(address)": [
        {
          "details": "The ETH balance of the account is not enough to perform the operation."
        }
      ],
      "FailedInnerCall()": [
        {
          "details": "A call to an address target failed. The target may have reverted."
        }
      ],
      "OwnableInvalidOwner(address)": [
        {
          "details": "The owner is not a valid owner account. (eg. `address(0)`)"
        }
      ],
      "OwnableUnauthorizedAccount(address)": [
        {
          "details": "The caller account is not authorized to perform an operation."
        }
      ],
      "SafeERC20FailedOperation(address)": [
        {
          "details": "An operation with an ERC20 token failed."
        }
      ]
    },
    "kind": "dev",
    "methods": {
      "addKey(bytes32,uint8)": {
        "details": "Adds a key to the corresponding array based on the state option (Deposit, Withdrawal, Order).",
        "params": {
          "_key": "The key to be added.",
          "_stateOption": "The state option (Deposit, Withdrawal, Order)."
        }
      },
      "addWithdrawalData(bytes32,uint256,address)": {
        "details": "Adds withdrawal data for a specific key.",
        "params": {
          "_lpAmount": "The LP amount to be withdrawn.",
          "_receiver": "The address to receive the LP tokens.",
          "_withdrawalKey": "The key associated with the withdrawal data."
        }
      },
      "afterDepositCancellation(bytes32,((address,address,address,address,address,address,address,address[],address[]),(uint256,uint256,uint256,uint256,uint256,uint256,uint256),(bool)),(((string,address)[],(string,address[])[]),((string,uint256)[],(string,uint256[])[]),((string,int256)[],(string,int256[])[]),((string,bool)[],(string,bool[])[]),((string,bytes32)[],(string,bytes32[])[]),((string,bytes)[],(string,bytes[])[]),((string,string)[],(string,string[])[])))": {
        "details": "Handles actions after a deposit cancellation.",
        "params": {
          "deposit": "The deposit details.",
          "eventData": "Additional event data.",
          "key": "The key associated with the deposit."
        }
      },
      "afterDepositExecution(bytes32,((address,address,address,address,address,address,address,address[],address[]),(uint256,uint256,uint256,uint256,uint256,uint256,uint256),(bool)),(((string,address)[],(string,address[])[]),((string,uint256)[],(string,uint256[])[]),((string,int256)[],(string,int256[])[]),((string,bool)[],(string,bool[])[]),((string,bytes32)[],(string,bytes32[])[]),((string,bytes)[],(string,bytes[])[]),((string,string)[],(string,string[])[])))": {
        "details": "Handles actions after a deposit execution.",
        "params": {
          "deposit": "The deposit details.",
          "eventData": "Additional event data.",
          "key": "The key associated with the deposit."
        }
      },
      "afterOrderCancellation(bytes32,((address,address,address,address,address,address,address,address[]),(uint8,uint8,uint256,uint256,uint256,uint256,uint256,uint256,uint256,uint256,uint256),(bool,bool,bool,bool)),(((string,address)[],(string,address[])[]),((string,uint256)[],(string,uint256[])[]),((string,int256)[],(string,int256[])[]),((string,bool)[],(string,bool[])[]),((string,bytes32)[],(string,bytes32[])[]),((string,bytes)[],(string,bytes[])[]),((string,string)[],(string,string[])[])))": {
        "details": "Handles actions after an order cancellation.",
        "params": {
          "eventData": "Additional event data.",
          "key": "The key associated with the order.",
          "order": "The order details."
        }
      },
      "afterOrderExecution(bytes32,((address,address,address,address,address,address,address,address[]),(uint8,uint8,uint256,uint256,uint256,uint256,uint256,uint256,uint256,uint256,uint256),(bool,bool,bool,bool)),(((string,address)[],(string,address[])[]),((string,uint256)[],(string,uint256[])[]),((string,int256)[],(string,int256[])[]),((string,bool)[],(string,bool[])[]),((string,bytes32)[],(string,bytes32[])[]),((string,bytes)[],(string,bytes[])[]),((string,string)[],(string,string[])[])))": {
        "details": "Handles actions after an order execution.",
        "params": {
          "eventData": "Additional event data.",
          "key": "The key associated with the order.",
          "order": "The order details."
        }
      },
      "afterOrderFrozen(bytes32,((address,address,address,address,address,address,address,address[]),(uint8,uint8,uint256,uint256,uint256,uint256,uint256,uint256,uint256,uint256,uint256),(bool,bool,bool,bool)),(((string,address)[],(string,address[])[]),((string,uint256)[],(string,uint256[])[]),((string,int256)[],(string,int256[])[]),((string,bool)[],(string,bool[])[]),((string,bytes32)[],(string,bytes32[])[]),((string,bytes)[],(string,bytes[])[]),((string,string)[],(string,string[])[])))": {
        "details": "Handles actions after an order is frozen.",
        "params": {
          "eventData": "Additional event data.",
          "key": "The key associated with the order.",
          "order": "The order details."
        }
      },
      "afterWithdrawalCancellation(bytes32,((address,address,address,address,address,address[],address[]),(uint256,uint256,uint256,uint256,uint256,uint256,uint256),(bool)),(((string,address)[],(string,address[])[]),((string,uint256)[],(string,uint256[])[]),((string,int256)[],(string,int256[])[]),((string,bool)[],(string,bool[])[]),((string,bytes32)[],(string,bytes32[])[]),((string,bytes)[],(string,bytes[])[]),((string,string)[],(string,string[])[])))": {
        "details": "Handles actions after a withdrawal cancellation.",
        "params": {
          "eventData": "Additional event data.",
          "key": "The key associated with the withdrawal.",
          "withdrawal": "The withdrawal details."
        }
      },
      "afterWithdrawalExecution(bytes32,((address,address,address,address,address,address[],address[]),(uint256,uint256,uint256,uint256,uint256,uint256,uint256),(bool)),(((string,address)[],(string,address[])[]),((string,uint256)[],(string,uint256[])[]),((string,int256)[],(string,int256[])[]),((string,bool)[],(string,bool[])[]),((string,bytes32)[],(string,bytes32[])[]),((string,bytes)[],(string,bytes[])[]),((string,string)[],(string,string[])[])))": {
        "details": "Handles actions after a withdrawal execution.",
        "params": {
          "eventData": "Additional event data.",
          "key": "The key associated with the withdrawal.",
          "withdrawal": "The withdrawal details."
        }
      },
      "constructor": {
        "details": "Constructor to initialize the contract with the vault and GMX plugin addresses.",
        "params": {
          "_gmxPlugin": "Address of the GMX plugin.",
          "_vault": "Address of the vault."
        }
      },
      "getKeys(uint8)": {
        "details": "Retrieves an array of keys based on the state option (Deposit, Withdrawal, Order).",
        "params": {
          "stateOption": "The state option (Deposit, Withdrawal, Order)."
        },
        "returns": {
          "_0": "An array of keys associated with the specified state option."
        }
      },
      "getLockerStatus()": {
        "details": "Checks whether the contract is locked (i.e., no active deposit, withdrawal, or order).",
        "returns": {
          "_0": "True if the contract is locked, false otherwise."
        }
      },
      "owner()": {
        "details": "Returns the address of the current owner."
      },
      "refundExecutionFee(bytes32,(((string,address)[],(string,address[])[]),((string,uint256)[],(string,uint256[])[]),((string,int256)[],(string,int256[])[]),((string,bool)[],(string,bool[])[]),((string,bytes32)[],(string,bytes32[])[]),((string,bytes)[],(string,bytes[])[]),((string,string)[],(string,string[])[])))": {
        "details": "Refunds the execution fee to the GMX plugin.",
        "params": {
          "eventData": "Additional event data.",
          "key": "The key associated with the execution fee."
        }
      },
      "renounceOwnership()": {
        "details": "Leaves the contract without owner. It will not be possible to call `onlyOwner` functions. Can only be called by the current owner. NOTE: Renouncing ownership will leave the contract without an owner, thereby disabling any functionality that is only available to the owner."
      },
      "setConfig(address,address)": {
        "details": "Updates the vault and GMX plugin addresses in the contract configuration.",
        "params": {
          "_gmxPlugin": "New address of the GMX plugin.",
          "_vault": "New address of the vault."
        }
      },
      "transferOwnership(address)": {
        "details": "Transfers ownership of the contract to a new account (`newOwner`). Can only be called by the current owner."
      }
    },
    "title": "GmxCallback",
    "version": 1
  },
  "userdoc": {
    "kind": "user",
    "methods": {},
    "version": 1
  },
  "storageLayout": {
    "storage": [
      {
        "astId": 3938,
        "contract": "contracts/vaults/theseus/GmxCallback.sol:GmxCallback",
        "label": "_owner",
        "offset": 0,
        "slot": "0",
        "type": "t_address"
      },
      {
        "astId": 12170,
        "contract": "contracts/vaults/theseus/GmxCallback.sol:GmxCallback",
        "label": "withdrawalData",
        "offset": 0,
        "slot": "1",
        "type": "t_mapping(t_bytes32,t_struct(WithdrawalInfo)12160_storage)"
      },
      {
        "astId": 12173,
        "contract": "contracts/vaults/theseus/GmxCallback.sol:GmxCallback",
        "label": "config",
        "offset": 0,
        "slot": "2",
        "type": "t_struct(Config)12165_storage"
      },
      {
        "astId": 12176,
        "contract": "contracts/vaults/theseus/GmxCallback.sol:GmxCallback",
        "label": "depositKeys",
        "offset": 0,
        "slot": "4",
        "type": "t_array(t_bytes32)dyn_storage"
      },
      {
        "astId": 12179,
        "contract": "contracts/vaults/theseus/GmxCallback.sol:GmxCallback",
        "label": "withdrawalKeys",
        "offset": 0,
        "slot": "5",
        "type": "t_array(t_bytes32)dyn_storage"
      },
      {
        "astId": 12182,
        "contract": "contracts/vaults/theseus/GmxCallback.sol:GmxCallback",
        "label": "orderKeys",
        "offset": 0,
        "slot": "6",
        "type": "t_array(t_bytes32)dyn_storage"
      },
      {
        "astId": 12185,
        "contract": "contracts/vaults/theseus/GmxCallback.sol:GmxCallback",
        "label": "roleStore",
        "offset": 0,
        "slot": "7",
        "type": "t_contract(IRoleStore)7249"
      }
    ],
    "types": {
      "t_address": {
        "encoding": "inplace",
        "label": "address",
        "numberOfBytes": "20"
      },
      "t_array(t_bytes32)dyn_storage": {
        "base": "t_bytes32",
        "encoding": "dynamic_array",
        "label": "bytes32[]",
        "numberOfBytes": "32"
      },
      "t_bytes32": {
        "encoding": "inplace",
        "label": "bytes32",
        "numberOfBytes": "32"
      },
      "t_contract(IRoleStore)7249": {
        "encoding": "inplace",
        "label": "contract IRoleStore",
        "numberOfBytes": "20"
      },
      "t_mapping(t_bytes32,t_struct(WithdrawalInfo)12160_storage)": {
        "encoding": "mapping",
        "key": "t_bytes32",
        "label": "mapping(bytes32 => struct GmxCallback.WithdrawalInfo)",
        "numberOfBytes": "32",
        "value": "t_struct(WithdrawalInfo)12160_storage"
      },
      "t_struct(Config)12165_storage": {
        "encoding": "inplace",
        "label": "struct GmxCallback.Config",
        "members": [
          {
            "astId": 12162,
            "contract": "contracts/vaults/theseus/GmxCallback.sol:GmxCallback",
            "label": "vault",
            "offset": 0,
            "slot": "0",
            "type": "t_address"
          },
          {
            "astId": 12164,
            "contract": "contracts/vaults/theseus/GmxCallback.sol:GmxCallback",
            "label": "gmxPlugin",
            "offset": 0,
            "slot": "1",
            "type": "t_address"
          }
        ],
        "numberOfBytes": "64"
      },
      "t_struct(WithdrawalInfo)12160_storage": {
        "encoding": "inplace",
        "label": "struct GmxCallback.WithdrawalInfo",
        "members": [
          {
            "astId": 12157,
            "contract": "contracts/vaults/theseus/GmxCallback.sol:GmxCallback",
            "label": "lpAmount",
            "offset": 0,
            "slot": "0",
            "type": "t_uint256"
          },
          {
            "astId": 12159,
            "contract": "contracts/vaults/theseus/GmxCallback.sol:GmxCallback",
            "label": "receiver",
            "offset": 0,
            "slot": "1",
            "type": "t_address"
          }
        ],
        "numberOfBytes": "64"
      },
      "t_uint256": {
        "encoding": "inplace",
        "label": "uint256",
        "numberOfBytes": "32"
      }
    }
  }
}