{
  "address": "0xD4497259a3535ae311AB0F6ad68Da43a676919Db",
  "abi": [
    {
      "inputs": [
        {
          "internalType": "address",
          "name": "_localVault",
          "type": "address"
        }
      ],
      "stateMutability": "nonpayable",
      "type": "constructor"
    },
    {
      "inputs": [
        {
          "internalType": "address",
          "name": "target",
          "type": "address"
        }
      ],
      "name": "AddressEmptyCode",
      "type": "error"
    },
    {
      "inputs": [
        {
          "internalType": "address",
          "name": "account",
          "type": "address"
        }
      ],
      "name": "AddressInsufficientBalance",
      "type": "error"
    },
    {
      "inputs": [],
      "name": "FailedInnerCall",
      "type": "error"
    },
    {
      "inputs": [
        {
          "internalType": "address",
          "name": "owner",
          "type": "address"
        }
      ],
      "name": "OwnableInvalidOwner",
      "type": "error"
    },
    {
      "inputs": [
        {
          "internalType": "address",
          "name": "account",
          "type": "address"
        }
      ],
      "name": "OwnableUnauthorizedAccount",
      "type": "error"
    },
    {
      "inputs": [],
      "name": "ReentrancyGuardReentrantCall",
      "type": "error"
    },
    {
      "inputs": [
        {
          "internalType": "address",
          "name": "token",
          "type": "address"
        }
      ],
      "name": "SafeERC20FailedOperation",
      "type": "error"
    },
    {
      "anonymous": false,
      "inputs": [
        {
          "indexed": false,
          "internalType": "uint8",
          "name": "_actionType",
          "type": "uint8"
        },
        {
          "indexed": false,
          "internalType": "bytes32",
          "name": "_key",
          "type": "bytes32"
        }
      ],
      "name": "CancelAction",
      "type": "event"
    },
    {
      "anonymous": false,
      "inputs": [
        {
          "indexed": false,
          "internalType": "enum IPlugin.ActionType",
          "name": "_actionType",
          "type": "uint8"
        },
        {
          "indexed": false,
          "internalType": "uint256[]",
          "name": "claimedAmounts",
          "type": "uint256[]"
        }
      ],
      "name": "ClaimFromGMX",
      "type": "event"
    },
    {
      "anonymous": false,
      "inputs": [
        {
          "indexed": false,
          "internalType": "enum IPlugin.ActionType",
          "name": "_actionType",
          "type": "uint8"
        },
        {
          "indexed": false,
          "internalType": "bytes",
          "name": "_payload",
          "type": "bytes"
        }
      ],
      "name": "Execute",
      "type": "event"
    },
    {
      "anonymous": false,
      "inputs": [
        {
          "indexed": true,
          "internalType": "address",
          "name": "previousOwner",
          "type": "address"
        },
        {
          "indexed": true,
          "internalType": "address",
          "name": "newOwner",
          "type": "address"
        }
      ],
      "name": "OwnershipTransferred",
      "type": "event"
    },
    {
      "anonymous": false,
      "inputs": [
        {
          "indexed": false,
          "internalType": "uint8",
          "name": "poolId",
          "type": "uint8"
        }
      ],
      "name": "PoolAdded",
      "type": "event"
    },
    {
      "anonymous": false,
      "inputs": [
        {
          "indexed": false,
          "internalType": "uint8",
          "name": "poolId",
          "type": "uint8"
        }
      ],
      "name": "PoolRemoved",
      "type": "event"
    },
    {
      "anonymous": false,
      "inputs": [
        {
          "indexed": false,
          "internalType": "address",
          "name": "_uiFeeReceiver",
          "type": "address"
        },
        {
          "indexed": false,
          "internalType": "address",
          "name": "_callbackContract",
          "type": "address"
        },
        {
          "indexed": false,
          "internalType": "uint256",
          "name": "_callbackGasLimit",
          "type": "uint256"
        },
        {
          "indexed": false,
          "internalType": "uint256",
          "name": "_executionFee",
          "type": "uint256"
        },
        {
          "indexed": false,
          "internalType": "bool",
          "name": "_shouldUnwrapNativeToken",
          "type": "bool"
        },
        {
          "indexed": false,
          "internalType": "bytes32",
          "name": "_pnlFactorType",
          "type": "bytes32"
        }
      ],
      "name": "SetGmxParams",
      "type": "event"
    },
    {
      "anonymous": false,
      "inputs": [
        {
          "indexed": false,
          "internalType": "address[]",
          "name": "_rewardTokens",
          "type": "address[]"
        }
      ],
      "name": "SetRewardTokens",
      "type": "event"
    },
    {
      "anonymous": false,
      "inputs": [
        {
          "indexed": false,
          "internalType": "address",
          "name": "_exchangeRouter",
          "type": "address"
        },
        {
          "indexed": false,
          "internalType": "address",
          "name": "_router",
          "type": "address"
        },
        {
          "indexed": false,
          "internalType": "address",
          "name": "_depositVault",
          "type": "address"
        },
        {
          "indexed": false,
          "internalType": "address",
          "name": "_withdrawVault",
          "type": "address"
        },
        {
          "indexed": false,
          "internalType": "address",
          "name": "_orderVault",
          "type": "address"
        },
        {
          "indexed": false,
          "internalType": "address",
          "name": "_reader",
          "type": "address"
        }
      ],
      "name": "SetRouterConfig",
      "type": "event"
    },
    {
      "anonymous": false,
      "inputs": [
        {
          "indexed": false,
          "internalType": "address",
          "name": "_tokenPriceConsumer",
          "type": "address"
        }
      ],
      "name": "SetTokenPriceConsumer",
      "type": "event"
    },
    {
      "anonymous": false,
      "inputs": [
        {
          "indexed": false,
          "internalType": "address payable",
          "name": "treasury",
          "type": "address"
        }
      ],
      "name": "SetTreasury",
      "type": "event"
    },
    {
      "anonymous": false,
      "inputs": [],
      "name": "TransferAllTokensToVault",
      "type": "event"
    },
    {
      "stateMutability": "payable",
      "type": "fallback"
    },
    {
      "inputs": [],
      "name": "ASSET_DECIMALS",
      "outputs": [
        {
          "internalType": "uint256",
          "name": "",
          "type": "uint256"
        }
      ],
      "stateMutability": "view",
      "type": "function"
    },
    {
      "inputs": [],
      "name": "MARKET_TOKEN_PRICE_DECIMALS",
      "outputs": [
        {
          "internalType": "uint256",
          "name": "",
          "type": "uint256"
        }
      ],
      "stateMutability": "view",
      "type": "function"
    },
    {
      "inputs": [
        {
          "components": [
            {
              "internalType": "uint8",
              "name": "poolId",
              "type": "uint8"
            },
            {
              "internalType": "address",
              "name": "indexToken",
              "type": "address"
            },
            {
              "internalType": "address",
              "name": "longToken",
              "type": "address"
            },
            {
              "internalType": "address",
              "name": "shortToken",
              "type": "address"
            },
            {
              "internalType": "address",
              "name": "marketToken",
              "type": "address"
            }
          ],
          "internalType": "struct GmxPlugin.PoolConfig[]",
          "name": "_pools",
          "type": "tuple[]"
        }
      ],
      "name": "addPools",
      "outputs": [],
      "stateMutability": "nonpayable",
      "type": "function"
    },
    {
      "inputs": [
        {
          "internalType": "address",
          "name": "_tokenAddress",
          "type": "address"
        },
        {
          "internalType": "uint256",
          "name": "_tokenAmount",
          "type": "uint256"
        }
      ],
      "name": "calculateTokenValueInUsd",
      "outputs": [
        {
          "internalType": "uint256",
          "name": "",
          "type": "uint256"
        }
      ],
      "stateMutability": "view",
      "type": "function"
    },
    {
      "inputs": [
        {
          "internalType": "uint256",
          "name": "_amount",
          "type": "uint256"
        },
        {
          "internalType": "uint256",
          "name": "_from",
          "type": "uint256"
        },
        {
          "internalType": "uint256",
          "name": "_to",
          "type": "uint256"
        }
      ],
      "name": "convertDecimals",
      "outputs": [
        {
          "internalType": "uint256",
          "name": "",
          "type": "uint256"
        }
      ],
      "stateMutability": "pure",
      "type": "function"
    },
    {
      "inputs": [
        {
          "internalType": "enum IPlugin.ActionType",
          "name": "_actionType",
          "type": "uint8"
        },
        {
          "internalType": "bytes",
          "name": "_payload",
          "type": "bytes"
        }
      ],
      "name": "execute",
      "outputs": [],
      "stateMutability": "payable",
      "type": "function"
    },
    {
      "inputs": [
        {
          "internalType": "uint8",
          "name": "_poolId",
          "type": "uint8"
        }
      ],
      "name": "getAllowedTokens",
      "outputs": [
        {
          "internalType": "address[]",
          "name": "",
          "type": "address[]"
        }
      ],
      "stateMutability": "view",
      "type": "function"
    },
    {
      "inputs": [],
      "name": "getBalance",
      "outputs": [
        {
          "internalType": "uint256",
          "name": "",
          "type": "uint256"
        }
      ],
      "stateMutability": "view",
      "type": "function"
    },
    {
      "inputs": [
        {
          "internalType": "uint8",
          "name": "_poolId",
          "type": "uint8"
        }
      ],
      "name": "getMarketInfo",
      "outputs": [
        {
          "components": [
            {
              "internalType": "uint8",
              "name": "poolId",
              "type": "uint8"
            },
            {
              "internalType": "address",
              "name": "longToken",
              "type": "address"
            },
            {
              "internalType": "address",
              "name": "shortToken",
              "type": "address"
            },
            {
              "internalType": "address",
              "name": "marketToken",
              "type": "address"
            },
            {
              "internalType": "uint256",
              "name": "longTokenBalance",
              "type": "uint256"
            },
            {
              "internalType": "uint256",
              "name": "shortTokenBalance",
              "type": "uint256"
            },
            {
              "internalType": "uint256",
              "name": "marketTokenBalance",
              "type": "uint256"
            },
            {
              "internalType": "uint256",
              "name": "longTokenDecimals",
              "type": "uint256"
            },
            {
              "internalType": "uint256",
              "name": "shortTokenDecimals",
              "type": "uint256"
            },
            {
              "internalType": "uint256",
              "name": "marketTokenDecimals",
              "type": "uint256"
            },
            {
              "internalType": "uint256",
              "name": "longTokenValue",
              "type": "uint256"
            },
            {
              "internalType": "uint256",
              "name": "shortTokenValue",
              "type": "uint256"
            },
            {
              "internalType": "uint256",
              "name": "marketTokenValue",
              "type": "uint256"
            }
          ],
          "internalType": "struct GmxPlugin.PoolTokenInformation",
          "name": "",
          "type": "tuple"
        }
      ],
      "stateMutability": "view",
      "type": "function"
    },
    {
      "inputs": [],
      "name": "getMarketsInfo",
      "outputs": [
        {
          "components": [
            {
              "internalType": "uint8",
              "name": "poolId",
              "type": "uint8"
            },
            {
              "internalType": "address",
              "name": "longToken",
              "type": "address"
            },
            {
              "internalType": "address",
              "name": "shortToken",
              "type": "address"
            },
            {
              "internalType": "address",
              "name": "marketToken",
              "type": "address"
            },
            {
              "internalType": "uint256",
              "name": "longTokenBalance",
              "type": "uint256"
            },
            {
              "internalType": "uint256",
              "name": "shortTokenBalance",
              "type": "uint256"
            },
            {
              "internalType": "uint256",
              "name": "marketTokenBalance",
              "type": "uint256"
            },
            {
              "internalType": "uint256",
              "name": "longTokenDecimals",
              "type": "uint256"
            },
            {
              "internalType": "uint256",
              "name": "shortTokenDecimals",
              "type": "uint256"
            },
            {
              "internalType": "uint256",
              "name": "marketTokenDecimals",
              "type": "uint256"
            },
            {
              "internalType": "uint256",
              "name": "longTokenValue",
              "type": "uint256"
            },
            {
              "internalType": "uint256",
              "name": "shortTokenValue",
              "type": "uint256"
            },
            {
              "internalType": "uint256",
              "name": "marketTokenValue",
              "type": "uint256"
            }
          ],
          "internalType": "struct GmxPlugin.PoolTokenInformation[]",
          "name": "",
          "type": "tuple[]"
        }
      ],
      "stateMutability": "view",
      "type": "function"
    },
    {
      "inputs": [
        {
          "internalType": "uint8",
          "name": "_poolId",
          "type": "uint8"
        }
      ],
      "name": "getPoolIndexById",
      "outputs": [
        {
          "internalType": "uint256",
          "name": "poolIndex",
          "type": "uint256"
        }
      ],
      "stateMutability": "view",
      "type": "function"
    },
    {
      "inputs": [],
      "name": "getPoolLength",
      "outputs": [
        {
          "internalType": "uint256",
          "name": "",
          "type": "uint256"
        }
      ],
      "stateMutability": "view",
      "type": "function"
    },
    {
      "inputs": [],
      "name": "getPoolNumber",
      "outputs": [
        {
          "internalType": "uint256",
          "name": "",
          "type": "uint256"
        }
      ],
      "stateMutability": "view",
      "type": "function"
    },
    {
      "inputs": [
        {
          "internalType": "uint8",
          "name": "_poolId",
          "type": "uint8"
        }
      ],
      "name": "getPoolTokenInfo",
      "outputs": [
        {
          "internalType": "address",
          "name": "",
          "type": "address"
        },
        {
          "internalType": "uint8",
          "name": "",
          "type": "uint8"
        },
        {
          "internalType": "uint256",
          "name": "",
          "type": "uint256"
        }
      ],
      "stateMutability": "view",
      "type": "function"
    },
    {
      "inputs": [
        {
          "internalType": "uint8",
          "name": "_poolId",
          "type": "uint8"
        },
        {
          "internalType": "bool",
          "name": "_maximize",
          "type": "bool"
        }
      ],
      "name": "getPoolTokenPrice",
      "outputs": [
        {
          "internalType": "int256",
          "name": "",
          "type": "int256"
        }
      ],
      "stateMutability": "view",
      "type": "function"
    },
    {
      "inputs": [],
      "name": "getPoolValues",
      "outputs": [
        {
          "components": [
            {
              "internalType": "uint8",
              "name": "poolId",
              "type": "uint8"
            },
            {
              "internalType": "uint256",
              "name": "poolValue",
              "type": "uint256"
            }
          ],
          "internalType": "struct GmxPlugin.PoolValue[]",
          "name": "",
          "type": "tuple[]"
        }
      ],
      "stateMutability": "view",
      "type": "function"
    },
    {
      "inputs": [],
      "name": "getPools",
      "outputs": [
        {
          "components": [
            {
              "internalType": "uint8",
              "name": "poolId",
              "type": "uint8"
            },
            {
              "internalType": "address",
              "name": "indexToken",
              "type": "address"
            },
            {
              "internalType": "address",
              "name": "longToken",
              "type": "address"
            },
            {
              "internalType": "address",
              "name": "shortToken",
              "type": "address"
            },
            {
              "internalType": "address",
              "name": "marketToken",
              "type": "address"
            }
          ],
          "internalType": "struct GmxPlugin.PoolConfig[]",
          "name": "",
          "type": "tuple[]"
        }
      ],
      "stateMutability": "view",
      "type": "function"
    },
    {
      "inputs": [
        {
          "internalType": "address",
          "name": "token",
          "type": "address"
        }
      ],
      "name": "getTokenPriceInfo",
      "outputs": [
        {
          "components": [
            {
              "internalType": "uint256",
              "name": "min",
              "type": "uint256"
            },
            {
              "internalType": "uint256",
              "name": "max",
              "type": "uint256"
            }
          ],
          "internalType": "struct IPrice.Props",
          "name": "",
          "type": "tuple"
        }
      ],
      "stateMutability": "view",
      "type": "function"
    },
    {
      "inputs": [],
      "name": "getTotalLiquidity",
      "outputs": [
        {
          "internalType": "uint256",
          "name": "totalAsset",
          "type": "uint256"
        }
      ],
      "stateMutability": "view",
      "type": "function"
    },
    {
      "inputs": [],
      "name": "getUniqueTokenLength",
      "outputs": [
        {
          "internalType": "uint256",
          "name": "",
          "type": "uint256"
        }
      ],
      "stateMutability": "view",
      "type": "function"
    },
    {
      "inputs": [],
      "name": "getUniqueTokens",
      "outputs": [
        {
          "internalType": "address[]",
          "name": "",
          "type": "address[]"
        }
      ],
      "stateMutability": "view",
      "type": "function"
    },
    {
      "inputs": [],
      "name": "gmxParams",
      "outputs": [
        {
          "internalType": "address",
          "name": "uiFeeReceiver",
          "type": "address"
        },
        {
          "internalType": "address",
          "name": "callbackContract",
          "type": "address"
        },
        {
          "internalType": "uint256",
          "name": "callbackGasLimit",
          "type": "uint256"
        },
        {
          "internalType": "uint256",
          "name": "executionFee",
          "type": "uint256"
        },
        {
          "internalType": "bool",
          "name": "shouldUnwrapNativeToken",
          "type": "bool"
        },
        {
          "internalType": "bytes32",
          "name": "pnlFactorType",
          "type": "bytes32"
        }
      ],
      "stateMutability": "view",
      "type": "function"
    },
    {
      "inputs": [
        {
          "internalType": "address",
          "name": "_token",
          "type": "address"
        }
      ],
      "name": "isTokenAdded",
      "outputs": [
        {
          "internalType": "bool",
          "name": "",
          "type": "bool"
        }
      ],
      "stateMutability": "view",
      "type": "function"
    },
    {
      "inputs": [],
      "name": "localVault",
      "outputs": [
        {
          "internalType": "address",
          "name": "",
          "type": "address"
        }
      ],
      "stateMutability": "view",
      "type": "function"
    },
    {
      "inputs": [],
      "name": "owner",
      "outputs": [
        {
          "internalType": "address",
          "name": "",
          "type": "address"
        }
      ],
      "stateMutability": "view",
      "type": "function"
    },
    {
      "inputs": [
        {
          "internalType": "uint8",
          "name": "",
          "type": "uint8"
        }
      ],
      "name": "poolExistsMap",
      "outputs": [
        {
          "internalType": "bool",
          "name": "",
          "type": "bool"
        }
      ],
      "stateMutability": "view",
      "type": "function"
    },
    {
      "inputs": [
        {
          "internalType": "uint256",
          "name": "",
          "type": "uint256"
        }
      ],
      "name": "pools",
      "outputs": [
        {
          "internalType": "uint8",
          "name": "poolId",
          "type": "uint8"
        },
        {
          "internalType": "address",
          "name": "indexToken",
          "type": "address"
        },
        {
          "internalType": "address",
          "name": "longToken",
          "type": "address"
        },
        {
          "internalType": "address",
          "name": "shortToken",
          "type": "address"
        },
        {
          "internalType": "address",
          "name": "marketToken",
          "type": "address"
        }
      ],
      "stateMutability": "view",
      "type": "function"
    },
    {
      "inputs": [
        {
          "internalType": "uint8",
          "name": "_poolId",
          "type": "uint8"
        }
      ],
      "name": "removePool",
      "outputs": [],
      "stateMutability": "nonpayable",
      "type": "function"
    },
    {
      "inputs": [],
      "name": "renounceOwnership",
      "outputs": [],
      "stateMutability": "nonpayable",
      "type": "function"
    },
    {
      "inputs": [
        {
          "internalType": "uint256",
          "name": "",
          "type": "uint256"
        }
      ],
      "name": "rewardTokens",
      "outputs": [
        {
          "internalType": "address",
          "name": "",
          "type": "address"
        }
      ],
      "stateMutability": "view",
      "type": "function"
    },
    {
      "inputs": [],
      "name": "routerConfig",
      "outputs": [
        {
          "internalType": "address",
          "name": "exchangeRouter",
          "type": "address"
        },
        {
          "internalType": "address",
          "name": "router",
          "type": "address"
        },
        {
          "internalType": "address",
          "name": "depositVault",
          "type": "address"
        },
        {
          "internalType": "address",
          "name": "withdrawVault",
          "type": "address"
        },
        {
          "internalType": "address",
          "name": "orderVault",
          "type": "address"
        },
        {
          "internalType": "address",
          "name": "reader",
          "type": "address"
        }
      ],
      "stateMutability": "view",
      "type": "function"
    },
    {
      "inputs": [
        {
          "internalType": "address",
          "name": "_uiFeeReceiver",
          "type": "address"
        },
        {
          "internalType": "address",
          "name": "_callbackContract",
          "type": "address"
        },
        {
          "internalType": "uint256",
          "name": "_callbackGasLimit",
          "type": "uint256"
        },
        {
          "internalType": "uint256",
          "name": "_executionFee",
          "type": "uint256"
        },
        {
          "internalType": "bool",
          "name": "_shouldUnwrapNativeToken",
          "type": "bool"
        },
        {
          "internalType": "bytes32",
          "name": "_pnlFactorType",
          "type": "bytes32"
        }
      ],
      "name": "setGmxParams",
      "outputs": [],
      "stateMutability": "nonpayable",
      "type": "function"
    },
    {
      "inputs": [
        {
          "internalType": "address[]",
          "name": "_rewardTokens",
          "type": "address[]"
        }
      ],
      "name": "setRewardTokens",
      "outputs": [],
      "stateMutability": "nonpayable",
      "type": "function"
    },
    {
      "inputs": [
        {
          "internalType": "address",
          "name": "_exchangeRouter",
          "type": "address"
        },
        {
          "internalType": "address",
          "name": "_router",
          "type": "address"
        },
        {
          "internalType": "address",
          "name": "_depositVault",
          "type": "address"
        },
        {
          "internalType": "address",
          "name": "_withdrawVault",
          "type": "address"
        },
        {
          "internalType": "address",
          "name": "_orderVault",
          "type": "address"
        },
        {
          "internalType": "address",
          "name": "_reader",
          "type": "address"
        }
      ],
      "name": "setRouterConfig",
      "outputs": [],
      "stateMutability": "nonpayable",
      "type": "function"
    },
    {
      "inputs": [
        {
          "internalType": "address",
          "name": "_tokenPriceConsumer",
          "type": "address"
        }
      ],
      "name": "setTokenPriceConsumer",
      "outputs": [],
      "stateMutability": "nonpayable",
      "type": "function"
    },
    {
      "inputs": [
        {
          "internalType": "address payable",
          "name": "_treasury",
          "type": "address"
        }
      ],
      "name": "setTreasury",
      "outputs": [],
      "stateMutability": "nonpayable",
      "type": "function"
    },
    {
      "inputs": [],
      "name": "tokenPriceConsumer",
      "outputs": [
        {
          "internalType": "address",
          "name": "",
          "type": "address"
        }
      ],
      "stateMutability": "view",
      "type": "function"
    },
    {
      "inputs": [],
      "name": "transferAllTokensToVault",
      "outputs": [],
      "stateMutability": "nonpayable",
      "type": "function"
    },
    {
      "inputs": [
        {
          "internalType": "address",
          "name": "newOwner",
          "type": "address"
        }
      ],
      "name": "transferOwnership",
      "outputs": [],
      "stateMutability": "nonpayable",
      "type": "function"
    },
    {
      "inputs": [],
      "name": "treasury",
      "outputs": [
        {
          "internalType": "address payable",
          "name": "",
          "type": "address"
        }
      ],
      "stateMutability": "view",
      "type": "function"
    },
    {
      "inputs": [
        {
          "internalType": "uint256",
          "name": "",
          "type": "uint256"
        }
      ],
      "name": "uniqueTokens",
      "outputs": [
        {
          "internalType": "address",
          "name": "",
          "type": "address"
        }
      ],
      "stateMutability": "view",
      "type": "function"
    },
    {
      "inputs": [
        {
          "internalType": "uint256",
          "name": "_amount",
          "type": "uint256"
        }
      ],
      "name": "withdrawFee",
      "outputs": [],
      "stateMutability": "nonpayable",
      "type": "function"
    },
    {
      "stateMutability": "payable",
      "type": "receive"
    }
  ],
  "transactionHash": "0xa390037525c8afe3f65aed490682df89ed59d406d7ab7d0cc7a64f1015ca7021",
  "args": [
    "0x6D8E0Ac94fb79Cd3520f546ce1c23A6F27F16EaC"
  ],
  "numDeployments": 1,
  "solcInputHash": "001090ae86281cfeba95e955c9c1b556",
  "bytecode": "0x60806040523480156200001157600080fd5b50604051620060cb380380620060cb83398101604081905262000034916200013a565b33806200005c57604051631e4fbdf760e01b8152600060048201526024015b60405180910390fd5b6200006781620000ea565b50600180556001600160a01b038116620000c45760405162461bcd60e51b815260206004820152601460248201527f474d583a20496e76616c69642041646472657373000000000000000000000000604482015260640162000053565b600280546001600160a01b0319166001600160a01b03929092169190911790556200016c565b600080546001600160a01b038381166001600160a01b0319831681178455604051919092169283917f8be0079c531659141344cd1fd0a4f28419497f9722a3daafe3b4186f6b6457e09190a35050565b6000602082840312156200014d57600080fd5b81516001600160a01b03811681146200016557600080fd5b9392505050565b615f4f806200017c6000396000f3fe60806040526004361061023d5760003560e01c8063845b79241161012d578063beafdc24116100b0578063f0f4426011610077578063f0f442601461077c578063f2748f6a1461079c578063f2fde38b146107be578063f4db8984146107de578063f66fdcca146107f3578063fb4d364c1461081557005b8063beafdc2414610707578063d064f7d014610727578063d5a5731a1461073c578063df77209b1461075c578063e48caf8d146106d257005b8063a36532b2116100f4578063a36532b214610638578063a7888a3414610658578063ac4afa3814610678578063b3944d52146106d2578063be357616146106e757005b8063845b7924146105785780638a359b09146105b85780638da5cb5b146105e557806396c1865b14610603578063a0390b651461062357005b806335c7e925116101c0578063673a2a1f11610187578063673a2a1f146104b45780636aaf6436146104d65780636e862fdb14610503578063715018a6146105235780637bb7bed1146105385780637d2ab8bf1461055857005b806335c7e925146103f357806336a60503146104085780634952cade146104285780634df227e41461044857806361d027b31461049457005b8063251ae48c11610204578063251ae48c1461032a57806326a1809b1461034a578063278246751461036c5780632a7a52441461038c578063313eb406146103ac57005b8063050705bb1461024657806308447586146102a057806312065fe0146102d85780631c31772f146102f5578063201e81a81461030a57005b3661024457005b005b34801561025257600080fd5b50600454600554600654600754600854600954610285956001600160a01b03908116958116948116938116928116911686565b6040516102979695949392919061475e565b60405180910390f35b3480156102ac57600080fd5b506013546102c0906001600160a01b031681565b6040516001600160a01b039091168152602001610297565b3480156102e457600080fd5b50475b604051908152602001610297565b34801561030157600080fd5b506012546102e7565b34801561031657600080fd5b5061024461032536600461492e565b610828565b34801561033657600080fd5b50610244610345366004614979565b61087e565b34801561035657600080fd5b5061035f61093c565b6040516102979190614abc565b34801561037857600080fd5b506102e7610387366004614acf565b61099e565b34801561039857600080fd5b5061035f6103a7366004614afb565b6109f3565b3480156103b857600080fd5b506103cc6103c7366004614afb565b610b28565b604080516001600160a01b03909416845260ff909216602084015290820152606001610297565b3480156103ff57600080fd5b506102e7610cbe565b34801561041457600080fd5b506102e7610423366004614b18565b610f18565b34801561043457600080fd5b506102e7610443366004614afb565b6110a8565b34801561045457600080fd5b50600a54600b54600c54600d54600e54600f54610482956001600160a01b03908116951693929160ff169086565b60405161029796959493929190614b44565b3480156104a057600080fd5b506003546102c0906001600160a01b031681565b3480156104c057600080fd5b506104c9611138565b6040516102979190614b7c565b3480156104e257600080fd5b506104f66104f1366004614bfd565b6111d9565b6040516102979190614c1a565b34801561050f57600080fd5b5061024461051e366004614c31565b6113c9565b34801561052f57600080fd5b50610244611565565b34801561054457600080fd5b506102c0610553366004614cb3565b611579565b34801561056457600080fd5b50610244610573366004614afb565b6115a3565b34801561058457600080fd5b506105a8610593366004614afb565b60116020526000908152604090205460ff1681565b6040519015158152602001610297565b3480156105c457600080fd5b506105d86105d3366004614afb565b61178c565b6040516102979190614d84565b3480156105f157600080fd5b506000546001600160a01b03166102c0565b34801561060f57600080fd5b506102e761061e366004614dac565b611ba7565b34801561062f57600080fd5b50610244611ddf565b34801561064457600080fd5b506105a8610653366004614bfd565b611f41565b34801561066457600080fd5b50610244610673366004614bfd565b611fa0565b34801561068457600080fd5b50610698610693366004614cb3565b612043565b6040805160ff90961686526001600160a01b039485166020870152928416928501929092528216606084015216608082015260a001610297565b3480156106de57600080fd5b506010546102e7565b3480156106f357600080fd5b50610244610702366004614cb3565b612098565b34801561071357600080fd5b506102c0610722366004614cb3565b6121f1565b34801561073357600080fd5b506102e7601e81565b34801561074857600080fd5b50610244610757366004614de5565b612201565b34801561076857600080fd5b506002546102c0906001600160a01b031681565b34801561078857600080fd5b50610244610797366004614bfd565b6122bd565b3480156107a857600080fd5b506107b1612362565b6040516102979190614e4c565b3480156107ca57600080fd5b506102446107d9366004614bfd565b612425565b3480156107ea57600080fd5b506102e7602481565b3480156107ff57600080fd5b50610808612463565b6040516102979190614e9b565b610244610823366004614ee0565b612695565b6108306127e9565b8051610843906014906020840190614662565b507f69be44b81d4f8b6cf7825a37f020b264079658f3d72856eeb0a0efed09c7d392816040516108739190614abc565b60405180910390a150565b6108866127e9565b60005b8151811015610938576109308282815181106108a7576108a7614f68565b6020026020010151600001518383815181106108c5576108c5614f68565b6020026020010151602001518484815181106108e3576108e3614f68565b60200260200101516040015185858151811061090157610901614f68565b60200260200101516060015186868151811061091f5761091f614f68565b602002602001015160800151612816565b600101610889565b5050565b6060601280548060200260200160405190810160405280929190818152602001828054801561099457602002820191906000526020600020905b81546001600160a01b03168152600190910190602001808311610976575b5050505050905090565b60008183106109cd576109b18284614f94565b6109bc90600a61508b565b6109c69085615097565b90506109ec565b6109d78383614f94565b6109e290600a61508b565b6109c690856150b9565b9392505050565b60ff808216600090815260116020526040902054606091829116610a175792915050565b6040805160028082526060820183526000926020830190803683370190505090506000610a43856110a8565b9050600060108281548110610a5a57610a5a614f68565b600091825260208083206040805160a0810182526004909402909101805460ff811685526001600160a01b03610100909104811693850193909352600181015483169184018290526002810154831660608501526003015490911660808301528551919350918591610ace57610ace614f68565b60200260200101906001600160a01b031690816001600160a01b031681525050806060015183600181518110610b0657610b06614f68565b6001600160a01b03909216602092830291909101909101525090949350505050565b60ff80821660009081526011602052604081205490918291829116610b5557506000915081905080610cb7565b6000610b60856110a8565b9050600060108281548110610b7757610b77614f68565b600091825260208083206040805160a0810182526004948502909201805460ff811684526001600160a01b0361010090910481168486015260018201548116848401526002820154811660608501526003909101541660808301819052815163313ce56760e01b815291519296509363313ce567938282019390929091908290030181865afa158015610c0e573d6000803e3d6000fd5b505050506040513d601f19601f82011682018060405250810190610c3291906150d0565b60808301516040516370a0823160e01b81523060048201529192506000916001600160a01b03909116906370a0823190602401602060405180830381865afa158015610c82573d6000803e3d6000fd5b505050506040513d601f19601f82011682018060405250810190610ca691906150ed565b608090930151965090945090925050505b9193909250565b6000805b601254811015610d7d57600060128281548110610ce157610ce1614f68565b60009182526020822001546040516370a0823160e01b81523060048201526001600160a01b03909116925082906370a0823190602401602060405180830381865afa158015610d34573d6000803e3d6000fd5b505050506040513d601f19601f82011682018060405250810190610d5891906150ed565b9050610d648282610f18565b610d6e9085615106565b93505050806001019050610cc2565b5060005b601054811015610f1457600060108281548110610da057610da0614f68565b600091825260208220600491820201600301546040516370a0823160e01b815230928101929092526001600160a01b0316925082906370a0823190602401602060405180830381865afa158015610dfb573d6000803e3d6000fd5b505050506040513d601f19601f82011682018060405250810190610e1f91906150ed565b90506000610e5460108581548110610e3957610e39614f68565b600091825260209091206004909102015460ff166001611ba7565b905060008113610e6657505050610f0c565b6000610e7282846150b9565b90506000601e856001600160a01b031663313ce5676040518163ffffffff1660e01b8152600401602060405180830381865afa158015610eb6573d6000803e3d6000fd5b505050506040513d601f19601f82011682018060405250810190610eda91906150d0565b60ff16610ee79190615106565b90506000610ef78383602461099e565b9050610f038189615106565b97505050505050505b600101610d81565b5090565b6013546040516358e8662560e01b81526001600160a01b03848116600483015260009283929116906358e8662590602401602060405180830381865afa158015610f66573d6000803e3d6000fd5b505050506040513d601f19601f82011682018060405250810190610f8a91906150d0565b601354604051636a24d41960e11b81526001600160a01b03878116600483015260ff9390931693506000929091169063d449a83290602401602060405180830381865afa158015610fdf573d6000803e3d6000fd5b505050506040513d601f19601f8201168201806040525081019061100391906150d0565b601354604051630681320d60e51b81526001600160a01b03888116600483015260ff9390931693506000929091169063d02641a090602401602060405180830381865afa158015611058573d6000803e3d6000fd5b505050506040513d601f19601f8201168201806040525081019061107c91906150ed565b905061109c61108b82876150b9565b6110958486615106565b602461099e565b93505050505b92915050565b6000805b6010548110156110f4578260ff16601082815481106110cd576110cd614f68565b600091825260209091206004909102015460ff16036110ec5792915050565b6001016110ac565b5060405162461bcd60e51b815260206004820152601360248201527211d3560e88141bdbdb081b9bdd08199bdd5b99606a1b60448201526064015b60405180910390fd5b60606010805480602002602001604051908101604052809291908181526020016000905b828210156111d05760008481526020908190206040805160a08101825260048602909201805460ff811684526001600160a01b03610100909104811684860152600180830154821693850193909352600282015481166060850152600390910154166080830152908352909201910161115c565b50505050905090565b60408051808201909152600080825260208201526001600160a01b038216611214575050604080518082019091526000808252602082015290565b6013546040516358e8662560e01b81526001600160a01b0384811660048301529091169060009082906358e8662590602401602060405180830381865afa158015611263573d6000803e3d6000fd5b505050506040513d601f19601f8201168201806040525081019061128791906150d0565b6040805180820191829052630681320d60e51b9091526001600160a01b03868116604483015260ff929092169250600091819061138390861663d02641a0606484015b602060405180830381865afa1580156112e7573d6000803e3d6000fd5b505050506040513d601f19601f8201168201806040525081019061130b91906150ed565b604051636a24d41960e11b81526001600160a01b038a8116600483015288169063d449a83290602401602060405180830381865afa158015611351573d6000803e3d6000fd5b505050506040513d601f19601f8201168201806040525081019061137591906150d0565b60ff1661038787601e614f94565b8152604051630681320d60e51b81526001600160a01b0388811660048301526020909201916113be919087169063d02641a0906024016112ca565b905295945050505050565b6113d16127e9565b6001600160a01b038616158015906113f157506001600160a01b03851615155b801561140557506001600160a01b03841615155b801561141957506001600160a01b03831615155b801561142d57506001600160a01b03821615155b801561144157506001600160a01b03811615155b6114845760405162461bcd60e51b8152602060048201526014602482015273474d583a20496e76616c6964204164647265737360601b604482015260640161112f565b6040805160c0810182526001600160a01b0380891680835288821660208401819052888316848601819052888416606086018190528885166080870181905294881660a0909601869052600480546001600160a01b0319908116909517905560058054851690931790925560068054841690911790556007805483169091179055600880548216909217909155600980549091169091179055517f426776d3b733c4a7464cf1dd3d3c5d81199723dd1cec0de97ff4e053ce32cbf5906115559088908890889088908890889061475e565b60405180910390a1505050505050565b61156d6127e9565b6115776000612b10565b565b6014818154811061158957600080fd5b6000918252602090912001546001600160a01b0316905081565b6115ab6127e9565b60ff808216600090815260116020526040902054166115dc5760405162461bcd60e51b815260040161112f90615119565b60006115e7826110a8565b6010549091506000906115fc90600190614f94565b90508082146116cf576010818154811061161857611618614f68565b90600052602060002090600402016010838154811061163957611639614f68565b600091825260209091208254600490920201805460ff90921660ff1983168117825583546001600160a81b031990931617610100928390046001600160a01b0390811690930217815560018084015490820180549184166001600160a01b031992831617905560028085015490830180549185169183169190911790556003938401549390910180549390921692169190911790555b60108054806116e0576116e0615162565b6000828152602080822060046000199094019384020180546001600160a81b03191681556001810180546001600160a01b0319908116909155600282018054821690556003909101805490911690559190925560ff851682526011905260409020805460ff19169055611751612b60565b60405160ff841681527f0f19bfba9b2e5adda8bcdbd5c0583080cf3871c58286275b1e90451cb0130aec9060200160405180910390a1505050565b6117946146c3565b61179c6146c3565b60ff808416600090815260116020526040902054166117bb5792915050565b60006117c6846110a8565b90506000601082815481106117dd576117dd614f68565b60009182526020918290206040805160a0810182526004938402909201805460ff80821685526001600160a01b0361010090920482168588015260018301548216858501908152600284015483166060808801918252600390950154841660808801908152928e168c5282518416948c01949094525182168a8801529151811689840152905182516370a0823160e01b81523095810195909552915192955016926370a0823192602480820193918290030181865afa1580156118a4573d6000803e3d6000fd5b505050506040513d601f19601f820116820180604052508101906118c891906150ed565b60c084015260408181015190516370a0823160e01b81523060048201526001600160a01b03909116906370a0823190602401602060405180830381865afa158015611917573d6000803e3d6000fd5b505050506040513d601f19601f8201168201806040525081019061193b91906150ed565b608084015260608101516040516370a0823160e01b81523060048201526001600160a01b03909116906370a0823190602401602060405180830381865afa15801561198a573d6000803e3d6000fd5b505050506040513d601f19601f820116820180604052508101906119ae91906150ed565b8360a001818152505080608001516001600160a01b031663313ce5676040518163ffffffff1660e01b8152600401602060405180830381865afa1580156119f9573d6000803e3d6000fd5b505050506040513d601f19601f82011682018060405250810190611a1d91906150d0565b60ff1661012084015260135460408281015190516358e8662560e01b81526001600160a01b0391821660048201529116906358e8662590602401602060405180830381865afa158015611a74573d6000803e3d6000fd5b505050506040513d601f19601f82011682018060405250810190611a9891906150d0565b60ff1660e084015260135460608201516040516358e8662560e01b81526001600160a01b0391821660048201529116906358e8662590602401602060405180830381865afa158015611aee573d6000803e3d6000fd5b505050506040513d601f19601f82011682018060405250810190611b1291906150d0565b60ff166101008401528051600090611b2b906001611ba7565b90506000811315611b6057611b5b818560c00151611b4991906150b9565b601e8661012001516110959190615106565b611b63565b60005b61018085015260408201516080850151611b7d9190610f18565b610140850152606082015160a0850151611b979190610f18565b6101608501525091949350505050565b60ff808316600090815260116020526040812054909116611bda5760405162461bcd60e51b815260040161112f90615119565b60006010611be7856110a8565b81548110611bf757611bf7614f68565b600091825260208083206040805160a0810182526004948502909201805460ff811684526001600160a01b036101009091048116848601526001820154811684840152600282015481166060850152600390910154811660808401528454825163660d0d6760e01b81529251939750169493859363660d0d679383830193919290918290030181865afa158015611c92573d6000803e3d6000fd5b505050506040513d601f19601f82011682018060405250810190611cb69190615178565b90506000604051806080016040528085608001516001600160a01b0316815260200185602001516001600160a01b0316815260200185604001516001600160a01b0316815260200185606001516001600160a01b031681525090506000611d2085602001516111d9565b90506000611d3186604001516111d9565b90506000611d4287606001516111d9565b600f5460095460405163095ce6c560e01b815292935090918b916000916001600160a01b039091169063095ce6c590611d8b908b908b908b908b908b908b908b90600401615195565b61018060405180830381865afa158015611da9573d6000803e3d6000fd5b505050506040513d601f19601f82011682018060405250810190611dcd9190615230565b509d9c50505050505050505050505050565b600b546001600160a01b03163314611e2a5760405162461bcd60e51b815260206004820152600e60248201526d24b73b30b634b21031b0b63632b960911b604482015260640161112f565b60005b601254811015611f1557600060128281548110611e4c57611e4c614f68565b6000918252602090912001546040516370a0823160e01b81523060048201526001600160a01b03909116906370a0823190602401602060405180830381865afa158015611e9d573d6000803e3d6000fd5b505050506040513d601f19601f82011682018060405250810190611ec191906150ed565b90508015611f0c5760025460128054611f0c926001600160a01b031691849186908110611ef057611ef0614f68565b6000918252602090912001546001600160a01b03169190612c6e565b50600101611e2d565b506040517f52095ed2fa7d7c4dd1c5e9a36b117c9a00bd764878e68f95da78cc6f4f54763590600090a1565b6000805b601254811015611f9757826001600160a01b031660128281548110611f6c57611f6c614f68565b6000918252602090912001546001600160a01b031603611f8f5750600192915050565b600101611f45565b50600092915050565b611fa86127e9565b6001600160a01b038116611ff55760405162461bcd60e51b8152602060048201526014602482015273474d583a20496e76616c6964204164647265737360601b604482015260640161112f565b601380546001600160a01b0319166001600160a01b0383169081179091556040519081527f31304382ad8ca8091d6b1faad35fded717d1771446c64094a9941158a525d25590602001610873565b6010818154811061205357600080fd5b6000918252602090912060049091020180546001820154600283015460039093015460ff831694506001600160a01b0361010090930483169391831692918216911685565b6120a06127e9565b47818110156120f15760405162461bcd60e51b815260206004820152601f60248201527f5661756c743a20496e76616c696420776974686472617720616d6f756e742e00604482015260640161112f565b6003546001600160a01b03166121495760405162461bcd60e51b815260206004820152601760248201527f5661756c743a20496e76616c6964207472656173757279000000000000000000604482015260640161112f565b6003546040516000916001600160a01b03169084908381818185875af1925050503d8060008114612196576040519150601f19603f3d011682016040523d82523d6000602084013e61219b565b606091505b50509050806121ec5760405162461bcd60e51b815260206004820152601b60248201527f5661756c743a204661696c656420746f2073656e642045746865720000000000604482015260640161112f565b505050565b6012818154811061158957600080fd5b6122096127e9565b6040805160c0810182526001600160a01b0380891680835290881660208301819052828401889052606083018790528515156080840181905260a0909301859052600a80546001600160a01b03199081169093179055600b8054909216179055600c869055600d859055600e805460ff19169091179055600f829055517f03d83cb733840674aae397a1ef6a2080fdfcd1f99bfa2efd1092d816f3239afa9061155590889088908890889088908890614b44565b6122c56127e9565b6001600160a01b0381166123145760405162461bcd60e51b81526020600482015260166024820152755661756c743a20496e76616c6964206164647265737360501b604482015260640161112f565b600380546001600160a01b0319166001600160a01b0383169081179091556040519081527fcb7ef3e545f5cdb893f5c568ba710fe08f336375a2d9fd66e161033f8fc09ef390602001610873565b6010546060906000906001600160401b0381111561238257612382614798565b6040519080825280602002602001820160405280156123bb57816020015b6123a86146c3565b8152602001906001900390816123a05790505b50905060005b60105481101561241f576123fa601082815481106123e1576123e1614f68565b600091825260209091206004909102015460ff1661178c565b82828151811061240c5761240c614f68565b60209081029190910101526001016123c1565b50919050565b61242d6127e9565b6001600160a01b03811661245757604051631e4fbdf760e01b81526000600482015260240161112f565b61246081612b10565b50565b6010546060906000906001600160401b0381111561248357612483614798565b6040519080825280602002602001820160405280156124c857816020015b60408051808201909152600080825260208201528152602001906001900390816124a15790505b50905060005b60105481101561241f576000601082815481106124ed576124ed614f68565b600091825260208220600491820201600301546040516370a0823160e01b815230928101929092526001600160a01b0316925082906370a0823190602401602060405180830381865afa158015612548573d6000803e3d6000fd5b505050506040513d601f19601f8201168201806040525081019061256c91906150ed565b9050600061258660108581548110610e3957610e39614f68565b905060008082131561262657600061259e83856150b9565b90506000601e866001600160a01b031663313ce5676040518163ffffffff1660e01b8152600401602060405180830381865afa1580156125e2573d6000803e3d6000fd5b505050506040513d601f19601f8201168201806040525081019061260691906150d0565b60ff166126139190615106565b90506126218282602461099e565b925050505b600060405180604001604052806010888154811061264657612646614f68565b60009182526020918290206004909102015460ff168252018390528751909150819088908890811061267a5761267a614f68565b602002602001018190525050505050508060010190506124ce565b6002546001600160a01b031633146126e05760405162461bcd60e51b815260206004820152600e60248201526d24b73b30b634b21031b0b63632b960911b604482015260640161112f565b6126e8612ccd565b60008360088111156126fc576126fc6152e4565b036127105761270b8282612cf7565b6127a5565b6001836008811115612724576127246152e4565b036127335761270b82826130b0565b6002836008811115612747576127476152e4565b036127565761270b82826130f5565b600483600881111561276a5761276a6152e4565b036127795761270b828261310e565b600383600881111561278d5761278d6152e4565b0361279a5761270b6131a4565b6127a5838383613273565b7f7602f37cd960866e4a851b683e367e8794f21cddd908ce1d9fe92b978a59f1018383836040516127d89392919061530e565b60405180910390a16121ec60018055565b6000546001600160a01b031633146115775760405163118cdaa760e01b815233600482015260240161112f565b8460ff166000036128605760405162461bcd60e51b815260206004820152601460248201527311d3560e88125b9d985b1a5908141bdbdb08125960621b604482015260640161112f565b60ff80861660009081526011602052604090205416156128d45760405162461bcd60e51b815260206004820152602960248201527f474d583a20506f6f6c2077697468207468697320706f6f6c496420616c72656160448201526864792065786973747360b81b606482015260840161112f565b6040805160a08101825260ff8088168083526001600160a01b0380891660208086019182528983168688019081528984166060880190815289851660808901908152601080546001818101835560009283528b5160049092027f1b6847dc741a1b0cd08d278845f9d819d87b734759afb55fe2de5cb82a9ae6728101805499518b16610100026001600160a81b0319909a1693909c16929092179790971790995592517f1b6847dc741a1b0cd08d278845f9d819d87b734759afb55fe2de5cb82a9ae673890180549188166001600160a01b031992831617905591517f1b6847dc741a1b0cd08d278845f9d819d87b734759afb55fe2de5cb82a9ae67489018054918816918416919091179055517f1b6847dc741a1b0cd08d278845f9d819d87b734759afb55fe2de5cb82a9ae67590970180549790951696169590951790925591835260119052929020805460ff1916909217909155612a3484611f41565b612a8457601280546001810182556000919091527fbb8a6a4669ba250d26cd7a459eca9d215f8307e33aebe50379bc5a3617ec34440180546001600160a01b0319166001600160a01b0386161790555b612a8d83611f41565b612add57601280546001810182556000919091527fbb8a6a4669ba250d26cd7a459eca9d215f8307e33aebe50379bc5a3617ec34440180546001600160a01b0319166001600160a01b0385161790555b60405160ff871681527f09cce9a1e4000121ddb6c53c0c6161a69a7fd0c028b5970acddf3350a920489190602001611555565b600080546001600160a01b038381166001600160a01b0319831681178455604051919092169283917f8be0079c531659141344cd1fd0a4f28419497f9722a3daafe3b4186f6b6457e09190a35050565b6012545b801561246057612ba46012612b7a600184614f94565b81548110612b8a57612b8a614f68565b6000918252602090912001546001600160a01b0316613537565b612c5c5760128054612bb890600190614f94565b81548110612bc857612bc8614f68565b6000918252602090912001546001600160a01b03166012612bea600184614f94565b81548110612bfa57612bfa614f68565b9060005260206000200160006101000a8154816001600160a01b0302191690836001600160a01b031602179055506012805480612c3957612c39615162565b600082815260209020810160001990810180546001600160a01b03191690550190555b80612c668161534b565b915050612b64565b6040516001600160a01b038381166024830152604482018390526121ec91859182169063a9059cbb906064015b604051602081830303815290604052915060e01b6020820180516001600160e01b0383818316178352505050506135d8565b600260015403612cf057604051633ee5aeb560e01b815260040160405180910390fd5b6002600155565b6000808080612d0885870187615439565b9350935093509350600081806020019051810190612d2691906150ed565b60ff80871660009081526011602052604090205491925016612d5a5760405162461bcd60e51b815260040161112f90615119565b83516002148015612d6c575082516002145b612db85760405162461bcd60e51b815260206004820152601b60248201527f474d583a204172726179206c656e677468206d75737420626520320000000000604482015260640161112f565b6000612dc3866110a8565b9050600060108281548110612dda57612dda614f68565b600091825260208083206040805160a0810182526004909402909101805460ff811685526001600160a01b036101009091048116938501939093526001810154831691840191909152600281015482166060840152600301541660808201528751909250879190612e4d57612e4d614f68565b60200260200101516001600160a01b031681604001516001600160a01b0316148015612ea8575085600181518110612e8757612e87614f68565b60200260200101516001600160a01b031681606001516001600160a01b0316145b612ef45760405162461bcd60e51b815260206004820152601860248201527f474d583a20496e76616c696420506f6f6c20746f6b656e730000000000000000604482015260640161112f565b84600081518110612f0757612f07614f68565b60200260200101516000141580612f39575084600181518110612f2c57612f2c614f68565b6020026020010151600014155b612f855760405162461bcd60e51b815260206004820152601960248201527f474d583a20496e76616c696420746f6b656e20616d6f756e7400000000000000604482015260640161112f565b600085600081518110612f9a57612f9a614f68565b60200260200101511115612ff4576002548551612ff4916001600160a01b03169030908890600090612fce57612fce614f68565b602002602001015184604001516001600160a01b031661363b909392919063ffffffff16565b60008560018151811061300957613009614f68565b60200260200101511115613065576002548551613065916001600160a01b03169030908890600190811061303f5761303f614f68565b602002602001015184606001516001600160a01b031661363b909392919063ffffffff16565b6130a5878660008151811061307c5761307c614f68565b60200260200101518760018151811061309757613097614f68565b602002602001015186613669565b505050505050505050565b6000808080806130c2868801886154d3565b94509450945094509450600080828060200190518101906130e39190615548565b915091506130a5878787858589613a96565b600061310382840184615699565b90506121ec81613f98565b60008061311d8385018561577e565b915091508160ff1660000361313a57613135816142ab565b613162565b8160ff1660010361314e576131358161430e565b8160ff16600203613162576131628161433f565b6040805160ff84168152602081018390527f8f9edcb63f442052ba4d68bdd7cf50e8bb5f615f31ba22ecb1eab71fa256dddf910160405180910390a150505050565b60005b601454811015612460576000601482815481106131c6576131c6614f68565b6000918252602090912001546040516370a0823160e01b81523060048201526001600160a01b03909116906370a0823190602401602060405180830381865afa158015613217573d6000803e3d6000fd5b505050506040513d601f19601f8201168201806040525081019061323b91906150ed565b9050801561326a576002546014805461326a926001600160a01b031691849186908110611ef057611ef0614f68565b506001016131a7565b60008080806132848587018761579c565b9350935093509350600084516001600160401b038111156132a7576132a7614798565b6040519080825280602002602001820160405280156132d0578160200160208202803683370190505b506004549091506001600160a01b031660058960088111156132f4576132f46152e4565b036133b75760025460405162d4e5d960e11b81526001600160a01b03838116926301a9cbb2928792613330928c928c929091169060040161582b565b60006040518083038185885af115801561334e573d6000803e3d6000fd5b50505050506040513d6000823e601f3d908101601f191682016040526133779190810190615869565b91507f4a13c8ea7a1f6f30b1fa8423940f85d7a03ef81dcf0aa89405dbf7439781973689836040516133aa92919061592a565b60405180910390a16130a5565b60068960088111156133cb576133cb6152e4565b03613408576002546040516324943d1160e11b81526001600160a01b03838116926349287a22928792613330928c928c929091169060040161582b565b600789600881111561341c5761341c6152e4565b036134595760025460405163e9249b5760e01b81526001600160a01b038084169263e9249b57928792613330928c928c928c92169060040161594a565b600889600881111561346d5761346d6152e4565b036130a55760025460405163c41b1ab360e01b81526001600160a01b038381169263c41b1ab39287926134aa928c928c929091169060040161582b565b60006040518083038185885af11580156134c8573d6000803e3d6000fd5b50505050506040513d6000823e601f3d908101601f191682016040526134f19190810190615869565b91507f4a13c8ea7a1f6f30b1fa8423940f85d7a03ef81dcf0aa89405dbf74397819736898360405161352492919061592a565b60405180910390a1505050505050505050565b6000805b601054811015611f9757826001600160a01b03166010828154811061356257613562614f68565b60009182526020909120600160049092020101546001600160a01b031614806135c25750826001600160a01b0316601082815481106135a3576135a3614f68565b60009182526020909120600260049092020101546001600160a01b0316145b156135d05750600192915050565b60010161353b565b60006135ed6001600160a01b03841683614370565b90508051600014158015613612575080806020019051810190613610919061599d565b155b156121ec57604051635274afe760e01b81526001600160a01b038416600482015260240161112f565b61366384856001600160a01b03166323b872dd868686604051602401612c9b939291906159ba565b50505050565b60006010613676866110a8565b8154811061368657613686614f68565b60009182526020918290206040805160a080820183526004948502909301805460ff80821684526001600160a01b03610100928390048116858a015260018401548116858701819052600285015482166060808801829052600390960154831660808089018290529a54600d548a5161018081018c52308152600b5487169e81019e909e52600a5486169a8e019a909a528c88018290529a8c01839052988b0181905260c08b0186905260e08b01869052938a018c9052600e5490921615156101208a01526101408901869052600c546101608a0152939850959092169591939290918291908b1561378c5760055461378c906001600160a01b0389811691168e61437e565b8a156137ac576005546137ac906001600160a01b0388811691168d61437e565b60408051600480825260a08201909252600091816020015b60608152602001906001900390816137c4579050506006546040516001600160a01b0390911660248201526044810185905290915060640160408051601f198184030181529190526020810180516001600160e01b0316637d39aaf160e01b1790528151829060009061383957613839614f68565b602002602001018190525087600460020160009054906101000a90046001600160a01b03168e604051602401613871939291906159ba565b60408051601f198184030181529190526020810180516001600160e01b0316631cdacd5960e31b1790528151829060019081106138b0576138b0614f68565b60209081029190910101526006546040516138dd9189916001600160a01b03909116908f906024016159ba565b60408051601f198184030181529190526020810180516001600160e01b0316631cdacd5960e31b17905281518290600290811061391c5761391c614f68565b60200260200101819052508160405160240161393891906159de565b60408051601f198184030181529190526020810180516001600160e01b0316635b4e956160e01b17905281518290600390811061397757613977614f68565b60200260200101819052506000896001600160a01b031663ac9650d885846040518363ffffffff1660e01b81526004016139b19190615b0b565b60006040518083038185885af11580156139cf573d6000803e3d6000fd5b50505050506040513d6000823e601f3d908101601f191682016040526139f89190810190615b85565b600b5481519192506001600160a01b031690632c99327a9083906003908110613a2357613a23614f68565b6020026020010151613a3490615c71565b60006040518363ffffffff1660e01b8152600401613a53929190615ca5565b600060405180830381600087803b158015613a6d57600080fd5b505af1158015613a81573d6000803e3d6000fd5b50505050505050505050505050505050505050565b60006010613aa3886110a8565b81548110613ab357613ab3614f68565b600091825260208083206040805160a0810182526004948502909201805460ff8116845261010090046001600160a01b0390811694840194909452600181015484168383015260028101548416606080850191909152600390910154841660808401819052855492516370a0823160e01b815230968101969096529296509216939192839291906370a0823190602401602060405180830381865afa158015613b60573d6000803e3d6000fd5b505050506040513d601f19601f82011682018060405250810190613b8491906150ed565b9050898110158015613b96575060008a115b613bf15760405162461bcd60e51b815260206004820152602660248201527f474d583a20496e73756666696369656e74206d61726b657420746f6b656e2062604482015265616c616e636560d01b606482015260840161112f565b60408051610160810182526001600160a01b038089168252600b5481166020830152600a54811692820192909252608080880180518416606084015290820186905260a0820185905260c082018b905260e082018a9052600e5460ff161515610100830152600d54610120830152600c5461014083015260055490519192613c7d92811691168d61437e565b60408051600380825260808201909252600091816020015b6060815260200190600190039081613c9557905050600754600d546040516001600160a01b039092166024830152604482015290915060640160408051601f198184030181529190526020810180516001600160e01b0316637d39aaf160e01b17905281518290600090613d0b57613d0b614f68565b60209081029190910101526080870151600754604051613d3a92916001600160a01b0316908f906024016159ba565b60408051601f198184030181529190526020810180516001600160e01b0316631cdacd5960e31b179052815182906001908110613d7957613d79614f68565b602002602001018190525081604051602401613d959190615cc2565b60408051601f198184030181529190526020810180516001600160e01b031663ad23c5a160e01b179052815182906002908110613dd457613dd4614f68565b6020908102919091010152600d54604051631592ca1b60e31b81526000916001600160a01b0389169163ac9650d89190613e12908690600401615b0b565b60006040518083038185885af1158015613e30573d6000803e3d6000fd5b50505050506040513d6000823e601f3d908101601f19168201604052613e599190810190615b85565b600b5481519192506001600160a01b031690632c99327a9083906002908110613e8457613e84614f68565b6020026020010151613e9590615c71565b60016040518363ffffffff1660e01b8152600401613eb4929190615ca5565b600060405180830381600087803b158015613ece57600080fd5b505af1158015613ee2573d6000803e3d6000fd5b5050600b5483516001600160a01b03909116925063c9cbe54e915083906002908110613f1057613f10614f68565b6020026020010151613f2190615c71565b6040516001600160e01b031960e084901b1681526004810191909152602481018f90526001600160a01b038c166044820152606401600060405180830381600087803b158015613f7057600080fd5b505af1158015613f84573d6000803e3d6000fd5b505050505050505050505050505050505050565b6002548151516001600160a01b03908116911614613feb5760405162461bcd60e51b815260206004820152601060248201526f24b73b30b634b2103932b1b2b4bb32b960811b604482015260640161112f565b60025481516001600160a01b03918216602091820152600b548351908316604090910152600a548351908316606090910152600c54818401805160a09081018390526004548651820151835195860151600d546080909701969096529251909101929092529216919060008460400151600781111561406c5761406c6152e4565b148061408d575060018460400151600781111561408b5761408b6152e4565b145b806140ad57506002846040015160078111156140ab576140ab6152e4565b145b806140cd57506003846040015160078111156140cb576140cb6152e4565b145b1561416e576002546140ed906001600160a01b038481169116308461363b565b600554614107906001600160a01b0384811691168361437e565b600854604051631cdacd5960e31b81526001600160a01b038086169263e6d66ac89261413b928792169086906004016159ba565b600060405180830381600087803b15801561415557600080fd5b505af1158015614169573d6000803e3d6000fd5b505050505b600d54600854604051637d39aaf160e01b81526001600160a01b0391821660048201526024810183905290851691637d39aaf1916044016000604051808303818588803b1580156141be57600080fd5b505af11580156141d2573d6000803e3d6000fd5b505060405163041e7e7760e11b8152600093506001600160a01b038716925063083cfcee9150614206908890600401615e28565b6020604051808303816000875af1158015614225573d6000803e3d6000fd5b505050506040513d601f19601f8201168201806040525081019061424991906150ed565b600b5460405163164c993d60e11b81529192506001600160a01b031690632c99327a9061427d908490600290600401615ca5565b600060405180830381600087803b15801561429757600080fd5b505af11580156130a5573d6000803e3d6000fd5b60048054604051630c50112160e21b81529182018390526001600160a01b03169081906331404484906024015b600060405180830381600087803b1580156142f257600080fd5b505af1158015614306573d6000803e3d6000fd5b505050505050565b600480546040516303909e2d60e51b81529182018390526001600160a01b0316908190637213c5a0906024016142d8565b60048054604051637489ec2360e01b81529182018390526001600160a01b0316908190637489ec23906024016142d8565b60606109ec83836000614408565b604051636eb1769f60e11b81523060048201526001600160a01b0383811660248301526000919085169063dd62ed3e90604401602060405180830381865afa1580156143ce573d6000803e3d6000fd5b505050506040513d601f19601f820116820180604052508101906143f291906150ed565b905061366384846144038585615106565b6144a5565b60608147101561442d5760405163cd78605960e01b815230600482015260240161112f565b600080856001600160a01b031684866040516144499190615efd565b60006040518083038185875af1925050503d8060008114614486576040519150601f19603f3d011682016040523d82523d6000602084013e61448b565b606091505b509150915061449b868383614535565b9695505050505050565b604080516001600160a01b038416602482015260448082018490528251808303909101815260649091019091526020810180516001600160e01b031663095ea7b360e01b1790526144f68482614591565b613663576040516001600160a01b0384811660248301526000604483015261452b91869182169063095ea7b390606401612c9b565b61366384826135d8565b60608261454a5761454582614639565b6109ec565b815115801561456157506001600160a01b0384163b155b1561458a57604051639996b31560e01b81526001600160a01b038516600482015260240161112f565b50806109ec565b6000806000846001600160a01b0316846040516145ae9190615efd565b6000604051808303816000865af19150503d80600081146145eb576040519150601f19603f3d011682016040523d82523d6000602084013e6145f0565b606091505b509150915081801561461a57508051158061461a57508080602001905181019061461a919061599d565b801561463057506000856001600160a01b03163b115b95945050505050565b8051156146495780518082602001fd5b604051630a12f52160e11b815260040160405180910390fd5b8280548282559060005260206000209081019282156146b7579160200282015b828111156146b757825182546001600160a01b0319166001600160a01b03909116178255602090920191600190910190614682565b50610f14929150614749565b604051806101a00160405280600060ff16815260200160006001600160a01b0316815260200160006001600160a01b0316815260200160006001600160a01b031681526020016000815260200160008152602001600081526020016000815260200160008152602001600081526020016000815260200160008152602001600081525090565b5b80821115610f14576000815560010161474a565b6001600160a01b0396871681529486166020860152928516604085015290841660608401528316608083015290911660a082015260c00190565b634e487b7160e01b600052604160045260246000fd5b60405160a081016001600160401b03811182821017156147d0576147d0614798565b60405290565b60405161016081016001600160401b03811182821017156147d0576147d0614798565b60405160e081016001600160401b03811182821017156147d0576147d0614798565b60405161010081016001600160401b03811182821017156147d0576147d0614798565b604051601f8201601f191681016001600160401b038111828210171561486657614866614798565b604052919050565b60006001600160401b0382111561488757614887614798565b5060051b60200190565b6001600160a01b038116811461246057600080fd5b80356148b181614891565b919050565b600082601f8301126148c757600080fd5b813560206148dc6148d78361486e565b61483e565b8083825260208201915060208460051b8701019350868411156148fe57600080fd5b602086015b8481101561492357803561491681614891565b8352918301918301614903565b509695505050505050565b60006020828403121561494057600080fd5b81356001600160401b0381111561495657600080fd5b614962848285016148b6565b949350505050565b60ff8116811461246057600080fd5b6000602080838503121561498c57600080fd5b82356001600160401b038111156149a257600080fd5b8301601f810185136149b357600080fd5b80356149c16148d78261486e565b81815260a091820283018401918482019190888411156149e057600080fd5b938501935b83851015614a6b5780858a0312156149fd5760008081fd5b614a056147ae565b8535614a108161496a565b815285870135614a1f81614891565b81880152604086810135614a3281614891565b90820152606086810135614a4581614891565b90820152608086810135614a5881614891565b90820152835293840193918501916149e5565b50979650505050505050565b60008151808452602080850194506020840160005b83811015614ab15781516001600160a01b031687529582019590820190600101614a8c565b509495945050505050565b6020815260006109ec6020830184614a77565b600080600060608486031215614ae457600080fd5b505081359360208301359350604090920135919050565b600060208284031215614b0d57600080fd5b81356109ec8161496a565b60008060408385031215614b2b57600080fd5b8235614b3681614891565b946020939093013593505050565b6001600160a01b039687168152949095166020850152604084019290925260608301521515608082015260a081019190915260c00190565b602080825282518282018190526000919060409081850190868401855b82811015614bf0578151805160ff168552868101516001600160a01b039081168887015286820151811687870152606080830151821690870152608091820151169085015260a09093019290850190600101614b99565b5091979650505050505050565b600060208284031215614c0f57600080fd5b81356109ec81614891565b8151815260208083015190820152604081016110a2565b60008060008060008060c08789031215614c4a57600080fd5b8635614c5581614891565b95506020870135614c6581614891565b94506040870135614c7581614891565b93506060870135614c8581614891565b92506080870135614c9581614891565b915060a0870135614ca581614891565b809150509295509295509295565b600060208284031215614cc557600080fd5b5035919050565b805160ff1682526020810151614ced60208401826001600160a01b03169052565b506040810151614d0860408401826001600160a01b03169052565b506060810151614d2360608401826001600160a01b03169052565b506080818101519083015260a0808201519083015260c0808201519083015260e08082015190830152610100808201519083015261012080820151908301526101408082015190830152610160808201519083015261018090810151910152565b6101a081016110a28284614ccc565b801515811461246057600080fd5b80356148b181614d93565b60008060408385031215614dbf57600080fd5b8235614dca8161496a565b91506020830135614dda81614d93565b809150509250929050565b60008060008060008060c08789031215614dfe57600080fd5b8635614e0981614891565b95506020870135614e1981614891565b945060408701359350606087013592506080870135614e3781614d93565b8092505060a087013590509295509295509295565b6020808252825182820181905260009190848201906040850190845b81811015614e8f57614e7b838551614ccc565b928401926101a09290920191600101614e68565b50909695505050505050565b602080825282518282018190526000919060409081850190868401855b82811015614bf0578151805160ff168552860151868501529284019290850190600101614eb8565b600080600060408486031215614ef557600080fd5b833560098110614f0457600080fd5b925060208401356001600160401b0380821115614f2057600080fd5b818601915086601f830112614f3457600080fd5b813581811115614f4357600080fd5b876020828501011115614f5557600080fd5b6020830194508093505050509250925092565b634e487b7160e01b600052603260045260246000fd5b634e487b7160e01b600052601160045260246000fd5b818103818111156110a2576110a2614f7e565b600181815b80851115614fe2578160001904821115614fc857614fc8614f7e565b80851615614fd557918102915b93841c9390800290614fac565b509250929050565b600082614ff9575060016110a2565b81615006575060006110a2565b816001811461501c576002811461502657615042565b60019150506110a2565b60ff84111561503757615037614f7e565b50506001821b6110a2565b5060208310610133831016604e8410600b8410161715615065575081810a6110a2565b61506f8383614fa7565b806000190482111561508357615083614f7e565b029392505050565b60006109ec8383614fea565b6000826150b457634e487b7160e01b600052601260045260246000fd5b500490565b80820281158282048414176110a2576110a2614f7e565b6000602082840312156150e257600080fd5b81516109ec8161496a565b6000602082840312156150ff57600080fd5b5051919050565b808201808211156110a2576110a2614f7e565b60208082526029908201527f474d583a20506f6f6c2077697468207468697320706f6f6c496420646f6573206040820152681b9bdd08195e1a5cdd60ba1b606082015260800190565b634e487b7160e01b600052603160045260246000fd5b60006020828403121561518a57600080fd5b81516109ec81614891565b60006101a08201905060018060a01b03808a1683528089511660208401528060208a01511660408401528060408a01511660608401528060608a0151166080840152506151ef60a083018880518252602090810151910152565b855160e08301526020860151610100830152845161012083015260208501516101408301528361016083015282151561018083015298975050505050505050565b60008082840361018081121561524557600080fd5b8351925061016080601f198301121561525d57600080fd5b6152656147d6565b91506020850151825260408501516020830152606085015160408301526080850151606083015260a0850151608083015260c085015160a083015260e085015160c08301526101008086015160e08401526101208087015182850152610140915081870151818501525081860151818401525050809150509250929050565b634e487b7160e01b600052602160045260246000fd5b6009811061530a5761530a6152e4565b9052565b61531881856152fa565b60406020820152816040820152818360608301376000818301606090810191909152601f909201601f1916010192915050565b60008161535a5761535a614f7e565b506000190190565b600082601f83011261537357600080fd5b813560206153836148d78361486e565b8083825260208201915060208460051b8701019350868411156153a557600080fd5b602086015b8481101561492357803583529183019183016153aa565b60006001600160401b038211156153da576153da614798565b50601f01601f191660200190565b600082601f8301126153f957600080fd5b81356154076148d7826153c1565b81815284602083860101111561541c57600080fd5b816020850160208301376000918101602001919091529392505050565b6000806000806080858703121561544f57600080fd5b843561545a8161496a565b935060208501356001600160401b038082111561547657600080fd5b615482888389016148b6565b9450604087013591508082111561549857600080fd5b6154a488838901615362565b935060608701359150808211156154ba57600080fd5b506154c7878288016153e8565b91505092959194509250565b600080600080600060a086880312156154eb57600080fd5b85356154f68161496a565b94506020860135935060408601359250606086013561551481614891565b915060808601356001600160401b0381111561552f57600080fd5b61553b888289016153e8565b9150509295509295909350565b6000806040838503121561555b57600080fd5b505080516020909101519092909150565b600060e0828403121561557e57600080fd5b6155866147f9565b9050615591826148a6565b815261559f602083016148a6565b60208201526155b0604083016148a6565b60408201526155c1606083016148a6565b60608201526155d2608083016148a6565b60808201526155e360a083016148a6565b60a082015260c08201356001600160401b0381111561560157600080fd5b61560d848285016148b6565b60c08301525092915050565b600060e0828403121561562b57600080fd5b6156336147f9565b9050813581526020820135602082015260408201356040820152606082013560608201526080820135608082015260a082013560a082015260c082013560c082015292915050565b8035600881106148b157600080fd5b8035600381106148b157600080fd5b6000602082840312156156ab57600080fd5b81356001600160401b03808211156156c257600080fd5b908301906101c082860312156156d757600080fd5b6156df61481b565b8235828111156156ee57600080fd5b6156fa8782860161556c565b82525061570a8660208501615619565b602082015261571c610100840161567b565b604082015261572e610120840161568a565b60608201526157406101408401614da1565b60808201526157526101608401614da1565b60a08201526157646101808401614da1565b60c08201526101a0929092013560e0830152509392505050565b6000806040838503121561579157600080fd5b8235614b368161496a565b600080600080608085870312156157b257600080fd5b84356001600160401b03808211156157c957600080fd5b6157d5888389016148b6565b955060208701359150808211156157eb57600080fd5b6157f7888389016148b6565b9450604087013591508082111561580d57600080fd5b5061581a87828801615362565b949793965093946060013593505050565b60608152600061583e6060830186614a77565b82810360208401526158508186614a77565b91505060018060a01b0383166040830152949350505050565b6000602080838503121561587c57600080fd5b82516001600160401b0381111561589257600080fd5b8301601f810185136158a357600080fd5b80516158b16148d78261486e565b81815260059190911b820183019083810190878311156158d057600080fd5b928401925b828410156158ee578351825292840192908401906158d5565b979650505050505050565b60008151808452602080850194506020840160005b83811015614ab15781518752958201959082019060010161590e565b61593481846152fa565b60406020820152600061496260408301846158f9565b60808152600061595d6080830187614a77565b828103602084015261596f8187614a77565b9050828103604084015261598381866158f9565b91505060018060a01b038316606083015295945050505050565b6000602082840312156159af57600080fd5b81516109ec81614d93565b6001600160a01b039384168152919092166020820152604081019190915260600190565b602081526159f86020820183516001600160a01b03169052565b60006020830151615a1460408401826001600160a01b03169052565b5060408301516001600160a01b03811660608401525060608301516001600160a01b03811660808401525060808301516001600160a01b03811660a08401525060a08301516001600160a01b03811660c08401525060c08301516101808060e0850152615a856101a0850183614a77565b915060e0850151610100601f198685030181870152615aa48483614a77565b90870151610120878101919091528701519093509050610140615aca8187018315159052565b860151610160868101919091529095015193019290925250919050565b60005b83811015615b02578181015183820152602001615aea565b50506000910152565b6000602080830181845280855180835260408601915060408160051b870101925083870160005b82811015615b7857878503603f1901845281518051808752615b59818989018a8501615ae7565b601f01601f191695909501860194509285019290850190600101615b32565b5092979650505050505050565b60006020808385031215615b9857600080fd5b82516001600160401b0380821115615baf57600080fd5b818501915085601f830112615bc357600080fd5b8151615bd16148d78261486e565b81815260059190911b83018401908481019088831115615bf057600080fd5b8585015b83811015615c6457805185811115615c0c5760008081fd5b8601603f81018b13615c1e5760008081fd5b878101516040615c306148d7836153c1565b8281528d82848601011115615c455760008081fd5b615c54838c8301848701615ae7565b8652505050918601918601615bf4565b5098975050505050505050565b8051602080830151919081101561241f5760001960209190910360031b1b16919050565b60038110612460576124606152e4565b82815260408101615cb583615c95565b8260208301529392505050565b60208152615cdc6020820183516001600160a01b03169052565b60006020830151615cf860408401826001600160a01b03169052565b5060408301516001600160a01b03811660608401525060608301516001600160a01b03811660808401525060808301516101608060a0850152615d3f610180850183614a77565b915060a0850151601f198584030160c0860152615d5c8382614a77565b92505060c085015160e085015260e0850151610100818187015280870151915050610120615d8d8187018315159052565b860151610140868101919091529095015193019290925250919050565b600060018060a01b038083511684528060208401511660208501528060408401511660408501528060608401511660608501528060808401511660808501528060a08401511660a08501525060c082015160e060c085015261496260e0850182614a77565b6008811061530a5761530a6152e4565b61530a81615c95565b60208152600082516101c0806020850152615e476101e0850183615daa565b91506020850151615e9a6040860182805182526020810151602083015260408101516040830152606081015160608301526080810151608083015260a081015160a083015260c081015160c08301525050565b506040850151615eae610120860182615e0f565b506060850151615ec2610140860182615e1f565b506080850151151561016085015260a0850151151561018085015260c085015115156101a085015260e0909401519390920192909252919050565b60008251615f0f818460208701615ae7565b919091019291505056fea26469706673582212207d7c64651f96301ec972ccc1b1394ba09af4752e2549825794ca3e21bc96863a64736f6c63430008180033",
  "devdoc": {
    "errors": {
      "AddressEmptyCode(address)": [
        {
          "details": "There's no code at `target` (it is not a contract)."
        }
      ],
      "AddressInsufficientBalance(address)": [
        {
          "details": "The ETH balance of the account is not enough to perform the operation."
        }
      ],
      "FailedInnerCall()": [
        {
          "details": "A call to an address target failed. The target may have reverted."
        }
      ],
      "OwnableInvalidOwner(address)": [
        {
          "details": "The owner is not a valid owner account. (eg. `address(0)`)"
        }
      ],
      "OwnableUnauthorizedAccount(address)": [
        {
          "details": "The caller account is not authorized to perform an operation."
        }
      ],
      "ReentrancyGuardReentrantCall()": [
        {
          "details": "Unauthorized reentrant call."
        }
      ],
      "SafeERC20FailedOperation(address)": [
        {
          "details": "An operation with an ERC20 token failed."
        }
      ]
    },
    "kind": "dev",
    "methods": {
      "owner()": {
        "details": "Returns the address of the current owner."
      },
      "renounceOwnership()": {
        "details": "Leaves the contract without owner. It will not be possible to call `onlyOwner` functions. Can only be called by the current owner. NOTE: Renouncing ownership will leave the contract without an owner, thereby disabling any functionality that is only available to the owner."
      },
      "transferOwnership(address)": {
        "details": "Transfers ownership of the contract to a new account (`newOwner`). Can only be called by the current owner."
      }
    },
    "version": 1
  },
  "userdoc": {
    "kind": "user",
    "methods": {},
    "version": 1
  },
  "storageLayout": {
    "storage": [
      {
        "astId": 8,
        "contract": "contracts/vaults/theseus/GmxPlugin.sol:GmxPlugin",
        "label": "_owner",
        "offset": 0,
        "slot": "0",
        "type": "t_address"
      },
      {
        "astId": 1523,
        "contract": "contracts/vaults/theseus/GmxPlugin.sol:GmxPlugin",
        "label": "_status",
        "offset": 0,
        "slot": "1",
        "type": "t_uint256"
      },
      {
        "astId": 3011,
        "contract": "contracts/vaults/theseus/GmxPlugin.sol:GmxPlugin",
        "label": "localVault",
        "offset": 0,
        "slot": "2",
        "type": "t_address"
      },
      {
        "astId": 3013,
        "contract": "contracts/vaults/theseus/GmxPlugin.sol:GmxPlugin",
        "label": "treasury",
        "offset": 0,
        "slot": "3",
        "type": "t_address_payable"
      },
      {
        "astId": 3016,
        "contract": "contracts/vaults/theseus/GmxPlugin.sol:GmxPlugin",
        "label": "routerConfig",
        "offset": 0,
        "slot": "4",
        "type": "t_struct(RouterConfig)2953_storage"
      },
      {
        "astId": 3019,
        "contract": "contracts/vaults/theseus/GmxPlugin.sol:GmxPlugin",
        "label": "gmxParams",
        "offset": 0,
        "slot": "10",
        "type": "t_struct(GmxParams)2977_storage"
      },
      {
        "astId": 3023,
        "contract": "contracts/vaults/theseus/GmxPlugin.sol:GmxPlugin",
        "label": "pools",
        "offset": 0,
        "slot": "16",
        "type": "t_array(t_struct(PoolConfig)2964_storage)dyn_storage"
      },
      {
        "astId": 3027,
        "contract": "contracts/vaults/theseus/GmxPlugin.sol:GmxPlugin",
        "label": "poolExistsMap",
        "offset": 0,
        "slot": "17",
        "type": "t_mapping(t_uint8,t_bool)"
      },
      {
        "astId": 3030,
        "contract": "contracts/vaults/theseus/GmxPlugin.sol:GmxPlugin",
        "label": "uniqueTokens",
        "offset": 0,
        "slot": "18",
        "type": "t_array(t_address)dyn_storage"
      },
      {
        "astId": 3032,
        "contract": "contracts/vaults/theseus/GmxPlugin.sol:GmxPlugin",
        "label": "tokenPriceConsumer",
        "offset": 0,
        "slot": "19",
        "type": "t_address"
      },
      {
        "astId": 3035,
        "contract": "contracts/vaults/theseus/GmxPlugin.sol:GmxPlugin",
        "label": "rewardTokens",
        "offset": 0,
        "slot": "20",
        "type": "t_array(t_address)dyn_storage"
      }
    ],
    "types": {
      "t_address": {
        "encoding": "inplace",
        "label": "address",
        "numberOfBytes": "20"
      },
      "t_address_payable": {
        "encoding": "inplace",
        "label": "address payable",
        "numberOfBytes": "20"
      },
      "t_array(t_address)dyn_storage": {
        "base": "t_address",
        "encoding": "dynamic_array",
        "label": "address[]",
        "numberOfBytes": "32"
      },
      "t_array(t_struct(PoolConfig)2964_storage)dyn_storage": {
        "base": "t_struct(PoolConfig)2964_storage",
        "encoding": "dynamic_array",
        "label": "struct GmxPlugin.PoolConfig[]",
        "numberOfBytes": "32"
      },
      "t_bool": {
        "encoding": "inplace",
        "label": "bool",
        "numberOfBytes": "1"
      },
      "t_bytes32": {
        "encoding": "inplace",
        "label": "bytes32",
        "numberOfBytes": "32"
      },
      "t_mapping(t_uint8,t_bool)": {
        "encoding": "mapping",
        "key": "t_uint8",
        "label": "mapping(uint8 => bool)",
        "numberOfBytes": "32",
        "value": "t_bool"
      },
      "t_struct(GmxParams)2977_storage": {
        "encoding": "inplace",
        "label": "struct GmxPlugin.GmxParams",
        "members": [
          {
            "astId": 2966,
            "contract": "contracts/vaults/theseus/GmxPlugin.sol:GmxPlugin",
            "label": "uiFeeReceiver",
            "offset": 0,
            "slot": "0",
            "type": "t_address"
          },
          {
            "astId": 2968,
            "contract": "contracts/vaults/theseus/GmxPlugin.sol:GmxPlugin",
            "label": "callbackContract",
            "offset": 0,
            "slot": "1",
            "type": "t_address"
          },
          {
            "astId": 2970,
            "contract": "contracts/vaults/theseus/GmxPlugin.sol:GmxPlugin",
            "label": "callbackGasLimit",
            "offset": 0,
            "slot": "2",
            "type": "t_uint256"
          },
          {
            "astId": 2972,
            "contract": "contracts/vaults/theseus/GmxPlugin.sol:GmxPlugin",
            "label": "executionFee",
            "offset": 0,
            "slot": "3",
            "type": "t_uint256"
          },
          {
            "astId": 2974,
            "contract": "contracts/vaults/theseus/GmxPlugin.sol:GmxPlugin",
            "label": "shouldUnwrapNativeToken",
            "offset": 0,
            "slot": "4",
            "type": "t_bool"
          },
          {
            "astId": 2976,
            "contract": "contracts/vaults/theseus/GmxPlugin.sol:GmxPlugin",
            "label": "pnlFactorType",
            "offset": 0,
            "slot": "5",
            "type": "t_bytes32"
          }
        ],
        "numberOfBytes": "192"
      },
      "t_struct(PoolConfig)2964_storage": {
        "encoding": "inplace",
        "label": "struct GmxPlugin.PoolConfig",
        "members": [
          {
            "astId": 2955,
            "contract": "contracts/vaults/theseus/GmxPlugin.sol:GmxPlugin",
            "label": "poolId",
            "offset": 0,
            "slot": "0",
            "type": "t_uint8"
          },
          {
            "astId": 2957,
            "contract": "contracts/vaults/theseus/GmxPlugin.sol:GmxPlugin",
            "label": "indexToken",
            "offset": 1,
            "slot": "0",
            "type": "t_address"
          },
          {
            "astId": 2959,
            "contract": "contracts/vaults/theseus/GmxPlugin.sol:GmxPlugin",
            "label": "longToken",
            "offset": 0,
            "slot": "1",
            "type": "t_address"
          },
          {
            "astId": 2961,
            "contract": "contracts/vaults/theseus/GmxPlugin.sol:GmxPlugin",
            "label": "shortToken",
            "offset": 0,
            "slot": "2",
            "type": "t_address"
          },
          {
            "astId": 2963,
            "contract": "contracts/vaults/theseus/GmxPlugin.sol:GmxPlugin",
            "label": "marketToken",
            "offset": 0,
            "slot": "3",
            "type": "t_address"
          }
        ],
        "numberOfBytes": "128"
      },
      "t_struct(RouterConfig)2953_storage": {
        "encoding": "inplace",
        "label": "struct GmxPlugin.RouterConfig",
        "members": [
          {
            "astId": 2942,
            "contract": "contracts/vaults/theseus/GmxPlugin.sol:GmxPlugin",
            "label": "exchangeRouter",
            "offset": 0,
            "slot": "0",
            "type": "t_address"
          },
          {
            "astId": 2944,
            "contract": "contracts/vaults/theseus/GmxPlugin.sol:GmxPlugin",
            "label": "router",
            "offset": 0,
            "slot": "1",
            "type": "t_address"
          },
          {
            "astId": 2946,
            "contract": "contracts/vaults/theseus/GmxPlugin.sol:GmxPlugin",
            "label": "depositVault",
            "offset": 0,
            "slot": "2",
            "type": "t_address"
          },
          {
            "astId": 2948,
            "contract": "contracts/vaults/theseus/GmxPlugin.sol:GmxPlugin",
            "label": "withdrawVault",
            "offset": 0,
            "slot": "3",
            "type": "t_address"
          },
          {
            "astId": 2950,
            "contract": "contracts/vaults/theseus/GmxPlugin.sol:GmxPlugin",
            "label": "orderVault",
            "offset": 0,
            "slot": "4",
            "type": "t_address"
          },
          {
            "astId": 2952,
            "contract": "contracts/vaults/theseus/GmxPlugin.sol:GmxPlugin",
            "label": "reader",
            "offset": 0,
            "slot": "5",
            "type": "t_address"
          }
        ],
        "numberOfBytes": "192"
      },
      "t_uint256": {
        "encoding": "inplace",
        "label": "uint256",
        "numberOfBytes": "32"
      },
      "t_uint8": {
        "encoding": "inplace",
        "label": "uint8",
        "numberOfBytes": "1"
      }
    }
  }
}