{
  "address": "0x356d201Ea0657EC0216eCB2fE1bf16EaD8a1C000",
  "abi": [
    {
      "inputs": [
        {
          "internalType": "address",
          "name": "_localVault",
          "type": "address"
        }
      ],
      "stateMutability": "nonpayable",
      "type": "constructor"
    },
    {
      "inputs": [
        {
          "internalType": "address",
          "name": "target",
          "type": "address"
        }
      ],
      "name": "AddressEmptyCode",
      "type": "error"
    },
    {
      "inputs": [
        {
          "internalType": "address",
          "name": "account",
          "type": "address"
        }
      ],
      "name": "AddressInsufficientBalance",
      "type": "error"
    },
    {
      "inputs": [],
      "name": "FailedInnerCall",
      "type": "error"
    },
    {
      "inputs": [
        {
          "internalType": "address",
          "name": "owner",
          "type": "address"
        }
      ],
      "name": "OwnableInvalidOwner",
      "type": "error"
    },
    {
      "inputs": [
        {
          "internalType": "address",
          "name": "account",
          "type": "address"
        }
      ],
      "name": "OwnableUnauthorizedAccount",
      "type": "error"
    },
    {
      "inputs": [],
      "name": "ReentrancyGuardReentrantCall",
      "type": "error"
    },
    {
      "inputs": [
        {
          "internalType": "address",
          "name": "token",
          "type": "address"
        }
      ],
      "name": "SafeERC20FailedOperation",
      "type": "error"
    },
    {
      "anonymous": false,
      "inputs": [
        {
          "indexed": false,
          "internalType": "uint8",
          "name": "_actionType",
          "type": "uint8"
        },
        {
          "indexed": false,
          "internalType": "bytes32",
          "name": "_key",
          "type": "bytes32"
        }
      ],
      "name": "CancelAction",
      "type": "event"
    },
    {
      "anonymous": false,
      "inputs": [
        {
          "indexed": false,
          "internalType": "enum IPlugin.ActionType",
          "name": "_actionType",
          "type": "uint8"
        },
        {
          "indexed": false,
          "internalType": "uint256[]",
          "name": "claimedAmounts",
          "type": "uint256[]"
        }
      ],
      "name": "ClaimFromGMX",
      "type": "event"
    },
    {
      "anonymous": false,
      "inputs": [
        {
          "indexed": false,
          "internalType": "enum IPlugin.ActionType",
          "name": "_actionType",
          "type": "uint8"
        },
        {
          "indexed": false,
          "internalType": "bytes",
          "name": "_payload",
          "type": "bytes"
        }
      ],
      "name": "Execute",
      "type": "event"
    },
    {
      "anonymous": false,
      "inputs": [
        {
          "indexed": true,
          "internalType": "address",
          "name": "previousOwner",
          "type": "address"
        },
        {
          "indexed": true,
          "internalType": "address",
          "name": "newOwner",
          "type": "address"
        }
      ],
      "name": "OwnershipTransferred",
      "type": "event"
    },
    {
      "anonymous": false,
      "inputs": [
        {
          "indexed": false,
          "internalType": "uint8",
          "name": "poolId",
          "type": "uint8"
        }
      ],
      "name": "PoolAdded",
      "type": "event"
    },
    {
      "anonymous": false,
      "inputs": [
        {
          "indexed": false,
          "internalType": "uint8",
          "name": "poolId",
          "type": "uint8"
        }
      ],
      "name": "PoolRemoved",
      "type": "event"
    },
    {
      "anonymous": false,
      "inputs": [
        {
          "indexed": false,
          "internalType": "address",
          "name": "_uiFeeReceiver",
          "type": "address"
        },
        {
          "indexed": false,
          "internalType": "address",
          "name": "_callbackContract",
          "type": "address"
        },
        {
          "indexed": false,
          "internalType": "uint256",
          "name": "_callbackGasLimit",
          "type": "uint256"
        },
        {
          "indexed": false,
          "internalType": "uint256",
          "name": "_executionFee",
          "type": "uint256"
        },
        {
          "indexed": false,
          "internalType": "bool",
          "name": "_shouldUnwrapNativeToken",
          "type": "bool"
        },
        {
          "indexed": false,
          "internalType": "bytes32",
          "name": "_pnlFactorType",
          "type": "bytes32"
        }
      ],
      "name": "SetGmxParams",
      "type": "event"
    },
    {
      "anonymous": false,
      "inputs": [
        {
          "indexed": false,
          "internalType": "address[]",
          "name": "_rewardTokens",
          "type": "address[]"
        }
      ],
      "name": "SetRewardTokens",
      "type": "event"
    },
    {
      "anonymous": false,
      "inputs": [
        {
          "indexed": false,
          "internalType": "address",
          "name": "_exchangeRouter",
          "type": "address"
        },
        {
          "indexed": false,
          "internalType": "address",
          "name": "_router",
          "type": "address"
        },
        {
          "indexed": false,
          "internalType": "address",
          "name": "_depositVault",
          "type": "address"
        },
        {
          "indexed": false,
          "internalType": "address",
          "name": "_withdrawVault",
          "type": "address"
        },
        {
          "indexed": false,
          "internalType": "address",
          "name": "_orderVault",
          "type": "address"
        },
        {
          "indexed": false,
          "internalType": "address",
          "name": "_reader",
          "type": "address"
        }
      ],
      "name": "SetRouterConfig",
      "type": "event"
    },
    {
      "anonymous": false,
      "inputs": [
        {
          "indexed": false,
          "internalType": "address",
          "name": "_tokenPriceConsumer",
          "type": "address"
        }
      ],
      "name": "SetTokenPriceConsumer",
      "type": "event"
    },
    {
      "anonymous": false,
      "inputs": [
        {
          "indexed": false,
          "internalType": "address payable",
          "name": "treasury",
          "type": "address"
        }
      ],
      "name": "SetTreasury",
      "type": "event"
    },
    {
      "anonymous": false,
      "inputs": [],
      "name": "TransferAllTokensToVault",
      "type": "event"
    },
    {
      "stateMutability": "payable",
      "type": "fallback"
    },
    {
      "inputs": [],
      "name": "ASSET_DECIMALS",
      "outputs": [
        {
          "internalType": "uint256",
          "name": "",
          "type": "uint256"
        }
      ],
      "stateMutability": "view",
      "type": "function"
    },
    {
      "inputs": [],
      "name": "MARKET_TOKEN_PRICE_DECIMALS",
      "outputs": [
        {
          "internalType": "uint256",
          "name": "",
          "type": "uint256"
        }
      ],
      "stateMutability": "view",
      "type": "function"
    },
    {
      "inputs": [
        {
          "components": [
            {
              "internalType": "uint8",
              "name": "poolId",
              "type": "uint8"
            },
            {
              "internalType": "address",
              "name": "indexToken",
              "type": "address"
            },
            {
              "internalType": "address",
              "name": "longToken",
              "type": "address"
            },
            {
              "internalType": "address",
              "name": "shortToken",
              "type": "address"
            },
            {
              "internalType": "address",
              "name": "marketToken",
              "type": "address"
            }
          ],
          "internalType": "struct GmxPlugin.PoolConfig[]",
          "name": "_pools",
          "type": "tuple[]"
        }
      ],
      "name": "addPools",
      "outputs": [],
      "stateMutability": "nonpayable",
      "type": "function"
    },
    {
      "inputs": [
        {
          "internalType": "address",
          "name": "_tokenAddress",
          "type": "address"
        },
        {
          "internalType": "uint256",
          "name": "_tokenAmount",
          "type": "uint256"
        }
      ],
      "name": "calculateTokenValueInUsd",
      "outputs": [
        {
          "internalType": "uint256",
          "name": "",
          "type": "uint256"
        }
      ],
      "stateMutability": "view",
      "type": "function"
    },
    {
      "inputs": [
        {
          "internalType": "uint256",
          "name": "_amount",
          "type": "uint256"
        },
        {
          "internalType": "uint256",
          "name": "_from",
          "type": "uint256"
        },
        {
          "internalType": "uint256",
          "name": "_to",
          "type": "uint256"
        }
      ],
      "name": "convertDecimals",
      "outputs": [
        {
          "internalType": "uint256",
          "name": "",
          "type": "uint256"
        }
      ],
      "stateMutability": "pure",
      "type": "function"
    },
    {
      "inputs": [
        {
          "internalType": "enum IPlugin.ActionType",
          "name": "_actionType",
          "type": "uint8"
        },
        {
          "internalType": "bytes",
          "name": "_payload",
          "type": "bytes"
        }
      ],
      "name": "execute",
      "outputs": [],
      "stateMutability": "payable",
      "type": "function"
    },
    {
      "inputs": [
        {
          "internalType": "uint8",
          "name": "_poolId",
          "type": "uint8"
        }
      ],
      "name": "getAllowedTokens",
      "outputs": [
        {
          "internalType": "address[]",
          "name": "",
          "type": "address[]"
        }
      ],
      "stateMutability": "view",
      "type": "function"
    },
    {
      "inputs": [],
      "name": "getBalance",
      "outputs": [
        {
          "internalType": "uint256",
          "name": "",
          "type": "uint256"
        }
      ],
      "stateMutability": "view",
      "type": "function"
    },
    {
      "inputs": [
        {
          "internalType": "uint8",
          "name": "_poolId",
          "type": "uint8"
        }
      ],
      "name": "getPoolIndexById",
      "outputs": [
        {
          "internalType": "uint256",
          "name": "poolIndex",
          "type": "uint256"
        }
      ],
      "stateMutability": "view",
      "type": "function"
    },
    {
      "inputs": [],
      "name": "getPoolLength",
      "outputs": [
        {
          "internalType": "uint256",
          "name": "",
          "type": "uint256"
        }
      ],
      "stateMutability": "view",
      "type": "function"
    },
    {
      "inputs": [],
      "name": "getPoolNumber",
      "outputs": [
        {
          "internalType": "uint256",
          "name": "",
          "type": "uint256"
        }
      ],
      "stateMutability": "view",
      "type": "function"
    },
    {
      "inputs": [
        {
          "internalType": "uint8",
          "name": "_poolId",
          "type": "uint8"
        }
      ],
      "name": "getPoolTokenInfo",
      "outputs": [
        {
          "internalType": "address",
          "name": "",
          "type": "address"
        },
        {
          "internalType": "uint8",
          "name": "",
          "type": "uint8"
        },
        {
          "internalType": "uint256",
          "name": "",
          "type": "uint256"
        }
      ],
      "stateMutability": "view",
      "type": "function"
    },
    {
      "inputs": [
        {
          "internalType": "uint8",
          "name": "_poolId",
          "type": "uint8"
        },
        {
          "internalType": "bool",
          "name": "_maximize",
          "type": "bool"
        }
      ],
      "name": "getPoolTokenPrice",
      "outputs": [
        {
          "internalType": "int256",
          "name": "",
          "type": "int256"
        }
      ],
      "stateMutability": "view",
      "type": "function"
    },
    {
      "inputs": [],
      "name": "getPoolValues",
      "outputs": [
        {
          "components": [
            {
              "internalType": "uint8",
              "name": "poolId",
              "type": "uint8"
            },
            {
              "internalType": "uint256",
              "name": "poolValue",
              "type": "uint256"
            }
          ],
          "internalType": "struct GmxPlugin.PoolValue[]",
          "name": "",
          "type": "tuple[]"
        }
      ],
      "stateMutability": "view",
      "type": "function"
    },
    {
      "inputs": [],
      "name": "getPools",
      "outputs": [
        {
          "components": [
            {
              "internalType": "uint8",
              "name": "poolId",
              "type": "uint8"
            },
            {
              "internalType": "address",
              "name": "indexToken",
              "type": "address"
            },
            {
              "internalType": "address",
              "name": "longToken",
              "type": "address"
            },
            {
              "internalType": "address",
              "name": "shortToken",
              "type": "address"
            },
            {
              "internalType": "address",
              "name": "marketToken",
              "type": "address"
            }
          ],
          "internalType": "struct GmxPlugin.PoolConfig[]",
          "name": "",
          "type": "tuple[]"
        }
      ],
      "stateMutability": "view",
      "type": "function"
    },
    {
      "inputs": [
        {
          "internalType": "address",
          "name": "token",
          "type": "address"
        }
      ],
      "name": "getTokenPriceInfo",
      "outputs": [
        {
          "components": [
            {
              "internalType": "uint256",
              "name": "min",
              "type": "uint256"
            },
            {
              "internalType": "uint256",
              "name": "max",
              "type": "uint256"
            }
          ],
          "internalType": "struct IPrice.Props",
          "name": "",
          "type": "tuple"
        }
      ],
      "stateMutability": "view",
      "type": "function"
    },
    {
      "inputs": [],
      "name": "getTotalLiquidity",
      "outputs": [
        {
          "internalType": "uint256",
          "name": "totalAsset",
          "type": "uint256"
        }
      ],
      "stateMutability": "view",
      "type": "function"
    },
    {
      "inputs": [],
      "name": "getUniqueTokenLength",
      "outputs": [
        {
          "internalType": "uint256",
          "name": "",
          "type": "uint256"
        }
      ],
      "stateMutability": "view",
      "type": "function"
    },
    {
      "inputs": [],
      "name": "getUniqueTokens",
      "outputs": [
        {
          "internalType": "address[]",
          "name": "",
          "type": "address[]"
        }
      ],
      "stateMutability": "view",
      "type": "function"
    },
    {
      "inputs": [],
      "name": "gmxParams",
      "outputs": [
        {
          "internalType": "address",
          "name": "uiFeeReceiver",
          "type": "address"
        },
        {
          "internalType": "address",
          "name": "callbackContract",
          "type": "address"
        },
        {
          "internalType": "uint256",
          "name": "callbackGasLimit",
          "type": "uint256"
        },
        {
          "internalType": "uint256",
          "name": "executionFee",
          "type": "uint256"
        },
        {
          "internalType": "bool",
          "name": "shouldUnwrapNativeToken",
          "type": "bool"
        },
        {
          "internalType": "bytes32",
          "name": "pnlFactorType",
          "type": "bytes32"
        }
      ],
      "stateMutability": "view",
      "type": "function"
    },
    {
      "inputs": [
        {
          "internalType": "address",
          "name": "_token",
          "type": "address"
        }
      ],
      "name": "isTokenAdded",
      "outputs": [
        {
          "internalType": "bool",
          "name": "",
          "type": "bool"
        }
      ],
      "stateMutability": "view",
      "type": "function"
    },
    {
      "inputs": [],
      "name": "localVault",
      "outputs": [
        {
          "internalType": "address",
          "name": "",
          "type": "address"
        }
      ],
      "stateMutability": "view",
      "type": "function"
    },
    {
      "inputs": [],
      "name": "owner",
      "outputs": [
        {
          "internalType": "address",
          "name": "",
          "type": "address"
        }
      ],
      "stateMutability": "view",
      "type": "function"
    },
    {
      "inputs": [
        {
          "internalType": "uint8",
          "name": "",
          "type": "uint8"
        }
      ],
      "name": "poolExistsMap",
      "outputs": [
        {
          "internalType": "bool",
          "name": "",
          "type": "bool"
        }
      ],
      "stateMutability": "view",
      "type": "function"
    },
    {
      "inputs": [
        {
          "internalType": "uint256",
          "name": "",
          "type": "uint256"
        }
      ],
      "name": "pools",
      "outputs": [
        {
          "internalType": "uint8",
          "name": "poolId",
          "type": "uint8"
        },
        {
          "internalType": "address",
          "name": "indexToken",
          "type": "address"
        },
        {
          "internalType": "address",
          "name": "longToken",
          "type": "address"
        },
        {
          "internalType": "address",
          "name": "shortToken",
          "type": "address"
        },
        {
          "internalType": "address",
          "name": "marketToken",
          "type": "address"
        }
      ],
      "stateMutability": "view",
      "type": "function"
    },
    {
      "inputs": [
        {
          "internalType": "uint8",
          "name": "_poolId",
          "type": "uint8"
        }
      ],
      "name": "removePool",
      "outputs": [],
      "stateMutability": "nonpayable",
      "type": "function"
    },
    {
      "inputs": [],
      "name": "renounceOwnership",
      "outputs": [],
      "stateMutability": "nonpayable",
      "type": "function"
    },
    {
      "inputs": [
        {
          "internalType": "uint256",
          "name": "",
          "type": "uint256"
        }
      ],
      "name": "rewardTokens",
      "outputs": [
        {
          "internalType": "address",
          "name": "",
          "type": "address"
        }
      ],
      "stateMutability": "view",
      "type": "function"
    },
    {
      "inputs": [],
      "name": "routerConfig",
      "outputs": [
        {
          "internalType": "address",
          "name": "exchangeRouter",
          "type": "address"
        },
        {
          "internalType": "address",
          "name": "router",
          "type": "address"
        },
        {
          "internalType": "address",
          "name": "depositVault",
          "type": "address"
        },
        {
          "internalType": "address",
          "name": "withdrawVault",
          "type": "address"
        },
        {
          "internalType": "address",
          "name": "orderVault",
          "type": "address"
        },
        {
          "internalType": "address",
          "name": "reader",
          "type": "address"
        }
      ],
      "stateMutability": "view",
      "type": "function"
    },
    {
      "inputs": [
        {
          "internalType": "address",
          "name": "_uiFeeReceiver",
          "type": "address"
        },
        {
          "internalType": "address",
          "name": "_callbackContract",
          "type": "address"
        },
        {
          "internalType": "uint256",
          "name": "_callbackGasLimit",
          "type": "uint256"
        },
        {
          "internalType": "uint256",
          "name": "_executionFee",
          "type": "uint256"
        },
        {
          "internalType": "bool",
          "name": "_shouldUnwrapNativeToken",
          "type": "bool"
        },
        {
          "internalType": "bytes32",
          "name": "_pnlFactorType",
          "type": "bytes32"
        }
      ],
      "name": "setGmxParams",
      "outputs": [],
      "stateMutability": "nonpayable",
      "type": "function"
    },
    {
      "inputs": [
        {
          "internalType": "address[]",
          "name": "_rewardTokens",
          "type": "address[]"
        }
      ],
      "name": "setRewardTokens",
      "outputs": [],
      "stateMutability": "nonpayable",
      "type": "function"
    },
    {
      "inputs": [
        {
          "internalType": "address",
          "name": "_exchangeRouter",
          "type": "address"
        },
        {
          "internalType": "address",
          "name": "_router",
          "type": "address"
        },
        {
          "internalType": "address",
          "name": "_depositVault",
          "type": "address"
        },
        {
          "internalType": "address",
          "name": "_withdrawVault",
          "type": "address"
        },
        {
          "internalType": "address",
          "name": "_orderVault",
          "type": "address"
        },
        {
          "internalType": "address",
          "name": "_reader",
          "type": "address"
        }
      ],
      "name": "setRouterConfig",
      "outputs": [],
      "stateMutability": "nonpayable",
      "type": "function"
    },
    {
      "inputs": [
        {
          "internalType": "address",
          "name": "_tokenPriceConsumer",
          "type": "address"
        }
      ],
      "name": "setTokenPriceConsumer",
      "outputs": [],
      "stateMutability": "nonpayable",
      "type": "function"
    },
    {
      "inputs": [
        {
          "internalType": "address payable",
          "name": "_treasury",
          "type": "address"
        }
      ],
      "name": "setTreasury",
      "outputs": [],
      "stateMutability": "nonpayable",
      "type": "function"
    },
    {
      "inputs": [],
      "name": "tokenPriceConsumer",
      "outputs": [
        {
          "internalType": "address",
          "name": "",
          "type": "address"
        }
      ],
      "stateMutability": "view",
      "type": "function"
    },
    {
      "inputs": [],
      "name": "transferAllTokensToVault",
      "outputs": [],
      "stateMutability": "nonpayable",
      "type": "function"
    },
    {
      "inputs": [
        {
          "internalType": "address",
          "name": "newOwner",
          "type": "address"
        }
      ],
      "name": "transferOwnership",
      "outputs": [],
      "stateMutability": "nonpayable",
      "type": "function"
    },
    {
      "inputs": [],
      "name": "treasury",
      "outputs": [
        {
          "internalType": "address payable",
          "name": "",
          "type": "address"
        }
      ],
      "stateMutability": "view",
      "type": "function"
    },
    {
      "inputs": [
        {
          "internalType": "uint256",
          "name": "",
          "type": "uint256"
        }
      ],
      "name": "uniqueTokens",
      "outputs": [
        {
          "internalType": "address",
          "name": "",
          "type": "address"
        }
      ],
      "stateMutability": "view",
      "type": "function"
    },
    {
      "inputs": [
        {
          "internalType": "uint256",
          "name": "_amount",
          "type": "uint256"
        }
      ],
      "name": "withdrawFee",
      "outputs": [],
      "stateMutability": "nonpayable",
      "type": "function"
    },
    {
      "stateMutability": "payable",
      "type": "receive"
    }
  ],
  "transactionHash": "0x38b1271a6797055d2a523308fbef0844bacae8970ce94aad3dc1eb6ea7cb6d08",
  "args": [
    "0xd67Bb7Ae7a1e60Da8C732498C40a5aFC9d9E8331"
  ],
  "numDeployments": 1,
  "solcInputHash": "593652d5198111f3b1274affd9b7d6ef",
  "bytecode": "0x60806040523480156200001157600080fd5b50604051620059ed380380620059ed83398101604081905262000034916200013a565b33806200005c57604051631e4fbdf760e01b8152600060048201526024015b60405180910390fd5b6200006781620000ea565b50600180556001600160a01b038116620000c45760405162461bcd60e51b815260206004820152601460248201527f474d583a20496e76616c69642041646472657373000000000000000000000000604482015260640162000053565b600280546001600160a01b0319166001600160a01b03929092169190911790556200016c565b600080546001600160a01b038381166001600160a01b0319831681178455604051919092169283917f8be0079c531659141344cd1fd0a4f28419497f9722a3daafe3b4186f6b6457e09190a35050565b6000602082840312156200014d57600080fd5b81516001600160a01b03811681146200016557600080fd5b9392505050565b615871806200017c6000396000f3fe6080604052600436106102275760003560e01c80637d2ab8bf11610122578063beafdc24116100a5578063f0f442601161006c578063f0f4426014610739578063f2fde38b14610759578063f4db898414610779578063f66fdcca1461078e578063fb4d364c146107b057005b8063beafdc24146106c4578063d064f7d0146106e4578063d5a5731a146106f9578063df77209b14610719578063e48caf8d1461068f57005b8063a36532b2116100e9578063a36532b2146105f5578063a7888a3414610615578063ac4afa3814610635578063b3944d521461068f578063be357616146106a457005b80637d2ab8bf14610542578063845b7924146105625780638da5cb5b146105a257806396c1865b146105c0578063a0390b65146105e057005b806335c7e925116101aa578063673a2a1f11610171578063673a2a1f1461049e5780636aaf6436146104c05780636e862fdb146104ed578063715018a61461050d5780637bb7bed11461052257005b806335c7e925146103dd57806336a60503146103f25780634952cade146104125780634df227e41461043257806361d027b31461047e57005b8063251ae48c116101ee578063251ae48c1461031457806326a1809b1461033457806327824675146103565780632a7a524414610376578063313eb4061461039657005b8063050705bb14610230578063084475861461028a57806312065fe0146102c25780631c31772f146102df578063201e81a8146102f457005b3661022e57005b005b34801561023c57600080fd5b5060045460055460065460075460085460095461026f956001600160a01b03908116958116948116938116928116911686565b60405161028196959493929190614196565b60405180910390f35b34801561029657600080fd5b506013546102aa906001600160a01b031681565b6040516001600160a01b039091168152602001610281565b3480156102ce57600080fd5b50475b604051908152602001610281565b3480156102eb57600080fd5b506012546102d1565b34801561030057600080fd5b5061022e61030f366004614366565b6107c3565b34801561032057600080fd5b5061022e61032f3660046143b1565b610819565b34801561034057600080fd5b506103496108d7565b60405161028191906144f4565b34801561036257600080fd5b506102d1610371366004614507565b610939565b34801561038257600080fd5b50610349610391366004614533565b61098e565b3480156103a257600080fd5b506103b66103b1366004614533565b610ac3565b604080516001600160a01b03909416845260ff909216602084015290820152606001610281565b3480156103e957600080fd5b506102d1610c59565b3480156103fe57600080fd5b506102d161040d366004614550565b610eb3565b34801561041e57600080fd5b506102d161042d366004614533565b611043565b34801561043e57600080fd5b50600a54600b54600c54600d54600e54600f5461046c956001600160a01b03908116951693929160ff169086565b6040516102819695949392919061457c565b34801561048a57600080fd5b506003546102aa906001600160a01b031681565b3480156104aa57600080fd5b506104b36110d3565b60405161028191906145b4565b3480156104cc57600080fd5b506104e06104db366004614635565b611174565b6040516102819190614652565b3480156104f957600080fd5b5061022e610508366004614669565b611364565b34801561051957600080fd5b5061022e611500565b34801561052e57600080fd5b506102aa61053d3660046146eb565b611514565b34801561054e57600080fd5b5061022e61055d366004614533565b61153e565b34801561056e57600080fd5b5061059261057d366004614533565b60116020526000908152604090205460ff1681565b6040519015158152602001610281565b3480156105ae57600080fd5b506000546001600160a01b03166102aa565b3480156105cc57600080fd5b506102d16105db36600461471d565b611727565b3480156105ec57600080fd5b5061022e61195f565b34801561060157600080fd5b50610592610610366004614635565b611ac1565b34801561062157600080fd5b5061022e610630366004614635565b611b20565b34801561064157600080fd5b506106556106503660046146eb565b611bc3565b6040805160ff90961686526001600160a01b039485166020870152928416928501929092528216606084015216608082015260a001610281565b34801561069b57600080fd5b506010546102d1565b3480156106b057600080fd5b5061022e6106bf3660046146eb565b611c18565b3480156106d057600080fd5b506102aa6106df3660046146eb565b611d71565b3480156106f057600080fd5b506102d1601e81565b34801561070557600080fd5b5061022e610714366004614756565b611d81565b34801561072557600080fd5b506002546102aa906001600160a01b031681565b34801561074557600080fd5b5061022e610754366004614635565b611e3d565b34801561076557600080fd5b5061022e610774366004614635565b611ee2565b34801561078557600080fd5b506102d1602481565b34801561079a57600080fd5b506107a3611f20565b60405161028191906147bd565b61022e6107be366004614802565b612158565b6107cb6122ac565b80516107de906014906020840190614125565b507f69be44b81d4f8b6cf7825a37f020b264079658f3d72856eeb0a0efed09c7d3928160405161080e91906144f4565b60405180910390a150565b6108216122ac565b60005b81518110156108d3576108cb8282815181106108425761084261488a565b6020026020010151600001518383815181106108605761086061488a565b60200260200101516020015184848151811061087e5761087e61488a565b60200260200101516040015185858151811061089c5761089c61488a565b6020026020010151606001518686815181106108ba576108ba61488a565b6020026020010151608001516122d9565b600101610824565b5050565b6060601280548060200260200160405190810160405280929190818152602001828054801561092f57602002820191906000526020600020905b81546001600160a01b03168152600190910190602001808311610911575b5050505050905090565b60008183106109685761094c82846148b6565b61095790600a6149ad565b61096190856149b9565b9050610987565b61097283836148b6565b61097d90600a6149ad565b61096190856149db565b9392505050565b60ff8082166000908152601160205260409020546060918291166109b25792915050565b60408051600280825260608201835260009260208301908036833701905050905060006109de85611043565b90506000601082815481106109f5576109f561488a565b600091825260208083206040805160a0810182526004909402909101805460ff811685526001600160a01b03610100909104811693850193909352600181015483169184018290526002810154831660608501526003015490911660808301528551919350918591610a6957610a6961488a565b60200260200101906001600160a01b031690816001600160a01b031681525050806060015183600181518110610aa157610aa161488a565b6001600160a01b03909216602092830291909101909101525090949350505050565b60ff80821660009081526011602052604081205490918291829116610af057506000915081905080610c52565b6000610afb85611043565b9050600060108281548110610b1257610b1261488a565b600091825260208083206040805160a0810182526004948502909201805460ff811684526001600160a01b0361010090910481168486015260018201548116848401526002820154811660608501526003909101541660808301819052815163313ce56760e01b815291519296509363313ce567938282019390929091908290030181865afa158015610ba9573d6000803e3d6000fd5b505050506040513d601f19601f82011682018060405250810190610bcd91906149f2565b60808301516040516370a0823160e01b81523060048201529192506000916001600160a01b03909116906370a0823190602401602060405180830381865afa158015610c1d573d6000803e3d6000fd5b505050506040513d601f19601f82011682018060405250810190610c419190614a0f565b608090930151965090945090925050505b9193909250565b6000805b601254811015610d1857600060128281548110610c7c57610c7c61488a565b60009182526020822001546040516370a0823160e01b81523060048201526001600160a01b03909116925082906370a0823190602401602060405180830381865afa158015610ccf573d6000803e3d6000fd5b505050506040513d601f19601f82011682018060405250810190610cf39190614a0f565b9050610cff8282610eb3565b610d099085614a28565b93505050806001019050610c5d565b5060005b601054811015610eaf57600060108281548110610d3b57610d3b61488a565b600091825260208220600491820201600301546040516370a0823160e01b815230928101929092526001600160a01b0316925082906370a0823190602401602060405180830381865afa158015610d96573d6000803e3d6000fd5b505050506040513d601f19601f82011682018060405250810190610dba9190614a0f565b90506000610def60108581548110610dd457610dd461488a565b600091825260209091206004909102015460ff166001611727565b905060008113610e0157505050610ea7565b6000610e0d82846149db565b90506000601e856001600160a01b031663313ce5676040518163ffffffff1660e01b8152600401602060405180830381865afa158015610e51573d6000803e3d6000fd5b505050506040513d601f19601f82011682018060405250810190610e7591906149f2565b60ff16610e829190614a28565b90506000610e9283836024610939565b9050610e9e8189614a28565b97505050505050505b600101610d1c565b5090565b6013546040516358e8662560e01b81526001600160a01b03848116600483015260009283929116906358e8662590602401602060405180830381865afa158015610f01573d6000803e3d6000fd5b505050506040513d601f19601f82011682018060405250810190610f2591906149f2565b601354604051636a24d41960e11b81526001600160a01b03878116600483015260ff9390931693506000929091169063d449a83290602401602060405180830381865afa158015610f7a573d6000803e3d6000fd5b505050506040513d601f19601f82011682018060405250810190610f9e91906149f2565b601354604051630681320d60e51b81526001600160a01b03888116600483015260ff9390931693506000929091169063d02641a090602401602060405180830381865afa158015610ff3573d6000803e3d6000fd5b505050506040513d601f19601f820116820180604052508101906110179190614a0f565b905061103761102682876149db565b6110308486614a28565b6024610939565b93505050505b92915050565b6000805b60105481101561108f578260ff16601082815481106110685761106861488a565b600091825260209091206004909102015460ff16036110875792915050565b600101611047565b5060405162461bcd60e51b815260206004820152601360248201527211d3560e88141bdbdb081b9bdd08199bdd5b99606a1b60448201526064015b60405180910390fd5b60606010805480602002602001604051908101604052809291908181526020016000905b8282101561116b5760008481526020908190206040805160a08101825260048602909201805460ff811684526001600160a01b0361010090910481168486015260018083015482169385019390935260028201548116606085015260039091015416608083015290835290920191016110f7565b50505050905090565b60408051808201909152600080825260208201526001600160a01b0382166111af575050604080518082019091526000808252602082015290565b6013546040516358e8662560e01b81526001600160a01b0384811660048301529091169060009082906358e8662590602401602060405180830381865afa1580156111fe573d6000803e3d6000fd5b505050506040513d601f19601f8201168201806040525081019061122291906149f2565b6040805180820191829052630681320d60e51b9091526001600160a01b03868116604483015260ff929092169250600091819061131e90861663d02641a0606484015b602060405180830381865afa158015611282573d6000803e3d6000fd5b505050506040513d601f19601f820116820180604052508101906112a69190614a0f565b604051636a24d41960e11b81526001600160a01b038a8116600483015288169063d449a83290602401602060405180830381865afa1580156112ec573d6000803e3d6000fd5b505050506040513d601f19601f8201168201806040525081019061131091906149f2565b60ff1661037187601e6148b6565b8152604051630681320d60e51b81526001600160a01b038881166004830152602090920191611359919087169063d02641a090602401611265565b905295945050505050565b61136c6122ac565b6001600160a01b0386161580159061138c57506001600160a01b03851615155b80156113a057506001600160a01b03841615155b80156113b457506001600160a01b03831615155b80156113c857506001600160a01b03821615155b80156113dc57506001600160a01b03811615155b61141f5760405162461bcd60e51b8152602060048201526014602482015273474d583a20496e76616c6964204164647265737360601b60448201526064016110ca565b6040805160c0810182526001600160a01b0380891680835288821660208401819052888316848601819052888416606086018190528885166080870181905294881660a0909601869052600480546001600160a01b0319908116909517905560058054851690931790925560068054841690911790556007805483169091179055600880548216909217909155600980549091169091179055517f426776d3b733c4a7464cf1dd3d3c5d81199723dd1cec0de97ff4e053ce32cbf5906114f090889088908890889088908890614196565b60405180910390a1505050505050565b6115086122ac565b61151260006125d3565b565b6014818154811061152457600080fd5b6000918252602090912001546001600160a01b0316905081565b6115466122ac565b60ff808216600090815260116020526040902054166115775760405162461bcd60e51b81526004016110ca90614a3b565b600061158282611043565b601054909150600090611597906001906148b6565b905080821461166a57601081815481106115b3576115b361488a565b9060005260206000209060040201601083815481106115d4576115d461488a565b600091825260209091208254600490920201805460ff90921660ff1983168117825583546001600160a81b031990931617610100928390046001600160a01b0390811690930217815560018084015490820180549184166001600160a01b031992831617905560028085015490830180549185169183169190911790556003938401549390910180549390921692169190911790555b601080548061167b5761167b614a84565b6000828152602080822060046000199094019384020180546001600160a81b03191681556001810180546001600160a01b0319908116909155600282018054821690556003909101805490911690559190925560ff851682526011905260409020805460ff191690556116ec612623565b60405160ff841681527f0f19bfba9b2e5adda8bcdbd5c0583080cf3871c58286275b1e90451cb0130aec9060200160405180910390a1505050565b60ff80831660009081526011602052604081205490911661175a5760405162461bcd60e51b81526004016110ca90614a3b565b6000601061176785611043565b815481106117775761177761488a565b600091825260208083206040805160a0810182526004948502909201805460ff811684526001600160a01b036101009091048116848601526001820154811684840152600282015481166060850152600390910154811660808401528454825163660d0d6760e01b81529251939750169493859363660d0d679383830193919290918290030181865afa158015611812573d6000803e3d6000fd5b505050506040513d601f19601f820116820180604052508101906118369190614a9a565b90506000604051806080016040528085608001516001600160a01b0316815260200185602001516001600160a01b0316815260200185604001516001600160a01b0316815260200185606001516001600160a01b0316815250905060006118a08560200151611174565b905060006118b18660400151611174565b905060006118c28760600151611174565b600f5460095460405163095ce6c560e01b815292935090918b916000916001600160a01b039091169063095ce6c59061190b908b908b908b908b908b908b908b90600401614ab7565b61018060405180830381865afa158015611929573d6000803e3d6000fd5b505050506040513d601f19601f8201168201806040525081019061194d9190614b52565b509d9c50505050505050505050505050565b600b546001600160a01b031633146119aa5760405162461bcd60e51b815260206004820152600e60248201526d24b73b30b634b21031b0b63632b960911b60448201526064016110ca565b60005b601254811015611a95576000601282815481106119cc576119cc61488a565b6000918252602090912001546040516370a0823160e01b81523060048201526001600160a01b03909116906370a0823190602401602060405180830381865afa158015611a1d573d6000803e3d6000fd5b505050506040513d601f19601f82011682018060405250810190611a419190614a0f565b90508015611a8c5760025460128054611a8c926001600160a01b031691849186908110611a7057611a7061488a565b6000918252602090912001546001600160a01b03169190612731565b506001016119ad565b506040517f52095ed2fa7d7c4dd1c5e9a36b117c9a00bd764878e68f95da78cc6f4f54763590600090a1565b6000805b601254811015611b1757826001600160a01b031660128281548110611aec57611aec61488a565b6000918252602090912001546001600160a01b031603611b0f5750600192915050565b600101611ac5565b50600092915050565b611b286122ac565b6001600160a01b038116611b755760405162461bcd60e51b8152602060048201526014602482015273474d583a20496e76616c6964204164647265737360601b60448201526064016110ca565b601380546001600160a01b0319166001600160a01b0383169081179091556040519081527f31304382ad8ca8091d6b1faad35fded717d1771446c64094a9941158a525d2559060200161080e565b60108181548110611bd357600080fd5b6000918252602090912060049091020180546001820154600283015460039093015460ff831694506001600160a01b0361010090930483169391831692918216911685565b611c206122ac565b4781811015611c715760405162461bcd60e51b815260206004820152601f60248201527f5661756c743a20496e76616c696420776974686472617720616d6f756e742e0060448201526064016110ca565b6003546001600160a01b0316611cc95760405162461bcd60e51b815260206004820152601760248201527f5661756c743a20496e76616c696420747265617375727900000000000000000060448201526064016110ca565b6003546040516000916001600160a01b03169084908381818185875af1925050503d8060008114611d16576040519150601f19603f3d011682016040523d82523d6000602084013e611d1b565b606091505b5050905080611d6c5760405162461bcd60e51b815260206004820152601b60248201527f5661756c743a204661696c656420746f2073656e64204574686572000000000060448201526064016110ca565b505050565b6012818154811061152457600080fd5b611d896122ac565b6040805160c0810182526001600160a01b0380891680835290881660208301819052828401889052606083018790528515156080840181905260a0909301859052600a80546001600160a01b03199081169093179055600b8054909216179055600c869055600d859055600e805460ff19169091179055600f829055517f03d83cb733840674aae397a1ef6a2080fdfcd1f99bfa2efd1092d816f3239afa906114f09088908890889088908890889061457c565b611e456122ac565b6001600160a01b038116611e945760405162461bcd60e51b81526020600482015260166024820152755661756c743a20496e76616c6964206164647265737360501b60448201526064016110ca565b600380546001600160a01b0319166001600160a01b0383169081179091556040519081527fcb7ef3e545f5cdb893f5c568ba710fe08f336375a2d9fd66e161033f8fc09ef39060200161080e565b611eea6122ac565b6001600160a01b038116611f1457604051631e4fbdf760e01b8152600060048201526024016110ca565b611f1d816125d3565b50565b6010546060906000906001600160401b03811115611f4057611f406141d0565b604051908082528060200260200182016040528015611f8557816020015b6040805180820190915260008082526020820152815260200190600190039081611f5e5790505b50905060005b60105481101561215257600060108281548110611faa57611faa61488a565b600091825260208220600491820201600301546040516370a0823160e01b815230928101929092526001600160a01b0316925082906370a0823190602401602060405180830381865afa158015612005573d6000803e3d6000fd5b505050506040513d601f19601f820116820180604052508101906120299190614a0f565b9050600061204360108581548110610dd457610dd461488a565b90506000808213156120e357600061205b83856149db565b90506000601e866001600160a01b031663313ce5676040518163ffffffff1660e01b8152600401602060405180830381865afa15801561209f573d6000803e3d6000fd5b505050506040513d601f19601f820116820180604052508101906120c391906149f2565b60ff166120d09190614a28565b90506120de82826024610939565b925050505b60006040518060400160405280601088815481106121035761210361488a565b60009182526020918290206004909102015460ff16825201839052875190915081908890889081106121375761213761488a565b60200260200101819052505050505050806001019050611f8b565b50919050565b6002546001600160a01b031633146121a35760405162461bcd60e51b815260206004820152600e60248201526d24b73b30b634b21031b0b63632b960911b60448201526064016110ca565b6121ab612790565b60008360088111156121bf576121bf614c06565b036121d3576121ce82826127ba565b612268565b60018360088111156121e7576121e7614c06565b036121f6576121ce8282612b73565b600283600881111561220a5761220a614c06565b03612219576121ce8282612bb8565b600483600881111561222d5761222d614c06565b0361223c576121ce8282612bd1565b600383600881111561225057612250614c06565b0361225d576121ce612c67565b612268838383612d36565b7f7602f37cd960866e4a851b683e367e8794f21cddd908ce1d9fe92b978a59f10183838360405161229b93929190614c30565b60405180910390a1611d6c60018055565b6000546001600160a01b031633146115125760405163118cdaa760e01b81523360048201526024016110ca565b8460ff166000036123235760405162461bcd60e51b815260206004820152601460248201527311d3560e88125b9d985b1a5908141bdbdb08125960621b60448201526064016110ca565b60ff80861660009081526011602052604090205416156123975760405162461bcd60e51b815260206004820152602960248201527f474d583a20506f6f6c2077697468207468697320706f6f6c496420616c72656160448201526864792065786973747360b81b60648201526084016110ca565b6040805160a08101825260ff8088168083526001600160a01b0380891660208086019182528983168688019081528984166060880190815289851660808901908152601080546001818101835560009283528b5160049092027f1b6847dc741a1b0cd08d278845f9d819d87b734759afb55fe2de5cb82a9ae6728101805499518b16610100026001600160a81b0319909a1693909c16929092179790971790995592517f1b6847dc741a1b0cd08d278845f9d819d87b734759afb55fe2de5cb82a9ae673890180549188166001600160a01b031992831617905591517f1b6847dc741a1b0cd08d278845f9d819d87b734759afb55fe2de5cb82a9ae67489018054918816918416919091179055517f1b6847dc741a1b0cd08d278845f9d819d87b734759afb55fe2de5cb82a9ae67590970180549790951696169590951790925591835260119052929020805460ff19169092179091556124f784611ac1565b61254757601280546001810182556000919091527fbb8a6a4669ba250d26cd7a459eca9d215f8307e33aebe50379bc5a3617ec34440180546001600160a01b0319166001600160a01b0386161790555b61255083611ac1565b6125a057601280546001810182556000919091527fbb8a6a4669ba250d26cd7a459eca9d215f8307e33aebe50379bc5a3617ec34440180546001600160a01b0319166001600160a01b0385161790555b60405160ff871681527f09cce9a1e4000121ddb6c53c0c6161a69a7fd0c028b5970acddf3350a9204891906020016114f0565b600080546001600160a01b038381166001600160a01b0319831681178455604051919092169283917f8be0079c531659141344cd1fd0a4f28419497f9722a3daafe3b4186f6b6457e09190a35050565b6012545b8015611f1d57612667601261263d6001846148b6565b8154811061264d5761264d61488a565b6000918252602090912001546001600160a01b0316612ffa565b61271f576012805461267b906001906148b6565b8154811061268b5761268b61488a565b6000918252602090912001546001600160a01b031660126126ad6001846148b6565b815481106126bd576126bd61488a565b9060005260206000200160006101000a8154816001600160a01b0302191690836001600160a01b0316021790555060128054806126fc576126fc614a84565b600082815260209020810160001990810180546001600160a01b03191690550190555b8061272981614c6d565b915050612627565b6040516001600160a01b03838116602483015260448201839052611d6c91859182169063a9059cbb906064015b604051602081830303815290604052915060e01b6020820180516001600160e01b03838183161783525050505061309b565b6002600154036127b357604051633ee5aeb560e01b815260040160405180910390fd5b6002600155565b60008080806127cb85870187614d5b565b93509350935093506000818060200190518101906127e99190614a0f565b60ff8087166000908152601160205260409020549192501661281d5760405162461bcd60e51b81526004016110ca90614a3b565b8351600214801561282f575082516002145b61287b5760405162461bcd60e51b815260206004820152601b60248201527f474d583a204172726179206c656e677468206d7573742062652032000000000060448201526064016110ca565b600061288686611043565b905060006010828154811061289d5761289d61488a565b600091825260208083206040805160a0810182526004909402909101805460ff811685526001600160a01b0361010090910481169385019390935260018101548316918401919091526002810154821660608401526003015416608082015287519092508791906129105761291061488a565b60200260200101516001600160a01b031681604001516001600160a01b031614801561296b57508560018151811061294a5761294a61488a565b60200260200101516001600160a01b031681606001516001600160a01b0316145b6129b75760405162461bcd60e51b815260206004820152601860248201527f474d583a20496e76616c696420506f6f6c20746f6b656e73000000000000000060448201526064016110ca565b846000815181106129ca576129ca61488a565b602002602001015160001415806129fc5750846001815181106129ef576129ef61488a565b6020026020010151600014155b612a485760405162461bcd60e51b815260206004820152601960248201527f474d583a20496e76616c696420746f6b656e20616d6f756e740000000000000060448201526064016110ca565b600085600081518110612a5d57612a5d61488a565b60200260200101511115612ab7576002548551612ab7916001600160a01b03169030908890600090612a9157612a9161488a565b602002602001015184604001516001600160a01b03166130fe909392919063ffffffff16565b600085600181518110612acc57612acc61488a565b60200260200101511115612b28576002548551612b28916001600160a01b031690309088906001908110612b0257612b0261488a565b602002602001015184606001516001600160a01b03166130fe909392919063ffffffff16565b612b688786600081518110612b3f57612b3f61488a565b602002602001015187600181518110612b5a57612b5a61488a565b60200260200101518661312c565b505050505050505050565b600080808080612b8586880188614df5565b9450945094509450945060008082806020019051810190612ba69190614e6a565b91509150612b68878787858589613559565b6000612bc682840184614fbb565b9050611d6c81613a5b565b600080612be0838501856150a0565b915091508160ff16600003612bfd57612bf881613d6e565b612c25565b8160ff16600103612c1157612bf881613dd1565b8160ff16600203612c2557612c2581613e02565b6040805160ff84168152602081018390527f8f9edcb63f442052ba4d68bdd7cf50e8bb5f615f31ba22ecb1eab71fa256dddf910160405180910390a150505050565b60005b601454811015611f1d57600060148281548110612c8957612c8961488a565b6000918252602090912001546040516370a0823160e01b81523060048201526001600160a01b03909116906370a0823190602401602060405180830381865afa158015612cda573d6000803e3d6000fd5b505050506040513d601f19601f82011682018060405250810190612cfe9190614a0f565b90508015612d2d5760025460148054612d2d926001600160a01b031691849186908110611a7057611a7061488a565b50600101612c6a565b6000808080612d47858701876150be565b9350935093509350600084516001600160401b03811115612d6a57612d6a6141d0565b604051908082528060200260200182016040528015612d93578160200160208202803683370190505b506004549091506001600160a01b03166005896008811115612db757612db7614c06565b03612e7a5760025460405162d4e5d960e11b81526001600160a01b03838116926301a9cbb2928792612df3928c928c929091169060040161514d565b60006040518083038185885af1158015612e11573d6000803e3d6000fd5b50505050506040513d6000823e601f3d908101601f19168201604052612e3a919081019061518b565b91507f4a13c8ea7a1f6f30b1fa8423940f85d7a03ef81dcf0aa89405dbf743978197368983604051612e6d92919061524c565b60405180910390a1612b68565b6006896008811115612e8e57612e8e614c06565b03612ecb576002546040516324943d1160e11b81526001600160a01b03838116926349287a22928792612df3928c928c929091169060040161514d565b6007896008811115612edf57612edf614c06565b03612f1c5760025460405163e9249b5760e01b81526001600160a01b038084169263e9249b57928792612df3928c928c928c92169060040161526c565b6008896008811115612f3057612f30614c06565b03612b685760025460405163c41b1ab360e01b81526001600160a01b038381169263c41b1ab3928792612f6d928c928c929091169060040161514d565b60006040518083038185885af1158015612f8b573d6000803e3d6000fd5b50505050506040513d6000823e601f3d908101601f19168201604052612fb4919081019061518b565b91507f4a13c8ea7a1f6f30b1fa8423940f85d7a03ef81dcf0aa89405dbf743978197368983604051612fe792919061524c565b60405180910390a1505050505050505050565b6000805b601054811015611b1757826001600160a01b0316601082815481106130255761302561488a565b60009182526020909120600160049092020101546001600160a01b031614806130855750826001600160a01b0316601082815481106130665761306661488a565b60009182526020909120600260049092020101546001600160a01b0316145b156130935750600192915050565b600101612ffe565b60006130b06001600160a01b03841683613e33565b905080516000141580156130d55750808060200190518101906130d391906152bf565b155b15611d6c57604051635274afe760e01b81526001600160a01b03841660048201526024016110ca565b61312684856001600160a01b03166323b872dd86868660405160240161275e939291906152dc565b50505050565b6000601061313986611043565b815481106131495761314961488a565b60009182526020918290206040805160a080820183526004948502909301805460ff80821684526001600160a01b03610100928390048116858a015260018401548116858701819052600285015482166060808801829052600390960154831660808089018290529a54600d548a5161018081018c52308152600b5487169e81019e909e52600a5486169a8e019a909a528c88018290529a8c01839052988b0181905260c08b0186905260e08b01869052938a018c9052600e5490921615156101208a01526101408901869052600c546101608a0152939850959092169591939290918291908b1561324f5760055461324f906001600160a01b0389811691168e613e41565b8a1561326f5760055461326f906001600160a01b0388811691168d613e41565b60408051600480825260a08201909252600091816020015b6060815260200190600190039081613287579050506006546040516001600160a01b0390911660248201526044810185905290915060640160408051601f198184030181529190526020810180516001600160e01b0316637d39aaf160e01b179052815182906000906132fc576132fc61488a565b602002602001018190525087600460020160009054906101000a90046001600160a01b03168e604051602401613334939291906152dc565b60408051601f198184030181529190526020810180516001600160e01b0316631cdacd5960e31b1790528151829060019081106133735761337361488a565b60209081029190910101526006546040516133a09189916001600160a01b03909116908f906024016152dc565b60408051601f198184030181529190526020810180516001600160e01b0316631cdacd5960e31b1790528151829060029081106133df576133df61488a565b6020026020010181905250816040516024016133fb9190615300565b60408051601f198184030181529190526020810180516001600160e01b0316635b4e956160e01b17905281518290600390811061343a5761343a61488a565b60200260200101819052506000896001600160a01b031663ac9650d885846040518363ffffffff1660e01b8152600401613474919061542d565b60006040518083038185885af1158015613492573d6000803e3d6000fd5b50505050506040513d6000823e601f3d908101601f191682016040526134bb91908101906154a7565b600b5481519192506001600160a01b031690632c99327a90839060039081106134e6576134e661488a565b60200260200101516134f790615593565b60006040518363ffffffff1660e01b81526004016135169291906155c7565b600060405180830381600087803b15801561353057600080fd5b505af1158015613544573d6000803e3d6000fd5b50505050505050505050505050505050505050565b6000601061356688611043565b815481106135765761357661488a565b600091825260208083206040805160a0810182526004948502909201805460ff8116845261010090046001600160a01b0390811694840194909452600181015484168383015260028101548416606080850191909152600390910154841660808401819052855492516370a0823160e01b815230968101969096529296509216939192839291906370a0823190602401602060405180830381865afa158015613623573d6000803e3d6000fd5b505050506040513d601f19601f820116820180604052508101906136479190614a0f565b9050898110158015613659575060008a115b6136b45760405162461bcd60e51b815260206004820152602660248201527f474d583a20496e73756666696369656e74206d61726b657420746f6b656e2062604482015265616c616e636560d01b60648201526084016110ca565b60408051610160810182526001600160a01b038089168252600b5481166020830152600a54811692820192909252608080880180518416606084015290820186905260a0820185905260c082018b905260e082018a9052600e5460ff161515610100830152600d54610120830152600c546101408301526005549051919261374092811691168d613e41565b60408051600380825260808201909252600091816020015b606081526020019060019003908161375857905050600754600d546040516001600160a01b039092166024830152604482015290915060640160408051601f198184030181529190526020810180516001600160e01b0316637d39aaf160e01b179052815182906000906137ce576137ce61488a565b602090810291909101015260808701516007546040516137fd92916001600160a01b0316908f906024016152dc565b60408051601f198184030181529190526020810180516001600160e01b0316631cdacd5960e31b17905281518290600190811061383c5761383c61488a565b60200260200101819052508160405160240161385891906155e4565b60408051601f198184030181529190526020810180516001600160e01b031663ad23c5a160e01b1790528151829060029081106138975761389761488a565b6020908102919091010152600d54604051631592ca1b60e31b81526000916001600160a01b0389169163ac9650d891906138d590869060040161542d565b60006040518083038185885af11580156138f3573d6000803e3d6000fd5b50505050506040513d6000823e601f3d908101601f1916820160405261391c91908101906154a7565b600b5481519192506001600160a01b031690632c99327a90839060029081106139475761394761488a565b602002602001015161395890615593565b60016040518363ffffffff1660e01b81526004016139779291906155c7565b600060405180830381600087803b15801561399157600080fd5b505af11580156139a5573d6000803e3d6000fd5b5050600b5483516001600160a01b03909116925063c9cbe54e9150839060029081106139d3576139d361488a565b60200260200101516139e490615593565b6040516001600160e01b031960e084901b1681526004810191909152602481018f90526001600160a01b038c166044820152606401600060405180830381600087803b158015613a3357600080fd5b505af1158015613a47573d6000803e3d6000fd5b505050505050505050505050505050505050565b6002548151516001600160a01b03908116911614613aae5760405162461bcd60e51b815260206004820152601060248201526f24b73b30b634b2103932b1b2b4bb32b960811b60448201526064016110ca565b60025481516001600160a01b03918216602091820152600b548351908316604090910152600a548351908316606090910152600c54818401805160a09081018390526004548651820151835195860151600d5460809097019690965292519091019290925292169190600084604001516007811115613b2f57613b2f614c06565b1480613b505750600184604001516007811115613b4e57613b4e614c06565b145b80613b705750600284604001516007811115613b6e57613b6e614c06565b145b80613b905750600384604001516007811115613b8e57613b8e614c06565b145b15613c3157600254613bb0906001600160a01b03848116911630846130fe565b600554613bca906001600160a01b03848116911683613e41565b600854604051631cdacd5960e31b81526001600160a01b038086169263e6d66ac892613bfe928792169086906004016152dc565b600060405180830381600087803b158015613c1857600080fd5b505af1158015613c2c573d6000803e3d6000fd5b505050505b600d54600854604051637d39aaf160e01b81526001600160a01b0391821660048201526024810183905290851691637d39aaf1916044016000604051808303818588803b158015613c8157600080fd5b505af1158015613c95573d6000803e3d6000fd5b505060405163041e7e7760e11b8152600093506001600160a01b038716925063083cfcee9150613cc990889060040161574a565b6020604051808303816000875af1158015613ce8573d6000803e3d6000fd5b505050506040513d601f19601f82011682018060405250810190613d0c9190614a0f565b600b5460405163164c993d60e11b81529192506001600160a01b031690632c99327a90613d409084906002906004016155c7565b600060405180830381600087803b158015613d5a57600080fd5b505af1158015612b68573d6000803e3d6000fd5b60048054604051630c50112160e21b81529182018390526001600160a01b03169081906331404484906024015b600060405180830381600087803b158015613db557600080fd5b505af1158015613dc9573d6000803e3d6000fd5b505050505050565b600480546040516303909e2d60e51b81529182018390526001600160a01b0316908190637213c5a090602401613d9b565b60048054604051637489ec2360e01b81529182018390526001600160a01b0316908190637489ec2390602401613d9b565b606061098783836000613ecb565b604051636eb1769f60e11b81523060048201526001600160a01b0383811660248301526000919085169063dd62ed3e90604401602060405180830381865afa158015613e91573d6000803e3d6000fd5b505050506040513d601f19601f82011682018060405250810190613eb59190614a0f565b90506131268484613ec68585614a28565b613f68565b606081471015613ef05760405163cd78605960e01b81523060048201526024016110ca565b600080856001600160a01b03168486604051613f0c919061581f565b60006040518083038185875af1925050503d8060008114613f49576040519150601f19603f3d011682016040523d82523d6000602084013e613f4e565b606091505b5091509150613f5e868383613ff8565b9695505050505050565b604080516001600160a01b038416602482015260448082018490528251808303909101815260649091019091526020810180516001600160e01b031663095ea7b360e01b179052613fb98482614054565b613126576040516001600160a01b03848116602483015260006044830152613fee91869182169063095ea7b39060640161275e565b613126848261309b565b60608261400d57614008826140fc565b610987565b815115801561402457506001600160a01b0384163b155b1561404d57604051639996b31560e01b81526001600160a01b03851660048201526024016110ca565b5080610987565b6000806000846001600160a01b031684604051614071919061581f565b6000604051808303816000865af19150503d80600081146140ae576040519150601f19603f3d011682016040523d82523d6000602084013e6140b3565b606091505b50915091508180156140dd5750805115806140dd5750808060200190518101906140dd91906152bf565b80156140f357506000856001600160a01b03163b115b95945050505050565b80511561410c5780518082602001fd5b604051630a12f52160e11b815260040160405180910390fd5b82805482825590600052602060002090810192821561417a579160200282015b8281111561417a57825182546001600160a01b0319166001600160a01b03909116178255602090920191600190910190614145565b50610eaf9291505b80821115610eaf5760008155600101614182565b6001600160a01b0396871681529486166020860152928516604085015290841660608401528316608083015290911660a082015260c00190565b634e487b7160e01b600052604160045260246000fd5b60405160a081016001600160401b0381118282101715614208576142086141d0565b60405290565b60405161016081016001600160401b0381118282101715614208576142086141d0565b60405160e081016001600160401b0381118282101715614208576142086141d0565b60405161010081016001600160401b0381118282101715614208576142086141d0565b604051601f8201601f191681016001600160401b038111828210171561429e5761429e6141d0565b604052919050565b60006001600160401b038211156142bf576142bf6141d0565b5060051b60200190565b6001600160a01b0381168114611f1d57600080fd5b80356142e9816142c9565b919050565b600082601f8301126142ff57600080fd5b8135602061431461430f836142a6565b614276565b8083825260208201915060208460051b87010193508684111561433657600080fd5b602086015b8481101561435b57803561434e816142c9565b835291830191830161433b565b509695505050505050565b60006020828403121561437857600080fd5b81356001600160401b0381111561438e57600080fd5b61439a848285016142ee565b949350505050565b60ff81168114611f1d57600080fd5b600060208083850312156143c457600080fd5b82356001600160401b038111156143da57600080fd5b8301601f810185136143eb57600080fd5b80356143f961430f826142a6565b81815260a0918202830184019184820191908884111561441857600080fd5b938501935b838510156144a35780858a0312156144355760008081fd5b61443d6141e6565b8535614448816143a2565b815285870135614457816142c9565b8188015260408681013561446a816142c9565b9082015260608681013561447d816142c9565b90820152608086810135614490816142c9565b908201528352938401939185019161441d565b50979650505050505050565b60008151808452602080850194506020840160005b838110156144e95781516001600160a01b0316875295820195908201906001016144c4565b509495945050505050565b60208152600061098760208301846144af565b60008060006060848603121561451c57600080fd5b505081359360208301359350604090920135919050565b60006020828403121561454557600080fd5b8135610987816143a2565b6000806040838503121561456357600080fd5b823561456e816142c9565b946020939093013593505050565b6001600160a01b039687168152949095166020850152604084019290925260608301521515608082015260a081019190915260c00190565b602080825282518282018190526000919060409081850190868401855b82811015614628578151805160ff168552868101516001600160a01b039081168887015286820151811687870152606080830151821690870152608091820151169085015260a090930192908501906001016145d1565b5091979650505050505050565b60006020828403121561464757600080fd5b8135610987816142c9565b81518152602080830151908201526040810161103d565b60008060008060008060c0878903121561468257600080fd5b863561468d816142c9565b9550602087013561469d816142c9565b945060408701356146ad816142c9565b935060608701356146bd816142c9565b925060808701356146cd816142c9565b915060a08701356146dd816142c9565b809150509295509295509295565b6000602082840312156146fd57600080fd5b5035919050565b8015158114611f1d57600080fd5b80356142e981614704565b6000806040838503121561473057600080fd5b823561473b816143a2565b9150602083013561474b81614704565b809150509250929050565b60008060008060008060c0878903121561476f57600080fd5b863561477a816142c9565b9550602087013561478a816142c9565b9450604087013593506060870135925060808701356147a881614704565b8092505060a087013590509295509295509295565b602080825282518282018190526000919060409081850190868401855b82811015614628578151805160ff1685528601518685015292840192908501906001016147da565b60008060006040848603121561481757600080fd5b83356009811061482657600080fd5b925060208401356001600160401b038082111561484257600080fd5b818601915086601f83011261485657600080fd5b81358181111561486557600080fd5b87602082850101111561487757600080fd5b6020830194508093505050509250925092565b634e487b7160e01b600052603260045260246000fd5b634e487b7160e01b600052601160045260246000fd5b8181038181111561103d5761103d6148a0565b600181815b808511156149045781600019048211156148ea576148ea6148a0565b808516156148f757918102915b93841c93908002906148ce565b509250929050565b60008261491b5750600161103d565b816149285750600061103d565b816001811461493e576002811461494857614964565b600191505061103d565b60ff841115614959576149596148a0565b50506001821b61103d565b5060208310610133831016604e8410600b8410161715614987575081810a61103d565b61499183836148c9565b80600019048211156149a5576149a56148a0565b029392505050565b6000610987838361490c565b6000826149d657634e487b7160e01b600052601260045260246000fd5b500490565b808202811582820484141761103d5761103d6148a0565b600060208284031215614a0457600080fd5b8151610987816143a2565b600060208284031215614a2157600080fd5b5051919050565b8082018082111561103d5761103d6148a0565b60208082526029908201527f474d583a20506f6f6c2077697468207468697320706f6f6c496420646f6573206040820152681b9bdd08195e1a5cdd60ba1b606082015260800190565b634e487b7160e01b600052603160045260246000fd5b600060208284031215614aac57600080fd5b8151610987816142c9565b60006101a08201905060018060a01b03808a1683528089511660208401528060208a01511660408401528060408a01511660608401528060608a015116608084015250614b1160a083018880518252602090810151910152565b855160e08301526020860151610100830152845161012083015260208501516101408301528361016083015282151561018083015298975050505050505050565b600080828403610180811215614b6757600080fd5b8351925061016080601f1983011215614b7f57600080fd5b614b8761420e565b91506020850151825260408501516020830152606085015160408301526080850151606083015260a0850151608083015260c085015160a083015260e085015160c08301526101008086015160e08401526101208087015182850152610140915081870151818501525081860151818401525050809150509250929050565b634e487b7160e01b600052602160045260246000fd5b60098110614c2c57614c2c614c06565b9052565b614c3a8185614c1c565b60406020820152816040820152818360608301376000818301606090810191909152601f909201601f1916010192915050565b600081614c7c57614c7c6148a0565b506000190190565b600082601f830112614c9557600080fd5b81356020614ca561430f836142a6565b8083825260208201915060208460051b870101935086841115614cc757600080fd5b602086015b8481101561435b5780358352918301918301614ccc565b60006001600160401b03821115614cfc57614cfc6141d0565b50601f01601f191660200190565b600082601f830112614d1b57600080fd5b8135614d2961430f82614ce3565b818152846020838601011115614d3e57600080fd5b816020850160208301376000918101602001919091529392505050565b60008060008060808587031215614d7157600080fd5b8435614d7c816143a2565b935060208501356001600160401b0380821115614d9857600080fd5b614da4888389016142ee565b94506040870135915080821115614dba57600080fd5b614dc688838901614c84565b93506060870135915080821115614ddc57600080fd5b50614de987828801614d0a565b91505092959194509250565b600080600080600060a08688031215614e0d57600080fd5b8535614e18816143a2565b945060208601359350604086013592506060860135614e36816142c9565b915060808601356001600160401b03811115614e5157600080fd5b614e5d88828901614d0a565b9150509295509295909350565b60008060408385031215614e7d57600080fd5b505080516020909101519092909150565b600060e08284031215614ea057600080fd5b614ea8614231565b9050614eb3826142de565b8152614ec1602083016142de565b6020820152614ed2604083016142de565b6040820152614ee3606083016142de565b6060820152614ef4608083016142de565b6080820152614f0560a083016142de565b60a082015260c08201356001600160401b03811115614f2357600080fd5b614f2f848285016142ee565b60c08301525092915050565b600060e08284031215614f4d57600080fd5b614f55614231565b9050813581526020820135602082015260408201356040820152606082013560608201526080820135608082015260a082013560a082015260c082013560c082015292915050565b8035600881106142e957600080fd5b8035600381106142e957600080fd5b600060208284031215614fcd57600080fd5b81356001600160401b0380821115614fe457600080fd5b908301906101c08286031215614ff957600080fd5b615001614253565b82358281111561501057600080fd5b61501c87828601614e8e565b82525061502c8660208501614f3b565b602082015261503e6101008401614f9d565b60408201526150506101208401614fac565b60608201526150626101408401614712565b60808201526150746101608401614712565b60a08201526150866101808401614712565b60c08201526101a0929092013560e0830152509392505050565b600080604083850312156150b357600080fd5b823561456e816143a2565b600080600080608085870312156150d457600080fd5b84356001600160401b03808211156150eb57600080fd5b6150f7888389016142ee565b9550602087013591508082111561510d57600080fd5b615119888389016142ee565b9450604087013591508082111561512f57600080fd5b5061513c87828801614c84565b949793965093946060013593505050565b60608152600061516060608301866144af565b828103602084015261517281866144af565b91505060018060a01b0383166040830152949350505050565b6000602080838503121561519e57600080fd5b82516001600160401b038111156151b457600080fd5b8301601f810185136151c557600080fd5b80516151d361430f826142a6565b81815260059190911b820183019083810190878311156151f257600080fd5b928401925b82841015615210578351825292840192908401906151f7565b979650505050505050565b60008151808452602080850194506020840160005b838110156144e957815187529582019590820190600101615230565b6152568184614c1c565b60406020820152600061439a604083018461521b565b60808152600061527f60808301876144af565b828103602084015261529181876144af565b905082810360408401526152a5818661521b565b91505060018060a01b038316606083015295945050505050565b6000602082840312156152d157600080fd5b815161098781614704565b6001600160a01b039384168152919092166020820152604081019190915260600190565b6020815261531a6020820183516001600160a01b03169052565b6000602083015161533660408401826001600160a01b03169052565b5060408301516001600160a01b03811660608401525060608301516001600160a01b03811660808401525060808301516001600160a01b03811660a08401525060a08301516001600160a01b03811660c08401525060c08301516101808060e08501526153a76101a08501836144af565b915060e0850151610100601f1986850301818701526153c684836144af565b908701516101208781019190915287015190935090506101406153ec8187018315159052565b860151610160868101919091529095015193019290925250919050565b60005b8381101561542457818101518382015260200161540c565b50506000910152565b6000602080830181845280855180835260408601915060408160051b870101925083870160005b8281101561549a57878503603f190184528151805180875261547b818989018a8501615409565b601f01601f191695909501860194509285019290850190600101615454565b5092979650505050505050565b600060208083850312156154ba57600080fd5b82516001600160401b03808211156154d157600080fd5b818501915085601f8301126154e557600080fd5b81516154f361430f826142a6565b81815260059190911b8301840190848101908883111561551257600080fd5b8585015b838110156155865780518581111561552e5760008081fd5b8601603f81018b136155405760008081fd5b87810151604061555261430f83614ce3565b8281528d828486010111156155675760008081fd5b615576838c8301848701615409565b8652505050918601918601615516565b5098975050505050505050565b805160208083015191908110156121525760001960209190910360031b1b16919050565b60038110611f1d57611f1d614c06565b828152604081016155d7836155b7565b8260208301529392505050565b602081526155fe6020820183516001600160a01b03169052565b6000602083015161561a60408401826001600160a01b03169052565b5060408301516001600160a01b03811660608401525060608301516001600160a01b03811660808401525060808301516101608060a08501526156616101808501836144af565b915060a0850151601f198584030160c086015261567e83826144af565b92505060c085015160e085015260e08501516101008181870152808701519150506101206156af8187018315159052565b860151610140868101919091529095015193019290925250919050565b600060018060a01b038083511684528060208401511660208501528060408401511660408501528060608401511660608501528060808401511660808501528060a08401511660a08501525060c082015160e060c085015261439a60e08501826144af565b60088110614c2c57614c2c614c06565b614c2c816155b7565b60208152600082516101c08060208501526157696101e08501836156cc565b915060208501516157bc6040860182805182526020810151602083015260408101516040830152606081015160608301526080810151608083015260a081015160a083015260c081015160c08301525050565b5060408501516157d0610120860182615731565b5060608501516157e4610140860182615741565b506080850151151561016085015260a0850151151561018085015260c085015115156101a085015260e0909401519390920192909252919050565b60008251615831818460208701615409565b919091019291505056fea2646970667358221220feeb07ce3f024647e9dd0b2d1308d7218b8eb4be06b36432b0b8389a56d9fc4964736f6c63430008180033",
  "devdoc": {
    "errors": {
      "AddressEmptyCode(address)": [
        {
          "details": "There's no code at `target` (it is not a contract)."
        }
      ],
      "AddressInsufficientBalance(address)": [
        {
          "details": "The ETH balance of the account is not enough to perform the operation."
        }
      ],
      "FailedInnerCall()": [
        {
          "details": "A call to an address target failed. The target may have reverted."
        }
      ],
      "OwnableInvalidOwner(address)": [
        {
          "details": "The owner is not a valid owner account. (eg. `address(0)`)"
        }
      ],
      "OwnableUnauthorizedAccount(address)": [
        {
          "details": "The caller account is not authorized to perform an operation."
        }
      ],
      "ReentrancyGuardReentrantCall()": [
        {
          "details": "Unauthorized reentrant call."
        }
      ],
      "SafeERC20FailedOperation(address)": [
        {
          "details": "An operation with an ERC20 token failed."
        }
      ]
    },
    "kind": "dev",
    "methods": {
      "owner()": {
        "details": "Returns the address of the current owner."
      },
      "renounceOwnership()": {
        "details": "Leaves the contract without owner. It will not be possible to call `onlyOwner` functions. Can only be called by the current owner. NOTE: Renouncing ownership will leave the contract without an owner, thereby disabling any functionality that is only available to the owner."
      },
      "transferOwnership(address)": {
        "details": "Transfers ownership of the contract to a new account (`newOwner`). Can only be called by the current owner."
      }
    },
    "version": 1
  },
  "userdoc": {
    "kind": "user",
    "methods": {},
    "version": 1
  },
  "storageLayout": {
    "storage": [
      {
        "astId": 8,
        "contract": "contracts/vaults/theseus/GmxPlugin.sol:GmxPlugin",
        "label": "_owner",
        "offset": 0,
        "slot": "0",
        "type": "t_address"
      },
      {
        "astId": 1674,
        "contract": "contracts/vaults/theseus/GmxPlugin.sol:GmxPlugin",
        "label": "_status",
        "offset": 0,
        "slot": "1",
        "type": "t_uint256"
      },
      {
        "astId": 3182,
        "contract": "contracts/vaults/theseus/GmxPlugin.sol:GmxPlugin",
        "label": "localVault",
        "offset": 0,
        "slot": "2",
        "type": "t_address"
      },
      {
        "astId": 3184,
        "contract": "contracts/vaults/theseus/GmxPlugin.sol:GmxPlugin",
        "label": "treasury",
        "offset": 0,
        "slot": "3",
        "type": "t_address_payable"
      },
      {
        "astId": 3187,
        "contract": "contracts/vaults/theseus/GmxPlugin.sol:GmxPlugin",
        "label": "routerConfig",
        "offset": 0,
        "slot": "4",
        "type": "t_struct(RouterConfig)3151_storage"
      },
      {
        "astId": 3190,
        "contract": "contracts/vaults/theseus/GmxPlugin.sol:GmxPlugin",
        "label": "gmxParams",
        "offset": 0,
        "slot": "10",
        "type": "t_struct(GmxParams)3175_storage"
      },
      {
        "astId": 3194,
        "contract": "contracts/vaults/theseus/GmxPlugin.sol:GmxPlugin",
        "label": "pools",
        "offset": 0,
        "slot": "16",
        "type": "t_array(t_struct(PoolConfig)3162_storage)dyn_storage"
      },
      {
        "astId": 3198,
        "contract": "contracts/vaults/theseus/GmxPlugin.sol:GmxPlugin",
        "label": "poolExistsMap",
        "offset": 0,
        "slot": "17",
        "type": "t_mapping(t_uint8,t_bool)"
      },
      {
        "astId": 3201,
        "contract": "contracts/vaults/theseus/GmxPlugin.sol:GmxPlugin",
        "label": "uniqueTokens",
        "offset": 0,
        "slot": "18",
        "type": "t_array(t_address)dyn_storage"
      },
      {
        "astId": 3203,
        "contract": "contracts/vaults/theseus/GmxPlugin.sol:GmxPlugin",
        "label": "tokenPriceConsumer",
        "offset": 0,
        "slot": "19",
        "type": "t_address"
      },
      {
        "astId": 3206,
        "contract": "contracts/vaults/theseus/GmxPlugin.sol:GmxPlugin",
        "label": "rewardTokens",
        "offset": 0,
        "slot": "20",
        "type": "t_array(t_address)dyn_storage"
      }
    ],
    "types": {
      "t_address": {
        "encoding": "inplace",
        "label": "address",
        "numberOfBytes": "20"
      },
      "t_address_payable": {
        "encoding": "inplace",
        "label": "address payable",
        "numberOfBytes": "20"
      },
      "t_array(t_address)dyn_storage": {
        "base": "t_address",
        "encoding": "dynamic_array",
        "label": "address[]",
        "numberOfBytes": "32"
      },
      "t_array(t_struct(PoolConfig)3162_storage)dyn_storage": {
        "base": "t_struct(PoolConfig)3162_storage",
        "encoding": "dynamic_array",
        "label": "struct GmxPlugin.PoolConfig[]",
        "numberOfBytes": "32"
      },
      "t_bool": {
        "encoding": "inplace",
        "label": "bool",
        "numberOfBytes": "1"
      },
      "t_bytes32": {
        "encoding": "inplace",
        "label": "bytes32",
        "numberOfBytes": "32"
      },
      "t_mapping(t_uint8,t_bool)": {
        "encoding": "mapping",
        "key": "t_uint8",
        "label": "mapping(uint8 => bool)",
        "numberOfBytes": "32",
        "value": "t_bool"
      },
      "t_struct(GmxParams)3175_storage": {
        "encoding": "inplace",
        "label": "struct GmxPlugin.GmxParams",
        "members": [
          {
            "astId": 3164,
            "contract": "contracts/vaults/theseus/GmxPlugin.sol:GmxPlugin",
            "label": "uiFeeReceiver",
            "offset": 0,
            "slot": "0",
            "type": "t_address"
          },
          {
            "astId": 3166,
            "contract": "contracts/vaults/theseus/GmxPlugin.sol:GmxPlugin",
            "label": "callbackContract",
            "offset": 0,
            "slot": "1",
            "type": "t_address"
          },
          {
            "astId": 3168,
            "contract": "contracts/vaults/theseus/GmxPlugin.sol:GmxPlugin",
            "label": "callbackGasLimit",
            "offset": 0,
            "slot": "2",
            "type": "t_uint256"
          },
          {
            "astId": 3170,
            "contract": "contracts/vaults/theseus/GmxPlugin.sol:GmxPlugin",
            "label": "executionFee",
            "offset": 0,
            "slot": "3",
            "type": "t_uint256"
          },
          {
            "astId": 3172,
            "contract": "contracts/vaults/theseus/GmxPlugin.sol:GmxPlugin",
            "label": "shouldUnwrapNativeToken",
            "offset": 0,
            "slot": "4",
            "type": "t_bool"
          },
          {
            "astId": 3174,
            "contract": "contracts/vaults/theseus/GmxPlugin.sol:GmxPlugin",
            "label": "pnlFactorType",
            "offset": 0,
            "slot": "5",
            "type": "t_bytes32"
          }
        ],
        "numberOfBytes": "192"
      },
      "t_struct(PoolConfig)3162_storage": {
        "encoding": "inplace",
        "label": "struct GmxPlugin.PoolConfig",
        "members": [
          {
            "astId": 3153,
            "contract": "contracts/vaults/theseus/GmxPlugin.sol:GmxPlugin",
            "label": "poolId",
            "offset": 0,
            "slot": "0",
            "type": "t_uint8"
          },
          {
            "astId": 3155,
            "contract": "contracts/vaults/theseus/GmxPlugin.sol:GmxPlugin",
            "label": "indexToken",
            "offset": 1,
            "slot": "0",
            "type": "t_address"
          },
          {
            "astId": 3157,
            "contract": "contracts/vaults/theseus/GmxPlugin.sol:GmxPlugin",
            "label": "longToken",
            "offset": 0,
            "slot": "1",
            "type": "t_address"
          },
          {
            "astId": 3159,
            "contract": "contracts/vaults/theseus/GmxPlugin.sol:GmxPlugin",
            "label": "shortToken",
            "offset": 0,
            "slot": "2",
            "type": "t_address"
          },
          {
            "astId": 3161,
            "contract": "contracts/vaults/theseus/GmxPlugin.sol:GmxPlugin",
            "label": "marketToken",
            "offset": 0,
            "slot": "3",
            "type": "t_address"
          }
        ],
        "numberOfBytes": "128"
      },
      "t_struct(RouterConfig)3151_storage": {
        "encoding": "inplace",
        "label": "struct GmxPlugin.RouterConfig",
        "members": [
          {
            "astId": 3140,
            "contract": "contracts/vaults/theseus/GmxPlugin.sol:GmxPlugin",
            "label": "exchangeRouter",
            "offset": 0,
            "slot": "0",
            "type": "t_address"
          },
          {
            "astId": 3142,
            "contract": "contracts/vaults/theseus/GmxPlugin.sol:GmxPlugin",
            "label": "router",
            "offset": 0,
            "slot": "1",
            "type": "t_address"
          },
          {
            "astId": 3144,
            "contract": "contracts/vaults/theseus/GmxPlugin.sol:GmxPlugin",
            "label": "depositVault",
            "offset": 0,
            "slot": "2",
            "type": "t_address"
          },
          {
            "astId": 3146,
            "contract": "contracts/vaults/theseus/GmxPlugin.sol:GmxPlugin",
            "label": "withdrawVault",
            "offset": 0,
            "slot": "3",
            "type": "t_address"
          },
          {
            "astId": 3148,
            "contract": "contracts/vaults/theseus/GmxPlugin.sol:GmxPlugin",
            "label": "orderVault",
            "offset": 0,
            "slot": "4",
            "type": "t_address"
          },
          {
            "astId": 3150,
            "contract": "contracts/vaults/theseus/GmxPlugin.sol:GmxPlugin",
            "label": "reader",
            "offset": 0,
            "slot": "5",
            "type": "t_address"
          }
        ],
        "numberOfBytes": "192"
      },
      "t_uint256": {
        "encoding": "inplace",
        "label": "uint256",
        "numberOfBytes": "32"
      },
      "t_uint8": {
        "encoding": "inplace",
        "label": "uint8",
        "numberOfBytes": "1"
      }
    }
  }
}