{
  "address": "0x6ccc79Ce9fe68c146295C02Ec6A2ab692AF2b229",
  "abi": [
    {
      "inputs": [
        {
          "internalType": "address",
          "name": "_admin",
          "type": "address"
        }
      ],
      "stateMutability": "nonpayable",
      "type": "constructor"
    },
    {
      "inputs": [
        {
          "internalType": "address",
          "name": "target",
          "type": "address"
        }
      ],
      "name": "AddressEmptyCode",
      "type": "error"
    },
    {
      "inputs": [
        {
          "internalType": "address",
          "name": "account",
          "type": "address"
        }
      ],
      "name": "AddressInsufficientBalance",
      "type": "error"
    },
    {
      "inputs": [],
      "name": "FailedInnerCall",
      "type": "error"
    },
    {
      "inputs": [
        {
          "internalType": "address",
          "name": "owner",
          "type": "address"
        }
      ],
      "name": "OwnableInvalidOwner",
      "type": "error"
    },
    {
      "inputs": [
        {
          "internalType": "address",
          "name": "account",
          "type": "address"
        }
      ],
      "name": "OwnableUnauthorizedAccount",
      "type": "error"
    },
    {
      "inputs": [
        {
          "internalType": "address",
          "name": "spender",
          "type": "address"
        },
        {
          "internalType": "uint256",
          "name": "currentAllowance",
          "type": "uint256"
        },
        {
          "internalType": "uint256",
          "name": "requestedDecrease",
          "type": "uint256"
        }
      ],
      "name": "SafeERC20FailedDecreaseAllowance",
      "type": "error"
    },
    {
      "inputs": [
        {
          "internalType": "address",
          "name": "token",
          "type": "address"
        }
      ],
      "name": "SafeERC20FailedOperation",
      "type": "error"
    },
    {
      "anonymous": false,
      "inputs": [
        {
          "indexed": true,
          "internalType": "address",
          "name": "previousOwner",
          "type": "address"
        },
        {
          "indexed": true,
          "internalType": "address",
          "name": "newOwner",
          "type": "address"
        }
      ],
      "name": "OwnershipTransferred",
      "type": "event"
    },
    {
      "stateMutability": "payable",
      "type": "fallback"
    },
    {
      "inputs": [],
      "name": "LIFI_CONTRACT",
      "outputs": [
        {
          "internalType": "address",
          "name": "",
          "type": "address"
        }
      ],
      "stateMutability": "view",
      "type": "function"
    },
    {
      "inputs": [],
      "name": "admin",
      "outputs": [
        {
          "internalType": "address",
          "name": "",
          "type": "address"
        }
      ],
      "stateMutability": "view",
      "type": "function"
    },
    {
      "inputs": [
        {
          "internalType": "address",
          "name": "_srcToken",
          "type": "address"
        },
        {
          "internalType": "address",
          "name": "_dstToken",
          "type": "address"
        },
        {
          "internalType": "uint256",
          "name": "_amount",
          "type": "uint256"
        },
        {
          "internalType": "uint256",
          "name": "_value",
          "type": "uint256"
        },
        {
          "internalType": "bool",
          "name": "_bridge",
          "type": "bool"
        },
        {
          "internalType": "bytes",
          "name": "_data",
          "type": "bytes"
        }
      ],
      "name": "bridgeViaLifi",
      "outputs": [],
      "stateMutability": "payable",
      "type": "function"
    },
    {
      "inputs": [
        {
          "internalType": "uint8",
          "name": "_pluginId",
          "type": "uint8"
        },
        {
          "internalType": "enum UnsafeMultiCallVaultMaster.MultiCallAction",
          "name": "_action",
          "type": "uint8"
        },
        {
          "internalType": "bytes[]",
          "name": "_payloads",
          "type": "bytes[]"
        },
        {
          "components": [
            {
              "internalType": "address",
              "name": "srcToken",
              "type": "address"
            },
            {
              "internalType": "uint256",
              "name": "amount",
              "type": "uint256"
            },
            {
              "internalType": "uint256",
              "name": "value",
              "type": "uint256"
            },
            {
              "internalType": "bool",
              "name": "bridge",
              "type": "bool"
            },
            {
              "internalType": "bytes",
              "name": "data",
              "type": "bytes"
            }
          ],
          "internalType": "struct UnsafeMultiCallVaultMaster.LifiCallData[]",
          "name": "_lifiCallData",
          "type": "tuple[]"
        }
      ],
      "name": "executeMultiCall",
      "outputs": [],
      "stateMutability": "nonpayable",
      "type": "function"
    },
    {
      "inputs": [],
      "name": "owner",
      "outputs": [
        {
          "internalType": "address",
          "name": "",
          "type": "address"
        }
      ],
      "stateMutability": "view",
      "type": "function"
    },
    {
      "inputs": [],
      "name": "renounceOwnership",
      "outputs": [],
      "stateMutability": "nonpayable",
      "type": "function"
    },
    {
      "inputs": [
        {
          "internalType": "address",
          "name": "_admin",
          "type": "address"
        }
      ],
      "name": "setAdmin",
      "outputs": [],
      "stateMutability": "nonpayable",
      "type": "function"
    },
    {
      "inputs": [
        {
          "internalType": "address payable",
          "name": "_vault",
          "type": "address"
        }
      ],
      "name": "setVault",
      "outputs": [],
      "stateMutability": "nonpayable",
      "type": "function"
    },
    {
      "inputs": [
        {
          "internalType": "address",
          "name": "newOwner",
          "type": "address"
        }
      ],
      "name": "transferOwnership",
      "outputs": [],
      "stateMutability": "nonpayable",
      "type": "function"
    },
    {
      "inputs": [],
      "name": "vault",
      "outputs": [
        {
          "internalType": "address payable",
          "name": "",
          "type": "address"
        }
      ],
      "stateMutability": "view",
      "type": "function"
    },
    {
      "inputs": [
        {
          "internalType": "address",
          "name": "toAddr",
          "type": "address"
        }
      ],
      "name": "withdrawStuckEth",
      "outputs": [],
      "stateMutability": "nonpayable",
      "type": "function"
    },
    {
      "inputs": [
        {
          "internalType": "address",
          "name": "token",
          "type": "address"
        },
        {
          "internalType": "address",
          "name": "_to",
          "type": "address"
        }
      ],
      "name": "withdrawStuckToken",
      "outputs": [],
      "stateMutability": "nonpayable",
      "type": "function"
    },
    {
      "stateMutability": "payable",
      "type": "receive"
    }
  ],
  "transactionHash": "0x4bb5dba11170d77f416c353ae421942de411bf296692c0dca4d0ec1dbfc046ff",
  "args": [
    "0xa3D6360C288551600B20A7992860766F9754e477"
  ],
  "numDeployments": 1,
  "solcInputHash": "c906a067ca75527fe004c9c1b5e61e24",
  "bytecode": "0x60806040523480156200001157600080fd5b50604051620022eb380380620022eb8339810160408190526200003491620000dd565b33806200005b57604051631e4fbdf760e01b81526000600482015260240160405180910390fd5b62000066816200008d565b50600280546001600160a01b0319166001600160a01b03929092169190911790556200010f565b600080546001600160a01b038381166001600160a01b0319831681178455604051919092169283917f8be0079c531659141344cd1fd0a4f28419497f9722a3daafe3b4186f6b6457e09190a35050565b600060208284031215620000f057600080fd5b81516001600160a01b03811681146200010857600080fd5b9392505050565b6121cc806200011f6000396000f3fe6080604052600436106100ab5760003560e01c80638da5cb5b116100645780638da5cb5b146101ea578063bc205ad314610208578063f05ead3b14610228578063f2fde38b1461023b578063f851a4401461025b578063fbfa77cf1461027b576100b2565b8063108e3c99146101115780635b99caaa146101555780636817031b14610175578063704b6c0214610195578063715018a6146101b55780637ca8448a146101ca576100b2565b366100b257005b6002546001600160a01b031633146100e55760405162461bcd60e51b81526004016100dc906117e8565b60405180910390fd5b600154366000803760008036600034855af190503d6000803e80801561010a573d6000f35b3d6000fd5b005b34801561011d57600080fd5b50610139731231deb6f5749ef6ce6943a275a1d3e7486f4eae81565b6040516001600160a01b03909116815260200160405180910390f35b34801561016157600080fd5b5061010f610170366004611aa2565b61029b565b34801561018157600080fd5b5061010f610190366004611ba6565b610a89565b3480156101a157600080fd5b5061010f6101b0366004611ba6565b610ab3565b3480156101c157600080fd5b5061010f610add565b3480156101d657600080fd5b5061010f6101e5366004611ba6565b610af1565b3480156101f657600080fd5b506000546001600160a01b0316610139565b34801561021457600080fd5b5061010f610223366004611bc3565b610b5d565b61010f610236366004611bfc565b610c30565b34801561024757600080fd5b5061010f610256366004611ba6565b611278565b34801561026757600080fd5b50600254610139906001600160a01b031681565b34801561028757600080fd5b50600154610139906001600160a01b031681565b6002546001600160a01b031633146102c55760405162461bcd60e51b81526004016100dc906117e8565b60008360058111156102d9576102d9611cb9565b036103825760005b825181101561037c5760015483516001600160a01b039091169063bb1ae35290879060009087908690811061031857610318611ccf565b60200260200101516040518463ffffffff1660e01b815260040161033e93929190611d35565b600060405180830381600087803b15801561035857600080fd5b505af115801561036c573d6000803e3d6000fd5b5050600190920191506102e19050565b50610a83565b600183600581111561039657610396611cb9565b036104385760005b825181101561037c576001805484516001600160a01b039091169163bb1ae352918891908790869081106103d4576103d4611ccf565b60200260200101516040518463ffffffff1660e01b81526004016103fa93929190611d35565b600060405180830381600087803b15801561041457600080fd5b505af1158015610428573d6000803e3d6000fd5b50506001909201915061039e9050565b600383600581111561044c5761044c611cb9565b0361069357600082516001600160401b0381111561046c5761046c611835565b604051908082528060200260200182016040528015610495578160200160208202803683370190505b509050600083516001600160401b038111156104b3576104b3611835565b6040519080825280602002602001820160405280156104dc578160200160208202803683370190505b50905060005b84518110156105865760008582815181106104ff576104ff611ccf565b602002602001015180602001905181019061051a9190611f25565b9050806000015160a0015184838151811061053757610537611ccf565b60200260200101906001600160a01b031690816001600160a01b03168152505080602001516020015183838151811061057257610572611ccf565b6020908102919091010152506001016104e2565b50600154604051637bc59ce560e01b81526001600160a01b0390911690637bc59ce5906105bb90899086908690600401612080565b600060405180830381600087803b1580156105d557600080fd5b505af11580156105e9573d6000803e3d6000fd5b5050505060005b845181101561068b5760015485516001600160a01b039091169063bb1ae35290899060029089908690811061062757610627611ccf565b60200260200101516040518463ffffffff1660e01b815260040161064d93929190611d35565b600060405180830381600087803b15801561066757600080fd5b505af115801561067b573d6000803e3d6000fd5b5050600190920191506105f09050565b505050610a83565b60058360058111156106a7576106a7611cb9565b0361074a5760005b825181101561037c5760015483516001600160a01b039091169063bb1ae3529087906004908790869081106106e6576106e6611ccf565b60200260200101516040518463ffffffff1660e01b815260040161070c93929190611d35565b600060405180830381600087803b15801561072657600080fd5b505af115801561073a573d6000803e3d6000fd5b5050600190920191506106af9050565b600283600581111561075e5761075e611cb9565b036108965760005b815181101561037c57600082828151811061078357610783611ccf565b602002602001015160000151905060008383815181106107a5576107a5611ccf565b602002602001015160200151905060008484815181106107c7576107c7611ccf565b602002602001015160400151905060008585815181106107e9576107e9611ccf565b6020026020010151606001519050600086868151811061080b5761080b611ccf565b6020908102919091010151608001516001546040516360e97ccd60e01b81529192506001600160a01b0316906360e97ccd9061085390889088908890889088906004016120b8565b600060405180830381600087803b15801561086d57600080fd5b505af1158015610881573d6000803e3d6000fd5b50506001909701965061076695505050505050565b60048360058111156108aa576108aa611cb9565b03610a835760005b81518110156109e25760008282815181106108cf576108cf611ccf565b602002602001015160000151905060008383815181106108f1576108f1611ccf565b6020026020010151602001519050600084848151811061091357610913611ccf565b6020026020010151604001519050600085858151811061093557610935611ccf565b6020026020010151606001519050600086868151811061095757610957611ccf565b6020908102919091010151608001516001546040516360e97ccd60e01b81529192506001600160a01b0316906360e97ccd9061099f90889088908890889088906004016120b8565b600060405180830381600087803b1580156109b957600080fd5b505af11580156109cd573d6000803e3d6000fd5b5050600190970196506108b295505050505050565b5060005b8251811015610a815760015483516001600160a01b039091169063bb1ae352908790600090879086908110610a1d57610a1d611ccf565b60200260200101516040518463ffffffff1660e01b8152600401610a4393929190611d35565b600060405180830381600087803b158015610a5d57600080fd5b505af1158015610a71573d6000803e3d6000fd5b5050600190920191506109e69050565b505b50505050565b610a916112b6565b600180546001600160a01b0319166001600160a01b0392909216919091179055565b610abb6112b6565b600280546001600160a01b0319166001600160a01b0392909216919091179055565b610ae56112b6565b610aef60006112e3565b565b610af96112b6565b6000816001600160a01b03164760405160006040518083038185875af1925050503d8060008114610b46576040519150601f19603f3d011682016040523d82523d6000602084013e610b4b565b606091505b5050905080610b5957600080fd5b5050565b610b656112b6565b6001600160a01b038116610baa5760405162461bcd60e51b815260206004820152600c60248201526b5a65726f206164647265737360a01b60448201526064016100dc565b6040516370a0823160e01b81523060048201526000906001600160a01b038416906370a0823190602401602060405180830381865afa158015610bf1573d6000803e3d6000fd5b505050506040513d601f19601f82011682018060405250810190610c1591906120f8565b9050610c2b6001600160a01b0384168383611333565b505050565b6002546001600160a01b03163314610c5a5760405162461bcd60e51b81526004016100dc906117e8565b6040805160018082528183019092526000916020808301908036833750506040805160018082528183019092529293506000929150602080830190803683370190505090508882600081518110610cb357610cb3611ccf565b60200260200101906001600160a01b031690816001600160a01b0316815250508681600081518110610ce757610ce7611ccf565b6020908102919091010152600154604051637bc59ce560e01b81526001600160a01b0390911690637bc59ce590610d279060029086908690600401612080565b600060405180830381600087803b158015610d4157600080fd5b505af1158015610d55573d6000803e3d6000fd5b50506001548b92508a9150610d78906001600160a01b038085169116308c611392565b6040516370a0823160e01b81523060048201526000906001600160a01b038416906370a0823190602401602060405180830381865afa158015610dbf573d6000803e3d6000fd5b505050506040513d601f19601f82011682018060405250810190610de391906120f8565b6040516370a0823160e01b81523060048201529091506000906001600160a01b038416906370a0823190602401602060405180830381865afa158015610e2d573d6000803e3d6000fd5b505050506040513d601f19601f82011682018060405250810190610e5191906120f8565b90506001600160a01b038d161580610f7057604051636eb1769f60e11b8152306004820152731231deb6f5749ef6ce6943a275a1d3e7486f4eae60248201526000906001600160a01b0387169063dd62ed3e90604401602060405180830381865afa158015610ec4573d6000803e3d6000fd5b505050506040513d601f19601f82011682018060405250810190610ee891906120f8565b9050808d1115610f2e576000610efe828f612127565b9050610f286001600160a01b038816731231deb6f5749ef6ce6943a275a1d3e7486f4eae836113cb565b50610f6e565b808d1015610f6e576000610f428e83612127565b9050610f6c6001600160a01b038816731231deb6f5749ef6ce6943a275a1d3e7486f4eae83611455565b505b505b6000731231deb6f5749ef6ce6943a275a1d3e7486f4eae6001600160a01b03168c8b8b604051610fa192919061213a565b60006040518083038185875af1925050503d8060008114610fde576040519150601f19603f3d011682016040523d82523d6000602084013e610fe3565b606091505b50509050806110285760405162461bcd60e51b8152602060048201526011602482015270131a599a4e8818d85b1b0819985a5b1959607a1b60448201526064016100dc565b6040516370a0823160e01b815230600482015284906001600160a01b038816906370a0823190602401602060405180830381865afa15801561106e573d6000803e3d6000fd5b505050506040513d601f19601f8201168201806040525081019061109291906120f8565b106111055760405162461bcd60e51b815260206004820152603960248201527f556e736166654d756c746943616c6c5661756c744d61737465723a20736f757260448201527f636520746f6b656e2062616c616e6365206d69736d617463680000000000000060648201526084016100dc565b6040516370a0823160e01b815230600482015283906001600160a01b038716906370a0823190602401602060405180830381865afa15801561114b573d6000803e3d6000fd5b505050506040513d601f19601f8201168201806040525081019061116f91906120f8565b116111e25760405162461bcd60e51b815260206004820152603e60248201527f556e736166654d756c746943616c6c5661756c744d61737465723a206465737460448201527f696e6174696f6e20746f6b656e2062616c616e6365206d69736d61746368000060648201526084016100dc565b6001546040516370a0823160e01b8152306004820152611267916001600160a01b0390811691908816906370a0823190602401602060405180830381865afa158015611232573d6000803e3d6000fd5b505050506040513d601f19601f8201168201806040525081019061125691906120f8565b6001600160a01b0388169190611333565b505050505050505050505050505050565b6112806112b6565b6001600160a01b0381166112aa57604051631e4fbdf760e01b8152600060048201526024016100dc565b6112b3816112e3565b50565b6000546001600160a01b03163314610aef5760405163118cdaa760e01b81523360048201526024016100dc565b600080546001600160a01b038381166001600160a01b0319831681178455604051919092169283917f8be0079c531659141344cd1fd0a4f28419497f9722a3daafe3b4186f6b6457e09190a35050565b6040516001600160a01b03838116602483015260448201839052610c2b91859182169063a9059cbb906064015b604051602081830303815290604052915060e01b6020820180516001600160e01b038381831617835250505050611512565b6040516001600160a01b038481166024830152838116604483015260648201839052610a839186918216906323b872dd90608401611360565b604051636eb1769f60e11b81523060048201526001600160a01b0383811660248301526000919085169063dd62ed3e90604401602060405180830381865afa15801561141b573d6000803e3d6000fd5b505050506040513d601f19601f8201168201806040525081019061143f91906120f8565b9050610a838484611450858561214a565b611575565b604051636eb1769f60e11b81523060048201526001600160a01b0383811660248301526000919085169063dd62ed3e90604401602060405180830381865afa1580156114a5573d6000803e3d6000fd5b505050506040513d601f19601f820116820180604052508101906114c991906120f8565b9050818110156115055760405163e570110f60e01b81526001600160a01b038416600482015260248101829052604481018390526064016100dc565b610a838484848403611575565b60006115276001600160a01b03841683611605565b9050805160001415801561154c57508080602001905181019061154a919061215d565b155b15610c2b57604051635274afe760e01b81526001600160a01b03841660048201526024016100dc565b604080516001600160a01b038416602482015260448082018490528251808303909101815260649091019091526020810180516001600160e01b031663095ea7b360e01b1790526115c6848261161c565b610a83576040516001600160a01b038481166024830152600060448301526115fb91869182169063095ea7b390606401611360565b610a838482611512565b6060611613838360006116c4565b90505b92915050565b6000806000846001600160a01b031684604051611639919061217a565b6000604051808303816000865af19150503d8060008114611676576040519150601f19603f3d011682016040523d82523d6000602084013e61167b565b606091505b50915091508180156116a55750805115806116a55750808060200190518101906116a5919061215d565b80156116bb57506000856001600160a01b03163b115b95945050505050565b6060814710156116e95760405163cd78605960e01b81523060048201526024016100dc565b600080856001600160a01b03168486604051611705919061217a565b60006040518083038185875af1925050503d8060008114611742576040519150601f19603f3d011682016040523d82523d6000602084013e611747565b606091505b5091509150611757868383611763565b925050505b9392505050565b60608261177857611773826117bf565b61175c565b815115801561178f57506001600160a01b0384163b155b156117b857604051639996b31560e01b81526001600160a01b03851660048201526024016100dc565b508061175c565b8051156117cf5780518082602001fd5b604051630a12f52160e11b815260040160405180910390fd5b6020808252602d908201527f4d756c746943616c6c5661756c744d61737465723a2063616c6c65722069732060408201526c3737ba103a34329030b236b4b760991b606082015260800190565b634e487b7160e01b600052604160045260246000fd5b60405160a081016001600160401b038111828210171561186d5761186d611835565b60405290565b60405160e081016001600160401b038111828210171561186d5761186d611835565b60405161010081016001600160401b038111828210171561186d5761186d611835565b604051601f8201601f191681016001600160401b03811182821017156118e0576118e0611835565b604052919050565b60006001600160401b0382111561190157611901611835565b5060051b60200190565b600082601f83011261191c57600080fd5b81356001600160401b0381111561193557611935611835565b611948601f8201601f19166020016118b8565b81815284602083860101111561195d57600080fd5b816020850160208301376000918101602001919091529392505050565b6001600160a01b03811681146112b357600080fd5b80151581146112b357600080fd5b600082601f8301126119ae57600080fd5b813560206119c36119be836118e8565b6118b8565b82815260059290921b840181019181810190868411156119e257600080fd5b8286015b84811015611a975780356001600160401b0380821115611a065760008081fd5b9088019060a0828b03601f1901811315611a205760008081fd5b611a2861184b565b87840135611a358161197a565b8082525060408085013589830152606080860135828401526080915081860135611a5e8161198f565b90830152918401359183831115611a755760008081fd5b611a838d8a8588010161190b565b9082015286525050509183019183016119e6565b509695505050505050565b60008060008060808587031215611ab857600080fd5b843560ff81168114611ac957600080fd5b935060208581013560068110611ade57600080fd5b935060408601356001600160401b0380821115611afa57600080fd5b818801915088601f830112611b0e57600080fd5b8135611b1c6119be826118e8565b81815260059190911b8301840190848101908b831115611b3b57600080fd5b8585015b83811015611b7357803585811115611b575760008081fd5b611b658e89838a010161190b565b845250918601918601611b3f565b50965050506060880135925080831115611b8c57600080fd5b5050611b9a8782880161199d565b91505092959194509250565b600060208284031215611bb857600080fd5b813561175c8161197a565b60008060408385031215611bd657600080fd5b8235611be18161197a565b91506020830135611bf18161197a565b809150509250929050565b600080600080600080600060c0888a031215611c1757600080fd5b8735611c228161197a565b96506020880135611c328161197a565b955060408801359450606088013593506080880135611c508161198f565b925060a08801356001600160401b0380821115611c6c57600080fd5b818a0191508a601f830112611c8057600080fd5b813581811115611c8f57600080fd5b8b6020828501011115611ca157600080fd5b60208301945080935050505092959891949750929550565b634e487b7160e01b600052602160045260246000fd5b634e487b7160e01b600052603260045260246000fd5b60005b83811015611d00578181015183820152602001611ce8565b50506000910152565b60008151808452611d21816020860160208601611ce5565b601f01601f19169290920160200192915050565b60ff84168152600060098410611d5b57634e487b7160e01b600052602160045260246000fd5b836020830152606060408301526116bb6060830184611d09565b8051611d808161197a565b919050565b600082601f830112611d9657600080fd5b81516020611da66119be836118e8565b8083825260208201915060208460051b870101935086841115611dc857600080fd5b602086015b84811015611a97578051611de08161197a565b8352918301918301611dcd565b600060e08284031215611dff57600080fd5b611e07611873565b9050611e1282611d75565b8152611e2060208301611d75565b6020820152611e3160408301611d75565b6040820152611e4260608301611d75565b6060820152611e5360808301611d75565b6080820152611e6460a08301611d75565b60a082015260c08201516001600160401b03811115611e8257600080fd5b611e8e84828501611d85565b60c08301525092915050565b600060e08284031215611eac57600080fd5b611eb4611873565b9050815181526020820151602082015260408201516040820152606082015160608201526080820151608082015260a082015160a082015260c082015160c082015292915050565b805160088110611d8057600080fd5b805160038110611d8057600080fd5b8051611d808161198f565b600060208284031215611f3757600080fd5b81516001600160401b0380821115611f4e57600080fd5b908301906101c08286031215611f6357600080fd5b611f6b611895565b825182811115611f7a57600080fd5b611f8687828601611ded565b825250611f968660208501611e9a565b6020820152611fa86101008401611efc565b6040820152611fba6101208401611f0b565b6060820152611fcc6101408401611f1a565b6080820152611fde6101608401611f1a565b60a0820152611ff06101808401611f1a565b60c08201526101a0929092015160e0830152509392505050565b60008151808452602080850194506020840160005b838110156120445781516001600160a01b03168752958201959082019060010161201f565b509495945050505050565b60008151808452602080850194506020840160005b8381101561204457815187529582019590820190600101612064565b60ff8416815260606020820152600061209c606083018561200a565b82810360408401526120ae818561204f565b9695505050505050565b60018060a01b0386168152846020820152836040820152821515606082015260a0608082015260006120ed60a0830184611d09565b979650505050505050565b60006020828403121561210a57600080fd5b5051919050565b634e487b7160e01b600052601160045260246000fd5b8181038181111561161657611616612111565b8183823760009101908152919050565b8082018082111561161657611616612111565b60006020828403121561216f57600080fd5b815161175c8161198f565b6000825161218c818460208701611ce5565b919091019291505056fea26469706673582212203a8d9cfd8b4a9499e3b01cc67388bcf6ca7ca66322351ffdc892f3cf992dbc7264736f6c63430008180033",
  "devdoc": {
    "errors": {
      "AddressEmptyCode(address)": [
        {
          "details": "There's no code at `target` (it is not a contract)."
        }
      ],
      "AddressInsufficientBalance(address)": [
        {
          "details": "The ETH balance of the account is not enough to perform the operation."
        }
      ],
      "FailedInnerCall()": [
        {
          "details": "A call to an address target failed. The target may have reverted."
        }
      ],
      "OwnableInvalidOwner(address)": [
        {
          "details": "The owner is not a valid owner account. (eg. `address(0)`)"
        }
      ],
      "OwnableUnauthorizedAccount(address)": [
        {
          "details": "The caller account is not authorized to perform an operation."
        }
      ],
      "SafeERC20FailedDecreaseAllowance(address,uint256,uint256)": [
        {
          "details": "Indicates a failed `decreaseAllowance` request."
        }
      ],
      "SafeERC20FailedOperation(address)": [
        {
          "details": "An operation with an ERC20 token failed."
        }
      ]
    },
    "kind": "dev",
    "methods": {
      "owner()": {
        "details": "Returns the address of the current owner."
      },
      "renounceOwnership()": {
        "details": "Leaves the contract without owner. It will not be possible to call `onlyOwner` functions. Can only be called by the current owner. NOTE: Renouncing ownership will leave the contract without an owner, thereby disabling any functionality that is only available to the owner."
      },
      "transferOwnership(address)": {
        "details": "Transfers ownership of the contract to a new account (`newOwner`). Can only be called by the current owner."
      }
    },
    "version": 1
  },
  "userdoc": {
    "kind": "user",
    "methods": {},
    "version": 1
  },
  "storageLayout": {
    "storage": [
      {
        "astId": 8,
        "contract": "contracts/vaults/theseus/UnsafeMultiCallVaultMaster.sol:UnsafeMultiCallVaultMaster",
        "label": "_owner",
        "offset": 0,
        "slot": "0",
        "type": "t_address"
      },
      {
        "astId": 3031,
        "contract": "contracts/vaults/theseus/UnsafeMultiCallVaultMaster.sol:UnsafeMultiCallVaultMaster",
        "label": "vault",
        "offset": 0,
        "slot": "1",
        "type": "t_address_payable"
      },
      {
        "astId": 3033,
        "contract": "contracts/vaults/theseus/UnsafeMultiCallVaultMaster.sol:UnsafeMultiCallVaultMaster",
        "label": "admin",
        "offset": 0,
        "slot": "2",
        "type": "t_address"
      }
    ],
    "types": {
      "t_address": {
        "encoding": "inplace",
        "label": "address",
        "numberOfBytes": "20"
      },
      "t_address_payable": {
        "encoding": "inplace",
        "label": "address payable",
        "numberOfBytes": "20"
      }
    }
  }
}