{
  "address": "0x565a953d1CdfdB7958099AEaF346e5516bc0D907",
  "abi": [
    {
      "inputs": [
        {
          "internalType": "address",
          "name": "_vault",
          "type": "address"
        },
        {
          "internalType": "address",
          "name": "_gmxPlugin",
          "type": "address"
        }
      ],
      "stateMutability": "nonpayable",
      "type": "constructor"
    },
    {
      "inputs": [
        {
          "internalType": "address",
          "name": "owner",
          "type": "address"
        }
      ],
      "name": "OwnableInvalidOwner",
      "type": "error"
    },
    {
      "inputs": [
        {
          "internalType": "address",
          "name": "account",
          "type": "address"
        }
      ],
      "name": "OwnableUnauthorizedAccount",
      "type": "error"
    },
    {
      "anonymous": false,
      "inputs": [
        {
          "indexed": false,
          "internalType": "bytes32",
          "name": "_key",
          "type": "bytes32"
        },
        {
          "indexed": false,
          "internalType": "enum IGMXCallbackContract.State",
          "name": "stateOption",
          "type": "uint8"
        }
      ],
      "name": "AddKey",
      "type": "event"
    },
    {
      "anonymous": false,
      "inputs": [
        {
          "indexed": false,
          "internalType": "bytes32",
          "name": "_withdrawalKey",
          "type": "bytes32"
        },
        {
          "indexed": false,
          "internalType": "uint256",
          "name": "_lpAmount",
          "type": "uint256"
        },
        {
          "indexed": false,
          "internalType": "address",
          "name": "_receiver",
          "type": "address"
        }
      ],
      "name": "AddWithdrawalData",
      "type": "event"
    },
    {
      "anonymous": false,
      "inputs": [
        {
          "indexed": false,
          "internalType": "bytes32",
          "name": "_key",
          "type": "bytes32"
        }
      ],
      "name": "AfterDepositCancellation",
      "type": "event"
    },
    {
      "anonymous": false,
      "inputs": [
        {
          "indexed": false,
          "internalType": "bytes32",
          "name": "_key",
          "type": "bytes32"
        }
      ],
      "name": "AfterDepositExecution",
      "type": "event"
    },
    {
      "anonymous": false,
      "inputs": [
        {
          "indexed": false,
          "internalType": "bytes32",
          "name": "_key",
          "type": "bytes32"
        }
      ],
      "name": "AfterOrderCancellation",
      "type": "event"
    },
    {
      "anonymous": false,
      "inputs": [
        {
          "indexed": false,
          "internalType": "bytes32",
          "name": "_key",
          "type": "bytes32"
        }
      ],
      "name": "AfterOrderExecution",
      "type": "event"
    },
    {
      "anonymous": false,
      "inputs": [
        {
          "indexed": false,
          "internalType": "bytes32",
          "name": "_key",
          "type": "bytes32"
        }
      ],
      "name": "AfterOrderFrozen",
      "type": "event"
    },
    {
      "anonymous": false,
      "inputs": [
        {
          "indexed": false,
          "internalType": "bytes32",
          "name": "_key",
          "type": "bytes32"
        }
      ],
      "name": "AfterWithdrawalCancellation",
      "type": "event"
    },
    {
      "anonymous": false,
      "inputs": [
        {
          "indexed": false,
          "internalType": "bytes32",
          "name": "_key",
          "type": "bytes32"
        }
      ],
      "name": "AfterWithdrawalExecution",
      "type": "event"
    },
    {
      "anonymous": false,
      "inputs": [
        {
          "indexed": true,
          "internalType": "address",
          "name": "previousOwner",
          "type": "address"
        },
        {
          "indexed": true,
          "internalType": "address",
          "name": "newOwner",
          "type": "address"
        }
      ],
      "name": "OwnershipTransferred",
      "type": "event"
    },
    {
      "anonymous": false,
      "inputs": [
        {
          "indexed": false,
          "internalType": "bytes32",
          "name": "_key",
          "type": "bytes32"
        },
        {
          "indexed": false,
          "internalType": "enum IGMXCallbackContract.State",
          "name": "_stateOption",
          "type": "uint8"
        }
      ],
      "name": "RemoveKey",
      "type": "event"
    },
    {
      "anonymous": false,
      "inputs": [
        {
          "indexed": false,
          "internalType": "address",
          "name": "_vault",
          "type": "address"
        },
        {
          "indexed": false,
          "internalType": "address",
          "name": "_gmxPlugin",
          "type": "address"
        }
      ],
      "name": "SetConfig",
      "type": "event"
    },
    {
      "anonymous": false,
      "inputs": [
        {
          "indexed": false,
          "internalType": "address",
          "name": "_depositHandler",
          "type": "address"
        },
        {
          "indexed": false,
          "internalType": "address",
          "name": "_withdrawalHandler",
          "type": "address"
        },
        {
          "indexed": false,
          "internalType": "address",
          "name": "_orderHandler",
          "type": "address"
        }
      ],
      "name": "SetHandler",
      "type": "event"
    },
    {
      "inputs": [
        {
          "internalType": "bytes32",
          "name": "_key",
          "type": "bytes32"
        },
        {
          "internalType": "enum IGMXCallbackContract.State",
          "name": "_stateOption",
          "type": "uint8"
        }
      ],
      "name": "addKey",
      "outputs": [],
      "stateMutability": "nonpayable",
      "type": "function"
    },
    {
      "inputs": [
        {
          "internalType": "bytes32",
          "name": "_withdrawalKey",
          "type": "bytes32"
        },
        {
          "internalType": "uint256",
          "name": "_lpAmount",
          "type": "uint256"
        },
        {
          "internalType": "address",
          "name": "_receiver",
          "type": "address"
        }
      ],
      "name": "addWithdrawalData",
      "outputs": [],
      "stateMutability": "nonpayable",
      "type": "function"
    },
    {
      "inputs": [
        {
          "internalType": "bytes32",
          "name": "key",
          "type": "bytes32"
        },
        {
          "components": [
            {
              "components": [
                {
                  "internalType": "address",
                  "name": "account",
                  "type": "address"
                },
                {
                  "internalType": "address",
                  "name": "receiver",
                  "type": "address"
                },
                {
                  "internalType": "address",
                  "name": "callbackContract",
                  "type": "address"
                },
                {
                  "internalType": "address",
                  "name": "uiFeeReceiver",
                  "type": "address"
                },
                {
                  "internalType": "address",
                  "name": "market",
                  "type": "address"
                },
                {
                  "internalType": "address",
                  "name": "initialLongToken",
                  "type": "address"
                },
                {
                  "internalType": "address",
                  "name": "initialShortToken",
                  "type": "address"
                },
                {
                  "internalType": "address[]",
                  "name": "longTokenSwapPath",
                  "type": "address[]"
                },
                {
                  "internalType": "address[]",
                  "name": "shortTokenSwapPath",
                  "type": "address[]"
                }
              ],
              "internalType": "struct Deposit.Addresses",
              "name": "addresses",
              "type": "tuple"
            },
            {
              "components": [
                {
                  "internalType": "uint256",
                  "name": "initialLongTokenAmount",
                  "type": "uint256"
                },
                {
                  "internalType": "uint256",
                  "name": "initialShortTokenAmount",
                  "type": "uint256"
                },
                {
                  "internalType": "uint256",
                  "name": "minMarketTokens",
                  "type": "uint256"
                },
                {
                  "internalType": "uint256",
                  "name": "updatedAtBlock",
                  "type": "uint256"
                },
                {
                  "internalType": "uint256",
                  "name": "updatedAtTime",
                  "type": "uint256"
                },
                {
                  "internalType": "uint256",
                  "name": "executionFee",
                  "type": "uint256"
                },
                {
                  "internalType": "uint256",
                  "name": "callbackGasLimit",
                  "type": "uint256"
                }
              ],
              "internalType": "struct Deposit.Numbers",
              "name": "numbers",
              "type": "tuple"
            },
            {
              "components": [
                {
                  "internalType": "bool",
                  "name": "shouldUnwrapNativeToken",
                  "type": "bool"
                }
              ],
              "internalType": "struct Deposit.Flags",
              "name": "flags",
              "type": "tuple"
            }
          ],
          "internalType": "struct Deposit.Props",
          "name": "deposit",
          "type": "tuple"
        },
        {
          "components": [
            {
              "components": [
                {
                  "components": [
                    {
                      "internalType": "string",
                      "name": "key",
                      "type": "string"
                    },
                    {
                      "internalType": "address",
                      "name": "value",
                      "type": "address"
                    }
                  ],
                  "internalType": "struct EventUtils.AddressKeyValue[]",
                  "name": "items",
                  "type": "tuple[]"
                },
                {
                  "components": [
                    {
                      "internalType": "string",
                      "name": "key",
                      "type": "string"
                    },
                    {
                      "internalType": "address[]",
                      "name": "value",
                      "type": "address[]"
                    }
                  ],
                  "internalType": "struct EventUtils.AddressArrayKeyValue[]",
                  "name": "arrayItems",
                  "type": "tuple[]"
                }
              ],
              "internalType": "struct EventUtils.AddressItems",
              "name": "addressItems",
              "type": "tuple"
            },
            {
              "components": [
                {
                  "components": [
                    {
                      "internalType": "string",
                      "name": "key",
                      "type": "string"
                    },
                    {
                      "internalType": "uint256",
                      "name": "value",
                      "type": "uint256"
                    }
                  ],
                  "internalType": "struct EventUtils.UintKeyValue[]",
                  "name": "items",
                  "type": "tuple[]"
                },
                {
                  "components": [
                    {
                      "internalType": "string",
                      "name": "key",
                      "type": "string"
                    },
                    {
                      "internalType": "uint256[]",
                      "name": "value",
                      "type": "uint256[]"
                    }
                  ],
                  "internalType": "struct EventUtils.UintArrayKeyValue[]",
                  "name": "arrayItems",
                  "type": "tuple[]"
                }
              ],
              "internalType": "struct EventUtils.UintItems",
              "name": "uintItems",
              "type": "tuple"
            },
            {
              "components": [
                {
                  "components": [
                    {
                      "internalType": "string",
                      "name": "key",
                      "type": "string"
                    },
                    {
                      "internalType": "int256",
                      "name": "value",
                      "type": "int256"
                    }
                  ],
                  "internalType": "struct EventUtils.IntKeyValue[]",
                  "name": "items",
                  "type": "tuple[]"
                },
                {
                  "components": [
                    {
                      "internalType": "string",
                      "name": "key",
                      "type": "string"
                    },
                    {
                      "internalType": "int256[]",
                      "name": "value",
                      "type": "int256[]"
                    }
                  ],
                  "internalType": "struct EventUtils.IntArrayKeyValue[]",
                  "name": "arrayItems",
                  "type": "tuple[]"
                }
              ],
              "internalType": "struct EventUtils.IntItems",
              "name": "intItems",
              "type": "tuple"
            },
            {
              "components": [
                {
                  "components": [
                    {
                      "internalType": "string",
                      "name": "key",
                      "type": "string"
                    },
                    {
                      "internalType": "bool",
                      "name": "value",
                      "type": "bool"
                    }
                  ],
                  "internalType": "struct EventUtils.BoolKeyValue[]",
                  "name": "items",
                  "type": "tuple[]"
                },
                {
                  "components": [
                    {
                      "internalType": "string",
                      "name": "key",
                      "type": "string"
                    },
                    {
                      "internalType": "bool[]",
                      "name": "value",
                      "type": "bool[]"
                    }
                  ],
                  "internalType": "struct EventUtils.BoolArrayKeyValue[]",
                  "name": "arrayItems",
                  "type": "tuple[]"
                }
              ],
              "internalType": "struct EventUtils.BoolItems",
              "name": "boolItems",
              "type": "tuple"
            },
            {
              "components": [
                {
                  "components": [
                    {
                      "internalType": "string",
                      "name": "key",
                      "type": "string"
                    },
                    {
                      "internalType": "bytes32",
                      "name": "value",
                      "type": "bytes32"
                    }
                  ],
                  "internalType": "struct EventUtils.Bytes32KeyValue[]",
                  "name": "items",
                  "type": "tuple[]"
                },
                {
                  "components": [
                    {
                      "internalType": "string",
                      "name": "key",
                      "type": "string"
                    },
                    {
                      "internalType": "bytes32[]",
                      "name": "value",
                      "type": "bytes32[]"
                    }
                  ],
                  "internalType": "struct EventUtils.Bytes32ArrayKeyValue[]",
                  "name": "arrayItems",
                  "type": "tuple[]"
                }
              ],
              "internalType": "struct EventUtils.Bytes32Items",
              "name": "bytes32Items",
              "type": "tuple"
            },
            {
              "components": [
                {
                  "components": [
                    {
                      "internalType": "string",
                      "name": "key",
                      "type": "string"
                    },
                    {
                      "internalType": "bytes",
                      "name": "value",
                      "type": "bytes"
                    }
                  ],
                  "internalType": "struct EventUtils.BytesKeyValue[]",
                  "name": "items",
                  "type": "tuple[]"
                },
                {
                  "components": [
                    {
                      "internalType": "string",
                      "name": "key",
                      "type": "string"
                    },
                    {
                      "internalType": "bytes[]",
                      "name": "value",
                      "type": "bytes[]"
                    }
                  ],
                  "internalType": "struct EventUtils.BytesArrayKeyValue[]",
                  "name": "arrayItems",
                  "type": "tuple[]"
                }
              ],
              "internalType": "struct EventUtils.BytesItems",
              "name": "bytesItems",
              "type": "tuple"
            },
            {
              "components": [
                {
                  "components": [
                    {
                      "internalType": "string",
                      "name": "key",
                      "type": "string"
                    },
                    {
                      "internalType": "string",
                      "name": "value",
                      "type": "string"
                    }
                  ],
                  "internalType": "struct EventUtils.StringKeyValue[]",
                  "name": "items",
                  "type": "tuple[]"
                },
                {
                  "components": [
                    {
                      "internalType": "string",
                      "name": "key",
                      "type": "string"
                    },
                    {
                      "internalType": "string[]",
                      "name": "value",
                      "type": "string[]"
                    }
                  ],
                  "internalType": "struct EventUtils.StringArrayKeyValue[]",
                  "name": "arrayItems",
                  "type": "tuple[]"
                }
              ],
              "internalType": "struct EventUtils.StringItems",
              "name": "stringItems",
              "type": "tuple"
            }
          ],
          "internalType": "struct EventUtils.EventLogData",
          "name": "eventData",
          "type": "tuple"
        }
      ],
      "name": "afterDepositCancellation",
      "outputs": [],
      "stateMutability": "nonpayable",
      "type": "function"
    },
    {
      "inputs": [
        {
          "internalType": "bytes32",
          "name": "key",
          "type": "bytes32"
        },
        {
          "components": [
            {
              "components": [
                {
                  "internalType": "address",
                  "name": "account",
                  "type": "address"
                },
                {
                  "internalType": "address",
                  "name": "receiver",
                  "type": "address"
                },
                {
                  "internalType": "address",
                  "name": "callbackContract",
                  "type": "address"
                },
                {
                  "internalType": "address",
                  "name": "uiFeeReceiver",
                  "type": "address"
                },
                {
                  "internalType": "address",
                  "name": "market",
                  "type": "address"
                },
                {
                  "internalType": "address",
                  "name": "initialLongToken",
                  "type": "address"
                },
                {
                  "internalType": "address",
                  "name": "initialShortToken",
                  "type": "address"
                },
                {
                  "internalType": "address[]",
                  "name": "longTokenSwapPath",
                  "type": "address[]"
                },
                {
                  "internalType": "address[]",
                  "name": "shortTokenSwapPath",
                  "type": "address[]"
                }
              ],
              "internalType": "struct Deposit.Addresses",
              "name": "addresses",
              "type": "tuple"
            },
            {
              "components": [
                {
                  "internalType": "uint256",
                  "name": "initialLongTokenAmount",
                  "type": "uint256"
                },
                {
                  "internalType": "uint256",
                  "name": "initialShortTokenAmount",
                  "type": "uint256"
                },
                {
                  "internalType": "uint256",
                  "name": "minMarketTokens",
                  "type": "uint256"
                },
                {
                  "internalType": "uint256",
                  "name": "updatedAtBlock",
                  "type": "uint256"
                },
                {
                  "internalType": "uint256",
                  "name": "updatedAtTime",
                  "type": "uint256"
                },
                {
                  "internalType": "uint256",
                  "name": "executionFee",
                  "type": "uint256"
                },
                {
                  "internalType": "uint256",
                  "name": "callbackGasLimit",
                  "type": "uint256"
                }
              ],
              "internalType": "struct Deposit.Numbers",
              "name": "numbers",
              "type": "tuple"
            },
            {
              "components": [
                {
                  "internalType": "bool",
                  "name": "shouldUnwrapNativeToken",
                  "type": "bool"
                }
              ],
              "internalType": "struct Deposit.Flags",
              "name": "flags",
              "type": "tuple"
            }
          ],
          "internalType": "struct Deposit.Props",
          "name": "deposit",
          "type": "tuple"
        },
        {
          "components": [
            {
              "components": [
                {
                  "components": [
                    {
                      "internalType": "string",
                      "name": "key",
                      "type": "string"
                    },
                    {
                      "internalType": "address",
                      "name": "value",
                      "type": "address"
                    }
                  ],
                  "internalType": "struct EventUtils.AddressKeyValue[]",
                  "name": "items",
                  "type": "tuple[]"
                },
                {
                  "components": [
                    {
                      "internalType": "string",
                      "name": "key",
                      "type": "string"
                    },
                    {
                      "internalType": "address[]",
                      "name": "value",
                      "type": "address[]"
                    }
                  ],
                  "internalType": "struct EventUtils.AddressArrayKeyValue[]",
                  "name": "arrayItems",
                  "type": "tuple[]"
                }
              ],
              "internalType": "struct EventUtils.AddressItems",
              "name": "addressItems",
              "type": "tuple"
            },
            {
              "components": [
                {
                  "components": [
                    {
                      "internalType": "string",
                      "name": "key",
                      "type": "string"
                    },
                    {
                      "internalType": "uint256",
                      "name": "value",
                      "type": "uint256"
                    }
                  ],
                  "internalType": "struct EventUtils.UintKeyValue[]",
                  "name": "items",
                  "type": "tuple[]"
                },
                {
                  "components": [
                    {
                      "internalType": "string",
                      "name": "key",
                      "type": "string"
                    },
                    {
                      "internalType": "uint256[]",
                      "name": "value",
                      "type": "uint256[]"
                    }
                  ],
                  "internalType": "struct EventUtils.UintArrayKeyValue[]",
                  "name": "arrayItems",
                  "type": "tuple[]"
                }
              ],
              "internalType": "struct EventUtils.UintItems",
              "name": "uintItems",
              "type": "tuple"
            },
            {
              "components": [
                {
                  "components": [
                    {
                      "internalType": "string",
                      "name": "key",
                      "type": "string"
                    },
                    {
                      "internalType": "int256",
                      "name": "value",
                      "type": "int256"
                    }
                  ],
                  "internalType": "struct EventUtils.IntKeyValue[]",
                  "name": "items",
                  "type": "tuple[]"
                },
                {
                  "components": [
                    {
                      "internalType": "string",
                      "name": "key",
                      "type": "string"
                    },
                    {
                      "internalType": "int256[]",
                      "name": "value",
                      "type": "int256[]"
                    }
                  ],
                  "internalType": "struct EventUtils.IntArrayKeyValue[]",
                  "name": "arrayItems",
                  "type": "tuple[]"
                }
              ],
              "internalType": "struct EventUtils.IntItems",
              "name": "intItems",
              "type": "tuple"
            },
            {
              "components": [
                {
                  "components": [
                    {
                      "internalType": "string",
                      "name": "key",
                      "type": "string"
                    },
                    {
                      "internalType": "bool",
                      "name": "value",
                      "type": "bool"
                    }
                  ],
                  "internalType": "struct EventUtils.BoolKeyValue[]",
                  "name": "items",
                  "type": "tuple[]"
                },
                {
                  "components": [
                    {
                      "internalType": "string",
                      "name": "key",
                      "type": "string"
                    },
                    {
                      "internalType": "bool[]",
                      "name": "value",
                      "type": "bool[]"
                    }
                  ],
                  "internalType": "struct EventUtils.BoolArrayKeyValue[]",
                  "name": "arrayItems",
                  "type": "tuple[]"
                }
              ],
              "internalType": "struct EventUtils.BoolItems",
              "name": "boolItems",
              "type": "tuple"
            },
            {
              "components": [
                {
                  "components": [
                    {
                      "internalType": "string",
                      "name": "key",
                      "type": "string"
                    },
                    {
                      "internalType": "bytes32",
                      "name": "value",
                      "type": "bytes32"
                    }
                  ],
                  "internalType": "struct EventUtils.Bytes32KeyValue[]",
                  "name": "items",
                  "type": "tuple[]"
                },
                {
                  "components": [
                    {
                      "internalType": "string",
                      "name": "key",
                      "type": "string"
                    },
                    {
                      "internalType": "bytes32[]",
                      "name": "value",
                      "type": "bytes32[]"
                    }
                  ],
                  "internalType": "struct EventUtils.Bytes32ArrayKeyValue[]",
                  "name": "arrayItems",
                  "type": "tuple[]"
                }
              ],
              "internalType": "struct EventUtils.Bytes32Items",
              "name": "bytes32Items",
              "type": "tuple"
            },
            {
              "components": [
                {
                  "components": [
                    {
                      "internalType": "string",
                      "name": "key",
                      "type": "string"
                    },
                    {
                      "internalType": "bytes",
                      "name": "value",
                      "type": "bytes"
                    }
                  ],
                  "internalType": "struct EventUtils.BytesKeyValue[]",
                  "name": "items",
                  "type": "tuple[]"
                },
                {
                  "components": [
                    {
                      "internalType": "string",
                      "name": "key",
                      "type": "string"
                    },
                    {
                      "internalType": "bytes[]",
                      "name": "value",
                      "type": "bytes[]"
                    }
                  ],
                  "internalType": "struct EventUtils.BytesArrayKeyValue[]",
                  "name": "arrayItems",
                  "type": "tuple[]"
                }
              ],
              "internalType": "struct EventUtils.BytesItems",
              "name": "bytesItems",
              "type": "tuple"
            },
            {
              "components": [
                {
                  "components": [
                    {
                      "internalType": "string",
                      "name": "key",
                      "type": "string"
                    },
                    {
                      "internalType": "string",
                      "name": "value",
                      "type": "string"
                    }
                  ],
                  "internalType": "struct EventUtils.StringKeyValue[]",
                  "name": "items",
                  "type": "tuple[]"
                },
                {
                  "components": [
                    {
                      "internalType": "string",
                      "name": "key",
                      "type": "string"
                    },
                    {
                      "internalType": "string[]",
                      "name": "value",
                      "type": "string[]"
                    }
                  ],
                  "internalType": "struct EventUtils.StringArrayKeyValue[]",
                  "name": "arrayItems",
                  "type": "tuple[]"
                }
              ],
              "internalType": "struct EventUtils.StringItems",
              "name": "stringItems",
              "type": "tuple"
            }
          ],
          "internalType": "struct EventUtils.EventLogData",
          "name": "eventData",
          "type": "tuple"
        }
      ],
      "name": "afterDepositExecution",
      "outputs": [],
      "stateMutability": "nonpayable",
      "type": "function"
    },
    {
      "inputs": [
        {
          "internalType": "bytes32",
          "name": "key",
          "type": "bytes32"
        },
        {
          "components": [
            {
              "components": [
                {
                  "internalType": "address",
                  "name": "account",
                  "type": "address"
                },
                {
                  "internalType": "address",
                  "name": "receiver",
                  "type": "address"
                },
                {
                  "internalType": "address",
                  "name": "cancellationReceiver",
                  "type": "address"
                },
                {
                  "internalType": "address",
                  "name": "callbackContract",
                  "type": "address"
                },
                {
                  "internalType": "address",
                  "name": "uiFeeReceiver",
                  "type": "address"
                },
                {
                  "internalType": "address",
                  "name": "market",
                  "type": "address"
                },
                {
                  "internalType": "address",
                  "name": "initialCollateralToken",
                  "type": "address"
                },
                {
                  "internalType": "address[]",
                  "name": "swapPath",
                  "type": "address[]"
                }
              ],
              "internalType": "struct Order.Addresses",
              "name": "addresses",
              "type": "tuple"
            },
            {
              "components": [
                {
                  "internalType": "enum Order.OrderType",
                  "name": "orderType",
                  "type": "uint8"
                },
                {
                  "internalType": "enum Order.DecreasePositionSwapType",
                  "name": "decreasePositionSwapType",
                  "type": "uint8"
                },
                {
                  "internalType": "uint256",
                  "name": "sizeDeltaUsd",
                  "type": "uint256"
                },
                {
                  "internalType": "uint256",
                  "name": "initialCollateralDeltaAmount",
                  "type": "uint256"
                },
                {
                  "internalType": "uint256",
                  "name": "triggerPrice",
                  "type": "uint256"
                },
                {
                  "internalType": "uint256",
                  "name": "acceptablePrice",
                  "type": "uint256"
                },
                {
                  "internalType": "uint256",
                  "name": "executionFee",
                  "type": "uint256"
                },
                {
                  "internalType": "uint256",
                  "name": "callbackGasLimit",
                  "type": "uint256"
                },
                {
                  "internalType": "uint256",
                  "name": "minOutputAmount",
                  "type": "uint256"
                },
                {
                  "internalType": "uint256",
                  "name": "updatedAtBlock",
                  "type": "uint256"
                },
                {
                  "internalType": "uint256",
                  "name": "updatedAtTime",
                  "type": "uint256"
                }
              ],
              "internalType": "struct Order.Numbers",
              "name": "numbers",
              "type": "tuple"
            },
            {
              "components": [
                {
                  "internalType": "bool",
                  "name": "isLong",
                  "type": "bool"
                },
                {
                  "internalType": "bool",
                  "name": "shouldUnwrapNativeToken",
                  "type": "bool"
                },
                {
                  "internalType": "bool",
                  "name": "isFrozen",
                  "type": "bool"
                },
                {
                  "internalType": "bool",
                  "name": "autoCancel",
                  "type": "bool"
                }
              ],
              "internalType": "struct Order.Flags",
              "name": "flags",
              "type": "tuple"
            }
          ],
          "internalType": "struct Order.Props",
          "name": "order",
          "type": "tuple"
        },
        {
          "components": [
            {
              "components": [
                {
                  "components": [
                    {
                      "internalType": "string",
                      "name": "key",
                      "type": "string"
                    },
                    {
                      "internalType": "address",
                      "name": "value",
                      "type": "address"
                    }
                  ],
                  "internalType": "struct EventUtils.AddressKeyValue[]",
                  "name": "items",
                  "type": "tuple[]"
                },
                {
                  "components": [
                    {
                      "internalType": "string",
                      "name": "key",
                      "type": "string"
                    },
                    {
                      "internalType": "address[]",
                      "name": "value",
                      "type": "address[]"
                    }
                  ],
                  "internalType": "struct EventUtils.AddressArrayKeyValue[]",
                  "name": "arrayItems",
                  "type": "tuple[]"
                }
              ],
              "internalType": "struct EventUtils.AddressItems",
              "name": "addressItems",
              "type": "tuple"
            },
            {
              "components": [
                {
                  "components": [
                    {
                      "internalType": "string",
                      "name": "key",
                      "type": "string"
                    },
                    {
                      "internalType": "uint256",
                      "name": "value",
                      "type": "uint256"
                    }
                  ],
                  "internalType": "struct EventUtils.UintKeyValue[]",
                  "name": "items",
                  "type": "tuple[]"
                },
                {
                  "components": [
                    {
                      "internalType": "string",
                      "name": "key",
                      "type": "string"
                    },
                    {
                      "internalType": "uint256[]",
                      "name": "value",
                      "type": "uint256[]"
                    }
                  ],
                  "internalType": "struct EventUtils.UintArrayKeyValue[]",
                  "name": "arrayItems",
                  "type": "tuple[]"
                }
              ],
              "internalType": "struct EventUtils.UintItems",
              "name": "uintItems",
              "type": "tuple"
            },
            {
              "components": [
                {
                  "components": [
                    {
                      "internalType": "string",
                      "name": "key",
                      "type": "string"
                    },
                    {
                      "internalType": "int256",
                      "name": "value",
                      "type": "int256"
                    }
                  ],
                  "internalType": "struct EventUtils.IntKeyValue[]",
                  "name": "items",
                  "type": "tuple[]"
                },
                {
                  "components": [
                    {
                      "internalType": "string",
                      "name": "key",
                      "type": "string"
                    },
                    {
                      "internalType": "int256[]",
                      "name": "value",
                      "type": "int256[]"
                    }
                  ],
                  "internalType": "struct EventUtils.IntArrayKeyValue[]",
                  "name": "arrayItems",
                  "type": "tuple[]"
                }
              ],
              "internalType": "struct EventUtils.IntItems",
              "name": "intItems",
              "type": "tuple"
            },
            {
              "components": [
                {
                  "components": [
                    {
                      "internalType": "string",
                      "name": "key",
                      "type": "string"
                    },
                    {
                      "internalType": "bool",
                      "name": "value",
                      "type": "bool"
                    }
                  ],
                  "internalType": "struct EventUtils.BoolKeyValue[]",
                  "name": "items",
                  "type": "tuple[]"
                },
                {
                  "components": [
                    {
                      "internalType": "string",
                      "name": "key",
                      "type": "string"
                    },
                    {
                      "internalType": "bool[]",
                      "name": "value",
                      "type": "bool[]"
                    }
                  ],
                  "internalType": "struct EventUtils.BoolArrayKeyValue[]",
                  "name": "arrayItems",
                  "type": "tuple[]"
                }
              ],
              "internalType": "struct EventUtils.BoolItems",
              "name": "boolItems",
              "type": "tuple"
            },
            {
              "components": [
                {
                  "components": [
                    {
                      "internalType": "string",
                      "name": "key",
                      "type": "string"
                    },
                    {
                      "internalType": "bytes32",
                      "name": "value",
                      "type": "bytes32"
                    }
                  ],
                  "internalType": "struct EventUtils.Bytes32KeyValue[]",
                  "name": "items",
                  "type": "tuple[]"
                },
                {
                  "components": [
                    {
                      "internalType": "string",
                      "name": "key",
                      "type": "string"
                    },
                    {
                      "internalType": "bytes32[]",
                      "name": "value",
                      "type": "bytes32[]"
                    }
                  ],
                  "internalType": "struct EventUtils.Bytes32ArrayKeyValue[]",
                  "name": "arrayItems",
                  "type": "tuple[]"
                }
              ],
              "internalType": "struct EventUtils.Bytes32Items",
              "name": "bytes32Items",
              "type": "tuple"
            },
            {
              "components": [
                {
                  "components": [
                    {
                      "internalType": "string",
                      "name": "key",
                      "type": "string"
                    },
                    {
                      "internalType": "bytes",
                      "name": "value",
                      "type": "bytes"
                    }
                  ],
                  "internalType": "struct EventUtils.BytesKeyValue[]",
                  "name": "items",
                  "type": "tuple[]"
                },
                {
                  "components": [
                    {
                      "internalType": "string",
                      "name": "key",
                      "type": "string"
                    },
                    {
                      "internalType": "bytes[]",
                      "name": "value",
                      "type": "bytes[]"
                    }
                  ],
                  "internalType": "struct EventUtils.BytesArrayKeyValue[]",
                  "name": "arrayItems",
                  "type": "tuple[]"
                }
              ],
              "internalType": "struct EventUtils.BytesItems",
              "name": "bytesItems",
              "type": "tuple"
            },
            {
              "components": [
                {
                  "components": [
                    {
                      "internalType": "string",
                      "name": "key",
                      "type": "string"
                    },
                    {
                      "internalType": "string",
                      "name": "value",
                      "type": "string"
                    }
                  ],
                  "internalType": "struct EventUtils.StringKeyValue[]",
                  "name": "items",
                  "type": "tuple[]"
                },
                {
                  "components": [
                    {
                      "internalType": "string",
                      "name": "key",
                      "type": "string"
                    },
                    {
                      "internalType": "string[]",
                      "name": "value",
                      "type": "string[]"
                    }
                  ],
                  "internalType": "struct EventUtils.StringArrayKeyValue[]",
                  "name": "arrayItems",
                  "type": "tuple[]"
                }
              ],
              "internalType": "struct EventUtils.StringItems",
              "name": "stringItems",
              "type": "tuple"
            }
          ],
          "internalType": "struct EventUtils.EventLogData",
          "name": "eventData",
          "type": "tuple"
        }
      ],
      "name": "afterOrderCancellation",
      "outputs": [],
      "stateMutability": "nonpayable",
      "type": "function"
    },
    {
      "inputs": [
        {
          "internalType": "bytes32",
          "name": "key",
          "type": "bytes32"
        },
        {
          "components": [
            {
              "components": [
                {
                  "internalType": "address",
                  "name": "account",
                  "type": "address"
                },
                {
                  "internalType": "address",
                  "name": "receiver",
                  "type": "address"
                },
                {
                  "internalType": "address",
                  "name": "cancellationReceiver",
                  "type": "address"
                },
                {
                  "internalType": "address",
                  "name": "callbackContract",
                  "type": "address"
                },
                {
                  "internalType": "address",
                  "name": "uiFeeReceiver",
                  "type": "address"
                },
                {
                  "internalType": "address",
                  "name": "market",
                  "type": "address"
                },
                {
                  "internalType": "address",
                  "name": "initialCollateralToken",
                  "type": "address"
                },
                {
                  "internalType": "address[]",
                  "name": "swapPath",
                  "type": "address[]"
                }
              ],
              "internalType": "struct Order.Addresses",
              "name": "addresses",
              "type": "tuple"
            },
            {
              "components": [
                {
                  "internalType": "enum Order.OrderType",
                  "name": "orderType",
                  "type": "uint8"
                },
                {
                  "internalType": "enum Order.DecreasePositionSwapType",
                  "name": "decreasePositionSwapType",
                  "type": "uint8"
                },
                {
                  "internalType": "uint256",
                  "name": "sizeDeltaUsd",
                  "type": "uint256"
                },
                {
                  "internalType": "uint256",
                  "name": "initialCollateralDeltaAmount",
                  "type": "uint256"
                },
                {
                  "internalType": "uint256",
                  "name": "triggerPrice",
                  "type": "uint256"
                },
                {
                  "internalType": "uint256",
                  "name": "acceptablePrice",
                  "type": "uint256"
                },
                {
                  "internalType": "uint256",
                  "name": "executionFee",
                  "type": "uint256"
                },
                {
                  "internalType": "uint256",
                  "name": "callbackGasLimit",
                  "type": "uint256"
                },
                {
                  "internalType": "uint256",
                  "name": "minOutputAmount",
                  "type": "uint256"
                },
                {
                  "internalType": "uint256",
                  "name": "updatedAtBlock",
                  "type": "uint256"
                },
                {
                  "internalType": "uint256",
                  "name": "updatedAtTime",
                  "type": "uint256"
                }
              ],
              "internalType": "struct Order.Numbers",
              "name": "numbers",
              "type": "tuple"
            },
            {
              "components": [
                {
                  "internalType": "bool",
                  "name": "isLong",
                  "type": "bool"
                },
                {
                  "internalType": "bool",
                  "name": "shouldUnwrapNativeToken",
                  "type": "bool"
                },
                {
                  "internalType": "bool",
                  "name": "isFrozen",
                  "type": "bool"
                },
                {
                  "internalType": "bool",
                  "name": "autoCancel",
                  "type": "bool"
                }
              ],
              "internalType": "struct Order.Flags",
              "name": "flags",
              "type": "tuple"
            }
          ],
          "internalType": "struct Order.Props",
          "name": "order",
          "type": "tuple"
        },
        {
          "components": [
            {
              "components": [
                {
                  "components": [
                    {
                      "internalType": "string",
                      "name": "key",
                      "type": "string"
                    },
                    {
                      "internalType": "address",
                      "name": "value",
                      "type": "address"
                    }
                  ],
                  "internalType": "struct EventUtils.AddressKeyValue[]",
                  "name": "items",
                  "type": "tuple[]"
                },
                {
                  "components": [
                    {
                      "internalType": "string",
                      "name": "key",
                      "type": "string"
                    },
                    {
                      "internalType": "address[]",
                      "name": "value",
                      "type": "address[]"
                    }
                  ],
                  "internalType": "struct EventUtils.AddressArrayKeyValue[]",
                  "name": "arrayItems",
                  "type": "tuple[]"
                }
              ],
              "internalType": "struct EventUtils.AddressItems",
              "name": "addressItems",
              "type": "tuple"
            },
            {
              "components": [
                {
                  "components": [
                    {
                      "internalType": "string",
                      "name": "key",
                      "type": "string"
                    },
                    {
                      "internalType": "uint256",
                      "name": "value",
                      "type": "uint256"
                    }
                  ],
                  "internalType": "struct EventUtils.UintKeyValue[]",
                  "name": "items",
                  "type": "tuple[]"
                },
                {
                  "components": [
                    {
                      "internalType": "string",
                      "name": "key",
                      "type": "string"
                    },
                    {
                      "internalType": "uint256[]",
                      "name": "value",
                      "type": "uint256[]"
                    }
                  ],
                  "internalType": "struct EventUtils.UintArrayKeyValue[]",
                  "name": "arrayItems",
                  "type": "tuple[]"
                }
              ],
              "internalType": "struct EventUtils.UintItems",
              "name": "uintItems",
              "type": "tuple"
            },
            {
              "components": [
                {
                  "components": [
                    {
                      "internalType": "string",
                      "name": "key",
                      "type": "string"
                    },
                    {
                      "internalType": "int256",
                      "name": "value",
                      "type": "int256"
                    }
                  ],
                  "internalType": "struct EventUtils.IntKeyValue[]",
                  "name": "items",
                  "type": "tuple[]"
                },
                {
                  "components": [
                    {
                      "internalType": "string",
                      "name": "key",
                      "type": "string"
                    },
                    {
                      "internalType": "int256[]",
                      "name": "value",
                      "type": "int256[]"
                    }
                  ],
                  "internalType": "struct EventUtils.IntArrayKeyValue[]",
                  "name": "arrayItems",
                  "type": "tuple[]"
                }
              ],
              "internalType": "struct EventUtils.IntItems",
              "name": "intItems",
              "type": "tuple"
            },
            {
              "components": [
                {
                  "components": [
                    {
                      "internalType": "string",
                      "name": "key",
                      "type": "string"
                    },
                    {
                      "internalType": "bool",
                      "name": "value",
                      "type": "bool"
                    }
                  ],
                  "internalType": "struct EventUtils.BoolKeyValue[]",
                  "name": "items",
                  "type": "tuple[]"
                },
                {
                  "components": [
                    {
                      "internalType": "string",
                      "name": "key",
                      "type": "string"
                    },
                    {
                      "internalType": "bool[]",
                      "name": "value",
                      "type": "bool[]"
                    }
                  ],
                  "internalType": "struct EventUtils.BoolArrayKeyValue[]",
                  "name": "arrayItems",
                  "type": "tuple[]"
                }
              ],
              "internalType": "struct EventUtils.BoolItems",
              "name": "boolItems",
              "type": "tuple"
            },
            {
              "components": [
                {
                  "components": [
                    {
                      "internalType": "string",
                      "name": "key",
                      "type": "string"
                    },
                    {
                      "internalType": "bytes32",
                      "name": "value",
                      "type": "bytes32"
                    }
                  ],
                  "internalType": "struct EventUtils.Bytes32KeyValue[]",
                  "name": "items",
                  "type": "tuple[]"
                },
                {
                  "components": [
                    {
                      "internalType": "string",
                      "name": "key",
                      "type": "string"
                    },
                    {
                      "internalType": "bytes32[]",
                      "name": "value",
                      "type": "bytes32[]"
                    }
                  ],
                  "internalType": "struct EventUtils.Bytes32ArrayKeyValue[]",
                  "name": "arrayItems",
                  "type": "tuple[]"
                }
              ],
              "internalType": "struct EventUtils.Bytes32Items",
              "name": "bytes32Items",
              "type": "tuple"
            },
            {
              "components": [
                {
                  "components": [
                    {
                      "internalType": "string",
                      "name": "key",
                      "type": "string"
                    },
                    {
                      "internalType": "bytes",
                      "name": "value",
                      "type": "bytes"
                    }
                  ],
                  "internalType": "struct EventUtils.BytesKeyValue[]",
                  "name": "items",
                  "type": "tuple[]"
                },
                {
                  "components": [
                    {
                      "internalType": "string",
                      "name": "key",
                      "type": "string"
                    },
                    {
                      "internalType": "bytes[]",
                      "name": "value",
                      "type": "bytes[]"
                    }
                  ],
                  "internalType": "struct EventUtils.BytesArrayKeyValue[]",
                  "name": "arrayItems",
                  "type": "tuple[]"
                }
              ],
              "internalType": "struct EventUtils.BytesItems",
              "name": "bytesItems",
              "type": "tuple"
            },
            {
              "components": [
                {
                  "components": [
                    {
                      "internalType": "string",
                      "name": "key",
                      "type": "string"
                    },
                    {
                      "internalType": "string",
                      "name": "value",
                      "type": "string"
                    }
                  ],
                  "internalType": "struct EventUtils.StringKeyValue[]",
                  "name": "items",
                  "type": "tuple[]"
                },
                {
                  "components": [
                    {
                      "internalType": "string",
                      "name": "key",
                      "type": "string"
                    },
                    {
                      "internalType": "string[]",
                      "name": "value",
                      "type": "string[]"
                    }
                  ],
                  "internalType": "struct EventUtils.StringArrayKeyValue[]",
                  "name": "arrayItems",
                  "type": "tuple[]"
                }
              ],
              "internalType": "struct EventUtils.StringItems",
              "name": "stringItems",
              "type": "tuple"
            }
          ],
          "internalType": "struct EventUtils.EventLogData",
          "name": "eventData",
          "type": "tuple"
        }
      ],
      "name": "afterOrderExecution",
      "outputs": [],
      "stateMutability": "nonpayable",
      "type": "function"
    },
    {
      "inputs": [
        {
          "internalType": "bytes32",
          "name": "key",
          "type": "bytes32"
        },
        {
          "components": [
            {
              "components": [
                {
                  "internalType": "address",
                  "name": "account",
                  "type": "address"
                },
                {
                  "internalType": "address",
                  "name": "receiver",
                  "type": "address"
                },
                {
                  "internalType": "address",
                  "name": "cancellationReceiver",
                  "type": "address"
                },
                {
                  "internalType": "address",
                  "name": "callbackContract",
                  "type": "address"
                },
                {
                  "internalType": "address",
                  "name": "uiFeeReceiver",
                  "type": "address"
                },
                {
                  "internalType": "address",
                  "name": "market",
                  "type": "address"
                },
                {
                  "internalType": "address",
                  "name": "initialCollateralToken",
                  "type": "address"
                },
                {
                  "internalType": "address[]",
                  "name": "swapPath",
                  "type": "address[]"
                }
              ],
              "internalType": "struct Order.Addresses",
              "name": "addresses",
              "type": "tuple"
            },
            {
              "components": [
                {
                  "internalType": "enum Order.OrderType",
                  "name": "orderType",
                  "type": "uint8"
                },
                {
                  "internalType": "enum Order.DecreasePositionSwapType",
                  "name": "decreasePositionSwapType",
                  "type": "uint8"
                },
                {
                  "internalType": "uint256",
                  "name": "sizeDeltaUsd",
                  "type": "uint256"
                },
                {
                  "internalType": "uint256",
                  "name": "initialCollateralDeltaAmount",
                  "type": "uint256"
                },
                {
                  "internalType": "uint256",
                  "name": "triggerPrice",
                  "type": "uint256"
                },
                {
                  "internalType": "uint256",
                  "name": "acceptablePrice",
                  "type": "uint256"
                },
                {
                  "internalType": "uint256",
                  "name": "executionFee",
                  "type": "uint256"
                },
                {
                  "internalType": "uint256",
                  "name": "callbackGasLimit",
                  "type": "uint256"
                },
                {
                  "internalType": "uint256",
                  "name": "minOutputAmount",
                  "type": "uint256"
                },
                {
                  "internalType": "uint256",
                  "name": "updatedAtBlock",
                  "type": "uint256"
                },
                {
                  "internalType": "uint256",
                  "name": "updatedAtTime",
                  "type": "uint256"
                }
              ],
              "internalType": "struct Order.Numbers",
              "name": "numbers",
              "type": "tuple"
            },
            {
              "components": [
                {
                  "internalType": "bool",
                  "name": "isLong",
                  "type": "bool"
                },
                {
                  "internalType": "bool",
                  "name": "shouldUnwrapNativeToken",
                  "type": "bool"
                },
                {
                  "internalType": "bool",
                  "name": "isFrozen",
                  "type": "bool"
                },
                {
                  "internalType": "bool",
                  "name": "autoCancel",
                  "type": "bool"
                }
              ],
              "internalType": "struct Order.Flags",
              "name": "flags",
              "type": "tuple"
            }
          ],
          "internalType": "struct Order.Props",
          "name": "order",
          "type": "tuple"
        },
        {
          "components": [
            {
              "components": [
                {
                  "components": [
                    {
                      "internalType": "string",
                      "name": "key",
                      "type": "string"
                    },
                    {
                      "internalType": "address",
                      "name": "value",
                      "type": "address"
                    }
                  ],
                  "internalType": "struct EventUtils.AddressKeyValue[]",
                  "name": "items",
                  "type": "tuple[]"
                },
                {
                  "components": [
                    {
                      "internalType": "string",
                      "name": "key",
                      "type": "string"
                    },
                    {
                      "internalType": "address[]",
                      "name": "value",
                      "type": "address[]"
                    }
                  ],
                  "internalType": "struct EventUtils.AddressArrayKeyValue[]",
                  "name": "arrayItems",
                  "type": "tuple[]"
                }
              ],
              "internalType": "struct EventUtils.AddressItems",
              "name": "addressItems",
              "type": "tuple"
            },
            {
              "components": [
                {
                  "components": [
                    {
                      "internalType": "string",
                      "name": "key",
                      "type": "string"
                    },
                    {
                      "internalType": "uint256",
                      "name": "value",
                      "type": "uint256"
                    }
                  ],
                  "internalType": "struct EventUtils.UintKeyValue[]",
                  "name": "items",
                  "type": "tuple[]"
                },
                {
                  "components": [
                    {
                      "internalType": "string",
                      "name": "key",
                      "type": "string"
                    },
                    {
                      "internalType": "uint256[]",
                      "name": "value",
                      "type": "uint256[]"
                    }
                  ],
                  "internalType": "struct EventUtils.UintArrayKeyValue[]",
                  "name": "arrayItems",
                  "type": "tuple[]"
                }
              ],
              "internalType": "struct EventUtils.UintItems",
              "name": "uintItems",
              "type": "tuple"
            },
            {
              "components": [
                {
                  "components": [
                    {
                      "internalType": "string",
                      "name": "key",
                      "type": "string"
                    },
                    {
                      "internalType": "int256",
                      "name": "value",
                      "type": "int256"
                    }
                  ],
                  "internalType": "struct EventUtils.IntKeyValue[]",
                  "name": "items",
                  "type": "tuple[]"
                },
                {
                  "components": [
                    {
                      "internalType": "string",
                      "name": "key",
                      "type": "string"
                    },
                    {
                      "internalType": "int256[]",
                      "name": "value",
                      "type": "int256[]"
                    }
                  ],
                  "internalType": "struct EventUtils.IntArrayKeyValue[]",
                  "name": "arrayItems",
                  "type": "tuple[]"
                }
              ],
              "internalType": "struct EventUtils.IntItems",
              "name": "intItems",
              "type": "tuple"
            },
            {
              "components": [
                {
                  "components": [
                    {
                      "internalType": "string",
                      "name": "key",
                      "type": "string"
                    },
                    {
                      "internalType": "bool",
                      "name": "value",
                      "type": "bool"
                    }
                  ],
                  "internalType": "struct EventUtils.BoolKeyValue[]",
                  "name": "items",
                  "type": "tuple[]"
                },
                {
                  "components": [
                    {
                      "internalType": "string",
                      "name": "key",
                      "type": "string"
                    },
                    {
                      "internalType": "bool[]",
                      "name": "value",
                      "type": "bool[]"
                    }
                  ],
                  "internalType": "struct EventUtils.BoolArrayKeyValue[]",
                  "name": "arrayItems",
                  "type": "tuple[]"
                }
              ],
              "internalType": "struct EventUtils.BoolItems",
              "name": "boolItems",
              "type": "tuple"
            },
            {
              "components": [
                {
                  "components": [
                    {
                      "internalType": "string",
                      "name": "key",
                      "type": "string"
                    },
                    {
                      "internalType": "bytes32",
                      "name": "value",
                      "type": "bytes32"
                    }
                  ],
                  "internalType": "struct EventUtils.Bytes32KeyValue[]",
                  "name": "items",
                  "type": "tuple[]"
                },
                {
                  "components": [
                    {
                      "internalType": "string",
                      "name": "key",
                      "type": "string"
                    },
                    {
                      "internalType": "bytes32[]",
                      "name": "value",
                      "type": "bytes32[]"
                    }
                  ],
                  "internalType": "struct EventUtils.Bytes32ArrayKeyValue[]",
                  "name": "arrayItems",
                  "type": "tuple[]"
                }
              ],
              "internalType": "struct EventUtils.Bytes32Items",
              "name": "bytes32Items",
              "type": "tuple"
            },
            {
              "components": [
                {
                  "components": [
                    {
                      "internalType": "string",
                      "name": "key",
                      "type": "string"
                    },
                    {
                      "internalType": "bytes",
                      "name": "value",
                      "type": "bytes"
                    }
                  ],
                  "internalType": "struct EventUtils.BytesKeyValue[]",
                  "name": "items",
                  "type": "tuple[]"
                },
                {
                  "components": [
                    {
                      "internalType": "string",
                      "name": "key",
                      "type": "string"
                    },
                    {
                      "internalType": "bytes[]",
                      "name": "value",
                      "type": "bytes[]"
                    }
                  ],
                  "internalType": "struct EventUtils.BytesArrayKeyValue[]",
                  "name": "arrayItems",
                  "type": "tuple[]"
                }
              ],
              "internalType": "struct EventUtils.BytesItems",
              "name": "bytesItems",
              "type": "tuple"
            },
            {
              "components": [
                {
                  "components": [
                    {
                      "internalType": "string",
                      "name": "key",
                      "type": "string"
                    },
                    {
                      "internalType": "string",
                      "name": "value",
                      "type": "string"
                    }
                  ],
                  "internalType": "struct EventUtils.StringKeyValue[]",
                  "name": "items",
                  "type": "tuple[]"
                },
                {
                  "components": [
                    {
                      "internalType": "string",
                      "name": "key",
                      "type": "string"
                    },
                    {
                      "internalType": "string[]",
                      "name": "value",
                      "type": "string[]"
                    }
                  ],
                  "internalType": "struct EventUtils.StringArrayKeyValue[]",
                  "name": "arrayItems",
                  "type": "tuple[]"
                }
              ],
              "internalType": "struct EventUtils.StringItems",
              "name": "stringItems",
              "type": "tuple"
            }
          ],
          "internalType": "struct EventUtils.EventLogData",
          "name": "eventData",
          "type": "tuple"
        }
      ],
      "name": "afterOrderFrozen",
      "outputs": [],
      "stateMutability": "nonpayable",
      "type": "function"
    },
    {
      "inputs": [
        {
          "internalType": "bytes32",
          "name": "key",
          "type": "bytes32"
        },
        {
          "components": [
            {
              "components": [
                {
                  "internalType": "address",
                  "name": "account",
                  "type": "address"
                },
                {
                  "internalType": "address",
                  "name": "receiver",
                  "type": "address"
                },
                {
                  "internalType": "address",
                  "name": "callbackContract",
                  "type": "address"
                },
                {
                  "internalType": "address",
                  "name": "uiFeeReceiver",
                  "type": "address"
                },
                {
                  "internalType": "address",
                  "name": "market",
                  "type": "address"
                },
                {
                  "internalType": "address[]",
                  "name": "longTokenSwapPath",
                  "type": "address[]"
                },
                {
                  "internalType": "address[]",
                  "name": "shortTokenSwapPath",
                  "type": "address[]"
                }
              ],
              "internalType": "struct Withdrawal.Addresses",
              "name": "addresses",
              "type": "tuple"
            },
            {
              "components": [
                {
                  "internalType": "uint256",
                  "name": "marketTokenAmount",
                  "type": "uint256"
                },
                {
                  "internalType": "uint256",
                  "name": "minLongTokenAmount",
                  "type": "uint256"
                },
                {
                  "internalType": "uint256",
                  "name": "minShortTokenAmount",
                  "type": "uint256"
                },
                {
                  "internalType": "uint256",
                  "name": "updatedAtBlock",
                  "type": "uint256"
                },
                {
                  "internalType": "uint256",
                  "name": "updatedAtTime",
                  "type": "uint256"
                },
                {
                  "internalType": "uint256",
                  "name": "executionFee",
                  "type": "uint256"
                },
                {
                  "internalType": "uint256",
                  "name": "callbackGasLimit",
                  "type": "uint256"
                }
              ],
              "internalType": "struct Withdrawal.Numbers",
              "name": "numbers",
              "type": "tuple"
            },
            {
              "components": [
                {
                  "internalType": "bool",
                  "name": "shouldUnwrapNativeToken",
                  "type": "bool"
                }
              ],
              "internalType": "struct Withdrawal.Flags",
              "name": "flags",
              "type": "tuple"
            }
          ],
          "internalType": "struct Withdrawal.Props",
          "name": "withdrawal",
          "type": "tuple"
        },
        {
          "components": [
            {
              "components": [
                {
                  "components": [
                    {
                      "internalType": "string",
                      "name": "key",
                      "type": "string"
                    },
                    {
                      "internalType": "address",
                      "name": "value",
                      "type": "address"
                    }
                  ],
                  "internalType": "struct EventUtils.AddressKeyValue[]",
                  "name": "items",
                  "type": "tuple[]"
                },
                {
                  "components": [
                    {
                      "internalType": "string",
                      "name": "key",
                      "type": "string"
                    },
                    {
                      "internalType": "address[]",
                      "name": "value",
                      "type": "address[]"
                    }
                  ],
                  "internalType": "struct EventUtils.AddressArrayKeyValue[]",
                  "name": "arrayItems",
                  "type": "tuple[]"
                }
              ],
              "internalType": "struct EventUtils.AddressItems",
              "name": "addressItems",
              "type": "tuple"
            },
            {
              "components": [
                {
                  "components": [
                    {
                      "internalType": "string",
                      "name": "key",
                      "type": "string"
                    },
                    {
                      "internalType": "uint256",
                      "name": "value",
                      "type": "uint256"
                    }
                  ],
                  "internalType": "struct EventUtils.UintKeyValue[]",
                  "name": "items",
                  "type": "tuple[]"
                },
                {
                  "components": [
                    {
                      "internalType": "string",
                      "name": "key",
                      "type": "string"
                    },
                    {
                      "internalType": "uint256[]",
                      "name": "value",
                      "type": "uint256[]"
                    }
                  ],
                  "internalType": "struct EventUtils.UintArrayKeyValue[]",
                  "name": "arrayItems",
                  "type": "tuple[]"
                }
              ],
              "internalType": "struct EventUtils.UintItems",
              "name": "uintItems",
              "type": "tuple"
            },
            {
              "components": [
                {
                  "components": [
                    {
                      "internalType": "string",
                      "name": "key",
                      "type": "string"
                    },
                    {
                      "internalType": "int256",
                      "name": "value",
                      "type": "int256"
                    }
                  ],
                  "internalType": "struct EventUtils.IntKeyValue[]",
                  "name": "items",
                  "type": "tuple[]"
                },
                {
                  "components": [
                    {
                      "internalType": "string",
                      "name": "key",
                      "type": "string"
                    },
                    {
                      "internalType": "int256[]",
                      "name": "value",
                      "type": "int256[]"
                    }
                  ],
                  "internalType": "struct EventUtils.IntArrayKeyValue[]",
                  "name": "arrayItems",
                  "type": "tuple[]"
                }
              ],
              "internalType": "struct EventUtils.IntItems",
              "name": "intItems",
              "type": "tuple"
            },
            {
              "components": [
                {
                  "components": [
                    {
                      "internalType": "string",
                      "name": "key",
                      "type": "string"
                    },
                    {
                      "internalType": "bool",
                      "name": "value",
                      "type": "bool"
                    }
                  ],
                  "internalType": "struct EventUtils.BoolKeyValue[]",
                  "name": "items",
                  "type": "tuple[]"
                },
                {
                  "components": [
                    {
                      "internalType": "string",
                      "name": "key",
                      "type": "string"
                    },
                    {
                      "internalType": "bool[]",
                      "name": "value",
                      "type": "bool[]"
                    }
                  ],
                  "internalType": "struct EventUtils.BoolArrayKeyValue[]",
                  "name": "arrayItems",
                  "type": "tuple[]"
                }
              ],
              "internalType": "struct EventUtils.BoolItems",
              "name": "boolItems",
              "type": "tuple"
            },
            {
              "components": [
                {
                  "components": [
                    {
                      "internalType": "string",
                      "name": "key",
                      "type": "string"
                    },
                    {
                      "internalType": "bytes32",
                      "name": "value",
                      "type": "bytes32"
                    }
                  ],
                  "internalType": "struct EventUtils.Bytes32KeyValue[]",
                  "name": "items",
                  "type": "tuple[]"
                },
                {
                  "components": [
                    {
                      "internalType": "string",
                      "name": "key",
                      "type": "string"
                    },
                    {
                      "internalType": "bytes32[]",
                      "name": "value",
                      "type": "bytes32[]"
                    }
                  ],
                  "internalType": "struct EventUtils.Bytes32ArrayKeyValue[]",
                  "name": "arrayItems",
                  "type": "tuple[]"
                }
              ],
              "internalType": "struct EventUtils.Bytes32Items",
              "name": "bytes32Items",
              "type": "tuple"
            },
            {
              "components": [
                {
                  "components": [
                    {
                      "internalType": "string",
                      "name": "key",
                      "type": "string"
                    },
                    {
                      "internalType": "bytes",
                      "name": "value",
                      "type": "bytes"
                    }
                  ],
                  "internalType": "struct EventUtils.BytesKeyValue[]",
                  "name": "items",
                  "type": "tuple[]"
                },
                {
                  "components": [
                    {
                      "internalType": "string",
                      "name": "key",
                      "type": "string"
                    },
                    {
                      "internalType": "bytes[]",
                      "name": "value",
                      "type": "bytes[]"
                    }
                  ],
                  "internalType": "struct EventUtils.BytesArrayKeyValue[]",
                  "name": "arrayItems",
                  "type": "tuple[]"
                }
              ],
              "internalType": "struct EventUtils.BytesItems",
              "name": "bytesItems",
              "type": "tuple"
            },
            {
              "components": [
                {
                  "components": [
                    {
                      "internalType": "string",
                      "name": "key",
                      "type": "string"
                    },
                    {
                      "internalType": "string",
                      "name": "value",
                      "type": "string"
                    }
                  ],
                  "internalType": "struct EventUtils.StringKeyValue[]",
                  "name": "items",
                  "type": "tuple[]"
                },
                {
                  "components": [
                    {
                      "internalType": "string",
                      "name": "key",
                      "type": "string"
                    },
                    {
                      "internalType": "string[]",
                      "name": "value",
                      "type": "string[]"
                    }
                  ],
                  "internalType": "struct EventUtils.StringArrayKeyValue[]",
                  "name": "arrayItems",
                  "type": "tuple[]"
                }
              ],
              "internalType": "struct EventUtils.StringItems",
              "name": "stringItems",
              "type": "tuple"
            }
          ],
          "internalType": "struct EventUtils.EventLogData",
          "name": "eventData",
          "type": "tuple"
        }
      ],
      "name": "afterWithdrawalCancellation",
      "outputs": [],
      "stateMutability": "nonpayable",
      "type": "function"
    },
    {
      "inputs": [
        {
          "internalType": "bytes32",
          "name": "key",
          "type": "bytes32"
        },
        {
          "components": [
            {
              "components": [
                {
                  "internalType": "address",
                  "name": "account",
                  "type": "address"
                },
                {
                  "internalType": "address",
                  "name": "receiver",
                  "type": "address"
                },
                {
                  "internalType": "address",
                  "name": "callbackContract",
                  "type": "address"
                },
                {
                  "internalType": "address",
                  "name": "uiFeeReceiver",
                  "type": "address"
                },
                {
                  "internalType": "address",
                  "name": "market",
                  "type": "address"
                },
                {
                  "internalType": "address[]",
                  "name": "longTokenSwapPath",
                  "type": "address[]"
                },
                {
                  "internalType": "address[]",
                  "name": "shortTokenSwapPath",
                  "type": "address[]"
                }
              ],
              "internalType": "struct Withdrawal.Addresses",
              "name": "addresses",
              "type": "tuple"
            },
            {
              "components": [
                {
                  "internalType": "uint256",
                  "name": "marketTokenAmount",
                  "type": "uint256"
                },
                {
                  "internalType": "uint256",
                  "name": "minLongTokenAmount",
                  "type": "uint256"
                },
                {
                  "internalType": "uint256",
                  "name": "minShortTokenAmount",
                  "type": "uint256"
                },
                {
                  "internalType": "uint256",
                  "name": "updatedAtBlock",
                  "type": "uint256"
                },
                {
                  "internalType": "uint256",
                  "name": "updatedAtTime",
                  "type": "uint256"
                },
                {
                  "internalType": "uint256",
                  "name": "executionFee",
                  "type": "uint256"
                },
                {
                  "internalType": "uint256",
                  "name": "callbackGasLimit",
                  "type": "uint256"
                }
              ],
              "internalType": "struct Withdrawal.Numbers",
              "name": "numbers",
              "type": "tuple"
            },
            {
              "components": [
                {
                  "internalType": "bool",
                  "name": "shouldUnwrapNativeToken",
                  "type": "bool"
                }
              ],
              "internalType": "struct Withdrawal.Flags",
              "name": "flags",
              "type": "tuple"
            }
          ],
          "internalType": "struct Withdrawal.Props",
          "name": "withdrawal",
          "type": "tuple"
        },
        {
          "components": [
            {
              "components": [
                {
                  "components": [
                    {
                      "internalType": "string",
                      "name": "key",
                      "type": "string"
                    },
                    {
                      "internalType": "address",
                      "name": "value",
                      "type": "address"
                    }
                  ],
                  "internalType": "struct EventUtils.AddressKeyValue[]",
                  "name": "items",
                  "type": "tuple[]"
                },
                {
                  "components": [
                    {
                      "internalType": "string",
                      "name": "key",
                      "type": "string"
                    },
                    {
                      "internalType": "address[]",
                      "name": "value",
                      "type": "address[]"
                    }
                  ],
                  "internalType": "struct EventUtils.AddressArrayKeyValue[]",
                  "name": "arrayItems",
                  "type": "tuple[]"
                }
              ],
              "internalType": "struct EventUtils.AddressItems",
              "name": "addressItems",
              "type": "tuple"
            },
            {
              "components": [
                {
                  "components": [
                    {
                      "internalType": "string",
                      "name": "key",
                      "type": "string"
                    },
                    {
                      "internalType": "uint256",
                      "name": "value",
                      "type": "uint256"
                    }
                  ],
                  "internalType": "struct EventUtils.UintKeyValue[]",
                  "name": "items",
                  "type": "tuple[]"
                },
                {
                  "components": [
                    {
                      "internalType": "string",
                      "name": "key",
                      "type": "string"
                    },
                    {
                      "internalType": "uint256[]",
                      "name": "value",
                      "type": "uint256[]"
                    }
                  ],
                  "internalType": "struct EventUtils.UintArrayKeyValue[]",
                  "name": "arrayItems",
                  "type": "tuple[]"
                }
              ],
              "internalType": "struct EventUtils.UintItems",
              "name": "uintItems",
              "type": "tuple"
            },
            {
              "components": [
                {
                  "components": [
                    {
                      "internalType": "string",
                      "name": "key",
                      "type": "string"
                    },
                    {
                      "internalType": "int256",
                      "name": "value",
                      "type": "int256"
                    }
                  ],
                  "internalType": "struct EventUtils.IntKeyValue[]",
                  "name": "items",
                  "type": "tuple[]"
                },
                {
                  "components": [
                    {
                      "internalType": "string",
                      "name": "key",
                      "type": "string"
                    },
                    {
                      "internalType": "int256[]",
                      "name": "value",
                      "type": "int256[]"
                    }
                  ],
                  "internalType": "struct EventUtils.IntArrayKeyValue[]",
                  "name": "arrayItems",
                  "type": "tuple[]"
                }
              ],
              "internalType": "struct EventUtils.IntItems",
              "name": "intItems",
              "type": "tuple"
            },
            {
              "components": [
                {
                  "components": [
                    {
                      "internalType": "string",
                      "name": "key",
                      "type": "string"
                    },
                    {
                      "internalType": "bool",
                      "name": "value",
                      "type": "bool"
                    }
                  ],
                  "internalType": "struct EventUtils.BoolKeyValue[]",
                  "name": "items",
                  "type": "tuple[]"
                },
                {
                  "components": [
                    {
                      "internalType": "string",
                      "name": "key",
                      "type": "string"
                    },
                    {
                      "internalType": "bool[]",
                      "name": "value",
                      "type": "bool[]"
                    }
                  ],
                  "internalType": "struct EventUtils.BoolArrayKeyValue[]",
                  "name": "arrayItems",
                  "type": "tuple[]"
                }
              ],
              "internalType": "struct EventUtils.BoolItems",
              "name": "boolItems",
              "type": "tuple"
            },
            {
              "components": [
                {
                  "components": [
                    {
                      "internalType": "string",
                      "name": "key",
                      "type": "string"
                    },
                    {
                      "internalType": "bytes32",
                      "name": "value",
                      "type": "bytes32"
                    }
                  ],
                  "internalType": "struct EventUtils.Bytes32KeyValue[]",
                  "name": "items",
                  "type": "tuple[]"
                },
                {
                  "components": [
                    {
                      "internalType": "string",
                      "name": "key",
                      "type": "string"
                    },
                    {
                      "internalType": "bytes32[]",
                      "name": "value",
                      "type": "bytes32[]"
                    }
                  ],
                  "internalType": "struct EventUtils.Bytes32ArrayKeyValue[]",
                  "name": "arrayItems",
                  "type": "tuple[]"
                }
              ],
              "internalType": "struct EventUtils.Bytes32Items",
              "name": "bytes32Items",
              "type": "tuple"
            },
            {
              "components": [
                {
                  "components": [
                    {
                      "internalType": "string",
                      "name": "key",
                      "type": "string"
                    },
                    {
                      "internalType": "bytes",
                      "name": "value",
                      "type": "bytes"
                    }
                  ],
                  "internalType": "struct EventUtils.BytesKeyValue[]",
                  "name": "items",
                  "type": "tuple[]"
                },
                {
                  "components": [
                    {
                      "internalType": "string",
                      "name": "key",
                      "type": "string"
                    },
                    {
                      "internalType": "bytes[]",
                      "name": "value",
                      "type": "bytes[]"
                    }
                  ],
                  "internalType": "struct EventUtils.BytesArrayKeyValue[]",
                  "name": "arrayItems",
                  "type": "tuple[]"
                }
              ],
              "internalType": "struct EventUtils.BytesItems",
              "name": "bytesItems",
              "type": "tuple"
            },
            {
              "components": [
                {
                  "components": [
                    {
                      "internalType": "string",
                      "name": "key",
                      "type": "string"
                    },
                    {
                      "internalType": "string",
                      "name": "value",
                      "type": "string"
                    }
                  ],
                  "internalType": "struct EventUtils.StringKeyValue[]",
                  "name": "items",
                  "type": "tuple[]"
                },
                {
                  "components": [
                    {
                      "internalType": "string",
                      "name": "key",
                      "type": "string"
                    },
                    {
                      "internalType": "string[]",
                      "name": "value",
                      "type": "string[]"
                    }
                  ],
                  "internalType": "struct EventUtils.StringArrayKeyValue[]",
                  "name": "arrayItems",
                  "type": "tuple[]"
                }
              ],
              "internalType": "struct EventUtils.StringItems",
              "name": "stringItems",
              "type": "tuple"
            }
          ],
          "internalType": "struct EventUtils.EventLogData",
          "name": "eventData",
          "type": "tuple"
        }
      ],
      "name": "afterWithdrawalExecution",
      "outputs": [],
      "stateMutability": "nonpayable",
      "type": "function"
    },
    {
      "inputs": [],
      "name": "config",
      "outputs": [
        {
          "internalType": "address",
          "name": "vault",
          "type": "address"
        },
        {
          "internalType": "address",
          "name": "gmxPlugin",
          "type": "address"
        }
      ],
      "stateMutability": "view",
      "type": "function"
    },
    {
      "inputs": [],
      "name": "depositHandler",
      "outputs": [
        {
          "internalType": "address",
          "name": "",
          "type": "address"
        }
      ],
      "stateMutability": "view",
      "type": "function"
    },
    {
      "inputs": [
        {
          "internalType": "uint256",
          "name": "",
          "type": "uint256"
        }
      ],
      "name": "depositKeys",
      "outputs": [
        {
          "internalType": "bytes32",
          "name": "",
          "type": "bytes32"
        }
      ],
      "stateMutability": "view",
      "type": "function"
    },
    {
      "inputs": [
        {
          "internalType": "enum IGMXCallbackContract.State",
          "name": "stateOption",
          "type": "uint8"
        }
      ],
      "name": "getKeys",
      "outputs": [
        {
          "internalType": "bytes32[]",
          "name": "",
          "type": "bytes32[]"
        }
      ],
      "stateMutability": "view",
      "type": "function"
    },
    {
      "inputs": [],
      "name": "getLockerStatus",
      "outputs": [
        {
          "internalType": "bool",
          "name": "",
          "type": "bool"
        }
      ],
      "stateMutability": "view",
      "type": "function"
    },
    {
      "inputs": [],
      "name": "getWithdrawalDatas",
      "outputs": [
        {
          "components": [
            {
              "internalType": "uint256",
              "name": "lpAmount",
              "type": "uint256"
            },
            {
              "internalType": "address",
              "name": "receiver",
              "type": "address"
            }
          ],
          "internalType": "struct GmxCallback.WithdrawalInfo[]",
          "name": "",
          "type": "tuple[]"
        }
      ],
      "stateMutability": "view",
      "type": "function"
    },
    {
      "inputs": [],
      "name": "orderHandler",
      "outputs": [
        {
          "internalType": "address",
          "name": "",
          "type": "address"
        }
      ],
      "stateMutability": "view",
      "type": "function"
    },
    {
      "inputs": [
        {
          "internalType": "uint256",
          "name": "",
          "type": "uint256"
        }
      ],
      "name": "orderKeys",
      "outputs": [
        {
          "internalType": "bytes32",
          "name": "",
          "type": "bytes32"
        }
      ],
      "stateMutability": "view",
      "type": "function"
    },
    {
      "inputs": [],
      "name": "owner",
      "outputs": [
        {
          "internalType": "address",
          "name": "",
          "type": "address"
        }
      ],
      "stateMutability": "view",
      "type": "function"
    },
    {
      "inputs": [],
      "name": "renounceOwnership",
      "outputs": [],
      "stateMutability": "nonpayable",
      "type": "function"
    },
    {
      "inputs": [
        {
          "internalType": "address",
          "name": "_vault",
          "type": "address"
        },
        {
          "internalType": "address",
          "name": "_gmxPlugin",
          "type": "address"
        }
      ],
      "name": "setConfig",
      "outputs": [],
      "stateMutability": "nonpayable",
      "type": "function"
    },
    {
      "inputs": [
        {
          "internalType": "address",
          "name": "_depositHandler",
          "type": "address"
        },
        {
          "internalType": "address",
          "name": "_withdrawalHandler",
          "type": "address"
        },
        {
          "internalType": "address",
          "name": "_orderHandler",
          "type": "address"
        }
      ],
      "name": "setHandler",
      "outputs": [],
      "stateMutability": "nonpayable",
      "type": "function"
    },
    {
      "inputs": [
        {
          "internalType": "address",
          "name": "newOwner",
          "type": "address"
        }
      ],
      "name": "transferOwnership",
      "outputs": [],
      "stateMutability": "nonpayable",
      "type": "function"
    },
    {
      "inputs": [
        {
          "internalType": "bytes32",
          "name": "",
          "type": "bytes32"
        }
      ],
      "name": "withdrawalData",
      "outputs": [
        {
          "internalType": "uint256",
          "name": "lpAmount",
          "type": "uint256"
        },
        {
          "internalType": "address",
          "name": "receiver",
          "type": "address"
        }
      ],
      "stateMutability": "view",
      "type": "function"
    },
    {
      "inputs": [],
      "name": "withdrawalHandler",
      "outputs": [
        {
          "internalType": "address",
          "name": "",
          "type": "address"
        }
      ],
      "stateMutability": "view",
      "type": "function"
    },
    {
      "inputs": [
        {
          "internalType": "uint256",
          "name": "",
          "type": "uint256"
        }
      ],
      "name": "withdrawalKeys",
      "outputs": [
        {
          "internalType": "bytes32",
          "name": "",
          "type": "bytes32"
        }
      ],
      "stateMutability": "view",
      "type": "function"
    }
  ],
  "transactionHash": "0x60618d2cfdae0ac73b2a8d36993f34a339c21ae450cc8e35e2149f871b45293e",
  "args": [
    "0xf695C44b03Ac7cf0E1B19CC5B803Cb759Ca7a640",
    "0x14E425DB3B55174E51926474b31983F45aA98f4b"
  ],
  "numDeployments": 1,
  "solcInputHash": "a66583ae08b5ce387c4ea619c5a0ce71",
  "bytecode": "0x60806040523480156200001157600080fd5b5060405162002e9b38038062002e9b83398101604081905262000034916200011f565b33806200005b57604051631e4fbdf760e01b81526000600482015260240160405180910390fd5b6200006681620000b2565b50604080518082019091526001600160a01b03928316808252919092166020909201829052600280546001600160a01b0319908116909217905560038054909116909117905562000157565b600080546001600160a01b038381166001600160a01b0319831681178455604051919092169283917f8be0079c531659141344cd1fd0a4f28419497f9722a3daafe3b4186f6b6457e09190a35050565b80516001600160a01b03811681146200011a57600080fd5b919050565b600080604083850312156200013357600080fd5b6200013e8362000102565b91506200014e6020840162000102565b90509250929050565b612d3480620001676000396000f3fe608060405234801561001057600080fd5b50600436106101735760003560e01c80639c8b2cfb116100de578063d3d3206d11610097578063ef563ba511610071578063ef563ba514610397578063f0c08975146103af578063f2fde38b146103c2578063fd77d175146103d557600080fd5b8063d3d3206d1461034f578063d72626a014610362578063ea9d9eba1461038257600080fd5b80639c8b2cfb146102dd578063b5848305146102f0578063b602024b14610303578063c4b2b98014610316578063c9ac221a14610329578063c9cbe54e1461033c57600080fd5b806372ccfa601161013057806372ccfa601461020c57806379502c551461021f5780638b9e55dc146102595780638da5cb5b1461026c5780639425ebd71461027d5780639883455a146102ca57600080fd5b806320a0a44a146101785780632c2f3c071461018d5780632c99327a146101bd5780634bdfb4a7146101d05780636e325d5a146101f1578063715018a614610204575b600080fd5b61018b6101863660046114bf565b6103e8565b005b6008546101a0906001600160a01b031681565b6040516001600160a01b0390911681526020015b60405180910390f35b61018b6101cb36600461151a565b6104eb565b6101e36101de36600461154a565b610683565b6040519081526020016101b4565b6101e36101ff36600461154a565b6106a4565b61018b6106b4565b61018b61021a3660046125c4565b6106c8565b600254600354610239916001600160a01b03908116911682565b604080516001600160a01b039384168152929091166020830152016101b4565b61018b610267366004612858565b610898565b6000546001600160a01b03166101a0565b6102ad61028b36600461154a565b600160208190526000918252604090912080549101546001600160a01b031682565b604080519283526001600160a01b039091166020830152016101b4565b6101e36102d836600461154a565b61096e565b6007546101a0906001600160a01b031681565b6009546101a0906001600160a01b031681565b61018b61031136600461298a565b61097e565b61018b6103243660046129bd565b610a5a565b61018b6103373660046125c4565b610b22565b61018b61034a366004612b34565b610ca3565b61018b61035d366004612858565b610de5565b610375610370366004612b60565b610ea1565b6040516101b49190612b84565b61038a610ff7565b6040516101b49190612bc8565b61039f6110ed565b60405190151581526020016101b4565b61018b6103bd366004612858565b611111565b61018b6103d0366004612c20565b6111d8565b61018b6103e33660046129bd565b611216565b6103f06112de565b6001600160a01b0383161580159061041057506001600160a01b03821615155b801561042457506001600160a01b03811615155b6104675760405162461bcd60e51b815260206004820152600f60248201526e496e76616c6964206164647265737360881b60448201526064015b60405180910390fd5b600780546001600160a01b038581166001600160a01b0319928316811790935560088054868316908416811790915560098054928616929093168217909255604080519384526020840192909252908201527f0b15593be724ff1da477ca0e52b97d8f867ee494175088593b158ffe826044059060600160405180910390a1505050565b6003546001600160a01b031633146105155760405162461bcd60e51b815260040161045e90612c3b565b600081600281111561052957610529612c63565b0361056857600480546001810182556000919091527f8a35acfbc15ff81a39ae7d344fd709f28e8600b4aa8c65c6b64bfe7fe36bd19b01829055610646565b600181600281111561057c5761057c612c63565b036105bb57600580546001810182556000919091527f036b6384b5eca791c62761152d0c79bb0604c104a5fb6f4eb0703f3154bb3db001829055610646565b60028160028111156105cf576105cf612c63565b0361060e57600680546001810182556000919091527ff652222313e28459528d920b65115c16c04f3efc82aaedc97be59f3f377c0d3f01829055610646565b60405162461bcd60e51b815260206004820152600d60248201526c496e76616c696420737461746560981b604482015260640161045e565b7ffa9e2ad32f10f9e5cda0a77da71acc789402000c2f814bb86d20eb22f3262efa8282604051610677929190612c79565b60405180910390a15050565b6005818154811061069357600080fd5b600091825260209091200154905081565b6006818154811061069357600080fd5b6106bc6112de565b6106c6600061130b565b565b6008546001906001600160a01b03163381146106f65760405162461bcd60e51b815260040161045e90612c3b565b61070185600161135b565b600085815260016020818152604092839020835180850190945280548085529201546001600160a01b0316908301521580159061074a575060208101516001600160a01b031615155b8015610769575060035460208201516001600160a01b03908116911614155b156107db576002546020820151825160405162ac092b60e31b81526001600160a01b0392831660048201526024810191909152911690630560495890604401600060405180830381600087803b1580156107c257600080fd5b505af11580156107d6573d6000803e3d6000fd5b505050505b600086815260016020819052604080832083815590910180546001600160a01b0319169055600354815163a0390b6560e01b815291516001600160a01b039091169263a0390b65926004808201939182900301818387803b15801561083f57600080fd5b505af1158015610853573d6000803e3d6000fd5b505050507f647b7f8e56f2fde1fb34c2c7d4554485630e35110aed67776a68373a88ddcfaf8660405161088891815260200190565b60405180910390a1505050505050565b60026009546001600160a01b03163381146108c55760405162461bcd60e51b815260040161045e90612c3b565b6108d085600261135b565b6003546040805163a0390b6560e01b815290516001600160a01b039092169163a0390b659160048082019260009290919082900301818387803b15801561091657600080fd5b505af115801561092a573d6000803e3d6000fd5b505050507f867ffda0e5bb2ebb3e1e5a3c36b1bf151e4a81bdcba0ff212c925676c9d539b08560405161095f91815260200190565b60405180910390a15050505050565b6004818154811061069357600080fd5b6109866112de565b6001600160a01b038216158015906109a657506001600160a01b03811615155b6109e45760405162461bcd60e51b815260206004820152600f60248201526e496e76616c6964206164647265737360881b604482015260640161045e565b6040805180820182526001600160a01b038481168083529084166020928301819052600280546001600160a01b0319908116841790915560038054909116821790558351918252918101919091527fbd7986d31c086d8cc2901a1c41d1edc0af6e8a7a5c6fc1b8283919c1b2122c389101610677565b6007546000906001600160a01b0316338114610a885760405162461bcd60e51b815260040161045e90612c3b565b610a9385600061135b565b6003546040805163a0390b6560e01b815290516001600160a01b039092169163a0390b659160048082019260009290919082900301818387803b158015610ad957600080fd5b505af1158015610aed573d6000803e3d6000fd5b505050507f534f2e1de65a7ed10f06a08d2d9506ec9ea0028947f8468c9dd917d9afc590098560405161095f91815260200190565b6008546001906001600160a01b0316338114610b505760405162461bcd60e51b815260040161045e90612c3b565b610b5b85600161135b565b600085815260016020818152604092839020835180850190945280548085529201546001600160a01b03169083015215610bf657600254815160405163c6ef206160e01b81526001600160a01b039092169163c6ef206191610bc39160040190815260200190565b600060405180830381600087803b158015610bdd57600080fd5b505af1158015610bf1573d6000803e3d6000fd5b505050505b600086815260016020819052604080832083815590910180546001600160a01b0319169055600354815163a0390b6560e01b815291516001600160a01b039091169263a0390b65926004808201939182900301818387803b158015610c5a57600080fd5b505af1158015610c6e573d6000803e3d6000fd5b505050507f4cfcfdd4116883fe372a785a39365143ba97c05632799533e808c68c1b2883008660405161088891815260200190565b6003546001600160a01b03163314610ccd5760405162461bcd60e51b815260040161045e90612c3b565b6000805b600554811015610d0c578460058281548110610cef57610cef612cab565b906000526020600020015403610d0457600191505b600101610cd1565b5080610d535760405162461bcd60e51b8152602060048201526016602482015275496e76616c6964207769746864726177616c206b657960501b604482015260640161045e565b6040805180820182528481526001600160a01b03848116602080840182815260008a8152600180845290879020955186559051940180546001600160a01b03191694909316939093179091558251878152918201869052918101919091527fadf5e79ddb4270d747ffaaa4b83082f5f9aa8b086a74035da4971d89df13183c906060015b60405180910390a150505050565b60026009546001600160a01b0316338114610e125760405162461bcd60e51b815260040161045e90612c3b565b6003546040805163a0390b6560e01b815290516001600160a01b039092169163a0390b659160048082019260009290919082900301818387803b158015610e5857600080fd5b505af1158015610e6c573d6000803e3d6000fd5b505050507f520cfa6e598812f1ed974c1c708f052107e417074d2a0669a32cd94d5fc009d08560405161095f91815260200190565b60606000826002811115610eb757610eb7612c63565b03610f14576004805480602002602001604051908101604052809291908181526020018280548015610f0857602002820191906000526020600020905b815481526020019060010190808311610ef4575b50505050509050919050565b6001826002811115610f2857610f28612c63565b03610f83576005805480602002602001604051908101604052809291908181526020018280548015610f085760200282019190600052602060002090815481526020019060010190808311610ef45750505050509050919050565b6002826002811115610f9757610f97612c63565b0361060e576006805480602002602001604051908101604052809291908181526020018280548015610f085760200282019190600052602060002090815481526020019060010190808311610ef45750505050509050919050565b919050565b6005546060906000816001600160401b0381111561101757611017611563565b60405190808252806020026020018201604052801561105c57816020015b60408051808201909152600080825260208201528152602001906001900390816110355790505b50905060005b828110156110e657600160006005838154811061108157611081612cab565b600091825260208083209091015483528281019390935260409182019020815180830190925280548252600101546001600160a01b03169181019190915282518390839081106110d3576110d3612cab565b6020908102919091010152600101611062565b5092915050565b6004546000901580156111005750600554155b801561110c5750600654155b905090565b60026009546001600160a01b031633811461113e5760405162461bcd60e51b815260040161045e90612c3b565b61114985600261135b565b6003546040805163a0390b6560e01b815290516001600160a01b039092169163a0390b659160048082019260009290919082900301818387803b15801561118f57600080fd5b505af11580156111a3573d6000803e3d6000fd5b505050507f1148d35dd3e6f9a7c7fc80cce18aaaade3fe8a73cfbf12680542bb1d4ae87e448560405161095f91815260200190565b6111e06112de565b6001600160a01b03811661120a57604051631e4fbdf760e01b81526000600482015260240161045e565b6112138161130b565b50565b6007546000906001600160a01b03163381146112445760405162461bcd60e51b815260040161045e90612c3b565b61124f85600061135b565b6003546040805163a0390b6560e01b815290516001600160a01b039092169163a0390b659160048082019260009290919082900301818387803b15801561129557600080fd5b505af11580156112a9573d6000803e3d6000fd5b505050507f74f1db4b2293888c98ccf92593c236bb7ccf14df68c1afc6ca91cf30f1ff4c728560405161095f91815260200190565b6000546001600160a01b031633146106c65760405163118cdaa760e01b815233600482015260240161045e565b600080546001600160a01b038381166001600160a01b0319831681178455604051919092169283917f8be0079c531659141344cd1fd0a4f28419497f9722a3daafe3b4186f6b6457e09190a35050565b60008082600281111561137057611370612c63565b0361137d575060046113bb565b600182600281111561139157611391612c63565b0361139e575060056113bb565b60028260028111156113b2576113b2612c63565b0361060e575060065b805460005b8181101561147657848382815481106113db576113db612cab565b90600052602060002001540361146e576113f6600183612cc1565b8110156114435782611409600184612cc1565b8154811061141957611419612cab565b906000526020600020015483828154811061143657611436612cab565b6000918252602090912001555b8280548061145357611453612ce8565b60019003818190600052602060002001600090559055611476565b6001016113c0565b507feeba383458006e9011e8d73c3d28de67dcd557f07b3441ae6e8d059d91ac242e8484604051610dd7929190612c79565b80356001600160a01b0381168114610ff257600080fd5b6000806000606084860312156114d457600080fd5b6114dd846114a8565b92506114eb602085016114a8565b91506114f9604085016114a8565b90509250925092565b6003811061121357600080fd5b8035610ff281611502565b6000806040838503121561152d57600080fd5b82359150602083013561153f81611502565b809150509250929050565b60006020828403121561155c57600080fd5b5035919050565b634e487b7160e01b600052604160045260246000fd5b60405160e081016001600160401b038111828210171561159b5761159b611563565b60405290565b604080519081016001600160401b038111828210171561159b5761159b611563565b604051606081016001600160401b038111828210171561159b5761159b611563565b60405161016081016001600160401b038111828210171561159b5761159b611563565b60405161010081016001600160401b038111828210171561159b5761159b611563565b60405161012081016001600160401b038111828210171561159b5761159b611563565b604051601f8201601f191681016001600160401b038111828210171561167657611676611563565b604052919050565b60006001600160401b0382111561169757611697611563565b5060051b60200190565b600082601f8301126116b257600080fd5b813560206116c76116c28361167e565b61164e565b8083825260208201915060208460051b8701019350868411156116e957600080fd5b602086015b8481101561170c576116ff816114a8565b83529183019183016116ee565b509695505050505050565b600060e0828403121561172957600080fd5b611731611579565b9050813581526020820135602082015260408201356040820152606082013560608201526080820135608082015260a082013560a082015260c082013560c082015292915050565b80358015158114610ff257600080fd5b60006020828403121561179b57600080fd5b604051602081018181106001600160401b03821117156117bd576117bd611563565b6040529050806117cc83611779565b905292915050565b600082601f8301126117e557600080fd5b81356001600160401b038111156117fe576117fe611563565b611811601f8201601f191660200161164e565b81815284602083860101111561182657600080fd5b816020850160208301376000918101602001919091529392505050565b600082601f83011261185457600080fd5b813560206118646116c28361167e565b82815260059290921b8401810191818101908684111561188357600080fd5b8286015b8481101561170c5780356001600160401b03808211156118a75760008081fd5b908801906040828b03601f19018113156118c15760008081fd5b6118c96115a1565b87840135838111156118db5760008081fd5b6118e98d8a838801016117d4565b8252509083013590828211156118ff5760008081fd5b61190d8c89848701016116a1565b818901528652505050918301918301611887565b6000604080838503121561193457600080fd5b61193c6115a1565b915082356001600160401b038082111561195557600080fd5b818501915085601f83011261196957600080fd5b813560206119796116c28361167e565b82815260059290921b8401810191818101908984111561199857600080fd5b8286015b84811015611a12578035868111156119b45760008081fd5b8701808c03601f19018913156119ca5760008081fd5b6119d26115a1565b85820135888111156119e45760008081fd5b6119f28e88838601016117d4565b825250611a008a83016114a8565b8187015284525091830191830161199c565b5087525086810135945082851115611a2957600080fd5b611a3588868901611843565b81870152505050505092915050565b600082601f830112611a5557600080fd5b81356020611a656116c28361167e565b828152600592831b8501820192828201919087851115611a8457600080fd5b8387015b85811015611b795780356001600160401b0380821115611aa85760008081fd5b908901906040828c03601f1901811315611ac25760008081fd5b611aca6115a1565b8884013583811115611adc5760008081fd5b611aea8e8b838801016117d4565b8252508184013583811115611aff5760008081fd5b8085019450508c603f850112611b1757600092508283fd5b888401359250611b296116c28461167e565b83815292861b8401820192898101908e851115611b465760008081fd5b948301945b84861015611b645785358252948a0194908a0190611b4b565b828b0152508752505050928401928401611a88565b5090979650505050505050565b60006040808385031215611b9957600080fd5b611ba16115a1565b915082356001600160401b0380821115611bba57600080fd5b818501915085601f830112611bce57600080fd5b81356020611bde6116c28361167e565b82815260059290921b84018101918181019089841115611bfd57600080fd5b8286015b84811015611c6f57803586811115611c195760008081fd5b8701808c03601f1901891315611c2f5760008081fd5b611c376115a1565b8582013588811115611c495760008081fd5b611c578e88838601016117d4565b82525090890135858201528352918301918301611c01565b5087525086810135945082851115611c8657600080fd5b611a3588868901611a44565b600082601f830112611ca357600080fd5b81356020611cb36116c28361167e565b828152600592831b8501820192828201919087851115611cd257600080fd5b8387015b85811015611b795780356001600160401b0380821115611cf65760008081fd5b908901906040828c03601f1901811315611d105760008081fd5b611d186115a1565b8884013583811115611d2a5760008081fd5b611d388e8b838801016117d4565b8252508184013583811115611d4d5760008081fd5b8085019450508c603f850112611d6557600092508283fd5b888401359250611d776116c28461167e565b83815292861b8401820192898101908e851115611d945760008081fd5b948301945b84861015611db957611daa86611779565b8252948a0194908a0190611d99565b828b0152508752505050928401928401611cd6565b60006040808385031215611de157600080fd5b611de96115a1565b915082356001600160401b0380821115611e0257600080fd5b818501915085601f830112611e1657600080fd5b81356020611e266116c28361167e565b82815260059290921b84018101918181019089841115611e4557600080fd5b8286015b84811015611ebf57803586811115611e615760008081fd5b8701808c03601f1901891315611e775760008081fd5b611e7f6115a1565b8582013588811115611e915760008081fd5b611e9f8e88838601016117d4565b825250611ead8a8301611779565b81870152845250918301918301611e49565b5087525086810135945082851115611ed657600080fd5b611a3588868901611c92565b600082601f830112611ef357600080fd5b81356020611f036116c28361167e565b828152600592831b8501820192828201919087851115611f2257600080fd5b8387015b85811015611b795780356001600160401b0380821115611f465760008081fd5b908901906040828c03601f1901811315611f605760008081fd5b611f686115a1565b8884013583811115611f7a5760008081fd5b611f888e8b838801016117d4565b8252508184013583811115611f9d5760008081fd5b8085019450508c603f850112611fb557600092508283fd5b888401359250611fc76116c28461167e565b83815292861b8401820192898101908e851115611fe45760008081fd5b948301945b848610156120025785358252948a0194908a0190611fe9565b828b0152508752505050928401928401611f26565b6000604080838503121561202a57600080fd5b6120326115a1565b915082356001600160401b038082111561204b57600080fd5b818501915085601f83011261205f57600080fd5b8135602061206f6116c28361167e565b82815260059290921b8401810191818101908984111561208e57600080fd5b8286015b84811015612100578035868111156120aa5760008081fd5b8701808c03601f19018913156120c05760008081fd5b6120c86115a1565b85820135888111156120da5760008081fd5b6120e88e88838601016117d4565b82525090890135858201528352918301918301612092565b508752508681013594508285111561211757600080fd5b611a3588868901611ee2565b600082601f83011261213457600080fd5b813560206121446116c28361167e565b82815260059290921b8401810191818101908684111561216357600080fd5b8286015b8481101561170c576001600160401b03808235111561218557600080fd5b813588016040818b03601f1901121561219d57600080fd5b6121a56115a1565b86820135838111156121b657600080fd5b6121c48c89838601016117d4565b8252506040820135838111156121d957600080fd5b8083019250508a603f8301126121ee57600080fd5b868201356121fe6116c28261167e565b81815260059190911b830160400190888101908d83111561221e57600080fd5b604085015b8381101561225657868135111561223957600080fd5b6122498f604083358901016117d4565b8352918a01918a01612223565b50838a0152505085525050918301918301612167565b6000604080838503121561227f57600080fd5b6122876115a1565b915082356001600160401b03808211156122a057600080fd5b818501915085601f8301126122b457600080fd5b813560206122c46116c28361167e565b82815260059290921b840181019181810190898411156122e357600080fd5b8286015b84811015612373578035868111156122ff5760008081fd5b8701808c03601f19018913156123155760008081fd5b61231d6115a1565b858201358881111561232f5760008081fd5b61233d8e88838601016117d4565b82525089820135888111156123525760008081fd5b6123608e88838601016117d4565b82880152508452509183019183016122e7565b508752508681013594508285111561238a57600080fd5b611a3588868901612123565b600060408083850312156123a957600080fd5b6123b16115a1565b915082356001600160401b03808211156123ca57600080fd5b818501915085601f8301126123de57600080fd5b813560206123ee6116c28361167e565b82815260059290921b8401810191818101908984111561240d57600080fd5b8286015b84811015612373578035868111156124295760008081fd5b8701808c03601f190189131561243f5760008081fd5b6124476115a1565b85820135888111156124595760008081fd5b6124678e88838601016117d4565b825250898201358881111561247c5760008081fd5b61248a8e88838601016117d4565b8288015250845250918301918301612411565b600060e082840312156124af57600080fd5b6124b7611579565b905081356001600160401b03808211156124d057600080fd5b6124dc85838601611921565b835260208401359150808211156124f257600080fd5b6124fe85838601611b86565b6020840152604084013591508082111561251757600080fd5b61252385838601611b86565b6040840152606084013591508082111561253c57600080fd5b61254885838601611dce565b6060840152608084013591508082111561256157600080fd5b61256d85838601612017565b608084015260a084013591508082111561258657600080fd5b6125928583860161226c565b60a084015260c08401359150808211156125ab57600080fd5b506125b884828501612396565b60c08301525092915050565b6000806000606084860312156125d957600080fd5b8335925060208401356001600160401b03808211156125f757600080fd5b90850190610120828803121561260c57600080fd5b6126146115c3565b82358281111561262357600080fd5b830160e0818a03121561263557600080fd5b61263d611579565b612646826114a8565b8152612654602083016114a8565b6020820152612665604083016114a8565b6040820152612676606083016114a8565b6060820152612687608083016114a8565b608082015260a08201358481111561269e57600080fd5b6126aa8b8285016116a1565b60a08301525060c0820135848111156126c257600080fd5b6126ce8b8285016116a1565b60c0830152508252506126e48860208501611717565b60208201526126f7886101008501611789565b604082015280945050604086013591508082111561271457600080fd5b506127218682870161249d565b9150509250925092565b803560088110610ff257600080fd5b6000610160828403121561274d57600080fd5b6127556115e5565b90506127608261272b565b815261276e6020830161150f565b602082015260408201356040820152606082013560608201526080820135608082015260a082013560a082015260c082013560c082015260e082013560e082015261010080830135818301525061012080830135818301525061014080830135818301525092915050565b6000608082840312156127eb57600080fd5b604051608081018181106001600160401b038211171561280d5761280d611563565b60405290508061281c83611779565b815261282a60208401611779565b602082015261283b60408401611779565b604082015261284c60608401611779565b60608201525092915050565b60008060006060848603121561286d57600080fd5b8335925060208401356001600160401b038082111561288b57600080fd5b9085019061020082880312156128a057600080fd5b6128a86115c3565b8235828111156128b757600080fd5b8301610100818a0312156128ca57600080fd5b6128d2611608565b6128db826114a8565b81526128e9602083016114a8565b60208201526128fa604083016114a8565b604082015261290b606083016114a8565b606082015261291c608083016114a8565b608082015261292d60a083016114a8565b60a082015261293e60c083016114a8565b60c082015260e08201358481111561295557600080fd5b6129618b8285016116a1565b60e083015250825250612977886020850161273a565b60208201526126f78861018085016127d9565b6000806040838503121561299d57600080fd5b6129a6836114a8565b91506129b4602084016114a8565b90509250929050565b6000806000606084860312156129d257600080fd5b8335925060208401356001600160401b03808211156129f057600080fd5b8186019150610120808389031215612a0757600080fd5b612a0f6115c3565b833583811115612a1e57600080fd5b8401808a03831315612a2f57600080fd5b612a3761162b565b9250612a42816114a8565b8352612a50602082016114a8565b6020840152612a61604082016114a8565b6040840152612a72606082016114a8565b6060840152612a83608082016114a8565b6080840152612a9460a082016114a8565b60a0840152612aa560c082016114a8565b60c084015260e081013584811115612abc57600080fd5b612ac88b8284016116a1565b60e0850152506101008082013585811115612ae257600080fd5b612aee8c8285016116a1565b8286015250838352612b038b60208801611717565b6020840152612b148b828801611789565b604084015250508095505050604086013591508082111561271457600080fd5b600080600060608486031215612b4957600080fd5b83359250602084013591506114f9604085016114a8565b600060208284031215612b7257600080fd5b8135612b7d81611502565b9392505050565b6020808252825182820181905260009190848201906040850190845b81811015612bbc57835183529284019291840191600101612ba0565b50909695505050505050565b602080825282518282018190526000919060409081850190868401855b82811015612c13578151805185528601516001600160a01b0316868501529284019290850190600101612be5565b5091979650505050505050565b600060208284031215612c3257600080fd5b612b7d826114a8565b6020808252600e908201526d24b73b30b634b21031b0b63632b960911b604082015260600190565b634e487b7160e01b600052602160045260246000fd5b8281526040810160038310612c9e57634e487b7160e01b600052602160045260246000fd5b8260208301529392505050565b634e487b7160e01b600052603260045260246000fd5b81810381811115612ce257634e487b7160e01b600052601160045260246000fd5b92915050565b634e487b7160e01b600052603160045260246000fdfea2646970667358221220d85c024c08be4381f883446c3e8d05b64e23bdc4c4d55274b3583404c8d0b92b64736f6c63430008180033",
  "devdoc": {
    "details": "Contract handling callbacks for deposit, withdrawal, and order execution/cancellation.",
    "errors": {
      "OwnableInvalidOwner(address)": [
        {
          "details": "The owner is not a valid owner account. (eg. `address(0)`)"
        }
      ],
      "OwnableUnauthorizedAccount(address)": [
        {
          "details": "The caller account is not authorized to perform an operation."
        }
      ]
    },
    "kind": "dev",
    "methods": {
      "addKey(bytes32,uint8)": {
        "details": "Adds a key to the corresponding array based on the state option (Deposit, Withdrawal, Order).",
        "params": {
          "_key": "The key to be added.",
          "_stateOption": "The state option (Deposit, Withdrawal, Order)."
        }
      },
      "addWithdrawalData(bytes32,uint256,address)": {
        "details": "Adds withdrawal data for a specific key.",
        "params": {
          "_lpAmount": "The LP amount to be withdrawn.",
          "_receiver": "The address to receive the LP tokens.",
          "_withdrawalKey": "The key associated with the withdrawal data."
        }
      },
      "afterDepositCancellation(bytes32,((address,address,address,address,address,address,address,address[],address[]),(uint256,uint256,uint256,uint256,uint256,uint256,uint256),(bool)),(((string,address)[],(string,address[])[]),((string,uint256)[],(string,uint256[])[]),((string,int256)[],(string,int256[])[]),((string,bool)[],(string,bool[])[]),((string,bytes32)[],(string,bytes32[])[]),((string,bytes)[],(string,bytes[])[]),((string,string)[],(string,string[])[])))": {
        "details": "Handles actions after a deposit cancellation.",
        "params": {
          "deposit": "The deposit details.",
          "eventData": "Additional event data.",
          "key": "The key associated with the deposit."
        }
      },
      "afterDepositExecution(bytes32,((address,address,address,address,address,address,address,address[],address[]),(uint256,uint256,uint256,uint256,uint256,uint256,uint256),(bool)),(((string,address)[],(string,address[])[]),((string,uint256)[],(string,uint256[])[]),((string,int256)[],(string,int256[])[]),((string,bool)[],(string,bool[])[]),((string,bytes32)[],(string,bytes32[])[]),((string,bytes)[],(string,bytes[])[]),((string,string)[],(string,string[])[])))": {
        "details": "Handles actions after a deposit execution.",
        "params": {
          "deposit": "The deposit details.",
          "eventData": "Additional event data.",
          "key": "The key associated with the deposit."
        }
      },
      "afterOrderCancellation(bytes32,((address,address,address,address,address,address,address,address[]),(uint8,uint8,uint256,uint256,uint256,uint256,uint256,uint256,uint256,uint256,uint256),(bool,bool,bool,bool)),(((string,address)[],(string,address[])[]),((string,uint256)[],(string,uint256[])[]),((string,int256)[],(string,int256[])[]),((string,bool)[],(string,bool[])[]),((string,bytes32)[],(string,bytes32[])[]),((string,bytes)[],(string,bytes[])[]),((string,string)[],(string,string[])[])))": {
        "details": "Handles actions after an order cancellation.",
        "params": {
          "eventData": "Additional event data.",
          "key": "The key associated with the order.",
          "order": "The order details."
        }
      },
      "afterOrderExecution(bytes32,((address,address,address,address,address,address,address,address[]),(uint8,uint8,uint256,uint256,uint256,uint256,uint256,uint256,uint256,uint256,uint256),(bool,bool,bool,bool)),(((string,address)[],(string,address[])[]),((string,uint256)[],(string,uint256[])[]),((string,int256)[],(string,int256[])[]),((string,bool)[],(string,bool[])[]),((string,bytes32)[],(string,bytes32[])[]),((string,bytes)[],(string,bytes[])[]),((string,string)[],(string,string[])[])))": {
        "details": "Handles actions after an order execution.",
        "params": {
          "eventData": "Additional event data.",
          "key": "The key associated with the order.",
          "order": "The order details."
        }
      },
      "afterOrderFrozen(bytes32,((address,address,address,address,address,address,address,address[]),(uint8,uint8,uint256,uint256,uint256,uint256,uint256,uint256,uint256,uint256,uint256),(bool,bool,bool,bool)),(((string,address)[],(string,address[])[]),((string,uint256)[],(string,uint256[])[]),((string,int256)[],(string,int256[])[]),((string,bool)[],(string,bool[])[]),((string,bytes32)[],(string,bytes32[])[]),((string,bytes)[],(string,bytes[])[]),((string,string)[],(string,string[])[])))": {
        "details": "Handles actions after an order is frozen.",
        "params": {
          "eventData": "Additional event data.",
          "key": "The key associated with the order.",
          "order": "The order details."
        }
      },
      "afterWithdrawalCancellation(bytes32,((address,address,address,address,address,address[],address[]),(uint256,uint256,uint256,uint256,uint256,uint256,uint256),(bool)),(((string,address)[],(string,address[])[]),((string,uint256)[],(string,uint256[])[]),((string,int256)[],(string,int256[])[]),((string,bool)[],(string,bool[])[]),((string,bytes32)[],(string,bytes32[])[]),((string,bytes)[],(string,bytes[])[]),((string,string)[],(string,string[])[])))": {
        "details": "Handles actions after a withdrawal cancellation.",
        "params": {
          "eventData": "Additional event data.",
          "key": "The key associated with the withdrawal.",
          "withdrawal": "The withdrawal details."
        }
      },
      "afterWithdrawalExecution(bytes32,((address,address,address,address,address,address[],address[]),(uint256,uint256,uint256,uint256,uint256,uint256,uint256),(bool)),(((string,address)[],(string,address[])[]),((string,uint256)[],(string,uint256[])[]),((string,int256)[],(string,int256[])[]),((string,bool)[],(string,bool[])[]),((string,bytes32)[],(string,bytes32[])[]),((string,bytes)[],(string,bytes[])[]),((string,string)[],(string,string[])[])))": {
        "details": "Handles actions after a withdrawal execution.",
        "params": {
          "eventData": "Additional event data.",
          "key": "The key associated with the withdrawal.",
          "withdrawal": "The withdrawal details."
        }
      },
      "constructor": {
        "details": "Constructor to initialize the contract with the vault and GMX plugin addresses.",
        "params": {
          "_gmxPlugin": "Address of the GMX plugin.",
          "_vault": "Address of the vault."
        }
      },
      "getKeys(uint8)": {
        "details": "Retrieves an array of keys based on the state option (Deposit, Withdrawal, Order).",
        "params": {
          "stateOption": "The state option (Deposit, Withdrawal, Order)."
        },
        "returns": {
          "_0": "An array of keys associated with the specified state option."
        }
      },
      "getLockerStatus()": {
        "details": "Checks whether the contract is locked (i.e., no active deposit, withdrawal, or order).",
        "returns": {
          "_0": "True if the contract is locked, false otherwise."
        }
      },
      "owner()": {
        "details": "Returns the address of the current owner."
      },
      "renounceOwnership()": {
        "details": "Leaves the contract without owner. It will not be possible to call `onlyOwner` functions. Can only be called by the current owner. NOTE: Renouncing ownership will leave the contract without an owner, thereby disabling any functionality that is only available to the owner."
      },
      "setConfig(address,address)": {
        "details": "Updates the vault and GMX plugin addresses in the contract configuration.",
        "params": {
          "_gmxPlugin": "New address of the GMX plugin.",
          "_vault": "New address of the vault."
        }
      },
      "setHandler(address,address,address)": {
        "details": "Updates the deposit, withdrawal, and order handlers in the contract.",
        "params": {
          "_depositHandler": "Address of the deposit handler.",
          "_orderHandler": "Address of the order handler.",
          "_withdrawalHandler": "Address of the withdrawal handler."
        }
      },
      "transferOwnership(address)": {
        "details": "Transfers ownership of the contract to a new account (`newOwner`). Can only be called by the current owner."
      }
    },
    "title": "GmxCallback",
    "version": 1
  },
  "userdoc": {
    "kind": "user",
    "methods": {},
    "version": 1
  },
  "storageLayout": {
    "storage": [
      {
        "astId": 8,
        "contract": "contracts/vaults/theseus/GmxCallback.sol:GmxCallback",
        "label": "_owner",
        "offset": 0,
        "slot": "0",
        "type": "t_address"
      },
      {
        "astId": 5740,
        "contract": "contracts/vaults/theseus/GmxCallback.sol:GmxCallback",
        "label": "withdrawalData",
        "offset": 0,
        "slot": "1",
        "type": "t_mapping(t_bytes32,t_struct(WithdrawalInfo)5730_storage)"
      },
      {
        "astId": 5743,
        "contract": "contracts/vaults/theseus/GmxCallback.sol:GmxCallback",
        "label": "config",
        "offset": 0,
        "slot": "2",
        "type": "t_struct(Config)5735_storage"
      },
      {
        "astId": 5746,
        "contract": "contracts/vaults/theseus/GmxCallback.sol:GmxCallback",
        "label": "depositKeys",
        "offset": 0,
        "slot": "4",
        "type": "t_array(t_bytes32)dyn_storage"
      },
      {
        "astId": 5749,
        "contract": "contracts/vaults/theseus/GmxCallback.sol:GmxCallback",
        "label": "withdrawalKeys",
        "offset": 0,
        "slot": "5",
        "type": "t_array(t_bytes32)dyn_storage"
      },
      {
        "astId": 5752,
        "contract": "contracts/vaults/theseus/GmxCallback.sol:GmxCallback",
        "label": "orderKeys",
        "offset": 0,
        "slot": "6",
        "type": "t_array(t_bytes32)dyn_storage"
      },
      {
        "astId": 5754,
        "contract": "contracts/vaults/theseus/GmxCallback.sol:GmxCallback",
        "label": "depositHandler",
        "offset": 0,
        "slot": "7",
        "type": "t_address"
      },
      {
        "astId": 5756,
        "contract": "contracts/vaults/theseus/GmxCallback.sol:GmxCallback",
        "label": "withdrawalHandler",
        "offset": 0,
        "slot": "8",
        "type": "t_address"
      },
      {
        "astId": 5758,
        "contract": "contracts/vaults/theseus/GmxCallback.sol:GmxCallback",
        "label": "orderHandler",
        "offset": 0,
        "slot": "9",
        "type": "t_address"
      }
    ],
    "types": {
      "t_address": {
        "encoding": "inplace",
        "label": "address",
        "numberOfBytes": "20"
      },
      "t_array(t_bytes32)dyn_storage": {
        "base": "t_bytes32",
        "encoding": "dynamic_array",
        "label": "bytes32[]",
        "numberOfBytes": "32"
      },
      "t_bytes32": {
        "encoding": "inplace",
        "label": "bytes32",
        "numberOfBytes": "32"
      },
      "t_mapping(t_bytes32,t_struct(WithdrawalInfo)5730_storage)": {
        "encoding": "mapping",
        "key": "t_bytes32",
        "label": "mapping(bytes32 => struct GmxCallback.WithdrawalInfo)",
        "numberOfBytes": "32",
        "value": "t_struct(WithdrawalInfo)5730_storage"
      },
      "t_struct(Config)5735_storage": {
        "encoding": "inplace",
        "label": "struct GmxCallback.Config",
        "members": [
          {
            "astId": 5732,
            "contract": "contracts/vaults/theseus/GmxCallback.sol:GmxCallback",
            "label": "vault",
            "offset": 0,
            "slot": "0",
            "type": "t_address"
          },
          {
            "astId": 5734,
            "contract": "contracts/vaults/theseus/GmxCallback.sol:GmxCallback",
            "label": "gmxPlugin",
            "offset": 0,
            "slot": "1",
            "type": "t_address"
          }
        ],
        "numberOfBytes": "64"
      },
      "t_struct(WithdrawalInfo)5730_storage": {
        "encoding": "inplace",
        "label": "struct GmxCallback.WithdrawalInfo",
        "members": [
          {
            "astId": 5727,
            "contract": "contracts/vaults/theseus/GmxCallback.sol:GmxCallback",
            "label": "lpAmount",
            "offset": 0,
            "slot": "0",
            "type": "t_uint256"
          },
          {
            "astId": 5729,
            "contract": "contracts/vaults/theseus/GmxCallback.sol:GmxCallback",
            "label": "receiver",
            "offset": 0,
            "slot": "1",
            "type": "t_address"
          }
        ],
        "numberOfBytes": "64"
      },
      "t_uint256": {
        "encoding": "inplace",
        "label": "uint256",
        "numberOfBytes": "32"
      }
    }
  }
}