{
  "address": "0xeEa6a276E542A4C6e442f324A64d835D83a45B9c",
  "abi": [
    {
      "inputs": [
        {
          "internalType": "address",
          "name": "_localVault",
          "type": "address"
        }
      ],
      "stateMutability": "nonpayable",
      "type": "constructor"
    },
    {
      "inputs": [
        {
          "internalType": "address",
          "name": "target",
          "type": "address"
        }
      ],
      "name": "AddressEmptyCode",
      "type": "error"
    },
    {
      "inputs": [
        {
          "internalType": "address",
          "name": "account",
          "type": "address"
        }
      ],
      "name": "AddressInsufficientBalance",
      "type": "error"
    },
    {
      "inputs": [],
      "name": "FailedInnerCall",
      "type": "error"
    },
    {
      "inputs": [
        {
          "internalType": "address",
          "name": "owner",
          "type": "address"
        }
      ],
      "name": "OwnableInvalidOwner",
      "type": "error"
    },
    {
      "inputs": [
        {
          "internalType": "address",
          "name": "account",
          "type": "address"
        }
      ],
      "name": "OwnableUnauthorizedAccount",
      "type": "error"
    },
    {
      "inputs": [],
      "name": "ReentrancyGuardReentrantCall",
      "type": "error"
    },
    {
      "inputs": [
        {
          "internalType": "address",
          "name": "token",
          "type": "address"
        }
      ],
      "name": "SafeERC20FailedOperation",
      "type": "error"
    },
    {
      "anonymous": false,
      "inputs": [
        {
          "indexed": false,
          "internalType": "uint8",
          "name": "_actionType",
          "type": "uint8"
        },
        {
          "indexed": false,
          "internalType": "bytes32",
          "name": "_key",
          "type": "bytes32"
        }
      ],
      "name": "CancelAction",
      "type": "event"
    },
    {
      "anonymous": false,
      "inputs": [
        {
          "indexed": false,
          "internalType": "enum IPlugin.ActionType",
          "name": "_actionType",
          "type": "uint8"
        },
        {
          "indexed": false,
          "internalType": "uint256[]",
          "name": "claimedAmounts",
          "type": "uint256[]"
        }
      ],
      "name": "ClaimFromGMX",
      "type": "event"
    },
    {
      "anonymous": false,
      "inputs": [
        {
          "indexed": false,
          "internalType": "enum IPlugin.ActionType",
          "name": "_actionType",
          "type": "uint8"
        },
        {
          "indexed": false,
          "internalType": "bytes",
          "name": "_payload",
          "type": "bytes"
        }
      ],
      "name": "Execute",
      "type": "event"
    },
    {
      "anonymous": false,
      "inputs": [
        {
          "indexed": true,
          "internalType": "address",
          "name": "previousOwner",
          "type": "address"
        },
        {
          "indexed": true,
          "internalType": "address",
          "name": "newOwner",
          "type": "address"
        }
      ],
      "name": "OwnershipTransferred",
      "type": "event"
    },
    {
      "anonymous": false,
      "inputs": [
        {
          "indexed": false,
          "internalType": "uint8",
          "name": "poolId",
          "type": "uint8"
        }
      ],
      "name": "PoolAdded",
      "type": "event"
    },
    {
      "anonymous": false,
      "inputs": [
        {
          "indexed": false,
          "internalType": "uint8",
          "name": "poolId",
          "type": "uint8"
        }
      ],
      "name": "PoolRemoved",
      "type": "event"
    },
    {
      "anonymous": false,
      "inputs": [
        {
          "indexed": false,
          "internalType": "address",
          "name": "_uiFeeReceiver",
          "type": "address"
        },
        {
          "indexed": false,
          "internalType": "address",
          "name": "_callbackContract",
          "type": "address"
        },
        {
          "indexed": false,
          "internalType": "uint256",
          "name": "_callbackGasLimit",
          "type": "uint256"
        },
        {
          "indexed": false,
          "internalType": "uint256",
          "name": "_executionFee",
          "type": "uint256"
        },
        {
          "indexed": false,
          "internalType": "bool",
          "name": "_shouldUnwrapNativeToken",
          "type": "bool"
        },
        {
          "indexed": false,
          "internalType": "bytes32",
          "name": "_pnlFactorType",
          "type": "bytes32"
        }
      ],
      "name": "SetGmxParams",
      "type": "event"
    },
    {
      "anonymous": false,
      "inputs": [
        {
          "indexed": false,
          "internalType": "address",
          "name": "master",
          "type": "address"
        }
      ],
      "name": "SetMaster",
      "type": "event"
    },
    {
      "anonymous": false,
      "inputs": [
        {
          "indexed": false,
          "internalType": "address[]",
          "name": "_rewardTokens",
          "type": "address[]"
        }
      ],
      "name": "SetRewardTokens",
      "type": "event"
    },
    {
      "anonymous": false,
      "inputs": [
        {
          "indexed": false,
          "internalType": "address",
          "name": "_exchangeRouter",
          "type": "address"
        },
        {
          "indexed": false,
          "internalType": "address",
          "name": "_router",
          "type": "address"
        },
        {
          "indexed": false,
          "internalType": "address",
          "name": "_depositVault",
          "type": "address"
        },
        {
          "indexed": false,
          "internalType": "address",
          "name": "_withdrawVault",
          "type": "address"
        },
        {
          "indexed": false,
          "internalType": "address",
          "name": "_orderVault",
          "type": "address"
        },
        {
          "indexed": false,
          "internalType": "address",
          "name": "_reader",
          "type": "address"
        }
      ],
      "name": "SetRouterConfig",
      "type": "event"
    },
    {
      "anonymous": false,
      "inputs": [
        {
          "indexed": false,
          "internalType": "address",
          "name": "_tokenPriceConsumer",
          "type": "address"
        }
      ],
      "name": "SetTokenPriceConsumer",
      "type": "event"
    },
    {
      "anonymous": false,
      "inputs": [
        {
          "indexed": false,
          "internalType": "address payable",
          "name": "treasury",
          "type": "address"
        }
      ],
      "name": "SetTreasury",
      "type": "event"
    },
    {
      "anonymous": false,
      "inputs": [],
      "name": "TransferAllTokensToVault",
      "type": "event"
    },
    {
      "stateMutability": "payable",
      "type": "fallback"
    },
    {
      "inputs": [],
      "name": "ASSET_DECIMALS",
      "outputs": [
        {
          "internalType": "uint256",
          "name": "",
          "type": "uint256"
        }
      ],
      "stateMutability": "view",
      "type": "function"
    },
    {
      "inputs": [],
      "name": "MARKET_TOKEN_PRICE_DECIMALS",
      "outputs": [
        {
          "internalType": "uint256",
          "name": "",
          "type": "uint256"
        }
      ],
      "stateMutability": "view",
      "type": "function"
    },
    {
      "inputs": [
        {
          "internalType": "uint8",
          "name": "_poolId",
          "type": "uint8"
        },
        {
          "internalType": "address",
          "name": "_indexToken",
          "type": "address"
        },
        {
          "internalType": "address",
          "name": "_longToken",
          "type": "address"
        },
        {
          "internalType": "address",
          "name": "_shortToken",
          "type": "address"
        },
        {
          "internalType": "address",
          "name": "_marketToken",
          "type": "address"
        }
      ],
      "name": "addPool",
      "outputs": [],
      "stateMutability": "nonpayable",
      "type": "function"
    },
    {
      "inputs": [
        {
          "internalType": "address",
          "name": "_tokenAddress",
          "type": "address"
        },
        {
          "internalType": "uint256",
          "name": "_tokenAmount",
          "type": "uint256"
        }
      ],
      "name": "calculateTokenValueInUsd",
      "outputs": [
        {
          "internalType": "uint256",
          "name": "",
          "type": "uint256"
        }
      ],
      "stateMutability": "view",
      "type": "function"
    },
    {
      "inputs": [
        {
          "internalType": "uint256",
          "name": "_amount",
          "type": "uint256"
        },
        {
          "internalType": "uint256",
          "name": "_from",
          "type": "uint256"
        },
        {
          "internalType": "uint256",
          "name": "_to",
          "type": "uint256"
        }
      ],
      "name": "convertDecimals",
      "outputs": [
        {
          "internalType": "uint256",
          "name": "",
          "type": "uint256"
        }
      ],
      "stateMutability": "pure",
      "type": "function"
    },
    {
      "inputs": [
        {
          "internalType": "enum IPlugin.ActionType",
          "name": "_actionType",
          "type": "uint8"
        },
        {
          "internalType": "bytes",
          "name": "_payload",
          "type": "bytes"
        }
      ],
      "name": "execute",
      "outputs": [],
      "stateMutability": "payable",
      "type": "function"
    },
    {
      "inputs": [
        {
          "internalType": "uint8",
          "name": "_poolId",
          "type": "uint8"
        }
      ],
      "name": "getAllowedTokens",
      "outputs": [
        {
          "internalType": "address[]",
          "name": "",
          "type": "address[]"
        }
      ],
      "stateMutability": "view",
      "type": "function"
    },
    {
      "inputs": [],
      "name": "getBalance",
      "outputs": [
        {
          "internalType": "uint256",
          "name": "",
          "type": "uint256"
        }
      ],
      "stateMutability": "view",
      "type": "function"
    },
    {
      "inputs": [
        {
          "internalType": "uint8",
          "name": "_poolId",
          "type": "uint8"
        }
      ],
      "name": "getPoolIndexById",
      "outputs": [
        {
          "internalType": "uint256",
          "name": "poolIndex",
          "type": "uint256"
        }
      ],
      "stateMutability": "view",
      "type": "function"
    },
    {
      "inputs": [],
      "name": "getPoolLength",
      "outputs": [
        {
          "internalType": "uint256",
          "name": "",
          "type": "uint256"
        }
      ],
      "stateMutability": "view",
      "type": "function"
    },
    {
      "inputs": [],
      "name": "getPoolNumber",
      "outputs": [
        {
          "internalType": "uint256",
          "name": "",
          "type": "uint256"
        }
      ],
      "stateMutability": "view",
      "type": "function"
    },
    {
      "inputs": [
        {
          "internalType": "uint8",
          "name": "_poolId",
          "type": "uint8"
        }
      ],
      "name": "getPoolTokenInfo",
      "outputs": [
        {
          "internalType": "address",
          "name": "",
          "type": "address"
        },
        {
          "internalType": "uint8",
          "name": "",
          "type": "uint8"
        },
        {
          "internalType": "uint256",
          "name": "",
          "type": "uint256"
        }
      ],
      "stateMutability": "view",
      "type": "function"
    },
    {
      "inputs": [
        {
          "internalType": "uint8",
          "name": "_poolId",
          "type": "uint8"
        },
        {
          "internalType": "bool",
          "name": "_maximize",
          "type": "bool"
        }
      ],
      "name": "getPoolTokenPrice",
      "outputs": [
        {
          "internalType": "int256",
          "name": "",
          "type": "int256"
        }
      ],
      "stateMutability": "view",
      "type": "function"
    },
    {
      "inputs": [],
      "name": "getPoolValues",
      "outputs": [
        {
          "components": [
            {
              "internalType": "uint8",
              "name": "poolId",
              "type": "uint8"
            },
            {
              "internalType": "uint256",
              "name": "poolValue",
              "type": "uint256"
            }
          ],
          "internalType": "struct GmxPlugin.PoolValue[]",
          "name": "",
          "type": "tuple[]"
        }
      ],
      "stateMutability": "view",
      "type": "function"
    },
    {
      "inputs": [],
      "name": "getPools",
      "outputs": [
        {
          "components": [
            {
              "internalType": "uint8",
              "name": "poolId",
              "type": "uint8"
            },
            {
              "internalType": "address",
              "name": "indexToken",
              "type": "address"
            },
            {
              "internalType": "address",
              "name": "longToken",
              "type": "address"
            },
            {
              "internalType": "address",
              "name": "shortToken",
              "type": "address"
            },
            {
              "internalType": "address",
              "name": "marketToken",
              "type": "address"
            }
          ],
          "internalType": "struct GmxPlugin.PoolConfig[]",
          "name": "",
          "type": "tuple[]"
        }
      ],
      "stateMutability": "view",
      "type": "function"
    },
    {
      "inputs": [
        {
          "internalType": "address",
          "name": "token",
          "type": "address"
        }
      ],
      "name": "getTokenPriceInfo",
      "outputs": [
        {
          "components": [
            {
              "internalType": "uint256",
              "name": "min",
              "type": "uint256"
            },
            {
              "internalType": "uint256",
              "name": "max",
              "type": "uint256"
            }
          ],
          "internalType": "struct IPrice.Props",
          "name": "",
          "type": "tuple"
        }
      ],
      "stateMutability": "view",
      "type": "function"
    },
    {
      "inputs": [],
      "name": "getTotalLiquidity",
      "outputs": [
        {
          "internalType": "uint256",
          "name": "totalAsset",
          "type": "uint256"
        }
      ],
      "stateMutability": "view",
      "type": "function"
    },
    {
      "inputs": [],
      "name": "getUniqueTokenLength",
      "outputs": [
        {
          "internalType": "uint256",
          "name": "",
          "type": "uint256"
        }
      ],
      "stateMutability": "view",
      "type": "function"
    },
    {
      "inputs": [],
      "name": "getUniqueTokens",
      "outputs": [
        {
          "internalType": "address[]",
          "name": "",
          "type": "address[]"
        }
      ],
      "stateMutability": "view",
      "type": "function"
    },
    {
      "inputs": [],
      "name": "gmxParams",
      "outputs": [
        {
          "internalType": "address",
          "name": "uiFeeReceiver",
          "type": "address"
        },
        {
          "internalType": "address",
          "name": "callbackContract",
          "type": "address"
        },
        {
          "internalType": "uint256",
          "name": "callbackGasLimit",
          "type": "uint256"
        },
        {
          "internalType": "uint256",
          "name": "executionFee",
          "type": "uint256"
        },
        {
          "internalType": "bool",
          "name": "shouldUnwrapNativeToken",
          "type": "bool"
        },
        {
          "internalType": "bytes32",
          "name": "pnlFactorType",
          "type": "bytes32"
        }
      ],
      "stateMutability": "view",
      "type": "function"
    },
    {
      "inputs": [
        {
          "internalType": "address",
          "name": "_token",
          "type": "address"
        }
      ],
      "name": "isTokenAdded",
      "outputs": [
        {
          "internalType": "bool",
          "name": "",
          "type": "bool"
        }
      ],
      "stateMutability": "view",
      "type": "function"
    },
    {
      "inputs": [],
      "name": "localVault",
      "outputs": [
        {
          "internalType": "address",
          "name": "",
          "type": "address"
        }
      ],
      "stateMutability": "view",
      "type": "function"
    },
    {
      "inputs": [],
      "name": "owner",
      "outputs": [
        {
          "internalType": "address",
          "name": "",
          "type": "address"
        }
      ],
      "stateMutability": "view",
      "type": "function"
    },
    {
      "inputs": [
        {
          "internalType": "uint8",
          "name": "",
          "type": "uint8"
        }
      ],
      "name": "poolExistsMap",
      "outputs": [
        {
          "internalType": "bool",
          "name": "",
          "type": "bool"
        }
      ],
      "stateMutability": "view",
      "type": "function"
    },
    {
      "inputs": [
        {
          "internalType": "uint256",
          "name": "",
          "type": "uint256"
        }
      ],
      "name": "pools",
      "outputs": [
        {
          "internalType": "uint8",
          "name": "poolId",
          "type": "uint8"
        },
        {
          "internalType": "address",
          "name": "indexToken",
          "type": "address"
        },
        {
          "internalType": "address",
          "name": "longToken",
          "type": "address"
        },
        {
          "internalType": "address",
          "name": "shortToken",
          "type": "address"
        },
        {
          "internalType": "address",
          "name": "marketToken",
          "type": "address"
        }
      ],
      "stateMutability": "view",
      "type": "function"
    },
    {
      "inputs": [
        {
          "internalType": "uint8",
          "name": "_poolId",
          "type": "uint8"
        }
      ],
      "name": "removePool",
      "outputs": [],
      "stateMutability": "nonpayable",
      "type": "function"
    },
    {
      "inputs": [],
      "name": "renounceOwnership",
      "outputs": [],
      "stateMutability": "nonpayable",
      "type": "function"
    },
    {
      "inputs": [
        {
          "internalType": "uint256",
          "name": "",
          "type": "uint256"
        }
      ],
      "name": "rewardTokens",
      "outputs": [
        {
          "internalType": "address",
          "name": "",
          "type": "address"
        }
      ],
      "stateMutability": "view",
      "type": "function"
    },
    {
      "inputs": [],
      "name": "routerConfig",
      "outputs": [
        {
          "internalType": "address",
          "name": "exchangeRouter",
          "type": "address"
        },
        {
          "internalType": "address",
          "name": "router",
          "type": "address"
        },
        {
          "internalType": "address",
          "name": "depositVault",
          "type": "address"
        },
        {
          "internalType": "address",
          "name": "withdrawVault",
          "type": "address"
        },
        {
          "internalType": "address",
          "name": "orderVault",
          "type": "address"
        },
        {
          "internalType": "address",
          "name": "reader",
          "type": "address"
        }
      ],
      "stateMutability": "view",
      "type": "function"
    },
    {
      "inputs": [
        {
          "internalType": "address",
          "name": "_uiFeeReceiver",
          "type": "address"
        },
        {
          "internalType": "address",
          "name": "_callbackContract",
          "type": "address"
        },
        {
          "internalType": "uint256",
          "name": "_callbackGasLimit",
          "type": "uint256"
        },
        {
          "internalType": "uint256",
          "name": "_executionFee",
          "type": "uint256"
        },
        {
          "internalType": "bool",
          "name": "_shouldUnwrapNativeToken",
          "type": "bool"
        },
        {
          "internalType": "bytes32",
          "name": "_pnlFactorType",
          "type": "bytes32"
        }
      ],
      "name": "setGmxParams",
      "outputs": [],
      "stateMutability": "nonpayable",
      "type": "function"
    },
    {
      "inputs": [
        {
          "internalType": "address[]",
          "name": "_rewardTokens",
          "type": "address[]"
        }
      ],
      "name": "setRewardTokens",
      "outputs": [],
      "stateMutability": "nonpayable",
      "type": "function"
    },
    {
      "inputs": [
        {
          "internalType": "address",
          "name": "_exchangeRouter",
          "type": "address"
        },
        {
          "internalType": "address",
          "name": "_router",
          "type": "address"
        },
        {
          "internalType": "address",
          "name": "_depositVault",
          "type": "address"
        },
        {
          "internalType": "address",
          "name": "_withdrawVault",
          "type": "address"
        },
        {
          "internalType": "address",
          "name": "_orderVault",
          "type": "address"
        },
        {
          "internalType": "address",
          "name": "_reader",
          "type": "address"
        }
      ],
      "name": "setRouterConfig",
      "outputs": [],
      "stateMutability": "nonpayable",
      "type": "function"
    },
    {
      "inputs": [
        {
          "internalType": "address",
          "name": "_tokenPriceConsumer",
          "type": "address"
        }
      ],
      "name": "setTokenPriceConsumer",
      "outputs": [],
      "stateMutability": "nonpayable",
      "type": "function"
    },
    {
      "inputs": [
        {
          "internalType": "address payable",
          "name": "_treasury",
          "type": "address"
        }
      ],
      "name": "setTreasury",
      "outputs": [],
      "stateMutability": "nonpayable",
      "type": "function"
    },
    {
      "inputs": [],
      "name": "tokenPriceConsumer",
      "outputs": [
        {
          "internalType": "address",
          "name": "",
          "type": "address"
        }
      ],
      "stateMutability": "view",
      "type": "function"
    },
    {
      "inputs": [],
      "name": "transferAllTokensToVault",
      "outputs": [],
      "stateMutability": "nonpayable",
      "type": "function"
    },
    {
      "inputs": [
        {
          "internalType": "address",
          "name": "newOwner",
          "type": "address"
        }
      ],
      "name": "transferOwnership",
      "outputs": [],
      "stateMutability": "nonpayable",
      "type": "function"
    },
    {
      "inputs": [],
      "name": "treasury",
      "outputs": [
        {
          "internalType": "address payable",
          "name": "",
          "type": "address"
        }
      ],
      "stateMutability": "view",
      "type": "function"
    },
    {
      "inputs": [
        {
          "internalType": "uint256",
          "name": "",
          "type": "uint256"
        }
      ],
      "name": "uniqueTokens",
      "outputs": [
        {
          "internalType": "address",
          "name": "",
          "type": "address"
        }
      ],
      "stateMutability": "view",
      "type": "function"
    },
    {
      "inputs": [
        {
          "internalType": "uint256",
          "name": "_amount",
          "type": "uint256"
        }
      ],
      "name": "withdrawFee",
      "outputs": [],
      "stateMutability": "nonpayable",
      "type": "function"
    },
    {
      "stateMutability": "payable",
      "type": "receive"
    }
  ],
  "transactionHash": "0xcbd8ec42b5961cda4c437167afca599b93d8b7fa4f902016b93852e86ce104e2",
  "args": [
    "0x1fDf7B61963E1Fd9fF8A803A60571A24C49a447D"
  ],
  "numDeployments": 1,
  "solcInputHash": "a1ec0219dc6ea7d718d7defea6643d8c",
  "bytecode": "0x60806040523480156200001157600080fd5b50604051620058883803806200588883398101604081905262000034916200013a565b33806200005c57604051631e4fbdf760e01b8152600060048201526024015b60405180910390fd5b6200006781620000ea565b50600180556001600160a01b038116620000c45760405162461bcd60e51b815260206004820152601460248201527f474d583a20496e76616c69642041646472657373000000000000000000000000604482015260640162000053565b600280546001600160a01b0319166001600160a01b03929092169190911790556200016c565b600080546001600160a01b038381166001600160a01b0319831681178455604051919092169283917f8be0079c531659141344cd1fd0a4f28419497f9722a3daafe3b4186f6b6457e09190a35050565b6000602082840312156200014d57600080fd5b81516001600160a01b03811681146200016557600080fd5b9392505050565b61570c806200017c6000396000f3fe6080604052600436106102275760003560e01c8063845b792411610122578063c8af3807116100a5578063f0f442601161006c578063f0f4426014610739578063f2fde38b14610759578063f4db898414610779578063f66fdcca1461078e578063fb4d364c146107b057005b8063c8af3807146106c4578063d064f7d0146106e4578063d5a5731a146106f9578063df77209b14610719578063e48caf8d1461066f57005b8063a7888a34116100e9578063a7888a34146105f5578063ac4afa3814610615578063b3944d521461066f578063be35761614610684578063beafdc24146106a457005b8063845b7924146105425780638da5cb5b1461058257806396c1865b146105a0578063a0390b65146105c0578063a36532b2146105d557005b806336a60503116101aa5780636aaf6436116101715780636aaf6436146104a05780636e862fdb146104cd578063715018a6146104ed5780637bb7bed1146105025780637d2ab8bf1461052257005b806336a60503146103d25780634952cade146103f25780634df227e41461041257806361d027b31461045e578063673a2a1f1461047e57005b806326a1809b116101ee57806326a1809b1461031457806327824675146103365780632a7a524414610356578063313eb4061461037657806335c7e925146103bd57005b8063050705bb14610230578063084475861461028a57806312065fe0146102c25780631c31772f146102df578063201e81a8146102f457005b3661022e57005b005b34801561023c57600080fd5b5060045460055460065460075460085460095461026f956001600160a01b03908116958116948116938116928116911686565b604051610281969594939291906140e0565b60405180910390f35b34801561029657600080fd5b506013546102aa906001600160a01b031681565b6040516001600160a01b039091168152602001610281565b3480156102ce57600080fd5b50475b604051908152602001610281565b3480156102eb57600080fd5b506012546102d1565b34801561030057600080fd5b5061022e61030f36600461428e565b6107c3565b34801561032057600080fd5b50610329610819565b604051610281919061430f565b34801561034257600080fd5b506102d1610351366004614322565b61087b565b34801561036257600080fd5b5061032961037136600461435d565b6108d0565b34801561038257600080fd5b5061039661039136600461435d565b610a05565b604080516001600160a01b03909416845260ff909216602084015290820152606001610281565b3480156103c957600080fd5b506102d1610b9b565b3480156103de57600080fd5b506102d16103ed36600461437a565b610df5565b3480156103fe57600080fd5b506102d161040d36600461435d565b610f85565b34801561041e57600080fd5b50600a54600b54600c54600d54600e54600f5461044c956001600160a01b03908116951693929160ff169086565b604051610281969594939291906143a6565b34801561046a57600080fd5b506003546102aa906001600160a01b031681565b34801561048a57600080fd5b50610493611015565b60405161028191906143de565b3480156104ac57600080fd5b506104c06104bb36600461445f565b6110b6565b604051610281919061447c565b3480156104d957600080fd5b5061022e6104e8366004614493565b6112a6565b3480156104f957600080fd5b5061022e611442565b34801561050e57600080fd5b506102aa61051d366004614515565b611456565b34801561052e57600080fd5b5061022e61053d36600461435d565b611480565b34801561054e57600080fd5b5061057261055d36600461435d565b60116020526000908152604090205460ff1681565b6040519015158152602001610281565b34801561058e57600080fd5b506000546001600160a01b03166102aa565b3480156105ac57600080fd5b506102d16105bb366004614547565b611669565b3480156105cc57600080fd5b5061022e6118a1565b3480156105e157600080fd5b506105726105f036600461445f565b611a03565b34801561060157600080fd5b5061022e61061036600461445f565b611a62565b34801561062157600080fd5b50610635610630366004614515565b611b05565b6040805160ff90961686526001600160a01b039485166020870152928416928501929092528216606084015216608082015260a001610281565b34801561067b57600080fd5b506010546102d1565b34801561069057600080fd5b5061022e61069f366004614515565b611b5a565b3480156106b057600080fd5b506102aa6106bf366004614515565b611cb3565b3480156106d057600080fd5b5061022e6106df366004614580565b611cc3565b3480156106f057600080fd5b506102d1601e81565b34801561070557600080fd5b5061022e6107143660046145f1565b611fc5565b34801561072557600080fd5b506002546102aa906001600160a01b031681565b34801561074557600080fd5b5061022e61075436600461445f565b612081565b34801561076557600080fd5b5061022e61077436600461445f565b612126565b34801561078557600080fd5b506102d1602481565b34801561079a57600080fd5b506107a3612164565b6040516102819190614658565b61022e6107be36600461469d565b61239c565b6107cb6124f0565b80516107de90601490602084019061406f565b507f69be44b81d4f8b6cf7825a37f020b264079658f3d72856eeb0a0efed09c7d3928160405161080e919061430f565b60405180910390a150565b6060601280548060200260200160405190810160405280929190818152602001828054801561087157602002820191906000526020600020905b81546001600160a01b03168152600190910190602001808311610853575b5050505050905090565b60008183106108aa5761088e828461473b565b61089990600a614832565b6108a3908561483e565b90506108c9565b6108b4838361473b565b6108bf90600a614832565b6108a39085614860565b9392505050565b60ff8082166000908152601160205260409020546060918291166108f45792915050565b604080516002808252606082018352600092602083019080368337019050509050600061092085610f85565b905060006010828154811061093757610937614877565b600091825260208083206040805160a0810182526004909402909101805460ff811685526001600160a01b036101009091048116938501939093526001810154831691840182905260028101548316606085015260030154909116608083015285519193509185916109ab576109ab614877565b60200260200101906001600160a01b031690816001600160a01b0316815250508060600151836001815181106109e3576109e3614877565b6001600160a01b03909216602092830291909101909101525090949350505050565b60ff80821660009081526011602052604081205490918291829116610a3257506000915081905080610b94565b6000610a3d85610f85565b9050600060108281548110610a5457610a54614877565b600091825260208083206040805160a0810182526004948502909201805460ff811684526001600160a01b0361010090910481168486015260018201548116848401526002820154811660608501526003909101541660808301819052815163313ce56760e01b815291519296509363313ce567938282019390929091908290030181865afa158015610aeb573d6000803e3d6000fd5b505050506040513d601f19601f82011682018060405250810190610b0f919061488d565b60808301516040516370a0823160e01b81523060048201529192506000916001600160a01b03909116906370a0823190602401602060405180830381865afa158015610b5f573d6000803e3d6000fd5b505050506040513d601f19601f82011682018060405250810190610b8391906148aa565b608090930151965090945090925050505b9193909250565b6000805b601254811015610c5a57600060128281548110610bbe57610bbe614877565b60009182526020822001546040516370a0823160e01b81523060048201526001600160a01b03909116925082906370a0823190602401602060405180830381865afa158015610c11573d6000803e3d6000fd5b505050506040513d601f19601f82011682018060405250810190610c3591906148aa565b9050610c418282610df5565b610c4b90856148c3565b93505050806001019050610b9f565b5060005b601054811015610df157600060108281548110610c7d57610c7d614877565b600091825260208220600491820201600301546040516370a0823160e01b815230928101929092526001600160a01b0316925082906370a0823190602401602060405180830381865afa158015610cd8573d6000803e3d6000fd5b505050506040513d601f19601f82011682018060405250810190610cfc91906148aa565b90506000610d3160108581548110610d1657610d16614877565b600091825260209091206004909102015460ff166001611669565b905060008113610d4357505050610de9565b6000610d4f8284614860565b90506000601e856001600160a01b031663313ce5676040518163ffffffff1660e01b8152600401602060405180830381865afa158015610d93573d6000803e3d6000fd5b505050506040513d601f19601f82011682018060405250810190610db7919061488d565b60ff16610dc491906148c3565b90506000610dd48383602461087b565b9050610de081896148c3565b97505050505050505b600101610c5e565b5090565b6013546040516358e8662560e01b81526001600160a01b03848116600483015260009283929116906358e8662590602401602060405180830381865afa158015610e43573d6000803e3d6000fd5b505050506040513d601f19601f82011682018060405250810190610e67919061488d565b601354604051636a24d41960e11b81526001600160a01b03878116600483015260ff9390931693506000929091169063d449a83290602401602060405180830381865afa158015610ebc573d6000803e3d6000fd5b505050506040513d601f19601f82011682018060405250810190610ee0919061488d565b601354604051630681320d60e51b81526001600160a01b03888116600483015260ff9390931693506000929091169063d02641a090602401602060405180830381865afa158015610f35573d6000803e3d6000fd5b505050506040513d601f19601f82011682018060405250810190610f5991906148aa565b9050610f79610f688287614860565b610f7284866148c3565b602461087b565b93505050505b92915050565b6000805b601054811015610fd1578260ff1660108281548110610faa57610faa614877565b600091825260209091206004909102015460ff1603610fc95792915050565b600101610f89565b5060405162461bcd60e51b815260206004820152601360248201527211d3560e88141bdbdb081b9bdd08199bdd5b99606a1b60448201526064015b60405180910390fd5b60606010805480602002602001604051908101604052809291908181526020016000905b828210156110ad5760008481526020908190206040805160a08101825260048602909201805460ff811684526001600160a01b036101009091048116848601526001808301548216938501939093526002820154811660608501526003909101541660808301529083529092019101611039565b50505050905090565b60408051808201909152600080825260208201526001600160a01b0382166110f1575050604080518082019091526000808252602082015290565b6013546040516358e8662560e01b81526001600160a01b0384811660048301529091169060009082906358e8662590602401602060405180830381865afa158015611140573d6000803e3d6000fd5b505050506040513d601f19601f82011682018060405250810190611164919061488d565b6040805180820191829052630681320d60e51b9091526001600160a01b03868116604483015260ff929092169250600091819061126090861663d02641a0606484015b602060405180830381865afa1580156111c4573d6000803e3d6000fd5b505050506040513d601f19601f820116820180604052508101906111e891906148aa565b604051636a24d41960e11b81526001600160a01b038a8116600483015288169063d449a83290602401602060405180830381865afa15801561122e573d6000803e3d6000fd5b505050506040513d601f19601f82011682018060405250810190611252919061488d565b60ff1661035187601e61473b565b8152604051630681320d60e51b81526001600160a01b03888116600483015260209092019161129b919087169063d02641a0906024016111a7565b905295945050505050565b6112ae6124f0565b6001600160a01b038616158015906112ce57506001600160a01b03851615155b80156112e257506001600160a01b03841615155b80156112f657506001600160a01b03831615155b801561130a57506001600160a01b03821615155b801561131e57506001600160a01b03811615155b6113615760405162461bcd60e51b8152602060048201526014602482015273474d583a20496e76616c6964204164647265737360601b604482015260640161100c565b6040805160c0810182526001600160a01b0380891680835288821660208401819052888316848601819052888416606086018190528885166080870181905294881660a0909601869052600480546001600160a01b0319908116909517905560058054851690931790925560068054841690911790556007805483169091179055600880548216909217909155600980549091169091179055517f426776d3b733c4a7464cf1dd3d3c5d81199723dd1cec0de97ff4e053ce32cbf590611432908890889088908890889088906140e0565b60405180910390a1505050505050565b61144a6124f0565b611454600061251d565b565b6014818154811061146657600080fd5b6000918252602090912001546001600160a01b0316905081565b6114886124f0565b60ff808216600090815260116020526040902054166114b95760405162461bcd60e51b815260040161100c906148d6565b60006114c482610f85565b6010549091506000906114d99060019061473b565b90508082146115ac57601081815481106114f5576114f5614877565b90600052602060002090600402016010838154811061151657611516614877565b600091825260209091208254600490920201805460ff90921660ff1983168117825583546001600160a81b031990931617610100928390046001600160a01b0390811690930217815560018084015490820180549184166001600160a01b031992831617905560028085015490830180549185169183169190911790556003938401549390910180549390921692169190911790555b60108054806115bd576115bd61491f565b6000828152602080822060046000199094019384020180546001600160a81b03191681556001810180546001600160a01b0319908116909155600282018054821690556003909101805490911690559190925560ff851682526011905260409020805460ff1916905561162e61256d565b60405160ff841681527f0f19bfba9b2e5adda8bcdbd5c0583080cf3871c58286275b1e90451cb0130aec9060200160405180910390a1505050565b60ff80831660009081526011602052604081205490911661169c5760405162461bcd60e51b815260040161100c906148d6565b600060106116a985610f85565b815481106116b9576116b9614877565b600091825260208083206040805160a0810182526004948502909201805460ff811684526001600160a01b036101009091048116848601526001820154811684840152600282015481166060850152600390910154811660808401528454825163660d0d6760e01b81529251939750169493859363660d0d679383830193919290918290030181865afa158015611754573d6000803e3d6000fd5b505050506040513d601f19601f820116820180604052508101906117789190614935565b90506000604051806080016040528085608001516001600160a01b0316815260200185602001516001600160a01b0316815260200185604001516001600160a01b0316815260200185606001516001600160a01b0316815250905060006117e285602001516110b6565b905060006117f386604001516110b6565b9050600061180487606001516110b6565b600f5460095460405163095ce6c560e01b815292935090918b916000916001600160a01b039091169063095ce6c59061184d908b908b908b908b908b908b908b90600401614952565b61018060405180830381865afa15801561186b573d6000803e3d6000fd5b505050506040513d601f19601f8201168201806040525081019061188f91906149ed565b509d9c50505050505050505050505050565b600b546001600160a01b031633146118ec5760405162461bcd60e51b815260206004820152600e60248201526d24b73b30b634b21031b0b63632b960911b604482015260640161100c565b60005b6012548110156119d75760006012828154811061190e5761190e614877565b6000918252602090912001546040516370a0823160e01b81523060048201526001600160a01b03909116906370a0823190602401602060405180830381865afa15801561195f573d6000803e3d6000fd5b505050506040513d601f19601f8201168201806040525081019061198391906148aa565b905080156119ce57600254601280546119ce926001600160a01b0316918491869081106119b2576119b2614877565b6000918252602090912001546001600160a01b0316919061267b565b506001016118ef565b506040517f52095ed2fa7d7c4dd1c5e9a36b117c9a00bd764878e68f95da78cc6f4f54763590600090a1565b6000805b601254811015611a5957826001600160a01b031660128281548110611a2e57611a2e614877565b6000918252602090912001546001600160a01b031603611a515750600192915050565b600101611a07565b50600092915050565b611a6a6124f0565b6001600160a01b038116611ab75760405162461bcd60e51b8152602060048201526014602482015273474d583a20496e76616c6964204164647265737360601b604482015260640161100c565b601380546001600160a01b0319166001600160a01b0383169081179091556040519081527f31304382ad8ca8091d6b1faad35fded717d1771446c64094a9941158a525d2559060200161080e565b60108181548110611b1557600080fd5b6000918252602090912060049091020180546001820154600283015460039093015460ff831694506001600160a01b0361010090930483169391831692918216911685565b611b626124f0565b4781811015611bb35760405162461bcd60e51b815260206004820152601f60248201527f5661756c743a20496e76616c696420776974686472617720616d6f756e742e00604482015260640161100c565b6003546001600160a01b0316611c0b5760405162461bcd60e51b815260206004820152601760248201527f5661756c743a20496e76616c6964207472656173757279000000000000000000604482015260640161100c565b6003546040516000916001600160a01b03169084908381818185875af1925050503d8060008114611c58576040519150601f19603f3d011682016040523d82523d6000602084013e611c5d565b606091505b5050905080611cae5760405162461bcd60e51b815260206004820152601b60248201527f5661756c743a204661696c656420746f2073656e642045746865720000000000604482015260640161100c565b505050565b6012818154811061146657600080fd5b611ccb6124f0565b8460ff16600003611d155760405162461bcd60e51b815260206004820152601460248201527311d3560e88125b9d985b1a5908141bdbdb08125960621b604482015260640161100c565b60ff8086166000908152601160205260409020541615611d895760405162461bcd60e51b815260206004820152602960248201527f474d583a20506f6f6c2077697468207468697320706f6f6c496420616c72656160448201526864792065786973747360b81b606482015260840161100c565b6040805160a08101825260ff8088168083526001600160a01b0380891660208086019182528983168688019081528984166060880190815289851660808901908152601080546001818101835560009283528b5160049092027f1b6847dc741a1b0cd08d278845f9d819d87b734759afb55fe2de5cb82a9ae6728101805499518b16610100026001600160a81b0319909a1693909c16929092179790971790995592517f1b6847dc741a1b0cd08d278845f9d819d87b734759afb55fe2de5cb82a9ae673890180549188166001600160a01b031992831617905591517f1b6847dc741a1b0cd08d278845f9d819d87b734759afb55fe2de5cb82a9ae67489018054918816918416919091179055517f1b6847dc741a1b0cd08d278845f9d819d87b734759afb55fe2de5cb82a9ae67590970180549790951696169590951790925591835260119052929020805460ff1916909217909155611ee984611a03565b611f3957601280546001810182556000919091527fbb8a6a4669ba250d26cd7a459eca9d215f8307e33aebe50379bc5a3617ec34440180546001600160a01b0319166001600160a01b0386161790555b611f4283611a03565b611f9257601280546001810182556000919091527fbb8a6a4669ba250d26cd7a459eca9d215f8307e33aebe50379bc5a3617ec34440180546001600160a01b0319166001600160a01b0385161790555b60405160ff871681527f09cce9a1e4000121ddb6c53c0c6161a69a7fd0c028b5970acddf3350a920489190602001611432565b611fcd6124f0565b6040805160c0810182526001600160a01b0380891680835290881660208301819052828401889052606083018790528515156080840181905260a0909301859052600a80546001600160a01b03199081169093179055600b8054909216179055600c869055600d859055600e805460ff19169091179055600f829055517f03d83cb733840674aae397a1ef6a2080fdfcd1f99bfa2efd1092d816f3239afa90611432908890889088908890889088906143a6565b6120896124f0565b6001600160a01b0381166120d85760405162461bcd60e51b81526020600482015260166024820152755661756c743a20496e76616c6964206164647265737360501b604482015260640161100c565b600380546001600160a01b0319166001600160a01b0383169081179091556040519081527fcb7ef3e545f5cdb893f5c568ba710fe08f336375a2d9fd66e161033f8fc09ef39060200161080e565b61212e6124f0565b6001600160a01b03811661215857604051631e4fbdf760e01b81526000600482015260240161100c565b6121618161251d565b50565b6010546060906000906001600160401b038111156121845761218461411a565b6040519080825280602002602001820160405280156121c957816020015b60408051808201909152600080825260208201528152602001906001900390816121a25790505b50905060005b601054811015612396576000601082815481106121ee576121ee614877565b600091825260208220600491820201600301546040516370a0823160e01b815230928101929092526001600160a01b0316925082906370a0823190602401602060405180830381865afa158015612249573d6000803e3d6000fd5b505050506040513d601f19601f8201168201806040525081019061226d91906148aa565b9050600061228760108581548110610d1657610d16614877565b905060008082131561232757600061229f8385614860565b90506000601e866001600160a01b031663313ce5676040518163ffffffff1660e01b8152600401602060405180830381865afa1580156122e3573d6000803e3d6000fd5b505050506040513d601f19601f82011682018060405250810190612307919061488d565b60ff1661231491906148c3565b90506123228282602461087b565b925050505b600060405180604001604052806010888154811061234757612347614877565b60009182526020918290206004909102015460ff168252018390528751909150819088908890811061237b5761237b614877565b602002602001018190525050505050508060010190506121cf565b50919050565b6002546001600160a01b031633146123e75760405162461bcd60e51b815260206004820152600e60248201526d24b73b30b634b21031b0b63632b960911b604482015260640161100c565b6123ef6126da565b600083600881111561240357612403614aa1565b03612417576124128282612704565b6124ac565b600183600881111561242b5761242b614aa1565b0361243a576124128282612abd565b600283600881111561244e5761244e614aa1565b0361245d576124128282612b02565b600483600881111561247157612471614aa1565b03612480576124128282612b1b565b600383600881111561249457612494614aa1565b036124a157612412612bb1565b6124ac838383612c80565b7f7602f37cd960866e4a851b683e367e8794f21cddd908ce1d9fe92b978a59f1018383836040516124df93929190614acb565b60405180910390a1611cae60018055565b6000546001600160a01b031633146114545760405163118cdaa760e01b815233600482015260240161100c565b600080546001600160a01b038381166001600160a01b0319831681178455604051919092169283917f8be0079c531659141344cd1fd0a4f28419497f9722a3daafe3b4186f6b6457e09190a35050565b6012545b8015612161576125b1601261258760018461473b565b8154811061259757612597614877565b6000918252602090912001546001600160a01b0316612f44565b61266957601280546125c59060019061473b565b815481106125d5576125d5614877565b6000918252602090912001546001600160a01b031660126125f760018461473b565b8154811061260757612607614877565b9060005260206000200160006101000a8154816001600160a01b0302191690836001600160a01b0316021790555060128054806126465761264661491f565b600082815260209020810160001990810180546001600160a01b03191690550190555b8061267381614b08565b915050612571565b6040516001600160a01b03838116602483015260448201839052611cae91859182169063a9059cbb906064015b604051602081830303815290604052915060e01b6020820180516001600160e01b038381831617835250505050612fe5565b6002600154036126fd57604051633ee5aeb560e01b815260040160405180910390fd5b6002600155565b600080808061271585870187614bf6565b935093509350935060008180602001905181019061273391906148aa565b60ff808716600090815260116020526040902054919250166127675760405162461bcd60e51b815260040161100c906148d6565b83516002148015612779575082516002145b6127c55760405162461bcd60e51b815260206004820152601b60248201527f474d583a204172726179206c656e677468206d75737420626520320000000000604482015260640161100c565b60006127d086610f85565b90506000601082815481106127e7576127e7614877565b600091825260208083206040805160a0810182526004909402909101805460ff811685526001600160a01b03610100909104811693850193909352600181015483169184019190915260028101548216606084015260030154166080820152875190925087919061285a5761285a614877565b60200260200101516001600160a01b031681604001516001600160a01b03161480156128b557508560018151811061289457612894614877565b60200260200101516001600160a01b031681606001516001600160a01b0316145b6129015760405162461bcd60e51b815260206004820152601860248201527f474d583a20496e76616c696420506f6f6c20746f6b656e730000000000000000604482015260640161100c565b8460008151811061291457612914614877565b6020026020010151600014158061294657508460018151811061293957612939614877565b6020026020010151600014155b6129925760405162461bcd60e51b815260206004820152601960248201527f474d583a20496e76616c696420746f6b656e20616d6f756e7400000000000000604482015260640161100c565b6000856000815181106129a7576129a7614877565b60200260200101511115612a01576002548551612a01916001600160a01b031690309088906000906129db576129db614877565b602002602001015184604001516001600160a01b0316613048909392919063ffffffff16565b600085600181518110612a1657612a16614877565b60200260200101511115612a72576002548551612a72916001600160a01b031690309088906001908110612a4c57612a4c614877565b602002602001015184606001516001600160a01b0316613048909392919063ffffffff16565b612ab28786600081518110612a8957612a89614877565b602002602001015187600181518110612aa457612aa4614877565b602002602001015186613076565b505050505050505050565b600080808080612acf86880188614c90565b9450945094509450945060008082806020019051810190612af09190614d05565b91509150612ab28787878585896134a3565b6000612b1082840184614e56565b9050611cae816139a5565b600080612b2a83850185614f3b565b915091508160ff16600003612b4757612b4281613cb8565b612b6f565b8160ff16600103612b5b57612b4281613d1b565b8160ff16600203612b6f57612b6f81613d4c565b6040805160ff84168152602081018390527f8f9edcb63f442052ba4d68bdd7cf50e8bb5f615f31ba22ecb1eab71fa256dddf910160405180910390a150505050565b60005b60145481101561216157600060148281548110612bd357612bd3614877565b6000918252602090912001546040516370a0823160e01b81523060048201526001600160a01b03909116906370a0823190602401602060405180830381865afa158015612c24573d6000803e3d6000fd5b505050506040513d601f19601f82011682018060405250810190612c4891906148aa565b90508015612c775760025460148054612c77926001600160a01b0316918491869081106119b2576119b2614877565b50600101612bb4565b6000808080612c9185870187614f59565b9350935093509350600084516001600160401b03811115612cb457612cb461411a565b604051908082528060200260200182016040528015612cdd578160200160208202803683370190505b506004549091506001600160a01b03166005896008811115612d0157612d01614aa1565b03612dc45760025460405162d4e5d960e11b81526001600160a01b03838116926301a9cbb2928792612d3d928c928c9290911690600401614fe8565b60006040518083038185885af1158015612d5b573d6000803e3d6000fd5b50505050506040513d6000823e601f3d908101601f19168201604052612d849190810190615026565b91507f4a13c8ea7a1f6f30b1fa8423940f85d7a03ef81dcf0aa89405dbf743978197368983604051612db79291906150e7565b60405180910390a1612ab2565b6006896008811115612dd857612dd8614aa1565b03612e15576002546040516324943d1160e11b81526001600160a01b03838116926349287a22928792612d3d928c928c9290911690600401614fe8565b6007896008811115612e2957612e29614aa1565b03612e665760025460405163e9249b5760e01b81526001600160a01b038084169263e9249b57928792612d3d928c928c928c921690600401615107565b6008896008811115612e7a57612e7a614aa1565b03612ab25760025460405163c41b1ab360e01b81526001600160a01b038381169263c41b1ab3928792612eb7928c928c9290911690600401614fe8565b60006040518083038185885af1158015612ed5573d6000803e3d6000fd5b50505050506040513d6000823e601f3d908101601f19168201604052612efe9190810190615026565b91507f4a13c8ea7a1f6f30b1fa8423940f85d7a03ef81dcf0aa89405dbf743978197368983604051612f319291906150e7565b60405180910390a1505050505050505050565b6000805b601054811015611a5957826001600160a01b031660108281548110612f6f57612f6f614877565b60009182526020909120600160049092020101546001600160a01b03161480612fcf5750826001600160a01b031660108281548110612fb057612fb0614877565b60009182526020909120600260049092020101546001600160a01b0316145b15612fdd5750600192915050565b600101612f48565b6000612ffa6001600160a01b03841683613d7d565b9050805160001415801561301f57508080602001905181019061301d919061515a565b155b15611cae57604051635274afe760e01b81526001600160a01b038416600482015260240161100c565b61307084856001600160a01b03166323b872dd8686866040516024016126a893929190615177565b50505050565b6000601061308386610f85565b8154811061309357613093614877565b60009182526020918290206040805160a080820183526004948502909301805460ff80821684526001600160a01b03610100928390048116858a015260018401548116858701819052600285015482166060808801829052600390960154831660808089018290529a54600d548a5161018081018c52308152600b5487169e81019e909e52600a5486169a8e019a909a528c88018290529a8c01839052988b0181905260c08b0186905260e08b01869052938a018c9052600e5490921615156101208a01526101408901869052600c546101608a0152939850959092169591939290918291908b1561319957600554613199906001600160a01b0389811691168e613d8b565b8a156131b9576005546131b9906001600160a01b0388811691168d613d8b565b60408051600480825260a08201909252600091816020015b60608152602001906001900390816131d1579050506006546040516001600160a01b0390911660248201526044810185905290915060640160408051601f198184030181529190526020810180516001600160e01b0316637d39aaf160e01b1790528151829060009061324657613246614877565b602002602001018190525087600460020160009054906101000a90046001600160a01b03168e60405160240161327e93929190615177565b60408051601f198184030181529190526020810180516001600160e01b0316631cdacd5960e31b1790528151829060019081106132bd576132bd614877565b60209081029190910101526006546040516132ea9189916001600160a01b03909116908f90602401615177565b60408051601f198184030181529190526020810180516001600160e01b0316631cdacd5960e31b17905281518290600290811061332957613329614877565b602002602001018190525081604051602401613345919061519b565b60408051601f198184030181529190526020810180516001600160e01b0316635b4e956160e01b17905281518290600390811061338457613384614877565b60200260200101819052506000896001600160a01b031663ac9650d885846040518363ffffffff1660e01b81526004016133be91906152c8565b60006040518083038185885af11580156133dc573d6000803e3d6000fd5b50505050506040513d6000823e601f3d908101601f191682016040526134059190810190615342565b600b5481519192506001600160a01b031690632c99327a908390600390811061343057613430614877565b60200260200101516134419061542e565b60006040518363ffffffff1660e01b8152600401613460929190615462565b600060405180830381600087803b15801561347a57600080fd5b505af115801561348e573d6000803e3d6000fd5b50505050505050505050505050505050505050565b600060106134b088610f85565b815481106134c0576134c0614877565b600091825260208083206040805160a0810182526004948502909201805460ff8116845261010090046001600160a01b0390811694840194909452600181015484168383015260028101548416606080850191909152600390910154841660808401819052855492516370a0823160e01b815230968101969096529296509216939192839291906370a0823190602401602060405180830381865afa15801561356d573d6000803e3d6000fd5b505050506040513d601f19601f8201168201806040525081019061359191906148aa565b90508981101580156135a3575060008a115b6135fe5760405162461bcd60e51b815260206004820152602660248201527f474d583a20496e73756666696369656e74206d61726b657420746f6b656e2062604482015265616c616e636560d01b606482015260840161100c565b60408051610160810182526001600160a01b038089168252600b5481166020830152600a54811692820192909252608080880180518416606084015290820186905260a0820185905260c082018b905260e082018a9052600e5460ff161515610100830152600d54610120830152600c546101408301526005549051919261368a92811691168d613d8b565b60408051600380825260808201909252600091816020015b60608152602001906001900390816136a257905050600754600d546040516001600160a01b039092166024830152604482015290915060640160408051601f198184030181529190526020810180516001600160e01b0316637d39aaf160e01b1790528151829060009061371857613718614877565b6020908102919091010152608087015160075460405161374792916001600160a01b0316908f90602401615177565b60408051601f198184030181529190526020810180516001600160e01b0316631cdacd5960e31b17905281518290600190811061378657613786614877565b6020026020010181905250816040516024016137a2919061547f565b60408051601f198184030181529190526020810180516001600160e01b031663ad23c5a160e01b1790528151829060029081106137e1576137e1614877565b6020908102919091010152600d54604051631592ca1b60e31b81526000916001600160a01b0389169163ac9650d8919061381f9086906004016152c8565b60006040518083038185885af115801561383d573d6000803e3d6000fd5b50505050506040513d6000823e601f3d908101601f191682016040526138669190810190615342565b600b5481519192506001600160a01b031690632c99327a908390600290811061389157613891614877565b60200260200101516138a29061542e565b60016040518363ffffffff1660e01b81526004016138c1929190615462565b600060405180830381600087803b1580156138db57600080fd5b505af11580156138ef573d6000803e3d6000fd5b5050600b5483516001600160a01b03909116925063c9cbe54e91508390600290811061391d5761391d614877565b602002602001015161392e9061542e565b6040516001600160e01b031960e084901b1681526004810191909152602481018f90526001600160a01b038c166044820152606401600060405180830381600087803b15801561397d57600080fd5b505af1158015613991573d6000803e3d6000fd5b505050505050505050505050505050505050565b6002548151516001600160a01b039081169116146139f85760405162461bcd60e51b815260206004820152601060248201526f24b73b30b634b2103932b1b2b4bb32b960811b604482015260640161100c565b60025481516001600160a01b03918216602091820152600b548351908316604090910152600a548351908316606090910152600c54818401805160a09081018390526004548651820151835195860151600d5460809097019690965292519091019290925292169190600084604001516007811115613a7957613a79614aa1565b1480613a9a5750600184604001516007811115613a9857613a98614aa1565b145b80613aba5750600284604001516007811115613ab857613ab8614aa1565b145b80613ada5750600384604001516007811115613ad857613ad8614aa1565b145b15613b7b57600254613afa906001600160a01b0384811691163084613048565b600554613b14906001600160a01b03848116911683613d8b565b600854604051631cdacd5960e31b81526001600160a01b038086169263e6d66ac892613b4892879216908690600401615177565b600060405180830381600087803b158015613b6257600080fd5b505af1158015613b76573d6000803e3d6000fd5b505050505b600d54600854604051637d39aaf160e01b81526001600160a01b0391821660048201526024810183905290851691637d39aaf1916044016000604051808303818588803b158015613bcb57600080fd5b505af1158015613bdf573d6000803e3d6000fd5b505060405163041e7e7760e11b8152600093506001600160a01b038716925063083cfcee9150613c139088906004016155e5565b6020604051808303816000875af1158015613c32573d6000803e3d6000fd5b505050506040513d601f19601f82011682018060405250810190613c5691906148aa565b600b5460405163164c993d60e11b81529192506001600160a01b031690632c99327a90613c8a908490600290600401615462565b600060405180830381600087803b158015613ca457600080fd5b505af1158015612ab2573d6000803e3d6000fd5b60048054604051630c50112160e21b81529182018390526001600160a01b03169081906331404484906024015b600060405180830381600087803b158015613cff57600080fd5b505af1158015613d13573d6000803e3d6000fd5b505050505050565b600480546040516303909e2d60e51b81529182018390526001600160a01b0316908190637213c5a090602401613ce5565b60048054604051637489ec2360e01b81529182018390526001600160a01b0316908190637489ec2390602401613ce5565b60606108c983836000613e15565b604051636eb1769f60e11b81523060048201526001600160a01b0383811660248301526000919085169063dd62ed3e90604401602060405180830381865afa158015613ddb573d6000803e3d6000fd5b505050506040513d601f19601f82011682018060405250810190613dff91906148aa565b90506130708484613e1085856148c3565b613eb2565b606081471015613e3a5760405163cd78605960e01b815230600482015260240161100c565b600080856001600160a01b03168486604051613e5691906156ba565b60006040518083038185875af1925050503d8060008114613e93576040519150601f19603f3d011682016040523d82523d6000602084013e613e98565b606091505b5091509150613ea8868383613f42565b9695505050505050565b604080516001600160a01b038416602482015260448082018490528251808303909101815260649091019091526020810180516001600160e01b031663095ea7b360e01b179052613f038482613f9e565b613070576040516001600160a01b03848116602483015260006044830152613f3891869182169063095ea7b3906064016126a8565b6130708482612fe5565b606082613f5757613f5282614046565b6108c9565b8151158015613f6e57506001600160a01b0384163b155b15613f9757604051639996b31560e01b81526001600160a01b038516600482015260240161100c565b50806108c9565b6000806000846001600160a01b031684604051613fbb91906156ba565b6000604051808303816000865af19150503d8060008114613ff8576040519150601f19603f3d011682016040523d82523d6000602084013e613ffd565b606091505b5091509150818015614027575080511580614027575080806020019051810190614027919061515a565b801561403d57506000856001600160a01b03163b115b95945050505050565b8051156140565780518082602001fd5b604051630a12f52160e11b815260040160405180910390fd5b8280548282559060005260206000209081019282156140c4579160200282015b828111156140c457825182546001600160a01b0319166001600160a01b0390911617825560209092019160019091019061408f565b50610df19291505b80821115610df157600081556001016140cc565b6001600160a01b0396871681529486166020860152928516604085015290841660608401528316608083015290911660a082015260c00190565b634e487b7160e01b600052604160045260246000fd5b60405161016081016001600160401b03811182821017156141535761415361411a565b60405290565b60405160e081016001600160401b03811182821017156141535761415361411a565b60405161010081016001600160401b03811182821017156141535761415361411a565b604051601f8201601f191681016001600160401b03811182821017156141c6576141c661411a565b604052919050565b60006001600160401b038211156141e7576141e761411a565b5060051b60200190565b6001600160a01b038116811461216157600080fd5b8035614211816141f1565b919050565b600082601f83011261422757600080fd5b8135602061423c614237836141ce565b61419e565b8083825260208201915060208460051b87010193508684111561425e57600080fd5b602086015b84811015614283578035614276816141f1565b8352918301918301614263565b509695505050505050565b6000602082840312156142a057600080fd5b81356001600160401b038111156142b657600080fd5b6142c284828501614216565b949350505050565b60008151808452602080850194506020840160005b838110156143045781516001600160a01b0316875295820195908201906001016142df565b509495945050505050565b6020815260006108c960208301846142ca565b60008060006060848603121561433757600080fd5b505081359360208301359350604090920135919050565b60ff8116811461216157600080fd5b60006020828403121561436f57600080fd5b81356108c98161434e565b6000806040838503121561438d57600080fd5b8235614398816141f1565b946020939093013593505050565b6001600160a01b039687168152949095166020850152604084019290925260608301521515608082015260a081019190915260c00190565b602080825282518282018190526000919060409081850190868401855b82811015614452578151805160ff168552868101516001600160a01b039081168887015286820151811687870152606080830151821690870152608091820151169085015260a090930192908501906001016143fb565b5091979650505050505050565b60006020828403121561447157600080fd5b81356108c9816141f1565b815181526020808301519082015260408101610f7f565b60008060008060008060c087890312156144ac57600080fd5b86356144b7816141f1565b955060208701356144c7816141f1565b945060408701356144d7816141f1565b935060608701356144e7816141f1565b925060808701356144f7816141f1565b915060a0870135614507816141f1565b809150509295509295509295565b60006020828403121561452757600080fd5b5035919050565b801515811461216157600080fd5b80356142118161452e565b6000806040838503121561455a57600080fd5b82356145658161434e565b915060208301356145758161452e565b809150509250929050565b600080600080600060a0868803121561459857600080fd5b85356145a38161434e565b945060208601356145b3816141f1565b935060408601356145c3816141f1565b925060608601356145d3816141f1565b915060808601356145e3816141f1565b809150509295509295909350565b60008060008060008060c0878903121561460a57600080fd5b8635614615816141f1565b95506020870135614625816141f1565b9450604087013593506060870135925060808701356146438161452e565b8092505060a087013590509295509295509295565b602080825282518282018190526000919060409081850190868401855b82811015614452578151805160ff168552860151868501529284019290850190600101614675565b6000806000604084860312156146b257600080fd5b8335600981106146c157600080fd5b925060208401356001600160401b03808211156146dd57600080fd5b818601915086601f8301126146f157600080fd5b81358181111561470057600080fd5b87602082850101111561471257600080fd5b6020830194508093505050509250925092565b634e487b7160e01b600052601160045260246000fd5b81810381811115610f7f57610f7f614725565b600181815b8085111561478957816000190482111561476f5761476f614725565b8085161561477c57918102915b93841c9390800290614753565b509250929050565b6000826147a057506001610f7f565b816147ad57506000610f7f565b81600181146147c357600281146147cd576147e9565b6001915050610f7f565b60ff8411156147de576147de614725565b50506001821b610f7f565b5060208310610133831016604e8410600b841016171561480c575081810a610f7f565b614816838361474e565b806000190482111561482a5761482a614725565b029392505050565b60006108c98383614791565b60008261485b57634e487b7160e01b600052601260045260246000fd5b500490565b8082028115828204841417610f7f57610f7f614725565b634e487b7160e01b600052603260045260246000fd5b60006020828403121561489f57600080fd5b81516108c98161434e565b6000602082840312156148bc57600080fd5b5051919050565b80820180821115610f7f57610f7f614725565b60208082526029908201527f474d583a20506f6f6c2077697468207468697320706f6f6c496420646f6573206040820152681b9bdd08195e1a5cdd60ba1b606082015260800190565b634e487b7160e01b600052603160045260246000fd5b60006020828403121561494757600080fd5b81516108c9816141f1565b60006101a08201905060018060a01b03808a1683528089511660208401528060208a01511660408401528060408a01511660608401528060608a0151166080840152506149ac60a083018880518252602090810151910152565b855160e08301526020860151610100830152845161012083015260208501516101408301528361016083015282151561018083015298975050505050505050565b600080828403610180811215614a0257600080fd5b8351925061016080601f1983011215614a1a57600080fd5b614a22614130565b91506020850151825260408501516020830152606085015160408301526080850151606083015260a0850151608083015260c085015160a083015260e085015160c08301526101008086015160e08401526101208087015182850152610140915081870151818501525081860151818401525050809150509250929050565b634e487b7160e01b600052602160045260246000fd5b60098110614ac757614ac7614aa1565b9052565b614ad58185614ab7565b60406020820152816040820152818360608301376000818301606090810191909152601f909201601f1916010192915050565b600081614b1757614b17614725565b506000190190565b600082601f830112614b3057600080fd5b81356020614b40614237836141ce565b8083825260208201915060208460051b870101935086841115614b6257600080fd5b602086015b848110156142835780358352918301918301614b67565b60006001600160401b03821115614b9757614b9761411a565b50601f01601f191660200190565b600082601f830112614bb657600080fd5b8135614bc461423782614b7e565b818152846020838601011115614bd957600080fd5b816020850160208301376000918101602001919091529392505050565b60008060008060808587031215614c0c57600080fd5b8435614c178161434e565b935060208501356001600160401b0380821115614c3357600080fd5b614c3f88838901614216565b94506040870135915080821115614c5557600080fd5b614c6188838901614b1f565b93506060870135915080821115614c7757600080fd5b50614c8487828801614ba5565b91505092959194509250565b600080600080600060a08688031215614ca857600080fd5b8535614cb38161434e565b945060208601359350604086013592506060860135614cd1816141f1565b915060808601356001600160401b03811115614cec57600080fd5b614cf888828901614ba5565b9150509295509295909350565b60008060408385031215614d1857600080fd5b505080516020909101519092909150565b600060e08284031215614d3b57600080fd5b614d43614159565b9050614d4e82614206565b8152614d5c60208301614206565b6020820152614d6d60408301614206565b6040820152614d7e60608301614206565b6060820152614d8f60808301614206565b6080820152614da060a08301614206565b60a082015260c08201356001600160401b03811115614dbe57600080fd5b614dca84828501614216565b60c08301525092915050565b600060e08284031215614de857600080fd5b614df0614159565b9050813581526020820135602082015260408201356040820152606082013560608201526080820135608082015260a082013560a082015260c082013560c082015292915050565b80356008811061421157600080fd5b80356003811061421157600080fd5b600060208284031215614e6857600080fd5b81356001600160401b0380821115614e7f57600080fd5b908301906101c08286031215614e9457600080fd5b614e9c61417b565b823582811115614eab57600080fd5b614eb787828601614d29565b825250614ec78660208501614dd6565b6020820152614ed96101008401614e38565b6040820152614eeb6101208401614e47565b6060820152614efd610140840161453c565b6080820152614f0f610160840161453c565b60a0820152614f21610180840161453c565b60c08201526101a0929092013560e0830152509392505050565b60008060408385031215614f4e57600080fd5b82356143988161434e565b60008060008060808587031215614f6f57600080fd5b84356001600160401b0380821115614f8657600080fd5b614f9288838901614216565b95506020870135915080821115614fa857600080fd5b614fb488838901614216565b94506040870135915080821115614fca57600080fd5b50614fd787828801614b1f565b949793965093946060013593505050565b606081526000614ffb60608301866142ca565b828103602084015261500d81866142ca565b91505060018060a01b0383166040830152949350505050565b6000602080838503121561503957600080fd5b82516001600160401b0381111561504f57600080fd5b8301601f8101851361506057600080fd5b805161506e614237826141ce565b81815260059190911b8201830190838101908783111561508d57600080fd5b928401925b828410156150ab57835182529284019290840190615092565b979650505050505050565b60008151808452602080850194506020840160005b83811015614304578151875295820195908201906001016150cb565b6150f18184614ab7565b6040602082015260006142c260408301846150b6565b60808152600061511a60808301876142ca565b828103602084015261512c81876142ca565b9050828103604084015261514081866150b6565b91505060018060a01b038316606083015295945050505050565b60006020828403121561516c57600080fd5b81516108c98161452e565b6001600160a01b039384168152919092166020820152604081019190915260600190565b602081526151b56020820183516001600160a01b03169052565b600060208301516151d160408401826001600160a01b03169052565b5060408301516001600160a01b03811660608401525060608301516001600160a01b03811660808401525060808301516001600160a01b03811660a08401525060a08301516001600160a01b03811660c08401525060c08301516101808060e08501526152426101a08501836142ca565b915060e0850151610100601f19868503018187015261526184836142ca565b908701516101208781019190915287015190935090506101406152878187018315159052565b860151610160868101919091529095015193019290925250919050565b60005b838110156152bf5781810151838201526020016152a7565b50506000910152565b6000602080830181845280855180835260408601915060408160051b870101925083870160005b8281101561533557878503603f1901845281518051808752615316818989018a85016152a4565b601f01601f1916959095018601945092850192908501906001016152ef565b5092979650505050505050565b6000602080838503121561535557600080fd5b82516001600160401b038082111561536c57600080fd5b818501915085601f83011261538057600080fd5b815161538e614237826141ce565b81815260059190911b830184019084810190888311156153ad57600080fd5b8585015b83811015615421578051858111156153c95760008081fd5b8601603f81018b136153db5760008081fd5b8781015160406153ed61423783614b7e565b8281528d828486010111156154025760008081fd5b615411838c83018487016152a4565b86525050509186019186016153b1565b5098975050505050505050565b805160208083015191908110156123965760001960209190910360031b1b16919050565b6003811061216157612161614aa1565b8281526040810161547283615452565b8260208301529392505050565b602081526154996020820183516001600160a01b03169052565b600060208301516154b560408401826001600160a01b03169052565b5060408301516001600160a01b03811660608401525060608301516001600160a01b03811660808401525060808301516101608060a08501526154fc6101808501836142ca565b915060a0850151601f198584030160c086015261551983826142ca565b92505060c085015160e085015260e085015161010081818701528087015191505061012061554a8187018315159052565b860151610140868101919091529095015193019290925250919050565b600060018060a01b038083511684528060208401511660208501528060408401511660408501528060608401511660608501528060808401511660808501528060a08401511660a08501525060c082015160e060c08501526142c260e08501826142ca565b60088110614ac757614ac7614aa1565b614ac781615452565b60208152600082516101c08060208501526156046101e0850183615567565b915060208501516156576040860182805182526020810151602083015260408101516040830152606081015160608301526080810151608083015260a081015160a083015260c081015160c08301525050565b50604085015161566b6101208601826155cc565b50606085015161567f6101408601826155dc565b506080850151151561016085015260a0850151151561018085015260c085015115156101a085015260e0909401519390920192909252919050565b600082516156cc8184602087016152a4565b919091019291505056fea26469706673582212203273bb41cee2c203bc1dae9335d9883e88b3a58ad7bb9bcf56fb3c44cc24029264736f6c63430008180033",
  "devdoc": {
    "errors": {
      "AddressEmptyCode(address)": [
        {
          "details": "There's no code at `target` (it is not a contract)."
        }
      ],
      "AddressInsufficientBalance(address)": [
        {
          "details": "The ETH balance of the account is not enough to perform the operation."
        }
      ],
      "FailedInnerCall()": [
        {
          "details": "A call to an address target failed. The target may have reverted."
        }
      ],
      "OwnableInvalidOwner(address)": [
        {
          "details": "The owner is not a valid owner account. (eg. `address(0)`)"
        }
      ],
      "OwnableUnauthorizedAccount(address)": [
        {
          "details": "The caller account is not authorized to perform an operation."
        }
      ],
      "ReentrancyGuardReentrantCall()": [
        {
          "details": "Unauthorized reentrant call."
        }
      ],
      "SafeERC20FailedOperation(address)": [
        {
          "details": "An operation with an ERC20 token failed."
        }
      ]
    },
    "kind": "dev",
    "methods": {
      "owner()": {
        "details": "Returns the address of the current owner."
      },
      "renounceOwnership()": {
        "details": "Leaves the contract without owner. It will not be possible to call `onlyOwner` functions. Can only be called by the current owner. NOTE: Renouncing ownership will leave the contract without an owner, thereby disabling any functionality that is only available to the owner."
      },
      "transferOwnership(address)": {
        "details": "Transfers ownership of the contract to a new account (`newOwner`). Can only be called by the current owner."
      }
    },
    "version": 1
  },
  "userdoc": {
    "kind": "user",
    "methods": {},
    "version": 1
  },
  "storageLayout": {
    "storage": [
      {
        "astId": 3938,
        "contract": "contracts/vaults/theseus/GmxPlugin.sol:GmxPlugin",
        "label": "_owner",
        "offset": 0,
        "slot": "0",
        "type": "t_address"
      },
      {
        "astId": 5604,
        "contract": "contracts/vaults/theseus/GmxPlugin.sol:GmxPlugin",
        "label": "_status",
        "offset": 0,
        "slot": "1",
        "type": "t_uint256"
      },
      {
        "astId": 13136,
        "contract": "contracts/vaults/theseus/GmxPlugin.sol:GmxPlugin",
        "label": "localVault",
        "offset": 0,
        "slot": "2",
        "type": "t_address"
      },
      {
        "astId": 13138,
        "contract": "contracts/vaults/theseus/GmxPlugin.sol:GmxPlugin",
        "label": "treasury",
        "offset": 0,
        "slot": "3",
        "type": "t_address_payable"
      },
      {
        "astId": 13141,
        "contract": "contracts/vaults/theseus/GmxPlugin.sol:GmxPlugin",
        "label": "routerConfig",
        "offset": 0,
        "slot": "4",
        "type": "t_struct(RouterConfig)13105_storage"
      },
      {
        "astId": 13144,
        "contract": "contracts/vaults/theseus/GmxPlugin.sol:GmxPlugin",
        "label": "gmxParams",
        "offset": 0,
        "slot": "10",
        "type": "t_struct(GmxParams)13129_storage"
      },
      {
        "astId": 13148,
        "contract": "contracts/vaults/theseus/GmxPlugin.sol:GmxPlugin",
        "label": "pools",
        "offset": 0,
        "slot": "16",
        "type": "t_array(t_struct(PoolConfig)13116_storage)dyn_storage"
      },
      {
        "astId": 13152,
        "contract": "contracts/vaults/theseus/GmxPlugin.sol:GmxPlugin",
        "label": "poolExistsMap",
        "offset": 0,
        "slot": "17",
        "type": "t_mapping(t_uint8,t_bool)"
      },
      {
        "astId": 13155,
        "contract": "contracts/vaults/theseus/GmxPlugin.sol:GmxPlugin",
        "label": "uniqueTokens",
        "offset": 0,
        "slot": "18",
        "type": "t_array(t_address)dyn_storage"
      },
      {
        "astId": 13157,
        "contract": "contracts/vaults/theseus/GmxPlugin.sol:GmxPlugin",
        "label": "tokenPriceConsumer",
        "offset": 0,
        "slot": "19",
        "type": "t_address"
      },
      {
        "astId": 13160,
        "contract": "contracts/vaults/theseus/GmxPlugin.sol:GmxPlugin",
        "label": "rewardTokens",
        "offset": 0,
        "slot": "20",
        "type": "t_array(t_address)dyn_storage"
      }
    ],
    "types": {
      "t_address": {
        "encoding": "inplace",
        "label": "address",
        "numberOfBytes": "20"
      },
      "t_address_payable": {
        "encoding": "inplace",
        "label": "address payable",
        "numberOfBytes": "20"
      },
      "t_array(t_address)dyn_storage": {
        "base": "t_address",
        "encoding": "dynamic_array",
        "label": "address[]",
        "numberOfBytes": "32"
      },
      "t_array(t_struct(PoolConfig)13116_storage)dyn_storage": {
        "base": "t_struct(PoolConfig)13116_storage",
        "encoding": "dynamic_array",
        "label": "struct GmxPlugin.PoolConfig[]",
        "numberOfBytes": "32"
      },
      "t_bool": {
        "encoding": "inplace",
        "label": "bool",
        "numberOfBytes": "1"
      },
      "t_bytes32": {
        "encoding": "inplace",
        "label": "bytes32",
        "numberOfBytes": "32"
      },
      "t_mapping(t_uint8,t_bool)": {
        "encoding": "mapping",
        "key": "t_uint8",
        "label": "mapping(uint8 => bool)",
        "numberOfBytes": "32",
        "value": "t_bool"
      },
      "t_struct(GmxParams)13129_storage": {
        "encoding": "inplace",
        "label": "struct GmxPlugin.GmxParams",
        "members": [
          {
            "astId": 13118,
            "contract": "contracts/vaults/theseus/GmxPlugin.sol:GmxPlugin",
            "label": "uiFeeReceiver",
            "offset": 0,
            "slot": "0",
            "type": "t_address"
          },
          {
            "astId": 13120,
            "contract": "contracts/vaults/theseus/GmxPlugin.sol:GmxPlugin",
            "label": "callbackContract",
            "offset": 0,
            "slot": "1",
            "type": "t_address"
          },
          {
            "astId": 13122,
            "contract": "contracts/vaults/theseus/GmxPlugin.sol:GmxPlugin",
            "label": "callbackGasLimit",
            "offset": 0,
            "slot": "2",
            "type": "t_uint256"
          },
          {
            "astId": 13124,
            "contract": "contracts/vaults/theseus/GmxPlugin.sol:GmxPlugin",
            "label": "executionFee",
            "offset": 0,
            "slot": "3",
            "type": "t_uint256"
          },
          {
            "astId": 13126,
            "contract": "contracts/vaults/theseus/GmxPlugin.sol:GmxPlugin",
            "label": "shouldUnwrapNativeToken",
            "offset": 0,
            "slot": "4",
            "type": "t_bool"
          },
          {
            "astId": 13128,
            "contract": "contracts/vaults/theseus/GmxPlugin.sol:GmxPlugin",
            "label": "pnlFactorType",
            "offset": 0,
            "slot": "5",
            "type": "t_bytes32"
          }
        ],
        "numberOfBytes": "192"
      },
      "t_struct(PoolConfig)13116_storage": {
        "encoding": "inplace",
        "label": "struct GmxPlugin.PoolConfig",
        "members": [
          {
            "astId": 13107,
            "contract": "contracts/vaults/theseus/GmxPlugin.sol:GmxPlugin",
            "label": "poolId",
            "offset": 0,
            "slot": "0",
            "type": "t_uint8"
          },
          {
            "astId": 13109,
            "contract": "contracts/vaults/theseus/GmxPlugin.sol:GmxPlugin",
            "label": "indexToken",
            "offset": 1,
            "slot": "0",
            "type": "t_address"
          },
          {
            "astId": 13111,
            "contract": "contracts/vaults/theseus/GmxPlugin.sol:GmxPlugin",
            "label": "longToken",
            "offset": 0,
            "slot": "1",
            "type": "t_address"
          },
          {
            "astId": 13113,
            "contract": "contracts/vaults/theseus/GmxPlugin.sol:GmxPlugin",
            "label": "shortToken",
            "offset": 0,
            "slot": "2",
            "type": "t_address"
          },
          {
            "astId": 13115,
            "contract": "contracts/vaults/theseus/GmxPlugin.sol:GmxPlugin",
            "label": "marketToken",
            "offset": 0,
            "slot": "3",
            "type": "t_address"
          }
        ],
        "numberOfBytes": "128"
      },
      "t_struct(RouterConfig)13105_storage": {
        "encoding": "inplace",
        "label": "struct GmxPlugin.RouterConfig",
        "members": [
          {
            "astId": 13094,
            "contract": "contracts/vaults/theseus/GmxPlugin.sol:GmxPlugin",
            "label": "exchangeRouter",
            "offset": 0,
            "slot": "0",
            "type": "t_address"
          },
          {
            "astId": 13096,
            "contract": "contracts/vaults/theseus/GmxPlugin.sol:GmxPlugin",
            "label": "router",
            "offset": 0,
            "slot": "1",
            "type": "t_address"
          },
          {
            "astId": 13098,
            "contract": "contracts/vaults/theseus/GmxPlugin.sol:GmxPlugin",
            "label": "depositVault",
            "offset": 0,
            "slot": "2",
            "type": "t_address"
          },
          {
            "astId": 13100,
            "contract": "contracts/vaults/theseus/GmxPlugin.sol:GmxPlugin",
            "label": "withdrawVault",
            "offset": 0,
            "slot": "3",
            "type": "t_address"
          },
          {
            "astId": 13102,
            "contract": "contracts/vaults/theseus/GmxPlugin.sol:GmxPlugin",
            "label": "orderVault",
            "offset": 0,
            "slot": "4",
            "type": "t_address"
          },
          {
            "astId": 13104,
            "contract": "contracts/vaults/theseus/GmxPlugin.sol:GmxPlugin",
            "label": "reader",
            "offset": 0,
            "slot": "5",
            "type": "t_address"
          }
        ],
        "numberOfBytes": "192"
      },
      "t_uint256": {
        "encoding": "inplace",
        "label": "uint256",
        "numberOfBytes": "32"
      },
      "t_uint8": {
        "encoding": "inplace",
        "label": "uint8",
        "numberOfBytes": "1"
      }
    }
  }
}