{
  "address": "0x14E425DB3B55174E51926474b31983F45aA98f4b",
  "abi": [
    {
      "inputs": [
        {
          "internalType": "address",
          "name": "_localVault",
          "type": "address"
        }
      ],
      "stateMutability": "nonpayable",
      "type": "constructor"
    },
    {
      "inputs": [
        {
          "internalType": "address",
          "name": "target",
          "type": "address"
        }
      ],
      "name": "AddressEmptyCode",
      "type": "error"
    },
    {
      "inputs": [
        {
          "internalType": "address",
          "name": "account",
          "type": "address"
        }
      ],
      "name": "AddressInsufficientBalance",
      "type": "error"
    },
    {
      "inputs": [],
      "name": "FailedInnerCall",
      "type": "error"
    },
    {
      "inputs": [
        {
          "internalType": "address",
          "name": "owner",
          "type": "address"
        }
      ],
      "name": "OwnableInvalidOwner",
      "type": "error"
    },
    {
      "inputs": [
        {
          "internalType": "address",
          "name": "account",
          "type": "address"
        }
      ],
      "name": "OwnableUnauthorizedAccount",
      "type": "error"
    },
    {
      "inputs": [],
      "name": "ReentrancyGuardReentrantCall",
      "type": "error"
    },
    {
      "inputs": [
        {
          "internalType": "address",
          "name": "token",
          "type": "address"
        }
      ],
      "name": "SafeERC20FailedOperation",
      "type": "error"
    },
    {
      "anonymous": false,
      "inputs": [
        {
          "indexed": false,
          "internalType": "uint8",
          "name": "_actionType",
          "type": "uint8"
        },
        {
          "indexed": false,
          "internalType": "bytes32",
          "name": "_key",
          "type": "bytes32"
        }
      ],
      "name": "CancelAction",
      "type": "event"
    },
    {
      "anonymous": false,
      "inputs": [
        {
          "indexed": false,
          "internalType": "enum IPlugin.ActionType",
          "name": "_actionType",
          "type": "uint8"
        },
        {
          "indexed": false,
          "internalType": "bytes",
          "name": "_payload",
          "type": "bytes"
        }
      ],
      "name": "Execute",
      "type": "event"
    },
    {
      "anonymous": false,
      "inputs": [
        {
          "indexed": true,
          "internalType": "address",
          "name": "previousOwner",
          "type": "address"
        },
        {
          "indexed": true,
          "internalType": "address",
          "name": "newOwner",
          "type": "address"
        }
      ],
      "name": "OwnershipTransferred",
      "type": "event"
    },
    {
      "anonymous": false,
      "inputs": [
        {
          "indexed": false,
          "internalType": "uint8",
          "name": "poolId",
          "type": "uint8"
        }
      ],
      "name": "PoolAdded",
      "type": "event"
    },
    {
      "anonymous": false,
      "inputs": [
        {
          "indexed": false,
          "internalType": "uint8",
          "name": "poolId",
          "type": "uint8"
        }
      ],
      "name": "PoolRemoved",
      "type": "event"
    },
    {
      "anonymous": false,
      "inputs": [
        {
          "indexed": false,
          "internalType": "address",
          "name": "_uiFeeReceiver",
          "type": "address"
        },
        {
          "indexed": false,
          "internalType": "address",
          "name": "_callbackContract",
          "type": "address"
        },
        {
          "indexed": false,
          "internalType": "uint256",
          "name": "_callbackGasLimit",
          "type": "uint256"
        },
        {
          "indexed": false,
          "internalType": "uint256",
          "name": "_executionFee",
          "type": "uint256"
        },
        {
          "indexed": false,
          "internalType": "bool",
          "name": "_shouldUnwrapNativeToken",
          "type": "bool"
        },
        {
          "indexed": false,
          "internalType": "bytes32",
          "name": "_pnlFactorType",
          "type": "bytes32"
        }
      ],
      "name": "SetGmxParams",
      "type": "event"
    },
    {
      "anonymous": false,
      "inputs": [
        {
          "indexed": false,
          "internalType": "address",
          "name": "master",
          "type": "address"
        }
      ],
      "name": "SetMaster",
      "type": "event"
    },
    {
      "anonymous": false,
      "inputs": [
        {
          "indexed": false,
          "internalType": "address[]",
          "name": "_rewardTokens",
          "type": "address[]"
        }
      ],
      "name": "SetRewardTokens",
      "type": "event"
    },
    {
      "anonymous": false,
      "inputs": [
        {
          "indexed": false,
          "internalType": "address",
          "name": "_exchangeRouter",
          "type": "address"
        },
        {
          "indexed": false,
          "internalType": "address",
          "name": "_router",
          "type": "address"
        },
        {
          "indexed": false,
          "internalType": "address",
          "name": "_depositVault",
          "type": "address"
        },
        {
          "indexed": false,
          "internalType": "address",
          "name": "_withdrawVault",
          "type": "address"
        },
        {
          "indexed": false,
          "internalType": "address",
          "name": "_orderVault",
          "type": "address"
        },
        {
          "indexed": false,
          "internalType": "address",
          "name": "_reader",
          "type": "address"
        }
      ],
      "name": "SetRouterConfig",
      "type": "event"
    },
    {
      "anonymous": false,
      "inputs": [
        {
          "indexed": false,
          "internalType": "address",
          "name": "_token",
          "type": "address"
        },
        {
          "indexed": false,
          "internalType": "uint8",
          "name": "_decimals",
          "type": "uint8"
        }
      ],
      "name": "SetTokenDecimals",
      "type": "event"
    },
    {
      "anonymous": false,
      "inputs": [
        {
          "indexed": false,
          "internalType": "address",
          "name": "_tokenPriceConsumer",
          "type": "address"
        }
      ],
      "name": "SetTokenPriceConsumer",
      "type": "event"
    },
    {
      "anonymous": false,
      "inputs": [
        {
          "indexed": false,
          "internalType": "address payable",
          "name": "treasury",
          "type": "address"
        }
      ],
      "name": "SetTreasury",
      "type": "event"
    },
    {
      "anonymous": false,
      "inputs": [],
      "name": "TransferAllTokensToVault",
      "type": "event"
    },
    {
      "stateMutability": "payable",
      "type": "fallback"
    },
    {
      "inputs": [],
      "name": "ASSET_DECIMALS",
      "outputs": [
        {
          "internalType": "uint256",
          "name": "",
          "type": "uint256"
        }
      ],
      "stateMutability": "view",
      "type": "function"
    },
    {
      "inputs": [],
      "name": "MARKET_TOKEN_PRICE_DECIMALS",
      "outputs": [
        {
          "internalType": "uint256",
          "name": "",
          "type": "uint256"
        }
      ],
      "stateMutability": "view",
      "type": "function"
    },
    {
      "inputs": [
        {
          "internalType": "uint8",
          "name": "_poolId",
          "type": "uint8"
        },
        {
          "internalType": "address",
          "name": "_indexToken",
          "type": "address"
        },
        {
          "internalType": "address",
          "name": "_longToken",
          "type": "address"
        },
        {
          "internalType": "address",
          "name": "_shortToken",
          "type": "address"
        },
        {
          "internalType": "address",
          "name": "_marketToken",
          "type": "address"
        }
      ],
      "name": "addPool",
      "outputs": [],
      "stateMutability": "nonpayable",
      "type": "function"
    },
    {
      "inputs": [
        {
          "internalType": "address",
          "name": "_tokenAddress",
          "type": "address"
        },
        {
          "internalType": "uint256",
          "name": "_tokenAmount",
          "type": "uint256"
        }
      ],
      "name": "calculateTokenValueInUsd",
      "outputs": [
        {
          "internalType": "uint256",
          "name": "",
          "type": "uint256"
        }
      ],
      "stateMutability": "view",
      "type": "function"
    },
    {
      "inputs": [
        {
          "internalType": "uint256",
          "name": "_amount",
          "type": "uint256"
        },
        {
          "internalType": "uint256",
          "name": "_from",
          "type": "uint256"
        },
        {
          "internalType": "uint256",
          "name": "_to",
          "type": "uint256"
        }
      ],
      "name": "convertDecimals",
      "outputs": [
        {
          "internalType": "uint256",
          "name": "",
          "type": "uint256"
        }
      ],
      "stateMutability": "pure",
      "type": "function"
    },
    {
      "inputs": [
        {
          "internalType": "enum IPlugin.ActionType",
          "name": "_actionType",
          "type": "uint8"
        },
        {
          "internalType": "bytes",
          "name": "_payload",
          "type": "bytes"
        }
      ],
      "name": "execute",
      "outputs": [],
      "stateMutability": "payable",
      "type": "function"
    },
    {
      "inputs": [
        {
          "internalType": "uint8",
          "name": "_poolId",
          "type": "uint8"
        }
      ],
      "name": "getAllowedTokens",
      "outputs": [
        {
          "internalType": "address[]",
          "name": "",
          "type": "address[]"
        }
      ],
      "stateMutability": "view",
      "type": "function"
    },
    {
      "inputs": [],
      "name": "getBalance",
      "outputs": [
        {
          "internalType": "uint256",
          "name": "",
          "type": "uint256"
        }
      ],
      "stateMutability": "view",
      "type": "function"
    },
    {
      "inputs": [
        {
          "internalType": "uint8",
          "name": "_poolId",
          "type": "uint8"
        }
      ],
      "name": "getPoolIndexById",
      "outputs": [
        {
          "internalType": "uint256",
          "name": "poolIndex",
          "type": "uint256"
        }
      ],
      "stateMutability": "view",
      "type": "function"
    },
    {
      "inputs": [],
      "name": "getPoolLength",
      "outputs": [
        {
          "internalType": "uint256",
          "name": "",
          "type": "uint256"
        }
      ],
      "stateMutability": "view",
      "type": "function"
    },
    {
      "inputs": [],
      "name": "getPoolNumber",
      "outputs": [
        {
          "internalType": "uint256",
          "name": "",
          "type": "uint256"
        }
      ],
      "stateMutability": "view",
      "type": "function"
    },
    {
      "inputs": [
        {
          "internalType": "uint8",
          "name": "_poolId",
          "type": "uint8"
        }
      ],
      "name": "getPoolTokenInfo",
      "outputs": [
        {
          "internalType": "address",
          "name": "",
          "type": "address"
        },
        {
          "internalType": "uint8",
          "name": "",
          "type": "uint8"
        },
        {
          "internalType": "uint256",
          "name": "",
          "type": "uint256"
        }
      ],
      "stateMutability": "view",
      "type": "function"
    },
    {
      "inputs": [
        {
          "internalType": "uint8",
          "name": "_poolId",
          "type": "uint8"
        },
        {
          "internalType": "bool",
          "name": "_maximize",
          "type": "bool"
        }
      ],
      "name": "getPoolTokenPrice",
      "outputs": [
        {
          "internalType": "int256",
          "name": "",
          "type": "int256"
        }
      ],
      "stateMutability": "view",
      "type": "function"
    },
    {
      "inputs": [],
      "name": "getPoolValues",
      "outputs": [
        {
          "components": [
            {
              "internalType": "uint8",
              "name": "poolId",
              "type": "uint8"
            },
            {
              "internalType": "uint256",
              "name": "poolValue",
              "type": "uint256"
            }
          ],
          "internalType": "struct GmxPlugin.PoolValue[]",
          "name": "",
          "type": "tuple[]"
        }
      ],
      "stateMutability": "view",
      "type": "function"
    },
    {
      "inputs": [],
      "name": "getPools",
      "outputs": [
        {
          "components": [
            {
              "internalType": "uint8",
              "name": "poolId",
              "type": "uint8"
            },
            {
              "internalType": "address",
              "name": "indexToken",
              "type": "address"
            },
            {
              "internalType": "address",
              "name": "longToken",
              "type": "address"
            },
            {
              "internalType": "address",
              "name": "shortToken",
              "type": "address"
            },
            {
              "internalType": "address",
              "name": "marketToken",
              "type": "address"
            }
          ],
          "internalType": "struct GmxPlugin.PoolConfig[]",
          "name": "",
          "type": "tuple[]"
        }
      ],
      "stateMutability": "view",
      "type": "function"
    },
    {
      "inputs": [
        {
          "internalType": "address",
          "name": "token",
          "type": "address"
        }
      ],
      "name": "getTokenPriceInfo",
      "outputs": [
        {
          "components": [
            {
              "internalType": "uint256",
              "name": "min",
              "type": "uint256"
            },
            {
              "internalType": "uint256",
              "name": "max",
              "type": "uint256"
            }
          ],
          "internalType": "struct IPrice.Props",
          "name": "",
          "type": "tuple"
        }
      ],
      "stateMutability": "view",
      "type": "function"
    },
    {
      "inputs": [],
      "name": "getTotalLiquidity",
      "outputs": [
        {
          "internalType": "uint256",
          "name": "totalAsset",
          "type": "uint256"
        }
      ],
      "stateMutability": "view",
      "type": "function"
    },
    {
      "inputs": [],
      "name": "getUniqueTokenLength",
      "outputs": [
        {
          "internalType": "uint256",
          "name": "",
          "type": "uint256"
        }
      ],
      "stateMutability": "view",
      "type": "function"
    },
    {
      "inputs": [],
      "name": "getUniqueTokens",
      "outputs": [
        {
          "internalType": "address[]",
          "name": "",
          "type": "address[]"
        }
      ],
      "stateMutability": "view",
      "type": "function"
    },
    {
      "inputs": [],
      "name": "gmxParams",
      "outputs": [
        {
          "internalType": "address",
          "name": "uiFeeReceiver",
          "type": "address"
        },
        {
          "internalType": "address",
          "name": "callbackContract",
          "type": "address"
        },
        {
          "internalType": "uint256",
          "name": "callbackGasLimit",
          "type": "uint256"
        },
        {
          "internalType": "uint256",
          "name": "executionFee",
          "type": "uint256"
        },
        {
          "internalType": "bool",
          "name": "shouldUnwrapNativeToken",
          "type": "bool"
        },
        {
          "internalType": "bytes32",
          "name": "pnlFactorType",
          "type": "bytes32"
        }
      ],
      "stateMutability": "view",
      "type": "function"
    },
    {
      "inputs": [
        {
          "internalType": "address",
          "name": "_addr",
          "type": "address"
        }
      ],
      "name": "isContract",
      "outputs": [
        {
          "internalType": "bool",
          "name": "",
          "type": "bool"
        }
      ],
      "stateMutability": "view",
      "type": "function"
    },
    {
      "inputs": [
        {
          "internalType": "address",
          "name": "_token",
          "type": "address"
        }
      ],
      "name": "isTokenAdded",
      "outputs": [
        {
          "internalType": "bool",
          "name": "",
          "type": "bool"
        }
      ],
      "stateMutability": "view",
      "type": "function"
    },
    {
      "inputs": [],
      "name": "localVault",
      "outputs": [
        {
          "internalType": "address",
          "name": "",
          "type": "address"
        }
      ],
      "stateMutability": "view",
      "type": "function"
    },
    {
      "inputs": [],
      "name": "owner",
      "outputs": [
        {
          "internalType": "address",
          "name": "",
          "type": "address"
        }
      ],
      "stateMutability": "view",
      "type": "function"
    },
    {
      "inputs": [
        {
          "internalType": "uint8",
          "name": "",
          "type": "uint8"
        }
      ],
      "name": "poolExistsMap",
      "outputs": [
        {
          "internalType": "bool",
          "name": "",
          "type": "bool"
        }
      ],
      "stateMutability": "view",
      "type": "function"
    },
    {
      "inputs": [
        {
          "internalType": "uint256",
          "name": "",
          "type": "uint256"
        }
      ],
      "name": "pools",
      "outputs": [
        {
          "internalType": "uint8",
          "name": "poolId",
          "type": "uint8"
        },
        {
          "internalType": "address",
          "name": "indexToken",
          "type": "address"
        },
        {
          "internalType": "address",
          "name": "longToken",
          "type": "address"
        },
        {
          "internalType": "address",
          "name": "shortToken",
          "type": "address"
        },
        {
          "internalType": "address",
          "name": "marketToken",
          "type": "address"
        }
      ],
      "stateMutability": "view",
      "type": "function"
    },
    {
      "inputs": [
        {
          "internalType": "uint8",
          "name": "_poolId",
          "type": "uint8"
        }
      ],
      "name": "removePool",
      "outputs": [],
      "stateMutability": "nonpayable",
      "type": "function"
    },
    {
      "inputs": [],
      "name": "renounceOwnership",
      "outputs": [],
      "stateMutability": "nonpayable",
      "type": "function"
    },
    {
      "inputs": [
        {
          "internalType": "uint256",
          "name": "",
          "type": "uint256"
        }
      ],
      "name": "rewardTokens",
      "outputs": [
        {
          "internalType": "address",
          "name": "",
          "type": "address"
        }
      ],
      "stateMutability": "view",
      "type": "function"
    },
    {
      "inputs": [],
      "name": "routerConfig",
      "outputs": [
        {
          "internalType": "address",
          "name": "exchangeRouter",
          "type": "address"
        },
        {
          "internalType": "address",
          "name": "router",
          "type": "address"
        },
        {
          "internalType": "address",
          "name": "depositVault",
          "type": "address"
        },
        {
          "internalType": "address",
          "name": "withdrawVault",
          "type": "address"
        },
        {
          "internalType": "address",
          "name": "orderVault",
          "type": "address"
        },
        {
          "internalType": "address",
          "name": "reader",
          "type": "address"
        }
      ],
      "stateMutability": "view",
      "type": "function"
    },
    {
      "inputs": [
        {
          "internalType": "address",
          "name": "_uiFeeReceiver",
          "type": "address"
        },
        {
          "internalType": "address",
          "name": "_callbackContract",
          "type": "address"
        },
        {
          "internalType": "uint256",
          "name": "_callbackGasLimit",
          "type": "uint256"
        },
        {
          "internalType": "uint256",
          "name": "_executionFee",
          "type": "uint256"
        },
        {
          "internalType": "bool",
          "name": "_shouldUnwrapNativeToken",
          "type": "bool"
        },
        {
          "internalType": "bytes32",
          "name": "_pnlFactorType",
          "type": "bytes32"
        }
      ],
      "name": "setGmxParams",
      "outputs": [],
      "stateMutability": "nonpayable",
      "type": "function"
    },
    {
      "inputs": [
        {
          "internalType": "address[]",
          "name": "_rewardTokens",
          "type": "address[]"
        }
      ],
      "name": "setRewardTokens",
      "outputs": [],
      "stateMutability": "nonpayable",
      "type": "function"
    },
    {
      "inputs": [
        {
          "internalType": "address",
          "name": "_exchangeRouter",
          "type": "address"
        },
        {
          "internalType": "address",
          "name": "_router",
          "type": "address"
        },
        {
          "internalType": "address",
          "name": "_depositVault",
          "type": "address"
        },
        {
          "internalType": "address",
          "name": "_withdrawVault",
          "type": "address"
        },
        {
          "internalType": "address",
          "name": "_orderVault",
          "type": "address"
        },
        {
          "internalType": "address",
          "name": "_reader",
          "type": "address"
        }
      ],
      "name": "setRouterConfig",
      "outputs": [],
      "stateMutability": "nonpayable",
      "type": "function"
    },
    {
      "inputs": [
        {
          "internalType": "address",
          "name": "_token",
          "type": "address"
        },
        {
          "internalType": "uint8",
          "name": "_decimals",
          "type": "uint8"
        }
      ],
      "name": "setTokenDecimals",
      "outputs": [],
      "stateMutability": "nonpayable",
      "type": "function"
    },
    {
      "inputs": [
        {
          "internalType": "address[]",
          "name": "_tokens",
          "type": "address[]"
        },
        {
          "internalType": "uint8[]",
          "name": "_newDecimals",
          "type": "uint8[]"
        }
      ],
      "name": "setTokenDecimalsBatch",
      "outputs": [],
      "stateMutability": "nonpayable",
      "type": "function"
    },
    {
      "inputs": [
        {
          "internalType": "address",
          "name": "_tokenPriceConsumer",
          "type": "address"
        }
      ],
      "name": "setTokenPriceConsumer",
      "outputs": [],
      "stateMutability": "nonpayable",
      "type": "function"
    },
    {
      "inputs": [
        {
          "internalType": "address payable",
          "name": "_treasury",
          "type": "address"
        }
      ],
      "name": "setTreasury",
      "outputs": [],
      "stateMutability": "nonpayable",
      "type": "function"
    },
    {
      "inputs": [
        {
          "internalType": "address",
          "name": "",
          "type": "address"
        }
      ],
      "name": "tokenDecimalList",
      "outputs": [
        {
          "internalType": "uint8",
          "name": "",
          "type": "uint8"
        }
      ],
      "stateMutability": "view",
      "type": "function"
    },
    {
      "inputs": [],
      "name": "tokenPriceConsumer",
      "outputs": [
        {
          "internalType": "address",
          "name": "",
          "type": "address"
        }
      ],
      "stateMutability": "view",
      "type": "function"
    },
    {
      "inputs": [],
      "name": "transferAllTokensToVault",
      "outputs": [],
      "stateMutability": "nonpayable",
      "type": "function"
    },
    {
      "inputs": [
        {
          "internalType": "address",
          "name": "newOwner",
          "type": "address"
        }
      ],
      "name": "transferOwnership",
      "outputs": [],
      "stateMutability": "nonpayable",
      "type": "function"
    },
    {
      "inputs": [],
      "name": "treasury",
      "outputs": [
        {
          "internalType": "address payable",
          "name": "",
          "type": "address"
        }
      ],
      "stateMutability": "view",
      "type": "function"
    },
    {
      "inputs": [
        {
          "internalType": "uint256",
          "name": "",
          "type": "uint256"
        }
      ],
      "name": "uniqueTokens",
      "outputs": [
        {
          "internalType": "address",
          "name": "",
          "type": "address"
        }
      ],
      "stateMutability": "view",
      "type": "function"
    },
    {
      "inputs": [
        {
          "internalType": "uint256",
          "name": "_amount",
          "type": "uint256"
        }
      ],
      "name": "withdrawFee",
      "outputs": [],
      "stateMutability": "nonpayable",
      "type": "function"
    },
    {
      "stateMutability": "payable",
      "type": "receive"
    }
  ],
  "transactionHash": "0xa83430025015a41fb2a165e35855e0fa291fb80239fd4c30e7dc697f8dcc0c75",
  "args": [
    "0xf695C44b03Ac7cf0E1B19CC5B803Cb759Ca7a640"
  ],
  "numDeployments": 1,
  "solcInputHash": "a66583ae08b5ce387c4ea619c5a0ce71",
  "bytecode": "0x60806040523480156200001157600080fd5b50604051620056933803806200569383398101604081905262000034916200013a565b33806200005c57604051631e4fbdf760e01b8152600060048201526024015b60405180910390fd5b6200006781620000ea565b50600180556001600160a01b038116620000c45760405162461bcd60e51b815260206004820152601460248201527f474d583a20496e76616c69642041646472657373000000000000000000000000604482015260640162000053565b600280546001600160a01b0319166001600160a01b03929092169190911790556200016c565b600080546001600160a01b038381166001600160a01b0319831681178455604051919092169283917f8be0079c531659141344cd1fd0a4f28419497f9722a3daafe3b4186f6b6457e09190a35050565b6000602082840312156200014d57600080fd5b81516001600160a01b03811681146200016557600080fd5b9392505050565b615517806200017c6000396000f3fe6080604052600436106102535760003560e01c80637d2ab8bf11610138578063c2ca3d0d116100b0578063e48caf8d11610077578063e48caf8d14610724578063f0f442601461080e578063f2fde38b1461082e578063f4db89841461084e578063f66fdcca14610863578063fb4d364c1461088557005b8063c2ca3d0d14610779578063c8af380714610799578063d064f7d0146107b9578063d5a5731a146107ce578063df77209b146107ee57005b8063a36532b2116100ff578063a36532b21461068a578063a7888a34146106aa578063ac4afa38146106ca578063b3944d5214610724578063be35761614610739578063beafdc241461075957005b80637d2ab8bf146105e7578063845b7924146106075780638da5cb5b1461063757806396c1865b14610655578063a0390b651461067557005b806335c7e925116101cb57806361d027b31161019257806361d027b314610523578063673a2a1f146105435780636aaf6436146105655780636e862fdb14610592578063715018a6146105b25780637bb7bed1146105c757005b806335c7e9251461046257806336a60503146104775780634952cade146104975780634df227e4146104b75780635cdcd8bb1461050357005b8063201e81a81161021a578063201e81a81461035757806326a1809b14610377578063278246751461039957806329c3fcef146103b95780632a7a5244146103fb578063313eb4061461041b57005b8063050705bb1461025c57806308447586146102b657806312065fe0146102ee578063162790551461030b5780631c31772f1461034257005b3661025a57005b005b34801561026857600080fd5b5060045460055460065460075460085460095461029b956001600160a01b03908116958116948116938116928116911686565b6040516102ad96959493929190614012565b60405180910390f35b3480156102c257600080fd5b506013546102d6906001600160a01b031681565b6040516001600160a01b0390911681526020016102ad565b3480156102fa57600080fd5b50475b6040519081526020016102ad565b34801561031757600080fd5b50610332610326366004614071565b3b63ffffffff16151590565b60405190151581526020016102ad565b34801561034e57600080fd5b506012546102fd565b34801561036357600080fd5b5061025a6103723660046141ba565b610898565b34801561038357600080fd5b5061038c6108ee565b6040516102ad91906141f6565b3480156103a557600080fd5b506102fd6103b4366004614243565b610950565b3480156103c557600080fd5b506103e96103d4366004614071565b60156020526000908152604090205460ff1681565b60405160ff90911681526020016102ad565b34801561040757600080fd5b5061038c61041636600461427e565b6109a5565b34801561042757600080fd5b5061043b61043636600461427e565b610ada565b604080516001600160a01b03909416845260ff9092166020840152908201526060016102ad565b34801561046e57600080fd5b506102fd610c70565b34801561048357600080fd5b506102fd61049236600461429b565b610eca565b3480156104a357600080fd5b506102fd6104b236600461427e565b61104d565b3480156104c357600080fd5b50600a54600b54600c54600d54600e54600f546104f1956001600160a01b03908116951693929160ff169086565b6040516102ad969594939291906142c7565b34801561050f57600080fd5b5061025a61051e3660046142ff565b6110dd565b34801561052f57600080fd5b506003546102d6906001600160a01b031681565b34801561054f57600080fd5b50610558611148565b6040516102ad9190614338565b34801561057157600080fd5b50610585610580366004614071565b6111e9565b6040516102ad91906143b9565b34801561059e57600080fd5b5061025a6105ad3660046143d0565b611404565b3480156105be57600080fd5b5061025a6115a0565b3480156105d357600080fd5b506102d66105e2366004614452565b6115b4565b3480156105f357600080fd5b5061025a61060236600461427e565b6115de565b34801561061357600080fd5b5061033261062236600461427e565b60116020526000908152604090205460ff1681565b34801561064357600080fd5b506000546001600160a01b03166102d6565b34801561066157600080fd5b506102fd610670366004614484565b6117c7565b34801561068157600080fd5b5061025a6119ff565b34801561069657600080fd5b506103326106a5366004614071565b611b61565b3480156106b657600080fd5b5061025a6106c5366004614071565b611bc0565b3480156106d657600080fd5b506106ea6106e5366004614452565b611c63565b6040805160ff90961686526001600160a01b039485166020870152928416928501929092528216606084015216608082015260a0016102ad565b34801561073057600080fd5b506010546102fd565b34801561074557600080fd5b5061025a610754366004614452565b611cb8565b34801561076557600080fd5b506102d6610774366004614452565b611e11565b34801561078557600080fd5b5061025a6107943660046144fd565b611e21565b3480156107a557600080fd5b5061025a6107b4366004614568565b611ee3565b3480156107c557600080fd5b506102fd601e81565b3480156107da57600080fd5b5061025a6107e93660046145d9565b6121e5565b3480156107fa57600080fd5b506002546102d6906001600160a01b031681565b34801561081a57600080fd5b5061025a610829366004614071565b6122a1565b34801561083a57600080fd5b5061025a610849366004614071565b612346565b34801561085a57600080fd5b506102fd602481565b34801561086f57600080fd5b50610878612384565b6040516102ad9190614640565b61025a610893366004614685565b6125bc565b6108a0612705565b80516108b3906014906020840190613fa1565b507f69be44b81d4f8b6cf7825a37f020b264079658f3d72856eeb0a0efed09c7d392816040516108e391906141f6565b60405180910390a150565b6060601280548060200260200160405190810160405280929190818152602001828054801561094657602002820191906000526020600020905b81546001600160a01b03168152600190910190602001808311610928575b5050505050905090565b600081831061097f576109638284614723565b61096e90600a61481a565b6109789085614826565b905061099e565b6109898383614723565b61099490600a61481a565b6109789085614848565b9392505050565b60ff8082166000908152601160205260409020546060918291166109c95792915050565b60408051600280825260608201835260009260208301908036833701905050905060006109f58561104d565b9050600060108281548110610a0c57610a0c61485f565b600091825260208083206040805160a0810182526004909402909101805460ff811685526001600160a01b03610100909104811693850193909352600181015483169184018290526002810154831660608501526003015490911660808301528551919350918591610a8057610a8061485f565b60200260200101906001600160a01b031690816001600160a01b031681525050806060015183600181518110610ab857610ab861485f565b6001600160a01b03909216602092830291909101909101525090949350505050565b60ff80821660009081526011602052604081205490918291829116610b0757506000915081905080610c69565b6000610b128561104d565b9050600060108281548110610b2957610b2961485f565b600091825260208083206040805160a0810182526004948502909201805460ff811684526001600160a01b0361010090910481168486015260018201548116848401526002820154811660608501526003909101541660808301819052815163313ce56760e01b815291519296509363313ce567938282019390929091908290030181865afa158015610bc0573d6000803e3d6000fd5b505050506040513d601f19601f82011682018060405250810190610be49190614875565b60808301516040516370a0823160e01b81523060048201529192506000916001600160a01b03909116906370a0823190602401602060405180830381865afa158015610c34573d6000803e3d6000fd5b505050506040513d601f19601f82011682018060405250810190610c589190614892565b608090930151965090945090925050505b9193909250565b6000805b601254811015610d2f57600060128281548110610c9357610c9361485f565b60009182526020822001546040516370a0823160e01b81523060048201526001600160a01b03909116925082906370a0823190602401602060405180830381865afa158015610ce6573d6000803e3d6000fd5b505050506040513d601f19601f82011682018060405250810190610d0a9190614892565b9050610d168282610eca565b610d2090856148ab565b93505050806001019050610c74565b5060005b601054811015610ec657600060108281548110610d5257610d5261485f565b600091825260208220600491820201600301546040516370a0823160e01b815230928101929092526001600160a01b0316925082906370a0823190602401602060405180830381865afa158015610dad573d6000803e3d6000fd5b505050506040513d601f19601f82011682018060405250810190610dd19190614892565b90506000610e0660108581548110610deb57610deb61485f565b600091825260209091206004909102015460ff1660016117c7565b905060008113610e1857505050610ebe565b6000610e248284614848565b90506000601e856001600160a01b031663313ce5676040518163ffffffff1660e01b8152600401602060405180830381865afa158015610e68573d6000803e3d6000fd5b505050506040513d601f19601f82011682018060405250810190610e8c9190614875565b60ff16610e9991906148ab565b90506000610ea983836024610950565b9050610eb581896148ab565b97505050505050505b600101610d33565b5090565b600080836001600160a01b031663313ce5676040518163ffffffff1660e01b8152600401602060405180830381865afa158015610f0b573d6000803e3d6000fd5b505050506040513d601f19601f82011682018060405250810190610f2f9190614875565b601354604051636a24d41960e11b81526001600160a01b03878116600483015260ff9390931693506000929091169063d449a83290602401602060405180830381865afa158015610f84573d6000803e3d6000fd5b505050506040513d601f19601f82011682018060405250810190610fa89190614875565b601354604051630681320d60e51b81526001600160a01b03888116600483015260ff9390931693506000929091169063d02641a090602401602060405180830381865afa158015610ffd573d6000803e3d6000fd5b505050506040513d601f19601f820116820180604052508101906110219190614892565b90506110416110308287614848565b61103a84866148ab565b6024610950565b93505050505b92915050565b6000805b601054811015611099578260ff16601082815481106110725761107261485f565b600091825260209091206004909102015460ff16036110915792915050565b600101611051565b5060405162461bcd60e51b815260206004820152601360248201527211d3560e88141bdbdb081b9bdd08199bdd5b99606a1b60448201526064015b60405180910390fd5b6110e5612705565b6001600160a01b038216600081815260156020908152604091829020805460ff191660ff86169081179091558251938452908301527e97ef8921f7712fdab9d5637cfa3703fc8decec3c18f710a3c62a60f822cb06910160405180910390a15050565b60606010805480602002602001604051908101604052809291908181526020016000905b828210156111e05760008481526020908190206040805160a08101825260048602909201805460ff811684526001600160a01b03610100909104811684860152600180830154821693850193909352600282015481166060850152600390910154166080830152908352909201910161116c565b50505050905090565b60408051808201909152600080825260208201526001600160a01b038216611224575050604080518082019091526000808252602082015290565b6013546001600160a01b03166000833b63ffffffff16156112ab57836001600160a01b031663313ce5676040518163ffffffff1660e01b8152600401602060405180830381865afa15801561127d573d6000803e3d6000fd5b505050506040513d601f19601f820116820180604052508101906112a19190614875565b60ff1690506112c9565b506001600160a01b03831660009081526015602052604090205460ff165b6040805180820191829052630681320d60e51b9091526001600160a01b0385811660448301526000919081906113be90861663d02641a0606484015b602060405180830381865afa158015611322573d6000803e3d6000fd5b505050506040513d601f19601f820116820180604052508101906113469190614892565b604051636a24d41960e11b81526001600160a01b038a8116600483015288169063d449a83290602401602060405180830381865afa15801561138c573d6000803e3d6000fd5b505050506040513d601f19601f820116820180604052508101906113b09190614875565b60ff166103b487601e614723565b8152604051630681320d60e51b81526001600160a01b0388811660048301526020909201916113f9919087169063d02641a090602401611305565b905295945050505050565b61140c612705565b6001600160a01b0386161580159061142c57506001600160a01b03851615155b801561144057506001600160a01b03841615155b801561145457506001600160a01b03831615155b801561146857506001600160a01b03821615155b801561147c57506001600160a01b03811615155b6114bf5760405162461bcd60e51b8152602060048201526014602482015273474d583a20496e76616c6964204164647265737360601b60448201526064016110d4565b6040805160c0810182526001600160a01b0380891680835288821660208401819052888316848601819052888416606086018190528885166080870181905294881660a0909601869052600480546001600160a01b0319908116909517905560058054851690931790925560068054841690911790556007805483169091179055600880548216909217909155600980549091169091179055517f426776d3b733c4a7464cf1dd3d3c5d81199723dd1cec0de97ff4e053ce32cbf59061159090889088908890889088908890614012565b60405180910390a1505050505050565b6115a8612705565b6115b26000612732565b565b601481815481106115c457600080fd5b6000918252602090912001546001600160a01b0316905081565b6115e6612705565b60ff808216600090815260116020526040902054166116175760405162461bcd60e51b81526004016110d4906148be565b60006116228261104d565b60105490915060009061163790600190614723565b905080821461170a57601081815481106116535761165361485f565b9060005260206000209060040201601083815481106116745761167461485f565b600091825260209091208254600490920201805460ff90921660ff1983168117825583546001600160a81b031990931617610100928390046001600160a01b0390811690930217815560018084015490820180549184166001600160a01b031992831617905560028085015490830180549185169183169190911790556003938401549390910180549390921692169190911790555b601080548061171b5761171b614907565b6000828152602080822060046000199094019384020180546001600160a81b03191681556001810180546001600160a01b0319908116909155600282018054821690556003909101805490911690559190925560ff851682526011905260409020805460ff1916905561178c612782565b60405160ff841681527f0f19bfba9b2e5adda8bcdbd5c0583080cf3871c58286275b1e90451cb0130aec9060200160405180910390a1505050565b60ff8083166000908152601160205260408120549091166117fa5760405162461bcd60e51b81526004016110d4906148be565b600060106118078561104d565b815481106118175761181761485f565b600091825260208083206040805160a0810182526004948502909201805460ff811684526001600160a01b036101009091048116848601526001820154811684840152600282015481166060850152600390910154811660808401528454825163660d0d6760e01b81529251939750169493859363660d0d679383830193919290918290030181865afa1580156118b2573d6000803e3d6000fd5b505050506040513d601f19601f820116820180604052508101906118d6919061491d565b90506000604051806080016040528085608001516001600160a01b0316815260200185602001516001600160a01b0316815260200185604001516001600160a01b0316815260200185606001516001600160a01b03168152509050600061194085602001516111e9565b9050600061195186604001516111e9565b9050600061196287606001516111e9565b600f5460095460405163095ce6c560e01b815292935090918b916000916001600160a01b039091169063095ce6c5906119ab908b908b908b908b908b908b908b9060040161493a565b61018060405180830381865afa1580156119c9573d6000803e3d6000fd5b505050506040513d601f19601f820116820180604052508101906119ed91906149d5565b509d9c50505050505050505050505050565b600b546001600160a01b03163314611a4a5760405162461bcd60e51b815260206004820152600e60248201526d24b73b30b634b21031b0b63632b960911b60448201526064016110d4565b60005b601254811015611b3557600060128281548110611a6c57611a6c61485f565b6000918252602090912001546040516370a0823160e01b81523060048201526001600160a01b03909116906370a0823190602401602060405180830381865afa158015611abd573d6000803e3d6000fd5b505050506040513d601f19601f82011682018060405250810190611ae19190614892565b90508015611b2c5760025460128054611b2c926001600160a01b031691849186908110611b1057611b1061485f565b6000918252602090912001546001600160a01b03169190612890565b50600101611a4d565b506040517f52095ed2fa7d7c4dd1c5e9a36b117c9a00bd764878e68f95da78cc6f4f54763590600090a1565b6000805b601254811015611bb757826001600160a01b031660128281548110611b8c57611b8c61485f565b6000918252602090912001546001600160a01b031603611baf5750600192915050565b600101611b65565b50600092915050565b611bc8612705565b6001600160a01b038116611c155760405162461bcd60e51b8152602060048201526014602482015273474d583a20496e76616c6964204164647265737360601b60448201526064016110d4565b601380546001600160a01b0319166001600160a01b0383169081179091556040519081527f31304382ad8ca8091d6b1faad35fded717d1771446c64094a9941158a525d255906020016108e3565b60108181548110611c7357600080fd5b6000918252602090912060049091020180546001820154600283015460039093015460ff831694506001600160a01b0361010090930483169391831692918216911685565b611cc0612705565b4781811015611d115760405162461bcd60e51b815260206004820152601f60248201527f5661756c743a20496e76616c696420776974686472617720616d6f756e742e0060448201526064016110d4565b6003546001600160a01b0316611d695760405162461bcd60e51b815260206004820152601760248201527f5661756c743a20496e76616c696420747265617375727900000000000000000060448201526064016110d4565b6003546040516000916001600160a01b03169084908381818185875af1925050503d8060008114611db6576040519150601f19603f3d011682016040523d82523d6000602084013e611dbb565b606091505b5050905080611e0c5760405162461bcd60e51b815260206004820152601b60248201527f5661756c743a204661696c656420746f2073656e64204574686572000000000060448201526064016110d4565b505050565b601281815481106115c457600080fd5b611e29612705565b828114611e785760405162461bcd60e51b815260206004820181905260248201527f417272617973206d7573742068617665207468652073616d65206c656e67746860448201526064016110d4565b60005b83811015611edc57611ed4858583818110611e9857611e9861485f565b9050602002016020810190611ead9190614071565b848484818110611ebf57611ebf61485f565b905060200201602081019061051e919061427e565b600101611e7b565b5050505050565b611eeb612705565b8460ff16600003611f355760405162461bcd60e51b815260206004820152601460248201527311d3560e88125b9d985b1a5908141bdbdb08125960621b60448201526064016110d4565b60ff8086166000908152601160205260409020541615611fa95760405162461bcd60e51b815260206004820152602960248201527f474d583a20506f6f6c2077697468207468697320706f6f6c496420616c72656160448201526864792065786973747360b81b60648201526084016110d4565b6040805160a08101825260ff8088168083526001600160a01b0380891660208086019182528983168688019081528984166060880190815289851660808901908152601080546001818101835560009283528b5160049092027f1b6847dc741a1b0cd08d278845f9d819d87b734759afb55fe2de5cb82a9ae6728101805499518b16610100026001600160a81b0319909a1693909c16929092179790971790995592517f1b6847dc741a1b0cd08d278845f9d819d87b734759afb55fe2de5cb82a9ae673890180549188166001600160a01b031992831617905591517f1b6847dc741a1b0cd08d278845f9d819d87b734759afb55fe2de5cb82a9ae67489018054918816918416919091179055517f1b6847dc741a1b0cd08d278845f9d819d87b734759afb55fe2de5cb82a9ae67590970180549790951696169590951790925591835260119052929020805460ff191690921790915561210984611b61565b61215957601280546001810182556000919091527fbb8a6a4669ba250d26cd7a459eca9d215f8307e33aebe50379bc5a3617ec34440180546001600160a01b0319166001600160a01b0386161790555b61216283611b61565b6121b257601280546001810182556000919091527fbb8a6a4669ba250d26cd7a459eca9d215f8307e33aebe50379bc5a3617ec34440180546001600160a01b0319166001600160a01b0385161790555b60405160ff871681527f09cce9a1e4000121ddb6c53c0c6161a69a7fd0c028b5970acddf3350a920489190602001611590565b6121ed612705565b6040805160c0810182526001600160a01b0380891680835290881660208301819052828401889052606083018790528515156080840181905260a0909301859052600a80546001600160a01b03199081169093179055600b8054909216179055600c869055600d859055600e805460ff19169091179055600f829055517f03d83cb733840674aae397a1ef6a2080fdfcd1f99bfa2efd1092d816f3239afa90611590908890889088908890889088906142c7565b6122a9612705565b6001600160a01b0381166122f85760405162461bcd60e51b81526020600482015260166024820152755661756c743a20496e76616c6964206164647265737360501b60448201526064016110d4565b600380546001600160a01b0319166001600160a01b0383169081179091556040519081527fcb7ef3e545f5cdb893f5c568ba710fe08f336375a2d9fd66e161033f8fc09ef3906020016108e3565b61234e612705565b6001600160a01b03811661237857604051631e4fbdf760e01b8152600060048201526024016110d4565b61238181612732565b50565b6010546060906000906001600160401b038111156123a4576123a461408e565b6040519080825280602002602001820160405280156123e957816020015b60408051808201909152600080825260208201528152602001906001900390816123c25790505b50905060005b6010548110156125b65760006010828154811061240e5761240e61485f565b600091825260208220600491820201600301546040516370a0823160e01b815230928101929092526001600160a01b0316925082906370a0823190602401602060405180830381865afa158015612469573d6000803e3d6000fd5b505050506040513d601f19601f8201168201806040525081019061248d9190614892565b905060006124a760108581548110610deb57610deb61485f565b90506000808213156125475760006124bf8385614848565b90506000601e866001600160a01b031663313ce5676040518163ffffffff1660e01b8152600401602060405180830381865afa158015612503573d6000803e3d6000fd5b505050506040513d601f19601f820116820180604052508101906125279190614875565b60ff1661253491906148ab565b905061254282826024610950565b925050505b60006040518060400160405280601088815481106125675761256761485f565b60009182526020918290206004909102015460ff168252018390528751909150819088908890811061259b5761259b61485f565b602002602001018190525050505050508060010190506123ef565b50919050565b6002546001600160a01b031633146126075760405162461bcd60e51b815260206004820152600e60248201526d24b73b30b634b21031b0b63632b960911b60448201526064016110d4565b61260f6128ef565b600083600481111561262357612623614a89565b03612637576126328282612919565b6126c1565b600183600481111561264b5761264b614a89565b0361265a576126328282612cd2565b600283600481111561266e5761266e614a89565b0361267d576126328282612d17565b600483600481111561269157612691614a89565b036126a0576126328282612d30565b60038360048111156126b4576126b4614a89565b036126c1576126c1612dc6565b7f7602f37cd960866e4a851b683e367e8794f21cddd908ce1d9fe92b978a59f1018383836040516126f493929190614a9f565b60405180910390a1611e0c60018055565b6000546001600160a01b031633146115b25760405163118cdaa760e01b81523360048201526024016110d4565b600080546001600160a01b038381166001600160a01b0319831681178455604051919092169283917f8be0079c531659141344cd1fd0a4f28419497f9722a3daafe3b4186f6b6457e09190a35050565b6012545b8015612381576127c6601261279c600184614723565b815481106127ac576127ac61485f565b6000918252602090912001546001600160a01b0316612e95565b61287e57601280546127da90600190614723565b815481106127ea576127ea61485f565b6000918252602090912001546001600160a01b0316601261280c600184614723565b8154811061281c5761281c61485f565b9060005260206000200160006101000a8154816001600160a01b0302191690836001600160a01b03160217905550601280548061285b5761285b614907565b600082815260209020810160001990810180546001600160a01b03191690550190555b8061288881614ae8565b915050612786565b6040516001600160a01b03838116602483015260448201839052611e0c91859182169063a9059cbb906064015b604051602081830303815290604052915060e01b6020820180516001600160e01b038381831617835250505050612f36565b60026001540361291257604051633ee5aeb560e01b815260040160405180910390fd5b6002600155565b600080808061292a85870187614b77565b93509350935093506000818060200190518101906129489190614892565b60ff8087166000908152601160205260409020549192501661297c5760405162461bcd60e51b81526004016110d4906148be565b8351600214801561298e575082516002145b6129da5760405162461bcd60e51b815260206004820152601b60248201527f474d583a204172726179206c656e677468206d7573742062652032000000000060448201526064016110d4565b60006129e58661104d565b90506000601082815481106129fc576129fc61485f565b600091825260208083206040805160a0810182526004909402909101805460ff811685526001600160a01b036101009091048116938501939093526001810154831691840191909152600281015482166060840152600301541660808201528751909250879190612a6f57612a6f61485f565b60200260200101516001600160a01b031681604001516001600160a01b0316148015612aca575085600181518110612aa957612aa961485f565b60200260200101516001600160a01b031681606001516001600160a01b0316145b612b165760405162461bcd60e51b815260206004820152601860248201527f474d583a20496e76616c696420506f6f6c20746f6b656e73000000000000000060448201526064016110d4565b84600081518110612b2957612b2961485f565b60200260200101516000141580612b5b575084600181518110612b4e57612b4e61485f565b6020026020010151600014155b612ba75760405162461bcd60e51b815260206004820152601960248201527f474d583a20496e76616c696420746f6b656e20616d6f756e740000000000000060448201526064016110d4565b600085600081518110612bbc57612bbc61485f565b60200260200101511115612c16576002548551612c16916001600160a01b03169030908890600090612bf057612bf061485f565b602002602001015184604001516001600160a01b0316612f99909392919063ffffffff16565b600085600181518110612c2b57612c2b61485f565b60200260200101511115612c87576002548551612c87916001600160a01b031690309088906001908110612c6157612c6161485f565b602002602001015184606001516001600160a01b0316612f99909392919063ffffffff16565b612cc78786600081518110612c9e57612c9e61485f565b602002602001015187600181518110612cb957612cb961485f565b602002602001015186612fc7565b505050505050505050565b600080808080612ce486880188614c68565b9450945094509450945060008082806020019051810190612d059190614cdd565b91509150612cc78787878585896133f4565b6000612d2582840184614e48565b9050611e0c816138f6565b600080612d3f83850185614f1b565b915091508160ff16600003612d5c57612d5781613bea565b612d84565b8160ff16600103612d7057612d5781613c4d565b8160ff16600203612d8457612d8481613c7e565b6040805160ff84168152602081018390527f8f9edcb63f442052ba4d68bdd7cf50e8bb5f615f31ba22ecb1eab71fa256dddf910160405180910390a150505050565b60005b60145481101561238157600060148281548110612de857612de861485f565b6000918252602090912001546040516370a0823160e01b81523060048201526001600160a01b03909116906370a0823190602401602060405180830381865afa158015612e39573d6000803e3d6000fd5b505050506040513d601f19601f82011682018060405250810190612e5d9190614892565b90508015612e8c5760025460148054612e8c926001600160a01b031691849186908110611b1057611b1061485f565b50600101612dc9565b6000805b601054811015611bb757826001600160a01b031660108281548110612ec057612ec061485f565b60009182526020909120600160049092020101546001600160a01b03161480612f205750826001600160a01b031660108281548110612f0157612f0161485f565b60009182526020909120600260049092020101546001600160a01b0316145b15612f2e5750600192915050565b600101612e99565b6000612f4b6001600160a01b03841683613caf565b90508051600014158015612f70575080806020019051810190612f6e9190614f39565b155b15611e0c57604051635274afe760e01b81526001600160a01b03841660048201526024016110d4565b612fc184856001600160a01b03166323b872dd8686866040516024016128bd93929190614f56565b50505050565b60006010612fd48661104d565b81548110612fe457612fe461485f565b60009182526020918290206040805160a080820183526004948502909301805460ff80821684526001600160a01b03610100928390048116858a015260018401548116858701819052600285015482166060808801829052600390960154831660808089018290529a54600d548a5161018081018c52308152600b5487169e81019e909e52600a5486169a8e019a909a528c88018290529a8c01839052988b0181905260c08b0186905260e08b01869052938a018c9052600e5490921615156101208a01526101408901869052600c546101608a0152939850959092169591939290918291908b156130ea576005546130ea906001600160a01b0389811691168e613cbd565b8a1561310a5760055461310a906001600160a01b0388811691168d613cbd565b60408051600480825260a08201909252600091816020015b6060815260200190600190039081613122579050506006546040516001600160a01b0390911660248201526044810185905290915060640160408051601f198184030181529190526020810180516001600160e01b0316637d39aaf160e01b179052815182906000906131975761319761485f565b602002602001018190525087600460020160009054906101000a90046001600160a01b03168e6040516024016131cf93929190614f56565b60408051601f198184030181529190526020810180516001600160e01b0316631cdacd5960e31b17905281518290600190811061320e5761320e61485f565b602090810291909101015260065460405161323b9189916001600160a01b03909116908f90602401614f56565b60408051601f198184030181529190526020810180516001600160e01b0316631cdacd5960e31b17905281518290600290811061327a5761327a61485f565b6020026020010181905250816040516024016132969190614fbf565b60408051601f198184030181529190526020810180516001600160e01b0316635b4e956160e01b1790528151829060039081106132d5576132d561485f565b60200260200101819052506000896001600160a01b031663ac9650d885846040518363ffffffff1660e01b815260040161330f91906150ec565b60006040518083038185885af115801561332d573d6000803e3d6000fd5b50505050506040513d6000823e601f3d908101601f191682016040526133569190810190615166565b600b5481519192506001600160a01b031690632c99327a90839060039081106133815761338161485f565b602002602001015161339290615252565b60006040518363ffffffff1660e01b81526004016133b1929190615286565b600060405180830381600087803b1580156133cb57600080fd5b505af11580156133df573d6000803e3d6000fd5b50505050505050505050505050505050505050565b600060106134018861104d565b815481106134115761341161485f565b600091825260208083206040805160a0810182526004948502909201805460ff8116845261010090046001600160a01b0390811694840194909452600181015484168383015260028101548416606080850191909152600390910154841660808401819052855492516370a0823160e01b815230968101969096529296509216939192839291906370a0823190602401602060405180830381865afa1580156134be573d6000803e3d6000fd5b505050506040513d601f19601f820116820180604052508101906134e29190614892565b90508981101580156134f4575060008a115b61354f5760405162461bcd60e51b815260206004820152602660248201527f474d583a20496e73756666696369656e74206d61726b657420746f6b656e2062604482015265616c616e636560d01b60648201526084016110d4565b60408051610160810182526001600160a01b038089168252600b5481166020830152600a54811692820192909252608080880180518416606084015290820186905260a0820185905260c082018b905260e082018a9052600e5460ff161515610100830152600d54610120830152600c54610140830152600554905191926135db92811691168d613cbd565b60408051600380825260808201909252600091816020015b60608152602001906001900390816135f357905050600754600d546040516001600160a01b039092166024830152604482015290915060640160408051601f198184030181529190526020810180516001600160e01b0316637d39aaf160e01b179052815182906000906136695761366961485f565b6020908102919091010152608087015160075460405161369892916001600160a01b0316908f90602401614f56565b60408051601f198184030181529190526020810180516001600160e01b0316631cdacd5960e31b1790528151829060019081106136d7576136d761485f565b6020026020010181905250816040516024016136f391906152a3565b60408051601f198184030181529190526020810180516001600160e01b031663ad23c5a160e01b1790528151829060029081106137325761373261485f565b6020908102919091010152600d54604051631592ca1b60e31b81526000916001600160a01b0389169163ac9650d891906137709086906004016150ec565b60006040518083038185885af115801561378e573d6000803e3d6000fd5b50505050506040513d6000823e601f3d908101601f191682016040526137b79190810190615166565b600b5481519192506001600160a01b031690632c99327a90839060029081106137e2576137e261485f565b60200260200101516137f390615252565b60016040518363ffffffff1660e01b8152600401613812929190615286565b600060405180830381600087803b15801561382c57600080fd5b505af1158015613840573d6000803e3d6000fd5b5050600b5483516001600160a01b03909116925063c9cbe54e91508390600290811061386e5761386e61485f565b602002602001015161387f90615252565b6040516001600160e01b031960e084901b1681526004810191909152602481018f90526001600160a01b038c166044820152606401600060405180830381600087803b1580156138ce57600080fd5b505af11580156138e2573d6000803e3d6000fd5b505050505050505050505050505050505050565b6002548151516001600160a01b039081169116146139495760405162461bcd60e51b815260206004820152601060248201526f24b73b30b634b2103932b1b2b4bb32b960811b60448201526064016110d4565b600b5481516001600160a01b03918216602091820152600c54818401805160a0019190915260045484516080908101519251938401519301519316929091906000856040015160078111156139a0576139a0614a89565b14806139c157506001856040015160078111156139bf576139bf614a89565b145b806139e157506002856040015160078111156139df576139df614a89565b145b80613a0157506003856040015160078111156139ff576139ff614a89565b145b15613aa257600254613a21906001600160a01b0385811691163085612f99565b600554613a3b906001600160a01b03858116911684613cbd565b600854604051631cdacd5960e31b81526001600160a01b038087169263e6d66ac892613a6f92889216908790600401614f56565b600060405180830381600087803b158015613a8957600080fd5b505af1158015613a9d573d6000803e3d6000fd5b505050505b600854604051637d39aaf160e01b81526001600160a01b0391821660048201526024810183905290851690637d39aaf19083906044016000604051808303818588803b158015613af157600080fd5b505af1158015613b05573d6000803e3d6000fd5b5050604051634a393a4160e01b8152600093506001600160a01b0388169250634a393a419150613b399089906004016153a8565b6020604051808303816000875af1158015613b58573d6000803e3d6000fd5b505050506040513d601f19601f82011682018060405250810190613b7c9190614892565b600b5460405163164c993d60e11b81529192506001600160a01b031690632c99327a90613bb0908490600290600401615286565b600060405180830381600087803b158015613bca57600080fd5b505af1158015613bde573d6000803e3d6000fd5b50505050505050505050565b60048054604051630c50112160e21b81529182018390526001600160a01b03169081906331404484906024015b600060405180830381600087803b158015613c3157600080fd5b505af1158015613c45573d6000803e3d6000fd5b505050505050565b600480546040516303909e2d60e51b81529182018390526001600160a01b0316908190637213c5a090602401613c17565b60048054604051637489ec2360e01b81529182018390526001600160a01b0316908190637489ec2390602401613c17565b606061099e83836000613d47565b604051636eb1769f60e11b81523060048201526001600160a01b0383811660248301526000919085169063dd62ed3e90604401602060405180830381865afa158015613d0d573d6000803e3d6000fd5b505050506040513d601f19601f82011682018060405250810190613d319190614892565b9050612fc18484613d4285856148ab565b613de4565b606081471015613d6c5760405163cd78605960e01b81523060048201526024016110d4565b600080856001600160a01b03168486604051613d8891906154c5565b60006040518083038185875af1925050503d8060008114613dc5576040519150601f19603f3d011682016040523d82523d6000602084013e613dca565b606091505b5091509150613dda868383613e74565b9695505050505050565b604080516001600160a01b038416602482015260448082018490528251808303909101815260649091019091526020810180516001600160e01b031663095ea7b360e01b179052613e358482613ed0565b612fc1576040516001600160a01b03848116602483015260006044830152613e6a91869182169063095ea7b3906064016128bd565b612fc18482612f36565b606082613e8957613e8482613f78565b61099e565b8151158015613ea057506001600160a01b0384163b155b15613ec957604051639996b31560e01b81526001600160a01b03851660048201526024016110d4565b508061099e565b6000806000846001600160a01b031684604051613eed91906154c5565b6000604051808303816000865af19150503d8060008114613f2a576040519150601f19603f3d011682016040523d82523d6000602084013e613f2f565b606091505b5091509150818015613f59575080511580613f59575080806020019051810190613f599190614f39565b8015613f6f57506000856001600160a01b03163b115b95945050505050565b805115613f885780518082602001fd5b604051630a12f52160e11b815260040160405180910390fd5b828054828255906000526020600020908101928215613ff6579160200282015b82811115613ff657825182546001600160a01b0319166001600160a01b03909116178255602090920191600190910190613fc1565b50610ec69291505b80821115610ec65760008155600101613ffe565b6001600160a01b0396871681529486166020860152928516604085015290841660608401528316608083015290911660a082015260c00190565b6001600160a01b038116811461238157600080fd5b803561406c8161404c565b919050565b60006020828403121561408357600080fd5b813561099e8161404c565b634e487b7160e01b600052604160045260246000fd5b60405161016081016001600160401b03811182821017156140c7576140c761408e565b60405290565b60405160e081016001600160401b03811182821017156140c7576140c761408e565b604051601f8201601f191681016001600160401b03811182821017156141175761411761408e565b604052919050565b60006001600160401b038211156141385761413861408e565b5060051b60200190565b600082601f83011261415357600080fd5b813560206141686141638361411f565b6140ef565b8083825260208201915060208460051b87010193508684111561418a57600080fd5b602086015b848110156141af5780356141a28161404c565b835291830191830161418f565b509695505050505050565b6000602082840312156141cc57600080fd5b81356001600160401b038111156141e257600080fd5b6141ee84828501614142565b949350505050565b6020808252825182820181905260009190848201906040850190845b818110156142375783516001600160a01b031683529284019291840191600101614212565b50909695505050505050565b60008060006060848603121561425857600080fd5b505081359360208301359350604090920135919050565b60ff8116811461238157600080fd5b60006020828403121561429057600080fd5b813561099e8161426f565b600080604083850312156142ae57600080fd5b82356142b98161404c565b946020939093013593505050565b6001600160a01b039687168152949095166020850152604084019290925260608301521515608082015260a081019190915260c00190565b6000806040838503121561431257600080fd5b823561431d8161404c565b9150602083013561432d8161426f565b809150509250929050565b602080825282518282018190526000919060409081850190868401855b828110156143ac578151805160ff168552868101516001600160a01b039081168887015286820151811687870152606080830151821690870152608091820151169085015260a09093019290850190600101614355565b5091979650505050505050565b815181526020808301519082015260408101611047565b60008060008060008060c087890312156143e957600080fd5b86356143f48161404c565b955060208701356144048161404c565b945060408701356144148161404c565b935060608701356144248161404c565b925060808701356144348161404c565b915060a08701356144448161404c565b809150509295509295509295565b60006020828403121561446457600080fd5b5035919050565b801515811461238157600080fd5b803561406c8161446b565b6000806040838503121561449757600080fd5b82356144a28161426f565b9150602083013561432d8161446b565b60008083601f8401126144c457600080fd5b5081356001600160401b038111156144db57600080fd5b6020830191508360208260051b85010111156144f657600080fd5b9250929050565b6000806000806040858703121561451357600080fd5b84356001600160401b038082111561452a57600080fd5b614536888389016144b2565b9096509450602087013591508082111561454f57600080fd5b5061455c878288016144b2565b95989497509550505050565b600080600080600060a0868803121561458057600080fd5b853561458b8161426f565b9450602086013561459b8161404c565b935060408601356145ab8161404c565b925060608601356145bb8161404c565b915060808601356145cb8161404c565b809150509295509295909350565b60008060008060008060c087890312156145f257600080fd5b86356145fd8161404c565b9550602087013561460d8161404c565b94506040870135935060608701359250608087013561462b8161446b565b8092505060a087013590509295509295509295565b602080825282518282018190526000919060409081850190868401855b828110156143ac578151805160ff16855286015186850152928401929085019060010161465d565b60008060006040848603121561469a57600080fd5b8335600581106146a957600080fd5b925060208401356001600160401b03808211156146c557600080fd5b818601915086601f8301126146d957600080fd5b8135818111156146e857600080fd5b8760208285010111156146fa57600080fd5b6020830194508093505050509250925092565b634e487b7160e01b600052601160045260246000fd5b818103818111156110475761104761470d565b600181815b808511156147715781600019048211156147575761475761470d565b8085161561476457918102915b93841c939080029061473b565b509250929050565b60008261478857506001611047565b8161479557506000611047565b81600181146147ab57600281146147b5576147d1565b6001915050611047565b60ff8411156147c6576147c661470d565b50506001821b611047565b5060208310610133831016604e8410600b84101617156147f4575081810a611047565b6147fe8383614736565b80600019048211156148125761481261470d565b029392505050565b600061099e8383614779565b60008261484357634e487b7160e01b600052601260045260246000fd5b500490565b80820281158282048414176110475761104761470d565b634e487b7160e01b600052603260045260246000fd5b60006020828403121561488757600080fd5b815161099e8161426f565b6000602082840312156148a457600080fd5b5051919050565b808201808211156110475761104761470d565b60208082526029908201527f474d583a20506f6f6c2077697468207468697320706f6f6c496420646f6573206040820152681b9bdd08195e1a5cdd60ba1b606082015260800190565b634e487b7160e01b600052603160045260246000fd5b60006020828403121561492f57600080fd5b815161099e8161404c565b60006101a08201905060018060a01b03808a1683528089511660208401528060208a01511660408401528060408a01511660608401528060608a01511660808401525061499460a083018880518252602090810151910152565b855160e08301526020860151610100830152845161012083015260208501516101408301528361016083015282151561018083015298975050505050505050565b6000808284036101808112156149ea57600080fd5b8351925061016080601f1983011215614a0257600080fd5b614a0a6140a4565b91506020850151825260408501516020830152606085015160408301526080850151606083015260a0850151608083015260c085015160a083015260e085015160c08301526101008086015160e08401526101208087015182850152610140915081870151818501525081860151818401525050809150509250929050565b634e487b7160e01b600052602160045260246000fd5b600060058510614ab157614ab1614a89565b84825260406020830152826040830152828460608401376000606084840101526060601f19601f8501168301019050949350505050565b600081614af757614af761470d565b506000190190565b60006001600160401b03821115614b1857614b1861408e565b50601f01601f191660200190565b600082601f830112614b3757600080fd5b8135614b4561416382614aff565b818152846020838601011115614b5a57600080fd5b816020850160208301376000918101602001919091529392505050565b60008060008060808587031215614b8d57600080fd5b8435614b988161426f565b93506020858101356001600160401b0380821115614bb557600080fd5b614bc189838a01614142565b95506040880135915080821115614bd757600080fd5b818801915088601f830112614beb57600080fd5b8135614bf96141638261411f565b81815260059190911b8301840190848101908b831115614c1857600080fd5b938501935b82851015614c3657843582529385019390850190614c1d565b965050506060880135925080831115614c4e57600080fd5b5050614c5c87828801614b26565b91505092959194509250565b600080600080600060a08688031215614c8057600080fd5b8535614c8b8161426f565b945060208601359350604086013592506060860135614ca98161404c565b915060808601356001600160401b03811115614cc457600080fd5b614cd088828901614b26565b9150509295509295909350565b60008060408385031215614cf057600080fd5b505080516020909101519092909150565b600060c08284031215614d1357600080fd5b60405160c081016001600160401b038282108183111715614d3657614d3661408e565b8160405282935084359150614d4a8261404c565b908252602084013590614d5c8261404c565b81602084015260408501359150614d728261404c565b816040840152614d8460608601614061565b6060840152614d9560808601614061565b608084015260a0850135915080821115614dae57600080fd5b50614dbb85828601614142565b60a0830152505092915050565b600060e08284031215614dda57600080fd5b614de26140cd565b9050813581526020820135602082015260408201356040820152606082013560608201526080820135608082015260a082013560a082015260c082013560c082015292915050565b80356008811061406c57600080fd5b80356003811061406c57600080fd5b600060208284031215614e5a57600080fd5b81356001600160401b0380821115614e7157600080fd5b908301906101a08286031215614e8657600080fd5b614e8e6140cd565b823582811115614e9d57600080fd5b614ea987828601614d01565b825250614eb98660208501614dc8565b6020820152614ecb6101008401614e2a565b6040820152614edd6101208401614e39565b6060820152614eef6101408401614479565b6080820152614f016101608401614479565b60a0820152610180929092013560c0830152509392505050565b60008060408385031215614f2e57600080fd5b82356142b98161426f565b600060208284031215614f4b57600080fd5b815161099e8161446b565b6001600160a01b039384168152919092166020820152604081019190915260600190565b60008151808452602080850194506020840160005b83811015614fb45781516001600160a01b031687529582019590820190600101614f8f565b509495945050505050565b60208152614fd96020820183516001600160a01b03169052565b60006020830151614ff560408401826001600160a01b03169052565b5060408301516001600160a01b03811660608401525060608301516001600160a01b03811660808401525060808301516001600160a01b03811660a08401525060a08301516001600160a01b03811660c08401525060c08301516101808060e08501526150666101a0850183614f7a565b915060e0850151610100601f1986850301818701526150858483614f7a565b908701516101208781019190915287015190935090506101406150ab8187018315159052565b860151610160868101919091529095015193019290925250919050565b60005b838110156150e35781810151838201526020016150cb565b50506000910152565b6000602080830181845280855180835260408601915060408160051b870101925083870160005b8281101561515957878503603f190184528151805180875261513a818989018a85016150c8565b601f01601f191695909501860194509285019290850190600101615113565b5092979650505050505050565b6000602080838503121561517957600080fd5b82516001600160401b038082111561519057600080fd5b818501915085601f8301126151a457600080fd5b81516151b26141638261411f565b81815260059190911b830184019084810190888311156151d157600080fd5b8585015b83811015615245578051858111156151ed5760008081fd5b8601603f81018b136151ff5760008081fd5b87810151604061521161416383614aff565b8281528d828486010111156152265760008081fd5b615235838c83018487016150c8565b86525050509186019186016151d5565b5098975050505050505050565b805160208083015191908110156125b65760001960209190910360031b1b16919050565b6003811061238157612381614a89565b8281526040810161529683615276565b8260208301529392505050565b602081526152bd6020820183516001600160a01b03169052565b600060208301516152d960408401826001600160a01b03169052565b5060408301516001600160a01b03811660608401525060608301516001600160a01b03811660808401525060808301516101608060a0850152615320610180850183614f7a565b915060a0850151601f198584030160c086015261533d8382614f7a565b92505060c085015160e085015260e085015161010081818701528087015191505061012061536e8187018315159052565b860151610140868101919091529095015193019290925250919050565b6008811061539b5761539b614a89565b9052565b61539b81615276565b602080825282516101a083830181905281516001600160a01b039081166101c08601529282015183166101e08501526040820151831661020085015260608201518316610220850152608082015190921661024084015260a0015160c061026084015260009161541c610280850183614f7a565b9150602085015161546f6040860182805182526020810151602083015260408101516040830152606081015160608301526080810151608083015260a081015160a083015260c081015160c08301525050565b50604085015161548361012086018261538b565b50606085015161549761014086018261539f565b506080850151151561016085015260a0850151151561018085015260c0909401519390920192909252919050565b600082516154d78184602087016150c8565b919091019291505056fea2646970667358221220b625337dbd9d4b3180ecd5e5a09f0f9093cfafab42a5cefb9c7a3e8b55fc15bf64736f6c63430008180033",
  "devdoc": {
    "errors": {
      "AddressEmptyCode(address)": [
        {
          "details": "There's no code at `target` (it is not a contract)."
        }
      ],
      "AddressInsufficientBalance(address)": [
        {
          "details": "The ETH balance of the account is not enough to perform the operation."
        }
      ],
      "FailedInnerCall()": [
        {
          "details": "A call to an address target failed. The target may have reverted."
        }
      ],
      "OwnableInvalidOwner(address)": [
        {
          "details": "The owner is not a valid owner account. (eg. `address(0)`)"
        }
      ],
      "OwnableUnauthorizedAccount(address)": [
        {
          "details": "The caller account is not authorized to perform an operation."
        }
      ],
      "ReentrancyGuardReentrantCall()": [
        {
          "details": "Unauthorized reentrant call."
        }
      ],
      "SafeERC20FailedOperation(address)": [
        {
          "details": "An operation with an ERC20 token failed."
        }
      ]
    },
    "kind": "dev",
    "methods": {
      "owner()": {
        "details": "Returns the address of the current owner."
      },
      "renounceOwnership()": {
        "details": "Leaves the contract without owner. It will not be possible to call `onlyOwner` functions. Can only be called by the current owner. NOTE: Renouncing ownership will leave the contract without an owner, thereby disabling any functionality that is only available to the owner."
      },
      "transferOwnership(address)": {
        "details": "Transfers ownership of the contract to a new account (`newOwner`). Can only be called by the current owner."
      }
    },
    "version": 1
  },
  "userdoc": {
    "kind": "user",
    "methods": {},
    "version": 1
  },
  "storageLayout": {
    "storage": [
      {
        "astId": 8,
        "contract": "contracts/vaults/theseus/GmxPlugin.sol:GmxPlugin",
        "label": "_owner",
        "offset": 0,
        "slot": "0",
        "type": "t_address"
      },
      {
        "astId": 1523,
        "contract": "contracts/vaults/theseus/GmxPlugin.sol:GmxPlugin",
        "label": "_status",
        "offset": 0,
        "slot": "1",
        "type": "t_uint256"
      },
      {
        "astId": 6714,
        "contract": "contracts/vaults/theseus/GmxPlugin.sol:GmxPlugin",
        "label": "localVault",
        "offset": 0,
        "slot": "2",
        "type": "t_address"
      },
      {
        "astId": 6716,
        "contract": "contracts/vaults/theseus/GmxPlugin.sol:GmxPlugin",
        "label": "treasury",
        "offset": 0,
        "slot": "3",
        "type": "t_address_payable"
      },
      {
        "astId": 6719,
        "contract": "contracts/vaults/theseus/GmxPlugin.sol:GmxPlugin",
        "label": "routerConfig",
        "offset": 0,
        "slot": "4",
        "type": "t_struct(RouterConfig)6683_storage"
      },
      {
        "astId": 6722,
        "contract": "contracts/vaults/theseus/GmxPlugin.sol:GmxPlugin",
        "label": "gmxParams",
        "offset": 0,
        "slot": "10",
        "type": "t_struct(GmxParams)6707_storage"
      },
      {
        "astId": 6726,
        "contract": "contracts/vaults/theseus/GmxPlugin.sol:GmxPlugin",
        "label": "pools",
        "offset": 0,
        "slot": "16",
        "type": "t_array(t_struct(PoolConfig)6694_storage)dyn_storage"
      },
      {
        "astId": 6730,
        "contract": "contracts/vaults/theseus/GmxPlugin.sol:GmxPlugin",
        "label": "poolExistsMap",
        "offset": 0,
        "slot": "17",
        "type": "t_mapping(t_uint8,t_bool)"
      },
      {
        "astId": 6733,
        "contract": "contracts/vaults/theseus/GmxPlugin.sol:GmxPlugin",
        "label": "uniqueTokens",
        "offset": 0,
        "slot": "18",
        "type": "t_array(t_address)dyn_storage"
      },
      {
        "astId": 6735,
        "contract": "contracts/vaults/theseus/GmxPlugin.sol:GmxPlugin",
        "label": "tokenPriceConsumer",
        "offset": 0,
        "slot": "19",
        "type": "t_address"
      },
      {
        "astId": 6738,
        "contract": "contracts/vaults/theseus/GmxPlugin.sol:GmxPlugin",
        "label": "rewardTokens",
        "offset": 0,
        "slot": "20",
        "type": "t_array(t_address)dyn_storage"
      },
      {
        "astId": 6742,
        "contract": "contracts/vaults/theseus/GmxPlugin.sol:GmxPlugin",
        "label": "tokenDecimalList",
        "offset": 0,
        "slot": "21",
        "type": "t_mapping(t_address,t_uint8)"
      }
    ],
    "types": {
      "t_address": {
        "encoding": "inplace",
        "label": "address",
        "numberOfBytes": "20"
      },
      "t_address_payable": {
        "encoding": "inplace",
        "label": "address payable",
        "numberOfBytes": "20"
      },
      "t_array(t_address)dyn_storage": {
        "base": "t_address",
        "encoding": "dynamic_array",
        "label": "address[]",
        "numberOfBytes": "32"
      },
      "t_array(t_struct(PoolConfig)6694_storage)dyn_storage": {
        "base": "t_struct(PoolConfig)6694_storage",
        "encoding": "dynamic_array",
        "label": "struct GmxPlugin.PoolConfig[]",
        "numberOfBytes": "32"
      },
      "t_bool": {
        "encoding": "inplace",
        "label": "bool",
        "numberOfBytes": "1"
      },
      "t_bytes32": {
        "encoding": "inplace",
        "label": "bytes32",
        "numberOfBytes": "32"
      },
      "t_mapping(t_address,t_uint8)": {
        "encoding": "mapping",
        "key": "t_address",
        "label": "mapping(address => uint8)",
        "numberOfBytes": "32",
        "value": "t_uint8"
      },
      "t_mapping(t_uint8,t_bool)": {
        "encoding": "mapping",
        "key": "t_uint8",
        "label": "mapping(uint8 => bool)",
        "numberOfBytes": "32",
        "value": "t_bool"
      },
      "t_struct(GmxParams)6707_storage": {
        "encoding": "inplace",
        "label": "struct GmxPlugin.GmxParams",
        "members": [
          {
            "astId": 6696,
            "contract": "contracts/vaults/theseus/GmxPlugin.sol:GmxPlugin",
            "label": "uiFeeReceiver",
            "offset": 0,
            "slot": "0",
            "type": "t_address"
          },
          {
            "astId": 6698,
            "contract": "contracts/vaults/theseus/GmxPlugin.sol:GmxPlugin",
            "label": "callbackContract",
            "offset": 0,
            "slot": "1",
            "type": "t_address"
          },
          {
            "astId": 6700,
            "contract": "contracts/vaults/theseus/GmxPlugin.sol:GmxPlugin",
            "label": "callbackGasLimit",
            "offset": 0,
            "slot": "2",
            "type": "t_uint256"
          },
          {
            "astId": 6702,
            "contract": "contracts/vaults/theseus/GmxPlugin.sol:GmxPlugin",
            "label": "executionFee",
            "offset": 0,
            "slot": "3",
            "type": "t_uint256"
          },
          {
            "astId": 6704,
            "contract": "contracts/vaults/theseus/GmxPlugin.sol:GmxPlugin",
            "label": "shouldUnwrapNativeToken",
            "offset": 0,
            "slot": "4",
            "type": "t_bool"
          },
          {
            "astId": 6706,
            "contract": "contracts/vaults/theseus/GmxPlugin.sol:GmxPlugin",
            "label": "pnlFactorType",
            "offset": 0,
            "slot": "5",
            "type": "t_bytes32"
          }
        ],
        "numberOfBytes": "192"
      },
      "t_struct(PoolConfig)6694_storage": {
        "encoding": "inplace",
        "label": "struct GmxPlugin.PoolConfig",
        "members": [
          {
            "astId": 6685,
            "contract": "contracts/vaults/theseus/GmxPlugin.sol:GmxPlugin",
            "label": "poolId",
            "offset": 0,
            "slot": "0",
            "type": "t_uint8"
          },
          {
            "astId": 6687,
            "contract": "contracts/vaults/theseus/GmxPlugin.sol:GmxPlugin",
            "label": "indexToken",
            "offset": 1,
            "slot": "0",
            "type": "t_address"
          },
          {
            "astId": 6689,
            "contract": "contracts/vaults/theseus/GmxPlugin.sol:GmxPlugin",
            "label": "longToken",
            "offset": 0,
            "slot": "1",
            "type": "t_address"
          },
          {
            "astId": 6691,
            "contract": "contracts/vaults/theseus/GmxPlugin.sol:GmxPlugin",
            "label": "shortToken",
            "offset": 0,
            "slot": "2",
            "type": "t_address"
          },
          {
            "astId": 6693,
            "contract": "contracts/vaults/theseus/GmxPlugin.sol:GmxPlugin",
            "label": "marketToken",
            "offset": 0,
            "slot": "3",
            "type": "t_address"
          }
        ],
        "numberOfBytes": "128"
      },
      "t_struct(RouterConfig)6683_storage": {
        "encoding": "inplace",
        "label": "struct GmxPlugin.RouterConfig",
        "members": [
          {
            "astId": 6672,
            "contract": "contracts/vaults/theseus/GmxPlugin.sol:GmxPlugin",
            "label": "exchangeRouter",
            "offset": 0,
            "slot": "0",
            "type": "t_address"
          },
          {
            "astId": 6674,
            "contract": "contracts/vaults/theseus/GmxPlugin.sol:GmxPlugin",
            "label": "router",
            "offset": 0,
            "slot": "1",
            "type": "t_address"
          },
          {
            "astId": 6676,
            "contract": "contracts/vaults/theseus/GmxPlugin.sol:GmxPlugin",
            "label": "depositVault",
            "offset": 0,
            "slot": "2",
            "type": "t_address"
          },
          {
            "astId": 6678,
            "contract": "contracts/vaults/theseus/GmxPlugin.sol:GmxPlugin",
            "label": "withdrawVault",
            "offset": 0,
            "slot": "3",
            "type": "t_address"
          },
          {
            "astId": 6680,
            "contract": "contracts/vaults/theseus/GmxPlugin.sol:GmxPlugin",
            "label": "orderVault",
            "offset": 0,
            "slot": "4",
            "type": "t_address"
          },
          {
            "astId": 6682,
            "contract": "contracts/vaults/theseus/GmxPlugin.sol:GmxPlugin",
            "label": "reader",
            "offset": 0,
            "slot": "5",
            "type": "t_address"
          }
        ],
        "numberOfBytes": "192"
      },
      "t_uint256": {
        "encoding": "inplace",
        "label": "uint256",
        "numberOfBytes": "32"
      },
      "t_uint8": {
        "encoding": "inplace",
        "label": "uint8",
        "numberOfBytes": "1"
      }
    }
  }
}