{
  "address": "0x536989ADF8b154EeF489f9ff3c981f9ED4abD8eD",
  "abi": [
    {
      "inputs": [
        {
          "internalType": "address",
          "name": "_localVault",
          "type": "address"
        }
      ],
      "stateMutability": "nonpayable",
      "type": "constructor"
    },
    {
      "inputs": [
        {
          "internalType": "address",
          "name": "target",
          "type": "address"
        }
      ],
      "name": "AddressEmptyCode",
      "type": "error"
    },
    {
      "inputs": [
        {
          "internalType": "address",
          "name": "account",
          "type": "address"
        }
      ],
      "name": "AddressInsufficientBalance",
      "type": "error"
    },
    {
      "inputs": [],
      "name": "FailedInnerCall",
      "type": "error"
    },
    {
      "inputs": [
        {
          "internalType": "address",
          "name": "owner",
          "type": "address"
        }
      ],
      "name": "OwnableInvalidOwner",
      "type": "error"
    },
    {
      "inputs": [
        {
          "internalType": "address",
          "name": "account",
          "type": "address"
        }
      ],
      "name": "OwnableUnauthorizedAccount",
      "type": "error"
    },
    {
      "inputs": [],
      "name": "ReentrancyGuardReentrantCall",
      "type": "error"
    },
    {
      "inputs": [
        {
          "internalType": "address",
          "name": "token",
          "type": "address"
        }
      ],
      "name": "SafeERC20FailedOperation",
      "type": "error"
    },
    {
      "anonymous": false,
      "inputs": [
        {
          "indexed": false,
          "internalType": "uint8",
          "name": "_actionType",
          "type": "uint8"
        },
        {
          "indexed": false,
          "internalType": "bytes32",
          "name": "_key",
          "type": "bytes32"
        }
      ],
      "name": "CancelAction",
      "type": "event"
    },
    {
      "anonymous": false,
      "inputs": [
        {
          "indexed": false,
          "internalType": "enum IPlugin.ActionType",
          "name": "_actionType",
          "type": "uint8"
        },
        {
          "indexed": false,
          "internalType": "uint256[]",
          "name": "claimedAmounts",
          "type": "uint256[]"
        }
      ],
      "name": "ClaimFromGMX",
      "type": "event"
    },
    {
      "anonymous": false,
      "inputs": [
        {
          "indexed": false,
          "internalType": "enum IPlugin.ActionType",
          "name": "_actionType",
          "type": "uint8"
        },
        {
          "indexed": false,
          "internalType": "bytes",
          "name": "_payload",
          "type": "bytes"
        }
      ],
      "name": "Execute",
      "type": "event"
    },
    {
      "anonymous": false,
      "inputs": [
        {
          "indexed": true,
          "internalType": "address",
          "name": "previousOwner",
          "type": "address"
        },
        {
          "indexed": true,
          "internalType": "address",
          "name": "newOwner",
          "type": "address"
        }
      ],
      "name": "OwnershipTransferred",
      "type": "event"
    },
    {
      "anonymous": false,
      "inputs": [
        {
          "indexed": false,
          "internalType": "uint8",
          "name": "poolId",
          "type": "uint8"
        }
      ],
      "name": "PoolAdded",
      "type": "event"
    },
    {
      "anonymous": false,
      "inputs": [
        {
          "indexed": false,
          "internalType": "uint8",
          "name": "poolId",
          "type": "uint8"
        }
      ],
      "name": "PoolRemoved",
      "type": "event"
    },
    {
      "anonymous": false,
      "inputs": [
        {
          "indexed": false,
          "internalType": "address",
          "name": "_uiFeeReceiver",
          "type": "address"
        },
        {
          "indexed": false,
          "internalType": "address",
          "name": "_callbackContract",
          "type": "address"
        },
        {
          "indexed": false,
          "internalType": "uint256",
          "name": "_callbackGasLimit",
          "type": "uint256"
        },
        {
          "indexed": false,
          "internalType": "uint256",
          "name": "_executionFee",
          "type": "uint256"
        },
        {
          "indexed": false,
          "internalType": "bool",
          "name": "_shouldUnwrapNativeToken",
          "type": "bool"
        },
        {
          "indexed": false,
          "internalType": "bytes32",
          "name": "_pnlFactorType",
          "type": "bytes32"
        }
      ],
      "name": "SetGmxParams",
      "type": "event"
    },
    {
      "anonymous": false,
      "inputs": [
        {
          "indexed": false,
          "internalType": "address[]",
          "name": "_rewardTokens",
          "type": "address[]"
        }
      ],
      "name": "SetRewardTokens",
      "type": "event"
    },
    {
      "anonymous": false,
      "inputs": [
        {
          "indexed": false,
          "internalType": "address",
          "name": "_exchangeRouter",
          "type": "address"
        },
        {
          "indexed": false,
          "internalType": "address",
          "name": "_router",
          "type": "address"
        },
        {
          "indexed": false,
          "internalType": "address",
          "name": "_depositVault",
          "type": "address"
        },
        {
          "indexed": false,
          "internalType": "address",
          "name": "_withdrawVault",
          "type": "address"
        },
        {
          "indexed": false,
          "internalType": "address",
          "name": "_orderVault",
          "type": "address"
        },
        {
          "indexed": false,
          "internalType": "address",
          "name": "_reader",
          "type": "address"
        }
      ],
      "name": "SetRouterConfig",
      "type": "event"
    },
    {
      "anonymous": false,
      "inputs": [
        {
          "indexed": false,
          "internalType": "address",
          "name": "_tokenPriceConsumer",
          "type": "address"
        }
      ],
      "name": "SetTokenPriceConsumer",
      "type": "event"
    },
    {
      "anonymous": false,
      "inputs": [
        {
          "indexed": false,
          "internalType": "address payable",
          "name": "treasury",
          "type": "address"
        }
      ],
      "name": "SetTreasury",
      "type": "event"
    },
    {
      "anonymous": false,
      "inputs": [],
      "name": "TransferAllTokensToVault",
      "type": "event"
    },
    {
      "stateMutability": "payable",
      "type": "fallback"
    },
    {
      "inputs": [],
      "name": "ASSET_DECIMALS",
      "outputs": [
        {
          "internalType": "uint256",
          "name": "",
          "type": "uint256"
        }
      ],
      "stateMutability": "view",
      "type": "function"
    },
    {
      "inputs": [],
      "name": "MARKET_TOKEN_PRICE_DECIMALS",
      "outputs": [
        {
          "internalType": "uint256",
          "name": "",
          "type": "uint256"
        }
      ],
      "stateMutability": "view",
      "type": "function"
    },
    {
      "inputs": [
        {
          "internalType": "uint8",
          "name": "_poolId",
          "type": "uint8"
        },
        {
          "internalType": "address",
          "name": "_indexToken",
          "type": "address"
        },
        {
          "internalType": "address",
          "name": "_longToken",
          "type": "address"
        },
        {
          "internalType": "address",
          "name": "_shortToken",
          "type": "address"
        },
        {
          "internalType": "address",
          "name": "_marketToken",
          "type": "address"
        }
      ],
      "name": "addPool",
      "outputs": [],
      "stateMutability": "nonpayable",
      "type": "function"
    },
    {
      "inputs": [
        {
          "internalType": "uint8[]",
          "name": "_poolIds",
          "type": "uint8[]"
        },
        {
          "internalType": "address[]",
          "name": "_indexTokens",
          "type": "address[]"
        },
        {
          "internalType": "address[]",
          "name": "_longTokens",
          "type": "address[]"
        },
        {
          "internalType": "address[]",
          "name": "_shortTokens",
          "type": "address[]"
        },
        {
          "internalType": "address[]",
          "name": "_marketTokens",
          "type": "address[]"
        }
      ],
      "name": "addPools",
      "outputs": [],
      "stateMutability": "nonpayable",
      "type": "function"
    },
    {
      "inputs": [
        {
          "internalType": "address",
          "name": "_tokenAddress",
          "type": "address"
        },
        {
          "internalType": "uint256",
          "name": "_tokenAmount",
          "type": "uint256"
        }
      ],
      "name": "calculateTokenValueInUsd",
      "outputs": [
        {
          "internalType": "uint256",
          "name": "",
          "type": "uint256"
        }
      ],
      "stateMutability": "view",
      "type": "function"
    },
    {
      "inputs": [
        {
          "internalType": "uint256",
          "name": "_amount",
          "type": "uint256"
        },
        {
          "internalType": "uint256",
          "name": "_from",
          "type": "uint256"
        },
        {
          "internalType": "uint256",
          "name": "_to",
          "type": "uint256"
        }
      ],
      "name": "convertDecimals",
      "outputs": [
        {
          "internalType": "uint256",
          "name": "",
          "type": "uint256"
        }
      ],
      "stateMutability": "pure",
      "type": "function"
    },
    {
      "inputs": [
        {
          "internalType": "enum IPlugin.ActionType",
          "name": "_actionType",
          "type": "uint8"
        },
        {
          "internalType": "bytes",
          "name": "_payload",
          "type": "bytes"
        }
      ],
      "name": "execute",
      "outputs": [],
      "stateMutability": "payable",
      "type": "function"
    },
    {
      "inputs": [
        {
          "internalType": "uint8",
          "name": "_poolId",
          "type": "uint8"
        }
      ],
      "name": "getAllowedTokens",
      "outputs": [
        {
          "internalType": "address[]",
          "name": "",
          "type": "address[]"
        }
      ],
      "stateMutability": "view",
      "type": "function"
    },
    {
      "inputs": [],
      "name": "getBalance",
      "outputs": [
        {
          "internalType": "uint256",
          "name": "",
          "type": "uint256"
        }
      ],
      "stateMutability": "view",
      "type": "function"
    },
    {
      "inputs": [
        {
          "internalType": "uint8",
          "name": "_poolId",
          "type": "uint8"
        }
      ],
      "name": "getPoolIndexById",
      "outputs": [
        {
          "internalType": "uint256",
          "name": "poolIndex",
          "type": "uint256"
        }
      ],
      "stateMutability": "view",
      "type": "function"
    },
    {
      "inputs": [],
      "name": "getPoolLength",
      "outputs": [
        {
          "internalType": "uint256",
          "name": "",
          "type": "uint256"
        }
      ],
      "stateMutability": "view",
      "type": "function"
    },
    {
      "inputs": [],
      "name": "getPoolNumber",
      "outputs": [
        {
          "internalType": "uint256",
          "name": "",
          "type": "uint256"
        }
      ],
      "stateMutability": "view",
      "type": "function"
    },
    {
      "inputs": [
        {
          "internalType": "uint8",
          "name": "_poolId",
          "type": "uint8"
        }
      ],
      "name": "getPoolTokenInfo",
      "outputs": [
        {
          "internalType": "address",
          "name": "",
          "type": "address"
        },
        {
          "internalType": "uint8",
          "name": "",
          "type": "uint8"
        },
        {
          "internalType": "uint256",
          "name": "",
          "type": "uint256"
        }
      ],
      "stateMutability": "view",
      "type": "function"
    },
    {
      "inputs": [
        {
          "internalType": "uint8",
          "name": "_poolId",
          "type": "uint8"
        },
        {
          "internalType": "bool",
          "name": "_maximize",
          "type": "bool"
        }
      ],
      "name": "getPoolTokenPrice",
      "outputs": [
        {
          "internalType": "int256",
          "name": "",
          "type": "int256"
        }
      ],
      "stateMutability": "view",
      "type": "function"
    },
    {
      "inputs": [],
      "name": "getPoolValues",
      "outputs": [
        {
          "components": [
            {
              "internalType": "uint8",
              "name": "poolId",
              "type": "uint8"
            },
            {
              "internalType": "uint256",
              "name": "poolValue",
              "type": "uint256"
            }
          ],
          "internalType": "struct GmxPlugin.PoolValue[]",
          "name": "",
          "type": "tuple[]"
        }
      ],
      "stateMutability": "view",
      "type": "function"
    },
    {
      "inputs": [],
      "name": "getPools",
      "outputs": [
        {
          "components": [
            {
              "internalType": "uint8",
              "name": "poolId",
              "type": "uint8"
            },
            {
              "internalType": "address",
              "name": "indexToken",
              "type": "address"
            },
            {
              "internalType": "address",
              "name": "longToken",
              "type": "address"
            },
            {
              "internalType": "address",
              "name": "shortToken",
              "type": "address"
            },
            {
              "internalType": "address",
              "name": "marketToken",
              "type": "address"
            }
          ],
          "internalType": "struct GmxPlugin.PoolConfig[]",
          "name": "",
          "type": "tuple[]"
        }
      ],
      "stateMutability": "view",
      "type": "function"
    },
    {
      "inputs": [
        {
          "internalType": "address",
          "name": "token",
          "type": "address"
        }
      ],
      "name": "getTokenPriceInfo",
      "outputs": [
        {
          "components": [
            {
              "internalType": "uint256",
              "name": "min",
              "type": "uint256"
            },
            {
              "internalType": "uint256",
              "name": "max",
              "type": "uint256"
            }
          ],
          "internalType": "struct IPrice.Props",
          "name": "",
          "type": "tuple"
        }
      ],
      "stateMutability": "view",
      "type": "function"
    },
    {
      "inputs": [],
      "name": "getTotalLiquidity",
      "outputs": [
        {
          "internalType": "uint256",
          "name": "totalAsset",
          "type": "uint256"
        }
      ],
      "stateMutability": "view",
      "type": "function"
    },
    {
      "inputs": [],
      "name": "getUniqueTokenLength",
      "outputs": [
        {
          "internalType": "uint256",
          "name": "",
          "type": "uint256"
        }
      ],
      "stateMutability": "view",
      "type": "function"
    },
    {
      "inputs": [],
      "name": "getUniqueTokens",
      "outputs": [
        {
          "internalType": "address[]",
          "name": "",
          "type": "address[]"
        }
      ],
      "stateMutability": "view",
      "type": "function"
    },
    {
      "inputs": [],
      "name": "gmxParams",
      "outputs": [
        {
          "internalType": "address",
          "name": "uiFeeReceiver",
          "type": "address"
        },
        {
          "internalType": "address",
          "name": "callbackContract",
          "type": "address"
        },
        {
          "internalType": "uint256",
          "name": "callbackGasLimit",
          "type": "uint256"
        },
        {
          "internalType": "uint256",
          "name": "executionFee",
          "type": "uint256"
        },
        {
          "internalType": "bool",
          "name": "shouldUnwrapNativeToken",
          "type": "bool"
        },
        {
          "internalType": "bytes32",
          "name": "pnlFactorType",
          "type": "bytes32"
        }
      ],
      "stateMutability": "view",
      "type": "function"
    },
    {
      "inputs": [
        {
          "internalType": "address",
          "name": "_token",
          "type": "address"
        }
      ],
      "name": "isTokenAdded",
      "outputs": [
        {
          "internalType": "bool",
          "name": "",
          "type": "bool"
        }
      ],
      "stateMutability": "view",
      "type": "function"
    },
    {
      "inputs": [],
      "name": "localVault",
      "outputs": [
        {
          "internalType": "address",
          "name": "",
          "type": "address"
        }
      ],
      "stateMutability": "view",
      "type": "function"
    },
    {
      "inputs": [],
      "name": "owner",
      "outputs": [
        {
          "internalType": "address",
          "name": "",
          "type": "address"
        }
      ],
      "stateMutability": "view",
      "type": "function"
    },
    {
      "inputs": [
        {
          "internalType": "uint8",
          "name": "",
          "type": "uint8"
        }
      ],
      "name": "poolExistsMap",
      "outputs": [
        {
          "internalType": "bool",
          "name": "",
          "type": "bool"
        }
      ],
      "stateMutability": "view",
      "type": "function"
    },
    {
      "inputs": [
        {
          "internalType": "uint256",
          "name": "",
          "type": "uint256"
        }
      ],
      "name": "pools",
      "outputs": [
        {
          "internalType": "uint8",
          "name": "poolId",
          "type": "uint8"
        },
        {
          "internalType": "address",
          "name": "indexToken",
          "type": "address"
        },
        {
          "internalType": "address",
          "name": "longToken",
          "type": "address"
        },
        {
          "internalType": "address",
          "name": "shortToken",
          "type": "address"
        },
        {
          "internalType": "address",
          "name": "marketToken",
          "type": "address"
        }
      ],
      "stateMutability": "view",
      "type": "function"
    },
    {
      "inputs": [
        {
          "internalType": "uint8",
          "name": "_poolId",
          "type": "uint8"
        }
      ],
      "name": "removePool",
      "outputs": [],
      "stateMutability": "nonpayable",
      "type": "function"
    },
    {
      "inputs": [],
      "name": "renounceOwnership",
      "outputs": [],
      "stateMutability": "nonpayable",
      "type": "function"
    },
    {
      "inputs": [
        {
          "internalType": "uint256",
          "name": "",
          "type": "uint256"
        }
      ],
      "name": "rewardTokens",
      "outputs": [
        {
          "internalType": "address",
          "name": "",
          "type": "address"
        }
      ],
      "stateMutability": "view",
      "type": "function"
    },
    {
      "inputs": [],
      "name": "routerConfig",
      "outputs": [
        {
          "internalType": "address",
          "name": "exchangeRouter",
          "type": "address"
        },
        {
          "internalType": "address",
          "name": "router",
          "type": "address"
        },
        {
          "internalType": "address",
          "name": "depositVault",
          "type": "address"
        },
        {
          "internalType": "address",
          "name": "withdrawVault",
          "type": "address"
        },
        {
          "internalType": "address",
          "name": "orderVault",
          "type": "address"
        },
        {
          "internalType": "address",
          "name": "reader",
          "type": "address"
        }
      ],
      "stateMutability": "view",
      "type": "function"
    },
    {
      "inputs": [
        {
          "internalType": "address",
          "name": "_uiFeeReceiver",
          "type": "address"
        },
        {
          "internalType": "address",
          "name": "_callbackContract",
          "type": "address"
        },
        {
          "internalType": "uint256",
          "name": "_callbackGasLimit",
          "type": "uint256"
        },
        {
          "internalType": "uint256",
          "name": "_executionFee",
          "type": "uint256"
        },
        {
          "internalType": "bool",
          "name": "_shouldUnwrapNativeToken",
          "type": "bool"
        },
        {
          "internalType": "bytes32",
          "name": "_pnlFactorType",
          "type": "bytes32"
        }
      ],
      "name": "setGmxParams",
      "outputs": [],
      "stateMutability": "nonpayable",
      "type": "function"
    },
    {
      "inputs": [
        {
          "internalType": "address[]",
          "name": "_rewardTokens",
          "type": "address[]"
        }
      ],
      "name": "setRewardTokens",
      "outputs": [],
      "stateMutability": "nonpayable",
      "type": "function"
    },
    {
      "inputs": [
        {
          "internalType": "address",
          "name": "_exchangeRouter",
          "type": "address"
        },
        {
          "internalType": "address",
          "name": "_router",
          "type": "address"
        },
        {
          "internalType": "address",
          "name": "_depositVault",
          "type": "address"
        },
        {
          "internalType": "address",
          "name": "_withdrawVault",
          "type": "address"
        },
        {
          "internalType": "address",
          "name": "_orderVault",
          "type": "address"
        },
        {
          "internalType": "address",
          "name": "_reader",
          "type": "address"
        }
      ],
      "name": "setRouterConfig",
      "outputs": [],
      "stateMutability": "nonpayable",
      "type": "function"
    },
    {
      "inputs": [
        {
          "internalType": "address",
          "name": "_tokenPriceConsumer",
          "type": "address"
        }
      ],
      "name": "setTokenPriceConsumer",
      "outputs": [],
      "stateMutability": "nonpayable",
      "type": "function"
    },
    {
      "inputs": [
        {
          "internalType": "address payable",
          "name": "_treasury",
          "type": "address"
        }
      ],
      "name": "setTreasury",
      "outputs": [],
      "stateMutability": "nonpayable",
      "type": "function"
    },
    {
      "inputs": [],
      "name": "tokenPriceConsumer",
      "outputs": [
        {
          "internalType": "address",
          "name": "",
          "type": "address"
        }
      ],
      "stateMutability": "view",
      "type": "function"
    },
    {
      "inputs": [],
      "name": "transferAllTokensToVault",
      "outputs": [],
      "stateMutability": "nonpayable",
      "type": "function"
    },
    {
      "inputs": [
        {
          "internalType": "address",
          "name": "newOwner",
          "type": "address"
        }
      ],
      "name": "transferOwnership",
      "outputs": [],
      "stateMutability": "nonpayable",
      "type": "function"
    },
    {
      "inputs": [],
      "name": "treasury",
      "outputs": [
        {
          "internalType": "address payable",
          "name": "",
          "type": "address"
        }
      ],
      "stateMutability": "view",
      "type": "function"
    },
    {
      "inputs": [
        {
          "internalType": "uint256",
          "name": "",
          "type": "uint256"
        }
      ],
      "name": "uniqueTokens",
      "outputs": [
        {
          "internalType": "address",
          "name": "",
          "type": "address"
        }
      ],
      "stateMutability": "view",
      "type": "function"
    },
    {
      "inputs": [
        {
          "internalType": "uint256",
          "name": "_amount",
          "type": "uint256"
        }
      ],
      "name": "withdrawFee",
      "outputs": [],
      "stateMutability": "nonpayable",
      "type": "function"
    },
    {
      "stateMutability": "payable",
      "type": "receive"
    }
  ],
  "transactionHash": "0xb374d42948419ab70470c593e648e2021982d8c0ce58212cc0dafc9f1b0250f7",
  "args": [
    "0xEdb81917553dC4517a0313AE7DD16F4fEb0012Ef"
  ],
  "numDeployments": 1,
  "solcInputHash": "76be9392b1b05dd5cfe73355ab761edf",
  "bytecode": "0x60806040523480156200001157600080fd5b5060405162005bcb38038062005bcb83398101604081905262000034916200013a565b33806200005c57604051631e4fbdf760e01b8152600060048201526024015b60405180910390fd5b6200006781620000ea565b50600180556001600160a01b038116620000c45760405162461bcd60e51b815260206004820152601460248201527f474d583a20496e76616c69642041646472657373000000000000000000000000604482015260640162000053565b600280546001600160a01b0319166001600160a01b03929092169190911790556200016c565b600080546001600160a01b038381166001600160a01b0319831681178455604051919092169283917f8be0079c531659141344cd1fd0a4f28419497f9722a3daafe3b4186f6b6457e09190a35050565b6000602082840312156200014d57600080fd5b81516001600160a01b03811681146200016557600080fd5b9392505050565b615a4f806200017c6000396000f3fe6080604052600436106102325760003560e01c80637d2ab8bf1161012d578063beafdc24116100b0578063e48caf8d11610077578063e48caf8d1461069a578063f0f4426014610764578063f2fde38b14610784578063f4db8984146107a4578063f66fdcca146107b9578063fb4d364c146107db57005b8063beafdc24146106cf578063c8af3807146106ef578063d064f7d01461070f578063d5a5731a14610724578063df77209b1461074457005b8063a36532b2116100f4578063a36532b214610600578063a7888a3414610620578063ac4afa3814610640578063b3944d521461069a578063be357616146106af57005b80637d2ab8bf1461054d578063845b79241461056d5780638da5cb5b146105ad57806396c1865b146105cb578063a0390b65146105eb57005b806336a60503116101b55780636aaf64361161017c5780636aaf6436146104ab5780636e862fdb146104d8578063715018a6146104f857806371e847571461050d5780637bb7bed11461052d57005b806336a60503146103dd5780634952cade146103fd5780634df227e41461041d57806361d027b314610469578063673a2a1f1461048957005b806326a1809b116101f957806326a1809b1461031f57806327824675146103415780632a7a524414610361578063313eb4061461038157806335c7e925146103c857005b8063050705bb1461023b578063084475861461029557806312065fe0146102cd5780631c31772f146102ea578063201e81a8146102ff57005b3661023957005b005b34801561024757600080fd5b5060045460055460065460075460085460095461027a956001600160a01b03908116958116948116938116928116911686565b60405161028c969594939291906142e8565b60405180910390f35b3480156102a157600080fd5b506013546102b5906001600160a01b031681565b6040516001600160a01b03909116815260200161028c565b3480156102d957600080fd5b50475b60405190815260200161028c565b3480156102f657600080fd5b506012546102dc565b34801561030b57600080fd5b5061023961031a366004614496565b6107ee565b34801561032b57600080fd5b50610334610844565b60405161028c9190614517565b34801561034d57600080fd5b506102dc61035c36600461452a565b6108a6565b34801561036d57600080fd5b5061033461037c366004614565565b6108fb565b34801561038d57600080fd5b506103a161039c366004614565565b610a30565b604080516001600160a01b03909416845260ff90921660208401529082015260600161028c565b3480156103d457600080fd5b506102dc610bc6565b3480156103e957600080fd5b506102dc6103f8366004614582565b610e20565b34801561040957600080fd5b506102dc610418366004614565565b610fb0565b34801561042957600080fd5b50600a54600b54600c54600d54600e54600f54610457956001600160a01b03908116951693929160ff169086565b60405161028c969594939291906145ae565b34801561047557600080fd5b506003546102b5906001600160a01b031681565b34801561049557600080fd5b5061049e611040565b60405161028c91906145e6565b3480156104b757600080fd5b506104cb6104c6366004614667565b6110e1565b60405161028c9190614684565b3480156104e457600080fd5b506102396104f336600461469b565b6112d1565b34801561050457600080fd5b5061023961146d565b34801561051957600080fd5b50610239610528366004614768565b611481565b34801561053957600080fd5b506102b5610548366004614858565b61165e565b34801561055957600080fd5b50610239610568366004614565565b611688565b34801561057957600080fd5b5061059d610588366004614565565b60116020526000908152604090205460ff1681565b604051901515815260200161028c565b3480156105b957600080fd5b506000546001600160a01b03166102b5565b3480156105d757600080fd5b506102dc6105e636600461488a565b611871565b3480156105f757600080fd5b50610239611aa9565b34801561060c57600080fd5b5061059d61061b366004614667565b611c0b565b34801561062c57600080fd5b5061023961063b366004614667565b611c6a565b34801561064c57600080fd5b5061066061065b366004614858565b611d0d565b6040805160ff90961686526001600160a01b039485166020870152928416928501929092528216606084015216608082015260a00161028c565b3480156106a657600080fd5b506010546102dc565b3480156106bb57600080fd5b506102396106ca366004614858565b611d62565b3480156106db57600080fd5b506102b56106ea366004614858565b611ebb565b3480156106fb57600080fd5b5061023961070a3660046148c3565b611ecb565b34801561071b57600080fd5b506102dc601e81565b34801561073057600080fd5b5061023961073f366004614934565b6121cd565b34801561075057600080fd5b506002546102b5906001600160a01b031681565b34801561077057600080fd5b5061023961077f366004614667565b612289565b34801561079057600080fd5b5061023961079f366004614667565b61232e565b3480156107b057600080fd5b506102dc602481565b3480156107c557600080fd5b506107ce61236c565b60405161028c919061499b565b6102396107e93660046149e0565b6125a4565b6107f66126f8565b8051610809906014906020840190614277565b507f69be44b81d4f8b6cf7825a37f020b264079658f3d72856eeb0a0efed09c7d392816040516108399190614517565b60405180910390a150565b6060601280548060200260200160405190810160405280929190818152602001828054801561089c57602002820191906000526020600020905b81546001600160a01b0316815260019091019060200180831161087e575b5050505050905090565b60008183106108d5576108b98284614a7e565b6108c490600a614b75565b6108ce9085614b81565b90506108f4565b6108df8383614a7e565b6108ea90600a614b75565b6108ce9085614ba3565b9392505050565b60ff80821660009081526011602052604090205460609182911661091f5792915050565b604080516002808252606082018352600092602083019080368337019050509050600061094b85610fb0565b905060006010828154811061096257610962614bba565b600091825260208083206040805160a0810182526004909402909101805460ff811685526001600160a01b036101009091048116938501939093526001810154831691840182905260028101548316606085015260030154909116608083015285519193509185916109d6576109d6614bba565b60200260200101906001600160a01b031690816001600160a01b031681525050806060015183600181518110610a0e57610a0e614bba565b6001600160a01b03909216602092830291909101909101525090949350505050565b60ff80821660009081526011602052604081205490918291829116610a5d57506000915081905080610bbf565b6000610a6885610fb0565b9050600060108281548110610a7f57610a7f614bba565b600091825260208083206040805160a0810182526004948502909201805460ff811684526001600160a01b0361010090910481168486015260018201548116848401526002820154811660608501526003909101541660808301819052815163313ce56760e01b815291519296509363313ce567938282019390929091908290030181865afa158015610b16573d6000803e3d6000fd5b505050506040513d601f19601f82011682018060405250810190610b3a9190614bd0565b60808301516040516370a0823160e01b81523060048201529192506000916001600160a01b03909116906370a0823190602401602060405180830381865afa158015610b8a573d6000803e3d6000fd5b505050506040513d601f19601f82011682018060405250810190610bae9190614bed565b608090930151965090945090925050505b9193909250565b6000805b601254811015610c8557600060128281548110610be957610be9614bba565b60009182526020822001546040516370a0823160e01b81523060048201526001600160a01b03909116925082906370a0823190602401602060405180830381865afa158015610c3c573d6000803e3d6000fd5b505050506040513d601f19601f82011682018060405250810190610c609190614bed565b9050610c6c8282610e20565b610c769085614c06565b93505050806001019050610bca565b5060005b601054811015610e1c57600060108281548110610ca857610ca8614bba565b600091825260208220600491820201600301546040516370a0823160e01b815230928101929092526001600160a01b0316925082906370a0823190602401602060405180830381865afa158015610d03573d6000803e3d6000fd5b505050506040513d601f19601f82011682018060405250810190610d279190614bed565b90506000610d5c60108581548110610d4157610d41614bba565b600091825260209091206004909102015460ff166001611871565b905060008113610d6e57505050610e14565b6000610d7a8284614ba3565b90506000601e856001600160a01b031663313ce5676040518163ffffffff1660e01b8152600401602060405180830381865afa158015610dbe573d6000803e3d6000fd5b505050506040513d601f19601f82011682018060405250810190610de29190614bd0565b60ff16610def9190614c06565b90506000610dff838360246108a6565b9050610e0b8189614c06565b97505050505050505b600101610c89565b5090565b6013546040516358e8662560e01b81526001600160a01b03848116600483015260009283929116906358e8662590602401602060405180830381865afa158015610e6e573d6000803e3d6000fd5b505050506040513d601f19601f82011682018060405250810190610e929190614bd0565b601354604051636a24d41960e11b81526001600160a01b03878116600483015260ff9390931693506000929091169063d449a83290602401602060405180830381865afa158015610ee7573d6000803e3d6000fd5b505050506040513d601f19601f82011682018060405250810190610f0b9190614bd0565b601354604051630681320d60e51b81526001600160a01b03888116600483015260ff9390931693506000929091169063d02641a090602401602060405180830381865afa158015610f60573d6000803e3d6000fd5b505050506040513d601f19601f82011682018060405250810190610f849190614bed565b9050610fa4610f938287614ba3565b610f9d8486614c06565b60246108a6565b93505050505b92915050565b6000805b601054811015610ffc578260ff1660108281548110610fd557610fd5614bba565b600091825260209091206004909102015460ff1603610ff45792915050565b600101610fb4565b5060405162461bcd60e51b815260206004820152601360248201527211d3560e88141bdbdb081b9bdd08199bdd5b99606a1b60448201526064015b60405180910390fd5b60606010805480602002602001604051908101604052809291908181526020016000905b828210156110d85760008481526020908190206040805160a08101825260048602909201805460ff811684526001600160a01b036101009091048116848601526001808301548216938501939093526002820154811660608501526003909101541660808301529083529092019101611064565b50505050905090565b60408051808201909152600080825260208201526001600160a01b03821661111c575050604080518082019091526000808252602082015290565b6013546040516358e8662560e01b81526001600160a01b0384811660048301529091169060009082906358e8662590602401602060405180830381865afa15801561116b573d6000803e3d6000fd5b505050506040513d601f19601f8201168201806040525081019061118f9190614bd0565b6040805180820191829052630681320d60e51b9091526001600160a01b03868116604483015260ff929092169250600091819061128b90861663d02641a0606484015b602060405180830381865afa1580156111ef573d6000803e3d6000fd5b505050506040513d601f19601f820116820180604052508101906112139190614bed565b604051636a24d41960e11b81526001600160a01b038a8116600483015288169063d449a83290602401602060405180830381865afa158015611259573d6000803e3d6000fd5b505050506040513d601f19601f8201168201806040525081019061127d9190614bd0565b60ff1661035c87601e614a7e565b8152604051630681320d60e51b81526001600160a01b0388811660048301526020909201916112c6919087169063d02641a0906024016111d2565b905295945050505050565b6112d96126f8565b6001600160a01b038616158015906112f957506001600160a01b03851615155b801561130d57506001600160a01b03841615155b801561132157506001600160a01b03831615155b801561133557506001600160a01b03821615155b801561134957506001600160a01b03811615155b61138c5760405162461bcd60e51b8152602060048201526014602482015273474d583a20496e76616c6964204164647265737360601b6044820152606401611037565b6040805160c0810182526001600160a01b0380891680835288821660208401819052888316848601819052888416606086018190528885166080870181905294881660a0909601869052600480546001600160a01b0319908116909517905560058054851690931790925560068054841690911790556007805483169091179055600880548216909217909155600980549091169091179055517f426776d3b733c4a7464cf1dd3d3c5d81199723dd1cec0de97ff4e053ce32cbf59061145d908890889088908890889088906142e8565b60405180910390a1505050505050565b6114756126f8565b61147f6000612725565b565b6114896126f8565b888714801561149757508885145b80156114a257508883145b80156114ad57508881145b6114f95760405162461bcd60e51b815260206004820152601960248201527f474d583a20496e76616c6964204172726179204c656e677468000000000000006044820152606401611037565b60005b89811015611651573063c8af38078c8c8481811061151c5761151c614bba565b90506020020160208101906115319190614565565b8b8b8581811061154357611543614bba565b90506020020160208101906115589190614667565b8a8a8681811061156a5761156a614bba565b905060200201602081019061157f9190614667565b89898781811061159157611591614bba565b90506020020160208101906115a69190614667565b8888888181106115b8576115b8614bba565b90506020020160208101906115cd9190614667565b6040516001600160e01b031960e088901b16815260ff90951660048601526001600160a01b03938416602486015291831660448501528216606484015216608482015260a401600060405180830381600087803b15801561162d57600080fd5b505af1158015611641573d6000803e3d6000fd5b5050600190920191506114fc9050565b5050505050505050505050565b6014818154811061166e57600080fd5b6000918252602090912001546001600160a01b0316905081565b6116906126f8565b60ff808216600090815260116020526040902054166116c15760405162461bcd60e51b815260040161103790614c19565b60006116cc82610fb0565b6010549091506000906116e190600190614a7e565b90508082146117b457601081815481106116fd576116fd614bba565b90600052602060002090600402016010838154811061171e5761171e614bba565b600091825260209091208254600490920201805460ff90921660ff1983168117825583546001600160a81b031990931617610100928390046001600160a01b0390811690930217815560018084015490820180549184166001600160a01b031992831617905560028085015490830180549185169183169190911790556003938401549390910180549390921692169190911790555b60108054806117c5576117c5614c62565b6000828152602080822060046000199094019384020180546001600160a81b03191681556001810180546001600160a01b0319908116909155600282018054821690556003909101805490911690559190925560ff851682526011905260409020805460ff19169055611836612775565b60405160ff841681527f0f19bfba9b2e5adda8bcdbd5c0583080cf3871c58286275b1e90451cb0130aec9060200160405180910390a1505050565b60ff8083166000908152601160205260408120549091166118a45760405162461bcd60e51b815260040161103790614c19565b600060106118b185610fb0565b815481106118c1576118c1614bba565b600091825260208083206040805160a0810182526004948502909201805460ff811684526001600160a01b036101009091048116848601526001820154811684840152600282015481166060850152600390910154811660808401528454825163660d0d6760e01b81529251939750169493859363660d0d679383830193919290918290030181865afa15801561195c573d6000803e3d6000fd5b505050506040513d601f19601f820116820180604052508101906119809190614c78565b90506000604051806080016040528085608001516001600160a01b0316815260200185602001516001600160a01b0316815260200185604001516001600160a01b0316815260200185606001516001600160a01b0316815250905060006119ea85602001516110e1565b905060006119fb86604001516110e1565b90506000611a0c87606001516110e1565b600f5460095460405163095ce6c560e01b815292935090918b916000916001600160a01b039091169063095ce6c590611a55908b908b908b908b908b908b908b90600401614c95565b61018060405180830381865afa158015611a73573d6000803e3d6000fd5b505050506040513d601f19601f82011682018060405250810190611a979190614d30565b509d9c50505050505050505050505050565b600b546001600160a01b03163314611af45760405162461bcd60e51b815260206004820152600e60248201526d24b73b30b634b21031b0b63632b960911b6044820152606401611037565b60005b601254811015611bdf57600060128281548110611b1657611b16614bba565b6000918252602090912001546040516370a0823160e01b81523060048201526001600160a01b03909116906370a0823190602401602060405180830381865afa158015611b67573d6000803e3d6000fd5b505050506040513d601f19601f82011682018060405250810190611b8b9190614bed565b90508015611bd65760025460128054611bd6926001600160a01b031691849186908110611bba57611bba614bba565b6000918252602090912001546001600160a01b03169190612883565b50600101611af7565b506040517f52095ed2fa7d7c4dd1c5e9a36b117c9a00bd764878e68f95da78cc6f4f54763590600090a1565b6000805b601254811015611c6157826001600160a01b031660128281548110611c3657611c36614bba565b6000918252602090912001546001600160a01b031603611c595750600192915050565b600101611c0f565b50600092915050565b611c726126f8565b6001600160a01b038116611cbf5760405162461bcd60e51b8152602060048201526014602482015273474d583a20496e76616c6964204164647265737360601b6044820152606401611037565b601380546001600160a01b0319166001600160a01b0383169081179091556040519081527f31304382ad8ca8091d6b1faad35fded717d1771446c64094a9941158a525d25590602001610839565b60108181548110611d1d57600080fd5b6000918252602090912060049091020180546001820154600283015460039093015460ff831694506001600160a01b0361010090930483169391831692918216911685565b611d6a6126f8565b4781811015611dbb5760405162461bcd60e51b815260206004820152601f60248201527f5661756c743a20496e76616c696420776974686472617720616d6f756e742e006044820152606401611037565b6003546001600160a01b0316611e135760405162461bcd60e51b815260206004820152601760248201527f5661756c743a20496e76616c69642074726561737572790000000000000000006044820152606401611037565b6003546040516000916001600160a01b03169084908381818185875af1925050503d8060008114611e60576040519150601f19603f3d011682016040523d82523d6000602084013e611e65565b606091505b5050905080611eb65760405162461bcd60e51b815260206004820152601b60248201527f5661756c743a204661696c656420746f2073656e6420457468657200000000006044820152606401611037565b505050565b6012818154811061166e57600080fd5b611ed36126f8565b8460ff16600003611f1d5760405162461bcd60e51b815260206004820152601460248201527311d3560e88125b9d985b1a5908141bdbdb08125960621b6044820152606401611037565b60ff8086166000908152601160205260409020541615611f915760405162461bcd60e51b815260206004820152602960248201527f474d583a20506f6f6c2077697468207468697320706f6f6c496420616c72656160448201526864792065786973747360b81b6064820152608401611037565b6040805160a08101825260ff8088168083526001600160a01b0380891660208086019182528983168688019081528984166060880190815289851660808901908152601080546001818101835560009283528b5160049092027f1b6847dc741a1b0cd08d278845f9d819d87b734759afb55fe2de5cb82a9ae6728101805499518b16610100026001600160a81b0319909a1693909c16929092179790971790995592517f1b6847dc741a1b0cd08d278845f9d819d87b734759afb55fe2de5cb82a9ae673890180549188166001600160a01b031992831617905591517f1b6847dc741a1b0cd08d278845f9d819d87b734759afb55fe2de5cb82a9ae67489018054918816918416919091179055517f1b6847dc741a1b0cd08d278845f9d819d87b734759afb55fe2de5cb82a9ae67590970180549790951696169590951790925591835260119052929020805460ff19169092179091556120f184611c0b565b61214157601280546001810182556000919091527fbb8a6a4669ba250d26cd7a459eca9d215f8307e33aebe50379bc5a3617ec34440180546001600160a01b0319166001600160a01b0386161790555b61214a83611c0b565b61219a57601280546001810182556000919091527fbb8a6a4669ba250d26cd7a459eca9d215f8307e33aebe50379bc5a3617ec34440180546001600160a01b0319166001600160a01b0385161790555b60405160ff871681527f09cce9a1e4000121ddb6c53c0c6161a69a7fd0c028b5970acddf3350a92048919060200161145d565b6121d56126f8565b6040805160c0810182526001600160a01b0380891680835290881660208301819052828401889052606083018790528515156080840181905260a0909301859052600a80546001600160a01b03199081169093179055600b8054909216179055600c869055600d859055600e805460ff19169091179055600f829055517f03d83cb733840674aae397a1ef6a2080fdfcd1f99bfa2efd1092d816f3239afa9061145d908890889088908890889088906145ae565b6122916126f8565b6001600160a01b0381166122e05760405162461bcd60e51b81526020600482015260166024820152755661756c743a20496e76616c6964206164647265737360501b6044820152606401611037565b600380546001600160a01b0319166001600160a01b0383169081179091556040519081527fcb7ef3e545f5cdb893f5c568ba710fe08f336375a2d9fd66e161033f8fc09ef390602001610839565b6123366126f8565b6001600160a01b03811661236057604051631e4fbdf760e01b815260006004820152602401611037565b61236981612725565b50565b6010546060906000906001600160401b0381111561238c5761238c614322565b6040519080825280602002602001820160405280156123d157816020015b60408051808201909152600080825260208201528152602001906001900390816123aa5790505b50905060005b60105481101561259e576000601082815481106123f6576123f6614bba565b600091825260208220600491820201600301546040516370a0823160e01b815230928101929092526001600160a01b0316925082906370a0823190602401602060405180830381865afa158015612451573d6000803e3d6000fd5b505050506040513d601f19601f820116820180604052508101906124759190614bed565b9050600061248f60108581548110610d4157610d41614bba565b905060008082131561252f5760006124a78385614ba3565b90506000601e866001600160a01b031663313ce5676040518163ffffffff1660e01b8152600401602060405180830381865afa1580156124eb573d6000803e3d6000fd5b505050506040513d601f19601f8201168201806040525081019061250f9190614bd0565b60ff1661251c9190614c06565b905061252a828260246108a6565b925050505b600060405180604001604052806010888154811061254f5761254f614bba565b60009182526020918290206004909102015460ff168252018390528751909150819088908890811061258357612583614bba565b602002602001018190525050505050508060010190506123d7565b50919050565b6002546001600160a01b031633146125ef5760405162461bcd60e51b815260206004820152600e60248201526d24b73b30b634b21031b0b63632b960911b6044820152606401611037565b6125f76128e2565b600083600881111561260b5761260b614de4565b0361261f5761261a828261290c565b6126b4565b600183600881111561263357612633614de4565b036126425761261a8282612cc5565b600283600881111561265657612656614de4565b036126655761261a8282612d0a565b600483600881111561267957612679614de4565b036126885761261a8282612d23565b600383600881111561269c5761269c614de4565b036126a95761261a612db9565b6126b4838383612e88565b7f7602f37cd960866e4a851b683e367e8794f21cddd908ce1d9fe92b978a59f1018383836040516126e793929190614e0e565b60405180910390a1611eb660018055565b6000546001600160a01b0316331461147f5760405163118cdaa760e01b8152336004820152602401611037565b600080546001600160a01b038381166001600160a01b0319831681178455604051919092169283917f8be0079c531659141344cd1fd0a4f28419497f9722a3daafe3b4186f6b6457e09190a35050565b6012545b8015612369576127b9601261278f600184614a7e565b8154811061279f5761279f614bba565b6000918252602090912001546001600160a01b031661314c565b61287157601280546127cd90600190614a7e565b815481106127dd576127dd614bba565b6000918252602090912001546001600160a01b031660126127ff600184614a7e565b8154811061280f5761280f614bba565b9060005260206000200160006101000a8154816001600160a01b0302191690836001600160a01b03160217905550601280548061284e5761284e614c62565b600082815260209020810160001990810180546001600160a01b03191690550190555b8061287b81614e4b565b915050612779565b6040516001600160a01b03838116602483015260448201839052611eb691859182169063a9059cbb906064015b604051602081830303815290604052915060e01b6020820180516001600160e01b0383818316178352505050506131ed565b60026001540361290557604051633ee5aeb560e01b815260040160405180910390fd5b6002600155565b600080808061291d85870187614f39565b935093509350935060008180602001905181019061293b9190614bed565b60ff8087166000908152601160205260409020549192501661296f5760405162461bcd60e51b815260040161103790614c19565b83516002148015612981575082516002145b6129cd5760405162461bcd60e51b815260206004820152601b60248201527f474d583a204172726179206c656e677468206d757374206265203200000000006044820152606401611037565b60006129d886610fb0565b90506000601082815481106129ef576129ef614bba565b600091825260208083206040805160a0810182526004909402909101805460ff811685526001600160a01b036101009091048116938501939093526001810154831691840191909152600281015482166060840152600301541660808201528751909250879190612a6257612a62614bba565b60200260200101516001600160a01b031681604001516001600160a01b0316148015612abd575085600181518110612a9c57612a9c614bba565b60200260200101516001600160a01b031681606001516001600160a01b0316145b612b095760405162461bcd60e51b815260206004820152601860248201527f474d583a20496e76616c696420506f6f6c20746f6b656e7300000000000000006044820152606401611037565b84600081518110612b1c57612b1c614bba565b60200260200101516000141580612b4e575084600181518110612b4157612b41614bba565b6020026020010151600014155b612b9a5760405162461bcd60e51b815260206004820152601960248201527f474d583a20496e76616c696420746f6b656e20616d6f756e74000000000000006044820152606401611037565b600085600081518110612baf57612baf614bba565b60200260200101511115612c09576002548551612c09916001600160a01b03169030908890600090612be357612be3614bba565b602002602001015184604001516001600160a01b0316613250909392919063ffffffff16565b600085600181518110612c1e57612c1e614bba565b60200260200101511115612c7a576002548551612c7a916001600160a01b031690309088906001908110612c5457612c54614bba565b602002602001015184606001516001600160a01b0316613250909392919063ffffffff16565b612cba8786600081518110612c9157612c91614bba565b602002602001015187600181518110612cac57612cac614bba565b60200260200101518661327e565b505050505050505050565b600080808080612cd786880188614fd3565b9450945094509450945060008082806020019051810190612cf89190615048565b91509150612cba8787878585896136ab565b6000612d1882840184615199565b9050611eb681613bad565b600080612d328385018561527e565b915091508160ff16600003612d4f57612d4a81613ec0565b612d77565b8160ff16600103612d6357612d4a81613f23565b8160ff16600203612d7757612d7781613f54565b6040805160ff84168152602081018390527f8f9edcb63f442052ba4d68bdd7cf50e8bb5f615f31ba22ecb1eab71fa256dddf910160405180910390a150505050565b60005b60145481101561236957600060148281548110612ddb57612ddb614bba565b6000918252602090912001546040516370a0823160e01b81523060048201526001600160a01b03909116906370a0823190602401602060405180830381865afa158015612e2c573d6000803e3d6000fd5b505050506040513d601f19601f82011682018060405250810190612e509190614bed565b90508015612e7f5760025460148054612e7f926001600160a01b031691849186908110611bba57611bba614bba565b50600101612dbc565b6000808080612e998587018761529c565b9350935093509350600084516001600160401b03811115612ebc57612ebc614322565b604051908082528060200260200182016040528015612ee5578160200160208202803683370190505b506004549091506001600160a01b03166005896008811115612f0957612f09614de4565b03612fcc5760025460405162d4e5d960e11b81526001600160a01b03838116926301a9cbb2928792612f45928c928c929091169060040161532b565b60006040518083038185885af1158015612f63573d6000803e3d6000fd5b50505050506040513d6000823e601f3d908101601f19168201604052612f8c9190810190615369565b91507f4a13c8ea7a1f6f30b1fa8423940f85d7a03ef81dcf0aa89405dbf743978197368983604051612fbf92919061542a565b60405180910390a1612cba565b6006896008811115612fe057612fe0614de4565b0361301d576002546040516324943d1160e11b81526001600160a01b03838116926349287a22928792612f45928c928c929091169060040161532b565b600789600881111561303157613031614de4565b0361306e5760025460405163e9249b5760e01b81526001600160a01b038084169263e9249b57928792612f45928c928c928c92169060040161544a565b600889600881111561308257613082614de4565b03612cba5760025460405163c41b1ab360e01b81526001600160a01b038381169263c41b1ab39287926130bf928c928c929091169060040161532b565b60006040518083038185885af11580156130dd573d6000803e3d6000fd5b50505050506040513d6000823e601f3d908101601f191682016040526131069190810190615369565b91507f4a13c8ea7a1f6f30b1fa8423940f85d7a03ef81dcf0aa89405dbf74397819736898360405161313992919061542a565b60405180910390a1505050505050505050565b6000805b601054811015611c6157826001600160a01b03166010828154811061317757613177614bba565b60009182526020909120600160049092020101546001600160a01b031614806131d75750826001600160a01b0316601082815481106131b8576131b8614bba565b60009182526020909120600260049092020101546001600160a01b0316145b156131e55750600192915050565b600101613150565b60006132026001600160a01b03841683613f85565b90508051600014158015613227575080806020019051810190613225919061549d565b155b15611eb657604051635274afe760e01b81526001600160a01b0384166004820152602401611037565b61327884856001600160a01b03166323b872dd8686866040516024016128b0939291906154ba565b50505050565b6000601061328b86610fb0565b8154811061329b5761329b614bba565b60009182526020918290206040805160a080820183526004948502909301805460ff80821684526001600160a01b03610100928390048116858a015260018401548116858701819052600285015482166060808801829052600390960154831660808089018290529a54600d548a5161018081018c52308152600b5487169e81019e909e52600a5486169a8e019a909a528c88018290529a8c01839052988b0181905260c08b0186905260e08b01869052938a018c9052600e5490921615156101208a01526101408901869052600c546101608a0152939850959092169591939290918291908b156133a1576005546133a1906001600160a01b0389811691168e613f93565b8a156133c1576005546133c1906001600160a01b0388811691168d613f93565b60408051600480825260a08201909252600091816020015b60608152602001906001900390816133d9579050506006546040516001600160a01b0390911660248201526044810185905290915060640160408051601f198184030181529190526020810180516001600160e01b0316637d39aaf160e01b1790528151829060009061344e5761344e614bba565b602002602001018190525087600460020160009054906101000a90046001600160a01b03168e604051602401613486939291906154ba565b60408051601f198184030181529190526020810180516001600160e01b0316631cdacd5960e31b1790528151829060019081106134c5576134c5614bba565b60209081029190910101526006546040516134f29189916001600160a01b03909116908f906024016154ba565b60408051601f198184030181529190526020810180516001600160e01b0316631cdacd5960e31b17905281518290600290811061353157613531614bba565b60200260200101819052508160405160240161354d91906154de565b60408051601f198184030181529190526020810180516001600160e01b0316635b4e956160e01b17905281518290600390811061358c5761358c614bba565b60200260200101819052506000896001600160a01b031663ac9650d885846040518363ffffffff1660e01b81526004016135c6919061560b565b60006040518083038185885af11580156135e4573d6000803e3d6000fd5b50505050506040513d6000823e601f3d908101601f1916820160405261360d9190810190615685565b600b5481519192506001600160a01b031690632c99327a908390600390811061363857613638614bba565b602002602001015161364990615771565b60006040518363ffffffff1660e01b81526004016136689291906157a5565b600060405180830381600087803b15801561368257600080fd5b505af1158015613696573d6000803e3d6000fd5b50505050505050505050505050505050505050565b600060106136b888610fb0565b815481106136c8576136c8614bba565b600091825260208083206040805160a0810182526004948502909201805460ff8116845261010090046001600160a01b0390811694840194909452600181015484168383015260028101548416606080850191909152600390910154841660808401819052855492516370a0823160e01b815230968101969096529296509216939192839291906370a0823190602401602060405180830381865afa158015613775573d6000803e3d6000fd5b505050506040513d601f19601f820116820180604052508101906137999190614bed565b90508981101580156137ab575060008a115b6138065760405162461bcd60e51b815260206004820152602660248201527f474d583a20496e73756666696369656e74206d61726b657420746f6b656e2062604482015265616c616e636560d01b6064820152608401611037565b60408051610160810182526001600160a01b038089168252600b5481166020830152600a54811692820192909252608080880180518416606084015290820186905260a0820185905260c082018b905260e082018a9052600e5460ff161515610100830152600d54610120830152600c546101408301526005549051919261389292811691168d613f93565b60408051600380825260808201909252600091816020015b60608152602001906001900390816138aa57905050600754600d546040516001600160a01b039092166024830152604482015290915060640160408051601f198184030181529190526020810180516001600160e01b0316637d39aaf160e01b1790528151829060009061392057613920614bba565b6020908102919091010152608087015160075460405161394f92916001600160a01b0316908f906024016154ba565b60408051601f198184030181529190526020810180516001600160e01b0316631cdacd5960e31b17905281518290600190811061398e5761398e614bba565b6020026020010181905250816040516024016139aa91906157c2565b60408051601f198184030181529190526020810180516001600160e01b031663ad23c5a160e01b1790528151829060029081106139e9576139e9614bba565b6020908102919091010152600d54604051631592ca1b60e31b81526000916001600160a01b0389169163ac9650d89190613a2790869060040161560b565b60006040518083038185885af1158015613a45573d6000803e3d6000fd5b50505050506040513d6000823e601f3d908101601f19168201604052613a6e9190810190615685565b600b5481519192506001600160a01b031690632c99327a9083906002908110613a9957613a99614bba565b6020026020010151613aaa90615771565b60016040518363ffffffff1660e01b8152600401613ac99291906157a5565b600060405180830381600087803b158015613ae357600080fd5b505af1158015613af7573d6000803e3d6000fd5b5050600b5483516001600160a01b03909116925063c9cbe54e915083906002908110613b2557613b25614bba565b6020026020010151613b3690615771565b6040516001600160e01b031960e084901b1681526004810191909152602481018f90526001600160a01b038c166044820152606401600060405180830381600087803b158015613b8557600080fd5b505af1158015613b99573d6000803e3d6000fd5b505050505050505050505050505050505050565b6002548151516001600160a01b03908116911614613c005760405162461bcd60e51b815260206004820152601060248201526f24b73b30b634b2103932b1b2b4bb32b960811b6044820152606401611037565b60025481516001600160a01b03918216602091820152600b548351908316604090910152600a548351908316606090910152600c54818401805160a09081018390526004548651820151835195860151600d5460809097019690965292519091019290925292169190600084604001516007811115613c8157613c81614de4565b1480613ca25750600184604001516007811115613ca057613ca0614de4565b145b80613cc25750600284604001516007811115613cc057613cc0614de4565b145b80613ce25750600384604001516007811115613ce057613ce0614de4565b145b15613d8357600254613d02906001600160a01b0384811691163084613250565b600554613d1c906001600160a01b03848116911683613f93565b600854604051631cdacd5960e31b81526001600160a01b038086169263e6d66ac892613d50928792169086906004016154ba565b600060405180830381600087803b158015613d6a57600080fd5b505af1158015613d7e573d6000803e3d6000fd5b505050505b600d54600854604051637d39aaf160e01b81526001600160a01b0391821660048201526024810183905290851691637d39aaf1916044016000604051808303818588803b158015613dd357600080fd5b505af1158015613de7573d6000803e3d6000fd5b505060405163041e7e7760e11b8152600093506001600160a01b038716925063083cfcee9150613e1b908890600401615928565b6020604051808303816000875af1158015613e3a573d6000803e3d6000fd5b505050506040513d601f19601f82011682018060405250810190613e5e9190614bed565b600b5460405163164c993d60e11b81529192506001600160a01b031690632c99327a90613e929084906002906004016157a5565b600060405180830381600087803b158015613eac57600080fd5b505af1158015612cba573d6000803e3d6000fd5b60048054604051630c50112160e21b81529182018390526001600160a01b03169081906331404484906024015b600060405180830381600087803b158015613f0757600080fd5b505af1158015613f1b573d6000803e3d6000fd5b505050505050565b600480546040516303909e2d60e51b81529182018390526001600160a01b0316908190637213c5a090602401613eed565b60048054604051637489ec2360e01b81529182018390526001600160a01b0316908190637489ec2390602401613eed565b60606108f48383600061401d565b604051636eb1769f60e11b81523060048201526001600160a01b0383811660248301526000919085169063dd62ed3e90604401602060405180830381865afa158015613fe3573d6000803e3d6000fd5b505050506040513d601f19601f820116820180604052508101906140079190614bed565b905061327884846140188585614c06565b6140ba565b6060814710156140425760405163cd78605960e01b8152306004820152602401611037565b600080856001600160a01b0316848660405161405e91906159fd565b60006040518083038185875af1925050503d806000811461409b576040519150601f19603f3d011682016040523d82523d6000602084013e6140a0565b606091505b50915091506140b086838361414a565b9695505050505050565b604080516001600160a01b038416602482015260448082018490528251808303909101815260649091019091526020810180516001600160e01b031663095ea7b360e01b17905261410b84826141a6565b613278576040516001600160a01b0384811660248301526000604483015261414091869182169063095ea7b3906064016128b0565b61327884826131ed565b60608261415f5761415a8261424e565b6108f4565b815115801561417657506001600160a01b0384163b155b1561419f57604051639996b31560e01b81526001600160a01b0385166004820152602401611037565b50806108f4565b6000806000846001600160a01b0316846040516141c391906159fd565b6000604051808303816000865af19150503d8060008114614200576040519150601f19603f3d011682016040523d82523d6000602084013e614205565b606091505b509150915081801561422f57508051158061422f57508080602001905181019061422f919061549d565b801561424557506000856001600160a01b03163b115b95945050505050565b80511561425e5780518082602001fd5b604051630a12f52160e11b815260040160405180910390fd5b8280548282559060005260206000209081019282156142cc579160200282015b828111156142cc57825182546001600160a01b0319166001600160a01b03909116178255602090920191600190910190614297565b50610e1c9291505b80821115610e1c57600081556001016142d4565b6001600160a01b0396871681529486166020860152928516604085015290841660608401528316608083015290911660a082015260c00190565b634e487b7160e01b600052604160045260246000fd5b60405161016081016001600160401b038111828210171561435b5761435b614322565b60405290565b60405160e081016001600160401b038111828210171561435b5761435b614322565b60405161010081016001600160401b038111828210171561435b5761435b614322565b604051601f8201601f191681016001600160401b03811182821017156143ce576143ce614322565b604052919050565b60006001600160401b038211156143ef576143ef614322565b5060051b60200190565b6001600160a01b038116811461236957600080fd5b8035614419816143f9565b919050565b600082601f83011261442f57600080fd5b8135602061444461443f836143d6565b6143a6565b8083825260208201915060208460051b87010193508684111561446657600080fd5b602086015b8481101561448b57803561447e816143f9565b835291830191830161446b565b509695505050505050565b6000602082840312156144a857600080fd5b81356001600160401b038111156144be57600080fd5b6144ca8482850161441e565b949350505050565b60008151808452602080850194506020840160005b8381101561450c5781516001600160a01b0316875295820195908201906001016144e7565b509495945050505050565b6020815260006108f460208301846144d2565b60008060006060848603121561453f57600080fd5b505081359360208301359350604090920135919050565b60ff8116811461236957600080fd5b60006020828403121561457757600080fd5b81356108f481614556565b6000806040838503121561459557600080fd5b82356145a0816143f9565b946020939093013593505050565b6001600160a01b039687168152949095166020850152604084019290925260608301521515608082015260a081019190915260c00190565b602080825282518282018190526000919060409081850190868401855b8281101561465a578151805160ff168552868101516001600160a01b039081168887015286820151811687870152606080830151821690870152608091820151169085015260a09093019290850190600101614603565b5091979650505050505050565b60006020828403121561467957600080fd5b81356108f4816143f9565b815181526020808301519082015260408101610faa565b60008060008060008060c087890312156146b457600080fd5b86356146bf816143f9565b955060208701356146cf816143f9565b945060408701356146df816143f9565b935060608701356146ef816143f9565b925060808701356146ff816143f9565b915060a087013561470f816143f9565b809150509295509295509295565b60008083601f84011261472f57600080fd5b5081356001600160401b0381111561474657600080fd5b6020830191508360208260051b850101111561476157600080fd5b9250929050565b60008060008060008060008060008060a08b8d03121561478757600080fd5b8a356001600160401b038082111561479e57600080fd5b6147aa8e838f0161471d565b909c509a5060208d01359150808211156147c357600080fd5b6147cf8e838f0161471d565b909a50985060408d01359150808211156147e857600080fd5b6147f48e838f0161471d565b909850965060608d013591508082111561480d57600080fd5b6148198e838f0161471d565b909650945060808d013591508082111561483257600080fd5b5061483f8d828e0161471d565b915080935050809150509295989b9194979a5092959850565b60006020828403121561486a57600080fd5b5035919050565b801515811461236957600080fd5b803561441981614871565b6000806040838503121561489d57600080fd5b82356148a881614556565b915060208301356148b881614871565b809150509250929050565b600080600080600060a086880312156148db57600080fd5b85356148e681614556565b945060208601356148f6816143f9565b93506040860135614906816143f9565b92506060860135614916816143f9565b91506080860135614926816143f9565b809150509295509295909350565b60008060008060008060c0878903121561494d57600080fd5b8635614958816143f9565b95506020870135614968816143f9565b94506040870135935060608701359250608087013561498681614871565b8092505060a087013590509295509295509295565b602080825282518282018190526000919060409081850190868401855b8281101561465a578151805160ff1685528601518685015292840192908501906001016149b8565b6000806000604084860312156149f557600080fd5b833560098110614a0457600080fd5b925060208401356001600160401b0380821115614a2057600080fd5b818601915086601f830112614a3457600080fd5b813581811115614a4357600080fd5b876020828501011115614a5557600080fd5b6020830194508093505050509250925092565b634e487b7160e01b600052601160045260246000fd5b81810381811115610faa57610faa614a68565b600181815b80851115614acc578160001904821115614ab257614ab2614a68565b80851615614abf57918102915b93841c9390800290614a96565b509250929050565b600082614ae357506001610faa565b81614af057506000610faa565b8160018114614b065760028114614b1057614b2c565b6001915050610faa565b60ff841115614b2157614b21614a68565b50506001821b610faa565b5060208310610133831016604e8410600b8410161715614b4f575081810a610faa565b614b598383614a91565b8060001904821115614b6d57614b6d614a68565b029392505050565b60006108f48383614ad4565b600082614b9e57634e487b7160e01b600052601260045260246000fd5b500490565b8082028115828204841417610faa57610faa614a68565b634e487b7160e01b600052603260045260246000fd5b600060208284031215614be257600080fd5b81516108f481614556565b600060208284031215614bff57600080fd5b5051919050565b80820180821115610faa57610faa614a68565b60208082526029908201527f474d583a20506f6f6c2077697468207468697320706f6f6c496420646f6573206040820152681b9bdd08195e1a5cdd60ba1b606082015260800190565b634e487b7160e01b600052603160045260246000fd5b600060208284031215614c8a57600080fd5b81516108f4816143f9565b60006101a08201905060018060a01b03808a1683528089511660208401528060208a01511660408401528060408a01511660608401528060608a015116608084015250614cef60a083018880518252602090810151910152565b855160e08301526020860151610100830152845161012083015260208501516101408301528361016083015282151561018083015298975050505050505050565b600080828403610180811215614d4557600080fd5b8351925061016080601f1983011215614d5d57600080fd5b614d65614338565b91506020850151825260408501516020830152606085015160408301526080850151606083015260a0850151608083015260c085015160a083015260e085015160c08301526101008086015160e08401526101208087015182850152610140915081870151818501525081860151818401525050809150509250929050565b634e487b7160e01b600052602160045260246000fd5b60098110614e0a57614e0a614de4565b9052565b614e188185614dfa565b60406020820152816040820152818360608301376000818301606090810191909152601f909201601f1916010192915050565b600081614e5a57614e5a614a68565b506000190190565b600082601f830112614e7357600080fd5b81356020614e8361443f836143d6565b8083825260208201915060208460051b870101935086841115614ea557600080fd5b602086015b8481101561448b5780358352918301918301614eaa565b60006001600160401b03821115614eda57614eda614322565b50601f01601f191660200190565b600082601f830112614ef957600080fd5b8135614f0761443f82614ec1565b818152846020838601011115614f1c57600080fd5b816020850160208301376000918101602001919091529392505050565b60008060008060808587031215614f4f57600080fd5b8435614f5a81614556565b935060208501356001600160401b0380821115614f7657600080fd5b614f828883890161441e565b94506040870135915080821115614f9857600080fd5b614fa488838901614e62565b93506060870135915080821115614fba57600080fd5b50614fc787828801614ee8565b91505092959194509250565b600080600080600060a08688031215614feb57600080fd5b8535614ff681614556565b945060208601359350604086013592506060860135615014816143f9565b915060808601356001600160401b0381111561502f57600080fd5b61503b88828901614ee8565b9150509295509295909350565b6000806040838503121561505b57600080fd5b505080516020909101519092909150565b600060e0828403121561507e57600080fd5b615086614361565b90506150918261440e565b815261509f6020830161440e565b60208201526150b06040830161440e565b60408201526150c16060830161440e565b60608201526150d26080830161440e565b60808201526150e360a0830161440e565b60a082015260c08201356001600160401b0381111561510157600080fd5b61510d8482850161441e565b60c08301525092915050565b600060e0828403121561512b57600080fd5b615133614361565b9050813581526020820135602082015260408201356040820152606082013560608201526080820135608082015260a082013560a082015260c082013560c082015292915050565b80356008811061441957600080fd5b80356003811061441957600080fd5b6000602082840312156151ab57600080fd5b81356001600160401b03808211156151c257600080fd5b908301906101c082860312156151d757600080fd5b6151df614383565b8235828111156151ee57600080fd5b6151fa8782860161506c565b82525061520a8660208501615119565b602082015261521c610100840161517b565b604082015261522e610120840161518a565b6060820152615240610140840161487f565b6080820152615252610160840161487f565b60a0820152615264610180840161487f565b60c08201526101a0929092013560e0830152509392505050565b6000806040838503121561529157600080fd5b82356145a081614556565b600080600080608085870312156152b257600080fd5b84356001600160401b03808211156152c957600080fd5b6152d58883890161441e565b955060208701359150808211156152eb57600080fd5b6152f78883890161441e565b9450604087013591508082111561530d57600080fd5b5061531a87828801614e62565b949793965093946060013593505050565b60608152600061533e60608301866144d2565b828103602084015261535081866144d2565b91505060018060a01b0383166040830152949350505050565b6000602080838503121561537c57600080fd5b82516001600160401b0381111561539257600080fd5b8301601f810185136153a357600080fd5b80516153b161443f826143d6565b81815260059190911b820183019083810190878311156153d057600080fd5b928401925b828410156153ee578351825292840192908401906153d5565b979650505050505050565b60008151808452602080850194506020840160005b8381101561450c5781518752958201959082019060010161540e565b6154348184614dfa565b6040602082015260006144ca60408301846153f9565b60808152600061545d60808301876144d2565b828103602084015261546f81876144d2565b9050828103604084015261548381866153f9565b91505060018060a01b038316606083015295945050505050565b6000602082840312156154af57600080fd5b81516108f481614871565b6001600160a01b039384168152919092166020820152604081019190915260600190565b602081526154f86020820183516001600160a01b03169052565b6000602083015161551460408401826001600160a01b03169052565b5060408301516001600160a01b03811660608401525060608301516001600160a01b03811660808401525060808301516001600160a01b03811660a08401525060a08301516001600160a01b03811660c08401525060c08301516101808060e08501526155856101a08501836144d2565b915060e0850151610100601f1986850301818701526155a484836144d2565b908701516101208781019190915287015190935090506101406155ca8187018315159052565b860151610160868101919091529095015193019290925250919050565b60005b838110156156025781810151838201526020016155ea565b50506000910152565b6000602080830181845280855180835260408601915060408160051b870101925083870160005b8281101561567857878503603f1901845281518051808752615659818989018a85016155e7565b601f01601f191695909501860194509285019290850190600101615632565b5092979650505050505050565b6000602080838503121561569857600080fd5b82516001600160401b03808211156156af57600080fd5b818501915085601f8301126156c357600080fd5b81516156d161443f826143d6565b81815260059190911b830184019084810190888311156156f057600080fd5b8585015b838110156157645780518581111561570c5760008081fd5b8601603f81018b1361571e5760008081fd5b87810151604061573061443f83614ec1565b8281528d828486010111156157455760008081fd5b615754838c83018487016155e7565b86525050509186019186016156f4565b5098975050505050505050565b8051602080830151919081101561259e5760001960209190910360031b1b16919050565b6003811061236957612369614de4565b828152604081016157b583615795565b8260208301529392505050565b602081526157dc6020820183516001600160a01b03169052565b600060208301516157f860408401826001600160a01b03169052565b5060408301516001600160a01b03811660608401525060608301516001600160a01b03811660808401525060808301516101608060a085015261583f6101808501836144d2565b915060a0850151601f198584030160c086015261585c83826144d2565b92505060c085015160e085015260e085015161010081818701528087015191505061012061588d8187018315159052565b860151610140868101919091529095015193019290925250919050565b600060018060a01b038083511684528060208401511660208501528060408401511660408501528060608401511660608501528060808401511660808501528060a08401511660a08501525060c082015160e060c08501526144ca60e08501826144d2565b60088110614e0a57614e0a614de4565b614e0a81615795565b60208152600082516101c08060208501526159476101e08501836158aa565b9150602085015161599a6040860182805182526020810151602083015260408101516040830152606081015160608301526080810151608083015260a081015160a083015260c081015160c08301525050565b5060408501516159ae61012086018261590f565b5060608501516159c261014086018261591f565b506080850151151561016085015260a0850151151561018085015260c085015115156101a085015260e0909401519390920192909252919050565b60008251615a0f8184602087016155e7565b919091019291505056fea2646970667358221220d19a423a3ede5ca69b9f78b3f7c8a073f86a1121632bde8487ab16bee7b3a98064736f6c63430008180033",
  "devdoc": {
    "errors": {
      "AddressEmptyCode(address)": [
        {
          "details": "There's no code at `target` (it is not a contract)."
        }
      ],
      "AddressInsufficientBalance(address)": [
        {
          "details": "The ETH balance of the account is not enough to perform the operation."
        }
      ],
      "FailedInnerCall()": [
        {
          "details": "A call to an address target failed. The target may have reverted."
        }
      ],
      "OwnableInvalidOwner(address)": [
        {
          "details": "The owner is not a valid owner account. (eg. `address(0)`)"
        }
      ],
      "OwnableUnauthorizedAccount(address)": [
        {
          "details": "The caller account is not authorized to perform an operation."
        }
      ],
      "ReentrancyGuardReentrantCall()": [
        {
          "details": "Unauthorized reentrant call."
        }
      ],
      "SafeERC20FailedOperation(address)": [
        {
          "details": "An operation with an ERC20 token failed."
        }
      ]
    },
    "kind": "dev",
    "methods": {
      "owner()": {
        "details": "Returns the address of the current owner."
      },
      "renounceOwnership()": {
        "details": "Leaves the contract without owner. It will not be possible to call `onlyOwner` functions. Can only be called by the current owner. NOTE: Renouncing ownership will leave the contract without an owner, thereby disabling any functionality that is only available to the owner."
      },
      "transferOwnership(address)": {
        "details": "Transfers ownership of the contract to a new account (`newOwner`). Can only be called by the current owner."
      }
    },
    "version": 1
  },
  "userdoc": {
    "kind": "user",
    "methods": {},
    "version": 1
  },
  "storageLayout": {
    "storage": [
      {
        "astId": 8,
        "contract": "contracts/vaults/theseus/GmxPlugin.sol:GmxPlugin",
        "label": "_owner",
        "offset": 0,
        "slot": "0",
        "type": "t_address"
      },
      {
        "astId": 1674,
        "contract": "contracts/vaults/theseus/GmxPlugin.sol:GmxPlugin",
        "label": "_status",
        "offset": 0,
        "slot": "1",
        "type": "t_uint256"
      },
      {
        "astId": 3182,
        "contract": "contracts/vaults/theseus/GmxPlugin.sol:GmxPlugin",
        "label": "localVault",
        "offset": 0,
        "slot": "2",
        "type": "t_address"
      },
      {
        "astId": 3184,
        "contract": "contracts/vaults/theseus/GmxPlugin.sol:GmxPlugin",
        "label": "treasury",
        "offset": 0,
        "slot": "3",
        "type": "t_address_payable"
      },
      {
        "astId": 3187,
        "contract": "contracts/vaults/theseus/GmxPlugin.sol:GmxPlugin",
        "label": "routerConfig",
        "offset": 0,
        "slot": "4",
        "type": "t_struct(RouterConfig)3151_storage"
      },
      {
        "astId": 3190,
        "contract": "contracts/vaults/theseus/GmxPlugin.sol:GmxPlugin",
        "label": "gmxParams",
        "offset": 0,
        "slot": "10",
        "type": "t_struct(GmxParams)3175_storage"
      },
      {
        "astId": 3194,
        "contract": "contracts/vaults/theseus/GmxPlugin.sol:GmxPlugin",
        "label": "pools",
        "offset": 0,
        "slot": "16",
        "type": "t_array(t_struct(PoolConfig)3162_storage)dyn_storage"
      },
      {
        "astId": 3198,
        "contract": "contracts/vaults/theseus/GmxPlugin.sol:GmxPlugin",
        "label": "poolExistsMap",
        "offset": 0,
        "slot": "17",
        "type": "t_mapping(t_uint8,t_bool)"
      },
      {
        "astId": 3201,
        "contract": "contracts/vaults/theseus/GmxPlugin.sol:GmxPlugin",
        "label": "uniqueTokens",
        "offset": 0,
        "slot": "18",
        "type": "t_array(t_address)dyn_storage"
      },
      {
        "astId": 3203,
        "contract": "contracts/vaults/theseus/GmxPlugin.sol:GmxPlugin",
        "label": "tokenPriceConsumer",
        "offset": 0,
        "slot": "19",
        "type": "t_address"
      },
      {
        "astId": 3206,
        "contract": "contracts/vaults/theseus/GmxPlugin.sol:GmxPlugin",
        "label": "rewardTokens",
        "offset": 0,
        "slot": "20",
        "type": "t_array(t_address)dyn_storage"
      }
    ],
    "types": {
      "t_address": {
        "encoding": "inplace",
        "label": "address",
        "numberOfBytes": "20"
      },
      "t_address_payable": {
        "encoding": "inplace",
        "label": "address payable",
        "numberOfBytes": "20"
      },
      "t_array(t_address)dyn_storage": {
        "base": "t_address",
        "encoding": "dynamic_array",
        "label": "address[]",
        "numberOfBytes": "32"
      },
      "t_array(t_struct(PoolConfig)3162_storage)dyn_storage": {
        "base": "t_struct(PoolConfig)3162_storage",
        "encoding": "dynamic_array",
        "label": "struct GmxPlugin.PoolConfig[]",
        "numberOfBytes": "32"
      },
      "t_bool": {
        "encoding": "inplace",
        "label": "bool",
        "numberOfBytes": "1"
      },
      "t_bytes32": {
        "encoding": "inplace",
        "label": "bytes32",
        "numberOfBytes": "32"
      },
      "t_mapping(t_uint8,t_bool)": {
        "encoding": "mapping",
        "key": "t_uint8",
        "label": "mapping(uint8 => bool)",
        "numberOfBytes": "32",
        "value": "t_bool"
      },
      "t_struct(GmxParams)3175_storage": {
        "encoding": "inplace",
        "label": "struct GmxPlugin.GmxParams",
        "members": [
          {
            "astId": 3164,
            "contract": "contracts/vaults/theseus/GmxPlugin.sol:GmxPlugin",
            "label": "uiFeeReceiver",
            "offset": 0,
            "slot": "0",
            "type": "t_address"
          },
          {
            "astId": 3166,
            "contract": "contracts/vaults/theseus/GmxPlugin.sol:GmxPlugin",
            "label": "callbackContract",
            "offset": 0,
            "slot": "1",
            "type": "t_address"
          },
          {
            "astId": 3168,
            "contract": "contracts/vaults/theseus/GmxPlugin.sol:GmxPlugin",
            "label": "callbackGasLimit",
            "offset": 0,
            "slot": "2",
            "type": "t_uint256"
          },
          {
            "astId": 3170,
            "contract": "contracts/vaults/theseus/GmxPlugin.sol:GmxPlugin",
            "label": "executionFee",
            "offset": 0,
            "slot": "3",
            "type": "t_uint256"
          },
          {
            "astId": 3172,
            "contract": "contracts/vaults/theseus/GmxPlugin.sol:GmxPlugin",
            "label": "shouldUnwrapNativeToken",
            "offset": 0,
            "slot": "4",
            "type": "t_bool"
          },
          {
            "astId": 3174,
            "contract": "contracts/vaults/theseus/GmxPlugin.sol:GmxPlugin",
            "label": "pnlFactorType",
            "offset": 0,
            "slot": "5",
            "type": "t_bytes32"
          }
        ],
        "numberOfBytes": "192"
      },
      "t_struct(PoolConfig)3162_storage": {
        "encoding": "inplace",
        "label": "struct GmxPlugin.PoolConfig",
        "members": [
          {
            "astId": 3153,
            "contract": "contracts/vaults/theseus/GmxPlugin.sol:GmxPlugin",
            "label": "poolId",
            "offset": 0,
            "slot": "0",
            "type": "t_uint8"
          },
          {
            "astId": 3155,
            "contract": "contracts/vaults/theseus/GmxPlugin.sol:GmxPlugin",
            "label": "indexToken",
            "offset": 1,
            "slot": "0",
            "type": "t_address"
          },
          {
            "astId": 3157,
            "contract": "contracts/vaults/theseus/GmxPlugin.sol:GmxPlugin",
            "label": "longToken",
            "offset": 0,
            "slot": "1",
            "type": "t_address"
          },
          {
            "astId": 3159,
            "contract": "contracts/vaults/theseus/GmxPlugin.sol:GmxPlugin",
            "label": "shortToken",
            "offset": 0,
            "slot": "2",
            "type": "t_address"
          },
          {
            "astId": 3161,
            "contract": "contracts/vaults/theseus/GmxPlugin.sol:GmxPlugin",
            "label": "marketToken",
            "offset": 0,
            "slot": "3",
            "type": "t_address"
          }
        ],
        "numberOfBytes": "128"
      },
      "t_struct(RouterConfig)3151_storage": {
        "encoding": "inplace",
        "label": "struct GmxPlugin.RouterConfig",
        "members": [
          {
            "astId": 3140,
            "contract": "contracts/vaults/theseus/GmxPlugin.sol:GmxPlugin",
            "label": "exchangeRouter",
            "offset": 0,
            "slot": "0",
            "type": "t_address"
          },
          {
            "astId": 3142,
            "contract": "contracts/vaults/theseus/GmxPlugin.sol:GmxPlugin",
            "label": "router",
            "offset": 0,
            "slot": "1",
            "type": "t_address"
          },
          {
            "astId": 3144,
            "contract": "contracts/vaults/theseus/GmxPlugin.sol:GmxPlugin",
            "label": "depositVault",
            "offset": 0,
            "slot": "2",
            "type": "t_address"
          },
          {
            "astId": 3146,
            "contract": "contracts/vaults/theseus/GmxPlugin.sol:GmxPlugin",
            "label": "withdrawVault",
            "offset": 0,
            "slot": "3",
            "type": "t_address"
          },
          {
            "astId": 3148,
            "contract": "contracts/vaults/theseus/GmxPlugin.sol:GmxPlugin",
            "label": "orderVault",
            "offset": 0,
            "slot": "4",
            "type": "t_address"
          },
          {
            "astId": 3150,
            "contract": "contracts/vaults/theseus/GmxPlugin.sol:GmxPlugin",
            "label": "reader",
            "offset": 0,
            "slot": "5",
            "type": "t_address"
          }
        ],
        "numberOfBytes": "192"
      },
      "t_uint256": {
        "encoding": "inplace",
        "label": "uint256",
        "numberOfBytes": "32"
      },
      "t_uint8": {
        "encoding": "inplace",
        "label": "uint8",
        "numberOfBytes": "1"
      }
    }
  }
}