{
  "address": "0x047aA862bBFfbb16bF7Fb1D9AFB646f8c3e2a9D6",
  "abi": [
    {
      "inputs": [
        {
          "internalType": "address[]",
          "name": "tokenAddresses",
          "type": "address[]"
        },
        {
          "internalType": "address[]",
          "name": "priceFeedAddresses",
          "type": "address[]"
        },
        {
          "internalType": "uint256[]",
          "name": "heartbeatDurations",
          "type": "uint256[]"
        }
      ],
      "stateMutability": "nonpayable",
      "type": "constructor"
    },
    {
      "inputs": [
        {
          "internalType": "address",
          "name": "owner",
          "type": "address"
        }
      ],
      "name": "OwnableInvalidOwner",
      "type": "error"
    },
    {
      "inputs": [
        {
          "internalType": "address",
          "name": "account",
          "type": "address"
        }
      ],
      "name": "OwnableUnauthorizedAccount",
      "type": "error"
    },
    {
      "anonymous": false,
      "inputs": [
        {
          "indexed": true,
          "internalType": "address",
          "name": "previousOwner",
          "type": "address"
        },
        {
          "indexed": true,
          "internalType": "address",
          "name": "newOwner",
          "type": "address"
        }
      ],
      "name": "OwnershipTransferred",
      "type": "event"
    },
    {
      "inputs": [
        {
          "internalType": "address",
          "name": "tokenAddress",
          "type": "address"
        },
        {
          "internalType": "address",
          "name": "priceFeedAddress",
          "type": "address"
        },
        {
          "internalType": "uint256",
          "name": "heartbeatDuration",
          "type": "uint256"
        }
      ],
      "name": "addPriceFeed",
      "outputs": [],
      "stateMutability": "nonpayable",
      "type": "function"
    },
    {
      "inputs": [
        {
          "internalType": "address",
          "name": "tokenAddress",
          "type": "address"
        }
      ],
      "name": "decimals",
      "outputs": [
        {
          "internalType": "uint8",
          "name": "",
          "type": "uint8"
        }
      ],
      "stateMutability": "view",
      "type": "function"
    },
    {
      "inputs": [
        {
          "internalType": "address",
          "name": "tokenAddress",
          "type": "address"
        }
      ],
      "name": "getTokenPrice",
      "outputs": [
        {
          "internalType": "uint256",
          "name": "",
          "type": "uint256"
        }
      ],
      "stateMutability": "view",
      "type": "function"
    },
    {
      "inputs": [],
      "name": "owner",
      "outputs": [
        {
          "internalType": "address",
          "name": "",
          "type": "address"
        }
      ],
      "stateMutability": "view",
      "type": "function"
    },
    {
      "inputs": [
        {
          "internalType": "address",
          "name": "tokenAddress",
          "type": "address"
        }
      ],
      "name": "removePriceFeed",
      "outputs": [],
      "stateMutability": "nonpayable",
      "type": "function"
    },
    {
      "inputs": [],
      "name": "renounceOwnership",
      "outputs": [],
      "stateMutability": "nonpayable",
      "type": "function"
    },
    {
      "inputs": [
        {
          "internalType": "address",
          "name": "newOwner",
          "type": "address"
        }
      ],
      "name": "transferOwnership",
      "outputs": [],
      "stateMutability": "nonpayable",
      "type": "function"
    }
  ],
  "transactionHash": "0x20b714e313cc8e8a6ae23b756216653648ef9288a1fbff34a65245cbde295c94",
  "args": [
    [
      "0x3eBDeaA0DB3FfDe96E7a0DBBAFEC961FC50F725F",
      "0x50df4892Bd13f01E4e1Cd077ff394A8fa1A3fD7c",
      "0x3Bd8e00c25B12E6E60fc8B6f1E1E2236102073Ca",
      "0x1D308089a2D1Ced3f1Ce36B1FcaF815b07217be3",
      "0x82F0b3695Ed2324e55bbD9A9554cB4192EC3a514"
    ],
    [
      "0x97FE42a7E96640D932bbc0e1580c73E705A8EB73",
      "0x7898AcCC83587C3C55116c5230C17a6Cd9C71bad",
      "0x31CF013A08c6Ac228C94551d535d5BAfE19c602a",
      "0x5498BB86BC934c8D34FDA08E81D444153d0D06aD",
      "0x86d67c3D38D2bCeE722E601025C25a575021c6EA"
    ],
    [
      86400,
      86400,
      86400,
      600,
      86400
    ]
  ],
  "numDeployments": 1,
  "solcInputHash": "9afec594dc1b4e9556a96994ac169add",
  "bytecode": "0x60806040523480156200001157600080fd5b5060405162000bce38038062000bce833981016040819052620000349162000357565b33806200005c57604051631e4fbdf760e01b8152600060048201526024015b60405180910390fd5b62000067816200020a565b508151835114620000bb5760405162461bcd60e51b815260206004820152601660248201527f417272617973206c656e677468206d69736d6174636800000000000000000000604482015260640162000053565b80518351146200010e5760405162461bcd60e51b815260206004820152601660248201527f417272617973206c656e677468206d69736d6174636800000000000000000000604482015260640162000053565b60005b8351811015620002005782818151811062000130576200013062000443565b60200260200101516001600086848151811062000151576200015162000443565b60200260200101516001600160a01b03166001600160a01b0316815260200190815260200160002060006101000a8154816001600160a01b0302191690836001600160a01b03160217905550818181518110620001b257620001b262000443565b602002602001015160026000868481518110620001d357620001d362000443565b6020908102919091018101516001600160a01b031682528101919091526040016000205560010162000111565b5050505062000459565b600080546001600160a01b038381166001600160a01b0319831681178455604051919092169283917f8be0079c531659141344cd1fd0a4f28419497f9722a3daafe3b4186f6b6457e09190a35050565b634e487b7160e01b600052604160045260246000fd5b604051601f8201601f191681016001600160401b03811182821017156200029b576200029b6200025a565b604052919050565b60006001600160401b03821115620002bf57620002bf6200025a565b5060051b60200190565b600082601f830112620002db57600080fd5b81516020620002f4620002ee83620002a3565b62000270565b8083825260208201915060208460051b8701019350868411156200031757600080fd5b602086015b848110156200034c5780516001600160a01b03811681146200033e5760008081fd5b83529183019183016200031c565b509695505050505050565b6000806000606084860312156200036d57600080fd5b83516001600160401b03808211156200038557600080fd5b6200039387838801620002c9565b9450602091508186015181811115620003ab57600080fd5b620003b988828901620002c9565b945050604086015181811115620003cf57600080fd5b86019050601f81018713620003e357600080fd5b8051620003f4620002ee82620002a3565b81815260059190911b820183019083810190898311156200041457600080fd5b928401925b82841015620004345783518252928401929084019062000419565b80955050505050509250925092565b634e487b7160e01b600052603260045260246000fd5b61076580620004696000396000f3fe608060405234801561001057600080fd5b506004361061007d5760003560e01c8063d02641a01161005b578063d02641a0146100bf578063d449a832146100e0578063f2fde38b14610105578063fceb00241461011857600080fd5b8063715018a6146100825780638da5cb5b1461008c578063bda77386146100ac575b600080fd5b61008a61012b565b005b6000546040516001600160a01b0390911681526020015b60405180910390f35b61008a6100ba366004610624565b61013f565b6100d26100cd366004610660565b610233565b6040519081526020016100a3565b6100f36100ee366004610660565b6103e8565b60405160ff90911681526020016100a3565b61008a610113366004610660565b6104b2565b61008a610126366004610660565b6104f0565b61013361058b565b61013d60006105b8565b565b61014761058b565b6001600160a01b0382166101945760405162461bcd60e51b815260206004820152600f60248201526e496e76616c6964206164647265737360881b60448201526064015b60405180910390fd5b6001600160a01b0383811660009081526001602052604090205416156101f65760405162461bcd60e51b8152602060048201526017602482015276141c9a58d95199595908185b1c9958591e48195e1a5cdd604a1b604482015260640161018b565b6001600160a01b03928316600090815260016020908152604080832080546001600160a01b03191695909616949094179094556002909352912055565b6001600160a01b03808216600090815260016020526040812054909116806102945760405162461bcd60e51b8152602060048201526014602482015273141c9a58d94819995959081b9bdd08199bdd5b9960621b604482015260640161018b565b6000806000836001600160a01b031663feaf968c6040518163ffffffff1660e01b815260040160a060405180830381865afa1580156102d7573d6000803e3d6000fd5b505050506040513d601f19601f820116820180604052508101906102fb9190610695565b50935050925092508269ffffffffffffffffffff16600014158015610321575060008212155b801561032c57508015155b6103785760405162461bcd60e51b815260206004820152601760248201527f5072696365466565643a2053616e69747920636865636b000000000000000000604482015260640161018b565b6001600160a01b03861660009081526002602052604090205461039b82426106e5565b11156103df5760405162461bcd60e51b815260206004820152601360248201527250726963652066656564206973207374616c6560681b604482015260640161018b565b50949350505050565b6001600160a01b03808216600090815260016020526040812054909116806104495760405162461bcd60e51b8152602060048201526014602482015273141c9a58d94819995959081b9bdd08199bdd5b9960621b604482015260640161018b565b806001600160a01b031663313ce5676040518163ffffffff1660e01b8152600401602060405180830381865afa158015610487573d6000803e3d6000fd5b505050506040513d601f19601f820116820180604052508101906104ab919061070c565b9392505050565b6104ba61058b565b6001600160a01b0381166104e457604051631e4fbdf760e01b81526000600482015260240161018b565b6104ed816105b8565b50565b6104f861058b565b6001600160a01b03818116600090815260016020526040902054166105595760405162461bcd60e51b8152602060048201526017602482015276141c9a58d95199595908185b1c9958591e48195e1a5cdd604a1b604482015260640161018b565b6001600160a01b0316600090815260016020908152604080832080546001600160a01b03191690556002909152812055565b6000546001600160a01b0316331461013d5760405163118cdaa760e01b815233600482015260240161018b565b600080546001600160a01b038381166001600160a01b0319831681178455604051919092169283917f8be0079c531659141344cd1fd0a4f28419497f9722a3daafe3b4186f6b6457e09190a35050565b80356001600160a01b038116811461061f57600080fd5b919050565b60008060006060848603121561063957600080fd5b61064284610608565b925061065060208501610608565b9150604084013590509250925092565b60006020828403121561067257600080fd5b6104ab82610608565b805169ffffffffffffffffffff8116811461061f57600080fd5b600080600080600060a086880312156106ad57600080fd5b6106b68661067b565b94506020860151935060408601519250606086015191506106d96080870161067b565b90509295509295909350565b8181038181111561070657634e487b7160e01b600052601160045260246000fd5b92915050565b60006020828403121561071e57600080fd5b815160ff811681146104ab57600080fdfea26469706673582212201258116b92fb6fbdf195699e013ab155298a10357649327d48f330dd56eadbf364736f6c63430008180033",
  "devdoc": {
    "errors": {
      "OwnableInvalidOwner(address)": [
        {
          "details": "The owner is not a valid owner account. (eg. `address(0)`)"
        }
      ],
      "OwnableUnauthorizedAccount(address)": [
        {
          "details": "The caller account is not authorized to perform an operation."
        }
      ]
    },
    "kind": "dev",
    "methods": {
      "owner()": {
        "details": "Returns the address of the current owner."
      },
      "renounceOwnership()": {
        "details": "Leaves the contract without owner. It will not be possible to call `onlyOwner` functions. Can only be called by the current owner. NOTE: Renouncing ownership will leave the contract without an owner, thereby disabling any functionality that is only available to the owner."
      },
      "transferOwnership(address)": {
        "details": "Transfers ownership of the contract to a new account (`newOwner`). Can only be called by the current owner."
      }
    },
    "version": 1
  },
  "userdoc": {
    "kind": "user",
    "methods": {},
    "version": 1
  },
  "storageLayout": {
    "storage": [
      {
        "astId": 3938,
        "contract": "contracts/vaults/TokenPriceConsumer.sol:TokenPriceConsumer",
        "label": "_owner",
        "offset": 0,
        "slot": "0",
        "type": "t_address"
      },
      {
        "astId": 11299,
        "contract": "contracts/vaults/TokenPriceConsumer.sol:TokenPriceConsumer",
        "label": "tokenPriceFeeds",
        "offset": 0,
        "slot": "1",
        "type": "t_mapping(t_address,t_contract(AggregatorV3Interface)6182)"
      },
      {
        "astId": 11303,
        "contract": "contracts/vaults/TokenPriceConsumer.sol:TokenPriceConsumer",
        "label": "tokenHeartbeatDurations",
        "offset": 0,
        "slot": "2",
        "type": "t_mapping(t_address,t_uint256)"
      }
    ],
    "types": {
      "t_address": {
        "encoding": "inplace",
        "label": "address",
        "numberOfBytes": "20"
      },
      "t_contract(AggregatorV3Interface)6182": {
        "encoding": "inplace",
        "label": "contract AggregatorV3Interface",
        "numberOfBytes": "20"
      },
      "t_mapping(t_address,t_contract(AggregatorV3Interface)6182)": {
        "encoding": "mapping",
        "key": "t_address",
        "label": "mapping(address => contract AggregatorV3Interface)",
        "numberOfBytes": "32",
        "value": "t_contract(AggregatorV3Interface)6182"
      },
      "t_mapping(t_address,t_uint256)": {
        "encoding": "mapping",
        "key": "t_address",
        "label": "mapping(address => uint256)",
        "numberOfBytes": "32",
        "value": "t_uint256"
      },
      "t_uint256": {
        "encoding": "inplace",
        "label": "uint256",
        "numberOfBytes": "32"
      }
    }
  }
}