{
  "address": "0xEdb81917553dC4517a0313AE7DD16F4fEb0012Ef",
  "abi": [
    {
      "inputs": [
        {
          "internalType": "address",
          "name": "_master",
          "type": "address"
        },
        {
          "internalType": "address",
          "name": "_admin",
          "type": "address"
        },
        {
          "internalType": "address",
          "name": "_tokenPriceConsumer",
          "type": "address"
        },
        {
          "internalType": "address payable",
          "name": "_treasury",
          "type": "address"
        }
      ],
      "stateMutability": "nonpayable",
      "type": "constructor"
    },
    {
      "inputs": [
        {
          "internalType": "address",
          "name": "target",
          "type": "address"
        }
      ],
      "name": "AddressEmptyCode",
      "type": "error"
    },
    {
      "inputs": [
        {
          "internalType": "address",
          "name": "account",
          "type": "address"
        }
      ],
      "name": "AddressInsufficientBalance",
      "type": "error"
    },
    {
      "inputs": [
        {
          "internalType": "address",
          "name": "spender",
          "type": "address"
        },
        {
          "internalType": "uint256",
          "name": "allowance",
          "type": "uint256"
        },
        {
          "internalType": "uint256",
          "name": "needed",
          "type": "uint256"
        }
      ],
      "name": "ERC20InsufficientAllowance",
      "type": "error"
    },
    {
      "inputs": [
        {
          "internalType": "address",
          "name": "sender",
          "type": "address"
        },
        {
          "internalType": "uint256",
          "name": "balance",
          "type": "uint256"
        },
        {
          "internalType": "uint256",
          "name": "needed",
          "type": "uint256"
        }
      ],
      "name": "ERC20InsufficientBalance",
      "type": "error"
    },
    {
      "inputs": [
        {
          "internalType": "address",
          "name": "approver",
          "type": "address"
        }
      ],
      "name": "ERC20InvalidApprover",
      "type": "error"
    },
    {
      "inputs": [
        {
          "internalType": "address",
          "name": "receiver",
          "type": "address"
        }
      ],
      "name": "ERC20InvalidReceiver",
      "type": "error"
    },
    {
      "inputs": [
        {
          "internalType": "address",
          "name": "sender",
          "type": "address"
        }
      ],
      "name": "ERC20InvalidSender",
      "type": "error"
    },
    {
      "inputs": [
        {
          "internalType": "address",
          "name": "spender",
          "type": "address"
        }
      ],
      "name": "ERC20InvalidSpender",
      "type": "error"
    },
    {
      "inputs": [],
      "name": "EnforcedPause",
      "type": "error"
    },
    {
      "inputs": [],
      "name": "ExpectedPause",
      "type": "error"
    },
    {
      "inputs": [],
      "name": "FailedInnerCall",
      "type": "error"
    },
    {
      "inputs": [
        {
          "internalType": "address",
          "name": "owner",
          "type": "address"
        }
      ],
      "name": "OwnableInvalidOwner",
      "type": "error"
    },
    {
      "inputs": [
        {
          "internalType": "address",
          "name": "account",
          "type": "address"
        }
      ],
      "name": "OwnableUnauthorizedAccount",
      "type": "error"
    },
    {
      "inputs": [],
      "name": "ReentrancyGuardReentrantCall",
      "type": "error"
    },
    {
      "inputs": [
        {
          "internalType": "address",
          "name": "spender",
          "type": "address"
        },
        {
          "internalType": "uint256",
          "name": "currentAllowance",
          "type": "uint256"
        },
        {
          "internalType": "uint256",
          "name": "requestedDecrease",
          "type": "uint256"
        }
      ],
      "name": "SafeERC20FailedDecreaseAllowance",
      "type": "error"
    },
    {
      "inputs": [
        {
          "internalType": "address",
          "name": "token",
          "type": "address"
        }
      ],
      "name": "SafeERC20FailedOperation",
      "type": "error"
    },
    {
      "anonymous": false,
      "inputs": [
        {
          "indexed": false,
          "internalType": "address",
          "name": "_token",
          "type": "address"
        }
      ],
      "name": "AddAcceptedToken",
      "type": "event"
    },
    {
      "anonymous": false,
      "inputs": [
        {
          "indexed": false,
          "internalType": "address",
          "name": "_token",
          "type": "address"
        }
      ],
      "name": "AddDepositAllowedToken",
      "type": "event"
    },
    {
      "anonymous": false,
      "inputs": [
        {
          "indexed": false,
          "internalType": "address",
          "name": "_token",
          "type": "address"
        },
        {
          "indexed": false,
          "internalType": "uint256",
          "name": "_amount",
          "type": "uint256"
        }
      ],
      "name": "AddDepositRequest",
      "type": "event"
    },
    {
      "anonymous": false,
      "inputs": [
        {
          "indexed": false,
          "internalType": "uint8",
          "name": "_pluginId",
          "type": "uint8"
        },
        {
          "indexed": false,
          "internalType": "address",
          "name": "_pluginAddress",
          "type": "address"
        }
      ],
      "name": "AddPlugin",
      "type": "event"
    },
    {
      "anonymous": false,
      "inputs": [
        {
          "indexed": false,
          "internalType": "uint256",
          "name": "_lpAmount",
          "type": "uint256"
        },
        {
          "indexed": false,
          "internalType": "uint8",
          "name": "_pluginId",
          "type": "uint8"
        },
        {
          "indexed": false,
          "internalType": "uint8",
          "name": "_poolId",
          "type": "uint8"
        },
        {
          "indexed": false,
          "internalType": "address",
          "name": "_receiver",
          "type": "address"
        }
      ],
      "name": "AddWithdrawalRequest",
      "type": "event"
    },
    {
      "anonymous": false,
      "inputs": [
        {
          "indexed": false,
          "internalType": "address",
          "name": "_oldAdmin",
          "type": "address"
        },
        {
          "indexed": false,
          "internalType": "address",
          "name": "_newAdmin",
          "type": "address"
        }
      ],
      "name": "AdminUpdated",
      "type": "event"
    },
    {
      "anonymous": false,
      "inputs": [
        {
          "indexed": true,
          "internalType": "address",
          "name": "owner",
          "type": "address"
        },
        {
          "indexed": true,
          "internalType": "address",
          "name": "spender",
          "type": "address"
        },
        {
          "indexed": false,
          "internalType": "uint256",
          "name": "value",
          "type": "uint256"
        }
      ],
      "name": "Approval",
      "type": "event"
    },
    {
      "anonymous": false,
      "inputs": [
        {
          "indexed": false,
          "internalType": "uint8",
          "name": "_pluginId",
          "type": "uint8"
        },
        {
          "indexed": false,
          "internalType": "address[]",
          "name": "_tokens",
          "type": "address[]"
        },
        {
          "indexed": false,
          "internalType": "uint256[]",
          "name": "_amounts",
          "type": "uint256[]"
        }
      ],
      "name": "ApproveTokens",
      "type": "event"
    },
    {
      "anonymous": false,
      "inputs": [
        {
          "indexed": false,
          "internalType": "uint8",
          "name": "_pluginId",
          "type": "uint8"
        },
        {
          "indexed": false,
          "internalType": "enum IPlugin.ActionType",
          "name": "_actionType",
          "type": "uint8"
        },
        {
          "indexed": false,
          "internalType": "bytes",
          "name": "_payload",
          "type": "bytes"
        }
      ],
      "name": "Execute",
      "type": "event"
    },
    {
      "anonymous": false,
      "inputs": [
        {
          "indexed": false,
          "internalType": "address",
          "name": "_oldMaster",
          "type": "address"
        },
        {
          "indexed": false,
          "internalType": "address",
          "name": "_newMaster",
          "type": "address"
        }
      ],
      "name": "MasterUpdated",
      "type": "event"
    },
    {
      "anonymous": false,
      "inputs": [
        {
          "indexed": true,
          "internalType": "address",
          "name": "previousOwner",
          "type": "address"
        },
        {
          "indexed": true,
          "internalType": "address",
          "name": "newOwner",
          "type": "address"
        }
      ],
      "name": "OwnershipTransferred",
      "type": "event"
    },
    {
      "anonymous": false,
      "inputs": [
        {
          "indexed": false,
          "internalType": "address",
          "name": "account",
          "type": "address"
        }
      ],
      "name": "Paused",
      "type": "event"
    },
    {
      "anonymous": false,
      "inputs": [
        {
          "indexed": false,
          "internalType": "address",
          "name": "_token",
          "type": "address"
        }
      ],
      "name": "RemoveAcceptedToken",
      "type": "event"
    },
    {
      "anonymous": false,
      "inputs": [
        {
          "indexed": false,
          "internalType": "address",
          "name": "_token",
          "type": "address"
        }
      ],
      "name": "RemoveDepositAllowedToken",
      "type": "event"
    },
    {
      "anonymous": false,
      "inputs": [
        {
          "indexed": false,
          "internalType": "uint8",
          "name": "_pluginId",
          "type": "uint8"
        }
      ],
      "name": "RemovePlugin",
      "type": "event"
    },
    {
      "anonymous": false,
      "inputs": [
        {
          "indexed": false,
          "internalType": "uint8",
          "name": "_pluginId",
          "type": "uint8"
        },
        {
          "indexed": false,
          "internalType": "uint8",
          "name": "_poolId",
          "type": "uint8"
        }
      ],
      "name": "SelectPluginAndPool",
      "type": "event"
    },
    {
      "anonymous": false,
      "inputs": [
        {
          "indexed": false,
          "internalType": "uint256",
          "name": "_depositMinExecFee",
          "type": "uint256"
        },
        {
          "indexed": false,
          "internalType": "uint256",
          "name": "_withdrawMinExecFee",
          "type": "uint256"
        }
      ],
      "name": "SetExecutionFee",
      "type": "event"
    },
    {
      "anonymous": false,
      "inputs": [
        {
          "indexed": false,
          "internalType": "address",
          "name": "_receiver",
          "type": "address"
        },
        {
          "indexed": false,
          "internalType": "uint256",
          "name": "_chaindId",
          "type": "uint256"
        },
        {
          "indexed": false,
          "internalType": "bool",
          "name": "_status",
          "type": "bool"
        }
      ],
      "name": "SetLifiReceiverWhiteList",
      "type": "event"
    },
    {
      "anonymous": false,
      "inputs": [
        {
          "indexed": false,
          "internalType": "uint256",
          "name": "_protocolFeePercentage",
          "type": "uint256"
        }
      ],
      "name": "SetProtocolFeePercentage",
      "type": "event"
    },
    {
      "anonymous": false,
      "inputs": [
        {
          "indexed": false,
          "internalType": "address payable",
          "name": "treasury",
          "type": "address"
        }
      ],
      "name": "SetTreasury",
      "type": "event"
    },
    {
      "anonymous": false,
      "inputs": [
        {
          "indexed": false,
          "internalType": "address[]",
          "name": "_vaultLockers",
          "type": "address[]"
        }
      ],
      "name": "SetVaultLockers",
      "type": "event"
    },
    {
      "anonymous": false,
      "inputs": [
        {
          "indexed": false,
          "internalType": "address[]",
          "name": "_vaultManagers",
          "type": "address[]"
        }
      ],
      "name": "SetVaultManagers",
      "type": "event"
    },
    {
      "anonymous": false,
      "inputs": [
        {
          "indexed": false,
          "internalType": "uint8",
          "name": "_selectedPluginId",
          "type": "uint8"
        },
        {
          "indexed": false,
          "internalType": "uint8",
          "name": "_selectedPoolId",
          "type": "uint8"
        },
        {
          "indexed": false,
          "internalType": "address",
          "name": "_token",
          "type": "address"
        },
        {
          "indexed": false,
          "internalType": "uint256",
          "name": "_tokenAmount",
          "type": "uint256"
        }
      ],
      "name": "StakeToSelectedPool",
      "type": "event"
    },
    {
      "anonymous": false,
      "inputs": [
        {
          "indexed": false,
          "internalType": "address",
          "name": "_oldTokenPriceConsumer",
          "type": "address"
        },
        {
          "indexed": false,
          "internalType": "address",
          "name": "_newTokenPriceConsumer",
          "type": "address"
        }
      ],
      "name": "TokenPriceConsumerUpdated",
      "type": "event"
    },
    {
      "anonymous": false,
      "inputs": [
        {
          "indexed": true,
          "internalType": "address",
          "name": "from",
          "type": "address"
        },
        {
          "indexed": true,
          "internalType": "address",
          "name": "to",
          "type": "address"
        },
        {
          "indexed": false,
          "internalType": "uint256",
          "name": "value",
          "type": "uint256"
        }
      ],
      "name": "Transfer",
      "type": "event"
    },
    {
      "anonymous": false,
      "inputs": [
        {
          "indexed": false,
          "internalType": "address",
          "name": "account",
          "type": "address"
        }
      ],
      "name": "Unpaused",
      "type": "event"
    },
    {
      "anonymous": false,
      "inputs": [
        {
          "indexed": false,
          "internalType": "uint256",
          "name": "_previousRate",
          "type": "uint256"
        },
        {
          "indexed": false,
          "internalType": "uint256",
          "name": "_lpRate",
          "type": "uint256"
        }
      ],
      "name": "UpdateLiquidityProviderRate",
      "type": "event"
    },
    {
      "anonymous": false,
      "inputs": [
        {
          "indexed": false,
          "internalType": "address",
          "name": "_token",
          "type": "address"
        },
        {
          "indexed": false,
          "internalType": "uint256",
          "name": "_amount",
          "type": "uint256"
        }
      ],
      "name": "WithdrawProtocolFee",
      "type": "event"
    },
    {
      "stateMutability": "payable",
      "type": "fallback"
    },
    {
      "inputs": [],
      "name": "ASSET_DECIMALS",
      "outputs": [
        {
          "internalType": "uint256",
          "name": "",
          "type": "uint256"
        }
      ],
      "stateMutability": "view",
      "type": "function"
    },
    {
      "inputs": [],
      "name": "BP_DENOMINATOR",
      "outputs": [
        {
          "internalType": "uint256",
          "name": "",
          "type": "uint256"
        }
      ],
      "stateMutability": "view",
      "type": "function"
    },
    {
      "inputs": [],
      "name": "LIFI_CONTRACT",
      "outputs": [
        {
          "internalType": "address",
          "name": "",
          "type": "address"
        }
      ],
      "stateMutability": "view",
      "type": "function"
    },
    {
      "inputs": [],
      "name": "MAX_FEE",
      "outputs": [
        {
          "internalType": "uint256",
          "name": "",
          "type": "uint256"
        }
      ],
      "stateMutability": "view",
      "type": "function"
    },
    {
      "inputs": [],
      "name": "MOZAIC_DECIMALS",
      "outputs": [
        {
          "internalType": "uint256",
          "name": "",
          "type": "uint256"
        }
      ],
      "stateMutability": "view",
      "type": "function"
    },
    {
      "inputs": [
        {
          "internalType": "address",
          "name": "",
          "type": "address"
        }
      ],
      "name": "acceptedTokenMap",
      "outputs": [
        {
          "internalType": "bool",
          "name": "",
          "type": "bool"
        }
      ],
      "stateMutability": "view",
      "type": "function"
    },
    {
      "inputs": [
        {
          "internalType": "uint256",
          "name": "",
          "type": "uint256"
        }
      ],
      "name": "acceptedTokens",
      "outputs": [
        {
          "internalType": "address",
          "name": "",
          "type": "address"
        }
      ],
      "stateMutability": "view",
      "type": "function"
    },
    {
      "inputs": [
        {
          "internalType": "address",
          "name": "_token",
          "type": "address"
        }
      ],
      "name": "addAcceptedToken",
      "outputs": [],
      "stateMutability": "nonpayable",
      "type": "function"
    },
    {
      "inputs": [
        {
          "internalType": "address[]",
          "name": "_tokens",
          "type": "address[]"
        }
      ],
      "name": "addAcceptedTokens",
      "outputs": [],
      "stateMutability": "nonpayable",
      "type": "function"
    },
    {
      "inputs": [
        {
          "internalType": "address",
          "name": "_token",
          "type": "address"
        }
      ],
      "name": "addDepositAllowedToken",
      "outputs": [],
      "stateMutability": "nonpayable",
      "type": "function"
    },
    {
      "inputs": [
        {
          "internalType": "address[]",
          "name": "_tokens",
          "type": "address[]"
        }
      ],
      "name": "addDepositAllowedTokens",
      "outputs": [],
      "stateMutability": "nonpayable",
      "type": "function"
    },
    {
      "inputs": [
        {
          "internalType": "address",
          "name": "_token",
          "type": "address"
        },
        {
          "internalType": "uint256",
          "name": "_tokenAmount",
          "type": "uint256"
        },
        {
          "internalType": "address",
          "name": "_receiver",
          "type": "address"
        },
        {
          "internalType": "bytes",
          "name": "_payload",
          "type": "bytes"
        }
      ],
      "name": "addDepositRequest",
      "outputs": [],
      "stateMutability": "payable",
      "type": "function"
    },
    {
      "inputs": [
        {
          "internalType": "uint8",
          "name": "_pluginId",
          "type": "uint8"
        },
        {
          "internalType": "address",
          "name": "_pluginAddress",
          "type": "address"
        }
      ],
      "name": "addPlugin",
      "outputs": [],
      "stateMutability": "nonpayable",
      "type": "function"
    },
    {
      "inputs": [
        {
          "internalType": "uint256",
          "name": "_lpAmount",
          "type": "uint256"
        },
        {
          "internalType": "uint8",
          "name": "_pluginId",
          "type": "uint8"
        },
        {
          "internalType": "uint8",
          "name": "_poolId",
          "type": "uint8"
        },
        {
          "internalType": "address",
          "name": "_receiver",
          "type": "address"
        },
        {
          "internalType": "bytes",
          "name": "payload",
          "type": "bytes"
        }
      ],
      "name": "addWithdrawalRequest",
      "outputs": [],
      "stateMutability": "payable",
      "type": "function"
    },
    {
      "inputs": [],
      "name": "admin",
      "outputs": [
        {
          "internalType": "address",
          "name": "",
          "type": "address"
        }
      ],
      "stateMutability": "view",
      "type": "function"
    },
    {
      "inputs": [
        {
          "internalType": "address",
          "name": "owner",
          "type": "address"
        },
        {
          "internalType": "address",
          "name": "spender",
          "type": "address"
        }
      ],
      "name": "allowance",
      "outputs": [
        {
          "internalType": "uint256",
          "name": "",
          "type": "uint256"
        }
      ],
      "stateMutability": "view",
      "type": "function"
    },
    {
      "inputs": [
        {
          "internalType": "address",
          "name": "spender",
          "type": "address"
        },
        {
          "internalType": "uint256",
          "name": "value",
          "type": "uint256"
        }
      ],
      "name": "approve",
      "outputs": [
        {
          "internalType": "bool",
          "name": "",
          "type": "bool"
        }
      ],
      "stateMutability": "nonpayable",
      "type": "function"
    },
    {
      "inputs": [
        {
          "internalType": "uint8",
          "name": "_pluginId",
          "type": "uint8"
        },
        {
          "internalType": "address[]",
          "name": "_tokens",
          "type": "address[]"
        },
        {
          "internalType": "uint256[]",
          "name": "_amounts",
          "type": "uint256[]"
        }
      ],
      "name": "approveTokens",
      "outputs": [],
      "stateMutability": "nonpayable",
      "type": "function"
    },
    {
      "inputs": [
        {
          "internalType": "address",
          "name": "account",
          "type": "address"
        }
      ],
      "name": "balanceOf",
      "outputs": [
        {
          "internalType": "uint256",
          "name": "",
          "type": "uint256"
        }
      ],
      "stateMutability": "view",
      "type": "function"
    },
    {
      "inputs": [
        {
          "internalType": "address",
          "name": "_srcToken",
          "type": "address"
        },
        {
          "internalType": "uint256",
          "name": "_amount",
          "type": "uint256"
        },
        {
          "internalType": "uint256",
          "name": "_value",
          "type": "uint256"
        },
        {
          "internalType": "bool",
          "name": "_bridge",
          "type": "bool"
        },
        {
          "internalType": "bytes",
          "name": "_data",
          "type": "bytes"
        }
      ],
      "name": "bridgeViaLifi",
      "outputs": [],
      "stateMutability": "payable",
      "type": "function"
    },
    {
      "inputs": [
        {
          "internalType": "uint256",
          "name": "_lpAmount",
          "type": "uint256"
        }
      ],
      "name": "burnLP",
      "outputs": [],
      "stateMutability": "nonpayable",
      "type": "function"
    },
    {
      "inputs": [
        {
          "internalType": "address",
          "name": "_tokenAddress",
          "type": "address"
        },
        {
          "internalType": "uint256",
          "name": "_tokenValueUsd",
          "type": "uint256"
        }
      ],
      "name": "calculateTokenAmountFromUsd",
      "outputs": [
        {
          "internalType": "uint256",
          "name": "",
          "type": "uint256"
        }
      ],
      "stateMutability": "view",
      "type": "function"
    },
    {
      "inputs": [
        {
          "internalType": "address",
          "name": "_tokenAddress",
          "type": "address"
        },
        {
          "internalType": "uint256",
          "name": "_tokenAmount",
          "type": "uint256"
        }
      ],
      "name": "calculateTokenValueInUsd",
      "outputs": [
        {
          "internalType": "uint256",
          "name": "",
          "type": "uint256"
        }
      ],
      "stateMutability": "view",
      "type": "function"
    },
    {
      "inputs": [
        {
          "internalType": "uint256",
          "name": "_amount",
          "type": "uint256"
        }
      ],
      "name": "convertAssetToLP",
      "outputs": [
        {
          "internalType": "uint256",
          "name": "",
          "type": "uint256"
        }
      ],
      "stateMutability": "view",
      "type": "function"
    },
    {
      "inputs": [
        {
          "internalType": "uint256",
          "name": "_amount",
          "type": "uint256"
        },
        {
          "internalType": "uint256",
          "name": "_from",
          "type": "uint256"
        },
        {
          "internalType": "uint256",
          "name": "_to",
          "type": "uint256"
        }
      ],
      "name": "convertDecimals",
      "outputs": [
        {
          "internalType": "uint256",
          "name": "",
          "type": "uint256"
        }
      ],
      "stateMutability": "pure",
      "type": "function"
    },
    {
      "inputs": [
        {
          "internalType": "uint256",
          "name": "_amount",
          "type": "uint256"
        }
      ],
      "name": "convertLPToAsset",
      "outputs": [
        {
          "internalType": "uint256",
          "name": "",
          "type": "uint256"
        }
      ],
      "stateMutability": "view",
      "type": "function"
    },
    {
      "inputs": [],
      "name": "decimals",
      "outputs": [
        {
          "internalType": "uint8",
          "name": "",
          "type": "uint8"
        }
      ],
      "stateMutability": "view",
      "type": "function"
    },
    {
      "inputs": [
        {
          "internalType": "address",
          "name": "",
          "type": "address"
        }
      ],
      "name": "depositAllowedTokenMap",
      "outputs": [
        {
          "internalType": "bool",
          "name": "",
          "type": "bool"
        }
      ],
      "stateMutability": "view",
      "type": "function"
    },
    {
      "inputs": [
        {
          "internalType": "uint256",
          "name": "",
          "type": "uint256"
        }
      ],
      "name": "depositAllowedTokens",
      "outputs": [
        {
          "internalType": "address",
          "name": "",
          "type": "address"
        }
      ],
      "stateMutability": "view",
      "type": "function"
    },
    {
      "inputs": [],
      "name": "depositMinExecFee",
      "outputs": [
        {
          "internalType": "uint256",
          "name": "",
          "type": "uint256"
        }
      ],
      "stateMutability": "view",
      "type": "function"
    },
    {
      "inputs": [
        {
          "internalType": "uint8",
          "name": "_pluginId",
          "type": "uint8"
        },
        {
          "internalType": "enum IPlugin.ActionType",
          "name": "_actionType",
          "type": "uint8"
        },
        {
          "internalType": "bytes",
          "name": "_payload",
          "type": "bytes"
        }
      ],
      "name": "execute",
      "outputs": [],
      "stateMutability": "nonpayable",
      "type": "function"
    },
    {
      "inputs": [],
      "name": "getAcceptedTokens",
      "outputs": [
        {
          "internalType": "address[]",
          "name": "",
          "type": "address[]"
        }
      ],
      "stateMutability": "view",
      "type": "function"
    },
    {
      "inputs": [],
      "name": "getBalance",
      "outputs": [
        {
          "internalType": "uint256",
          "name": "",
          "type": "uint256"
        }
      ],
      "stateMutability": "view",
      "type": "function"
    },
    {
      "inputs": [],
      "name": "getCurrentLiquidityProviderRate",
      "outputs": [
        {
          "internalType": "uint256",
          "name": "",
          "type": "uint256"
        }
      ],
      "stateMutability": "view",
      "type": "function"
    },
    {
      "inputs": [],
      "name": "getDepositAllowedTokens",
      "outputs": [
        {
          "internalType": "address[]",
          "name": "",
          "type": "address[]"
        }
      ],
      "stateMutability": "view",
      "type": "function"
    },
    {
      "inputs": [
        {
          "internalType": "uint8",
          "name": "_pluginId",
          "type": "uint8"
        }
      ],
      "name": "getPlugin",
      "outputs": [
        {
          "components": [
            {
              "internalType": "address",
              "name": "pluginAddress",
              "type": "address"
            },
            {
              "internalType": "uint8",
              "name": "pluginId",
              "type": "uint8"
            }
          ],
          "internalType": "struct Vault.Plugin",
          "name": "",
          "type": "tuple"
        }
      ],
      "stateMutability": "view",
      "type": "function"
    },
    {
      "inputs": [],
      "name": "getPlugins",
      "outputs": [
        {
          "components": [
            {
              "internalType": "address",
              "name": "pluginAddress",
              "type": "address"
            },
            {
              "internalType": "uint8",
              "name": "pluginId",
              "type": "uint8"
            }
          ],
          "internalType": "struct Vault.Plugin[]",
          "name": "",
          "type": "tuple[]"
        }
      ],
      "stateMutability": "view",
      "type": "function"
    },
    {
      "inputs": [],
      "name": "getPluginsCount",
      "outputs": [
        {
          "internalType": "uint256",
          "name": "",
          "type": "uint256"
        }
      ],
      "stateMutability": "view",
      "type": "function"
    },
    {
      "inputs": [
        {
          "internalType": "uint8",
          "name": "_pluginId",
          "type": "uint8"
        },
        {
          "internalType": "uint8",
          "name": "_poolId",
          "type": "uint8"
        }
      ],
      "name": "getPoolTokenInfo",
      "outputs": [
        {
          "internalType": "address",
          "name": "token",
          "type": "address"
        },
        {
          "internalType": "uint8",
          "name": "decimal",
          "type": "uint8"
        },
        {
          "internalType": "uint256",
          "name": "balance",
          "type": "uint256"
        }
      ],
      "stateMutability": "view",
      "type": "function"
    },
    {
      "inputs": [
        {
          "internalType": "uint8",
          "name": "_pluginId",
          "type": "uint8"
        },
        {
          "internalType": "uint8",
          "name": "_poolId",
          "type": "uint8"
        }
      ],
      "name": "getPoolTokenPrice",
      "outputs": [
        {
          "internalType": "uint256",
          "name": "",
          "type": "uint256"
        }
      ],
      "stateMutability": "view",
      "type": "function"
    },
    {
      "inputs": [
        {
          "internalType": "uint8",
          "name": "_pluginId",
          "type": "uint8"
        },
        {
          "internalType": "uint8",
          "name": "_poolId",
          "type": "uint8"
        }
      ],
      "name": "getTokensByPluginAndPoolId",
      "outputs": [
        {
          "internalType": "address[]",
          "name": "",
          "type": "address[]"
        }
      ],
      "stateMutability": "view",
      "type": "function"
    },
    {
      "inputs": [],
      "name": "getVaultStatus",
      "outputs": [
        {
          "internalType": "bool",
          "name": "",
          "type": "bool"
        }
      ],
      "stateMutability": "view",
      "type": "function"
    },
    {
      "inputs": [
        {
          "internalType": "address",
          "name": "_token",
          "type": "address"
        }
      ],
      "name": "isAcceptedToken",
      "outputs": [
        {
          "internalType": "bool",
          "name": "",
          "type": "bool"
        }
      ],
      "stateMutability": "view",
      "type": "function"
    },
    {
      "inputs": [
        {
          "internalType": "address",
          "name": "_token",
          "type": "address"
        }
      ],
      "name": "isDepositAllowedToken",
      "outputs": [
        {
          "internalType": "bool",
          "name": "",
          "type": "bool"
        }
      ],
      "stateMutability": "view",
      "type": "function"
    },
    {
      "inputs": [
        {
          "internalType": "address",
          "name": "",
          "type": "address"
        }
      ],
      "name": "lifiReceiverWhiteList",
      "outputs": [
        {
          "internalType": "uint256",
          "name": "chainId",
          "type": "uint256"
        },
        {
          "internalType": "bool",
          "name": "isWhiteListed",
          "type": "bool"
        }
      ],
      "stateMutability": "view",
      "type": "function"
    },
    {
      "inputs": [],
      "name": "lpRate",
      "outputs": [
        {
          "internalType": "uint256",
          "name": "",
          "type": "uint256"
        }
      ],
      "stateMutability": "view",
      "type": "function"
    },
    {
      "inputs": [],
      "name": "masterContract",
      "outputs": [
        {
          "internalType": "address",
          "name": "",
          "type": "address"
        }
      ],
      "stateMutability": "view",
      "type": "function"
    },
    {
      "inputs": [],
      "name": "name",
      "outputs": [
        {
          "internalType": "string",
          "name": "",
          "type": "string"
        }
      ],
      "stateMutability": "view",
      "type": "function"
    },
    {
      "inputs": [],
      "name": "owner",
      "outputs": [
        {
          "internalType": "address",
          "name": "",
          "type": "address"
        }
      ],
      "stateMutability": "view",
      "type": "function"
    },
    {
      "inputs": [],
      "name": "pause",
      "outputs": [],
      "stateMutability": "nonpayable",
      "type": "function"
    },
    {
      "inputs": [],
      "name": "paused",
      "outputs": [
        {
          "internalType": "bool",
          "name": "",
          "type": "bool"
        }
      ],
      "stateMutability": "view",
      "type": "function"
    },
    {
      "inputs": [
        {
          "internalType": "uint8",
          "name": "",
          "type": "uint8"
        }
      ],
      "name": "pluginIdToIndex",
      "outputs": [
        {
          "internalType": "uint256",
          "name": "",
          "type": "uint256"
        }
      ],
      "stateMutability": "view",
      "type": "function"
    },
    {
      "inputs": [
        {
          "internalType": "uint256",
          "name": "",
          "type": "uint256"
        }
      ],
      "name": "plugins",
      "outputs": [
        {
          "internalType": "address",
          "name": "pluginAddress",
          "type": "address"
        },
        {
          "internalType": "uint8",
          "name": "pluginId",
          "type": "uint8"
        }
      ],
      "stateMutability": "view",
      "type": "function"
    },
    {
      "inputs": [],
      "name": "protocolFeeInVault",
      "outputs": [
        {
          "internalType": "uint256",
          "name": "",
          "type": "uint256"
        }
      ],
      "stateMutability": "view",
      "type": "function"
    },
    {
      "inputs": [],
      "name": "protocolFeePercentage",
      "outputs": [
        {
          "internalType": "uint256",
          "name": "",
          "type": "uint256"
        }
      ],
      "stateMutability": "view",
      "type": "function"
    },
    {
      "inputs": [
        {
          "internalType": "address",
          "name": "_token",
          "type": "address"
        }
      ],
      "name": "removeAcceptedToken",
      "outputs": [],
      "stateMutability": "nonpayable",
      "type": "function"
    },
    {
      "inputs": [
        {
          "internalType": "address",
          "name": "_token",
          "type": "address"
        }
      ],
      "name": "removeDepositAllowedToken",
      "outputs": [],
      "stateMutability": "nonpayable",
      "type": "function"
    },
    {
      "inputs": [
        {
          "internalType": "uint8",
          "name": "_pluginId",
          "type": "uint8"
        }
      ],
      "name": "removePlugin",
      "outputs": [],
      "stateMutability": "nonpayable",
      "type": "function"
    },
    {
      "inputs": [],
      "name": "renounceOwnership",
      "outputs": [],
      "stateMutability": "nonpayable",
      "type": "function"
    },
    {
      "inputs": [
        {
          "internalType": "uint8",
          "name": "_pluginId",
          "type": "uint8"
        },
        {
          "internalType": "uint8",
          "name": "_poolId",
          "type": "uint8"
        }
      ],
      "name": "selectPluginAndPool",
      "outputs": [],
      "stateMutability": "nonpayable",
      "type": "function"
    },
    {
      "inputs": [],
      "name": "selectedPluginId",
      "outputs": [
        {
          "internalType": "uint8",
          "name": "",
          "type": "uint8"
        }
      ],
      "stateMutability": "view",
      "type": "function"
    },
    {
      "inputs": [],
      "name": "selectedPoolId",
      "outputs": [
        {
          "internalType": "uint8",
          "name": "",
          "type": "uint8"
        }
      ],
      "stateMutability": "view",
      "type": "function"
    },
    {
      "inputs": [
        {
          "internalType": "address",
          "name": "_newAdmin",
          "type": "address"
        }
      ],
      "name": "setAdmin",
      "outputs": [],
      "stateMutability": "nonpayable",
      "type": "function"
    },
    {
      "inputs": [
        {
          "internalType": "uint256",
          "name": "_depositMinExecFee",
          "type": "uint256"
        },
        {
          "internalType": "uint256",
          "name": "_withdrawMinExecFee",
          "type": "uint256"
        }
      ],
      "name": "setExecutionFee",
      "outputs": [],
      "stateMutability": "nonpayable",
      "type": "function"
    },
    {
      "inputs": [
        {
          "internalType": "address",
          "name": "_receiver",
          "type": "address"
        },
        {
          "internalType": "uint256",
          "name": "_chaindId",
          "type": "uint256"
        },
        {
          "internalType": "bool",
          "name": "_status",
          "type": "bool"
        }
      ],
      "name": "setLifiReceiverWhiteList",
      "outputs": [],
      "stateMutability": "nonpayable",
      "type": "function"
    },
    {
      "inputs": [
        {
          "internalType": "address",
          "name": "_newMaster",
          "type": "address"
        }
      ],
      "name": "setMaster",
      "outputs": [],
      "stateMutability": "nonpayable",
      "type": "function"
    },
    {
      "inputs": [
        {
          "internalType": "uint256",
          "name": "_protocolFeePercentage",
          "type": "uint256"
        }
      ],
      "name": "setProtocolFeePercentage",
      "outputs": [],
      "stateMutability": "nonpayable",
      "type": "function"
    },
    {
      "inputs": [
        {
          "internalType": "address",
          "name": "_tokenPriceConsumer",
          "type": "address"
        }
      ],
      "name": "setTokenPriceConsumer",
      "outputs": [],
      "stateMutability": "nonpayable",
      "type": "function"
    },
    {
      "inputs": [
        {
          "internalType": "address payable",
          "name": "_treasury",
          "type": "address"
        }
      ],
      "name": "setTreasury",
      "outputs": [],
      "stateMutability": "nonpayable",
      "type": "function"
    },
    {
      "inputs": [
        {
          "internalType": "address[]",
          "name": "_vaultLockers",
          "type": "address[]"
        }
      ],
      "name": "setVaultLockers",
      "outputs": [],
      "stateMutability": "nonpayable",
      "type": "function"
    },
    {
      "inputs": [
        {
          "internalType": "address[]",
          "name": "_vaultManagers",
          "type": "address[]"
        }
      ],
      "name": "setVaultManagers",
      "outputs": [],
      "stateMutability": "nonpayable",
      "type": "function"
    },
    {
      "inputs": [],
      "name": "symbol",
      "outputs": [
        {
          "internalType": "string",
          "name": "",
          "type": "string"
        }
      ],
      "stateMutability": "view",
      "type": "function"
    },
    {
      "inputs": [],
      "name": "tokenPriceConsumer",
      "outputs": [
        {
          "internalType": "address",
          "name": "",
          "type": "address"
        }
      ],
      "stateMutability": "view",
      "type": "function"
    },
    {
      "inputs": [],
      "name": "totalAssetInUsd",
      "outputs": [
        {
          "internalType": "uint256",
          "name": "_totalAsset",
          "type": "uint256"
        }
      ],
      "stateMutability": "view",
      "type": "function"
    },
    {
      "inputs": [],
      "name": "totalSupply",
      "outputs": [
        {
          "internalType": "uint256",
          "name": "",
          "type": "uint256"
        }
      ],
      "stateMutability": "view",
      "type": "function"
    },
    {
      "inputs": [
        {
          "internalType": "address",
          "name": "to",
          "type": "address"
        },
        {
          "internalType": "uint256",
          "name": "value",
          "type": "uint256"
        }
      ],
      "name": "transfer",
      "outputs": [
        {
          "internalType": "bool",
          "name": "",
          "type": "bool"
        }
      ],
      "stateMutability": "nonpayable",
      "type": "function"
    },
    {
      "inputs": [
        {
          "internalType": "uint8",
          "name": "_pluginId",
          "type": "uint8"
        },
        {
          "internalType": "uint256",
          "name": "_amount",
          "type": "uint256"
        }
      ],
      "name": "transferExecutionFee",
      "outputs": [],
      "stateMutability": "nonpayable",
      "type": "function"
    },
    {
      "inputs": [
        {
          "internalType": "address",
          "name": "from",
          "type": "address"
        },
        {
          "internalType": "address",
          "name": "to",
          "type": "address"
        },
        {
          "internalType": "uint256",
          "name": "value",
          "type": "uint256"
        }
      ],
      "name": "transferFrom",
      "outputs": [
        {
          "internalType": "bool",
          "name": "",
          "type": "bool"
        }
      ],
      "stateMutability": "nonpayable",
      "type": "function"
    },
    {
      "inputs": [
        {
          "internalType": "address",
          "name": "_account",
          "type": "address"
        },
        {
          "internalType": "uint256",
          "name": "_lpAmount",
          "type": "uint256"
        }
      ],
      "name": "transferLP",
      "outputs": [],
      "stateMutability": "nonpayable",
      "type": "function"
    },
    {
      "inputs": [
        {
          "internalType": "address",
          "name": "newOwner",
          "type": "address"
        }
      ],
      "name": "transferOwnership",
      "outputs": [],
      "stateMutability": "nonpayable",
      "type": "function"
    },
    {
      "inputs": [],
      "name": "treasury",
      "outputs": [
        {
          "internalType": "address payable",
          "name": "",
          "type": "address"
        }
      ],
      "stateMutability": "view",
      "type": "function"
    },
    {
      "inputs": [],
      "name": "unpause",
      "outputs": [],
      "stateMutability": "nonpayable",
      "type": "function"
    },
    {
      "inputs": [
        {
          "internalType": "uint256",
          "name": "",
          "type": "uint256"
        }
      ],
      "name": "vaultLockers",
      "outputs": [
        {
          "internalType": "address",
          "name": "",
          "type": "address"
        }
      ],
      "stateMutability": "view",
      "type": "function"
    },
    {
      "inputs": [
        {
          "internalType": "uint256",
          "name": "",
          "type": "uint256"
        }
      ],
      "name": "vaultManagers",
      "outputs": [
        {
          "internalType": "address",
          "name": "",
          "type": "address"
        }
      ],
      "stateMutability": "view",
      "type": "function"
    },
    {
      "inputs": [],
      "name": "withdrawMinExecFee",
      "outputs": [
        {
          "internalType": "uint256",
          "name": "",
          "type": "uint256"
        }
      ],
      "stateMutability": "view",
      "type": "function"
    },
    {
      "inputs": [
        {
          "internalType": "address",
          "name": "_token",
          "type": "address"
        }
      ],
      "name": "withdrawProtocolFee",
      "outputs": [],
      "stateMutability": "nonpayable",
      "type": "function"
    },
    {
      "stateMutability": "payable",
      "type": "receive"
    }
  ],
  "transactionHash": "0x1b12438809ebf3327f041a0c4b98311ba995f55e45bb4e269eb1b43922d53bd3",
  "args": [
    "0x81bBE16DFd78E72a6564bAfeE5AC0700eEF2e3BA",
    "0xa3D6360C288551600B20A7992860766F9754e477",
    "0x0a52Cd9F239e3C1ea2Ab9D9B554dC9c08985dd39",
    "0xa3D6360C288551600B20A7992860766F9754e477"
  ],
  "numDeployments": 1,
  "solcInputHash": "76be9392b1b05dd5cfe73355ab761edf",
  "bytecode": "0x6080604052670de0b6b3a76400006015553480156200001d57600080fd5b50604051620063e1380380620063e1833981016040819052620000409162000338565b604080518082018252601181527004d6f7a6169632054686573657573204c5607c1b6020808301919091528251808401909352600a83526904d4f5a2d5448452d4c560b41b90830152903380620000b257604051631e4fbdf760e01b8152600060048201526024015b60405180910390fd5b620000bd81620002cf565b506004620000cc838262000447565b506005620000db828262000447565b50506006805460ff191690555060016007556001600160a01b038416620001345760405162461bcd60e51b81526020600482015260166024820152600080516020620063c18339815191526044820152606401620000a9565b6001600160a01b0383166200017b5760405162461bcd60e51b81526020600482015260166024820152600080516020620063c18339815191526044820152606401620000a9565b6001600160a01b038216620001c25760405162461bcd60e51b81526020600482015260166024820152600080516020620063c18339815191526044820152606401620000a9565b6001600160a01b038116620002095760405162461bcd60e51b81526020600482015260166024820152600080516020620063c18339815191526044820152606401620000a9565b600880546001600160a01b03199081166001600160a01b0396871617909155600b8054821693861693909317909255600a80548316918516919091178155600980549092169284169290921790556040805180820182524680825260016020808401828152306000908152601a808452878220965187559151958401805460ff1990811697151597909717905586518088018852948552848301848152975490981688529052929094209351845591519201805490911691151591909117905562000513565b600080546001600160a01b038381166001600160a01b0319831681178455604051919092169283917f8be0079c531659141344cd1fd0a4f28419497f9722a3daafe3b4186f6b6457e09190a35050565b6001600160a01b03811681146200033557600080fd5b50565b600080600080608085870312156200034f57600080fd5b84516200035c816200031f565b60208601519094506200036f816200031f565b604086015190935062000382816200031f565b606086015190925062000395816200031f565b939692955090935050565b634e487b7160e01b600052604160045260246000fd5b600181811c90821680620003cb57607f821691505b602082108103620003ec57634e487b7160e01b600052602260045260246000fd5b50919050565b601f82111562000442576000816000526020600020601f850160051c810160208610156200041d5750805b601f850160051c820191505b818110156200043e5782815560010162000429565b5050505b505050565b81516001600160401b03811115620004635762000463620003a0565b6200047b81620004748454620003b6565b84620003f2565b602080601f831160018114620004b357600084156200049a5750858301515b600019600386901b1c1916600185901b1785556200043e565b600085815260208120601f198616915b82811015620004e457888601518255948401946001909101908401620004c3565b5085821015620005035787850151600019600388901b60f8161c191681555b5050505050600190811b01905550565b615e9e80620005236000396000f3fe6080604052600436106104895760003560e01c806379d0f55e11610253578063c5607b9911610143578063e78afc8d116100bb578063f4db898411610082578063f4db898414610f09578063f851a44014610f1e578063fb55ab7d14610f3e578063fd1e663e14610f5e578063ff74ea7e14610f71578063fffbcefd14610f8657005b8063e78afc8d14610e2f578063f0a317eb14610e68578063f0f4426014610ea9578063f12ffcbd14610ec9578063f2fde38b14610ee957005b8063d8134a231161010a578063d8134a2314610d10578063d8a5e93614610d30578063dbc7a95d14610d50578063dd62ed3e14610d70578063de37adaa14610db6578063e731ecfa14610e0257005b8063c5607b9914610c8e578063c6ef206114610ca8578063cd446e2214610cc8578063d21d0c2514610ce8578063d44c403014610cfb57005b8063a9059cbb116101d6578063b6ef57d31161019d578063b6ef57d314610be2578063b773fdc114610bf8578063b9c5cb0514610c18578063bb1ae35214610c38578063bb809bfa14610c58578063bc063e1a14610c7857005b8063a9059cbb14610b57578063abe685cd14610b77578063aede67ea14610b8d578063af8db57514610ba2578063b0c2515314610bc257005b80638e50e5091161021a5780638e50e50914610aca57806395d89b4114610ae0578063a2d869b214610af5578063a6217d0a14610b17578063a7888a3414610b3757005b806379d0f55e14610a2a5780637bc59ce514610a575780637d23426514610a775780638456cb5914610a975780638da5cb5b14610aac57005b8063313ce5671161037957806360e97ccd116102f15780636f732c67116102b85780636f732c6714610969578063704b6c021461097f57806370a082311461099f578063715018a6146109d557806371d6f669146109ea57806374e72b6914610a0a57005b806360e97ccd146108e157806361d027b3146108f457806363315e4e14610914578063661517131461092a578063668fb6dc1461094957005b80633b6e750f116103405780633b6e750f1461081b5780633eee83f1146108545780633f4ba83a1461087457806349fb0507146108895780635c975abb146108a95780635e1e77de146108c157005b8063313ce5671461076957806336a605031461078b57806336c87754146107ab57806337e43105146107cb5780633acbb182146107eb57005b80631b47298a1161040c57806326fae0d3116103d357806326fae0d3146106c957806327824675146106e957806327a029141461070957806328863bd314610729578063296f6c8c1461073e5780632f7570061461075457005b80631b47298a146105f05780631c6e0cae146106375780632236d2fd1461065957806323b872dd1461068957806326023941146106a957005b80630fd7907b116104505780630fd7907b14610560578063108e3c991461058057806312065fe0146105a8578063160c6e29146105bb57806318160ddd146105db57005b80630560495814610492578063061ce77d146104b257806306fdde03146104d657806308447586146104f8578063095ea7b31461053057005b3661049057005b005b34801561049e57600080fd5b506104906104ad366004614ceb565b610fa6565b3480156104be57600080fd5b50600d545b6040519081526020015b60405180910390f35b3480156104e257600080fd5b506104eb6110c6565b6040516104cd9190614d67565b34801561050457600080fd5b50600b54610518906001600160a01b031681565b6040516001600160a01b0390911681526020016104cd565b34801561053c57600080fd5b5061055061054b366004614ceb565b611158565b60405190151581526020016104cd565b34801561056c57600080fd5b506104c361057b366004614d89565b611172565b34801561058c57600080fd5b50610518731231deb6f5749ef6ce6943a275a1d3e7486f4eae81565b3480156105b457600080fd5b50476104c3565b3480156105c757600080fd5b506104906105d6366004614dc2565b6112bc565b3480156105e757600080fd5b506104c36113ed565b3480156105fc57600080fd5b5061061061060b366004614d89565b61140d565b604080516001600160a01b03909416845260ff9092166020840152908201526060016104cd565b34801561064357600080fd5b5061064c6114fd565b6040516104cd9190614e25565b34801561066557600080fd5b50610550610674366004614e38565b600e6020526000908152604090205460ff1681565b34801561069557600080fd5b506105506106a4366004614e55565b61155e565b3480156106b557600080fd5b506104906106c4366004614d89565b611584565b3480156106d557600080fd5b506104906106e4366004614e38565b61160c565b3480156106f557600080fd5b506104c3610704366004614e96565b611694565b34801561071557600080fd5b50610490610724366004614ec2565b6116e2565b34801561073557600080fd5b506104c3600681565b34801561074a57600080fd5b506104c360185481565b34801561076057600080fd5b5061064c61174c565b34801561077557600080fd5b5060065b60405160ff90911681526020016104cd565b34801561079757600080fd5b506104c36107a6366004614ceb565b6117ac565b3480156107b757600080fd5b506105186107c6366004614ee4565b611949565b3480156107d757600080fd5b506104906107e6366004614e38565b611973565b3480156107f757600080fd5b50610550610806366004614e38565b60106020526000908152604090205460ff1681565b34801561082757600080fd5b50610550610836366004614e38565b6001600160a01b03166000908152600e602052604090205460ff1690565b34801561086057600080fd5b5061049061086f366004614e38565b611b4a565b34801561088057600080fd5b50610490611c5b565b34801561089557600080fd5b506104906108a4366004614efd565b611c6d565b3480156108b557600080fd5b5060065460ff16610550565b3480156108cd57600080fd5b506104906108dc366004614f71565b611d17565b6104906108ef366004614fad565b611ead565b34801561090057600080fd5b50600a54610518906001600160a01b031681565b34801561092057600080fd5b506104c360175481565b34801561093657600080fd5b5060125461077990610100900460ff1681565b34801561095557600080fd5b50610490610964366004614e38565b6122a3565b34801561097557600080fd5b506104c360195481565b34801561098b57600080fd5b5061049061099a366004614e38565b612458565b3480156109ab57600080fd5b506104c36109ba366004614e38565b6001600160a01b031660009081526001602052604090205490565b3480156109e157600080fd5b506104906124e0565b3480156109f657600080fd5b50610518610a05366004614ee4565b6124f2565b348015610a1657600080fd5b50610518610a25366004614ee4565b612502565b348015610a3657600080fd5b50610a4a610a45366004615056565b612512565b6040516104cd9190615073565b348015610a6357600080fd5b50610490610a72366004615177565b6125c5565b348015610a8357600080fd5b506104c3610a92366004614ceb565b61272c565b348015610aa357600080fd5b506104906128b7565b348015610ab857600080fd5b506000546001600160a01b0316610518565b348015610ad657600080fd5b506104c360165481565b348015610aec57600080fd5b506104eb6128c7565b348015610b0157600080fd5b50610b0a6128d6565b6040516104cd9190615242565b348015610b2357600080fd5b50610490610b32366004614efd565b61294c565b348015610b4357600080fd5b50610490610b52366004614e38565b6129f1565b348015610b6357600080fd5b50610550610b72366004614ceb565b612a79565b348015610b8357600080fd5b506104c361271081565b348015610b9957600080fd5b50610550612a87565b348015610bae57600080fd5b50610490610bbd3660046152a5565b612b3c565b348015610bce57600080fd5b50610518610bdd366004614ee4565b612b87565b348015610bee57600080fd5b506104c360155481565b348015610c0457600080fd5b506104c3610c13366004614ee4565b612b97565b348015610c2457600080fd5b506104c3610c33366004614ee4565b612c22565b348015610c4457600080fd5b50610490610c53366004615351565b612ca4565b348015610c6457600080fd5b50610490610c73366004614e38565b612f28565b348015610c8457600080fd5b506104c36103e881565b348015610c9a57600080fd5b506012546107799060ff1681565b348015610cb457600080fd5b50610490610cc3366004614ee4565b612fea565b348015610cd457600080fd5b50600854610518906001600160a01b031681565b610490610cf63660046153b6565b61309c565b348015610d0757600080fd5b506104c3613372565b348015610d1c57600080fd5b50610490610d2b366004614e38565b613541565b348015610d3c57600080fd5b50610490610d4b366004614ee4565b61370b565b348015610d5c57600080fd5b50610490610d6b3660046152a5565b6137aa565b348015610d7c57600080fd5b506104c3610d8b366004615434565b6001600160a01b03918216600090815260026020908152604080832093909416825291909152205490565b348015610dc257600080fd5b50610ded610dd1366004614e38565b601a602052600090815260409020805460019091015460ff1682565b604080519283529015156020830152016104cd565b348015610e0e57600080fd5b506104c3610e1d366004615056565b600c6020526000908152604090205481565b348015610e3b57600080fd5b50610550610e4a366004614e38565b6001600160a01b031660009081526010602052604090205460ff1690565b348015610e7457600080fd5b50610e88610e83366004614ee4565b6137f5565b604080516001600160a01b03909316835260ff9091166020830152016104cd565b348015610eb557600080fd5b50610490610ec4366004614e38565b61382a565b348015610ed557600080fd5b5061064c610ee4366004614d89565b6138cf565b348015610ef557600080fd5b50610490610f04366004614e38565b6139cd565b348015610f1557600080fd5b506104c3602481565b348015610f2a57600080fd5b50600954610518906001600160a01b031681565b348015610f4a57600080fd5b50610490610f59366004615056565b613a08565b610490610f6c366004615452565b613bc8565b348015610f7d57600080fd5b506104c3613e1a565b348015610f9257600080fd5b50610490610fa13660046154bd565b613eb5565b6000805b601454811015610ffc57336001600160a01b031660148281548110610fd157610fd16154ff565b6000918252602090912001546001600160a01b031603610ff45760019150610ffc565b600101610faa565b508061104f5760405162461bcd60e51b815260206004820152601c60248201527f5661756c743a20496e76616c6964207661756c74206d616e616765720000000060448201526064015b60405180910390fd5b60405163a9059cbb60e01b81526001600160a01b038416600482015260248101839052309063a9059cbb906044016020604051808303816000875af115801561109c573d6000803e3d6000fd5b505050506040513d601f19601f820116820180604052508101906110c09190615515565b50505050565b6060600480546110d590615532565b80601f016020809104026020016040519081016040528092919081815260200182805461110190615532565b801561114e5780601f106111235761010080835404028352916020019161114e565b820191906000526020600020905b81548152906001019060200180831161113157829003601f168201915b5050505050905090565b600033611166818585613f45565b60019150505b92915050565b60ff82166000908152600c602052604081205481036111a35760405162461bcd60e51b815260040161104690615566565b60ff83166000908152600c6020526040812054600d906111c5906001906155be565b815481106111d5576111d56154ff565b60009182526020822001546040516396c1865b60e01b815260ff86166004820152600160248201526001600160a01b03909116925082906396c1865b90604401602060405180830381865afa158015611232573d6000803e3d6000fd5b505050506040513d601f19601f8201168201806040525081019061125691906155d1565b9050600081136112b45760405162461bcd60e51b8152602060048201526024808201527f5661756c743a20506f6f6c20746f6b656e207072696365206973206e6567617460448201526334bb329760e11b6064820152608401611046565b949350505050565b6008546001600160a01b031633146112e65760405162461bcd60e51b8152600401611046906155ea565b6112ee613f52565b60006112f983612512565b90504782111561134b5760405162461bcd60e51b815260206004820152601b60248201527f5661756c743a20496e73756666696369656e742062616c616e636500000000006044820152606401611046565b80516040516000916001600160a01b03169084908381818185875af1925050503d8060008114611397576040519150601f19603f3d011682016040523d82523d6000602084013e61139c565b606091505b50509050806110c05760405162461bcd60e51b815260206004820152601b60248201527f5661756c743a204661696c656420746f2073656e6420457468657200000000006044820152606401611046565b60006113fb6006600a615712565b600354611408919061571e565b905090565b60ff82166000908152600c60205260408120548190819081036114425760405162461bcd60e51b815260040161104690615566565b60ff85166000908152600c6020526040812054600d90611464906001906155be565b81548110611474576114746154ff565b60009182526020909120015460405163189f5a0360e11b815260ff871660048201526001600160a01b039091169150819063313eb40690602401606060405180830381865afa1580156114cb573d6000803e3d6000fd5b505050506040513d601f19601f820116820180604052508101906114ef9190615731565b935093509350509250925092565b6060601180548060200260200160405190810160405280929190818152602001828054801561114e57602002820191906000526020600020905b81546001600160a01b03168152600190910190602001808311611537575050505050905090565b60003361156c858285613f76565b611577858585613fee565b60019150505b9392505050565b6009546001600160a01b031633146115ae5760405162461bcd60e51b815260040161104690615774565b6012805460ff84811661ffff199092168217610100918516918202179092556040805191825260208201929092527f14e1b7912db93ec92d8f90ef7bd11f9f3e0102207772767f99efb2d09652708e91015b60405180910390a15050565b61161461404d565b6001600160a01b03811661163a5760405162461bcd60e51b8152600401611046906157ab565b600880546001600160a01b038381166001600160a01b031983168117909355604080519190921680825260208201939093527fad86f1a43fee68be483e267b534abff158fe4e9b790f2de1188ffe2671231c349101611600565b60008183106116c3576116a782846155be565b6116b290600a615712565b6116bc90856157db565b905061157d565b6116cd83836155be565b6116d890600a615712565b6116bc90856157fd565b6009546001600160a01b0316331461170c5760405162461bcd60e51b815260040161104690615774565b6018829055601981905560408051838152602081018390527fa110b587ac7535a0f2355180833c95160b4dde91ead092742efaf8d33d1d3db99101611600565b6060600f80548060200260200160405190810160405280929190818152602001828054801561114e576020028201919060005260206000209081546001600160a01b03168152600190910190602001808311611537575050505050905090565b6000816000036117be5750600061116c565b600b546040516358e8662560e01b81526001600160a01b03858116600483015260009216906358e8662590602401602060405180830381865afa158015611809573d6000803e3d6000fd5b505050506040513d601f19601f8201168201806040525081019061182d9190615814565b600b54604051636a24d41960e11b81526001600160a01b03878116600483015260ff9390931693506000929091169063d449a83290602401602060405180830381865afa158015611882573d6000803e3d6000fd5b505050506040513d601f19601f820116820180604052508101906118a69190615814565b600b54604051630681320d60e51b81526001600160a01b03888116600483015260ff9390931693506000929091169063d02641a090602401602060405180830381865afa1580156118fb573d6000803e3d6000fd5b505050506040513d601f19601f8201168201806040525081019061191f91906155d1565b905061193f61192e82876157fd565b611938848661571e565b6024611694565b9695505050505050565b600f818154811061195957600080fd5b6000918252602090912001546001600160a01b0316905081565b61197b61404d565b6001600160a01b03811660009081526010602052604090205460ff161515600103611af5576001600160a01b0381166000908152601060205260408120805460ff191690555b601154811015611af357816001600160a01b0316601182815481106119e8576119e86154ff565b6000918252602090912001546001600160a01b031603611aeb5760118054611a12906001906155be565b81548110611a2257611a226154ff565b600091825260209091200154601180546001600160a01b039092169183908110611a4e57611a4e6154ff565b9060005260206000200160006101000a8154816001600160a01b0302191690836001600160a01b031602179055506011805480611a8d57611a8d615831565b6000828152602090819020600019908301810180546001600160a01b03191690559091019091556040516001600160a01b03841681527fb3b812909278685b51bb62950331b6fd26f7ce72a6cd192c9ece03f6ee398f529101611600565b6001016119c1565b505b60405162461bcd60e51b815260206004820152602160248201527f5661756c743a204e6f6e2d6465706f73697420616c6c6f77656420746f6b656e6044820152601760f91b6064820152608401611046565b50565b611b5261404d565b6001600160a01b0381166000908152600e602052604081205460ff1615159003611c13576001600160a01b0381166000818152600e60209081526040808320805460ff19166001908117909155600f805491820181559093527f8d1108e10bcb7c27dddfc02ed9d693a074039d026cf4ea4240b40f7d581ac80290920180546001600160a01b0319168417905590519182527f8d12536a26e1c757d393b039469ce97499ed4a5c39f067cd950f9295a269061b91015b60405180910390a150565b60405162461bcd60e51b815260206004820152601c60248201527f5661756c743a20546f6b656e20616c7265616479206578697374732e000000006044820152606401611046565b611c6361404d565b611c6b61407a565b565b611c7561404d565b60005b81811015611d12573063bb809bfa848484818110611c9857611c986154ff565b9050602002016020810190611cad9190614e38565b6040516001600160e01b031960e084901b1681526001600160a01b039091166004820152602401600060405180830381600087803b158015611cee57600080fd5b505af1158015611d02573d6000803e3d6000fd5b505060019092019150611c789050565b505050565b611d1f61404d565b8160ff16600003611d725760405162461bcd60e51b815260206004820152601e60248201527f5661756c743a20506c7567696e49642063616e6e6f74206265207a65726f00006044820152606401611046565b60ff82166000908152600c602052604090205415611ddd5760405162461bcd60e51b815260206004820152602260248201527f506c7567696e2077697468207468697320494420616c72656164792065786973604482015261747360f01b6064820152608401611046565b6040805180820182526001600160a01b03808416825260ff8086166020808501828152600d8054600181018255600082815297517fd7b6990105719101dabeb77144f2a3385c8033acd3af97e9423a695e81ad1eb590910180549351909616600160a01b026001600160a81b0319909316961695909517179092559154918352600c90529082902055517f82928e1181db449ef41e256af411debe6548a93bdb7b4cd3cc064bba2424f4ee90611600908490849060ff9290921682526001600160a01b0316602082015260400190565b6008546001600160a01b03163314611ed75760405162461bcd60e51b8152600401611046906155ea565b611edf613f52565b8215611fdc57604051630770551960e51b81526000908190731231deb6f5749ef6ce6943a275a1d3e7486f4eae9063ee0aa32090611f239087908790600401615847565b600060405180830381865afa158015611f40573d6000803e3d6000fd5b505050506040513d6000823e601f3d908101601f19168201604052611f6891908101906158a6565b50506001600160a01b0383166000908152601a60209081526040918290208251808401909352805483526001015460ff1615801591830182905294985091965094509250611fb890505750805182145b611fd45760405162461bcd60e51b81526004016110469061595a565b5050506120c4565b60405163618c776d60e11b8152600090731231deb6f5749ef6ce6943a275a1d3e7486f4eae9063c318eeda906120189086908690600401615847565b60a060405180830381865afa158015612035573d6000803e3d6000fd5b505050506040513d601f19601f82011682018060405250810190612059919061599e565b50506001600160a01b0381166000908152601a60209081526040918290208251808401909352805483526001015460ff1615801591830182905292955090935091506120a55750805146145b6120c15760405162461bcd60e51b81526004016110469061595a565b50505b6001600160a01b03861615806121e157604051636eb1769f60e11b8152306004820152731231deb6f5749ef6ce6943a275a1d3e7486f4eae60248201526000906001600160a01b0389169063dd62ed3e90604401602060405180830381865afa158015612135573d6000803e3d6000fd5b505050506040513d601f19601f8201168201806040525081019061215991906155d1565b90508087111561219f57600061216f82896155be565b90506121996001600160a01b038a16731231deb6f5749ef6ce6943a275a1d3e7486f4eae836140cc565b506121df565b808710156121df5760006121b388836155be565b90506121dd6001600160a01b038a16731231deb6f5749ef6ce6943a275a1d3e7486f4eae83614156565b505b505b6000731231deb6f5749ef6ce6943a275a1d3e7486f4eae6001600160a01b03168685856040516122129291906159ff565b60006040518083038185875af1925050503d806000811461224f576040519150601f19603f3d011682016040523d82523d6000602084013e612254565b606091505b50509050806122995760405162461bcd60e51b8152602060048201526011602482015270131a599a4e8818d85b1b0819985a5b1959607a1b6044820152606401611046565b5050505050505050565b6009546001600160a01b031633146122cd5760405162461bcd60e51b815260040161104690615774565b6122d5613f52565b6001600160a01b0381166000908152600e602052604090205460ff166123345760405162461bcd60e51b81526020600482015260146024820152732b30bab63a1d1024b73b30b634b2103a37b5b2b760611b6044820152606401611046565b60006123428260175461272c565b6040516370a0823160e01b81523060048201529091506000906001600160a01b038416906370a0823190602401602060405180830381865afa15801561238c573d6000803e3d6000fd5b505050506040513d601f19601f820116820180604052508101906123b091906155d1565b90506000828210156123c257816123c4565b825b9050821561240f5782816017546123db91906157fd565b6123e591906157db565b6017546123f291906155be565b601755600a5461240f906001600160a01b03868116911683614213565b604080516001600160a01b0386168152602081018390527f1698f33bf2ba6b1a5dbe8f4e48a724e345352a91c1ad49b9e823713a38ac750d91015b60405180910390a150505050565b61246061404d565b6001600160a01b0381166124865760405162461bcd60e51b8152600401611046906157ab565b600980546001600160a01b038381166001600160a01b031983168117909355604080519190921680825260208201939093527fad86f1a43fee68be483e267b534abff158fe4e9b790f2de1188ffe2671231c349101611600565b6124e861404d565b611c6b6000614272565b6011818154811061195957600080fd5b6013818154811061195957600080fd5b604080518082019091526000808252602082015260ff82166000908152600c602052604081205490036125575760405162461bcd60e51b815260040161104690615566565b60ff82166000908152600c6020526040812054600d90612579906001906155be565b81548110612589576125896154ff565b6000918252602091829020604080518082019091529101546001600160a01b0381168252600160a01b900460ff16918101919091529392505050565b6008546001600160a01b031633146125ef5760405162461bcd60e51b8152600401611046906155ea565b6125f7613f52565b60ff83166000908152600c602052604081205490036126285760405162461bcd60e51b815260040161104690615566565b60ff83166000908152600c6020526040812054600d9061264a906001906155be565b8154811061265a5761265a6154ff565b600091825260209091200154825184516001600160a01b039092169250146126945760405162461bcd60e51b815260040161104690615a0f565b60005b83518110156126f8576126f0828483815181106126b6576126b66154ff565b60200260200101518684815181106126d0576126d06154ff565b60200260200101516001600160a01b03166140cc9092919063ffffffff16565b600101612697565b507fb2de8a7e3a7a5cd63b512230691a3b7c6d2a155e140eabf51de5f1cd4bbd1c9f84848460405161244a93929190615a86565b600b546040516358e8662560e01b81526001600160a01b03848116600483015260009283929116906358e8662590602401602060405180830381865afa15801561277a573d6000803e3d6000fd5b505050506040513d601f19601f8201168201806040525081019061279e9190615814565b600b54604051636a24d41960e11b81526001600160a01b03878116600483015260ff9390931693506000929091169063d449a83290602401602060405180830381865afa1580156127f3573d6000803e3d6000fd5b505050506040513d601f19601f820116820180604052508101906128179190615814565b60ff169050600061282e856024610704858761571e565b600b54604051630681320d60e51b81526001600160a01b0389811660048301529293506000929091169063d02641a090602401602060405180830381865afa15801561287e573d6000803e3d6000fd5b505050506040513d601f19601f820116820180604052508101906128a291906155d1565b6128ac90836157db565b979650505050505050565b6128bf61404d565b611c6b6142c2565b6060600580546110d590615532565b6060600d805480602002602001604051908101604052809291908181526020016000905b8282101561294357600084815260209081902060408051808201909152908401546001600160a01b0381168252600160a01b900460ff16818301528252600190920191016128fa565b50505050905090565b61295461404d565b60005b81811015611d125730633eee83f1848484818110612977576129776154ff565b905060200201602081019061298c9190614e38565b6040516001600160e01b031960e084901b1681526001600160a01b039091166004820152602401600060405180830381600087803b1580156129cd57600080fd5b505af11580156129e1573d6000803e3d6000fd5b5050600190920191506129579050565b6129f961404d565b6001600160a01b038116612a1f5760405162461bcd60e51b8152600401611046906157ab565b600b80546001600160a01b038381166001600160a01b031983168117909355604080519190921680825260208201939093527ff4502d3564a672945971a0fba8e29bffe054f3ab45f59b8e003c17aeab1bbd209101611600565b600033611166818585613fee565b60006001815b601354811015612b365760138181548110612aaa57612aaa6154ff565b600091825260209182902001546040805163ef563ba560e01b815290516001600160a01b039092169263ef563ba5926004808401938290030181865afa158015612af8573d6000803e3d6000fd5b505050506040513d601f19601f82011682018060405250810190612b1c9190615515565b1515600003612b2e5760009150612b36565b600101612a8d565b50919050565b612b4461404d565b8051612b57906013906020840190614c5c565b507f75793d06eb3a848ff6160cccf8a42cb464c416ed07faf13dfb47ae4f46857d0681604051611c089190614e25565b6014818154811061195957600080fd5b600080601754612ba5613372565b11612bb1576000612bc6565b601754612bbc613372565b612bc691906155be565b9050612bd46024600a615712565b81111580612bf45750612be96006600a615712565b612bf16113ed565b11155b15612c065761157d8360066024611694565b612c0e6113ed565b612c1882856157fd565b61157d91906157db565b600080601754612c30613372565b11612c3c576000612c51565b601754612c47613372565b612c5191906155be565b9050612c5f6024600a615712565b81111580612c7f5750612c746006600a615712565b612c7c6113ed565b11155b15612c915761157d8360246006611694565b80612c9a6113ed565b612c1890856157fd565b6008546001600160a01b03163314612cce5760405162461bcd60e51b8152600401611046906155ea565b612cd6613f52565b60ff83166000908152600c60205260408120549003612d075760405162461bcd60e51b815260040161104690615566565b60ff83166000908152600c6020526040812054600d90612d29906001906155be565b81548110612d3957612d396154ff565b60009182526020822001546001600160a01b03169150836008811115612d6157612d61615ab4565b03612e125760008083806020019051810190612d7d9190615b52565b5092509250508051825114612da45760405162461bcd60e51b815260040161104690615a0f565b60005b8251811015612e0a576000828281518110612dc457612dc46154ff565b60200260200101511115612e0257612e0284838381518110612de857612de86154ff565b60200260200101518584815181106126d0576126d06154ff565b600101612da7565b505050612e95565b6001836008811115612e2657612e26615ab4565b03612e9557600082806020019051810190612e419190615c3a565b50935050506001600160a01b03821630149050612e935760405162461bcd60e51b815260206004820152601060248201526f24b73b30b634b2103932b1b2b4bb32b960811b6044820152606401611046565b505b604051633ed34d9360e21b81526001600160a01b0382169063fb4d364c90612ec39086908690600401615cc7565b600060405180830381600087803b158015612edd57600080fd5b505af1158015612ef1573d6000803e3d6000fd5b505050507fd1d58280d995f2eeb79c5a7a40676ea3a07813ac558a14adb50cb7a0dae135a184848460405161244a93929190615ce7565b612f3061404d565b6001600160a01b03811660009081526010602052604081205460ff1615159003611c13576001600160a01b0381166000818152601060209081526040808320805460ff191660019081179091556011805491820181559093527f31ecc21a745e3968a04e9570e4425bc18fa8019c68028196b546d1669c200c6890920180546001600160a01b0319168417905590519182527f9de0acb434fe97ecc1d1a16e96e0fef8e9a12b54d716f753d570c59539f93ab59101611c08565b6000805b60145481101561304057336001600160a01b031660148281548110613015576130156154ff565b6000918252602090912001546001600160a01b0316036130385760019150613040565b600101612fee565b508061308e5760405162461bcd60e51b815260206004820152601c60248201527f5661756c743a20496e76616c6964207661756c74206d616e61676572000000006044820152606401611046565b61309830836142ff565b5050565b6130a4614335565b6130ac613f52565b6130b4612a87565b15156001146130d55760405162461bcd60e51b815260040161104690615d10565b6019543410156130f75760405162461bcd60e51b815260040161104690615d40565b600085116131475760405162461bcd60e51b815260206004820152601e60248201527f5661756c743a20496e76616c6964204c5020746f6b656e20616d6f756e7400006044820152606401611046565b61314f61435f565b6040516323b872dd60e01b8152336004820152306024820181905260448201879052906323b872dd906064016020604051808303816000875af115801561319a573d6000803e3d6000fd5b505050506040513d601f19601f820116820180604052508101906131be9190615515565b5060006131ca86612b97565b905060006131d8868661140d565b5091505060006131e88787611172565b90506000816131fc8560068660ff16611694565b61320691906157db565b9050600087828b8989604051602001613223959493929190615d81565b60408051601f1981840301815291815260ff8b166000908152600c60205290812054919250036132655760405162461bcd60e51b815260040161104690615566565b60ff89166000908152600c6020526040812054600d90613287906001906155be565b81548110613297576132976154ff565b600091825260209091200154604051633ed34d9360e21b81526001600160a01b039091169150819063fb4d364c906132d6906001908690600401615cc7565b600060405180830381600087803b1580156132f057600080fd5b505af1158015613304573d6000803e3d6000fd5b5050604080518e815260ff8e811660208301528d16818301526001600160a01b038c16606082015290517ff9dc9eadd0cc0780e3b8e626ab108cc4acbfaa08f131e9c3a79d90e9d22081a09350908190036080019150a150505050505061336b6001600755565b5050505050565b600061337c612a87565b151560011461339d5760405162461bcd60e51b815260040161104690615d10565b60005b600d5460ff8216101561345157600d8160ff16815481106133c3576133c36154ff565b60009182526020918290200154604080516335c7e92560e01b815290516001600160a01b03909216926335c7e925926004808401938290030181865afa158015613411573d6000803e3d6000fd5b505050506040513d601f19601f8201168201806040525081019061343591906155d1565b61343f908361571e565b915061344a81615db7565b90506133a0565b5060005b600f5481101561352a57613516600f8281548110613475576134756154ff565b600091825260209091200154600f80546001600160a01b0390921691849081106134a1576134a16154ff565b6000918252602090912001546040516370a0823160e01b81523060048201526001600160a01b03909116906370a0823190602401602060405180830381865afa1580156134f2573d6000803e3d6000fd5b505050506040513d601f19601f820116820180604052508101906107a691906155d1565b613520908361571e565b9150600101613455565b506135376024600a615712565b611408908261571e565b61354961404d565b6001600160a01b0381166000908152600e602052604090205460ff1615156001036136c3576001600160a01b0381166000908152600e60205260408120805460ff191690555b600f548110156136c157816001600160a01b0316600f82815481106135b6576135b66154ff565b6000918252602090912001546001600160a01b0316036136b957600f80546135e0906001906155be565b815481106135f0576135f06154ff565b600091825260209091200154600f80546001600160a01b03909216918390811061361c5761361c6154ff565b9060005260206000200160006101000a8154816001600160a01b0302191690836001600160a01b03160217905550600f80548061365b5761365b615831565b6000828152602090819020600019908301810180546001600160a01b03191690559091019091556040516001600160a01b03841681527fd45f8e69dd1637935a0de01b2f0d707b0f009e604d60d445d28ed36e6281925c9101611600565b60010161358f565b505b60405162461bcd60e51b815260206004820152601a60248201527f5661756c743a204e6f6e2d616363657074656420746f6b656e2e0000000000006044820152606401611046565b61371361404d565b6103e88111156137755760405162461bcd60e51b815260206004820152602760248201527f5661756c743a2070726f746f636f6c20666565206578636565647320746865206044820152666d61782066656560c81b6064820152608401611046565b60168190556040518181527f6668cdfd543255bfacce42e8e363820b28fd302f59ac468c0a7474a38556c9ef90602001611c08565b6137b261404d565b80516137c5906014906020840190614c5c565b507f89e49a824d9524bf238c9ad5c47117e0b3fe3246a6dbbda21847a66b58bcc93881604051611c089190614e25565b600d818154811061380557600080fd5b6000918252602090912001546001600160a01b0381169150600160a01b900460ff1682565b61383261404d565b6001600160a01b0381166138815760405162461bcd60e51b81526020600482015260166024820152755661756c743a20496e76616c6964206164647265737360501b6044820152606401611046565b600a80546001600160a01b0319166001600160a01b0383169081179091556040519081527fcb7ef3e545f5cdb893f5c568ba710fe08f336375a2d9fd66e161033f8fc09ef390602001611c08565b60ff82166000908152600c6020526040812054606091829190036138f457905061116c565b60ff84166000908152600c6020526040812054600d90613916906001906155be565b81548110613926576139266154ff565b600091825260209182902060408051808201825292909101546001600160a01b03811680845260ff600160a01b9092048216948401949094529051630a9e949160e21b81529087166004820152909250632a7a524490602401600060405180830381865afa15801561399c573d6000803e3d6000fd5b505050506040513d6000823e601f3d908101601f191682016040526139c49190810190615dd6565b95945050505050565b6139d561404d565b6001600160a01b0381166139ff57604051631e4fbdf760e01b815260006004820152602401611046565b611b4781614272565b613a1061404d565b60ff81166000908152600c60205260408120549003613a415760405162461bcd60e51b815260040161104690615566565b60ff81166000908152600c6020526040812054613a60906001906155be565b60ff83166000908152600c6020526040812055600d54909150613a85906001906155be565b8114613b5f57600d805460009190613a9f906001906155be565b81548110613aaf57613aaf6154ff565b6000918252602091829020604080518082019091529101546001600160a01b0381168252600160a01b900460ff1691810191909152600d8054919250829184908110613afd57613afd6154ff565b6000918252602091829020835191018054939092015160ff16600160a01b026001600160a81b03199093166001600160a01b0390911617919091179055613b4582600161571e565b60209182015160ff166000908152600c9092526040909120555b600d805480613b7057613b70615831565b6000828152602090819020600019908301810180546001600160a81b031916905590910190915560405160ff841681527f0a312f1a2ac6a06b589a288d1fb8f65a78df1d25f4518b5d90d6dfb3b3c5dc189101611600565b613bd0614335565b613bd8613f52565b613be0612a87565b1515600114613c015760405162461bcd60e51b815260040161104690615d10565b601854341015613c235760405162461bcd60e51b815260040161104690615d40565b6001600160a01b03841660009081526010602052604090205460ff16613c825760405162461bcd60e51b81526020600482015260146024820152732b30bab63a1d1024b73b30b634b2103a37b5b2b760611b6044820152606401611046565b613c8a61435f565b60008311613cda5760405162461bcd60e51b815260206004820152601b60248201527f5661756c743a20496e76616c696420746f6b656e20616d6f756e7400000000006044820152606401611046565b6000613ce685856117ac565b9050613cf4600260246155be565b613cff90600a615712565b811015613d455760405162461bcd60e51b8152602060048201526014602482015273125b9d985b1a59081d1bdad95b88185b5bdd5b9d60621b6044820152606401611046565b6000613d5082612c22565b905060008111613da25760405162461bcd60e51b815260206004820152601a60248201527f5661756c743a20496e73756666696369656e7420616d6f756e740000000000006044820152606401611046565b613db76001600160a01b038716333088614434565b613dc1848261446d565b604080516001600160a01b0388168152602081018790527f6c37c6ecf36829ae3759052fb0ebde09db8d9df703558db7886f111614de4741910160405180910390a1613e0e8686856144a3565b50506110c06001600755565b600080601754613e28613372565b11613e34576000613e49565b601754613e3f613372565b613e4991906155be565b90506000613e596024600a615712565b82111580613e795750613e6e6006600a615712565b613e766113ed565b11155b15613e8d5750670de0b6b3a764000061116c565b6000613ea18360246107046006601261571e565b9050613eab6113ed565b6112b490826157db565b613ebd61404d565b60408051808201825283815282151560208083018281526001600160a01b0388166000818152601a84528690209451855590516001909401805460ff191694151594909417909355835192835282018590528183015290517f160fca7789fcddb5f1492ef25177eaf4334d926db90c8707261121a213ba34cf916060908290030190a1505050565b611d128383836001614769565b60065460ff1615611c6b5760405163d93c066560e01b815260040160405180910390fd5b6001600160a01b0383811660009081526002602090815260408083209386168352929052205460001981146110c05781811015613fdf57604051637dc7a0d960e11b81526001600160a01b03841660048201526024810182905260448101839052606401611046565b6110c084848484036000614769565b6001600160a01b03831661401857604051634b637e8f60e11b815260006004820152602401611046565b6001600160a01b0382166140425760405163ec442f0560e01b815260006004820152602401611046565b611d1283838361483e565b6000546001600160a01b03163314611c6b5760405163118cdaa760e01b8152336004820152602401611046565b614082614849565b6006805460ff191690557f5db9ee0a495bf2e6ff9c91a7834c1ba4fdd244a5e8aa4e537bd38aeae4b073aa335b6040516001600160a01b03909116815260200160405180910390a1565b604051636eb1769f60e11b81523060048201526001600160a01b0383811660248301526000919085169063dd62ed3e90604401602060405180830381865afa15801561411c573d6000803e3d6000fd5b505050506040513d601f19601f8201168201806040525081019061414091906155d1565b90506110c08484614151858561571e565b61486c565b604051636eb1769f60e11b81523060048201526001600160a01b0383811660248301526000919085169063dd62ed3e90604401602060405180830381865afa1580156141a6573d6000803e3d6000fd5b505050506040513d601f19601f820116820180604052508101906141ca91906155d1565b9050818110156142065760405163e570110f60e01b81526001600160a01b03841660048201526024810182905260448101839052606401611046565b6110c0848484840361486c565b6040516001600160a01b03838116602483015260448201839052611d1291859182169063a9059cbb906064015b604051602081830303815290604052915060e01b6020820180516001600160e01b0383818316178352505050506148f8565b600080546001600160a01b038381166001600160a01b0319831681178455604051919092169283917f8be0079c531659141344cd1fd0a4f28419497f9722a3daafe3b4186f6b6457e09190a35050565b6142ca613f52565b6006805460ff191660011790557f62e78cea01bee320cd4e420270b5ea74000d11b0c9f74754ebdbfc544b05a2586140af3390565b6001600160a01b03821661432957604051634b637e8f60e11b815260006004820152602401611046565b6130988260008361483e565b60026007540361435857604051633ee5aeb560e01b815260040160405180910390fd5b6002600755565b601554600061436c613e1a565b9050818111156143f457600061438283836155be565b905060006143a76143916113ed565b61439b90846157fd565b6119386006601261571e565b90506000612710601654836143bc91906157fd565b6143c691906157db565b905080601760008282546143da919061571e565b909155506143e89050613e1a565b601555506143fa915050565b60158190555b6015546040805184815260208101929092527f5d9d530192099327de5a2c3afce10e28b8b9ca0efbc42dd0404947d28e9511899101611600565b6040516001600160a01b0384811660248301528381166044830152606482018390526110c09186918216906323b872dd90608401614240565b6001600160a01b0382166144975760405163ec442f0560e01b815260006004820152602401611046565b6130986000838361483e565b6012546000906144be9060ff808216916101009004166138cf565b905060005b815181101561470e57846001600160a01b03168282815181106144e8576144e86154ff565b60200260200101516001600160a01b03160361470657600082516001600160401b0381111561451957614519615096565b604051908082528060200260200182016040528015614542578160200160208202803683370190505b50905084818381518110614558576145586154ff565b6020026020010181815250506000601260019054906101000a900460ff1684838760405160200161458c9493929190615e0a565b60408051601f1981840301815291815260125460ff166000908152600c60205290812054919250036145d05760405162461bcd60e51b815260040161104690615566565b60125460ff166000908152600c6020526040812054600d906145f4906001906155be565b81548110614604576146046154ff565b9060005260206000200160000160009054906101000a90046001600160a01b0316905061463e81888787815181106126d0576126d06154ff565b604051633ed34d9360e21b81526001600160a01b0382169063fb4d364c9061466d906000908690600401615cc7565b600060405180830381600087803b15801561468757600080fd5b505af115801561469b573d6000803e3d6000fd5b50506012546040805160ff808416825261010090930490921660208301526001600160a01b038c1682820152606082018b9052517f4a73781a39df215cc38853e07006d66222cc28e3f25802b0ed4ec11282df56c29350908190036080019150a15050505050505050565b6001016144c3565b5060405162461bcd60e51b815260206004820152602960248201527f5661756c743a206465706f73697420746f6b656e206e6f7420696e20616c6c6f604482015268776564546f6b656e7360b81b6064820152608401611046565b6001600160a01b0384166147935760405163e602df0560e01b815260006004820152602401611046565b6001600160a01b0383166147bd57604051634a1406b160e11b815260006004820152602401611046565b6001600160a01b03808516600090815260026020908152604080832093871683529290522082905580156110c057826001600160a01b0316846001600160a01b03167f8c5be1e5ebec7d5bd14f71427d1e84f3dd0314c0f7b2291e5b200ac8c7c3b9258460405161483091815260200190565b60405180910390a350505050565b611d1283838361495b565b60065460ff16611c6b57604051638dfc202b60e01b815260040160405180910390fd5b604080516001600160a01b038416602482015260448082018490528251808303909101815260649091019091526020810180516001600160e01b031663095ea7b360e01b1790526148bd848261496e565b6110c0576040516001600160a01b038481166024830152600060448301526148f291869182169063095ea7b390606401614240565b6110c084825b600061490d6001600160a01b03841683614a11565b905080516000141580156149325750808060200190518101906149309190615515565b155b15611d1257604051635274afe760e01b81526001600160a01b0384166004820152602401611046565b614963613f52565b611d12838383614a1f565b6000806000846001600160a01b03168460405161498b9190615e4c565b6000604051808303816000865af19150503d80600081146149c8576040519150601f19603f3d011682016040523d82523d6000602084013e6149cd565b606091505b50915091508180156149f75750805115806149f75750808060200190518101906149f79190615515565b80156139c45750505050506001600160a01b03163b151590565b606061157d83836000614b49565b6001600160a01b038316614a4a578060036000828254614a3f919061571e565b90915550614abc9050565b6001600160a01b03831660009081526001602052604090205481811015614a9d5760405163391434e360e21b81526001600160a01b03851660048201526024810182905260448101839052606401611046565b6001600160a01b03841660009081526001602052604090209082900390555b6001600160a01b038216614ad857600380548290039055614af7565b6001600160a01b03821660009081526001602052604090208054820190555b816001600160a01b0316836001600160a01b03167fddf252ad1be2c89b69c2b068fc378daa952ba7f163c4a11628f55a4df523b3ef83604051614b3c91815260200190565b60405180910390a3505050565b606081471015614b6e5760405163cd78605960e01b8152306004820152602401611046565b600080856001600160a01b03168486604051614b8a9190615e4c565b60006040518083038185875af1925050503d8060008114614bc7576040519150601f19603f3d011682016040523d82523d6000602084013e614bcc565b606091505b509150915061193f868383606082614bec57614be782614c33565b61157d565b8151158015614c0357506001600160a01b0384163b155b15614c2c57604051639996b31560e01b81526001600160a01b0385166004820152602401611046565b508061157d565b805115614c435780518082602001fd5b604051630a12f52160e11b815260040160405180910390fd5b828054828255906000526020600020908101928215614cb1579160200282015b82811115614cb157825182546001600160a01b0319166001600160a01b03909116178255602090920191600190910190614c7c565b50614cbd929150614cc1565b5090565b5b80821115614cbd5760008155600101614cc2565b6001600160a01b0381168114611b4757600080fd5b60008060408385031215614cfe57600080fd5b8235614d0981614cd6565b946020939093013593505050565b60005b83811015614d32578181015183820152602001614d1a565b50506000910152565b60008151808452614d53816020860160208601614d17565b601f01601f19169290920160200192915050565b60208152600061157d6020830184614d3b565b60ff81168114611b4757600080fd5b60008060408385031215614d9c57600080fd5b8235614da781614d7a565b91506020830135614db781614d7a565b809150509250929050565b60008060408385031215614dd557600080fd5b8235614d0981614d7a565b60008151808452602080850194506020840160005b83811015614e1a5781516001600160a01b031687529582019590820190600101614df5565b509495945050505050565b60208152600061157d6020830184614de0565b600060208284031215614e4a57600080fd5b813561157d81614cd6565b600080600060608486031215614e6a57600080fd5b8335614e7581614cd6565b92506020840135614e8581614cd6565b929592945050506040919091013590565b600080600060608486031215614eab57600080fd5b505081359360208301359350604090920135919050565b60008060408385031215614ed557600080fd5b50508035926020909101359150565b600060208284031215614ef657600080fd5b5035919050565b60008060208385031215614f1057600080fd5b82356001600160401b0380821115614f2757600080fd5b818501915085601f830112614f3b57600080fd5b813581811115614f4a57600080fd5b8660208260051b8501011115614f5f57600080fd5b60209290920196919550909350505050565b60008060408385031215614f8457600080fd5b8235614f8f81614d7a565b91506020830135614db781614cd6565b8015158114611b4757600080fd5b60008060008060008060a08789031215614fc657600080fd5b8635614fd181614cd6565b955060208701359450604087013593506060870135614fef81614f9f565b925060808701356001600160401b038082111561500b57600080fd5b818901915089601f83011261501f57600080fd5b81358181111561502e57600080fd5b8a602082850101111561504057600080fd5b6020830194508093505050509295509295509295565b60006020828403121561506857600080fd5b813561157d81614d7a565b81516001600160a01b0316815260208083015160ff16908201526040810161116c565b634e487b7160e01b600052604160045260246000fd5b604051601f8201601f191681016001600160401b03811182821017156150d4576150d4615096565b604052919050565b60006001600160401b038211156150f5576150f5615096565b5060051b60200190565b600082601f83011261511057600080fd5b81356020615125615120836150dc565b6150ac565b8083825260208201915060208460051b87010193508684111561514757600080fd5b602086015b8481101561516c57803561515f81614cd6565b835291830191830161514c565b509695505050505050565b60008060006060848603121561518c57600080fd5b833561519781614d7a565b92506020848101356001600160401b03808211156151b457600080fd5b6151c0888389016150ff565b945060408701359150808211156151d657600080fd5b508501601f810187136151e857600080fd5b80356151f6615120826150dc565b81815260059190911b8201830190838101908983111561521557600080fd5b928401925b828410156152335783358252928401929084019061521a565b80955050505050509250925092565b602080825282518282018190526000919060409081850190868401855b828110156152985761528884835180516001600160a01b0316825260209081015160ff16910152565b928401929085019060010161525f565b5091979650505050505050565b6000602082840312156152b757600080fd5b81356001600160401b038111156152cd57600080fd5b6112b4848285016150ff565b60006001600160401b038211156152f2576152f2615096565b50601f01601f191660200190565b600082601f83011261531157600080fd5b813561531f615120826152d9565b81815284602083860101111561533457600080fd5b816020850160208301376000918101602001919091529392505050565b60008060006060848603121561536657600080fd5b833561537181614d7a565b925060208401356009811061538557600080fd5b915060408401356001600160401b038111156153a057600080fd5b6153ac86828701615300565b9150509250925092565b600080600080600060a086880312156153ce57600080fd5b8535945060208601356153e081614d7a565b935060408601356153f081614d7a565b9250606086013561540081614cd6565b915060808601356001600160401b0381111561541b57600080fd5b61542788828901615300565b9150509295509295909350565b6000806040838503121561544757600080fd5b8235614f8f81614cd6565b6000806000806080858703121561546857600080fd5b843561547381614cd6565b935060208501359250604085013561548a81614cd6565b915060608501356001600160401b038111156154a557600080fd5b6154b187828801615300565b91505092959194509250565b6000806000606084860312156154d257600080fd5b83356154dd81614cd6565b92506020840135915060408401356154f481614f9f565b809150509250925092565b634e487b7160e01b600052603260045260246000fd5b60006020828403121561552757600080fd5b815161157d81614f9f565b600181811c9082168061554657607f821691505b602082108103612b3657634e487b7160e01b600052602260045260246000fd5b60208082526022908201527f506c7567696e2077697468207468697320494420646f6573206e6f74206578696040820152611cdd60f21b606082015260800190565b634e487b7160e01b600052601160045260246000fd5b8181038181111561116c5761116c6155a8565b6000602082840312156155e357600080fd5b5051919050565b60208082526024908201527f5661756c743a2063616c6c6572206d757374206265206d6173746572436f6e746040820152631c9858dd60e21b606082015260800190565b600181815b8085111561566957816000190482111561564f5761564f6155a8565b8085161561565c57918102915b93841c9390800290615633565b509250929050565b6000826156805750600161116c565b8161568d5750600061116c565b81600181146156a357600281146156ad576156c9565b600191505061116c565b60ff8411156156be576156be6155a8565b50506001821b61116c565b5060208310610133831016604e8410600b84101617156156ec575081810a61116c565b6156f6838361562e565b806000190482111561570a5761570a6155a8565b029392505050565b600061157d8383615671565b8082018082111561116c5761116c6155a8565b60008060006060848603121561574657600080fd5b835161575181614cd6565b602085015190935061576281614d7a565b80925050604084015190509250925092565b6020808252601b908201527f5661756c743a2063616c6c6572206d7573742062652061646d696e0000000000604082015260600190565b6020808252601690820152755661756c743a20496e76616c6964204164647265737360501b604082015260600190565b6000826157f857634e487b7160e01b600052601260045260246000fd5b500490565b808202811582820484141761116c5761116c6155a8565b60006020828403121561582657600080fd5b815161157d81614d7a565b634e487b7160e01b600052603160045260246000fd5b60208152816020820152818360408301376000818301604090810191909152601f909201601f19160101919050565b6000615884615120846152d9565b905082815283838301111561589857600080fd5b61157d836020830184614d17565b600080600080600080600060e0888a0312156158c157600080fd5b87516001600160401b038111156158d757600080fd5b8801601f81018a136158e857600080fd5b6158f78a825160208401615876565b975050602088015161590881614cd6565b604089015190965061591981614cd6565b80955050606088015193506080880151925060a088015161593981614f9f565b60c089015190925061594a81614f9f565b8091505092959891949750929550565b60208082526024908201527f5661756c743a204c696669207265636569766572206e6f742077686974656c696040820152631cdd195960e21b606082015260800190565b600080600080600060a086880312156159b657600080fd5b85516159c181614cd6565b6020870151604088015191965094506159d981614cd6565b60608701519093506159ea81614cd6565b80925050608086015190509295509295909350565b8183823760009101908152919050565b60208082526026908201527f5661756c743a204c69737473206d7573742068617665207468652073616d65206040820152650d8cadccee8d60d31b606082015260800190565b60008151808452602080850194506020840160005b83811015614e1a57815187529582019590820190600101615a6a565b60ff84168152606060208201526000615aa26060830185614de0565b828103604084015261193f8185615a55565b634e487b7160e01b600052602160045260246000fd5b600082601f830112615adb57600080fd5b81516020615aeb615120836150dc565b8083825260208201915060208460051b870101935086841115615b0d57600080fd5b602086015b8481101561516c578051615b2581614cd6565b8352918301918301615b12565b600082601f830112615b4357600080fd5b61157d83835160208501615876565b60008060008060808587031215615b6857600080fd5b8451615b7381614d7a565b809450506020808601516001600160401b0380821115615b9257600080fd5b615b9e89838a01615aca565b95506040880151915080821115615bb457600080fd5b818801915088601f830112615bc857600080fd5b8151615bd6615120826150dc565b81815260059190911b8301840190848101908b831115615bf557600080fd5b938501935b82851015615c1357845182529385019390850190615bfa565b60608b01519097509450505080831115615c2c57600080fd5b50506154b187828801615b32565b600080600080600060a08688031215615c5257600080fd5b8551615c5d81614d7a565b8095505060208601519350604086015192506060860151615c7d81614cd6565b60808701519092506001600160401b03811115615c9957600080fd5b61542788828901615b32565b60098110615cc357634e487b7160e01b600052602160045260246000fd5b9052565b615cd18184615ca5565b6040602082015260006112b46040830184614d3b565b60ff84168152615cfa6020820184615ca5565b6060604082015260006139c46060830184614d3b565b60208082526016908201527515985d5b1d0e8815985d5b1d081a5cc81b1bd8dad95960521b604082015260600190565b60208082526021908201527f5661756c743a20496e73756666696369656e7420657865637574696f6e2066656040820152606560f81b606082015260800190565b60ff8616815284602082015283604082015260018060a01b038316606082015260a0608082015260006128ac60a0830184614d3b565b600060ff821660ff8103615dcd57615dcd6155a8565b60010192915050565b600060208284031215615de857600080fd5b81516001600160401b03811115615dfe57600080fd5b6112b484828501615aca565b60ff85168152608060208201526000615e266080830186614de0565b8281036040840152615e388186615a55565b905082810360608401526128ac8185614d3b565b60008251615e5e818460208701614d17565b919091019291505056fea26469706673582212205459090a9197c3eb0e420d9e66b1116b4f2633063425864ae78cd027043e8ce064736f6c634300081800335661756c743a20496e76616c6964204164647265737300000000000000000000",
  "devdoc": {
    "errors": {
      "AddressEmptyCode(address)": [
        {
          "details": "There's no code at `target` (it is not a contract)."
        }
      ],
      "AddressInsufficientBalance(address)": [
        {
          "details": "The ETH balance of the account is not enough to perform the operation."
        }
      ],
      "ERC20InsufficientAllowance(address,uint256,uint256)": [
        {
          "details": "Indicates a failure with the `spender`s `allowance`. Used in transfers.",
          "params": {
            "allowance": "Amount of tokens a `spender` is allowed to operate with.",
            "needed": "Minimum amount required to perform a transfer.",
            "spender": "Address that may be allowed to operate on tokens without being their owner."
          }
        }
      ],
      "ERC20InsufficientBalance(address,uint256,uint256)": [
        {
          "details": "Indicates an error related to the current `balance` of a `sender`. Used in transfers.",
          "params": {
            "balance": "Current balance for the interacting account.",
            "needed": "Minimum amount required to perform a transfer.",
            "sender": "Address whose tokens are being transferred."
          }
        }
      ],
      "ERC20InvalidApprover(address)": [
        {
          "details": "Indicates a failure with the `approver` of a token to be approved. Used in approvals.",
          "params": {
            "approver": "Address initiating an approval operation."
          }
        }
      ],
      "ERC20InvalidReceiver(address)": [
        {
          "details": "Indicates a failure with the token `receiver`. Used in transfers.",
          "params": {
            "receiver": "Address to which tokens are being transferred."
          }
        }
      ],
      "ERC20InvalidSender(address)": [
        {
          "details": "Indicates a failure with the token `sender`. Used in transfers.",
          "params": {
            "sender": "Address whose tokens are being transferred."
          }
        }
      ],
      "ERC20InvalidSpender(address)": [
        {
          "details": "Indicates a failure with the `spender` to be approved. Used in approvals.",
          "params": {
            "spender": "Address that may be allowed to operate on tokens without being their owner."
          }
        }
      ],
      "EnforcedPause()": [
        {
          "details": "The operation failed because the contract is paused."
        }
      ],
      "ExpectedPause()": [
        {
          "details": "The operation failed because the contract is not paused."
        }
      ],
      "FailedInnerCall()": [
        {
          "details": "A call to an address target failed. The target may have reverted."
        }
      ],
      "OwnableInvalidOwner(address)": [
        {
          "details": "The owner is not a valid owner account. (eg. `address(0)`)"
        }
      ],
      "OwnableUnauthorizedAccount(address)": [
        {
          "details": "The caller account is not authorized to perform an operation."
        }
      ],
      "ReentrancyGuardReentrantCall()": [
        {
          "details": "Unauthorized reentrant call."
        }
      ],
      "SafeERC20FailedDecreaseAllowance(address,uint256,uint256)": [
        {
          "details": "Indicates a failed `decreaseAllowance` request."
        }
      ],
      "SafeERC20FailedOperation(address)": [
        {
          "details": "An operation with an ERC20 token failed."
        }
      ]
    },
    "events": {
      "Approval(address,address,uint256)": {
        "details": "Emitted when the allowance of a `spender` for an `owner` is set by a call to {approve}. `value` is the new allowance."
      },
      "Paused(address)": {
        "details": "Emitted when the pause is triggered by `account`."
      },
      "Transfer(address,address,uint256)": {
        "details": "Emitted when `value` tokens are moved from one account (`from`) to another (`to`). Note that `value` may be zero."
      },
      "Unpaused(address)": {
        "details": "Emitted when the pause is lifted by `account`."
      }
    },
    "kind": "dev",
    "methods": {
      "allowance(address,address)": {
        "details": "See {IERC20-allowance}."
      },
      "approve(address,uint256)": {
        "details": "See {IERC20-approve}. NOTE: If `value` is the maximum `uint256`, the allowance is not updated on `transferFrom`. This is semantically equivalent to an infinite approval. Requirements: - `spender` cannot be the zero address."
      },
      "balanceOf(address)": {
        "details": "See {IERC20-balanceOf}."
      },
      "decimals()": {
        "details": "Returns the number of decimals used to get its user representation. For example, if `decimals` equals `2`, a balance of `505` tokens should be displayed to a user as `5.05` (`505 / 10 ** 2`). Tokens usually opt for a value of 18, imitating the relationship between Ether and Wei. This is the default value returned by this function, unless it's overridden. NOTE: This information is only used for _display_ purposes: it in no way affects any of the arithmetic of the contract, including {IERC20-balanceOf} and {IERC20-transfer}."
      },
      "name()": {
        "details": "Returns the name of the token."
      },
      "owner()": {
        "details": "Returns the address of the current owner."
      },
      "paused()": {
        "details": "Returns true if the contract is paused, and false otherwise."
      },
      "renounceOwnership()": {
        "details": "Leaves the contract without owner. It will not be possible to call `onlyOwner` functions. Can only be called by the current owner. NOTE: Renouncing ownership will leave the contract without an owner, thereby disabling any functionality that is only available to the owner."
      },
      "symbol()": {
        "details": "Returns the symbol of the token, usually a shorter version of the name."
      },
      "totalSupply()": {
        "details": "See {IERC20-totalSupply}."
      },
      "transfer(address,uint256)": {
        "details": "See {IERC20-transfer}. Requirements: - `to` cannot be the zero address. - the caller must have a balance of at least `value`."
      },
      "transferFrom(address,address,uint256)": {
        "details": "See {IERC20-transferFrom}. Emits an {Approval} event indicating the updated allowance. This is not required by the EIP. See the note at the beginning of {ERC20}. NOTE: Does not update the allowance if the current allowance is the maximum `uint256`. Requirements: - `from` and `to` cannot be the zero address. - `from` must have a balance of at least `value`. - the caller must have allowance for ``from``'s tokens of at least `value`."
      },
      "transferOwnership(address)": {
        "details": "Transfers ownership of the contract to a new account (`newOwner`). Can only be called by the current owner."
      }
    },
    "version": 1
  },
  "userdoc": {
    "kind": "user",
    "methods": {},
    "version": 1
  },
  "storageLayout": {
    "storage": [
      {
        "astId": 8,
        "contract": "contracts/vaults/theseus/Vault.sol:Vault",
        "label": "_owner",
        "offset": 0,
        "slot": "0",
        "type": "t_address"
      },
      {
        "astId": 307,
        "contract": "contracts/vaults/theseus/Vault.sol:Vault",
        "label": "_balances",
        "offset": 0,
        "slot": "1",
        "type": "t_mapping(t_address,t_uint256)"
      },
      {
        "astId": 313,
        "contract": "contracts/vaults/theseus/Vault.sol:Vault",
        "label": "_allowances",
        "offset": 0,
        "slot": "2",
        "type": "t_mapping(t_address,t_mapping(t_address,t_uint256))"
      },
      {
        "astId": 315,
        "contract": "contracts/vaults/theseus/Vault.sol:Vault",
        "label": "_totalSupply",
        "offset": 0,
        "slot": "3",
        "type": "t_uint256"
      },
      {
        "astId": 317,
        "contract": "contracts/vaults/theseus/Vault.sol:Vault",
        "label": "_name",
        "offset": 0,
        "slot": "4",
        "type": "t_string_storage"
      },
      {
        "astId": 319,
        "contract": "contracts/vaults/theseus/Vault.sol:Vault",
        "label": "_symbol",
        "offset": 0,
        "slot": "5",
        "type": "t_string_storage"
      },
      {
        "astId": 1555,
        "contract": "contracts/vaults/theseus/Vault.sol:Vault",
        "label": "_paused",
        "offset": 0,
        "slot": "6",
        "type": "t_bool"
      },
      {
        "astId": 1674,
        "contract": "contracts/vaults/theseus/Vault.sol:Vault",
        "label": "_status",
        "offset": 0,
        "slot": "7",
        "type": "t_uint256"
      },
      {
        "astId": 6481,
        "contract": "contracts/vaults/theseus/Vault.sol:Vault",
        "label": "masterContract",
        "offset": 0,
        "slot": "8",
        "type": "t_address"
      },
      {
        "astId": 6483,
        "contract": "contracts/vaults/theseus/Vault.sol:Vault",
        "label": "admin",
        "offset": 0,
        "slot": "9",
        "type": "t_address"
      },
      {
        "astId": 6485,
        "contract": "contracts/vaults/theseus/Vault.sol:Vault",
        "label": "treasury",
        "offset": 0,
        "slot": "10",
        "type": "t_address_payable"
      },
      {
        "astId": 6487,
        "contract": "contracts/vaults/theseus/Vault.sol:Vault",
        "label": "tokenPriceConsumer",
        "offset": 0,
        "slot": "11",
        "type": "t_address"
      },
      {
        "astId": 6491,
        "contract": "contracts/vaults/theseus/Vault.sol:Vault",
        "label": "pluginIdToIndex",
        "offset": 0,
        "slot": "12",
        "type": "t_mapping(t_uint8,t_uint256)"
      },
      {
        "astId": 6495,
        "contract": "contracts/vaults/theseus/Vault.sol:Vault",
        "label": "plugins",
        "offset": 0,
        "slot": "13",
        "type": "t_array(t_struct(Plugin)6479_storage)dyn_storage"
      },
      {
        "astId": 6499,
        "contract": "contracts/vaults/theseus/Vault.sol:Vault",
        "label": "acceptedTokenMap",
        "offset": 0,
        "slot": "14",
        "type": "t_mapping(t_address,t_bool)"
      },
      {
        "astId": 6502,
        "contract": "contracts/vaults/theseus/Vault.sol:Vault",
        "label": "acceptedTokens",
        "offset": 0,
        "slot": "15",
        "type": "t_array(t_address)dyn_storage"
      },
      {
        "astId": 6506,
        "contract": "contracts/vaults/theseus/Vault.sol:Vault",
        "label": "depositAllowedTokenMap",
        "offset": 0,
        "slot": "16",
        "type": "t_mapping(t_address,t_bool)"
      },
      {
        "astId": 6509,
        "contract": "contracts/vaults/theseus/Vault.sol:Vault",
        "label": "depositAllowedTokens",
        "offset": 0,
        "slot": "17",
        "type": "t_array(t_address)dyn_storage"
      },
      {
        "astId": 6511,
        "contract": "contracts/vaults/theseus/Vault.sol:Vault",
        "label": "selectedPluginId",
        "offset": 0,
        "slot": "18",
        "type": "t_uint8"
      },
      {
        "astId": 6513,
        "contract": "contracts/vaults/theseus/Vault.sol:Vault",
        "label": "selectedPoolId",
        "offset": 1,
        "slot": "18",
        "type": "t_uint8"
      },
      {
        "astId": 6516,
        "contract": "contracts/vaults/theseus/Vault.sol:Vault",
        "label": "vaultLockers",
        "offset": 0,
        "slot": "19",
        "type": "t_array(t_address)dyn_storage"
      },
      {
        "astId": 6519,
        "contract": "contracts/vaults/theseus/Vault.sol:Vault",
        "label": "vaultManagers",
        "offset": 0,
        "slot": "20",
        "type": "t_array(t_address)dyn_storage"
      },
      {
        "astId": 6522,
        "contract": "contracts/vaults/theseus/Vault.sol:Vault",
        "label": "lpRate",
        "offset": 0,
        "slot": "21",
        "type": "t_uint256"
      },
      {
        "astId": 6524,
        "contract": "contracts/vaults/theseus/Vault.sol:Vault",
        "label": "protocolFeePercentage",
        "offset": 0,
        "slot": "22",
        "type": "t_uint256"
      },
      {
        "astId": 6526,
        "contract": "contracts/vaults/theseus/Vault.sol:Vault",
        "label": "protocolFeeInVault",
        "offset": 0,
        "slot": "23",
        "type": "t_uint256"
      },
      {
        "astId": 6528,
        "contract": "contracts/vaults/theseus/Vault.sol:Vault",
        "label": "depositMinExecFee",
        "offset": 0,
        "slot": "24",
        "type": "t_uint256"
      },
      {
        "astId": 6530,
        "contract": "contracts/vaults/theseus/Vault.sol:Vault",
        "label": "withdrawMinExecFee",
        "offset": 0,
        "slot": "25",
        "type": "t_uint256"
      },
      {
        "astId": 6540,
        "contract": "contracts/vaults/theseus/Vault.sol:Vault",
        "label": "lifiReceiverWhiteList",
        "offset": 0,
        "slot": "26",
        "type": "t_mapping(t_address,t_struct(lifiWhiteListReceiver)6535_storage)"
      }
    ],
    "types": {
      "t_address": {
        "encoding": "inplace",
        "label": "address",
        "numberOfBytes": "20"
      },
      "t_address_payable": {
        "encoding": "inplace",
        "label": "address payable",
        "numberOfBytes": "20"
      },
      "t_array(t_address)dyn_storage": {
        "base": "t_address",
        "encoding": "dynamic_array",
        "label": "address[]",
        "numberOfBytes": "32"
      },
      "t_array(t_struct(Plugin)6479_storage)dyn_storage": {
        "base": "t_struct(Plugin)6479_storage",
        "encoding": "dynamic_array",
        "label": "struct Vault.Plugin[]",
        "numberOfBytes": "32"
      },
      "t_bool": {
        "encoding": "inplace",
        "label": "bool",
        "numberOfBytes": "1"
      },
      "t_mapping(t_address,t_bool)": {
        "encoding": "mapping",
        "key": "t_address",
        "label": "mapping(address => bool)",
        "numberOfBytes": "32",
        "value": "t_bool"
      },
      "t_mapping(t_address,t_mapping(t_address,t_uint256))": {
        "encoding": "mapping",
        "key": "t_address",
        "label": "mapping(address => mapping(address => uint256))",
        "numberOfBytes": "32",
        "value": "t_mapping(t_address,t_uint256)"
      },
      "t_mapping(t_address,t_struct(lifiWhiteListReceiver)6535_storage)": {
        "encoding": "mapping",
        "key": "t_address",
        "label": "mapping(address => struct Vault.lifiWhiteListReceiver)",
        "numberOfBytes": "32",
        "value": "t_struct(lifiWhiteListReceiver)6535_storage"
      },
      "t_mapping(t_address,t_uint256)": {
        "encoding": "mapping",
        "key": "t_address",
        "label": "mapping(address => uint256)",
        "numberOfBytes": "32",
        "value": "t_uint256"
      },
      "t_mapping(t_uint8,t_uint256)": {
        "encoding": "mapping",
        "key": "t_uint8",
        "label": "mapping(uint8 => uint256)",
        "numberOfBytes": "32",
        "value": "t_uint256"
      },
      "t_string_storage": {
        "encoding": "bytes",
        "label": "string",
        "numberOfBytes": "32"
      },
      "t_struct(Plugin)6479_storage": {
        "encoding": "inplace",
        "label": "struct Vault.Plugin",
        "members": [
          {
            "astId": 6476,
            "contract": "contracts/vaults/theseus/Vault.sol:Vault",
            "label": "pluginAddress",
            "offset": 0,
            "slot": "0",
            "type": "t_address"
          },
          {
            "astId": 6478,
            "contract": "contracts/vaults/theseus/Vault.sol:Vault",
            "label": "pluginId",
            "offset": 20,
            "slot": "0",
            "type": "t_uint8"
          }
        ],
        "numberOfBytes": "32"
      },
      "t_struct(lifiWhiteListReceiver)6535_storage": {
        "encoding": "inplace",
        "label": "struct Vault.lifiWhiteListReceiver",
        "members": [
          {
            "astId": 6532,
            "contract": "contracts/vaults/theseus/Vault.sol:Vault",
            "label": "chainId",
            "offset": 0,
            "slot": "0",
            "type": "t_uint256"
          },
          {
            "astId": 6534,
            "contract": "contracts/vaults/theseus/Vault.sol:Vault",
            "label": "isWhiteListed",
            "offset": 0,
            "slot": "1",
            "type": "t_bool"
          }
        ],
        "numberOfBytes": "64"
      },
      "t_uint256": {
        "encoding": "inplace",
        "label": "uint256",
        "numberOfBytes": "32"
      },
      "t_uint8": {
        "encoding": "inplace",
        "label": "uint8",
        "numberOfBytes": "1"
      }
    }
  }
}