{
  "address": "0xf695C44b03Ac7cf0E1B19CC5B803Cb759Ca7a640",
  "abi": [
    {
      "inputs": [
        {
          "internalType": "address",
          "name": "_master",
          "type": "address"
        },
        {
          "internalType": "address",
          "name": "_tokenPriceConsumer",
          "type": "address"
        },
        {
          "internalType": "address payable",
          "name": "_treasury",
          "type": "address"
        }
      ],
      "stateMutability": "nonpayable",
      "type": "constructor"
    },
    {
      "inputs": [
        {
          "internalType": "address",
          "name": "target",
          "type": "address"
        }
      ],
      "name": "AddressEmptyCode",
      "type": "error"
    },
    {
      "inputs": [
        {
          "internalType": "address",
          "name": "account",
          "type": "address"
        }
      ],
      "name": "AddressInsufficientBalance",
      "type": "error"
    },
    {
      "inputs": [
        {
          "internalType": "address",
          "name": "spender",
          "type": "address"
        },
        {
          "internalType": "uint256",
          "name": "allowance",
          "type": "uint256"
        },
        {
          "internalType": "uint256",
          "name": "needed",
          "type": "uint256"
        }
      ],
      "name": "ERC20InsufficientAllowance",
      "type": "error"
    },
    {
      "inputs": [
        {
          "internalType": "address",
          "name": "sender",
          "type": "address"
        },
        {
          "internalType": "uint256",
          "name": "balance",
          "type": "uint256"
        },
        {
          "internalType": "uint256",
          "name": "needed",
          "type": "uint256"
        }
      ],
      "name": "ERC20InsufficientBalance",
      "type": "error"
    },
    {
      "inputs": [
        {
          "internalType": "address",
          "name": "approver",
          "type": "address"
        }
      ],
      "name": "ERC20InvalidApprover",
      "type": "error"
    },
    {
      "inputs": [
        {
          "internalType": "address",
          "name": "receiver",
          "type": "address"
        }
      ],
      "name": "ERC20InvalidReceiver",
      "type": "error"
    },
    {
      "inputs": [
        {
          "internalType": "address",
          "name": "sender",
          "type": "address"
        }
      ],
      "name": "ERC20InvalidSender",
      "type": "error"
    },
    {
      "inputs": [
        {
          "internalType": "address",
          "name": "spender",
          "type": "address"
        }
      ],
      "name": "ERC20InvalidSpender",
      "type": "error"
    },
    {
      "inputs": [],
      "name": "FailedInnerCall",
      "type": "error"
    },
    {
      "inputs": [
        {
          "internalType": "address",
          "name": "owner",
          "type": "address"
        }
      ],
      "name": "OwnableInvalidOwner",
      "type": "error"
    },
    {
      "inputs": [
        {
          "internalType": "address",
          "name": "account",
          "type": "address"
        }
      ],
      "name": "OwnableUnauthorizedAccount",
      "type": "error"
    },
    {
      "inputs": [],
      "name": "ReentrancyGuardReentrantCall",
      "type": "error"
    },
    {
      "inputs": [
        {
          "internalType": "address",
          "name": "token",
          "type": "address"
        }
      ],
      "name": "SafeERC20FailedOperation",
      "type": "error"
    },
    {
      "anonymous": false,
      "inputs": [
        {
          "indexed": false,
          "internalType": "address",
          "name": "_token",
          "type": "address"
        }
      ],
      "name": "AddAcceptedToken",
      "type": "event"
    },
    {
      "anonymous": false,
      "inputs": [
        {
          "indexed": false,
          "internalType": "address",
          "name": "_token",
          "type": "address"
        }
      ],
      "name": "AddDepositAllowedToken",
      "type": "event"
    },
    {
      "anonymous": false,
      "inputs": [
        {
          "indexed": false,
          "internalType": "address",
          "name": "_token",
          "type": "address"
        },
        {
          "indexed": false,
          "internalType": "uint256",
          "name": "_amount",
          "type": "uint256"
        }
      ],
      "name": "AddDepositRequest",
      "type": "event"
    },
    {
      "anonymous": false,
      "inputs": [
        {
          "indexed": false,
          "internalType": "uint8",
          "name": "_pluginId",
          "type": "uint8"
        },
        {
          "indexed": false,
          "internalType": "address",
          "name": "_pluginAddress",
          "type": "address"
        }
      ],
      "name": "AddPlugin",
      "type": "event"
    },
    {
      "anonymous": false,
      "inputs": [
        {
          "indexed": false,
          "internalType": "uint256",
          "name": "_lpAmount",
          "type": "uint256"
        },
        {
          "indexed": false,
          "internalType": "uint8",
          "name": "_pluginId",
          "type": "uint8"
        },
        {
          "indexed": false,
          "internalType": "uint8",
          "name": "_poolId",
          "type": "uint8"
        },
        {
          "indexed": false,
          "internalType": "address",
          "name": "_receiver",
          "type": "address"
        }
      ],
      "name": "AddWithdrawalRequest",
      "type": "event"
    },
    {
      "anonymous": false,
      "inputs": [
        {
          "indexed": true,
          "internalType": "address",
          "name": "owner",
          "type": "address"
        },
        {
          "indexed": true,
          "internalType": "address",
          "name": "spender",
          "type": "address"
        },
        {
          "indexed": false,
          "internalType": "uint256",
          "name": "value",
          "type": "uint256"
        }
      ],
      "name": "Approval",
      "type": "event"
    },
    {
      "anonymous": false,
      "inputs": [
        {
          "indexed": false,
          "internalType": "uint8",
          "name": "_pluginId",
          "type": "uint8"
        },
        {
          "indexed": false,
          "internalType": "address[]",
          "name": "_tokens",
          "type": "address[]"
        },
        {
          "indexed": false,
          "internalType": "uint256[]",
          "name": "_amounts",
          "type": "uint256[]"
        }
      ],
      "name": "ApproveTokens",
      "type": "event"
    },
    {
      "anonymous": false,
      "inputs": [
        {
          "indexed": false,
          "internalType": "uint8",
          "name": "_pluginId",
          "type": "uint8"
        },
        {
          "indexed": false,
          "internalType": "enum IPlugin.ActionType",
          "name": "_actionType",
          "type": "uint8"
        },
        {
          "indexed": false,
          "internalType": "bytes",
          "name": "_payload",
          "type": "bytes"
        }
      ],
      "name": "Execute",
      "type": "event"
    },
    {
      "anonymous": false,
      "inputs": [
        {
          "indexed": false,
          "internalType": "address",
          "name": "_oldMaster",
          "type": "address"
        },
        {
          "indexed": false,
          "internalType": "address",
          "name": "_newMaster",
          "type": "address"
        }
      ],
      "name": "MasterUpdated",
      "type": "event"
    },
    {
      "anonymous": false,
      "inputs": [
        {
          "indexed": true,
          "internalType": "address",
          "name": "previousOwner",
          "type": "address"
        },
        {
          "indexed": true,
          "internalType": "address",
          "name": "newOwner",
          "type": "address"
        }
      ],
      "name": "OwnershipTransferred",
      "type": "event"
    },
    {
      "anonymous": false,
      "inputs": [
        {
          "indexed": false,
          "internalType": "address",
          "name": "_token",
          "type": "address"
        }
      ],
      "name": "RemoveAcceptedToken",
      "type": "event"
    },
    {
      "anonymous": false,
      "inputs": [
        {
          "indexed": false,
          "internalType": "address",
          "name": "_token",
          "type": "address"
        }
      ],
      "name": "RemoveDepositAllowedToken",
      "type": "event"
    },
    {
      "anonymous": false,
      "inputs": [
        {
          "indexed": false,
          "internalType": "uint8",
          "name": "_pluginId",
          "type": "uint8"
        }
      ],
      "name": "RemovePlugin",
      "type": "event"
    },
    {
      "anonymous": false,
      "inputs": [
        {
          "indexed": false,
          "internalType": "uint8",
          "name": "_pluginId",
          "type": "uint8"
        },
        {
          "indexed": false,
          "internalType": "uint8",
          "name": "_poolId",
          "type": "uint8"
        }
      ],
      "name": "SelectPluginAndPool",
      "type": "event"
    },
    {
      "anonymous": false,
      "inputs": [
        {
          "indexed": false,
          "internalType": "uint256",
          "name": "_depositMinExecFee",
          "type": "uint256"
        },
        {
          "indexed": false,
          "internalType": "uint256",
          "name": "_withdrawMinExecFee",
          "type": "uint256"
        }
      ],
      "name": "SetExecutionFee",
      "type": "event"
    },
    {
      "anonymous": false,
      "inputs": [
        {
          "indexed": false,
          "internalType": "uint256",
          "name": "_protocolFeePercentage",
          "type": "uint256"
        }
      ],
      "name": "SetProtocolFeePercentage",
      "type": "event"
    },
    {
      "anonymous": false,
      "inputs": [
        {
          "indexed": false,
          "internalType": "address payable",
          "name": "treasury",
          "type": "address"
        }
      ],
      "name": "SetTreasury",
      "type": "event"
    },
    {
      "anonymous": false,
      "inputs": [
        {
          "indexed": false,
          "internalType": "address[]",
          "name": "_vaultLockers",
          "type": "address[]"
        }
      ],
      "name": "SetVaultLockers",
      "type": "event"
    },
    {
      "anonymous": false,
      "inputs": [
        {
          "indexed": false,
          "internalType": "address[]",
          "name": "_vaultManagers",
          "type": "address[]"
        }
      ],
      "name": "SetVaultManagers",
      "type": "event"
    },
    {
      "anonymous": false,
      "inputs": [
        {
          "indexed": false,
          "internalType": "uint8",
          "name": "_selectedPluginId",
          "type": "uint8"
        },
        {
          "indexed": false,
          "internalType": "uint8",
          "name": "_selectedPoolId",
          "type": "uint8"
        },
        {
          "indexed": false,
          "internalType": "address",
          "name": "_token",
          "type": "address"
        },
        {
          "indexed": false,
          "internalType": "uint256",
          "name": "_tokenAmount",
          "type": "uint256"
        }
      ],
      "name": "StakeToSelectedPool",
      "type": "event"
    },
    {
      "anonymous": false,
      "inputs": [
        {
          "indexed": false,
          "internalType": "address",
          "name": "_oldTokenPriceConsumer",
          "type": "address"
        },
        {
          "indexed": false,
          "internalType": "address",
          "name": "_newTokenPriceConsumer",
          "type": "address"
        }
      ],
      "name": "TokenPriceConsumerUpdated",
      "type": "event"
    },
    {
      "anonymous": false,
      "inputs": [
        {
          "indexed": true,
          "internalType": "address",
          "name": "from",
          "type": "address"
        },
        {
          "indexed": true,
          "internalType": "address",
          "name": "to",
          "type": "address"
        },
        {
          "indexed": false,
          "internalType": "uint256",
          "name": "value",
          "type": "uint256"
        }
      ],
      "name": "Transfer",
      "type": "event"
    },
    {
      "anonymous": false,
      "inputs": [
        {
          "indexed": false,
          "internalType": "uint256",
          "name": "_previousRate",
          "type": "uint256"
        },
        {
          "indexed": false,
          "internalType": "uint256",
          "name": "_lpRate",
          "type": "uint256"
        }
      ],
      "name": "UpdateLiquidityProviderRate",
      "type": "event"
    },
    {
      "anonymous": false,
      "inputs": [
        {
          "indexed": false,
          "internalType": "address",
          "name": "_token",
          "type": "address"
        },
        {
          "indexed": false,
          "internalType": "uint256",
          "name": "_amount",
          "type": "uint256"
        }
      ],
      "name": "WithdrawProtocolFee",
      "type": "event"
    },
    {
      "stateMutability": "payable",
      "type": "fallback"
    },
    {
      "inputs": [],
      "name": "ASSET_DECIMALS",
      "outputs": [
        {
          "internalType": "uint256",
          "name": "",
          "type": "uint256"
        }
      ],
      "stateMutability": "view",
      "type": "function"
    },
    {
      "inputs": [],
      "name": "BP_DENOMINATOR",
      "outputs": [
        {
          "internalType": "uint256",
          "name": "",
          "type": "uint256"
        }
      ],
      "stateMutability": "view",
      "type": "function"
    },
    {
      "inputs": [],
      "name": "LIFI_CONTRACT",
      "outputs": [
        {
          "internalType": "address",
          "name": "",
          "type": "address"
        }
      ],
      "stateMutability": "view",
      "type": "function"
    },
    {
      "inputs": [],
      "name": "MAX_FEE",
      "outputs": [
        {
          "internalType": "uint256",
          "name": "",
          "type": "uint256"
        }
      ],
      "stateMutability": "view",
      "type": "function"
    },
    {
      "inputs": [],
      "name": "MOZAIC_DECIMALS",
      "outputs": [
        {
          "internalType": "uint256",
          "name": "",
          "type": "uint256"
        }
      ],
      "stateMutability": "view",
      "type": "function"
    },
    {
      "inputs": [
        {
          "internalType": "address",
          "name": "",
          "type": "address"
        }
      ],
      "name": "acceptedTokenMap",
      "outputs": [
        {
          "internalType": "bool",
          "name": "",
          "type": "bool"
        }
      ],
      "stateMutability": "view",
      "type": "function"
    },
    {
      "inputs": [
        {
          "internalType": "uint256",
          "name": "",
          "type": "uint256"
        }
      ],
      "name": "acceptedTokens",
      "outputs": [
        {
          "internalType": "address",
          "name": "",
          "type": "address"
        }
      ],
      "stateMutability": "view",
      "type": "function"
    },
    {
      "inputs": [
        {
          "internalType": "address",
          "name": "_token",
          "type": "address"
        }
      ],
      "name": "addAcceptedToken",
      "outputs": [],
      "stateMutability": "nonpayable",
      "type": "function"
    },
    {
      "inputs": [
        {
          "internalType": "address",
          "name": "_token",
          "type": "address"
        }
      ],
      "name": "addDepositAllowedToken",
      "outputs": [],
      "stateMutability": "nonpayable",
      "type": "function"
    },
    {
      "inputs": [
        {
          "internalType": "address",
          "name": "_token",
          "type": "address"
        },
        {
          "internalType": "uint256",
          "name": "_tokenAmount",
          "type": "uint256"
        },
        {
          "internalType": "address",
          "name": "_receiver",
          "type": "address"
        },
        {
          "internalType": "bytes",
          "name": "_payload",
          "type": "bytes"
        }
      ],
      "name": "addDepositRequest",
      "outputs": [],
      "stateMutability": "payable",
      "type": "function"
    },
    {
      "inputs": [
        {
          "internalType": "uint8",
          "name": "_pluginId",
          "type": "uint8"
        },
        {
          "internalType": "address",
          "name": "_pluginAddress",
          "type": "address"
        }
      ],
      "name": "addPlugin",
      "outputs": [],
      "stateMutability": "nonpayable",
      "type": "function"
    },
    {
      "inputs": [
        {
          "internalType": "uint256",
          "name": "_lpAmount",
          "type": "uint256"
        },
        {
          "internalType": "uint8",
          "name": "_pluginId",
          "type": "uint8"
        },
        {
          "internalType": "uint8",
          "name": "_poolId",
          "type": "uint8"
        },
        {
          "internalType": "address",
          "name": "_receiver",
          "type": "address"
        },
        {
          "internalType": "bytes",
          "name": "payload",
          "type": "bytes"
        }
      ],
      "name": "addWithdrawalRequest",
      "outputs": [],
      "stateMutability": "payable",
      "type": "function"
    },
    {
      "inputs": [
        {
          "internalType": "address",
          "name": "owner",
          "type": "address"
        },
        {
          "internalType": "address",
          "name": "spender",
          "type": "address"
        }
      ],
      "name": "allowance",
      "outputs": [
        {
          "internalType": "uint256",
          "name": "",
          "type": "uint256"
        }
      ],
      "stateMutability": "view",
      "type": "function"
    },
    {
      "inputs": [
        {
          "internalType": "address",
          "name": "spender",
          "type": "address"
        },
        {
          "internalType": "uint256",
          "name": "value",
          "type": "uint256"
        }
      ],
      "name": "approve",
      "outputs": [
        {
          "internalType": "bool",
          "name": "",
          "type": "bool"
        }
      ],
      "stateMutability": "nonpayable",
      "type": "function"
    },
    {
      "inputs": [
        {
          "internalType": "uint8",
          "name": "_pluginId",
          "type": "uint8"
        },
        {
          "internalType": "address[]",
          "name": "_tokens",
          "type": "address[]"
        },
        {
          "internalType": "uint256[]",
          "name": "_amounts",
          "type": "uint256[]"
        }
      ],
      "name": "approveTokens",
      "outputs": [],
      "stateMutability": "nonpayable",
      "type": "function"
    },
    {
      "inputs": [
        {
          "internalType": "address",
          "name": "account",
          "type": "address"
        }
      ],
      "name": "balanceOf",
      "outputs": [
        {
          "internalType": "uint256",
          "name": "",
          "type": "uint256"
        }
      ],
      "stateMutability": "view",
      "type": "function"
    },
    {
      "inputs": [
        {
          "internalType": "uint256",
          "name": "_lpAmount",
          "type": "uint256"
        }
      ],
      "name": "burnLP",
      "outputs": [],
      "stateMutability": "nonpayable",
      "type": "function"
    },
    {
      "inputs": [
        {
          "internalType": "address",
          "name": "_tokenAddress",
          "type": "address"
        },
        {
          "internalType": "uint256",
          "name": "_tokenValueUsd",
          "type": "uint256"
        }
      ],
      "name": "calculateTokenAmountFromUsd",
      "outputs": [
        {
          "internalType": "uint256",
          "name": "",
          "type": "uint256"
        }
      ],
      "stateMutability": "view",
      "type": "function"
    },
    {
      "inputs": [
        {
          "internalType": "address",
          "name": "_tokenAddress",
          "type": "address"
        },
        {
          "internalType": "uint256",
          "name": "_tokenAmount",
          "type": "uint256"
        }
      ],
      "name": "calculateTokenValueInUsd",
      "outputs": [
        {
          "internalType": "uint256",
          "name": "",
          "type": "uint256"
        }
      ],
      "stateMutability": "view",
      "type": "function"
    },
    {
      "inputs": [
        {
          "internalType": "uint256",
          "name": "_amount",
          "type": "uint256"
        }
      ],
      "name": "convertAssetToLP",
      "outputs": [
        {
          "internalType": "uint256",
          "name": "",
          "type": "uint256"
        }
      ],
      "stateMutability": "view",
      "type": "function"
    },
    {
      "inputs": [
        {
          "internalType": "uint256",
          "name": "_amount",
          "type": "uint256"
        },
        {
          "internalType": "uint256",
          "name": "_from",
          "type": "uint256"
        },
        {
          "internalType": "uint256",
          "name": "_to",
          "type": "uint256"
        }
      ],
      "name": "convertDecimals",
      "outputs": [
        {
          "internalType": "uint256",
          "name": "",
          "type": "uint256"
        }
      ],
      "stateMutability": "pure",
      "type": "function"
    },
    {
      "inputs": [
        {
          "internalType": "uint256",
          "name": "_amount",
          "type": "uint256"
        }
      ],
      "name": "convertLPToAsset",
      "outputs": [
        {
          "internalType": "uint256",
          "name": "",
          "type": "uint256"
        }
      ],
      "stateMutability": "view",
      "type": "function"
    },
    {
      "inputs": [],
      "name": "decimals",
      "outputs": [
        {
          "internalType": "uint8",
          "name": "",
          "type": "uint8"
        }
      ],
      "stateMutability": "view",
      "type": "function"
    },
    {
      "inputs": [
        {
          "internalType": "address",
          "name": "",
          "type": "address"
        }
      ],
      "name": "depositAllowedTokenMap",
      "outputs": [
        {
          "internalType": "bool",
          "name": "",
          "type": "bool"
        }
      ],
      "stateMutability": "view",
      "type": "function"
    },
    {
      "inputs": [
        {
          "internalType": "uint256",
          "name": "",
          "type": "uint256"
        }
      ],
      "name": "depositAllowedTokens",
      "outputs": [
        {
          "internalType": "address",
          "name": "",
          "type": "address"
        }
      ],
      "stateMutability": "view",
      "type": "function"
    },
    {
      "inputs": [],
      "name": "depositMinExecFee",
      "outputs": [
        {
          "internalType": "uint256",
          "name": "",
          "type": "uint256"
        }
      ],
      "stateMutability": "view",
      "type": "function"
    },
    {
      "inputs": [
        {
          "internalType": "uint8",
          "name": "_pluginId",
          "type": "uint8"
        },
        {
          "internalType": "enum IPlugin.ActionType",
          "name": "_actionType",
          "type": "uint8"
        },
        {
          "internalType": "bytes",
          "name": "_payload",
          "type": "bytes"
        }
      ],
      "name": "execute",
      "outputs": [],
      "stateMutability": "nonpayable",
      "type": "function"
    },
    {
      "inputs": [],
      "name": "getAcceptedTokens",
      "outputs": [
        {
          "internalType": "address[]",
          "name": "",
          "type": "address[]"
        }
      ],
      "stateMutability": "view",
      "type": "function"
    },
    {
      "inputs": [],
      "name": "getBalance",
      "outputs": [
        {
          "internalType": "uint256",
          "name": "",
          "type": "uint256"
        }
      ],
      "stateMutability": "view",
      "type": "function"
    },
    {
      "inputs": [],
      "name": "getCurrentLiquidityProviderRate",
      "outputs": [
        {
          "internalType": "uint256",
          "name": "",
          "type": "uint256"
        }
      ],
      "stateMutability": "view",
      "type": "function"
    },
    {
      "inputs": [],
      "name": "getDepositAllowedTokens",
      "outputs": [
        {
          "internalType": "address[]",
          "name": "",
          "type": "address[]"
        }
      ],
      "stateMutability": "view",
      "type": "function"
    },
    {
      "inputs": [
        {
          "internalType": "uint8",
          "name": "_pluginId",
          "type": "uint8"
        }
      ],
      "name": "getPlugin",
      "outputs": [
        {
          "components": [
            {
              "internalType": "address",
              "name": "pluginAddress",
              "type": "address"
            },
            {
              "internalType": "uint8",
              "name": "pluginId",
              "type": "uint8"
            }
          ],
          "internalType": "struct Vault.Plugin",
          "name": "",
          "type": "tuple"
        }
      ],
      "stateMutability": "view",
      "type": "function"
    },
    {
      "inputs": [],
      "name": "getPlugins",
      "outputs": [
        {
          "components": [
            {
              "internalType": "address",
              "name": "pluginAddress",
              "type": "address"
            },
            {
              "internalType": "uint8",
              "name": "pluginId",
              "type": "uint8"
            }
          ],
          "internalType": "struct Vault.Plugin[]",
          "name": "",
          "type": "tuple[]"
        }
      ],
      "stateMutability": "view",
      "type": "function"
    },
    {
      "inputs": [],
      "name": "getPluginsCount",
      "outputs": [
        {
          "internalType": "uint256",
          "name": "",
          "type": "uint256"
        }
      ],
      "stateMutability": "view",
      "type": "function"
    },
    {
      "inputs": [
        {
          "internalType": "uint8",
          "name": "_pluginId",
          "type": "uint8"
        },
        {
          "internalType": "uint8",
          "name": "_poolId",
          "type": "uint8"
        }
      ],
      "name": "getPoolTokenInfo",
      "outputs": [
        {
          "internalType": "address",
          "name": "token",
          "type": "address"
        },
        {
          "internalType": "uint8",
          "name": "decimal",
          "type": "uint8"
        },
        {
          "internalType": "uint256",
          "name": "balance",
          "type": "uint256"
        }
      ],
      "stateMutability": "view",
      "type": "function"
    },
    {
      "inputs": [
        {
          "internalType": "uint8",
          "name": "_pluginId",
          "type": "uint8"
        },
        {
          "internalType": "uint8",
          "name": "_poolId",
          "type": "uint8"
        }
      ],
      "name": "getPoolTokenPrice",
      "outputs": [
        {
          "internalType": "uint256",
          "name": "",
          "type": "uint256"
        }
      ],
      "stateMutability": "view",
      "type": "function"
    },
    {
      "inputs": [
        {
          "internalType": "uint8",
          "name": "_pluginId",
          "type": "uint8"
        },
        {
          "internalType": "uint8",
          "name": "_poolId",
          "type": "uint8"
        }
      ],
      "name": "getTokensByPluginAndPoolId",
      "outputs": [
        {
          "internalType": "address[]",
          "name": "",
          "type": "address[]"
        }
      ],
      "stateMutability": "view",
      "type": "function"
    },
    {
      "inputs": [],
      "name": "getVaultStatus",
      "outputs": [
        {
          "internalType": "bool",
          "name": "",
          "type": "bool"
        }
      ],
      "stateMutability": "view",
      "type": "function"
    },
    {
      "inputs": [
        {
          "internalType": "address",
          "name": "_token",
          "type": "address"
        }
      ],
      "name": "isAcceptedToken",
      "outputs": [
        {
          "internalType": "bool",
          "name": "",
          "type": "bool"
        }
      ],
      "stateMutability": "view",
      "type": "function"
    },
    {
      "inputs": [
        {
          "internalType": "address",
          "name": "_token",
          "type": "address"
        }
      ],
      "name": "isDepositAllowedToken",
      "outputs": [
        {
          "internalType": "bool",
          "name": "",
          "type": "bool"
        }
      ],
      "stateMutability": "view",
      "type": "function"
    },
    {
      "inputs": [],
      "name": "lpRate",
      "outputs": [
        {
          "internalType": "uint256",
          "name": "",
          "type": "uint256"
        }
      ],
      "stateMutability": "view",
      "type": "function"
    },
    {
      "inputs": [],
      "name": "master",
      "outputs": [
        {
          "internalType": "address",
          "name": "",
          "type": "address"
        }
      ],
      "stateMutability": "view",
      "type": "function"
    },
    {
      "inputs": [],
      "name": "name",
      "outputs": [
        {
          "internalType": "string",
          "name": "",
          "type": "string"
        }
      ],
      "stateMutability": "view",
      "type": "function"
    },
    {
      "inputs": [],
      "name": "owner",
      "outputs": [
        {
          "internalType": "address",
          "name": "",
          "type": "address"
        }
      ],
      "stateMutability": "view",
      "type": "function"
    },
    {
      "inputs": [
        {
          "internalType": "uint8",
          "name": "",
          "type": "uint8"
        }
      ],
      "name": "pluginIdToIndex",
      "outputs": [
        {
          "internalType": "uint256",
          "name": "",
          "type": "uint256"
        }
      ],
      "stateMutability": "view",
      "type": "function"
    },
    {
      "inputs": [
        {
          "internalType": "uint256",
          "name": "",
          "type": "uint256"
        }
      ],
      "name": "plugins",
      "outputs": [
        {
          "internalType": "address",
          "name": "pluginAddress",
          "type": "address"
        },
        {
          "internalType": "uint8",
          "name": "pluginId",
          "type": "uint8"
        }
      ],
      "stateMutability": "view",
      "type": "function"
    },
    {
      "inputs": [],
      "name": "protocolFeeInVault",
      "outputs": [
        {
          "internalType": "uint256",
          "name": "",
          "type": "uint256"
        }
      ],
      "stateMutability": "view",
      "type": "function"
    },
    {
      "inputs": [],
      "name": "protocolFeePercentage",
      "outputs": [
        {
          "internalType": "uint256",
          "name": "",
          "type": "uint256"
        }
      ],
      "stateMutability": "view",
      "type": "function"
    },
    {
      "inputs": [
        {
          "internalType": "address",
          "name": "_token",
          "type": "address"
        }
      ],
      "name": "removeAcceptedToken",
      "outputs": [],
      "stateMutability": "nonpayable",
      "type": "function"
    },
    {
      "inputs": [
        {
          "internalType": "address",
          "name": "_token",
          "type": "address"
        }
      ],
      "name": "removeDepositAllowedToken",
      "outputs": [],
      "stateMutability": "nonpayable",
      "type": "function"
    },
    {
      "inputs": [
        {
          "internalType": "uint8",
          "name": "_pluginId",
          "type": "uint8"
        }
      ],
      "name": "removePlugin",
      "outputs": [],
      "stateMutability": "nonpayable",
      "type": "function"
    },
    {
      "inputs": [],
      "name": "renounceOwnership",
      "outputs": [],
      "stateMutability": "nonpayable",
      "type": "function"
    },
    {
      "inputs": [
        {
          "internalType": "uint8",
          "name": "_pluginId",
          "type": "uint8"
        },
        {
          "internalType": "uint8",
          "name": "_poolId",
          "type": "uint8"
        }
      ],
      "name": "selectPluginAndPool",
      "outputs": [],
      "stateMutability": "nonpayable",
      "type": "function"
    },
    {
      "inputs": [],
      "name": "selectedPluginId",
      "outputs": [
        {
          "internalType": "uint8",
          "name": "",
          "type": "uint8"
        }
      ],
      "stateMutability": "view",
      "type": "function"
    },
    {
      "inputs": [],
      "name": "selectedPoolId",
      "outputs": [
        {
          "internalType": "uint8",
          "name": "",
          "type": "uint8"
        }
      ],
      "stateMutability": "view",
      "type": "function"
    },
    {
      "inputs": [
        {
          "internalType": "uint256",
          "name": "_depositMinExecFee",
          "type": "uint256"
        },
        {
          "internalType": "uint256",
          "name": "_withdrawMinExecFee",
          "type": "uint256"
        }
      ],
      "name": "setExecutionFee",
      "outputs": [],
      "stateMutability": "nonpayable",
      "type": "function"
    },
    {
      "inputs": [
        {
          "internalType": "address",
          "name": "_newMaster",
          "type": "address"
        }
      ],
      "name": "setMaster",
      "outputs": [],
      "stateMutability": "nonpayable",
      "type": "function"
    },
    {
      "inputs": [
        {
          "internalType": "uint256",
          "name": "_protocolFeePercentage",
          "type": "uint256"
        }
      ],
      "name": "setProtocolFeePercentage",
      "outputs": [],
      "stateMutability": "nonpayable",
      "type": "function"
    },
    {
      "inputs": [
        {
          "internalType": "address",
          "name": "_tokenPriceConsumer",
          "type": "address"
        }
      ],
      "name": "setTokenPriceConsumer",
      "outputs": [],
      "stateMutability": "nonpayable",
      "type": "function"
    },
    {
      "inputs": [
        {
          "internalType": "address payable",
          "name": "_treasury",
          "type": "address"
        }
      ],
      "name": "setTreasury",
      "outputs": [],
      "stateMutability": "nonpayable",
      "type": "function"
    },
    {
      "inputs": [
        {
          "internalType": "address[]",
          "name": "_vaultLockers",
          "type": "address[]"
        }
      ],
      "name": "setVaultLockers",
      "outputs": [],
      "stateMutability": "nonpayable",
      "type": "function"
    },
    {
      "inputs": [
        {
          "internalType": "address[]",
          "name": "_vaultManagers",
          "type": "address[]"
        }
      ],
      "name": "setVaultManagers",
      "outputs": [],
      "stateMutability": "nonpayable",
      "type": "function"
    },
    {
      "inputs": [],
      "name": "symbol",
      "outputs": [
        {
          "internalType": "string",
          "name": "",
          "type": "string"
        }
      ],
      "stateMutability": "view",
      "type": "function"
    },
    {
      "inputs": [],
      "name": "tokenPriceConsumer",
      "outputs": [
        {
          "internalType": "address",
          "name": "",
          "type": "address"
        }
      ],
      "stateMutability": "view",
      "type": "function"
    },
    {
      "inputs": [],
      "name": "totalAssetInUsd",
      "outputs": [
        {
          "internalType": "uint256",
          "name": "_totalAsset",
          "type": "uint256"
        }
      ],
      "stateMutability": "view",
      "type": "function"
    },
    {
      "inputs": [],
      "name": "totalSupply",
      "outputs": [
        {
          "internalType": "uint256",
          "name": "",
          "type": "uint256"
        }
      ],
      "stateMutability": "view",
      "type": "function"
    },
    {
      "inputs": [
        {
          "internalType": "address",
          "name": "to",
          "type": "address"
        },
        {
          "internalType": "uint256",
          "name": "value",
          "type": "uint256"
        }
      ],
      "name": "transfer",
      "outputs": [
        {
          "internalType": "bool",
          "name": "",
          "type": "bool"
        }
      ],
      "stateMutability": "nonpayable",
      "type": "function"
    },
    {
      "inputs": [
        {
          "internalType": "uint8",
          "name": "_pluginId",
          "type": "uint8"
        },
        {
          "internalType": "uint256",
          "name": "_amount",
          "type": "uint256"
        }
      ],
      "name": "transferExecutionFee",
      "outputs": [],
      "stateMutability": "nonpayable",
      "type": "function"
    },
    {
      "inputs": [
        {
          "internalType": "address",
          "name": "from",
          "type": "address"
        },
        {
          "internalType": "address",
          "name": "to",
          "type": "address"
        },
        {
          "internalType": "uint256",
          "name": "value",
          "type": "uint256"
        }
      ],
      "name": "transferFrom",
      "outputs": [
        {
          "internalType": "bool",
          "name": "",
          "type": "bool"
        }
      ],
      "stateMutability": "nonpayable",
      "type": "function"
    },
    {
      "inputs": [
        {
          "internalType": "address",
          "name": "_account",
          "type": "address"
        },
        {
          "internalType": "uint256",
          "name": "_lpAmount",
          "type": "uint256"
        }
      ],
      "name": "transferLP",
      "outputs": [],
      "stateMutability": "nonpayable",
      "type": "function"
    },
    {
      "inputs": [
        {
          "internalType": "address",
          "name": "newOwner",
          "type": "address"
        }
      ],
      "name": "transferOwnership",
      "outputs": [],
      "stateMutability": "nonpayable",
      "type": "function"
    },
    {
      "inputs": [],
      "name": "treasury",
      "outputs": [
        {
          "internalType": "address payable",
          "name": "",
          "type": "address"
        }
      ],
      "stateMutability": "view",
      "type": "function"
    },
    {
      "inputs": [
        {
          "internalType": "uint256",
          "name": "",
          "type": "uint256"
        }
      ],
      "name": "vaultLockers",
      "outputs": [
        {
          "internalType": "address",
          "name": "",
          "type": "address"
        }
      ],
      "stateMutability": "view",
      "type": "function"
    },
    {
      "inputs": [
        {
          "internalType": "uint256",
          "name": "",
          "type": "uint256"
        }
      ],
      "name": "vaultManagers",
      "outputs": [
        {
          "internalType": "address",
          "name": "",
          "type": "address"
        }
      ],
      "stateMutability": "view",
      "type": "function"
    },
    {
      "inputs": [],
      "name": "withdrawMinExecFee",
      "outputs": [
        {
          "internalType": "uint256",
          "name": "",
          "type": "uint256"
        }
      ],
      "stateMutability": "view",
      "type": "function"
    },
    {
      "inputs": [
        {
          "internalType": "address",
          "name": "_token",
          "type": "address"
        }
      ],
      "name": "withdrawProtocolFee",
      "outputs": [],
      "stateMutability": "nonpayable",
      "type": "function"
    },
    {
      "stateMutability": "payable",
      "type": "receive"
    }
  ],
  "transactionHash": "0x1bc2bdda3cb7fa8440015bbae3cc803b48353ee544c30f982a6587b0b90f1daa",
  "args": [
    "0x7E9BA79614FeC2C52e85842502df66A6dB107fde",
    "0x8fe460Af05A01AeF08890D6010a556dEA03b74b7",
    "0x7E9BA79614FeC2C52e85842502df66A6dB107fde"
  ],
  "numDeployments": 1,
  "solcInputHash": "81aab4c23c18c99e979c0f0ecba675b0",
  "bytecode": "0x6080604052670de0b6b3a76400006013553480156200001d57600080fd5b50604051620055de380380620055de833981016040819052620000409162000264565b604080518082018252601181527004d6f7a6169632054686573657573204c5607c1b6020808301919091528251808401909352600a83526904d4f5a2d5448452d4c560b41b90830152903380620000b257604051631e4fbdf760e01b8152600060048201526024015b60405180910390fd5b620000bd81620001fb565b506004620000cc83826200035f565b506005620000db82826200035f565b50506001600655506001600160a01b0383166200012a5760405162461bcd60e51b81526020600482015260166024820152600080516020620055be8339815191526044820152606401620000a9565b6001600160a01b038216620001715760405162461bcd60e51b81526020600482015260166024820152600080516020620055be8339815191526044820152606401620000a9565b6001600160a01b038116620001b85760405162461bcd60e51b81526020600482015260166024820152600080516020620055be8339815191526044820152606401620000a9565b600780546001600160a01b039485166001600160a01b0319918216179091556009805493851693821693909317909255600880549190931691161790556200042b565b600080546001600160a01b038381166001600160a01b0319831681178455604051919092169283917f8be0079c531659141344cd1fd0a4f28419497f9722a3daafe3b4186f6b6457e09190a35050565b6001600160a01b03811681146200026157600080fd5b50565b6000806000606084860312156200027a57600080fd5b835162000287816200024b565b60208501519093506200029a816200024b565b6040850151909250620002ad816200024b565b809150509250925092565b634e487b7160e01b600052604160045260246000fd5b600181811c90821680620002e357607f821691505b6020821081036200030457634e487b7160e01b600052602260045260246000fd5b50919050565b601f8211156200035a576000816000526020600020601f850160051c81016020861015620003355750805b601f850160051c820191505b81811015620003565782815560010162000341565b5050505b505050565b81516001600160401b038111156200037b576200037b620002b8565b62000393816200038c8454620002ce565b846200030a565b602080601f831160018114620003cb5760008415620003b25750858301515b600019600386901b1c1916600185901b17855562000356565b600085815260208120601f198616915b82811015620003fc57888601518255948401946001909101908401620003db565b50858210156200041b5787850151600019600388901b60f8161c191681555b5050505050600190811b01905550565b615183806200043b6000396000f3fe60806040526004361061041b5760003560e01c806379d0f55e1161021c578063c5607b9911610122578063e78afc8d116100b0578063f2fde38b11610077578063f2fde38b14610d7a578063f4db898414610d9a578063fb55ab7d14610daf578063fd1e663e14610dcf578063ff74ea7e14610de257005b8063e78afc8d14610ca0578063ee97f7f314610cd9578063f0a317eb14610cf9578063f0f4426014610d3a578063f12ffcbd14610d5a57005b8063d8134a23116100f4578063d8134a2314610bcd578063d8a5e93614610bed578063dbc7a95d14610c0d578063dd62ed3e14610c2d578063e731ecfa14610c7357005b8063c5607b9914610b6b578063c6ef206114610b85578063d21d0c2514610ba5578063d44c403014610bb857005b8063abe685cd116101aa578063b773fdc111610171578063b773fdc114610ad5578063b9c5cb0514610af5578063bb1ae35214610b15578063bb809bfa14610b35578063bc063e1a14610b5557005b8063abe685cd14610a54578063aede67ea14610a6a578063af8db57514610a7f578063b0c2515314610a9f578063b6ef57d314610abf57005b80638e50e509116101ee5780638e50e509146109c757806395d89b41146109dd578063a2d869b2146109f2578063a7888a3414610a14578063a9059cbb14610a3457005b806379d0f55e1461093c5780637bc59ce5146109695780637d234265146109895780638da5cb5b146109a957005b8063296f6c8c116103215780635e1e77de116102af5780636f732c67116102765780636f732c671461089b57806370a08231146108b1578063715018a6146108e757806371d6f669146108fc57806374e72b691461091c57005b80635e1e77de1461080657806361d027b31461082657806363315e4e14610846578063661517131461085c578063668fb6dc1461087b57005b806336c87754116102f357806336c877541461073d57806337e431051461075d5780633acbb1821461077d5780633b6e750f146107ad5780633eee83f1146107e657005b8063296f6c8c146106d05780632f757006146106e6578063313ce567146106fb57806336a605031461071d57005b806318160ddd116103a95780632602394111610370578063260239411461063b57806326fae0d31461065b578063278246751461067b57806327a029141461069b57806328863bd3146106bb57005b806318160ddd1461056d5780631b47298a146105825780631c6e0cae146105c95780632236d2fd146105eb57806323b872dd1461061b57005b8063095ea7b3116103ed578063095ea7b3146104c25780630fd7907b146104f2578063108e3c991461051257806312065fe01461053a578063160c6e291461054d57005b80630560495814610424578063061ce77d1461044457806306fdde0314610468578063084475861461048a57005b3661042257005b005b34801561043057600080fd5b5061042261043f366004614344565b610df7565b34801561045057600080fd5b50600b545b6040519081526020015b60405180910390f35b34801561047457600080fd5b5061047d610f17565b60405161045f91906143c0565b34801561049657600080fd5b506009546104aa906001600160a01b031681565b6040516001600160a01b03909116815260200161045f565b3480156104ce57600080fd5b506104e26104dd366004614344565b610fa9565b604051901515815260200161045f565b3480156104fe57600080fd5b5061045561050d3660046143e2565b610fc3565b34801561051e57600080fd5b506104aa731231deb6f5749ef6ce6943a275a1d3e7486f4eae81565b34801561054657600080fd5b5047610455565b34801561055957600080fd5b5061042261056836600461441b565b61110d565b34801561057957600080fd5b5061045561124e565b34801561058e57600080fd5b506105a261059d3660046143e2565b61126e565b604080516001600160a01b03909416845260ff90921660208401529082015260600161045f565b3480156105d557600080fd5b506105de61135e565b60405161045f919061447e565b3480156105f757600080fd5b506104e2610606366004614491565b600c6020526000908152604090205460ff1681565b34801561062757600080fd5b506104e26106363660046144ae565b6113bf565b34801561064757600080fd5b506104226106563660046143e2565b6113e5565b34801561066757600080fd5b50610422610676366004614491565b61146d565b34801561068757600080fd5b506104556106963660046144ef565b61151e565b3480156106a757600080fd5b506104226106b636600461451b565b61156c565b3480156106c757600080fd5b50610455600681565b3480156106dc57600080fd5b5061045560165481565b3480156106f257600080fd5b506105de6115d6565b34801561070757600080fd5b5060065b60405160ff909116815260200161045f565b34801561072957600080fd5b50610455610738366004614344565b611636565b34801561074957600080fd5b506104aa61075836600461453d565b6117b7565b34801561076957600080fd5b50610422610778366004614491565b6117e1565b34801561078957600080fd5b506104e2610798366004614491565b600e6020526000908152604090205460ff1681565b3480156107b957600080fd5b506104e26107c8366004614491565b6001600160a01b03166000908152600c602052604090205460ff1690565b3480156107f257600080fd5b50610422610801366004614491565b6119b8565b34801561081257600080fd5b50610422610821366004614556565b611ac9565b34801561083257600080fd5b506008546104aa906001600160a01b031681565b34801561085257600080fd5b5061045560155481565b34801561086857600080fd5b5060105461070b90610100900460ff1681565b34801561088757600080fd5b50610422610896366004614491565b611c5f565b3480156108a757600080fd5b5061045560175481565b3480156108bd57600080fd5b506104556108cc366004614491565b6001600160a01b031660009081526001602052604090205490565b3480156108f357600080fd5b50610422611e1a565b34801561090857600080fd5b506104aa61091736600461453d565b611e2e565b34801561092857600080fd5b506104aa61093736600461453d565b611e3e565b34801561094857600080fd5b5061095c610957366004614584565b611e4e565b60405161045f91906145a1565b34801561097557600080fd5b506104226109843660046146a7565b611f01565b34801561099557600080fd5b506104556109a4366004614344565b612080565b3480156109b557600080fd5b506000546001600160a01b03166104aa565b3480156109d357600080fd5b5061045560145481565b3480156109e957600080fd5b5061047d6121fe565b3480156109fe57600080fd5b50610a0761220d565b60405161045f9190614773565b348015610a2057600080fd5b50610422610a2f366004614491565b612283565b348015610a4057600080fd5b506104e2610a4f366004614344565b612334565b348015610a6057600080fd5b5061045561271081565b348015610a7657600080fd5b506104e2612342565b348015610a8b57600080fd5b50610422610a9a3660046147d6565b6123f7565b348015610aab57600080fd5b506104aa610aba36600461453d565b612442565b348015610acb57600080fd5b5061045560135481565b348015610ae157600080fd5b50610455610af036600461453d565b612452565b348015610b0157600080fd5b50610455610b1036600461453d565b6124dd565b348015610b2157600080fd5b50610422610b30366004614884565b61255f565b348015610b4157600080fd5b50610422610b50366004614491565b6127e3565b348015610b6157600080fd5b506104556103e881565b348015610b7757600080fd5b5060105461070b9060ff1681565b348015610b9157600080fd5b50610422610ba036600461453d565b6128a5565b610422610bb33660046148ea565b612953565b348015610bc457600080fd5b50610455612c0f565b348015610bd957600080fd5b50610422610be8366004614491565b612dde565b348015610bf957600080fd5b50610422610c0836600461453d565b612fa8565b348015610c1957600080fd5b50610422610c283660046147d6565b613047565b348015610c3957600080fd5b50610455610c48366004614969565b6001600160a01b03918216600090815260026020908152604080832093909416825291909152205490565b348015610c7f57600080fd5b50610455610c8e366004614584565b600a6020526000908152604090205481565b348015610cac57600080fd5b506104e2610cbb366004614491565b6001600160a01b03166000908152600e602052604090205460ff1690565b348015610ce557600080fd5b506007546104aa906001600160a01b031681565b348015610d0557600080fd5b50610d19610d1436600461453d565b613092565b604080516001600160a01b03909316835260ff90911660208301520161045f565b348015610d4657600080fd5b50610422610d55366004614491565b6130c7565b348015610d6657600080fd5b506105de610d753660046143e2565b61316c565b348015610d8657600080fd5b50610422610d95366004614491565b61326a565b348015610da657600080fd5b50610455602481565b348015610dbb57600080fd5b50610422610dca366004614584565b6132a5565b610422610ddd366004614987565b613465565b348015610dee57600080fd5b506104556136af565b6000805b601254811015610e4d57336001600160a01b031660128281548110610e2257610e226149f3565b6000918252602090912001546001600160a01b031603610e455760019150610e4d565b600101610dfb565b5080610ea05760405162461bcd60e51b815260206004820152601c60248201527f5661756c743a20496e76616c6964207661756c74206d616e616765720000000060448201526064015b60405180910390fd5b60405163a9059cbb60e01b81526001600160a01b038416600482015260248101839052309063a9059cbb906044016020604051808303816000875af1158015610eed573d6000803e3d6000fd5b505050506040513d601f19601f82011682018060405250810190610f119190614a09565b50505050565b606060048054610f2690614a2b565b80601f0160208091040260200160405190810160405280929190818152602001828054610f5290614a2b565b8015610f9f5780601f10610f7457610100808354040283529160200191610f9f565b820191906000526020600020905b815481529060010190602001808311610f8257829003601f168201915b5050505050905090565b600033610fb781858561374a565b60019150505b92915050565b60ff82166000908152600a60205260408120548103610ff45760405162461bcd60e51b8152600401610e9790614a5f565b60ff83166000908152600a6020526040812054600b9061101690600190614ab7565b81548110611026576110266149f3565b60009182526020822001546040516396c1865b60e01b815260ff86166004820152600160248201526001600160a01b03909116925082906396c1865b90604401602060405180830381865afa158015611083573d6000803e3d6000fd5b505050506040513d601f19601f820116820180604052508101906110a79190614aca565b9050600081136111055760405162461bcd60e51b8152602060048201526024808201527f5661756c743a20506f6f6c20746f6b656e207072696365206973206e6567617460448201526334bb329760e11b6064820152608401610e97565b949350505050565b6007546001600160a01b031633146111375760405162461bcd60e51b8152600401610e9790614ae3565b61113f613757565b600061114a83611e4e565b90504782111561119c5760405162461bcd60e51b815260206004820152601b60248201527f5661756c743a20496e73756666696369656e742062616c616e636500000000006044820152606401610e97565b80516040516000916001600160a01b03169084908381818185875af1925050503d80600081146111e8576040519150601f19603f3d011682016040523d82523d6000602084013e6111ed565b606091505b505090508061123e5760405162461bcd60e51b815260206004820152601b60248201527f5661756c743a204661696c656420746f2073656e6420457468657200000000006044820152606401610e97565b505061124a6001600655565b5050565b600061125c6006600a614bfe565b6003546112699190614c0a565b905090565b60ff82166000908152600a60205260408120548190819081036112a35760405162461bcd60e51b8152600401610e9790614a5f565b60ff85166000908152600a6020526040812054600b906112c590600190614ab7565b815481106112d5576112d56149f3565b60009182526020909120015460405163189f5a0360e11b815260ff871660048201526001600160a01b039091169150819063313eb40690602401606060405180830381865afa15801561132c573d6000803e3d6000fd5b505050506040513d601f19601f820116820180604052508101906113509190614c1d565b935093509350509250925092565b6060600f805480602002602001604051908101604052809291908181526020018280548015610f9f57602002820191906000526020600020905b81546001600160a01b03168152600190910190602001808311611398575050505050905090565b6000336113cd858285613781565b6113d88585856137f9565b60019150505b9392505050565b6007546001600160a01b0316331461140f5760405162461bcd60e51b8152600401610e9790614ae3565b6010805460ff84811661ffff199092168217610100918516918202179092556040805191825260208201929092527f14e1b7912db93ec92d8f90ef7bd11f9f3e0102207772767f99efb2d09652708e91015b60405180910390a15050565b611475613858565b6001600160a01b0381166114c45760405162461bcd60e51b81526020600482015260166024820152755661756c743a20496e76616c6964204164647265737360501b6044820152606401610e97565b600780546001600160a01b038381166001600160a01b031983168117909355604080519190921680825260208201939093527fad86f1a43fee68be483e267b534abff158fe4e9b790f2de1188ffe2671231c349101611461565b600081831061154d576115318284614ab7565b61153c90600a614bfe565b6115469085614c60565b90506113de565b6115578383614ab7565b61156290600a614bfe565b6115469085614c82565b6007546001600160a01b031633146115965760405162461bcd60e51b8152600401610e9790614ae3565b6016829055601781905560408051838152602081018390527fa110b587ac7535a0f2355180833c95160b4dde91ead092742efaf8d33d1d3db99101611461565b6060600d805480602002602001604051908101604052809291908181526020018280548015610f9f576020028201919060005260206000209081546001600160a01b03168152600190910190602001808311611398575050505050905090565b600080836001600160a01b031663313ce5676040518163ffffffff1660e01b8152600401602060405180830381865afa158015611677573d6000803e3d6000fd5b505050506040513d601f19601f8201168201806040525081019061169b9190614c99565b600954604051636a24d41960e11b81526001600160a01b03878116600483015260ff9390931693506000929091169063d449a83290602401602060405180830381865afa1580156116f0573d6000803e3d6000fd5b505050506040513d601f19601f820116820180604052508101906117149190614c99565b600954604051630681320d60e51b81526001600160a01b03888116600483015260ff9390931693506000929091169063d02641a090602401602060405180830381865afa158015611769573d6000803e3d6000fd5b505050506040513d601f19601f8201168201806040525081019061178d9190614aca565b90506117ad61179c8287614c82565b6117a68486614c0a565b602461151e565b9695505050505050565b600d81815481106117c757600080fd5b6000918252602090912001546001600160a01b0316905081565b6117e9613858565b6001600160a01b0381166000908152600e602052604090205460ff161515600103611963576001600160a01b0381166000908152600e60205260408120805460ff191690555b600f5481101561196157816001600160a01b0316600f8281548110611856576118566149f3565b6000918252602090912001546001600160a01b03160361195957600f805461188090600190614ab7565b81548110611890576118906149f3565b600091825260209091200154600f80546001600160a01b0390921691839081106118bc576118bc6149f3565b9060005260206000200160006101000a8154816001600160a01b0302191690836001600160a01b03160217905550600f8054806118fb576118fb614cb6565b6000828152602090819020600019908301810180546001600160a01b03191690559091019091556040516001600160a01b03841681527fb3b812909278685b51bb62950331b6fd26f7ce72a6cd192c9ece03f6ee398f529101611461565b60010161182f565b505b60405162461bcd60e51b815260206004820152602160248201527f5661756c743a204e6f6e2d6465706f73697420616c6c6f77656420746f6b656e6044820152601760f91b6064820152608401610e97565b50565b6119c0613858565b6001600160a01b0381166000908152600c602052604081205460ff1615159003611a81576001600160a01b0381166000818152600c60209081526040808320805460ff19166001908117909155600d805491820181559093527fd7b6990105719101dabeb77144f2a3385c8033acd3af97e9423a695e81ad1eb590920180546001600160a01b0319168417905590519182527f8d12536a26e1c757d393b039469ce97499ed4a5c39f067cd950f9295a269061b91015b60405180910390a150565b60405162461bcd60e51b815260206004820152601c60248201527f5661756c743a20546f6b656e20616c7265616479206578697374732e000000006044820152606401610e97565b611ad1613858565b8160ff16600003611b245760405162461bcd60e51b815260206004820152601e60248201527f5661756c743a20506c7567696e49642063616e6e6f74206265207a65726f00006044820152606401610e97565b60ff82166000908152600a602052604090205415611b8f5760405162461bcd60e51b815260206004820152602260248201527f506c7567696e2077697468207468697320494420616c72656164792065786973604482015261747360f01b6064820152608401610e97565b6040805180820182526001600160a01b03808416825260ff8086166020808501828152600b8054600181018255600082815297517f0175b7a638427703f0dbe7bb9bbf987a2551717b34e79f33b5b1008d1fa01db990910180549351909616600160a01b026001600160a81b0319909316961695909517179092559154918352600a90529082902055517f82928e1181db449ef41e256af411debe6548a93bdb7b4cd3cc064bba2424f4ee90611461908490849060ff9290921682526001600160a01b0316602082015260400190565b6007546001600160a01b03163314611c895760405162461bcd60e51b8152600401610e9790614ae3565b611c91613757565b6001600160a01b0381166000908152600c602052604090205460ff16611cf05760405162461bcd60e51b81526020600482015260146024820152732b30bab63a1d1024b73b30b634b2103a37b5b2b760611b6044820152606401610e97565b6000611cfe82601554612080565b6040516370a0823160e01b81523060048201529091506000906001600160a01b038416906370a0823190602401602060405180830381865afa158015611d48573d6000803e3d6000fd5b505050506040513d601f19601f82011682018060405250810190611d6c9190614aca565b9050600082821015611d7e5781611d80565b825b90508215611dcb578281601554611d979190614c82565b611da19190614c60565b601554611dae9190614ab7565b601555600854611dcb906001600160a01b03868116911683613885565b604080516001600160a01b0386168152602081018390527f1698f33bf2ba6b1a5dbe8f4e48a724e345352a91c1ad49b9e823713a38ac750d910160405180910390a15050506119b56001600655565b611e22613858565b611e2c60006138e4565b565b600f81815481106117c757600080fd5b601181815481106117c757600080fd5b604080518082019091526000808252602082015260ff82166000908152600a60205260408120549003611e935760405162461bcd60e51b8152600401610e9790614a5f565b60ff82166000908152600a6020526040812054600b90611eb590600190614ab7565b81548110611ec557611ec56149f3565b6000918252602091829020604080518082019091529101546001600160a01b0381168252600160a01b900460ff16918101919091529392505050565b6007546001600160a01b03163314611f2b5760405162461bcd60e51b8152600401610e9790614ae3565b611f33613757565b60ff83166000908152600a60205260408120549003611f645760405162461bcd60e51b8152600401610e9790614a5f565b60ff83166000908152600a6020526040812054600b90611f8690600190614ab7565b81548110611f9657611f966149f3565b600091825260209091200154825184516001600160a01b03909216925014611fd05760405162461bcd60e51b8152600401610e9790614ccc565b60005b83518110156120345761202c82848381518110611ff257611ff26149f3565b602002602001015186848151811061200c5761200c6149f3565b60200260200101516001600160a01b03166139349092919063ffffffff16565b600101611fd3565b507fb2de8a7e3a7a5cd63b512230691a3b7c6d2a155e140eabf51de5f1cd4bbd1c9f84848460405161206893929190614d43565b60405180910390a15061207b6001600655565b505050565b600080836001600160a01b031663313ce5676040518163ffffffff1660e01b8152600401602060405180830381865afa1580156120c1573d6000803e3d6000fd5b505050506040513d601f19601f820116820180604052508101906120e59190614c99565b600954604051636a24d41960e11b81526001600160a01b03878116600483015260ff9390931693506000929091169063d449a83290602401602060405180830381865afa15801561213a573d6000803e3d6000fd5b505050506040513d601f19601f8201168201806040525081019061215e9190614c99565b60ff16905060006121758560246106968587614c0a565b600954604051630681320d60e51b81526001600160a01b0389811660048301529293506000929091169063d02641a090602401602060405180830381865afa1580156121c5573d6000803e3d6000fd5b505050506040513d601f19601f820116820180604052508101906121e99190614aca565b6121f39083614c60565b979650505050505050565b606060058054610f2690614a2b565b6060600b805480602002602001604051908101604052809291908181526020016000905b8282101561227a57600084815260209081902060408051808201909152908401546001600160a01b0381168252600160a01b900460ff1681830152825260019092019101612231565b50505050905090565b61228b613858565b6001600160a01b0381166122da5760405162461bcd60e51b81526020600482015260166024820152755661756c743a20496e76616c6964204164647265737360501b6044820152606401610e97565b600980546001600160a01b038381166001600160a01b031983168117909355604080519190921680825260208201939093527ff4502d3564a672945971a0fba8e29bffe054f3ab45f59b8e003c17aeab1bbd209101611461565b600033610fb78185856137f9565b60006001815b6011548110156123f15760118181548110612365576123656149f3565b600091825260209182902001546040805163ef563ba560e01b815290516001600160a01b039092169263ef563ba5926004808401938290030181865afa1580156123b3573d6000803e3d6000fd5b505050506040513d601f19601f820116820180604052508101906123d79190614a09565b15156000036123e957600091506123f1565b600101612348565b50919050565b6123ff613858565b80516124129060119060208401906142b5565b507f75793d06eb3a848ff6160cccf8a42cb464c416ed07faf13dfb47ae4f46857d0681604051611a76919061447e565b601281815481106117c757600080fd5b600080601554612460612c0f565b1161246c576000612481565b601554612477612c0f565b6124819190614ab7565b905061248f6024600a614bfe565b811115806124af57506124a46006600a614bfe565b6124ac61124e565b11155b156124c1576113de836006602461151e565b6124c961124e565b6124d38285614c82565b6113de9190614c60565b6000806015546124eb612c0f565b116124f757600061250c565b601554612502612c0f565b61250c9190614ab7565b905061251a6024600a614bfe565b8111158061253a575061252f6006600a614bfe565b61253761124e565b11155b1561254c576113de836024600661151e565b8061255561124e565b6124d39085614c82565b6007546001600160a01b031633146125895760405162461bcd60e51b8152600401610e9790614ae3565b612591613757565b60ff83166000908152600a602052604081205490036125c25760405162461bcd60e51b8152600401610e9790614a5f565b60ff83166000908152600a6020526040812054600b906125e490600190614ab7565b815481106125f4576125f46149f3565b60009182526020822001546001600160a01b0316915083600481111561261c5761261c614d71565b036126cd57600080838060200190518101906126389190614e34565b509250925050805182511461265f5760405162461bcd60e51b8152600401610e9790614ccc565b60005b82518110156126c557600082828151811061267f5761267f6149f3565b602002602001015111156126bd576126bd848383815181106126a3576126a36149f3565b602002602001015185848151811061200c5761200c6149f3565b600101612662565b505050612750565b60018360048111156126e1576126e1614d71565b03612750576000828060200190518101906126fc9190614f1d565b50935050506001600160a01b0382163014905061274e5760405162461bcd60e51b815260206004820152601060248201526f24b73b30b634b2103932b1b2b4bb32b960811b6044820152606401610e97565b505b604051633ed34d9360e21b81526001600160a01b0382169063fb4d364c9061277e9086908690600401614fab565b600060405180830381600087803b15801561279857600080fd5b505af11580156127ac573d6000803e3d6000fd5b505050507fd1d58280d995f2eeb79c5a7a40676ea3a07813ac558a14adb50cb7a0dae135a184848460405161206893929190614fcb565b6127eb613858565b6001600160a01b0381166000908152600e602052604081205460ff1615159003611a81576001600160a01b0381166000818152600e60209081526040808320805460ff19166001908117909155600f805491820181559093527f8d1108e10bcb7c27dddfc02ed9d693a074039d026cf4ea4240b40f7d581ac80290920180546001600160a01b0319168417905590519182527f9de0acb434fe97ecc1d1a16e96e0fef8e9a12b54d716f753d570c59539f93ab59101611a76565b6000805b6012548110156128fb57336001600160a01b0316601282815481106128d0576128d06149f3565b6000918252602090912001546001600160a01b0316036128f357600191506128fb565b6001016128a9565b50806129495760405162461bcd60e51b815260206004820152601c60248201527f5661756c743a20496e76616c6964207661756c74206d616e61676572000000006044820152606401610e97565b61124a30836139be565b61295b612342565b151560011461297c5760405162461bcd60e51b8152600401610e9790614ff4565b60175434101561299e5760405162461bcd60e51b8152600401610e9790615024565b600085116129ee5760405162461bcd60e51b815260206004820152601e60248201527f5661756c743a20496e76616c6964204c5020746f6b656e20616d6f756e7400006044820152606401610e97565b6129f66139f4565b6040516323b872dd60e01b8152336004820152306024820181905260448201879052906323b872dd906064016020604051808303816000875af1158015612a41573d6000803e3d6000fd5b505050506040513d601f19601f82011682018060405250810190612a659190614a09565b506000612a7186612452565b90506000612a7f868661126e565b509150506000612a8f8787610fc3565b9050600081612aa38560068660ff1661151e565b612aad9190614c60565b9050600087828b8989604051602001612aca959493929190615065565b60408051601f1981840301815291815260ff8b166000908152600a6020529081205491925003612b0c5760405162461bcd60e51b8152600401610e9790614a5f565b60ff89166000908152600a6020526040812054600b90612b2e90600190614ab7565b81548110612b3e57612b3e6149f3565b600091825260209091200154604051633ed34d9360e21b81526001600160a01b039091169150819063fb4d364c90612b7d906001908690600401614fab565b600060405180830381600087803b158015612b9757600080fd5b505af1158015612bab573d6000803e3d6000fd5b5050604080518e815260ff8e811660208301528d16818301526001600160a01b038c16606082015290517ff9dc9eadd0cc0780e3b8e626ab108cc4acbfaa08f131e9c3a79d90e9d22081a09350908190036080019150a15050505050505050505050565b6000612c19612342565b1515600114612c3a5760405162461bcd60e51b8152600401610e9790614ff4565b60005b600b5460ff82161015612cee57600b8160ff1681548110612c6057612c606149f3565b60009182526020918290200154604080516335c7e92560e01b815290516001600160a01b03909216926335c7e925926004808401938290030181865afa158015612cae573d6000803e3d6000fd5b505050506040513d601f19601f82011682018060405250810190612cd29190614aca565b612cdc9083614c0a565b9150612ce78161509b565b9050612c3d565b5060005b600d54811015612dc757612db3600d8281548110612d1257612d126149f3565b600091825260209091200154600d80546001600160a01b039092169184908110612d3e57612d3e6149f3565b6000918252602090912001546040516370a0823160e01b81523060048201526001600160a01b03909116906370a0823190602401602060405180830381865afa158015612d8f573d6000803e3d6000fd5b505050506040513d601f19601f820116820180604052508101906107389190614aca565b612dbd9083614c0a565b9150600101612cf2565b50612dd46024600a614bfe565b6112699082614c0a565b612de6613858565b6001600160a01b0381166000908152600c602052604090205460ff161515600103612f60576001600160a01b0381166000908152600c60205260408120805460ff191690555b600d54811015612f5e57816001600160a01b0316600d8281548110612e5357612e536149f3565b6000918252602090912001546001600160a01b031603612f5657600d8054612e7d90600190614ab7565b81548110612e8d57612e8d6149f3565b600091825260209091200154600d80546001600160a01b039092169183908110612eb957612eb96149f3565b9060005260206000200160006101000a8154816001600160a01b0302191690836001600160a01b03160217905550600d805480612ef857612ef8614cb6565b6000828152602090819020600019908301810180546001600160a01b03191690559091019091556040516001600160a01b03841681527fd45f8e69dd1637935a0de01b2f0d707b0f009e604d60d445d28ed36e6281925c9101611461565b600101612e2c565b505b60405162461bcd60e51b815260206004820152601a60248201527f5661756c743a204e6f6e2d616363657074656420746f6b656e2e0000000000006044820152606401610e97565b612fb0613858565b6103e88111156130125760405162461bcd60e51b815260206004820152602760248201527f5661756c743a2070726f746f636f6c20666565206578636565647320746865206044820152666d61782066656560c81b6064820152608401610e97565b60148190556040518181527f6668cdfd543255bfacce42e8e363820b28fd302f59ac468c0a7474a38556c9ef90602001611a76565b61304f613858565b80516130629060129060208401906142b5565b507f89e49a824d9524bf238c9ad5c47117e0b3fe3246a6dbbda21847a66b58bcc93881604051611a76919061447e565b600b81815481106130a257600080fd5b6000918252602090912001546001600160a01b0381169150600160a01b900460ff1682565b6130cf613858565b6001600160a01b03811661311e5760405162461bcd60e51b81526020600482015260166024820152755661756c743a20496e76616c6964206164647265737360501b6044820152606401610e97565b600880546001600160a01b0319166001600160a01b0383169081179091556040519081527fcb7ef3e545f5cdb893f5c568ba710fe08f336375a2d9fd66e161033f8fc09ef390602001611a76565b60ff82166000908152600a602052604081205460609182919003613191579050610fbd565b60ff84166000908152600a6020526040812054600b906131b390600190614ab7565b815481106131c3576131c36149f3565b600091825260209182902060408051808201825292909101546001600160a01b03811680845260ff600160a01b9092048216948401949094529051630a9e949160e21b81529087166004820152909250632a7a524490602401600060405180830381865afa158015613239573d6000803e3d6000fd5b505050506040513d6000823e601f3d908101601f1916820160405261326191908101906150ba565b95945050505050565b613272613858565b6001600160a01b03811661329c57604051631e4fbdf760e01b815260006004820152602401610e97565b6119b5816138e4565b6132ad613858565b60ff81166000908152600a602052604081205490036132de5760405162461bcd60e51b8152600401610e9790614a5f565b60ff81166000908152600a60205260408120546132fd90600190614ab7565b60ff83166000908152600a6020526040812055600b5490915061332290600190614ab7565b81146133fc57600b80546000919061333c90600190614ab7565b8154811061334c5761334c6149f3565b6000918252602091829020604080518082019091529101546001600160a01b0381168252600160a01b900460ff1691810191909152600b805491925082918490811061339a5761339a6149f3565b6000918252602091829020835191018054939092015160ff16600160a01b026001600160a81b03199093166001600160a01b03909116179190911790556133e2826001614c0a565b60209182015160ff166000908152600a9092526040909120555b600b80548061340d5761340d614cb6565b6000828152602090819020600019908301810180546001600160a81b031916905590910190915560405160ff841681527f0a312f1a2ac6a06b589a288d1fb8f65a78df1d25f4518b5d90d6dfb3b3c5dc189101611461565b61346d613757565b613475612342565b15156001146134965760405162461bcd60e51b8152600401610e9790614ff4565b6016543410156134b85760405162461bcd60e51b8152600401610e9790615024565b6001600160a01b0384166000908152600e602052604090205460ff166135175760405162461bcd60e51b81526020600482015260146024820152732b30bab63a1d1024b73b30b634b2103a37b5b2b760611b6044820152606401610e97565b61351f6139f4565b6000831161356f5760405162461bcd60e51b815260206004820152601b60248201527f5661756c743a20496e76616c696420746f6b656e20616d6f756e7400000000006044820152606401610e97565b600061357b8585611636565b905061358960026024614ab7565b61359490600a614bfe565b8110156135da5760405162461bcd60e51b8152602060048201526014602482015273125b9d985b1a59081d1bdad95b88185b5bdd5b9d60621b6044820152606401610e97565b60006135e5826124dd565b9050600081116136375760405162461bcd60e51b815260206004820152601a60248201527f5661756c743a20496e73756666696369656e7420616d6f756e740000000000006044820152606401610e97565b61364c6001600160a01b038716333088613ac9565b6136568482613b02565b604080516001600160a01b0388168152602081018790527f6c37c6ecf36829ae3759052fb0ebde09db8d9df703558db7886f111614de4741910160405180910390a16136a3868685613b38565b5050610f116001600655565b6000806015546136bd612c0f565b116136c95760006136de565b6015546136d4612c0f565b6136de9190614ab7565b905060006136ee6024600a614bfe565b8211158061370e57506137036006600a614bfe565b61370b61124e565b11155b156137225750670de0b6b3a7640000610fbd565b600061373683602461069660066012614c0a565b905061374061124e565b6111059082614c60565b61207b8383836001613dff565b60026006540361377a57604051633ee5aeb560e01b815260040160405180910390fd5b6002600655565b6001600160a01b038381166000908152600260209081526040808320938616835292905220546000198114610f1157818110156137ea57604051637dc7a0d960e11b81526001600160a01b03841660048201526024810182905260448101839052606401610e97565b610f1184848484036000613dff565b6001600160a01b03831661382357604051634b637e8f60e11b815260006004820152602401610e97565b6001600160a01b03821661384d5760405163ec442f0560e01b815260006004820152602401610e97565b61207b838383613ed4565b6000546001600160a01b03163314611e2c5760405163118cdaa760e01b8152336004820152602401610e97565b6040516001600160a01b0383811660248301526044820183905261207b91859182169063a9059cbb906064015b604051602081830303815290604052915060e01b6020820180516001600160e01b038381831617835250505050613ffe565b600080546001600160a01b038381166001600160a01b0319831681178455604051919092169283917f8be0079c531659141344cd1fd0a4f28419497f9722a3daafe3b4186f6b6457e09190a35050565b604051636eb1769f60e11b81523060048201526001600160a01b0383811660248301526000919085169063dd62ed3e90604401602060405180830381865afa158015613984573d6000803e3d6000fd5b505050506040513d601f19601f820116820180604052508101906139a89190614aca565b9050610f1184846139b98585614c0a565b614061565b6001600160a01b0382166139e857604051634b637e8f60e11b815260006004820152602401610e97565b61124a82600083613ed4565b6013546000613a016136af565b905081811115613a89576000613a178383614ab7565b90506000613a3c613a2661124e565b613a309084614c82565b6117a660066012614c0a565b9050600061271060145483613a519190614c82565b613a5b9190614c60565b90508060156000828254613a6f9190614c0a565b90915550613a7d90506136af565b60135550613a8f915050565b60138190555b6013546040805184815260208101929092527f5d9d530192099327de5a2c3afce10e28b8b9ca0efbc42dd0404947d28e9511899101611461565b6040516001600160a01b038481166024830152838116604483015260648201839052610f119186918216906323b872dd906084016138b2565b6001600160a01b038216613b2c5760405163ec442f0560e01b815260006004820152602401610e97565b61124a60008383613ed4565b601054600090613b539060ff8082169161010090041661316c565b905060005b8151811015613da457846001600160a01b0316828281518110613b7d57613b7d6149f3565b60200260200101516001600160a01b031603613d9c576000825167ffffffffffffffff811115613baf57613baf6145c4565b604051908082528060200260200182016040528015613bd8578160200160208202803683370190505b50905084818381518110613bee57613bee6149f3565b6020026020010181815250506000601060019054906101000a900460ff16848387604051602001613c2294939291906150ef565b60408051601f1981840301815291815260105460ff166000908152600a6020529081205491925003613c665760405162461bcd60e51b8152600401610e9790614a5f565b60105460ff166000908152600a6020526040812054600b90613c8a90600190614ab7565b81548110613c9a57613c9a6149f3565b9060005260206000200160000160009054906101000a90046001600160a01b03169050613cd4818887878151811061200c5761200c6149f3565b604051633ed34d9360e21b81526001600160a01b0382169063fb4d364c90613d03906000908690600401614fab565b600060405180830381600087803b158015613d1d57600080fd5b505af1158015613d31573d6000803e3d6000fd5b50506010546040805160ff808416825261010090930490921660208301526001600160a01b038c1682820152606082018b9052517f4a73781a39df215cc38853e07006d66222cc28e3f25802b0ed4ec11282df56c29350908190036080019150a15050505050505050565b600101613b58565b5060405162461bcd60e51b815260206004820152602960248201527f5661756c743a206465706f73697420746f6b656e206e6f7420696e20616c6c6f604482015268776564546f6b656e7360b81b6064820152608401610e97565b6001600160a01b038416613e295760405163e602df0560e01b815260006004820152602401610e97565b6001600160a01b038316613e5357604051634a1406b160e11b815260006004820152602401610e97565b6001600160a01b0380851660009081526002602090815260408083209387168352929052208290558015610f1157826001600160a01b0316846001600160a01b03167f8c5be1e5ebec7d5bd14f71427d1e84f3dd0314c0f7b2291e5b200ac8c7c3b92584604051613ec691815260200190565b60405180910390a350505050565b6001600160a01b038316613eff578060036000828254613ef49190614c0a565b90915550613f719050565b6001600160a01b03831660009081526001602052604090205481811015613f525760405163391434e360e21b81526001600160a01b03851660048201526024810182905260448101839052606401610e97565b6001600160a01b03841660009081526001602052604090209082900390555b6001600160a01b038216613f8d57600380548290039055613fac565b6001600160a01b03821660009081526001602052604090208054820190555b816001600160a01b0316836001600160a01b03167fddf252ad1be2c89b69c2b068fc378daa952ba7f163c4a11628f55a4df523b3ef83604051613ff191815260200190565b60405180910390a3505050565b60006140136001600160a01b038416836140f1565b905080516000141580156140385750808060200190518101906140369190614a09565b155b1561207b57604051635274afe760e01b81526001600160a01b0384166004820152602401610e97565b604080516001600160a01b038416602482015260448082018490528251808303909101815260649091019091526020810180516001600160e01b031663095ea7b360e01b1790526140b284826140ff565b610f11576040516001600160a01b038481166024830152600060448301526140e791869182169063095ea7b3906064016138b2565b610f118482613ffe565b60606113de838360006141a2565b6000806000846001600160a01b03168460405161411c9190615131565b6000604051808303816000865af19150503d8060008114614159576040519150601f19603f3d011682016040523d82523d6000602084013e61415e565b606091505b50915091508180156141885750805115806141885750808060200190518101906141889190614a09565b80156132615750505050506001600160a01b03163b151590565b6060814710156141c75760405163cd78605960e01b8152306004820152602401610e97565b600080856001600160a01b031684866040516141e39190615131565b60006040518083038185875af1925050503d8060008114614220576040519150601f19603f3d011682016040523d82523d6000602084013e614225565b606091505b50915091506117ad868383606082614245576142408261428c565b6113de565b815115801561425c57506001600160a01b0384163b155b1561428557604051639996b31560e01b81526001600160a01b0385166004820152602401610e97565b50806113de565b80511561429c5780518082602001fd5b604051630a12f52160e11b815260040160405180910390fd5b82805482825590600052602060002090810192821561430a579160200282015b8281111561430a57825182546001600160a01b0319166001600160a01b039091161782556020909201916001909101906142d5565b5061431692915061431a565b5090565b5b80821115614316576000815560010161431b565b6001600160a01b03811681146119b557600080fd5b6000806040838503121561435757600080fd5b82356143628161432f565b946020939093013593505050565b60005b8381101561438b578181015183820152602001614373565b50506000910152565b600081518084526143ac816020860160208601614370565b601f01601f19169290920160200192915050565b6020815260006113de6020830184614394565b60ff811681146119b557600080fd5b600080604083850312156143f557600080fd5b8235614400816143d3565b91506020830135614410816143d3565b809150509250929050565b6000806040838503121561442e57600080fd5b8235614362816143d3565b60008151808452602080850194506020840160005b838110156144735781516001600160a01b03168752958201959082019060010161444e565b509495945050505050565b6020815260006113de6020830184614439565b6000602082840312156144a357600080fd5b81356113de8161432f565b6000806000606084860312156144c357600080fd5b83356144ce8161432f565b925060208401356144de8161432f565b929592945050506040919091013590565b60008060006060848603121561450457600080fd5b505081359360208301359350604090920135919050565b6000806040838503121561452e57600080fd5b50508035926020909101359150565b60006020828403121561454f57600080fd5b5035919050565b6000806040838503121561456957600080fd5b8235614574816143d3565b915060208301356144108161432f565b60006020828403121561459657600080fd5b81356113de816143d3565b81516001600160a01b0316815260208083015160ff169082015260408101610fbd565b634e487b7160e01b600052604160045260246000fd5b604051601f8201601f1916810167ffffffffffffffff81118282101715614603576146036145c4565b604052919050565b600067ffffffffffffffff821115614625576146256145c4565b5060051b60200190565b600082601f83011261464057600080fd5b813560206146556146508361460b565b6145da565b8083825260208201915060208460051b87010193508684111561467757600080fd5b602086015b8481101561469c57803561468f8161432f565b835291830191830161467c565b509695505050505050565b6000806000606084860312156146bc57600080fd5b83356146c7816143d3565b925060208481013567ffffffffffffffff808211156146e557600080fd5b6146f18883890161462f565b9450604087013591508082111561470757600080fd5b508501601f8101871361471957600080fd5b80356147276146508261460b565b81815260059190911b8201830190838101908983111561474657600080fd5b928401925b828410156147645783358252928401929084019061474b565b80955050505050509250925092565b602080825282518282018190526000919060409081850190868401855b828110156147c9576147b984835180516001600160a01b0316825260209081015160ff16910152565b9284019290850190600101614790565b5091979650505050505050565b6000602082840312156147e857600080fd5b813567ffffffffffffffff8111156147ff57600080fd5b6111058482850161462f565b600067ffffffffffffffff821115614825576148256145c4565b50601f01601f191660200190565b600082601f83011261484457600080fd5b81356148526146508261480b565b81815284602083860101111561486757600080fd5b816020850160208301376000918101602001919091529392505050565b60008060006060848603121561489957600080fd5b83356148a4816143d3565b92506020840135600581106148b857600080fd5b9150604084013567ffffffffffffffff8111156148d457600080fd5b6148e086828701614833565b9150509250925092565b600080600080600060a0868803121561490257600080fd5b853594506020860135614914816143d3565b93506040860135614924816143d3565b925060608601356149348161432f565b9150608086013567ffffffffffffffff81111561495057600080fd5b61495c88828901614833565b9150509295509295909350565b6000806040838503121561497c57600080fd5b82356145748161432f565b6000806000806080858703121561499d57600080fd5b84356149a88161432f565b93506020850135925060408501356149bf8161432f565b9150606085013567ffffffffffffffff8111156149db57600080fd5b6149e787828801614833565b91505092959194509250565b634e487b7160e01b600052603260045260246000fd5b600060208284031215614a1b57600080fd5b815180151581146113de57600080fd5b600181811c90821680614a3f57607f821691505b6020821081036123f157634e487b7160e01b600052602260045260246000fd5b60208082526022908201527f506c7567696e2077697468207468697320494420646f6573206e6f74206578696040820152611cdd60f21b606082015260800190565b634e487b7160e01b600052601160045260246000fd5b81810381811115610fbd57610fbd614aa1565b600060208284031215614adc57600080fd5b5051919050565b6020808252601c908201527f5661756c743a2063616c6c6572206d757374206265206d617374657200000000604082015260600190565b600181815b80851115614b55578160001904821115614b3b57614b3b614aa1565b80851615614b4857918102915b93841c9390800290614b1f565b509250929050565b600082614b6c57506001610fbd565b81614b7957506000610fbd565b8160018114614b8f5760028114614b9957614bb5565b6001915050610fbd565b60ff841115614baa57614baa614aa1565b50506001821b610fbd565b5060208310610133831016604e8410600b8410161715614bd8575081810a610fbd565b614be28383614b1a565b8060001904821115614bf657614bf6614aa1565b029392505050565b60006113de8383614b5d565b80820180821115610fbd57610fbd614aa1565b600080600060608486031215614c3257600080fd5b8351614c3d8161432f565b6020850151909350614c4e816143d3565b80925050604084015190509250925092565b600082614c7d57634e487b7160e01b600052601260045260246000fd5b500490565b8082028115828204841417610fbd57610fbd614aa1565b600060208284031215614cab57600080fd5b81516113de816143d3565b634e487b7160e01b600052603160045260246000fd5b60208082526026908201527f5661756c743a204c69737473206d7573742068617665207468652073616d65206040820152650d8cadccee8d60d31b606082015260800190565b60008151808452602080850194506020840160005b8381101561447357815187529582019590820190600101614d27565b60ff84168152606060208201526000614d5f6060830185614439565b82810360408401526117ad8185614d12565b634e487b7160e01b600052602160045260246000fd5b600082601f830112614d9857600080fd5b81516020614da86146508361460b565b8083825260208201915060208460051b870101935086841115614dca57600080fd5b602086015b8481101561469c578051614de28161432f565b8352918301918301614dcf565b600082601f830112614e0057600080fd5b8151614e0e6146508261480b565b818152846020838601011115614e2357600080fd5b611105826020830160208701614370565b60008060008060808587031215614e4a57600080fd5b8451614e55816143d3565b8094505060208086015167ffffffffffffffff80821115614e7557600080fd5b614e8189838a01614d87565b95506040880151915080821115614e9757600080fd5b818801915088601f830112614eab57600080fd5b8151614eb96146508261460b565b81815260059190911b8301840190848101908b831115614ed857600080fd5b938501935b82851015614ef657845182529385019390850190614edd565b60608b01519097509450505080831115614f0f57600080fd5b50506149e787828801614def565b600080600080600060a08688031215614f3557600080fd5b8551614f40816143d3565b8095505060208601519350604086015192506060860151614f608161432f565b608087015190925067ffffffffffffffff811115614f7d57600080fd5b61495c88828901614def565b60058110614fa757634e487b7160e01b600052602160045260246000fd5b9052565b614fb58184614f89565b6040602082015260006111056040830184614394565b60ff84168152614fde6020820184614f89565b6060604082015260006132616060830184614394565b60208082526016908201527515985d5b1d0e8815985d5b1d081a5cc81b1bd8dad95960521b604082015260600190565b60208082526021908201527f5661756c743a20496e73756666696369656e7420657865637574696f6e2066656040820152606560f81b606082015260800190565b60ff8616815284602082015283604082015260018060a01b038316606082015260a0608082015260006121f360a0830184614394565b600060ff821660ff81036150b1576150b1614aa1565b60010192915050565b6000602082840312156150cc57600080fd5b815167ffffffffffffffff8111156150e357600080fd5b61110584828501614d87565b60ff8516815260806020820152600061510b6080830186614439565b828103604084015261511d8186614d12565b905082810360608401526121f38185614394565b60008251615143818460208701614370565b919091019291505056fea26469706673582212206b76a9575f7cecf40752eb4473d3f0f9e27d165fd6274ffdb821f91248d56f7064736f6c634300081800335661756c743a20496e76616c6964204164647265737300000000000000000000",
  "devdoc": {
    "errors": {
      "AddressEmptyCode(address)": [
        {
          "details": "There's no code at `target` (it is not a contract)."
        }
      ],
      "AddressInsufficientBalance(address)": [
        {
          "details": "The ETH balance of the account is not enough to perform the operation."
        }
      ],
      "ERC20InsufficientAllowance(address,uint256,uint256)": [
        {
          "details": "Indicates a failure with the `spender`s `allowance`. Used in transfers.",
          "params": {
            "allowance": "Amount of tokens a `spender` is allowed to operate with.",
            "needed": "Minimum amount required to perform a transfer.",
            "spender": "Address that may be allowed to operate on tokens without being their owner."
          }
        }
      ],
      "ERC20InsufficientBalance(address,uint256,uint256)": [
        {
          "details": "Indicates an error related to the current `balance` of a `sender`. Used in transfers.",
          "params": {
            "balance": "Current balance for the interacting account.",
            "needed": "Minimum amount required to perform a transfer.",
            "sender": "Address whose tokens are being transferred."
          }
        }
      ],
      "ERC20InvalidApprover(address)": [
        {
          "details": "Indicates a failure with the `approver` of a token to be approved. Used in approvals.",
          "params": {
            "approver": "Address initiating an approval operation."
          }
        }
      ],
      "ERC20InvalidReceiver(address)": [
        {
          "details": "Indicates a failure with the token `receiver`. Used in transfers.",
          "params": {
            "receiver": "Address to which tokens are being transferred."
          }
        }
      ],
      "ERC20InvalidSender(address)": [
        {
          "details": "Indicates a failure with the token `sender`. Used in transfers.",
          "params": {
            "sender": "Address whose tokens are being transferred."
          }
        }
      ],
      "ERC20InvalidSpender(address)": [
        {
          "details": "Indicates a failure with the `spender` to be approved. Used in approvals.",
          "params": {
            "spender": "Address that may be allowed to operate on tokens without being their owner."
          }
        }
      ],
      "FailedInnerCall()": [
        {
          "details": "A call to an address target failed. The target may have reverted."
        }
      ],
      "OwnableInvalidOwner(address)": [
        {
          "details": "The owner is not a valid owner account. (eg. `address(0)`)"
        }
      ],
      "OwnableUnauthorizedAccount(address)": [
        {
          "details": "The caller account is not authorized to perform an operation."
        }
      ],
      "ReentrancyGuardReentrantCall()": [
        {
          "details": "Unauthorized reentrant call."
        }
      ],
      "SafeERC20FailedOperation(address)": [
        {
          "details": "An operation with an ERC20 token failed."
        }
      ]
    },
    "events": {
      "Approval(address,address,uint256)": {
        "details": "Emitted when the allowance of a `spender` for an `owner` is set by a call to {approve}. `value` is the new allowance."
      },
      "Transfer(address,address,uint256)": {
        "details": "Emitted when `value` tokens are moved from one account (`from`) to another (`to`). Note that `value` may be zero."
      }
    },
    "kind": "dev",
    "methods": {
      "allowance(address,address)": {
        "details": "See {IERC20-allowance}."
      },
      "approve(address,uint256)": {
        "details": "See {IERC20-approve}. NOTE: If `value` is the maximum `uint256`, the allowance is not updated on `transferFrom`. This is semantically equivalent to an infinite approval. Requirements: - `spender` cannot be the zero address."
      },
      "balanceOf(address)": {
        "details": "See {IERC20-balanceOf}."
      },
      "decimals()": {
        "details": "Returns the number of decimals used to get its user representation. For example, if `decimals` equals `2`, a balance of `505` tokens should be displayed to a user as `5.05` (`505 / 10 ** 2`). Tokens usually opt for a value of 18, imitating the relationship between Ether and Wei. This is the default value returned by this function, unless it's overridden. NOTE: This information is only used for _display_ purposes: it in no way affects any of the arithmetic of the contract, including {IERC20-balanceOf} and {IERC20-transfer}."
      },
      "name()": {
        "details": "Returns the name of the token."
      },
      "owner()": {
        "details": "Returns the address of the current owner."
      },
      "renounceOwnership()": {
        "details": "Leaves the contract without owner. It will not be possible to call `onlyOwner` functions. Can only be called by the current owner. NOTE: Renouncing ownership will leave the contract without an owner, thereby disabling any functionality that is only available to the owner."
      },
      "symbol()": {
        "details": "Returns the symbol of the token, usually a shorter version of the name."
      },
      "totalSupply()": {
        "details": "See {IERC20-totalSupply}."
      },
      "transfer(address,uint256)": {
        "details": "See {IERC20-transfer}. Requirements: - `to` cannot be the zero address. - the caller must have a balance of at least `value`."
      },
      "transferFrom(address,address,uint256)": {
        "details": "See {IERC20-transferFrom}. Emits an {Approval} event indicating the updated allowance. This is not required by the EIP. See the note at the beginning of {ERC20}. NOTE: Does not update the allowance if the current allowance is the maximum `uint256`. Requirements: - `from` and `to` cannot be the zero address. - `from` must have a balance of at least `value`. - the caller must have allowance for ``from``'s tokens of at least `value`."
      },
      "transferOwnership(address)": {
        "details": "Transfers ownership of the contract to a new account (`newOwner`). Can only be called by the current owner."
      }
    },
    "version": 1
  },
  "userdoc": {
    "kind": "user",
    "methods": {},
    "version": 1
  },
  "storageLayout": {
    "storage": [
      {
        "astId": 3938,
        "contract": "contracts/vaults/theseus/Vault.sol:Vault",
        "label": "_owner",
        "offset": 0,
        "slot": "0",
        "type": "t_address"
      },
      {
        "astId": 4237,
        "contract": "contracts/vaults/theseus/Vault.sol:Vault",
        "label": "_balances",
        "offset": 0,
        "slot": "1",
        "type": "t_mapping(t_address,t_uint256)"
      },
      {
        "astId": 4243,
        "contract": "contracts/vaults/theseus/Vault.sol:Vault",
        "label": "_allowances",
        "offset": 0,
        "slot": "2",
        "type": "t_mapping(t_address,t_mapping(t_address,t_uint256))"
      },
      {
        "astId": 4245,
        "contract": "contracts/vaults/theseus/Vault.sol:Vault",
        "label": "_totalSupply",
        "offset": 0,
        "slot": "3",
        "type": "t_uint256"
      },
      {
        "astId": 4247,
        "contract": "contracts/vaults/theseus/Vault.sol:Vault",
        "label": "_name",
        "offset": 0,
        "slot": "4",
        "type": "t_string_storage"
      },
      {
        "astId": 4249,
        "contract": "contracts/vaults/theseus/Vault.sol:Vault",
        "label": "_symbol",
        "offset": 0,
        "slot": "5",
        "type": "t_string_storage"
      },
      {
        "astId": 5453,
        "contract": "contracts/vaults/theseus/Vault.sol:Vault",
        "label": "_status",
        "offset": 0,
        "slot": "6",
        "type": "t_uint256"
      },
      {
        "astId": 14822,
        "contract": "contracts/vaults/theseus/Vault.sol:Vault",
        "label": "master",
        "offset": 0,
        "slot": "7",
        "type": "t_address"
      },
      {
        "astId": 14824,
        "contract": "contracts/vaults/theseus/Vault.sol:Vault",
        "label": "treasury",
        "offset": 0,
        "slot": "8",
        "type": "t_address_payable"
      },
      {
        "astId": 14826,
        "contract": "contracts/vaults/theseus/Vault.sol:Vault",
        "label": "tokenPriceConsumer",
        "offset": 0,
        "slot": "9",
        "type": "t_address"
      },
      {
        "astId": 14830,
        "contract": "contracts/vaults/theseus/Vault.sol:Vault",
        "label": "pluginIdToIndex",
        "offset": 0,
        "slot": "10",
        "type": "t_mapping(t_uint8,t_uint256)"
      },
      {
        "astId": 14834,
        "contract": "contracts/vaults/theseus/Vault.sol:Vault",
        "label": "plugins",
        "offset": 0,
        "slot": "11",
        "type": "t_array(t_struct(Plugin)14820_storage)dyn_storage"
      },
      {
        "astId": 14838,
        "contract": "contracts/vaults/theseus/Vault.sol:Vault",
        "label": "acceptedTokenMap",
        "offset": 0,
        "slot": "12",
        "type": "t_mapping(t_address,t_bool)"
      },
      {
        "astId": 14841,
        "contract": "contracts/vaults/theseus/Vault.sol:Vault",
        "label": "acceptedTokens",
        "offset": 0,
        "slot": "13",
        "type": "t_array(t_address)dyn_storage"
      },
      {
        "astId": 14845,
        "contract": "contracts/vaults/theseus/Vault.sol:Vault",
        "label": "depositAllowedTokenMap",
        "offset": 0,
        "slot": "14",
        "type": "t_mapping(t_address,t_bool)"
      },
      {
        "astId": 14848,
        "contract": "contracts/vaults/theseus/Vault.sol:Vault",
        "label": "depositAllowedTokens",
        "offset": 0,
        "slot": "15",
        "type": "t_array(t_address)dyn_storage"
      },
      {
        "astId": 14850,
        "contract": "contracts/vaults/theseus/Vault.sol:Vault",
        "label": "selectedPluginId",
        "offset": 0,
        "slot": "16",
        "type": "t_uint8"
      },
      {
        "astId": 14852,
        "contract": "contracts/vaults/theseus/Vault.sol:Vault",
        "label": "selectedPoolId",
        "offset": 1,
        "slot": "16",
        "type": "t_uint8"
      },
      {
        "astId": 14855,
        "contract": "contracts/vaults/theseus/Vault.sol:Vault",
        "label": "vaultLockers",
        "offset": 0,
        "slot": "17",
        "type": "t_array(t_address)dyn_storage"
      },
      {
        "astId": 14858,
        "contract": "contracts/vaults/theseus/Vault.sol:Vault",
        "label": "vaultManagers",
        "offset": 0,
        "slot": "18",
        "type": "t_array(t_address)dyn_storage"
      },
      {
        "astId": 14861,
        "contract": "contracts/vaults/theseus/Vault.sol:Vault",
        "label": "lpRate",
        "offset": 0,
        "slot": "19",
        "type": "t_uint256"
      },
      {
        "astId": 14863,
        "contract": "contracts/vaults/theseus/Vault.sol:Vault",
        "label": "protocolFeePercentage",
        "offset": 0,
        "slot": "20",
        "type": "t_uint256"
      },
      {
        "astId": 14865,
        "contract": "contracts/vaults/theseus/Vault.sol:Vault",
        "label": "protocolFeeInVault",
        "offset": 0,
        "slot": "21",
        "type": "t_uint256"
      },
      {
        "astId": 14867,
        "contract": "contracts/vaults/theseus/Vault.sol:Vault",
        "label": "depositMinExecFee",
        "offset": 0,
        "slot": "22",
        "type": "t_uint256"
      },
      {
        "astId": 14869,
        "contract": "contracts/vaults/theseus/Vault.sol:Vault",
        "label": "withdrawMinExecFee",
        "offset": 0,
        "slot": "23",
        "type": "t_uint256"
      }
    ],
    "types": {
      "t_address": {
        "encoding": "inplace",
        "label": "address",
        "numberOfBytes": "20"
      },
      "t_address_payable": {
        "encoding": "inplace",
        "label": "address payable",
        "numberOfBytes": "20"
      },
      "t_array(t_address)dyn_storage": {
        "base": "t_address",
        "encoding": "dynamic_array",
        "label": "address[]",
        "numberOfBytes": "32"
      },
      "t_array(t_struct(Plugin)14820_storage)dyn_storage": {
        "base": "t_struct(Plugin)14820_storage",
        "encoding": "dynamic_array",
        "label": "struct Vault.Plugin[]",
        "numberOfBytes": "32"
      },
      "t_bool": {
        "encoding": "inplace",
        "label": "bool",
        "numberOfBytes": "1"
      },
      "t_mapping(t_address,t_bool)": {
        "encoding": "mapping",
        "key": "t_address",
        "label": "mapping(address => bool)",
        "numberOfBytes": "32",
        "value": "t_bool"
      },
      "t_mapping(t_address,t_mapping(t_address,t_uint256))": {
        "encoding": "mapping",
        "key": "t_address",
        "label": "mapping(address => mapping(address => uint256))",
        "numberOfBytes": "32",
        "value": "t_mapping(t_address,t_uint256)"
      },
      "t_mapping(t_address,t_uint256)": {
        "encoding": "mapping",
        "key": "t_address",
        "label": "mapping(address => uint256)",
        "numberOfBytes": "32",
        "value": "t_uint256"
      },
      "t_mapping(t_uint8,t_uint256)": {
        "encoding": "mapping",
        "key": "t_uint8",
        "label": "mapping(uint8 => uint256)",
        "numberOfBytes": "32",
        "value": "t_uint256"
      },
      "t_string_storage": {
        "encoding": "bytes",
        "label": "string",
        "numberOfBytes": "32"
      },
      "t_struct(Plugin)14820_storage": {
        "encoding": "inplace",
        "label": "struct Vault.Plugin",
        "members": [
          {
            "astId": 14817,
            "contract": "contracts/vaults/theseus/Vault.sol:Vault",
            "label": "pluginAddress",
            "offset": 0,
            "slot": "0",
            "type": "t_address"
          },
          {
            "astId": 14819,
            "contract": "contracts/vaults/theseus/Vault.sol:Vault",
            "label": "pluginId",
            "offset": 20,
            "slot": "0",
            "type": "t_uint8"
          }
        ],
        "numberOfBytes": "32"
      },
      "t_uint256": {
        "encoding": "inplace",
        "label": "uint256",
        "numberOfBytes": "32"
      },
      "t_uint8": {
        "encoding": "inplace",
        "label": "uint8",
        "numberOfBytes": "1"
      }
    }
  }
}