{
  "address": "0x468A3559EE5843D5A426Bb45a6A555870686E8fc",
  "abi": [
    {
      "inputs": [
        {
          "internalType": "address",
          "name": "_master",
          "type": "address"
        },
        {
          "internalType": "address",
          "name": "_admin",
          "type": "address"
        },
        {
          "internalType": "address",
          "name": "_tokenPriceConsumer",
          "type": "address"
        },
        {
          "internalType": "address payable",
          "name": "_treasury",
          "type": "address"
        }
      ],
      "stateMutability": "nonpayable",
      "type": "constructor"
    },
    {
      "inputs": [
        {
          "internalType": "address",
          "name": "target",
          "type": "address"
        }
      ],
      "name": "AddressEmptyCode",
      "type": "error"
    },
    {
      "inputs": [
        {
          "internalType": "address",
          "name": "account",
          "type": "address"
        }
      ],
      "name": "AddressInsufficientBalance",
      "type": "error"
    },
    {
      "inputs": [
        {
          "internalType": "address",
          "name": "spender",
          "type": "address"
        },
        {
          "internalType": "uint256",
          "name": "allowance",
          "type": "uint256"
        },
        {
          "internalType": "uint256",
          "name": "needed",
          "type": "uint256"
        }
      ],
      "name": "ERC20InsufficientAllowance",
      "type": "error"
    },
    {
      "inputs": [
        {
          "internalType": "address",
          "name": "sender",
          "type": "address"
        },
        {
          "internalType": "uint256",
          "name": "balance",
          "type": "uint256"
        },
        {
          "internalType": "uint256",
          "name": "needed",
          "type": "uint256"
        }
      ],
      "name": "ERC20InsufficientBalance",
      "type": "error"
    },
    {
      "inputs": [
        {
          "internalType": "address",
          "name": "approver",
          "type": "address"
        }
      ],
      "name": "ERC20InvalidApprover",
      "type": "error"
    },
    {
      "inputs": [
        {
          "internalType": "address",
          "name": "receiver",
          "type": "address"
        }
      ],
      "name": "ERC20InvalidReceiver",
      "type": "error"
    },
    {
      "inputs": [
        {
          "internalType": "address",
          "name": "sender",
          "type": "address"
        }
      ],
      "name": "ERC20InvalidSender",
      "type": "error"
    },
    {
      "inputs": [
        {
          "internalType": "address",
          "name": "spender",
          "type": "address"
        }
      ],
      "name": "ERC20InvalidSpender",
      "type": "error"
    },
    {
      "inputs": [],
      "name": "FailedInnerCall",
      "type": "error"
    },
    {
      "inputs": [
        {
          "internalType": "address",
          "name": "owner",
          "type": "address"
        }
      ],
      "name": "OwnableInvalidOwner",
      "type": "error"
    },
    {
      "inputs": [
        {
          "internalType": "address",
          "name": "account",
          "type": "address"
        }
      ],
      "name": "OwnableUnauthorizedAccount",
      "type": "error"
    },
    {
      "inputs": [],
      "name": "ReentrancyGuardReentrantCall",
      "type": "error"
    },
    {
      "inputs": [
        {
          "internalType": "address",
          "name": "token",
          "type": "address"
        }
      ],
      "name": "SafeERC20FailedOperation",
      "type": "error"
    },
    {
      "anonymous": false,
      "inputs": [
        {
          "indexed": false,
          "internalType": "address",
          "name": "_token",
          "type": "address"
        }
      ],
      "name": "AddAcceptedToken",
      "type": "event"
    },
    {
      "anonymous": false,
      "inputs": [
        {
          "indexed": false,
          "internalType": "address",
          "name": "_token",
          "type": "address"
        }
      ],
      "name": "AddDepositAllowedToken",
      "type": "event"
    },
    {
      "anonymous": false,
      "inputs": [
        {
          "indexed": false,
          "internalType": "address",
          "name": "_token",
          "type": "address"
        },
        {
          "indexed": false,
          "internalType": "uint256",
          "name": "_amount",
          "type": "uint256"
        }
      ],
      "name": "AddDepositRequest",
      "type": "event"
    },
    {
      "anonymous": false,
      "inputs": [
        {
          "indexed": false,
          "internalType": "uint8",
          "name": "_pluginId",
          "type": "uint8"
        },
        {
          "indexed": false,
          "internalType": "address",
          "name": "_pluginAddress",
          "type": "address"
        }
      ],
      "name": "AddPlugin",
      "type": "event"
    },
    {
      "anonymous": false,
      "inputs": [
        {
          "indexed": false,
          "internalType": "uint256",
          "name": "_lpAmount",
          "type": "uint256"
        },
        {
          "indexed": false,
          "internalType": "uint8",
          "name": "_pluginId",
          "type": "uint8"
        },
        {
          "indexed": false,
          "internalType": "uint8",
          "name": "_poolId",
          "type": "uint8"
        },
        {
          "indexed": false,
          "internalType": "address",
          "name": "_receiver",
          "type": "address"
        }
      ],
      "name": "AddWithdrawalRequest",
      "type": "event"
    },
    {
      "anonymous": false,
      "inputs": [
        {
          "indexed": false,
          "internalType": "address",
          "name": "_oldAdmin",
          "type": "address"
        },
        {
          "indexed": false,
          "internalType": "address",
          "name": "_newAdmin",
          "type": "address"
        }
      ],
      "name": "AdminUpdated",
      "type": "event"
    },
    {
      "anonymous": false,
      "inputs": [
        {
          "indexed": true,
          "internalType": "address",
          "name": "owner",
          "type": "address"
        },
        {
          "indexed": true,
          "internalType": "address",
          "name": "spender",
          "type": "address"
        },
        {
          "indexed": false,
          "internalType": "uint256",
          "name": "value",
          "type": "uint256"
        }
      ],
      "name": "Approval",
      "type": "event"
    },
    {
      "anonymous": false,
      "inputs": [
        {
          "indexed": false,
          "internalType": "uint8",
          "name": "_pluginId",
          "type": "uint8"
        },
        {
          "indexed": false,
          "internalType": "address[]",
          "name": "_tokens",
          "type": "address[]"
        },
        {
          "indexed": false,
          "internalType": "uint256[]",
          "name": "_amounts",
          "type": "uint256[]"
        }
      ],
      "name": "ApproveTokens",
      "type": "event"
    },
    {
      "anonymous": false,
      "inputs": [
        {
          "indexed": false,
          "internalType": "uint8",
          "name": "_pluginId",
          "type": "uint8"
        },
        {
          "indexed": false,
          "internalType": "enum IPlugin.ActionType",
          "name": "_actionType",
          "type": "uint8"
        },
        {
          "indexed": false,
          "internalType": "bytes",
          "name": "_payload",
          "type": "bytes"
        }
      ],
      "name": "Execute",
      "type": "event"
    },
    {
      "anonymous": false,
      "inputs": [
        {
          "indexed": false,
          "internalType": "address",
          "name": "_oldMaster",
          "type": "address"
        },
        {
          "indexed": false,
          "internalType": "address",
          "name": "_newMaster",
          "type": "address"
        }
      ],
      "name": "MasterUpdated",
      "type": "event"
    },
    {
      "anonymous": false,
      "inputs": [
        {
          "indexed": true,
          "internalType": "address",
          "name": "previousOwner",
          "type": "address"
        },
        {
          "indexed": true,
          "internalType": "address",
          "name": "newOwner",
          "type": "address"
        }
      ],
      "name": "OwnershipTransferred",
      "type": "event"
    },
    {
      "anonymous": false,
      "inputs": [
        {
          "indexed": false,
          "internalType": "address",
          "name": "_token",
          "type": "address"
        }
      ],
      "name": "RemoveAcceptedToken",
      "type": "event"
    },
    {
      "anonymous": false,
      "inputs": [
        {
          "indexed": false,
          "internalType": "address",
          "name": "_token",
          "type": "address"
        }
      ],
      "name": "RemoveDepositAllowedToken",
      "type": "event"
    },
    {
      "anonymous": false,
      "inputs": [
        {
          "indexed": false,
          "internalType": "uint8",
          "name": "_pluginId",
          "type": "uint8"
        }
      ],
      "name": "RemovePlugin",
      "type": "event"
    },
    {
      "anonymous": false,
      "inputs": [
        {
          "indexed": false,
          "internalType": "uint8",
          "name": "_pluginId",
          "type": "uint8"
        },
        {
          "indexed": false,
          "internalType": "uint8",
          "name": "_poolId",
          "type": "uint8"
        }
      ],
      "name": "SelectPluginAndPool",
      "type": "event"
    },
    {
      "anonymous": false,
      "inputs": [
        {
          "indexed": false,
          "internalType": "uint256",
          "name": "_depositMinExecFee",
          "type": "uint256"
        },
        {
          "indexed": false,
          "internalType": "uint256",
          "name": "_withdrawMinExecFee",
          "type": "uint256"
        }
      ],
      "name": "SetExecutionFee",
      "type": "event"
    },
    {
      "anonymous": false,
      "inputs": [
        {
          "indexed": false,
          "internalType": "uint256",
          "name": "_protocolFeePercentage",
          "type": "uint256"
        }
      ],
      "name": "SetProtocolFeePercentage",
      "type": "event"
    },
    {
      "anonymous": false,
      "inputs": [
        {
          "indexed": false,
          "internalType": "address payable",
          "name": "treasury",
          "type": "address"
        }
      ],
      "name": "SetTreasury",
      "type": "event"
    },
    {
      "anonymous": false,
      "inputs": [
        {
          "indexed": false,
          "internalType": "address[]",
          "name": "_vaultLockers",
          "type": "address[]"
        }
      ],
      "name": "SetVaultLockers",
      "type": "event"
    },
    {
      "anonymous": false,
      "inputs": [
        {
          "indexed": false,
          "internalType": "address[]",
          "name": "_vaultManagers",
          "type": "address[]"
        }
      ],
      "name": "SetVaultManagers",
      "type": "event"
    },
    {
      "anonymous": false,
      "inputs": [
        {
          "indexed": false,
          "internalType": "uint8",
          "name": "_selectedPluginId",
          "type": "uint8"
        },
        {
          "indexed": false,
          "internalType": "uint8",
          "name": "_selectedPoolId",
          "type": "uint8"
        },
        {
          "indexed": false,
          "internalType": "address",
          "name": "_token",
          "type": "address"
        },
        {
          "indexed": false,
          "internalType": "uint256",
          "name": "_tokenAmount",
          "type": "uint256"
        }
      ],
      "name": "StakeToSelectedPool",
      "type": "event"
    },
    {
      "anonymous": false,
      "inputs": [
        {
          "indexed": false,
          "internalType": "address",
          "name": "_oldTokenPriceConsumer",
          "type": "address"
        },
        {
          "indexed": false,
          "internalType": "address",
          "name": "_newTokenPriceConsumer",
          "type": "address"
        }
      ],
      "name": "TokenPriceConsumerUpdated",
      "type": "event"
    },
    {
      "anonymous": false,
      "inputs": [
        {
          "indexed": true,
          "internalType": "address",
          "name": "from",
          "type": "address"
        },
        {
          "indexed": true,
          "internalType": "address",
          "name": "to",
          "type": "address"
        },
        {
          "indexed": false,
          "internalType": "uint256",
          "name": "value",
          "type": "uint256"
        }
      ],
      "name": "Transfer",
      "type": "event"
    },
    {
      "anonymous": false,
      "inputs": [
        {
          "indexed": false,
          "internalType": "uint256",
          "name": "_previousRate",
          "type": "uint256"
        },
        {
          "indexed": false,
          "internalType": "uint256",
          "name": "_lpRate",
          "type": "uint256"
        }
      ],
      "name": "UpdateLiquidityProviderRate",
      "type": "event"
    },
    {
      "anonymous": false,
      "inputs": [
        {
          "indexed": false,
          "internalType": "address",
          "name": "_token",
          "type": "address"
        },
        {
          "indexed": false,
          "internalType": "uint256",
          "name": "_amount",
          "type": "uint256"
        }
      ],
      "name": "WithdrawProtocolFee",
      "type": "event"
    },
    {
      "stateMutability": "payable",
      "type": "fallback"
    },
    {
      "inputs": [],
      "name": "ASSET_DECIMALS",
      "outputs": [
        {
          "internalType": "uint256",
          "name": "",
          "type": "uint256"
        }
      ],
      "stateMutability": "view",
      "type": "function"
    },
    {
      "inputs": [],
      "name": "BP_DENOMINATOR",
      "outputs": [
        {
          "internalType": "uint256",
          "name": "",
          "type": "uint256"
        }
      ],
      "stateMutability": "view",
      "type": "function"
    },
    {
      "inputs": [],
      "name": "MAX_FEE",
      "outputs": [
        {
          "internalType": "uint256",
          "name": "",
          "type": "uint256"
        }
      ],
      "stateMutability": "view",
      "type": "function"
    },
    {
      "inputs": [],
      "name": "MOZAIC_DECIMALS",
      "outputs": [
        {
          "internalType": "uint256",
          "name": "",
          "type": "uint256"
        }
      ],
      "stateMutability": "view",
      "type": "function"
    },
    {
      "inputs": [
        {
          "internalType": "address",
          "name": "",
          "type": "address"
        }
      ],
      "name": "acceptedTokenMap",
      "outputs": [
        {
          "internalType": "bool",
          "name": "",
          "type": "bool"
        }
      ],
      "stateMutability": "view",
      "type": "function"
    },
    {
      "inputs": [
        {
          "internalType": "uint256",
          "name": "",
          "type": "uint256"
        }
      ],
      "name": "acceptedTokens",
      "outputs": [
        {
          "internalType": "address",
          "name": "",
          "type": "address"
        }
      ],
      "stateMutability": "view",
      "type": "function"
    },
    {
      "inputs": [
        {
          "internalType": "address",
          "name": "_token",
          "type": "address"
        }
      ],
      "name": "addAcceptedToken",
      "outputs": [],
      "stateMutability": "nonpayable",
      "type": "function"
    },
    {
      "inputs": [
        {
          "internalType": "address",
          "name": "_token",
          "type": "address"
        }
      ],
      "name": "addDepositAllowedToken",
      "outputs": [],
      "stateMutability": "nonpayable",
      "type": "function"
    },
    {
      "inputs": [
        {
          "internalType": "address",
          "name": "_token",
          "type": "address"
        },
        {
          "internalType": "uint256",
          "name": "_tokenAmount",
          "type": "uint256"
        },
        {
          "internalType": "address",
          "name": "_receiver",
          "type": "address"
        },
        {
          "internalType": "bytes",
          "name": "_payload",
          "type": "bytes"
        }
      ],
      "name": "addDepositRequest",
      "outputs": [],
      "stateMutability": "payable",
      "type": "function"
    },
    {
      "inputs": [
        {
          "internalType": "uint8",
          "name": "_pluginId",
          "type": "uint8"
        },
        {
          "internalType": "address",
          "name": "_pluginAddress",
          "type": "address"
        }
      ],
      "name": "addPlugin",
      "outputs": [],
      "stateMutability": "nonpayable",
      "type": "function"
    },
    {
      "inputs": [
        {
          "internalType": "uint256",
          "name": "_lpAmount",
          "type": "uint256"
        },
        {
          "internalType": "uint8",
          "name": "_pluginId",
          "type": "uint8"
        },
        {
          "internalType": "uint8",
          "name": "_poolId",
          "type": "uint8"
        },
        {
          "internalType": "address",
          "name": "_receiver",
          "type": "address"
        },
        {
          "internalType": "bytes",
          "name": "payload",
          "type": "bytes"
        }
      ],
      "name": "addWithdrawalRequest",
      "outputs": [],
      "stateMutability": "payable",
      "type": "function"
    },
    {
      "inputs": [],
      "name": "admin",
      "outputs": [
        {
          "internalType": "address",
          "name": "",
          "type": "address"
        }
      ],
      "stateMutability": "view",
      "type": "function"
    },
    {
      "inputs": [
        {
          "internalType": "address",
          "name": "owner",
          "type": "address"
        },
        {
          "internalType": "address",
          "name": "spender",
          "type": "address"
        }
      ],
      "name": "allowance",
      "outputs": [
        {
          "internalType": "uint256",
          "name": "",
          "type": "uint256"
        }
      ],
      "stateMutability": "view",
      "type": "function"
    },
    {
      "inputs": [
        {
          "internalType": "address",
          "name": "spender",
          "type": "address"
        },
        {
          "internalType": "uint256",
          "name": "value",
          "type": "uint256"
        }
      ],
      "name": "approve",
      "outputs": [
        {
          "internalType": "bool",
          "name": "",
          "type": "bool"
        }
      ],
      "stateMutability": "nonpayable",
      "type": "function"
    },
    {
      "inputs": [
        {
          "internalType": "uint8",
          "name": "_pluginId",
          "type": "uint8"
        },
        {
          "internalType": "address[]",
          "name": "_tokens",
          "type": "address[]"
        },
        {
          "internalType": "uint256[]",
          "name": "_amounts",
          "type": "uint256[]"
        }
      ],
      "name": "approveTokens",
      "outputs": [],
      "stateMutability": "nonpayable",
      "type": "function"
    },
    {
      "inputs": [
        {
          "internalType": "address",
          "name": "account",
          "type": "address"
        }
      ],
      "name": "balanceOf",
      "outputs": [
        {
          "internalType": "uint256",
          "name": "",
          "type": "uint256"
        }
      ],
      "stateMutability": "view",
      "type": "function"
    },
    {
      "inputs": [
        {
          "internalType": "uint256",
          "name": "_lpAmount",
          "type": "uint256"
        }
      ],
      "name": "burnLP",
      "outputs": [],
      "stateMutability": "nonpayable",
      "type": "function"
    },
    {
      "inputs": [
        {
          "internalType": "address",
          "name": "_tokenAddress",
          "type": "address"
        },
        {
          "internalType": "uint256",
          "name": "_tokenValueUsd",
          "type": "uint256"
        }
      ],
      "name": "calculateTokenAmountFromUsd",
      "outputs": [
        {
          "internalType": "uint256",
          "name": "",
          "type": "uint256"
        }
      ],
      "stateMutability": "view",
      "type": "function"
    },
    {
      "inputs": [
        {
          "internalType": "address",
          "name": "_tokenAddress",
          "type": "address"
        },
        {
          "internalType": "uint256",
          "name": "_tokenAmount",
          "type": "uint256"
        }
      ],
      "name": "calculateTokenValueInUsd",
      "outputs": [
        {
          "internalType": "uint256",
          "name": "",
          "type": "uint256"
        }
      ],
      "stateMutability": "view",
      "type": "function"
    },
    {
      "inputs": [
        {
          "internalType": "uint256",
          "name": "_amount",
          "type": "uint256"
        }
      ],
      "name": "convertAssetToLP",
      "outputs": [
        {
          "internalType": "uint256",
          "name": "",
          "type": "uint256"
        }
      ],
      "stateMutability": "view",
      "type": "function"
    },
    {
      "inputs": [
        {
          "internalType": "uint256",
          "name": "_amount",
          "type": "uint256"
        },
        {
          "internalType": "uint256",
          "name": "_from",
          "type": "uint256"
        },
        {
          "internalType": "uint256",
          "name": "_to",
          "type": "uint256"
        }
      ],
      "name": "convertDecimals",
      "outputs": [
        {
          "internalType": "uint256",
          "name": "",
          "type": "uint256"
        }
      ],
      "stateMutability": "pure",
      "type": "function"
    },
    {
      "inputs": [
        {
          "internalType": "uint256",
          "name": "_amount",
          "type": "uint256"
        }
      ],
      "name": "convertLPToAsset",
      "outputs": [
        {
          "internalType": "uint256",
          "name": "",
          "type": "uint256"
        }
      ],
      "stateMutability": "view",
      "type": "function"
    },
    {
      "inputs": [],
      "name": "decimals",
      "outputs": [
        {
          "internalType": "uint8",
          "name": "",
          "type": "uint8"
        }
      ],
      "stateMutability": "view",
      "type": "function"
    },
    {
      "inputs": [
        {
          "internalType": "address",
          "name": "",
          "type": "address"
        }
      ],
      "name": "depositAllowedTokenMap",
      "outputs": [
        {
          "internalType": "bool",
          "name": "",
          "type": "bool"
        }
      ],
      "stateMutability": "view",
      "type": "function"
    },
    {
      "inputs": [
        {
          "internalType": "uint256",
          "name": "",
          "type": "uint256"
        }
      ],
      "name": "depositAllowedTokens",
      "outputs": [
        {
          "internalType": "address",
          "name": "",
          "type": "address"
        }
      ],
      "stateMutability": "view",
      "type": "function"
    },
    {
      "inputs": [],
      "name": "depositMinExecFee",
      "outputs": [
        {
          "internalType": "uint256",
          "name": "",
          "type": "uint256"
        }
      ],
      "stateMutability": "view",
      "type": "function"
    },
    {
      "inputs": [
        {
          "internalType": "uint8",
          "name": "_pluginId",
          "type": "uint8"
        },
        {
          "internalType": "enum IPlugin.ActionType",
          "name": "_actionType",
          "type": "uint8"
        },
        {
          "internalType": "bytes",
          "name": "_payload",
          "type": "bytes"
        }
      ],
      "name": "execute",
      "outputs": [],
      "stateMutability": "nonpayable",
      "type": "function"
    },
    {
      "inputs": [],
      "name": "getAcceptedTokens",
      "outputs": [
        {
          "internalType": "address[]",
          "name": "",
          "type": "address[]"
        }
      ],
      "stateMutability": "view",
      "type": "function"
    },
    {
      "inputs": [],
      "name": "getBalance",
      "outputs": [
        {
          "internalType": "uint256",
          "name": "",
          "type": "uint256"
        }
      ],
      "stateMutability": "view",
      "type": "function"
    },
    {
      "inputs": [],
      "name": "getCurrentLiquidityProviderRate",
      "outputs": [
        {
          "internalType": "uint256",
          "name": "",
          "type": "uint256"
        }
      ],
      "stateMutability": "view",
      "type": "function"
    },
    {
      "inputs": [],
      "name": "getDepositAllowedTokens",
      "outputs": [
        {
          "internalType": "address[]",
          "name": "",
          "type": "address[]"
        }
      ],
      "stateMutability": "view",
      "type": "function"
    },
    {
      "inputs": [
        {
          "internalType": "uint8",
          "name": "_pluginId",
          "type": "uint8"
        }
      ],
      "name": "getPlugin",
      "outputs": [
        {
          "components": [
            {
              "internalType": "address",
              "name": "pluginAddress",
              "type": "address"
            },
            {
              "internalType": "uint8",
              "name": "pluginId",
              "type": "uint8"
            }
          ],
          "internalType": "struct Vault.Plugin",
          "name": "",
          "type": "tuple"
        }
      ],
      "stateMutability": "view",
      "type": "function"
    },
    {
      "inputs": [],
      "name": "getPlugins",
      "outputs": [
        {
          "components": [
            {
              "internalType": "address",
              "name": "pluginAddress",
              "type": "address"
            },
            {
              "internalType": "uint8",
              "name": "pluginId",
              "type": "uint8"
            }
          ],
          "internalType": "struct Vault.Plugin[]",
          "name": "",
          "type": "tuple[]"
        }
      ],
      "stateMutability": "view",
      "type": "function"
    },
    {
      "inputs": [],
      "name": "getPluginsCount",
      "outputs": [
        {
          "internalType": "uint256",
          "name": "",
          "type": "uint256"
        }
      ],
      "stateMutability": "view",
      "type": "function"
    },
    {
      "inputs": [
        {
          "internalType": "uint8",
          "name": "_pluginId",
          "type": "uint8"
        },
        {
          "internalType": "uint8",
          "name": "_poolId",
          "type": "uint8"
        }
      ],
      "name": "getPoolTokenInfo",
      "outputs": [
        {
          "internalType": "address",
          "name": "token",
          "type": "address"
        },
        {
          "internalType": "uint8",
          "name": "decimal",
          "type": "uint8"
        },
        {
          "internalType": "uint256",
          "name": "balance",
          "type": "uint256"
        }
      ],
      "stateMutability": "view",
      "type": "function"
    },
    {
      "inputs": [
        {
          "internalType": "uint8",
          "name": "_pluginId",
          "type": "uint8"
        },
        {
          "internalType": "uint8",
          "name": "_poolId",
          "type": "uint8"
        }
      ],
      "name": "getPoolTokenPrice",
      "outputs": [
        {
          "internalType": "uint256",
          "name": "",
          "type": "uint256"
        }
      ],
      "stateMutability": "view",
      "type": "function"
    },
    {
      "inputs": [
        {
          "internalType": "uint8",
          "name": "_pluginId",
          "type": "uint8"
        },
        {
          "internalType": "uint8",
          "name": "_poolId",
          "type": "uint8"
        }
      ],
      "name": "getTokensByPluginAndPoolId",
      "outputs": [
        {
          "internalType": "address[]",
          "name": "",
          "type": "address[]"
        }
      ],
      "stateMutability": "view",
      "type": "function"
    },
    {
      "inputs": [],
      "name": "getVaultStatus",
      "outputs": [
        {
          "internalType": "bool",
          "name": "",
          "type": "bool"
        }
      ],
      "stateMutability": "view",
      "type": "function"
    },
    {
      "inputs": [
        {
          "internalType": "address",
          "name": "_token",
          "type": "address"
        }
      ],
      "name": "isAcceptedToken",
      "outputs": [
        {
          "internalType": "bool",
          "name": "",
          "type": "bool"
        }
      ],
      "stateMutability": "view",
      "type": "function"
    },
    {
      "inputs": [
        {
          "internalType": "address",
          "name": "_token",
          "type": "address"
        }
      ],
      "name": "isDepositAllowedToken",
      "outputs": [
        {
          "internalType": "bool",
          "name": "",
          "type": "bool"
        }
      ],
      "stateMutability": "view",
      "type": "function"
    },
    {
      "inputs": [],
      "name": "lpRate",
      "outputs": [
        {
          "internalType": "uint256",
          "name": "",
          "type": "uint256"
        }
      ],
      "stateMutability": "view",
      "type": "function"
    },
    {
      "inputs": [],
      "name": "master",
      "outputs": [
        {
          "internalType": "address",
          "name": "",
          "type": "address"
        }
      ],
      "stateMutability": "view",
      "type": "function"
    },
    {
      "inputs": [],
      "name": "name",
      "outputs": [
        {
          "internalType": "string",
          "name": "",
          "type": "string"
        }
      ],
      "stateMutability": "view",
      "type": "function"
    },
    {
      "inputs": [],
      "name": "owner",
      "outputs": [
        {
          "internalType": "address",
          "name": "",
          "type": "address"
        }
      ],
      "stateMutability": "view",
      "type": "function"
    },
    {
      "inputs": [
        {
          "internalType": "uint8",
          "name": "",
          "type": "uint8"
        }
      ],
      "name": "pluginIdToIndex",
      "outputs": [
        {
          "internalType": "uint256",
          "name": "",
          "type": "uint256"
        }
      ],
      "stateMutability": "view",
      "type": "function"
    },
    {
      "inputs": [
        {
          "internalType": "uint256",
          "name": "",
          "type": "uint256"
        }
      ],
      "name": "plugins",
      "outputs": [
        {
          "internalType": "address",
          "name": "pluginAddress",
          "type": "address"
        },
        {
          "internalType": "uint8",
          "name": "pluginId",
          "type": "uint8"
        }
      ],
      "stateMutability": "view",
      "type": "function"
    },
    {
      "inputs": [],
      "name": "protocolFeeInVault",
      "outputs": [
        {
          "internalType": "uint256",
          "name": "",
          "type": "uint256"
        }
      ],
      "stateMutability": "view",
      "type": "function"
    },
    {
      "inputs": [],
      "name": "protocolFeePercentage",
      "outputs": [
        {
          "internalType": "uint256",
          "name": "",
          "type": "uint256"
        }
      ],
      "stateMutability": "view",
      "type": "function"
    },
    {
      "inputs": [
        {
          "internalType": "address",
          "name": "_token",
          "type": "address"
        }
      ],
      "name": "removeAcceptedToken",
      "outputs": [],
      "stateMutability": "nonpayable",
      "type": "function"
    },
    {
      "inputs": [
        {
          "internalType": "address",
          "name": "_token",
          "type": "address"
        }
      ],
      "name": "removeDepositAllowedToken",
      "outputs": [],
      "stateMutability": "nonpayable",
      "type": "function"
    },
    {
      "inputs": [
        {
          "internalType": "uint8",
          "name": "_pluginId",
          "type": "uint8"
        }
      ],
      "name": "removePlugin",
      "outputs": [],
      "stateMutability": "nonpayable",
      "type": "function"
    },
    {
      "inputs": [],
      "name": "renounceOwnership",
      "outputs": [],
      "stateMutability": "nonpayable",
      "type": "function"
    },
    {
      "inputs": [
        {
          "internalType": "uint8",
          "name": "_pluginId",
          "type": "uint8"
        },
        {
          "internalType": "uint8",
          "name": "_poolId",
          "type": "uint8"
        }
      ],
      "name": "selectPluginAndPool",
      "outputs": [],
      "stateMutability": "nonpayable",
      "type": "function"
    },
    {
      "inputs": [],
      "name": "selectedPluginId",
      "outputs": [
        {
          "internalType": "uint8",
          "name": "",
          "type": "uint8"
        }
      ],
      "stateMutability": "view",
      "type": "function"
    },
    {
      "inputs": [],
      "name": "selectedPoolId",
      "outputs": [
        {
          "internalType": "uint8",
          "name": "",
          "type": "uint8"
        }
      ],
      "stateMutability": "view",
      "type": "function"
    },
    {
      "inputs": [
        {
          "internalType": "address",
          "name": "_newAdmin",
          "type": "address"
        }
      ],
      "name": "setAdmin",
      "outputs": [],
      "stateMutability": "nonpayable",
      "type": "function"
    },
    {
      "inputs": [
        {
          "internalType": "uint256",
          "name": "_depositMinExecFee",
          "type": "uint256"
        },
        {
          "internalType": "uint256",
          "name": "_withdrawMinExecFee",
          "type": "uint256"
        }
      ],
      "name": "setExecutionFee",
      "outputs": [],
      "stateMutability": "nonpayable",
      "type": "function"
    },
    {
      "inputs": [
        {
          "internalType": "address",
          "name": "_newMaster",
          "type": "address"
        }
      ],
      "name": "setMaster",
      "outputs": [],
      "stateMutability": "nonpayable",
      "type": "function"
    },
    {
      "inputs": [
        {
          "internalType": "uint256",
          "name": "_protocolFeePercentage",
          "type": "uint256"
        }
      ],
      "name": "setProtocolFeePercentage",
      "outputs": [],
      "stateMutability": "nonpayable",
      "type": "function"
    },
    {
      "inputs": [
        {
          "internalType": "address",
          "name": "_tokenPriceConsumer",
          "type": "address"
        }
      ],
      "name": "setTokenPriceConsumer",
      "outputs": [],
      "stateMutability": "nonpayable",
      "type": "function"
    },
    {
      "inputs": [
        {
          "internalType": "address payable",
          "name": "_treasury",
          "type": "address"
        }
      ],
      "name": "setTreasury",
      "outputs": [],
      "stateMutability": "nonpayable",
      "type": "function"
    },
    {
      "inputs": [
        {
          "internalType": "address[]",
          "name": "_vaultLockers",
          "type": "address[]"
        }
      ],
      "name": "setVaultLockers",
      "outputs": [],
      "stateMutability": "nonpayable",
      "type": "function"
    },
    {
      "inputs": [
        {
          "internalType": "address[]",
          "name": "_vaultManagers",
          "type": "address[]"
        }
      ],
      "name": "setVaultManagers",
      "outputs": [],
      "stateMutability": "nonpayable",
      "type": "function"
    },
    {
      "inputs": [],
      "name": "symbol",
      "outputs": [
        {
          "internalType": "string",
          "name": "",
          "type": "string"
        }
      ],
      "stateMutability": "view",
      "type": "function"
    },
    {
      "inputs": [],
      "name": "tokenPriceConsumer",
      "outputs": [
        {
          "internalType": "address",
          "name": "",
          "type": "address"
        }
      ],
      "stateMutability": "view",
      "type": "function"
    },
    {
      "inputs": [],
      "name": "totalAssetInUsd",
      "outputs": [
        {
          "internalType": "uint256",
          "name": "_totalAsset",
          "type": "uint256"
        }
      ],
      "stateMutability": "view",
      "type": "function"
    },
    {
      "inputs": [],
      "name": "totalSupply",
      "outputs": [
        {
          "internalType": "uint256",
          "name": "",
          "type": "uint256"
        }
      ],
      "stateMutability": "view",
      "type": "function"
    },
    {
      "inputs": [
        {
          "internalType": "address",
          "name": "to",
          "type": "address"
        },
        {
          "internalType": "uint256",
          "name": "value",
          "type": "uint256"
        }
      ],
      "name": "transfer",
      "outputs": [
        {
          "internalType": "bool",
          "name": "",
          "type": "bool"
        }
      ],
      "stateMutability": "nonpayable",
      "type": "function"
    },
    {
      "inputs": [
        {
          "internalType": "uint8",
          "name": "_pluginId",
          "type": "uint8"
        },
        {
          "internalType": "uint256",
          "name": "_amount",
          "type": "uint256"
        }
      ],
      "name": "transferExecutionFee",
      "outputs": [],
      "stateMutability": "nonpayable",
      "type": "function"
    },
    {
      "inputs": [
        {
          "internalType": "address",
          "name": "from",
          "type": "address"
        },
        {
          "internalType": "address",
          "name": "to",
          "type": "address"
        },
        {
          "internalType": "uint256",
          "name": "value",
          "type": "uint256"
        }
      ],
      "name": "transferFrom",
      "outputs": [
        {
          "internalType": "bool",
          "name": "",
          "type": "bool"
        }
      ],
      "stateMutability": "nonpayable",
      "type": "function"
    },
    {
      "inputs": [
        {
          "internalType": "address",
          "name": "_account",
          "type": "address"
        },
        {
          "internalType": "uint256",
          "name": "_lpAmount",
          "type": "uint256"
        }
      ],
      "name": "transferLP",
      "outputs": [],
      "stateMutability": "nonpayable",
      "type": "function"
    },
    {
      "inputs": [
        {
          "internalType": "address",
          "name": "newOwner",
          "type": "address"
        }
      ],
      "name": "transferOwnership",
      "outputs": [],
      "stateMutability": "nonpayable",
      "type": "function"
    },
    {
      "inputs": [],
      "name": "treasury",
      "outputs": [
        {
          "internalType": "address payable",
          "name": "",
          "type": "address"
        }
      ],
      "stateMutability": "view",
      "type": "function"
    },
    {
      "inputs": [
        {
          "internalType": "uint256",
          "name": "",
          "type": "uint256"
        }
      ],
      "name": "vaultLockers",
      "outputs": [
        {
          "internalType": "address",
          "name": "",
          "type": "address"
        }
      ],
      "stateMutability": "view",
      "type": "function"
    },
    {
      "inputs": [
        {
          "internalType": "uint256",
          "name": "",
          "type": "uint256"
        }
      ],
      "name": "vaultManagers",
      "outputs": [
        {
          "internalType": "address",
          "name": "",
          "type": "address"
        }
      ],
      "stateMutability": "view",
      "type": "function"
    },
    {
      "inputs": [],
      "name": "withdrawMinExecFee",
      "outputs": [
        {
          "internalType": "uint256",
          "name": "",
          "type": "uint256"
        }
      ],
      "stateMutability": "view",
      "type": "function"
    },
    {
      "inputs": [
        {
          "internalType": "address",
          "name": "_token",
          "type": "address"
        }
      ],
      "name": "withdrawProtocolFee",
      "outputs": [],
      "stateMutability": "nonpayable",
      "type": "function"
    },
    {
      "stateMutability": "payable",
      "type": "receive"
    }
  ],
  "transactionHash": "0x8bd08c7f500f9ffdb842878e7b04b852a3e8fbcd7a1ff2b26cbc0136a0fe23b1",
  "args": [
    "0x7E9BA79614FeC2C52e85842502df66A6dB107fde",
    "0x7E9BA79614FeC2C52e85842502df66A6dB107fde",
    "0x5805e7f873DE3598D96be9eFD10d4f2c1D01D412",
    "0x7E9BA79614FeC2C52e85842502df66A6dB107fde"
  ],
  "numDeployments": 1,
  "solcInputHash": "9afec594dc1b4e9556a96994ac169add",
  "bytecode": "0x6080604052670de0b6b3a76400006014553480156200001d57600080fd5b5060405162005731380380620057318339810160408190526200004091620002ba565b604080518082018252601181527004d6f7a6169632054686573657573204c5607c1b6020808301919091528251808401909352600a83526904d4f5a2d5448452d4c560b41b90830152903380620000b257604051631e4fbdf760e01b8152600060048201526024015b60405180910390fd5b620000bd8162000251565b506004620000cc8382620003c9565b506005620000db8282620003c9565b50506001600655506001600160a01b0384166200012a5760405162461bcd60e51b81526020600482015260166024820152600080516020620057118339815191526044820152606401620000a9565b6001600160a01b038316620001715760405162461bcd60e51b81526020600482015260166024820152600080516020620057118339815191526044820152606401620000a9565b6001600160a01b038216620001b85760405162461bcd60e51b81526020600482015260166024820152600080516020620057118339815191526044820152606401620000a9565b6001600160a01b038116620001ff5760405162461bcd60e51b81526020600482015260166024820152600080516020620057118339815191526044820152606401620000a9565b600780546001600160a01b03199081166001600160a01b0396871617909155600a8054821693861693909317909255600980548316918516919091179055600880549091169190921617905562000495565b600080546001600160a01b038381166001600160a01b0319831681178455604051919092169283917f8be0079c531659141344cd1fd0a4f28419497f9722a3daafe3b4186f6b6457e09190a35050565b6001600160a01b0381168114620002b757600080fd5b50565b60008060008060808587031215620002d157600080fd5b8451620002de81620002a1565b6020860151909450620002f181620002a1565b60408601519093506200030481620002a1565b60608601519092506200031781620002a1565b939692955090935050565b634e487b7160e01b600052604160045260246000fd5b600181811c908216806200034d57607f821691505b6020821081036200036e57634e487b7160e01b600052602260045260246000fd5b50919050565b601f821115620003c4576000816000526020600020601f850160051c810160208610156200039f5750805b601f850160051c820191505b81811015620003c057828155600101620003ab565b5050505b505050565b81516001600160401b03811115620003e557620003e562000322565b620003fd81620003f6845462000338565b8462000374565b602080601f8311600181146200043557600084156200041c5750858301515b600019600386901b1c1916600185901b178555620003c0565b600085815260208120601f198616915b82811015620004665788860151825594840194600190910190840162000445565b5085821015620004855787850151600019600388901b60f8161c191681555b5050505050600190811b01905550565b61526c80620004a56000396000f3fe6080604052600436106104265760003560e01c806379d0f55e11610227578063c5607b991161012d578063ee97f7f3116100b0578063f4db898411610077578063f4db898414610d9d578063f851a44014610db2578063fb55ab7d14610dd2578063fd1e663e14610df2578063ff74ea7e14610e0557005b8063ee97f7f314610cdc578063f0a317eb14610cfc578063f0f4426014610d3d578063f12ffcbd14610d5d578063f2fde38b14610d7d57005b8063d8a5e936116100f4578063d8a5e93614610bf0578063dbc7a95d14610c10578063dd62ed3e14610c30578063e731ecfa14610c76578063e78afc8d14610ca357005b8063c5607b9914610b6e578063c6ef206114610b88578063d21d0c2514610ba8578063d44c403014610bbb578063d8134a2314610bd057005b8063abe685cd116101b5578063b773fdc11161017c578063b773fdc114610ad8578063b9c5cb0514610af8578063bb1ae35214610b18578063bb809bfa14610b38578063bc063e1a14610b5857005b8063abe685cd14610a57578063aede67ea14610a6d578063af8db57514610a82578063b0c2515314610aa2578063b6ef57d314610ac257005b80638e50e509116101f95780638e50e509146109ca57806395d89b41146109e0578063a2d869b2146109f5578063a7888a3414610a17578063a9059cbb14610a3757005b806379d0f55e1461093f5780637bc59ce51461096c5780637d2342651461098c5780638da5cb5b146109ac57005b80632f7570061161032c57806361d027b3116102ba578063704b6c0211610281578063704b6c021461089457806370a08231146108b4578063715018a6146108ea57806371d6f669146108ff57806374e72b691461091f57005b806361d027b31461080957806363315e4e14610829578063661517131461083f578063668fb6dc1461085e5780636f732c671461087e57005b806337e43105116102fe57806337e43105146107405780633acbb182146107605780633b6e750f146107905780633eee83f1146107c95780635e1e77de146107e957005b80632f757006146106c9578063313ce567146106de57806336a605031461070057806336c877541461072057005b80631b47298a116103b457806326fae0d31161037b57806326fae0d31461063e578063278246751461065e57806327a029141461067e57806328863bd31461069e578063296f6c8c146106b357005b80631b47298a146105655780631c6e0cae146105ac5780632236d2fd146105ce57806323b872dd146105fe578063260239411461061e57005b8063095ea7b3116103f8578063095ea7b3146104cd5780630fd7907b146104fd57806312065fe01461051d578063160c6e291461053057806318160ddd1461055057005b8063056049581461042f578063061ce77d1461044f57806306fdde0314610473578063084475861461049557005b3661042d57005b005b34801561043b57600080fd5b5061042d61044a3660046143fd565b610e1a565b34801561045b57600080fd5b50600c545b6040519081526020015b60405180910390f35b34801561047f57600080fd5b50610488610f3a565b60405161046a9190614479565b3480156104a157600080fd5b50600a546104b5906001600160a01b031681565b6040516001600160a01b03909116815260200161046a565b3480156104d957600080fd5b506104ed6104e83660046143fd565b610fcc565b604051901515815260200161046a565b34801561050957600080fd5b5061046061051836600461449b565b610fe6565b34801561052957600080fd5b5047610460565b34801561053c57600080fd5b5061042d61054b3660046144d4565b611130565b34801561055c57600080fd5b50610460611271565b34801561057157600080fd5b5061058561058036600461449b565b611291565b604080516001600160a01b03909416845260ff90921660208401529082015260600161046a565b3480156105b857600080fd5b506105c1611381565b60405161046a9190614537565b3480156105da57600080fd5b506104ed6105e936600461454a565b600d6020526000908152604090205460ff1681565b34801561060a57600080fd5b506104ed610619366004614567565b6113e2565b34801561062a57600080fd5b5061042d61063936600461449b565b611408565b34801561064a57600080fd5b5061042d61065936600461454a565b6114c0565b34801561066a57600080fd5b506104606106793660046145a8565b611548565b34801561068a57600080fd5b5061042d6106993660046145d4565b611596565b3480156106aa57600080fd5b50610460600681565b3480156106bf57600080fd5b5061046060175481565b3480156106d557600080fd5b506105c1611630565b3480156106ea57600080fd5b5060065b60405160ff909116815260200161046a565b34801561070c57600080fd5b5061046061071b3660046143fd565b611690565b34801561072c57600080fd5b506104b561073b3660046145f6565b611811565b34801561074c57600080fd5b5061042d61075b36600461454a565b61183b565b34801561076c57600080fd5b506104ed61077b36600461454a565b600f6020526000908152604090205460ff1681565b34801561079c57600080fd5b506104ed6107ab36600461454a565b6001600160a01b03166000908152600d602052604090205460ff1690565b3480156107d557600080fd5b5061042d6107e436600461454a565b611a12565b3480156107f557600080fd5b5061042d61080436600461460f565b611b23565b34801561081557600080fd5b506009546104b5906001600160a01b031681565b34801561083557600080fd5b5061046060165481565b34801561084b57600080fd5b506011546106ee90610100900460ff1681565b34801561086a57600080fd5b5061042d61087936600461454a565b611cb9565b34801561088a57600080fd5b5061046060185481565b3480156108a057600080fd5b5061042d6108af36600461454a565b611e74565b3480156108c057600080fd5b506104606108cf36600461454a565b6001600160a01b031660009081526001602052604090205490565b3480156108f657600080fd5b5061042d611efc565b34801561090b57600080fd5b506104b561091a3660046145f6565b611f10565b34801561092b57600080fd5b506104b561093a3660046145f6565b611f20565b34801561094b57600080fd5b5061095f61095a36600461463d565b611f30565b60405161046a919061465a565b34801561097857600080fd5b5061042d610987366004614760565b611fe3565b34801561099857600080fd5b506104606109a73660046143fd565b612162565b3480156109b857600080fd5b506000546001600160a01b03166104b5565b3480156109d657600080fd5b5061046060155481565b3480156109ec57600080fd5b506104886122e0565b348015610a0157600080fd5b50610a0a6122ef565b60405161046a919061482c565b348015610a2357600080fd5b5061042d610a3236600461454a565b612365565b348015610a4357600080fd5b506104ed610a523660046143fd565b6123ed565b348015610a6357600080fd5b5061046061271081565b348015610a7957600080fd5b506104ed6123fb565b348015610a8e57600080fd5b5061042d610a9d36600461488f565b6124b0565b348015610aae57600080fd5b506104b5610abd3660046145f6565b6124fb565b348015610ace57600080fd5b5061046060145481565b348015610ae457600080fd5b50610460610af33660046145f6565b61250b565b348015610b0457600080fd5b50610460610b133660046145f6565b612596565b348015610b2457600080fd5b5061042d610b3336600461493d565b612618565b348015610b4457600080fd5b5061042d610b5336600461454a565b61289c565b348015610b6457600080fd5b506104606103e881565b348015610b7a57600080fd5b506011546106ee9060ff1681565b348015610b9457600080fd5b5061042d610ba33660046145f6565b61295e565b61042d610bb63660046149a3565b612a0c565b348015610bc757600080fd5b50610460612cc8565b348015610bdc57600080fd5b5061042d610beb36600461454a565b612e97565b348015610bfc57600080fd5b5061042d610c0b3660046145f6565b613061565b348015610c1c57600080fd5b5061042d610c2b36600461488f565b613100565b348015610c3c57600080fd5b50610460610c4b366004614a22565b6001600160a01b03918216600090815260026020908152604080832093909416825291909152205490565b348015610c8257600080fd5b50610460610c9136600461463d565b600b6020526000908152604090205481565b348015610caf57600080fd5b506104ed610cbe36600461454a565b6001600160a01b03166000908152600f602052604090205460ff1690565b348015610ce857600080fd5b506007546104b5906001600160a01b031681565b348015610d0857600080fd5b50610d1c610d173660046145f6565b61314b565b604080516001600160a01b03909316835260ff90911660208301520161046a565b348015610d4957600080fd5b5061042d610d5836600461454a565b613180565b348015610d6957600080fd5b506105c1610d7836600461449b565b613225565b348015610d8957600080fd5b5061042d610d9836600461454a565b613323565b348015610da957600080fd5b50610460602481565b348015610dbe57600080fd5b506008546104b5906001600160a01b031681565b348015610dde57600080fd5b5061042d610ded36600461463d565b61335e565b61042d610e00366004614a40565b61351e565b348015610e1157600080fd5b50610460613768565b6000805b601354811015610e7057336001600160a01b031660138281548110610e4557610e45614aac565b6000918252602090912001546001600160a01b031603610e685760019150610e70565b600101610e1e565b5080610ec35760405162461bcd60e51b815260206004820152601c60248201527f5661756c743a20496e76616c6964207661756c74206d616e616765720000000060448201526064015b60405180910390fd5b60405163a9059cbb60e01b81526001600160a01b038416600482015260248101839052309063a9059cbb906044016020604051808303816000875af1158015610f10573d6000803e3d6000fd5b505050506040513d601f19601f82011682018060405250810190610f349190614ac2565b50505050565b606060048054610f4990614ae4565b80601f0160208091040260200160405190810160405280929190818152602001828054610f7590614ae4565b8015610fc25780601f10610f9757610100808354040283529160200191610fc2565b820191906000526020600020905b815481529060010190602001808311610fa557829003601f168201915b5050505050905090565b600033610fda818585613803565b60019150505b92915050565b60ff82166000908152600b602052604081205481036110175760405162461bcd60e51b8152600401610eba90614b18565b60ff83166000908152600b6020526040812054600c9061103990600190614b70565b8154811061104957611049614aac565b60009182526020822001546040516396c1865b60e01b815260ff86166004820152600160248201526001600160a01b03909116925082906396c1865b90604401602060405180830381865afa1580156110a6573d6000803e3d6000fd5b505050506040513d601f19601f820116820180604052508101906110ca9190614b83565b9050600081136111285760405162461bcd60e51b8152602060048201526024808201527f5661756c743a20506f6f6c20746f6b656e207072696365206973206e6567617460448201526334bb329760e11b6064820152608401610eba565b949350505050565b6007546001600160a01b0316331461115a5760405162461bcd60e51b8152600401610eba90614b9c565b611162613810565b600061116d83611f30565b9050478211156111bf5760405162461bcd60e51b815260206004820152601b60248201527f5661756c743a20496e73756666696369656e742062616c616e636500000000006044820152606401610eba565b80516040516000916001600160a01b03169084908381818185875af1925050503d806000811461120b576040519150601f19603f3d011682016040523d82523d6000602084013e611210565b606091505b50509050806112615760405162461bcd60e51b815260206004820152601b60248201527f5661756c743a204661696c656420746f2073656e6420457468657200000000006044820152606401610eba565b505061126d6001600655565b5050565b600061127f6006600a614cb7565b60035461128c9190614cc3565b905090565b60ff82166000908152600b60205260408120548190819081036112c65760405162461bcd60e51b8152600401610eba90614b18565b60ff85166000908152600b6020526040812054600c906112e890600190614b70565b815481106112f8576112f8614aac565b60009182526020909120015460405163189f5a0360e11b815260ff871660048201526001600160a01b039091169150819063313eb40690602401606060405180830381865afa15801561134f573d6000803e3d6000fd5b505050506040513d601f19601f820116820180604052508101906113739190614cd6565b935093509350509250925092565b60606010805480602002602001604051908101604052809291908181526020018280548015610fc257602002820191906000526020600020905b81546001600160a01b031681526001909101906020018083116113bb575050505050905090565b6000336113f085828561383a565b6113fb8585856138b2565b60019150505b9392505050565b6008546001600160a01b031633146114625760405162461bcd60e51b815260206004820152601b60248201527f5661756c743a2063616c6c6572206d7573742062652061646d696e00000000006044820152606401610eba565b6011805460ff84811661ffff199092168217610100918516918202179092556040805191825260208201929092527f14e1b7912db93ec92d8f90ef7bd11f9f3e0102207772767f99efb2d09652708e91015b60405180910390a15050565b6114c8613911565b6001600160a01b0381166114ee5760405162461bcd60e51b8152600401610eba90614d19565b600780546001600160a01b038381166001600160a01b031983168117909355604080519190921680825260208201939093527fad86f1a43fee68be483e267b534abff158fe4e9b790f2de1188ffe2671231c3491016114b4565b60008183106115775761155b8284614b70565b61156690600a614cb7565b6115709085614d49565b9050611401565b6115818383614b70565b61158c90600a614cb7565b6115709085614d6b565b6008546001600160a01b031633146115f05760405162461bcd60e51b815260206004820152601b60248201527f5661756c743a2063616c6c6572206d7573742062652061646d696e00000000006044820152606401610eba565b6017829055601881905560408051838152602081018390527fa110b587ac7535a0f2355180833c95160b4dde91ead092742efaf8d33d1d3db991016114b4565b6060600e805480602002602001604051908101604052809291908181526020018280548015610fc2576020028201919060005260206000209081546001600160a01b031681526001909101906020018083116113bb575050505050905090565b600080836001600160a01b031663313ce5676040518163ffffffff1660e01b8152600401602060405180830381865afa1580156116d1573d6000803e3d6000fd5b505050506040513d601f19601f820116820180604052508101906116f59190614d82565b600a54604051636a24d41960e11b81526001600160a01b03878116600483015260ff9390931693506000929091169063d449a83290602401602060405180830381865afa15801561174a573d6000803e3d6000fd5b505050506040513d601f19601f8201168201806040525081019061176e9190614d82565b600a54604051630681320d60e51b81526001600160a01b03888116600483015260ff9390931693506000929091169063d02641a090602401602060405180830381865afa1580156117c3573d6000803e3d6000fd5b505050506040513d601f19601f820116820180604052508101906117e79190614b83565b90506118076117f68287614d6b565b6118008486614cc3565b6024611548565b9695505050505050565b600e818154811061182157600080fd5b6000918252602090912001546001600160a01b0316905081565b611843613911565b6001600160a01b0381166000908152600f602052604090205460ff1615156001036119bd576001600160a01b0381166000908152600f60205260408120805460ff191690555b6010548110156119bb57816001600160a01b0316601082815481106118b0576118b0614aac565b6000918252602090912001546001600160a01b0316036119b357601080546118da90600190614b70565b815481106118ea576118ea614aac565b600091825260209091200154601080546001600160a01b03909216918390811061191657611916614aac565b9060005260206000200160006101000a8154816001600160a01b0302191690836001600160a01b03160217905550601080548061195557611955614d9f565b6000828152602090819020600019908301810180546001600160a01b03191690559091019091556040516001600160a01b03841681527fb3b812909278685b51bb62950331b6fd26f7ce72a6cd192c9ece03f6ee398f5291016114b4565b600101611889565b505b60405162461bcd60e51b815260206004820152602160248201527f5661756c743a204e6f6e2d6465706f73697420616c6c6f77656420746f6b656e6044820152601760f91b6064820152608401610eba565b50565b611a1a613911565b6001600160a01b0381166000908152600d602052604081205460ff1615159003611adb576001600160a01b0381166000818152600d60209081526040808320805460ff19166001908117909155600e805491820181559093527fbb7b4a454dc3493923482f07822329ed19e8244eff582cc204f8554c3620c3fd90920180546001600160a01b0319168417905590519182527f8d12536a26e1c757d393b039469ce97499ed4a5c39f067cd950f9295a269061b91015b60405180910390a150565b60405162461bcd60e51b815260206004820152601c60248201527f5661756c743a20546f6b656e20616c7265616479206578697374732e000000006044820152606401610eba565b611b2b613911565b8160ff16600003611b7e5760405162461bcd60e51b815260206004820152601e60248201527f5661756c743a20506c7567696e49642063616e6e6f74206265207a65726f00006044820152606401610eba565b60ff82166000908152600b602052604090205415611be95760405162461bcd60e51b815260206004820152602260248201527f506c7567696e2077697468207468697320494420616c72656164792065786973604482015261747360f01b6064820152608401610eba565b6040805180820182526001600160a01b03808416825260ff8086166020808501828152600c8054600181018255600082815297517fdf6966c971051c3d54ec59162606531493a51404a002842f56009d7e5cf4a8c790910180549351909616600160a01b026001600160a81b0319909316961695909517179092559154918352600b90529082902055517f82928e1181db449ef41e256af411debe6548a93bdb7b4cd3cc064bba2424f4ee906114b4908490849060ff9290921682526001600160a01b0316602082015260400190565b6007546001600160a01b03163314611ce35760405162461bcd60e51b8152600401610eba90614b9c565b611ceb613810565b6001600160a01b0381166000908152600d602052604090205460ff16611d4a5760405162461bcd60e51b81526020600482015260146024820152732b30bab63a1d1024b73b30b634b2103a37b5b2b760611b6044820152606401610eba565b6000611d5882601654612162565b6040516370a0823160e01b81523060048201529091506000906001600160a01b038416906370a0823190602401602060405180830381865afa158015611da2573d6000803e3d6000fd5b505050506040513d601f19601f82011682018060405250810190611dc69190614b83565b9050600082821015611dd85781611dda565b825b90508215611e25578281601654611df19190614d6b565b611dfb9190614d49565b601654611e089190614b70565b601655600954611e25906001600160a01b0386811691168361393e565b604080516001600160a01b0386168152602081018390527f1698f33bf2ba6b1a5dbe8f4e48a724e345352a91c1ad49b9e823713a38ac750d910160405180910390a1505050611a0f6001600655565b611e7c613911565b6001600160a01b038116611ea25760405162461bcd60e51b8152600401610eba90614d19565b600880546001600160a01b038381166001600160a01b031983168117909355604080519190921680825260208201939093527fad86f1a43fee68be483e267b534abff158fe4e9b790f2de1188ffe2671231c3491016114b4565b611f04613911565b611f0e600061399d565b565b6010818154811061182157600080fd5b6012818154811061182157600080fd5b604080518082019091526000808252602082015260ff82166000908152600b60205260408120549003611f755760405162461bcd60e51b8152600401610eba90614b18565b60ff82166000908152600b6020526040812054600c90611f9790600190614b70565b81548110611fa757611fa7614aac565b6000918252602091829020604080518082019091529101546001600160a01b0381168252600160a01b900460ff16918101919091529392505050565b6007546001600160a01b0316331461200d5760405162461bcd60e51b8152600401610eba90614b9c565b612015613810565b60ff83166000908152600b602052604081205490036120465760405162461bcd60e51b8152600401610eba90614b18565b60ff83166000908152600b6020526040812054600c9061206890600190614b70565b8154811061207857612078614aac565b600091825260209091200154825184516001600160a01b039092169250146120b25760405162461bcd60e51b8152600401610eba90614db5565b60005b83518110156121165761210e828483815181106120d4576120d4614aac565b60200260200101518684815181106120ee576120ee614aac565b60200260200101516001600160a01b03166139ed9092919063ffffffff16565b6001016120b5565b507fb2de8a7e3a7a5cd63b512230691a3b7c6d2a155e140eabf51de5f1cd4bbd1c9f84848460405161214a93929190614e2c565b60405180910390a15061215d6001600655565b505050565b600080836001600160a01b031663313ce5676040518163ffffffff1660e01b8152600401602060405180830381865afa1580156121a3573d6000803e3d6000fd5b505050506040513d601f19601f820116820180604052508101906121c79190614d82565b600a54604051636a24d41960e11b81526001600160a01b03878116600483015260ff9390931693506000929091169063d449a83290602401602060405180830381865afa15801561221c573d6000803e3d6000fd5b505050506040513d601f19601f820116820180604052508101906122409190614d82565b60ff16905060006122578560246106798587614cc3565b600a54604051630681320d60e51b81526001600160a01b0389811660048301529293506000929091169063d02641a090602401602060405180830381865afa1580156122a7573d6000803e3d6000fd5b505050506040513d601f19601f820116820180604052508101906122cb9190614b83565b6122d59083614d49565b979650505050505050565b606060058054610f4990614ae4565b6060600c805480602002602001604051908101604052809291908181526020016000905b8282101561235c57600084815260209081902060408051808201909152908401546001600160a01b0381168252600160a01b900460ff1681830152825260019092019101612313565b50505050905090565b61236d613911565b6001600160a01b0381166123935760405162461bcd60e51b8152600401610eba90614d19565b600a80546001600160a01b038381166001600160a01b031983168117909355604080519190921680825260208201939093527ff4502d3564a672945971a0fba8e29bffe054f3ab45f59b8e003c17aeab1bbd2091016114b4565b600033610fda8185856138b2565b60006001815b6012548110156124aa576012818154811061241e5761241e614aac565b600091825260209182902001546040805163ef563ba560e01b815290516001600160a01b039092169263ef563ba5926004808401938290030181865afa15801561246c573d6000803e3d6000fd5b505050506040513d601f19601f820116820180604052508101906124909190614ac2565b15156000036124a257600091506124aa565b600101612401565b50919050565b6124b8613911565b80516124cb90601290602084019061436e565b507f75793d06eb3a848ff6160cccf8a42cb464c416ed07faf13dfb47ae4f46857d0681604051611ad09190614537565b6013818154811061182157600080fd5b600080601654612519612cc8565b1161252557600061253a565b601654612530612cc8565b61253a9190614b70565b90506125486024600a614cb7565b81111580612568575061255d6006600a614cb7565b612565611271565b11155b1561257a576114018360066024611548565b612582611271565b61258c8285614d6b565b6114019190614d49565b6000806016546125a4612cc8565b116125b05760006125c5565b6016546125bb612cc8565b6125c59190614b70565b90506125d36024600a614cb7565b811115806125f357506125e86006600a614cb7565b6125f0611271565b11155b15612605576114018360246006611548565b8061260e611271565b61258c9085614d6b565b6007546001600160a01b031633146126425760405162461bcd60e51b8152600401610eba90614b9c565b61264a613810565b60ff83166000908152600b6020526040812054900361267b5760405162461bcd60e51b8152600401610eba90614b18565b60ff83166000908152600b6020526040812054600c9061269d90600190614b70565b815481106126ad576126ad614aac565b60009182526020822001546001600160a01b031691508360048111156126d5576126d5614e5a565b0361278657600080838060200190518101906126f19190614f1d565b50925092505080518251146127185760405162461bcd60e51b8152600401610eba90614db5565b60005b825181101561277e57600082828151811061273857612738614aac565b60200260200101511115612776576127768483838151811061275c5761275c614aac565b60200260200101518584815181106120ee576120ee614aac565b60010161271b565b505050612809565b600183600481111561279a5761279a614e5a565b03612809576000828060200190518101906127b59190615006565b50935050506001600160a01b038216301490506128075760405162461bcd60e51b815260206004820152601060248201526f24b73b30b634b2103932b1b2b4bb32b960811b6044820152606401610eba565b505b604051633ed34d9360e21b81526001600160a01b0382169063fb4d364c906128379086908690600401615094565b600060405180830381600087803b15801561285157600080fd5b505af1158015612865573d6000803e3d6000fd5b505050507fd1d58280d995f2eeb79c5a7a40676ea3a07813ac558a14adb50cb7a0dae135a184848460405161214a939291906150b4565b6128a4613911565b6001600160a01b0381166000908152600f602052604081205460ff1615159003611adb576001600160a01b0381166000818152600f60209081526040808320805460ff191660019081179091556010805491820181559093527f1b6847dc741a1b0cd08d278845f9d819d87b734759afb55fe2de5cb82a9ae67290920180546001600160a01b0319168417905590519182527f9de0acb434fe97ecc1d1a16e96e0fef8e9a12b54d716f753d570c59539f93ab59101611ad0565b6000805b6013548110156129b457336001600160a01b03166013828154811061298957612989614aac565b6000918252602090912001546001600160a01b0316036129ac57600191506129b4565b600101612962565b5080612a025760405162461bcd60e51b815260206004820152601c60248201527f5661756c743a20496e76616c6964207661756c74206d616e61676572000000006044820152606401610eba565b61126d3083613a77565b612a146123fb565b1515600114612a355760405162461bcd60e51b8152600401610eba906150dd565b601854341015612a575760405162461bcd60e51b8152600401610eba9061510d565b60008511612aa75760405162461bcd60e51b815260206004820152601e60248201527f5661756c743a20496e76616c6964204c5020746f6b656e20616d6f756e7400006044820152606401610eba565b612aaf613aad565b6040516323b872dd60e01b8152336004820152306024820181905260448201879052906323b872dd906064016020604051808303816000875af1158015612afa573d6000803e3d6000fd5b505050506040513d601f19601f82011682018060405250810190612b1e9190614ac2565b506000612b2a8661250b565b90506000612b388686611291565b509150506000612b488787610fe6565b9050600081612b5c8560068660ff16611548565b612b669190614d49565b9050600087828b8989604051602001612b8395949392919061514e565b60408051601f1981840301815291815260ff8b166000908152600b6020529081205491925003612bc55760405162461bcd60e51b8152600401610eba90614b18565b60ff89166000908152600b6020526040812054600c90612be790600190614b70565b81548110612bf757612bf7614aac565b600091825260209091200154604051633ed34d9360e21b81526001600160a01b039091169150819063fb4d364c90612c36906001908690600401615094565b600060405180830381600087803b158015612c5057600080fd5b505af1158015612c64573d6000803e3d6000fd5b5050604080518e815260ff8e811660208301528d16818301526001600160a01b038c16606082015290517ff9dc9eadd0cc0780e3b8e626ab108cc4acbfaa08f131e9c3a79d90e9d22081a09350908190036080019150a15050505050505050505050565b6000612cd26123fb565b1515600114612cf35760405162461bcd60e51b8152600401610eba906150dd565b60005b600c5460ff82161015612da757600c8160ff1681548110612d1957612d19614aac565b60009182526020918290200154604080516335c7e92560e01b815290516001600160a01b03909216926335c7e925926004808401938290030181865afa158015612d67573d6000803e3d6000fd5b505050506040513d601f19601f82011682018060405250810190612d8b9190614b83565b612d959083614cc3565b9150612da081615184565b9050612cf6565b5060005b600e54811015612e8057612e6c600e8281548110612dcb57612dcb614aac565b600091825260209091200154600e80546001600160a01b039092169184908110612df757612df7614aac565b6000918252602090912001546040516370a0823160e01b81523060048201526001600160a01b03909116906370a0823190602401602060405180830381865afa158015612e48573d6000803e3d6000fd5b505050506040513d601f19601f8201168201806040525081019061071b9190614b83565b612e769083614cc3565b9150600101612dab565b50612e8d6024600a614cb7565b61128c9082614cc3565b612e9f613911565b6001600160a01b0381166000908152600d602052604090205460ff161515600103613019576001600160a01b0381166000908152600d60205260408120805460ff191690555b600e5481101561301757816001600160a01b0316600e8281548110612f0c57612f0c614aac565b6000918252602090912001546001600160a01b03160361300f57600e8054612f3690600190614b70565b81548110612f4657612f46614aac565b600091825260209091200154600e80546001600160a01b039092169183908110612f7257612f72614aac565b9060005260206000200160006101000a8154816001600160a01b0302191690836001600160a01b03160217905550600e805480612fb157612fb1614d9f565b6000828152602090819020600019908301810180546001600160a01b03191690559091019091556040516001600160a01b03841681527fd45f8e69dd1637935a0de01b2f0d707b0f009e604d60d445d28ed36e6281925c91016114b4565b600101612ee5565b505b60405162461bcd60e51b815260206004820152601a60248201527f5661756c743a204e6f6e2d616363657074656420746f6b656e2e0000000000006044820152606401610eba565b613069613911565b6103e88111156130cb5760405162461bcd60e51b815260206004820152602760248201527f5661756c743a2070726f746f636f6c20666565206578636565647320746865206044820152666d61782066656560c81b6064820152608401610eba565b60158190556040518181527f6668cdfd543255bfacce42e8e363820b28fd302f59ac468c0a7474a38556c9ef90602001611ad0565b613108613911565b805161311b90601390602084019061436e565b507f89e49a824d9524bf238c9ad5c47117e0b3fe3246a6dbbda21847a66b58bcc93881604051611ad09190614537565b600c818154811061315b57600080fd5b6000918252602090912001546001600160a01b0381169150600160a01b900460ff1682565b613188613911565b6001600160a01b0381166131d75760405162461bcd60e51b81526020600482015260166024820152755661756c743a20496e76616c6964206164647265737360501b6044820152606401610eba565b600980546001600160a01b0319166001600160a01b0383169081179091556040519081527fcb7ef3e545f5cdb893f5c568ba710fe08f336375a2d9fd66e161033f8fc09ef390602001611ad0565b60ff82166000908152600b60205260408120546060918291900361324a579050610fe0565b60ff84166000908152600b6020526040812054600c9061326c90600190614b70565b8154811061327c5761327c614aac565b600091825260209182902060408051808201825292909101546001600160a01b03811680845260ff600160a01b9092048216948401949094529051630a9e949160e21b81529087166004820152909250632a7a524490602401600060405180830381865afa1580156132f2573d6000803e3d6000fd5b505050506040513d6000823e601f3d908101601f1916820160405261331a91908101906151a3565b95945050505050565b61332b613911565b6001600160a01b03811661335557604051631e4fbdf760e01b815260006004820152602401610eba565b611a0f8161399d565b613366613911565b60ff81166000908152600b602052604081205490036133975760405162461bcd60e51b8152600401610eba90614b18565b60ff81166000908152600b60205260408120546133b690600190614b70565b60ff83166000908152600b6020526040812055600c549091506133db90600190614b70565b81146134b557600c8054600091906133f590600190614b70565b8154811061340557613405614aac565b6000918252602091829020604080518082019091529101546001600160a01b0381168252600160a01b900460ff1691810191909152600c805491925082918490811061345357613453614aac565b6000918252602091829020835191018054939092015160ff16600160a01b026001600160a81b03199093166001600160a01b039091161791909117905561349b826001614cc3565b60209182015160ff166000908152600b9092526040909120555b600c8054806134c6576134c6614d9f565b6000828152602090819020600019908301810180546001600160a81b031916905590910190915560405160ff841681527f0a312f1a2ac6a06b589a288d1fb8f65a78df1d25f4518b5d90d6dfb3b3c5dc1891016114b4565b613526613810565b61352e6123fb565b151560011461354f5760405162461bcd60e51b8152600401610eba906150dd565b6017543410156135715760405162461bcd60e51b8152600401610eba9061510d565b6001600160a01b0384166000908152600f602052604090205460ff166135d05760405162461bcd60e51b81526020600482015260146024820152732b30bab63a1d1024b73b30b634b2103a37b5b2b760611b6044820152606401610eba565b6135d8613aad565b600083116136285760405162461bcd60e51b815260206004820152601b60248201527f5661756c743a20496e76616c696420746f6b656e20616d6f756e7400000000006044820152606401610eba565b60006136348585611690565b905061364260026024614b70565b61364d90600a614cb7565b8110156136935760405162461bcd60e51b8152602060048201526014602482015273125b9d985b1a59081d1bdad95b88185b5bdd5b9d60621b6044820152606401610eba565b600061369e82612596565b9050600081116136f05760405162461bcd60e51b815260206004820152601a60248201527f5661756c743a20496e73756666696369656e7420616d6f756e740000000000006044820152606401610eba565b6137056001600160a01b038716333088613b82565b61370f8482613bbb565b604080516001600160a01b0388168152602081018790527f6c37c6ecf36829ae3759052fb0ebde09db8d9df703558db7886f111614de4741910160405180910390a161375c868685613bf1565b5050610f346001600655565b600080601654613776612cc8565b11613782576000613797565b60165461378d612cc8565b6137979190614b70565b905060006137a76024600a614cb7565b821115806137c757506137bc6006600a614cb7565b6137c4611271565b11155b156137db5750670de0b6b3a7640000610fe0565b60006137ef83602461067960066012614cc3565b90506137f9611271565b6111289082614d49565b61215d8383836001613eb8565b60026006540361383357604051633ee5aeb560e01b815260040160405180910390fd5b6002600655565b6001600160a01b038381166000908152600260209081526040808320938616835292905220546000198114610f3457818110156138a357604051637dc7a0d960e11b81526001600160a01b03841660048201526024810182905260448101839052606401610eba565b610f3484848484036000613eb8565b6001600160a01b0383166138dc57604051634b637e8f60e11b815260006004820152602401610eba565b6001600160a01b0382166139065760405163ec442f0560e01b815260006004820152602401610eba565b61215d838383613f8d565b6000546001600160a01b03163314611f0e5760405163118cdaa760e01b8152336004820152602401610eba565b6040516001600160a01b0383811660248301526044820183905261215d91859182169063a9059cbb906064015b604051602081830303815290604052915060e01b6020820180516001600160e01b0383818316178352505050506140b7565b600080546001600160a01b038381166001600160a01b0319831681178455604051919092169283917f8be0079c531659141344cd1fd0a4f28419497f9722a3daafe3b4186f6b6457e09190a35050565b604051636eb1769f60e11b81523060048201526001600160a01b0383811660248301526000919085169063dd62ed3e90604401602060405180830381865afa158015613a3d573d6000803e3d6000fd5b505050506040513d601f19601f82011682018060405250810190613a619190614b83565b9050610f348484613a728585614cc3565b61411a565b6001600160a01b038216613aa157604051634b637e8f60e11b815260006004820152602401610eba565b61126d82600083613f8d565b6014546000613aba613768565b905081811115613b42576000613ad08383614b70565b90506000613af5613adf611271565b613ae99084614d6b565b61180060066012614cc3565b9050600061271060155483613b0a9190614d6b565b613b149190614d49565b90508060166000828254613b289190614cc3565b90915550613b369050613768565b60145550613b48915050565b60148190555b6014546040805184815260208101929092527f5d9d530192099327de5a2c3afce10e28b8b9ca0efbc42dd0404947d28e95118991016114b4565b6040516001600160a01b038481166024830152838116604483015260648201839052610f349186918216906323b872dd9060840161396b565b6001600160a01b038216613be55760405163ec442f0560e01b815260006004820152602401610eba565b61126d60008383613f8d565b601154600090613c0c9060ff80821691610100900416613225565b905060005b8151811015613e5d57846001600160a01b0316828281518110613c3657613c36614aac565b60200260200101516001600160a01b031603613e55576000825167ffffffffffffffff811115613c6857613c6861467d565b604051908082528060200260200182016040528015613c91578160200160208202803683370190505b50905084818381518110613ca757613ca7614aac565b6020026020010181815250506000601160019054906101000a900460ff16848387604051602001613cdb94939291906151d8565b60408051601f1981840301815291815260115460ff166000908152600b6020529081205491925003613d1f5760405162461bcd60e51b8152600401610eba90614b18565b60115460ff166000908152600b6020526040812054600c90613d4390600190614b70565b81548110613d5357613d53614aac565b9060005260206000200160000160009054906101000a90046001600160a01b03169050613d8d81888787815181106120ee576120ee614aac565b604051633ed34d9360e21b81526001600160a01b0382169063fb4d364c90613dbc906000908690600401615094565b600060405180830381600087803b158015613dd657600080fd5b505af1158015613dea573d6000803e3d6000fd5b50506011546040805160ff808416825261010090930490921660208301526001600160a01b038c1682820152606082018b9052517f4a73781a39df215cc38853e07006d66222cc28e3f25802b0ed4ec11282df56c29350908190036080019150a15050505050505050565b600101613c11565b5060405162461bcd60e51b815260206004820152602960248201527f5661756c743a206465706f73697420746f6b656e206e6f7420696e20616c6c6f604482015268776564546f6b656e7360b81b6064820152608401610eba565b6001600160a01b038416613ee25760405163e602df0560e01b815260006004820152602401610eba565b6001600160a01b038316613f0c57604051634a1406b160e11b815260006004820152602401610eba565b6001600160a01b0380851660009081526002602090815260408083209387168352929052208290558015610f3457826001600160a01b0316846001600160a01b03167f8c5be1e5ebec7d5bd14f71427d1e84f3dd0314c0f7b2291e5b200ac8c7c3b92584604051613f7f91815260200190565b60405180910390a350505050565b6001600160a01b038316613fb8578060036000828254613fad9190614cc3565b9091555061402a9050565b6001600160a01b0383166000908152600160205260409020548181101561400b5760405163391434e360e21b81526001600160a01b03851660048201526024810182905260448101839052606401610eba565b6001600160a01b03841660009081526001602052604090209082900390555b6001600160a01b03821661404657600380548290039055614065565b6001600160a01b03821660009081526001602052604090208054820190555b816001600160a01b0316836001600160a01b03167fddf252ad1be2c89b69c2b068fc378daa952ba7f163c4a11628f55a4df523b3ef836040516140aa91815260200190565b60405180910390a3505050565b60006140cc6001600160a01b038416836141aa565b905080516000141580156140f15750808060200190518101906140ef9190614ac2565b155b1561215d57604051635274afe760e01b81526001600160a01b0384166004820152602401610eba565b604080516001600160a01b038416602482015260448082018490528251808303909101815260649091019091526020810180516001600160e01b031663095ea7b360e01b17905261416b84826141b8565b610f34576040516001600160a01b038481166024830152600060448301526141a091869182169063095ea7b39060640161396b565b610f3484826140b7565b60606114018383600061425b565b6000806000846001600160a01b0316846040516141d5919061521a565b6000604051808303816000865af19150503d8060008114614212576040519150601f19603f3d011682016040523d82523d6000602084013e614217565b606091505b50915091508180156142415750805115806142415750808060200190518101906142419190614ac2565b801561331a5750505050506001600160a01b03163b151590565b6060814710156142805760405163cd78605960e01b8152306004820152602401610eba565b600080856001600160a01b0316848660405161429c919061521a565b60006040518083038185875af1925050503d80600081146142d9576040519150601f19603f3d011682016040523d82523d6000602084013e6142de565b606091505b50915091506118078683836060826142fe576142f982614345565b611401565b815115801561431557506001600160a01b0384163b155b1561433e57604051639996b31560e01b81526001600160a01b0385166004820152602401610eba565b5080611401565b8051156143555780518082602001fd5b604051630a12f52160e11b815260040160405180910390fd5b8280548282559060005260206000209081019282156143c3579160200282015b828111156143c357825182546001600160a01b0319166001600160a01b0390911617825560209092019160019091019061438e565b506143cf9291506143d3565b5090565b5b808211156143cf57600081556001016143d4565b6001600160a01b0381168114611a0f57600080fd5b6000806040838503121561441057600080fd5b823561441b816143e8565b946020939093013593505050565b60005b8381101561444457818101518382015260200161442c565b50506000910152565b60008151808452614465816020860160208601614429565b601f01601f19169290920160200192915050565b602081526000611401602083018461444d565b60ff81168114611a0f57600080fd5b600080604083850312156144ae57600080fd5b82356144b98161448c565b915060208301356144c98161448c565b809150509250929050565b600080604083850312156144e757600080fd5b823561441b8161448c565b60008151808452602080850194506020840160005b8381101561452c5781516001600160a01b031687529582019590820190600101614507565b509495945050505050565b60208152600061140160208301846144f2565b60006020828403121561455c57600080fd5b8135611401816143e8565b60008060006060848603121561457c57600080fd5b8335614587816143e8565b92506020840135614597816143e8565b929592945050506040919091013590565b6000806000606084860312156145bd57600080fd5b505081359360208301359350604090920135919050565b600080604083850312156145e757600080fd5b50508035926020909101359150565b60006020828403121561460857600080fd5b5035919050565b6000806040838503121561462257600080fd5b823561462d8161448c565b915060208301356144c9816143e8565b60006020828403121561464f57600080fd5b81356114018161448c565b81516001600160a01b0316815260208083015160ff169082015260408101610fe0565b634e487b7160e01b600052604160045260246000fd5b604051601f8201601f1916810167ffffffffffffffff811182821017156146bc576146bc61467d565b604052919050565b600067ffffffffffffffff8211156146de576146de61467d565b5060051b60200190565b600082601f8301126146f957600080fd5b8135602061470e614709836146c4565b614693565b8083825260208201915060208460051b87010193508684111561473057600080fd5b602086015b84811015614755578035614748816143e8565b8352918301918301614735565b509695505050505050565b60008060006060848603121561477557600080fd5b83356147808161448c565b925060208481013567ffffffffffffffff8082111561479e57600080fd5b6147aa888389016146e8565b945060408701359150808211156147c057600080fd5b508501601f810187136147d257600080fd5b80356147e0614709826146c4565b81815260059190911b820183019083810190898311156147ff57600080fd5b928401925b8284101561481d57833582529284019290840190614804565b80955050505050509250925092565b602080825282518282018190526000919060409081850190868401855b828110156148825761487284835180516001600160a01b0316825260209081015160ff16910152565b9284019290850190600101614849565b5091979650505050505050565b6000602082840312156148a157600080fd5b813567ffffffffffffffff8111156148b857600080fd5b611128848285016146e8565b600067ffffffffffffffff8211156148de576148de61467d565b50601f01601f191660200190565b600082601f8301126148fd57600080fd5b813561490b614709826148c4565b81815284602083860101111561492057600080fd5b816020850160208301376000918101602001919091529392505050565b60008060006060848603121561495257600080fd5b833561495d8161448c565b925060208401356005811061497157600080fd5b9150604084013567ffffffffffffffff81111561498d57600080fd5b614999868287016148ec565b9150509250925092565b600080600080600060a086880312156149bb57600080fd5b8535945060208601356149cd8161448c565b935060408601356149dd8161448c565b925060608601356149ed816143e8565b9150608086013567ffffffffffffffff811115614a0957600080fd5b614a15888289016148ec565b9150509295509295909350565b60008060408385031215614a3557600080fd5b823561462d816143e8565b60008060008060808587031215614a5657600080fd5b8435614a61816143e8565b9350602085013592506040850135614a78816143e8565b9150606085013567ffffffffffffffff811115614a9457600080fd5b614aa0878288016148ec565b91505092959194509250565b634e487b7160e01b600052603260045260246000fd5b600060208284031215614ad457600080fd5b8151801515811461140157600080fd5b600181811c90821680614af857607f821691505b6020821081036124aa57634e487b7160e01b600052602260045260246000fd5b60208082526022908201527f506c7567696e2077697468207468697320494420646f6573206e6f74206578696040820152611cdd60f21b606082015260800190565b634e487b7160e01b600052601160045260246000fd5b81810381811115610fe057610fe0614b5a565b600060208284031215614b9557600080fd5b5051919050565b6020808252601c908201527f5661756c743a2063616c6c6572206d757374206265206d617374657200000000604082015260600190565b600181815b80851115614c0e578160001904821115614bf457614bf4614b5a565b80851615614c0157918102915b93841c9390800290614bd8565b509250929050565b600082614c2557506001610fe0565b81614c3257506000610fe0565b8160018114614c485760028114614c5257614c6e565b6001915050610fe0565b60ff841115614c6357614c63614b5a565b50506001821b610fe0565b5060208310610133831016604e8410600b8410161715614c91575081810a610fe0565b614c9b8383614bd3565b8060001904821115614caf57614caf614b5a565b029392505050565b60006114018383614c16565b80820180821115610fe057610fe0614b5a565b600080600060608486031215614ceb57600080fd5b8351614cf6816143e8565b6020850151909350614d078161448c565b80925050604084015190509250925092565b6020808252601690820152755661756c743a20496e76616c6964204164647265737360501b604082015260600190565b600082614d6657634e487b7160e01b600052601260045260246000fd5b500490565b8082028115828204841417610fe057610fe0614b5a565b600060208284031215614d9457600080fd5b81516114018161448c565b634e487b7160e01b600052603160045260246000fd5b60208082526026908201527f5661756c743a204c69737473206d7573742068617665207468652073616d65206040820152650d8cadccee8d60d31b606082015260800190565b60008151808452602080850194506020840160005b8381101561452c57815187529582019590820190600101614e10565b60ff84168152606060208201526000614e4860608301856144f2565b82810360408401526118078185614dfb565b634e487b7160e01b600052602160045260246000fd5b600082601f830112614e8157600080fd5b81516020614e91614709836146c4565b8083825260208201915060208460051b870101935086841115614eb357600080fd5b602086015b84811015614755578051614ecb816143e8565b8352918301918301614eb8565b600082601f830112614ee957600080fd5b8151614ef7614709826148c4565b818152846020838601011115614f0c57600080fd5b611128826020830160208701614429565b60008060008060808587031215614f3357600080fd5b8451614f3e8161448c565b8094505060208086015167ffffffffffffffff80821115614f5e57600080fd5b614f6a89838a01614e70565b95506040880151915080821115614f8057600080fd5b818801915088601f830112614f9457600080fd5b8151614fa2614709826146c4565b81815260059190911b8301840190848101908b831115614fc157600080fd5b938501935b82851015614fdf57845182529385019390850190614fc6565b60608b01519097509450505080831115614ff857600080fd5b5050614aa087828801614ed8565b600080600080600060a0868803121561501e57600080fd5b85516150298161448c565b8095505060208601519350604086015192506060860151615049816143e8565b608087015190925067ffffffffffffffff81111561506657600080fd5b614a1588828901614ed8565b6005811061509057634e487b7160e01b600052602160045260246000fd5b9052565b61509e8184615072565b604060208201526000611128604083018461444d565b60ff841681526150c76020820184615072565b60606040820152600061331a606083018461444d565b60208082526016908201527515985d5b1d0e8815985d5b1d081a5cc81b1bd8dad95960521b604082015260600190565b60208082526021908201527f5661756c743a20496e73756666696369656e7420657865637574696f6e2066656040820152606560f81b606082015260800190565b60ff8616815284602082015283604082015260018060a01b038316606082015260a0608082015260006122d560a083018461444d565b600060ff821660ff810361519a5761519a614b5a565b60010192915050565b6000602082840312156151b557600080fd5b815167ffffffffffffffff8111156151cc57600080fd5b61112884828501614e70565b60ff851681526080602082015260006151f460808301866144f2565b82810360408401526152068186614dfb565b905082810360608401526122d5818561444d565b6000825161522c818460208701614429565b919091019291505056fea2646970667358221220a8bf49c581b5467047ca4621438cc2d928eefe5e5ef7512caf24cf5a476f5e4564736f6c634300081800335661756c743a20496e76616c6964204164647265737300000000000000000000",
  "devdoc": {
    "errors": {
      "AddressEmptyCode(address)": [
        {
          "details": "There's no code at `target` (it is not a contract)."
        }
      ],
      "AddressInsufficientBalance(address)": [
        {
          "details": "The ETH balance of the account is not enough to perform the operation."
        }
      ],
      "ERC20InsufficientAllowance(address,uint256,uint256)": [
        {
          "details": "Indicates a failure with the `spender`s `allowance`. Used in transfers.",
          "params": {
            "allowance": "Amount of tokens a `spender` is allowed to operate with.",
            "needed": "Minimum amount required to perform a transfer.",
            "spender": "Address that may be allowed to operate on tokens without being their owner."
          }
        }
      ],
      "ERC20InsufficientBalance(address,uint256,uint256)": [
        {
          "details": "Indicates an error related to the current `balance` of a `sender`. Used in transfers.",
          "params": {
            "balance": "Current balance for the interacting account.",
            "needed": "Minimum amount required to perform a transfer.",
            "sender": "Address whose tokens are being transferred."
          }
        }
      ],
      "ERC20InvalidApprover(address)": [
        {
          "details": "Indicates a failure with the `approver` of a token to be approved. Used in approvals.",
          "params": {
            "approver": "Address initiating an approval operation."
          }
        }
      ],
      "ERC20InvalidReceiver(address)": [
        {
          "details": "Indicates a failure with the token `receiver`. Used in transfers.",
          "params": {
            "receiver": "Address to which tokens are being transferred."
          }
        }
      ],
      "ERC20InvalidSender(address)": [
        {
          "details": "Indicates a failure with the token `sender`. Used in transfers.",
          "params": {
            "sender": "Address whose tokens are being transferred."
          }
        }
      ],
      "ERC20InvalidSpender(address)": [
        {
          "details": "Indicates a failure with the `spender` to be approved. Used in approvals.",
          "params": {
            "spender": "Address that may be allowed to operate on tokens without being their owner."
          }
        }
      ],
      "FailedInnerCall()": [
        {
          "details": "A call to an address target failed. The target may have reverted."
        }
      ],
      "OwnableInvalidOwner(address)": [
        {
          "details": "The owner is not a valid owner account. (eg. `address(0)`)"
        }
      ],
      "OwnableUnauthorizedAccount(address)": [
        {
          "details": "The caller account is not authorized to perform an operation."
        }
      ],
      "ReentrancyGuardReentrantCall()": [
        {
          "details": "Unauthorized reentrant call."
        }
      ],
      "SafeERC20FailedOperation(address)": [
        {
          "details": "An operation with an ERC20 token failed."
        }
      ]
    },
    "events": {
      "Approval(address,address,uint256)": {
        "details": "Emitted when the allowance of a `spender` for an `owner` is set by a call to {approve}. `value` is the new allowance."
      },
      "Transfer(address,address,uint256)": {
        "details": "Emitted when `value` tokens are moved from one account (`from`) to another (`to`). Note that `value` may be zero."
      }
    },
    "kind": "dev",
    "methods": {
      "allowance(address,address)": {
        "details": "See {IERC20-allowance}."
      },
      "approve(address,uint256)": {
        "details": "See {IERC20-approve}. NOTE: If `value` is the maximum `uint256`, the allowance is not updated on `transferFrom`. This is semantically equivalent to an infinite approval. Requirements: - `spender` cannot be the zero address."
      },
      "balanceOf(address)": {
        "details": "See {IERC20-balanceOf}."
      },
      "decimals()": {
        "details": "Returns the number of decimals used to get its user representation. For example, if `decimals` equals `2`, a balance of `505` tokens should be displayed to a user as `5.05` (`505 / 10 ** 2`). Tokens usually opt for a value of 18, imitating the relationship between Ether and Wei. This is the default value returned by this function, unless it's overridden. NOTE: This information is only used for _display_ purposes: it in no way affects any of the arithmetic of the contract, including {IERC20-balanceOf} and {IERC20-transfer}."
      },
      "name()": {
        "details": "Returns the name of the token."
      },
      "owner()": {
        "details": "Returns the address of the current owner."
      },
      "renounceOwnership()": {
        "details": "Leaves the contract without owner. It will not be possible to call `onlyOwner` functions. Can only be called by the current owner. NOTE: Renouncing ownership will leave the contract without an owner, thereby disabling any functionality that is only available to the owner."
      },
      "symbol()": {
        "details": "Returns the symbol of the token, usually a shorter version of the name."
      },
      "totalSupply()": {
        "details": "See {IERC20-totalSupply}."
      },
      "transfer(address,uint256)": {
        "details": "See {IERC20-transfer}. Requirements: - `to` cannot be the zero address. - the caller must have a balance of at least `value`."
      },
      "transferFrom(address,address,uint256)": {
        "details": "See {IERC20-transferFrom}. Emits an {Approval} event indicating the updated allowance. This is not required by the EIP. See the note at the beginning of {ERC20}. NOTE: Does not update the allowance if the current allowance is the maximum `uint256`. Requirements: - `from` and `to` cannot be the zero address. - `from` must have a balance of at least `value`. - the caller must have allowance for ``from``'s tokens of at least `value`."
      },
      "transferOwnership(address)": {
        "details": "Transfers ownership of the contract to a new account (`newOwner`). Can only be called by the current owner."
      }
    },
    "version": 1
  },
  "userdoc": {
    "kind": "user",
    "methods": {},
    "version": 1
  },
  "storageLayout": {
    "storage": [
      {
        "astId": 3938,
        "contract": "contracts/vaults/theseus/Vault.sol:Vault",
        "label": "_owner",
        "offset": 0,
        "slot": "0",
        "type": "t_address"
      },
      {
        "astId": 4237,
        "contract": "contracts/vaults/theseus/Vault.sol:Vault",
        "label": "_balances",
        "offset": 0,
        "slot": "1",
        "type": "t_mapping(t_address,t_uint256)"
      },
      {
        "astId": 4243,
        "contract": "contracts/vaults/theseus/Vault.sol:Vault",
        "label": "_allowances",
        "offset": 0,
        "slot": "2",
        "type": "t_mapping(t_address,t_mapping(t_address,t_uint256))"
      },
      {
        "astId": 4245,
        "contract": "contracts/vaults/theseus/Vault.sol:Vault",
        "label": "_totalSupply",
        "offset": 0,
        "slot": "3",
        "type": "t_uint256"
      },
      {
        "astId": 4247,
        "contract": "contracts/vaults/theseus/Vault.sol:Vault",
        "label": "_name",
        "offset": 0,
        "slot": "4",
        "type": "t_string_storage"
      },
      {
        "astId": 4249,
        "contract": "contracts/vaults/theseus/Vault.sol:Vault",
        "label": "_symbol",
        "offset": 0,
        "slot": "5",
        "type": "t_string_storage"
      },
      {
        "astId": 5453,
        "contract": "contracts/vaults/theseus/Vault.sol:Vault",
        "label": "_status",
        "offset": 0,
        "slot": "6",
        "type": "t_uint256"
      },
      {
        "astId": 15181,
        "contract": "contracts/vaults/theseus/Vault.sol:Vault",
        "label": "master",
        "offset": 0,
        "slot": "7",
        "type": "t_address"
      },
      {
        "astId": 15183,
        "contract": "contracts/vaults/theseus/Vault.sol:Vault",
        "label": "admin",
        "offset": 0,
        "slot": "8",
        "type": "t_address"
      },
      {
        "astId": 15185,
        "contract": "contracts/vaults/theseus/Vault.sol:Vault",
        "label": "treasury",
        "offset": 0,
        "slot": "9",
        "type": "t_address_payable"
      },
      {
        "astId": 15187,
        "contract": "contracts/vaults/theseus/Vault.sol:Vault",
        "label": "tokenPriceConsumer",
        "offset": 0,
        "slot": "10",
        "type": "t_address"
      },
      {
        "astId": 15191,
        "contract": "contracts/vaults/theseus/Vault.sol:Vault",
        "label": "pluginIdToIndex",
        "offset": 0,
        "slot": "11",
        "type": "t_mapping(t_uint8,t_uint256)"
      },
      {
        "astId": 15195,
        "contract": "contracts/vaults/theseus/Vault.sol:Vault",
        "label": "plugins",
        "offset": 0,
        "slot": "12",
        "type": "t_array(t_struct(Plugin)15179_storage)dyn_storage"
      },
      {
        "astId": 15199,
        "contract": "contracts/vaults/theseus/Vault.sol:Vault",
        "label": "acceptedTokenMap",
        "offset": 0,
        "slot": "13",
        "type": "t_mapping(t_address,t_bool)"
      },
      {
        "astId": 15202,
        "contract": "contracts/vaults/theseus/Vault.sol:Vault",
        "label": "acceptedTokens",
        "offset": 0,
        "slot": "14",
        "type": "t_array(t_address)dyn_storage"
      },
      {
        "astId": 15206,
        "contract": "contracts/vaults/theseus/Vault.sol:Vault",
        "label": "depositAllowedTokenMap",
        "offset": 0,
        "slot": "15",
        "type": "t_mapping(t_address,t_bool)"
      },
      {
        "astId": 15209,
        "contract": "contracts/vaults/theseus/Vault.sol:Vault",
        "label": "depositAllowedTokens",
        "offset": 0,
        "slot": "16",
        "type": "t_array(t_address)dyn_storage"
      },
      {
        "astId": 15211,
        "contract": "contracts/vaults/theseus/Vault.sol:Vault",
        "label": "selectedPluginId",
        "offset": 0,
        "slot": "17",
        "type": "t_uint8"
      },
      {
        "astId": 15213,
        "contract": "contracts/vaults/theseus/Vault.sol:Vault",
        "label": "selectedPoolId",
        "offset": 1,
        "slot": "17",
        "type": "t_uint8"
      },
      {
        "astId": 15216,
        "contract": "contracts/vaults/theseus/Vault.sol:Vault",
        "label": "vaultLockers",
        "offset": 0,
        "slot": "18",
        "type": "t_array(t_address)dyn_storage"
      },
      {
        "astId": 15219,
        "contract": "contracts/vaults/theseus/Vault.sol:Vault",
        "label": "vaultManagers",
        "offset": 0,
        "slot": "19",
        "type": "t_array(t_address)dyn_storage"
      },
      {
        "astId": 15222,
        "contract": "contracts/vaults/theseus/Vault.sol:Vault",
        "label": "lpRate",
        "offset": 0,
        "slot": "20",
        "type": "t_uint256"
      },
      {
        "astId": 15224,
        "contract": "contracts/vaults/theseus/Vault.sol:Vault",
        "label": "protocolFeePercentage",
        "offset": 0,
        "slot": "21",
        "type": "t_uint256"
      },
      {
        "astId": 15226,
        "contract": "contracts/vaults/theseus/Vault.sol:Vault",
        "label": "protocolFeeInVault",
        "offset": 0,
        "slot": "22",
        "type": "t_uint256"
      },
      {
        "astId": 15228,
        "contract": "contracts/vaults/theseus/Vault.sol:Vault",
        "label": "depositMinExecFee",
        "offset": 0,
        "slot": "23",
        "type": "t_uint256"
      },
      {
        "astId": 15230,
        "contract": "contracts/vaults/theseus/Vault.sol:Vault",
        "label": "withdrawMinExecFee",
        "offset": 0,
        "slot": "24",
        "type": "t_uint256"
      }
    ],
    "types": {
      "t_address": {
        "encoding": "inplace",
        "label": "address",
        "numberOfBytes": "20"
      },
      "t_address_payable": {
        "encoding": "inplace",
        "label": "address payable",
        "numberOfBytes": "20"
      },
      "t_array(t_address)dyn_storage": {
        "base": "t_address",
        "encoding": "dynamic_array",
        "label": "address[]",
        "numberOfBytes": "32"
      },
      "t_array(t_struct(Plugin)15179_storage)dyn_storage": {
        "base": "t_struct(Plugin)15179_storage",
        "encoding": "dynamic_array",
        "label": "struct Vault.Plugin[]",
        "numberOfBytes": "32"
      },
      "t_bool": {
        "encoding": "inplace",
        "label": "bool",
        "numberOfBytes": "1"
      },
      "t_mapping(t_address,t_bool)": {
        "encoding": "mapping",
        "key": "t_address",
        "label": "mapping(address => bool)",
        "numberOfBytes": "32",
        "value": "t_bool"
      },
      "t_mapping(t_address,t_mapping(t_address,t_uint256))": {
        "encoding": "mapping",
        "key": "t_address",
        "label": "mapping(address => mapping(address => uint256))",
        "numberOfBytes": "32",
        "value": "t_mapping(t_address,t_uint256)"
      },
      "t_mapping(t_address,t_uint256)": {
        "encoding": "mapping",
        "key": "t_address",
        "label": "mapping(address => uint256)",
        "numberOfBytes": "32",
        "value": "t_uint256"
      },
      "t_mapping(t_uint8,t_uint256)": {
        "encoding": "mapping",
        "key": "t_uint8",
        "label": "mapping(uint8 => uint256)",
        "numberOfBytes": "32",
        "value": "t_uint256"
      },
      "t_string_storage": {
        "encoding": "bytes",
        "label": "string",
        "numberOfBytes": "32"
      },
      "t_struct(Plugin)15179_storage": {
        "encoding": "inplace",
        "label": "struct Vault.Plugin",
        "members": [
          {
            "astId": 15176,
            "contract": "contracts/vaults/theseus/Vault.sol:Vault",
            "label": "pluginAddress",
            "offset": 0,
            "slot": "0",
            "type": "t_address"
          },
          {
            "astId": 15178,
            "contract": "contracts/vaults/theseus/Vault.sol:Vault",
            "label": "pluginId",
            "offset": 20,
            "slot": "0",
            "type": "t_uint8"
          }
        ],
        "numberOfBytes": "32"
      },
      "t_uint256": {
        "encoding": "inplace",
        "label": "uint256",
        "numberOfBytes": "32"
      },
      "t_uint8": {
        "encoding": "inplace",
        "label": "uint8",
        "numberOfBytes": "1"
      }
    }
  }
}